:100000008EC700009EC700009CC700009AC7000072
:1000100098C700000C94FE3694C7000092C70000F9
:1000200090C700000C9472118CC700008AC70000B2
:100030000C940A2A0C94E2360C94F0360C94E429C1
:1000400080C700007EC700000C94BC367AC7000051
:1000500078C7000076C7000074C7000072C70000B0
:100060000C9473116EC700006CC700006AC70000D3
:1000700068C7000066C7000064C70000060E080ECF
:100080000C0E100E100E120E1C0E1C0E1E0E1E0E4E
:100090001E0E1E0E1E0E1E0E1E0E1E0E1E0E1E0E00
:1000A0001E0E1E0E1E0E1E0E1E0E1E0E1E0E1E0EF0
:1000B0001E0E1E0E160E140EE62FF72F903009F4AA
:1000C0009395EBB8CAB8B6EFB0937A00A5E0A093C9
:1000D0007B00A8E0A093810010928000AFEFA09376
:1000E0008500A0938400A6E0A093360010928B00B8
:1000F00010928A00B3E0AFE3A91B51E0392F3330EF
:100100002AF0A05CBC4F53953350F9CFB0938900CF
:10011000A0938800A0917A00A4FFFCCFB6EBB09327
:100120007A00A2E0A0936F00A9E0A093810062E0B2
:10013000A0E0A0937B00A1E0A09353008895EBB8CA
:10014000CAB884FF1AC0A8E10000AA95F1F7EF939E
:10015000FF93E1B1F2B1A4E0C4FCA2E0C2FCA1E0D3
:10016000BF2FBA2BAE2BB2B90AB9A1B9E1B9F2B916
:10017000FF91EF910BC00C949B00ACE100000000DC
:10018000AA95F1F72BB9EBB800000AB9A091840049
:10019000A0918500B0918900A395AB1760F7A0915D
:1001A0007A00A4FFF3CFB6EBB0937A006A9571F7AB
:1001B0006091780070917900308186FD630F6193C2
:1001C000308186FD731F80FF7193652F4A9579F703
:1001D00010926F0010928100B6E0B0937A000895FB
:1001E000280221021A02496473733D00206574617C
:1001F0003D00554A54005055540018000720080887
:1002000008F80000002060A03FA06020020202FF6A
:100210000202021010101F000000050842818989A7
:10022000760508C2A19189860508000402FF001026
:10023000100508F878385888091003081C3E7F0D0F
:10024000080710FF818181F1E1C1FF404040474331
:10025000410D080110FFFF11080310F1E1C14743F0
:10026000410E0008202121122060E0E0E0FEFE04A3
:1002700002010001037F7F21C2C4C4C040948400F6
:1002800007030102040E080210FEFE7F7F0000003B
:1002900000110005202060E0E0E00201000103C23F
:1002A000C4C4C040070301020431060306332034EE
:1002B0002D33306E46284C29005245465F523D0092
:1002C0005245465F433D0066706E1E6D006B4D04E7
:1002D00010400102045244533D005B435D0031066F
:1002E0000306332000310604050607080633200004
:1002F000432B455352405450313A330043307361DD
:100300006D7020004330200052695F4C6F3D0052F9
:10031000695F48693D0052303D0052482F524C0001
:100320002B52482D203132203133203233002B52D2
:100330004C2D2031322031332032330052482B00F3
:1003400052482D005248663D005265663D004943C3
:1003500045733D00494345303D0056657273696FF2
:100360006E20312E31336B000607080600060405A7
:1003700006002A012020007A20513D0020696620D5
:10038000002040302D35560006020600060106000A
:100390004E6F742063616C696272617465642120C0
:1003A000466F72FF63616C6962726174696F6E207F
:1003B000636C616D70207468652033FF70696E73C3
:1003C00020746F67657468657220616E6420737451
:1003D000617274207769746820746865FF6B657951
:1003E0002E2041636B6E6F776C656467652074685F
:1003F000652073656C662D74657374207769746805
:1004000020746865206B65792077697468696EFF70
:1004100032732E20446973636F6E6E65637420704F
:10042000696E7320616674657220746865FF6D651E
:100430007373616765202269736F6C617465FF5027
:10044000726F626521222069732073686F776E2E48
:1004500020536F66747761726520616E6420646FEB
:1004600063756D656E746174696F6E206973206168
:1004700074206769746875622E636F6D2FFE6D69F5
:100480006B726F636F6E74726F6C6C6572FE2D6E43
:1004900065742F7472616E736973746F72FE746524
:1004A000737465722000566578743D0049723D0092
:1004B0004C3D0020566C6F73733D00204553523DF8
:1004C000005643433D0043656C6C21000603060063
:1004D0004056673D002056743D0055663D0055620C
:1004E000653D00203132333D0050696E2000424AA4
:1004F000542D504E5000424A542D4E504E004367EA
:100500003D006846453D002D49474254004A464556
:1005100054002D4D4F5300444320507772204D6FAF
:100520006465004F4B004261742E2000436F6E746F
:1005300072617374004C462071756172747A004860
:10054000462071756172747A004672657175656EC8
:100550006379203E20324D487A0046726571756598
:100560006E63790073686F72742050726F62657386
:10057000210053656C6674657374007475726E2126
:100580000043281E4629636F7272656374696F6E3B
:1005900000726F7461727920656E636F64657200BA
:1005A00031302D6269742050574D00662D47656EBD
:1005B000657261746F7200537769746368206F6647
:1005C000660053686F77206461746100566F6C74C5
:1005D000616765005472616E736973746F72005362
:1005E000656C656374696F6E3A0054657374204579
:1005F0006E640069736F6C6174652050726F626520
:1006000073210053656C6674657374206D6F646547
:100610002E2E0054696D656F757421002064657419
:100620006563746564004E6F2C20756E6B6E6F771A
:100630006E2C206F720020756E6B6E6F776E00549B
:100640006879726973742E00547269616300706115
:1006500072740064616D616765642000656D70741B
:100660007921007765616B0054657374696E672E3C
:1006700000B903870358032E030703E402C302A44F
:100680000288020000140029003E00530069008027
:10069000009700AE00C600DF00F80012012D0149EE
:1006A0000165018201A001BE01DE01FF01210244BA
:1006B0000268028E02B502DE020903350364039468
:1006C00003C803FE0337047304B404F90443059319
:1006D00005EA054906B3062907AE074808FF08DE04
:1006E00009FD0A930C480F991B705780508D4A667C
:1006F00045E340E83C5E3933365A33C6306D2E4907
:100700002C532A8428DA264E25DF2389224A2120E9
:1007100020081F011E091D201C431B731AAD19F16F
:10072000183F189517F4165A16C6153A15B3143211
:1007300014B7134013CE126112F81193113111D373
:100740001078100000000000000000000000000011
:100750000000001E2121211200807F0000007E4A3F
:100760004A4A34000000000000FC40201008040247
:10077000010000000101010101010101010101016C
:10078000017F0488D0E0F0F80000000000000000C5
:1007900000000000000000000000FC9494840000B1
:1007A0000102FC0000000000000000000000001E2C
:1007B00021212112E0C0804020100F000000C02045
:1007C000202040000000FC00009E9E040303030361
:1007D00002000000202023242525232020203F0084
:1007E000007B7B2142840480C000000000000000E8
:1007F00000000000000000FC949484000406070739
:100800000708F000000000000000000000000000E9
:10081000803F2121120C00000000FF000000F008C2
:100820004848C80000FE0000E7818181C1E1F181F4
:10083000818101002020202121212020203F000053
:10084000F340404041434740407FC000000000006B
:100850000000000000000000004894949464000030
:100860000000FF0000000000000000000000000089
:100870000000003F2121120C0000FF000000F008E2
:100880004848D0000000000000FEFE0404040404F8
:100890000404070008080809090908087F3E1C0825
:1008A000087F7F20202020202020E0000000000082
:1008B00000000000000000000000004894949464D0
:1008C0000000FF0000000000000000000000FF002A
:1008D0003C0A090A3C002231292926000082868E22
:1008E0009EBEFEFEBEDEEFF6FAFEFEFAF2E2C28227
:1008F00000000008080804027984A4A46800FF002E
:1009000000000000000000000000000000000000E7
:10091000000000000000FF0000F0282428F0001074
:1009200008FC0000000000000000000000003C0A7D
:10093000090A3C00FF000000000000000000000069
:1009400000000000000000040C1C3C7CFF7C3C1CF0
:100950000C040000000000009EA1A9A99A80432376
:10096000130B0703FF03030303030300000000004E
:10097000000000000000788484844800FF0000002C
:10098000000000000000F00804E21109090909094B
:10099000090909091121C2040810E0000000010240
:1009A0000404070000000000804020108844231049
:1009B0000804030000000000000000000000FE0129
:1009C00000FC020100000000000000000000000028
:1009D0000000000000007949497900000000000093
:1009E00000000000FC021212EC040300010100F000
:1009F00008080808F00407000007040000F00000E1
:100A0000F0040203020103000C12120C00000000AB
:100A100000000000000000000000000000000000D6
:100A2000003CFE3C000000000B000000160E00160B
:100A30000E00000000000008FE0808FE0801070183
:100A4000010701001028FC88100001020702010EB6
:100A50008A4E20100C030000070507885422548892
:100A6000C00304040201060000160E00000000008E
:100A7000000000F804020000000102040000000071
:100A800000000204F80000000402014850E0E050B9
:100A900048020100000102004040F0404000000018
:100AA00001000000000000000000000503000040FD
:100AB00040404040400000000000000000000000F6
:100AC0000000000606000000804020100801000021
:100AD000000000F884422214F8010204040201001C
:100AE0000804FE00000000000700001804824224F1
:100AF000180605040404040C0202225488030404AA
:100B0000040201C0B08C82FE800000000007003E9D
:100B100022121222C2010204040201F8241212223B
:100B2000C401020404020102824222120E000700E4
:100B30000000008854222254880102040402013873
:100B400044828244F80204040402010000303000B0
:100B50000000000606000000003030000000000524
:100B60000300000040A0100804000000010204205F
:100B7000202020202001010101010100040810A013
:100B8000400004020100000C02C222120C00000608
:100B9000000000F804629294F8010204040402F8D0
:100BA00044424244F8070000000007FE22222222AD
:100BB000DC070404040403FC020202020C03040424
:100BC000040403FE02020202FC070404040403FE00
:100BD0002222222202070404040404FE222222020A
:100BE00002070000000000FC02024242CC030404A1
:100BF000040207FE20202020FE070000000007005E
:100C00000002FE020000000407040000000000FED5
:100C100000020404040300FE6090080402070000C0
:100C2000010204FE0000000000070404040404FEA6
:100C30000C30300CFE070000000007FE182040803A
:100C4000FE070000000107FC02020202FC0304048C
:100C5000040403FE424242423C070000000000FC44
:100C600002020202FC030404050205FE42C24242E3
:100C70003C0700000102040C122222428C030404EF
:100C8000040403000202FE0202000000070000FE4E
:100C900000000000FE030404040403007EC000C042
:100CA0007E00000107010000FE80F880FE000007C2
:100CB0000107000698606098060601000001060022
:100CC0001E20C0201E0000000700000282422212E7
:100CD0000E07040404040400FE02020200000704DC
:100CE0000404001020408000000000000001020009
:100CF000020202FE000004040407000008040204CB
:100D000008000000000000000000000000040404CF
:100D10000404040002040800000000000000008039
:100D200048484848F0030404040207FE1008080875
:100D3000F0070404040403F008080808300304045E
:100D4000040402E010101020FE030404040407F061
:100D5000888888887003040404040410FC120202CA
:100D6000040007000000007088888888F0020404EE
:100D7000040403FE40201010E007000000000700FC
:100D80000008FA000000000007000000000000FA60
:100D900000040808080700FE40A010080007000033
:100DA000010204000002FE00000000000304000035
:100DB000F808F008F0000700070007F820100808FE
:100DC000F0070000000007F008080808F00304041A
:100DD000040403F890080808F0070001010100F07E
:100DE00008080890F8000101010007F82010080821
:100DF00030070000000000304848888810020404D2
:100E00000404030010FE101000000003040402F8A4
:100E100000000000F80304040402070078C000C0CA
:100E20007800000107010000F800C000F80003048A
:100E30000304031860808060180601000001067832
:100E400080808040F80204040404030808884828CD
:100E5000180605040404040040A01C02020000005F
:100E6000070808000000FE00000000000F0000005E
:100E700002021CA04000080807000004020102044E
:100E800002000000000000E0100804081001010149
:100E900001010140F0101010F040000101010101BA
:100EA00000FCF8F0E040FCFC07030100000707FC31
:100EB000FC40E0F0F8FC0707000001030740FCFCE1
:100EC00000FCFC4000070700070700F808080808B6
:100ED000080803020202020202080808080808F8CB
:100EE0000202020202020340404040404040000033
:100EF000000000000040408000C020C0000001024F
:100F000002010200C020C000804002020102020172
:100F10000020202020202020205B524C5D00112446
:100F20001FBECFEFD0E1DEBFCDBF21E0A0E0B1E03A
:100F300001C01D92A63CB207E1F70E940E160C9468
:100F4000F4435EC82B98239A80FD2D9A80FF2D983C
:100F5000259A279A2E9867FD2F9A67FF2F982E9A29
:100F60002E9866FD2F9A66FF2F982E9A2E9865FD73
:100F70002F9A65FF2F982E9A2E9864FD2F9A64FF62
:100F80002F982E9A2E9863FD2F9A63FF2F982E9AF2
:100F90002E9862FD2F9A62FF2F982E9A2E9861FD4F
:100FA0002F9A61FF2F982E9A2E9860FD2F9A60FF3E
:100FB0002F982E9A2B9A2E982F98089597FF09C054
:100FC0008F939F938DE2CFD59F918F91909581952F
:100FD0009F4F62E271E04AE050E00E94934338C6BE
:100FE0000895ECDF01C0EADF80E2BDC58DE2BBC53C
:100FF0008DE3B9C5EF92FF920F931F93182F062F21
:10100000F42E83EE94E02FD6EE24E0913D01F09192
:101010003E018685E81611F4812F09C08485E81603
:1010200011F4802F04C08585E81611F48F2D9BD50F
:10103000E3948E2D833049F71F910F91FF90EF902D
:101040000895EF92FF920F931F93182F062FF42EFF
:1010500080E0A4D489EE94E006D6EE248E2DF5D55A
:10106000C7DFE0913D01F0913E018685E81611F45D
:10107000812F09C08485E81611F4802F04C085856E
:10108000E81611F48F2D6FD5AFDFE3948E2D8330EA
:1010900029F71F910F91FF90EF900895682F80E03E
:1010A00092E0662309F491E0623009F481E008954A
:1010B0000F93082FEEEAF1E0880F880FE80FF11D7B
:1010C000608171818281938164367105810591050A
:1010D00068F42091200127FD09C0802FDFDF692FF0
:1010E000F7D16EEF23E04DE1E9D604C04FEF04E005
:1010F0002DE1FDD579DF0F910895863058F4EDE9A3
:10110000F1E0E80FF11DE80FF11D8081918163E0AE
:10111000E0D66ACF08951F93182F80917601882317
:1011200019F062DF80E01FD500D48AED94E09BD5F2
:10113000812F82958F70E1DF812F8F70DEDF1F910D
:1011400008958091060182958F7019D080910601D3
:1011500083701CD080910601DECF0895E1E9F1E0B3
:10116000E80FF11D0895CF93F9DF9081C681C9176B
:1011700010F405D001C013D037DFCF910895EEDF12
:101180008F93808162D58F9101C008958F938CE8F1
:1011900093E069D58F91E2DF868157C50895DEDF40
:1011A0008F93868152D58F9101C008958F9388E8DF
:1011B00093E059D58F91D2DF808147C508958F93F1
:1011C0002F932AE08095519A089410F4599802C000
:1011D000599A000020D027D086952A95B1F72F91F3
:1011E0008F91089503D002D001D000D000D003D059
:1011F00002D001D000D000D003D002D001D000D066
:1012000000D0A89503D002D001D000D000D003D0E8
:1012100002D001D000D000D003D002D001D000D045
:1012200000D003D002D001D000D00000089582E0A9
:1012300090E0893C28F0885C48EC849FC001112430
:10124000009709F4089540918100477019F0D9DFA3
:101250000197F6CF8130910519F002975EE303C044
:1012600057E180E090E04091B200450F4093B30019
:1012700042E04093700047E043BF889546E043BF9B
:1012800010927000A895DCCF8F9384E0D1DF06C068
:101290008F93CDDF03C08F9381E0CADF8F911F93BF
:1012A000182F106410937C00E12FE07880912D01BD
:1012B000E81759F0E0932D01AEDF8EE980937A00B4
:1012C00083E083BF889582E083BF20E030E0A901FE
:1012D000E0E020C08EE980937A0083E083BF8895A8
:1012E00082E083BF6091780070917900260F371FEC
:1012F000411D511DE43069F480912F01803049F087
:1013000084E02030380728F417FD03C010681F7BE5
:10131000C9CFEF5F80912C01E817E0F260913001B6
:101320007091310117FF04C060912E0170912F015F
:1013300080E090E00E94E5412FEF33E040E050E094
:101340000E942742B901CA0120912C0130E040E0FF
:1013500050E00E942742C9011F9108959B01281B5C
:10136000390B50F0C9010895BC0180913001909172
:1013700031016817790718F4861B970B089580E0F0
:1013800090E0089589E290E00E94CE4320913401DC
:1013900030913501280F391F209316013093170122
:1013A00083E0283E380720F0C901885E934002C0E0
:1013B00080E090E062E370E00E940042683008F054
:1013C00067E0E1E7F6E0E60FF11DE60FF11D45915C
:1013D00055912591359162E3681B421B530B649F25
:1013E000C001659F900D1124499662E370E00E9450
:1013F0000042620F731F70937A01609379018BE250
:1014000090E00E94C643992787FD90956091340132
:1014100070913501860F971F90932F0180932E01B5
:10142000909375018093740108950F9221E08C329E
:10143000920710F48CE291E08C52914069E170E0E7
:101440000E94004299E16B3210F0982F6BE2981BDA
:10145000E9EEF6E0E60FF11DE60FF11D459155911D
:1014600025913591692F421B530B649FC001659FE5
:10147000900D11240C9669E170E00E940042620F09
:10148000731FCB010F900895CF93DF9324E130E0D9
:10149000B9010E940042DC01E3E8F6E0E60FF71F25
:1014A000E60FF71FC591D591459155914C1B5D0BEA
:1014B0004A9FC0014B9F900D5A9F900D1124B90176
:1014C0000E9400426C0F7D1FCB01DF91CF910895E8
:1014D000AEE1B0E0EEE6FAE00C941543662EB82ECD
:1014E000860F898320911A01283059F520917F01B8
:1014F00030918001409181015091820157FD15C0CA
:1015000010918E0109C0CA01B9012AE0312D412D87
:10151000512D0E9427421F5F173FACF391F42431F5
:1015200060E036074105510518F48FEF9FEF42C187
:10153000173F39F480E028178DE73807410541054A
:1015400010F020E03DE72C8B3D8B26EDA22EE2ED46
:10155000F2E0E60DF11D859180608E87E2EDF2E00C
:10156000EB0DF11D859180608F87EFECF2E0E60DC9
:10157000F11D7590EFECF2E0EB0DF11DC59090ECD4
:10158000692AB92A81E0E82EF12C012D112D8E83D4
:101590001F82188619861A861B861C861D86188E41
:1015A000198E1B8E1A8E0E943E2680E082B96092B0
:1015B0007C0031DE3F8531B97BB87AB852E05A956C
:1015C000F1F7000000001AB81BB8DD243E8531B9E0
:1015D0007BB87AB860927C00A895A0927A0080913E
:1015E0007A0086FDFCCF2090780030907900B09290
:1015F0007C004C2DE3D02091780030917900288B2D
:10160000398B3F8531B9CBB8CAB8A895B0927C0068
:10161000A0927A0080917A0086FDFCCF60917800DC
:101620007091790060927C00472DC8D0409178007D
:10163000509179001AB8CB01820D931DE80EF91E66
:10164000011D111DEA82FB820C831D838889998903
:10165000840F951F2E813F8168857985280F391F5A
:10166000611D711D2E833F836887798722E32417CC
:10167000150648F07BB87AB8D8DD1AB81BB8888D43
:101680008395888F07C0483E73E0570718F08A8D0E
:1016900083958A8F888999892817190658F03E857D
:1016A00031B9CBB8CAB8C1DD1AB81BB8898D8395DA
:1016B000898F07C0883E73E0970718F08B8D83955C
:1016C0008B8FD3945D2D5F3F49F05F3731F45C2DF4
:1016D000550FC50E572D550F750E78CF4090390117
:1016E00050903A01440C551C9201E4E0240D351D44
:1016F000EA95E1F72901570168016E807F808884AF
:10170000998420911A012830C1F46C897D89812D3A
:10171000912D65507040804090409B01AC010E942B
:10172000E5419B01AC0160EF7FE080E090E00E942A
:101730002742621A730A840A950AA614B704C804D9
:10174000D90428F46A187B088C089D0803C0662415
:1017500077244301B20180E090E09301A4010E944C
:10176000E5419501A6010E94274281E090E0798140
:10177000870F911D0E94C643682EC90160E170E089
:101780000E940042260F371FC9016816190618F477
:10179000861991090FC08C5E9F4F8615910540F404
:1017A0008C899D89843981E1980710F00E94B515D4
:1017B000812D912D6E96E2E10C94314310928100BF
:1017C0001092800010926F0010928B0010928A008D
:1017D00057E056BB5FEF509385005093840055E06F
:1017E00050937B0056EB50937A0051E05093810068
:1017F00058E25A95F1F700004BB94AB955E05A95AD
:10180000F1F700001AB81BB81092810080917A009D
:1018100084FFFCCF80937A000895CF93C82F1C16C5
:101820001CF4E2DBC150FBCFCF91089560933C01E3
:101830008093030186958093AD0187E0689F602DBA
:10184000112460930401089580913C01809301016B
:101850008091AD0180930201089580910201609111
:101860000101880FE3CF0895682F80E06BCB0895C6
:101870008EEAFADF85EAF8CF08958DE0A0DC8AE0F1
:101880009ECC08951092AD0160E080E0CFDFF5CFEF
:101890000895CF93DF93C0E080E1E6DF80E0E4DFEE
:1018A0008C2F806BE1DFD4E860E081E04BDBD1502E
:1018B000D9F7CF5FC83081F7E5DFDF91CF91089589
:1018C0002C982E982F982B98249A269A279A239A08
:1018D000A7DC2B9A239A2D98259A84E1A9DC2C9ACF
:1018E00084E1A6DC8EEAC0DF82EEBEDF82EABCDFE6
:1018F00080EABADF80ECB8DF8FE2B6DF84E2B4DFE3
:1019000081E8B2DF80E090E00E94C6438F73ACDFD5
:1019100080E4AADF84EAA8DF86EAA6DFBADF8FEADE
:10192000A3DF60E080E082CF089581E08093AD0185
:1019300060E082E07BDFA1CF089582E08093AD017B
:1019400060E084E073DF99CF089583E08093AD0178
:1019500060E086E06BDF91CF089590913C0182E1D9
:10196000891B5BCF0895CF93C82FF7DF8091AD011E
:101970008F5F8093AD01843038F083E08093AD01B8
:1019800081E080933F0102C010923F018091AD0140
:101990006C2F880F4BDF71DFCF910895E4DF79D48E
:1019A0008091AD01833008F068CF08956BDFD5DFFB
:1019B00069CF0895BADFD1DFB8CF0895582F28E056
:1019C00030E090E841E080E0652F642309F0892B46
:1019D000440F969521503109B9F70895A0E0B0E081
:1019E000E4EFFCE00C941643EC0110E0C801860F14
:1019F000911D813891050CF06CC0F12CE40EF11CA6
:101A000031E4E316F1040CF064C0742E76947694FD
:101A1000769481E0E81AF10893E0F594E7949A95BA
:101A2000E1F7E22FE2704E2E21FF0DC0C70199278A
:101A300087199109809FA001819F500D909F500DA3
:101A40001124C40FD51FF7E0FE1510F487E0E82E2F
:101A5000862F82958F708061382E87E0F82EF718D8
:101A60006F70662E2170522EE71468F18F2D806BF7
:101A7000FBDE832DF9DE862DF7DE5E01A00EB11EA2
:101A8000C5014E01C817D907A9F09C0121503109A1
:101A90006901552011F0F90101C0F4018491411050
:101AA00001C08CDF682F81E04DDAC601FFEF8F1A8D
:101AB0009F0AE8CF442019F05E01A01AB10A73947E
:101AC000FA94E501D1CF9091030187E0891B806BE7
:101AD000CBDECDB7DEB7E1E10C943243EF920F934A
:101AE000482F282F2F7380E6289F90011124C901C9
:101AF0008D5B984F46FF02C028E001C028E4209388
:101B0000050147FF03C01092000108C020E22093A6
:101B10000001209105012D5E2093050120E2E22EB7
:101B200008E120E0409100016091050157DF0F912D
:101B3000EF900895EF920F93262FFC016491319658
:101B40004491319604913196E49030910001430F15
:101B500030910501630F049641DF0F91EF900895D6
:101B600060E0E8CF0895EF920F93CF93C82F809154
:101B70003C018F5F80933C0140910301440F440F6F
:101B8000440FCC3088F42EE0C29FC001112430E114
:101B9000E32E07E020E0609104018D56914F1EDF97
:101BA00080910401895F25C02C2F30E02C51310930
:101BB0005CE0529FC001539F900D112420E1E22E62
:101BC00006E020E0609104018D51964F07DF60919F
:101BD00004016A5F6093040140910301440F440FC4
:101BE000440F01E020E083E19AE0F8DE80910401F7
:101BF0008F5F809304018C2F90E0FC013197EE31D0
:101C0000F105E0F4E25CFF4F0C9465428EE305C001
:101C10008CE7D5DA8CE313C08CE7D1DA8CE70FC000
:101C200082E50DC08DE20BC085E709C08FE4C7DAFD
:101C300088E6C5DA8DE603C08CE401C08C2FBFDADC
:101C4000A895CF910F91EF9008958F5C8CCF089558
:101C5000CF93DF93EC018991882311F084DFFBCFD0
:101C6000DF91CF910895CF93DF93EC01FE01849132
:101C7000882319F078DF2196F9CFDF91CF9108956D
:101C8000EF920F93FC0104913196E4900296A6DE48
:101C90000F91EF9008950F938EEF94E0E4DF409161
:101CA0008D014D3F64F460917B0170917C018091C6
:101CB0007D0190917E0103E026E419D002C08FE3FC
:101CC00052DF0F910895909119019F70923071F435
:101CD00065DE85ED92E0C7DFE0913D01F0913E01C8
:101CE00022E04DE16FEF84819581E8C00895AEE078
:101CF000B0E0EDE7FEE00C941543142F322E202EB9
:101D00006B017C010F7080E389838A838B838C83D2
:101D10008D838E83F7FE0AC069D9F094E094D09445
:101D2000C094C11CD11CE11CF11C04C025FE02C0E2
:101D30008BE219DF033071F0043099F00530C1F007
:101D40000630F1F0073021F174E6472E512C612C5A
:101D5000712C25C068EE462E63E0562E612C712C46
:101D60001EC050E1452E57E2552E612C712C17C034
:101D700040EA442E46E8542E66246394712C0FC02A
:101D800030E4432E32E4532E3FE0632E712C07C023
:101D900020E8422E26E9522E28E9622E712C9AE084
:101DA000892E912CA12CB12CC414D504E604F7047F
:101DB00070F0C701B6016B5F7F4F8F4F9F4FA5013A
:101DC00094010E94274269017A011F5FEDCFE1E192
:101DD000E10F9BEAE99FE12D11247E2E769486E0A7
:101DE000811B899F112D11241695912F990F190F81
:101DF000811B182F5E0187E0A80EB11C2AE0A50107
:101E0000C701B6010E947243F50101900020E9F775
:101E100031976F01CA18DB082C2D5601BB24812F86
:101E200090E004968A159B0514F473941D5FE72DCA
:101E3000F0E0E953FD4FF49024FE04C0201710F4A5
:101E40000C1901C000E08C2C811A800E181424F0AB
:101E50008EE289DE012F0C19111102C088EF882E45
:101E6000E12C10E0A00EB11EC82C082C000CDD08DF
:101E70008E2D90E08A159B05ACF4FC013696E01B94
:101E8000F10B81E090E08C0F9D1FE80FF91F80811E
:101E90006ADEE3948E2D90E08C159D0549F78EE265
:101EA00062DEE6CFFF2011F08F2D5DDE332011F0D2
:101EB000832D59DE2E96E2E10C9431430F93362F99
:101EC000BC0180E090E0022F242F432F10DF0F9100
:101ED00008950F93062FBC0180E090E026E54DEFBA
:101EE00006DF0F9108950F93042F28E440E0FFDEF2
:101EF0008AE739DE79D80F910895E82FF0E0EE0FE8
:101F0000FF1FE052FE4FA591B49190910001490F3F
:101F100090910501690F20E0CD01B2CE0895CF93D5
:101F2000DF93C82FD62FE0913D01F0913E0148E1AB
:101F30006EE18685E2DFE0913D01F0913E014D2F9B
:101F40006C2F8485DADFE0913D01F0913E0140E0A5
:101F50006EE18585D2DFDF91CF9108951F93CF93F6
:101F6000DF9397DC80ECBADD62E08AEF91E0E2DD9E
:101F700080E8B4DD8FE292E0F3DD60E085E056DCDE
:101F800086EF94E070DE69E085E050DC8EEE94E050
:101F90006ADE88E99AE316D17CDC83E49FDD83E086
:101FA0009DDD88E392E0DCDD61E082E03FDC8EE4F1
:101FB000DADD1CD88DE095E056DE6AE082E036DCA2
:101FC00080E5D1DD13D88DE095E04DDE88E99AE318
:101FD000F9D05FDC81EC82DD81E880DD81E992E08F
:101FE000BFDD60E085E022DC8EE4BDDD0E94F60707
:101FF00085E4B9DD87E095E036DE69E086E016DC51
:1020000080E5B1DD0E94F60785E4ADDD87E095E06F
:102010002ADE88E99AE3D6D03CDC81E45FDD85E8FE
:1020200092E09EDD81E05ADD81E692E099DD60E09C
:1020300081E0FCDB8EE497DD0E94F60784E493DD0B
:1020400087E095E010DE69E082E0F0DB80E58BDD83
:102050000E94F60784E487DD87E095E004DE88E9E6
:102060009AE3B0D016DC82EC39DD82E837DD87E513
:1020700092E076DD60E085E0D9DB8EE474DD0E94DD
:10208000F60785E470DD82E195E0EDDD69E086E04C
:10209000CDDB80E568DD0E94F60785E464DD82E142
:1020A00095E0E1DD88E99AE38DD0F3DB82E416DD8B
:1020B00081E592E055DD82E011DD8FE392E050DDB5
:1020C00061E081E0B3DB8EE44EDD0E94F60784E43C
:1020D0004ADD82E195E0C7DD6AE082E0A7DB80E5CA
:1020E00042DD0E94F60784E43EDD82E195E0BBDD3F
:1020F000C0E012E18C2F612F0E94F44191110BC0BE
:10210000D82FD37021F488E99AE35CD0C2DB60E079
:102110008D2F880F8BDB8CE18C0F25DDCF5FC436D4
:1021200049F788E99AE34ED0B4DBDF91CF911F9154
:10213000089593B1991F9927991F1D9992608091D5
:102140001101843050F08EE080930D0190930E01C8
:102150001092120181E08093110180911101E82F0A
:10216000F0E0E35FFE4F3081931729F191111AC01F
:10217000E3E0E80FE37020911201323041F4F0E027
:10218000E35FFE4F3081333069F42F5F09C0313097
:1021900049F4F0E0E35FFE4F3081333019F4215011
:1021A00020931201E1E0E80FE370E0931101F0E009
:1021B000E35FFE4F90838091120187FD81958093AC
:1021C00013010895A0E0B0E0E8EEF0E10C941E43A6
:1021D000E82ED92E2798259819D810921201E0914F
:1021E0001101F0E03196E370FF27E35FFE4F80EFCF
:1021F0008083C5E6D9E19DDF379905C00BD8D15062
:10220000D1F7C150B9F7CE2DDD2DF12C15E500E049
:10221000BB24B394D7FD37C082E3C82E8ADF0E9467
:102220000A09CA94C110FACF110F379B1F5F1F73A1
:102230001F3349F4011103C0CE2DDD2D04E00F5FE3
:10224000083C28F020C0111102C001111CC0A89543
:102250001C161D0624F42A9711F4CFEFDFEF8091AE
:102260001301882339F0F39480917701811102C022
:10227000B092770184E18F1568F680911201811187
:1022800002C0F12CC7CF802FCDB7DEB7E9E00C94A8
:102290003A43CF93D9DAC82F80913F01882301F1C7
:1022A000813051F4C33041F461E186E0BFDA8BE262
:1022B0005ADC61E186E0BADA80E49FE183DF8111D4
:1022C00004C0809113018111F7CFC33041F4809194
:1022D0003F01813021F460E086E0A8DA3EDBBDDA20
:1022E000CF9108951895189530911801A0913D014E
:1022F000B0913E01E1E9F1E080E090E08317B0F4B5
:1023000041911C962C911C97421719F0458124137A
:1023100002C00196F3CFFC01EE0FFF1FE356FE4F04
:1023200020813181293E334008F4089584E10895E5
:1023300010921A011092180110926F0110924F0121
:102340001092190110923B0110927601EAE5F1E03A
:10235000108211821282EBE7F1E0108A82E0818B19
:102360001092200117861686148215821682178213
:1023700081EF838B08958FE40E94DF0886E40E943A
:10238000DF0886E40E94DF0878DA72DA29980E9472
:10239000F50880E090E016CF08951F93CF93DF9368
:1023A000162F11B812B8E82FF0E0E153FD4F9491C9
:1023B0009BB9262F281BE20FF11D27FDFA95E4910A
:1023C000E92BEAB90E944F09EC01812F0E944F09C5
:1023D000AC01209130013091310136952795C9012A
:1023E0000397BE01625E7F4F8617970778F4255EDC
:1023F0003F4FC217D30750F4BA01625E7F4F861772
:10240000970720F481E04217530708F080E01AB8DC
:10241000DF91CF911F910895CF9361E080E0BDDF00
:10242000C82F62E080E0B9DFC80F62E081E0B5DF6D
:102430008C0FCF910895AFE0B0E0E1E2F2E10C94AF
:102440001543B82E10921A01807FA9F4E5DF83307E
:1024500009F087C31EDA83E096E005DC66DA8FE3D5
:1024600082DB80ED97E0AEDE8B30C8F412DA8AE5CD
:1024700093E0F9DB76C306E910E00BDA84E695E039
:10248000F2DBCADF833021F41F5F143010F007C085
:1024900010E088E20E941809015079F762C045DA1D
:1024A0000E942C2A86E193E0DEDB60E083E090E08E
:1024B0000E94D34360E084E090E00E94D34360E058
:1024C00082E090E00E94D34360E082E001D86C019A
:1024D0009A83898361E082E00E94680A7C019C8380
:1024E0008B8360E081E00E94680A8C019E838D836B
:1024F00023E040E26EEFC601E1DC23E040E26EEF54
:10250000C701DCDC23E04DE16EEFC801D7DC2AE532
:10251000C216D10424F084E190E09A838983698112
:1025200083E090E00E94D3438AE5E816F10424F0AA
:1025300084E190E09C838B836B8184E090E00E9437
:10254000D3430A35110524F084E190E09E838D8306
:102550006D8182E090E00E94D34382E080933F014E
:1025600098DEEB2DEF70EF87E13011F018E749C1ED
:10257000EE24E394F12C78EB872E72ED972E77E41E
:10258000A72EB12C08E0E0E2DE2EF0E83F2EC12CB1
:102590001E2D58E8252E0EDA09DA84E5E4DAC701A3
:1025A0000E94E9070E94F4071130B9F489E493E02E
:1025B0005ADB64E080913401909135018ADCB5D911
:1025C00084E493E050DB8091790190917A010E943C
:1025D000E9078EEB80932C01F0C0123091F5209129
:1025E000300130913101A8E5BBE10E946B4224EC3F
:1025F00036E340E050E00E94494229013A01F4E00C
:10260000FBB984E18AB980E00E94440984199509E4
:102610009A83898384E48AB980E00E9444098419FA
:1026200095099C838B8380E18BB980E58AB981E031
:102630000E944409841995099E838D838EE293E05C
:10264000AAC0133059F50BB928E22AB980E00E94DC
:102650004409209130013091310136952795388712
:102660002F83821B930B9A8389832AB880E00E9470
:1026700044092F813885821B930B9C838B83DBB8A5
:1026800080EA8AB981E00E9444092F813885821B43
:10269000930B9E838D8380E293E07DC0143039F4E8
:1026A00083EF95E0E0DAB8DE811158C275C01530CD
:1026B000B1F41BB80AB980E00E9444099A83898367
:1026C000DAB881E00E9444099C838B833AB882E0A7
:1026D0000E9444099E838D8380E493E05CC01630A1
:1026E00051F50AB90BB980E00E94440920913001EC
:1026F00030913101821B930B9A838983DAB8DBB85E
:1027000081E00E9444092091300130913101821B07
:10271000930B9C838B833AB83BB882E00E944409B8
:102720002091300130913101821B930B9E838D8368
:102730008CE393E030C0173079F52091300130916F
:102740003101A8E5BBE10E946B42A50194010E9402
:10275000274229013A010BB9ECE0EAB980E00E9476
:102760004409841995099A838983DBB8F0E3FAB99F
:1027700081E00E944409841995099C838B833BB8AE
:1027800020EC2AB982E00E944409841995099E83AD
:102790008D838AE193E067DAC8D889819A810E94A3
:1027A000DE070E94F4078B819C810E94DE070E9455
:1027B000F4078D819E810E94DE0711B812B81AB805
:1027C0001BB888EE93E0FEDC143011F08B3020F45F
:1027D000C39484E0C812DFCE88EE93E0F3DCEFEF21
:1027E000EE1AFE0AF8E0EF16F10409F0D0CEBECEE4
:1027F000E1D883EF95E037DA84E60E94180911509A
:1028000019F00ADE8111F4CF44D88FE093E02BDA7F
:1028100023E04DE16FEF80913201909133014EDB67
:1028200084D888E093E01FDA23E04DE16FEF8091D8
:10283000390190913A0142DB82E080933F0129DD2A
:1028400010921A0126D884E093E00DDA60E082E06D
:102850000E9414274090830150908401609085016C
:10286000709086015C864B8661E082E00E941427AE
:102870008090830190908401A0908501B0908601A2
:102880009E868D8660E081E00E941427009183017E
:10289000109184011E830D8362E080E00E94142762
:1028A00080918301909184019C838B8362E081E01D
:1028B0000E94142780918301909184019A878987CF
:1028C00061E080E00E941427E0908301F090840191
:1028D000FA82E982C2010E94F307C4010E94F30751
:1028E000B801110F880B990B03E026E444EFFFD9E0
:1028F0002F85213021F080913801823031F482E03F
:10290000E80EF11CF886EF8204C0F886EF82109280
:1029100038018E010F5F1F4F6E01EFE0CE0ED11C0C
:10292000F801819191910A97853B9105D0F4CE16DB
:10293000DF06B9F742E2E42E40E0F42EF8016081B0
:102940000E5F1F4F6E5EC7010E94D343FFEFEF1A69
:10295000FF0AC016D10691F70E94950C83E295E01C
:1029600082D982E080933F0194DC0E948C3E2F85C7
:10297000213029F080913801823009F0D8C020E45C
:10298000F22E10E03AE0832E912CA12CB12CD0DC59
:102990000E94B83900918D0120917B0130917C011A
:1029A00040917D0150917E01073F44F40F5FCA01C1
:1029B000B901A50194010E942742F6CF00938D0131
:1029C00020937B0130937C0140937D0150937E01E5
:1029D000073F09F094C0DA01C90180569109A109A5
:1029E000B10980399545A105B10508F088C060910D
:1029F0008F0170919001CB018B569F4F8B3291408C
:102A000008F07DC01F5F153008F47AC089E290E0BD
:102A10000E94E1430E94490C80EC92E024D980910D
:102A20008F01909190010E94DE070E94C209469892
:102A30003E9A87E00E944F09853D9340D4F73E9827
:102A400010922F0110922E0187E00E944F098C01F5
:102A5000809174019091750190932F0180932E01C4
:102A600087E00E944F097C01EE0CFF1C10922F01A1
:102A700010922E0187E00E944F09A0907401B0903F
:102A80007501B0922F01A0922E01800F911F8C0131
:102A90000E191F090E94950C89EB92E0E4D88BE295
:102AA00090E00E94C643D82E9501D8010E947A4238
:102AB00097010F2C000C440B550B0E94494213E068
:102AC0001D0D120F612F8BE290E00E94D343812FE6
:102AD000012E000C990B0E94DE070E94C20982E0C1
:102AE00080933F01D6DB1092380182E290E00E9491
:102AF000C643682F85E290E00E94D34318C010E0DF
:102B00000E94950C60917B0170917C0180917D0108
:102B100090917E0104E026E440918D01E8D80E9466
:102B2000AD0C88E20E941809FA94F11030CF89E1C7
:102B300080932C0180E00E949F410E94490C8AE50D
:102B400093E091D80E94950C8AEE95E08CD8109273
:102B50001A0182E080933F019CDB03C082E0C82E13
:102B60001BCE2F96E2E10C94314380913801811104
:102B70000DC082E290E00E94C64361E0680F85E2EA
:102B800090E00E94D34381E0809338010895EF9252
:102B9000FF920F931F93CF93DF93D62FE82FF0E090
:102BA000EE52FD4FE491E2B9E1B91BB8E62FF0E037
:102BB000E153FD4FE491EAB988E8E82E83E1F82E6D
:102BC000CE2FCC0F8D2F0E9444098C01CAB98E15CF
:102BD0009F0510F47801F6CF892BD9F00E94A50C3F
:102BE0008CEA94E040D8D80120EA36E841E050E091
:102BF0000E94804228E937EB40E050E00E942742E3
:102C0000DA01C90122E041E467EF58D911B812B8DE
:102C10001AB8CDB7DEB7E6E00C943D43A0E0B0E0D3
:102C2000E4E1F6E10C94154382E084B985B986E8C5
:102C300080937A001092C1000E94F708599A519A25
:102C4000C4B784B7877F84BF0FB6F894A8958091E6
:102C50006000886180936000109260000FBE84E97C
:102C60008093640088E380937E001092B00087E038
:102C70008093B10078940E94600CC3FD37C680E158
:102C800085BF0E94E93C84E080931101C0E0379940
:102C900005C00E941709CF5FCC33C9F78FE59DE6C9
:102CA00090930C0180930B01CF3130F080E69DE6CC
:102CB00090930C0180930B0110922D010E942C2AFD
:102CC0009FE088E10FB6F894A895809360000FBE4E
:102CD00090936000CC3391F05AE0B52E62E1A62EBD
:102CE00010E170E4872E71E0972EE0E6CE2EE1E051
:102CF000DE2EFCE07F2EADE06A2E38C00E940E343E
:102D00008111FCCFE9CF823009F4C4C1833009F4CA
:102D1000EEC18EE496E00E94330E86E396E00E94B8
:102D2000330E0E94950C80911801805D0E94B30DB6
:102D30008AE20E94B30D8CE893E00E94330E8CE18E
:102D400096E00E94330E0E943D0C86E00E946E0DBC
:102D5000C0E4DFE111B9379BFECFCE0133DA823315
:102D600008F445C50E940E348111FCCF8FEA0E9401
:102D7000340C84EA0E94340C0E94490C11B8D8DA51
:102D80000E942C2A0E94420CC3D580913B018823CB
:102D900079F00E94950C81EC94E00E94330E63E080
:102DA000809130019091310194D888EC0E941809EB
:102DB000379916C00E94DA0C86EA94E00E94330E1E
:102DC00011B883E00E944B09EC010E943D0C63E0C6
:102DD000BC9EC001BD9E900D11247BD88CE3E6CF34
:102DE0000E94950C0E943E2680911A01893021F59F
:102DF0000E94490C86EC94E00E94330E0E94950CD0
:102E000063E0809154019091550163D80E94F407CA
:102E100063E080915601909157015BD80E94F407BE
:102E200063E0809158019091590153D88AEC0E9437
:102E3000180981E100DBD6C485E290E00E94C64318
:102E4000C82F82E290E00E94C643C81BC09338019D
:102E500080E0F1DA0E94DA0C88E696E00E94330EF8
:102E600083E00E94DF080E943D0C42E061E080E0C8
:102E7000C5D542E060E081E0C1D541E062E080E09C
:102E8000BDD541E060E082E0B9D540E062E081E09C
:102E9000B5D540E061E082E0B1D580911A018111A1
:102EA0000EC00E943E2660E082E00E94142761E08E
:102EB00082E00E94142760E081E00E941427809144
:102EC0001A01833061F480911801823041F49091AD
:102ED000910180919201981302C00E94203B0E94B0
:102EE000490C90923E0180923D0180911A018630FA
:102EF00069F485EC0E946E0D60E188EF10D867E000
:102F000080E00E94160C8FE396E00EC0873079F4C3
:102F100084EC0E946E0D60E188EF01D867E080E0EC
:102F20000E94160C88E496E00E94330E48C48A3052
:102F300071F486EF91E00E94330ED0923E01C09270
:102F40003D0143E467E481E40E94FA0738C482301B
:102F500009F040C082EF91E00E94330E42E365E445
:102F600081E30E94FA0780E00E94B30C60914E0159
:102F700080914D01E62FF0E0E65AFE4FE80FF11D7B
:102F8000319710820E94152480914E01E0914D01ED
:102F9000F0E0E80FF11DEE0FFF1FEE0FFF1FE655EB
:102FA000FE4F608171818281938102E02DE14FEFBC
:102FB0000E94770E8CEE91E00E94330E60914A01E0
:102FC00070914B0180E090E003E025E240E00E9438
:102FD000770E08C4883081F420918B0180918C0198
:102FE00090E0820F911D029719F40E94882C08C46A
:102FF00080E00E94B62BF6C3833009F0B5C0809103
:103000001801813009F07FCE80E00E94B308609102
:10301000910180919701BBDD80E70E948B0840E021
:1030200060919101809197010E94AF3D60937B0177
:1030300070937C0180937D0190937E0180E00E94DB
:10304000CE0C60917B0170917C0180917D0190910B
:103050007E0102E026E442EF0E94770E0E94F6070E
:1030600041E060919101809197010E94AF3D609392
:103070007B0170937C0180937D0190937E0126E417
:1030800042EF0E94770E81E893E00E94330E0E9487
:103090003D0CF6C282E30E94B30D82E793E00E94EA
:1030A000330E9091910130919201931307C080E00B
:1030B0000E94CF0881E00E94C6080CC020919701B1
:1030C00080919801281308C080E00E94BF0881E029
:1030D0000E94D60881E0A1CF321304C081E0809322
:1030E000060134C0981315CE109306012FC083E358
:1030F000809306018091970190919201891303C0FA
:1031000021E02093060140919101309198014313F1
:1031100002C01093060120919301821303C082E044
:103120008093060180919901481303C040E24093C7
:10313000060132130EC0A0920601981761F083E3D6
:103140000E94B30D82E793E00E94330E0E94A10813
:1031500097C2981303C081E2809306018091060113
:10316000823208F0D6CDEBCF843009F053C1809184
:103170006F01882309F45EC080914F01882309F410
:1031800059C060914C0180914E010E9414272090FB
:103190007B0130907C0140907D0150907E01C09178
:1031A0008D0160916E0180916C010E9414278091C5
:1031B000400190914101A0914201B09143014091A1
:1031C0006001509161016091620170916301843FDF
:1031D00021E09207A105B10538F4443F31E05307DF
:1031E0006105710508F0C0EF443F5140610571056C
:1031F00040F4843F9140A105B10518F080EF809321
:103200008D0180918D01C8130EC080917B0190913A
:103210007C01A0917D01B0917E01281639064A06F5
:103220005B0618F005C0C8171CF46092190102C0B3
:103230007092190180916F01882361F080914F0194
:10324000882341F0379906C09091190181E08927C0
:103250008093190167E080E00E94160C80EC0E94C8
:103260006E0D809119018C3051F486EF94E00E942C
:10327000330E80916F018823A9F080E711C0D092AE
:103280003E01C0923D018FE292E00E94B00D8EEEB1
:1032900094E00E94330E80914F01882319F08EE64E
:1032A0000E94B30D21D8C82F8530A0F4A0913D0114
:1032B000B0913E01E82FF0E0EF56FE4F1D969C9135
:1032C0008081981711F062E001C060E08AEF91E020
:1032D0000E949A0D60E189EF0E948F0F87E00E94A3
:1032E000B30C82E095E00E94330EE0913D01F09135
:1032F0003E01608171818281938103E020E04EEF85
:103300000E94770E88E00E94B30C89E40E94B30DFE
:10331000E0913D01F0913E01868197818031974295
:1033200070F085E60E94B30DE0913D01F0913E0101
:1033300086819781805197429783868303C083E675
:103340000E94B30D0E94F807E0913D01F0913E010B
:1033500022E041E46AEF868197810E945E0F87E058
:103360000E94B30C8EED94E00E94330EE0913D017B
:10337000F0913E0163E0848195810E94690F81E0B4
:1033800080933F01E0913D01F0913E018085918560
:10339000892B91F086E00E94CE0C84E593E00E9498
:1033A000330EE0913D01F0913E0122E041E46AEFED
:1033B000808591850E945E0FE0913D01F0913E0174
:1033C00082859385892B91F086E00E94CE0C8EE455
:1033D00093E00E94330EE0913D01F0913E0122E026
:1033E00041E46AEF828593850E945E0FC53078F4D0
:1033F00080E00E94CE0C8C2F0E94B3088AED94E0EE
:103400000E94330E8C2F0E947D080E943D0C43E4E5
:1034100062E432C1853009F03FC167E080E00E947C
:10342000160C8091190184FF09C080E50E94B30D3C
:10343000D0923E01C0923D01C2E004C08EE40E94E1
:10344000B30DC0E00E94F60780911901D82FDF70FC
:10345000D43061F48DE095E00E94330E83EC0E943D
:103460006E0DCC23E1F188E392E037C085FF05C003
:1034700084E40E94B30DCF5F03C085E40E94B30DC6
:10348000D330B1F487E095E00E94330E81EC0E94C6
:103490006E0DC13019F485E892E01FC0C23019F4F6
:1034A00081E992E01AC0C330D1F481E692E015C000
:1034B00082E195E00E94330E82EC0E946E0DC130D5
:1034C00019F481E592E009C0C23019F487E592E071
:1034D00004C0C33021F48FE392E00E94B00D0E943B
:1034E00074118530A0F4A0913D01B0913E01E82F08
:1034F000F0E0EF56FE4F1D969C918081981711F0D9
:1035000062E001C060E08AEF91E00E949A0D60E104
:1035100089EF0E948F0F87E00E94B30C8091190100
:1035200085FD1CC086ED94E00E94330EE0913D01C4
:10353000F0913E0162E0828593850E94690FE091DF
:103540003D01F0913E01668584850E94142787E045
:103550000E94B30C0E944B0E86E06EC08F70E0910B
:103560003D01F0913E01843039F0668584850E94EA
:1035700014270E944B0E13C084819581892B79F00A
:1035800086EE91E00E94330EE0913D01F0913E0104
:1035900022E041E46AEF848195810E945E0F60E041
:1035A00084E00E94160C89E40E94B30D84E60E9418
:1035B000B30D0E94F807E0913D01F0913E0122E039
:1035C00041E46AEF868197810E945E0F80ED94E06E
:1035D0000E94330EE0913D01F0913E0162E0828550
:1035E00093850E94690FE0913D01F0913E01808535
:1035F0009185803C9241F8F480E00E94CE0C89E4F1
:103600000E94B30D84E60E94B30D0E94F80722E0E9
:1036100041E46BEF80E090E00E945E0F80ED94E06B
:103620000E94330EE0913D01F0913E0162E0808501
:1036300091850E94690F80E00E94630ED43009F4E6
:1036400051C1C0E080911801C81788F480E00E9441
:10365000CE0C8C2F0E94B3088AED94E00E94330EAA
:103660008C2F0E947D080E943D0CCF5FEBCFD330A2
:1036700009F034C143E467E485E40E942108B0C046
:103680000E943D0C80917601882309F4ABC011B9EA
:1036900011B880E00E94CE0C20917601222309F41B
:1036A00081C02130A1F480915D010E944E082091DB
:1036B0005D01213039F420911801211103C00E94CD
:1036C0003E2C9EC040E0692F0E94F92A8BC0909149
:1036D0005D0180915E0134E0839FD0011124A255E9
:1036E000BE4F34E0939FF0011124E255FE4F2D9020
:1036F0003D904D905C904081518162817381421573
:1037000053056405750510F4C82F01C0C92F223078
:1037100021F4890FC3E0C81B1CC080915F0194E0B5
:10372000899FD0011124A255BE4F24E0C29FF00111
:103730001124E255FE4F2D903D904D905C904081BC
:10374000518162817381421553056405750508F442
:10375000C82F0C2F0695D2E0DC1BC11103C0FF243B
:10376000F39402C032E0F32E802F0E94250E8DE6E6
:1037700093E00E94330E8D2F0E94250E8DE693E07C
:103780000E94330E8F2D0E94250E80E00E94B30C04
:1037900081E0C11180E00E94580882E0801B0E94F5
:1037A000580820C086E296E00E94330E0E94950CD5
:1037B00083E596E00E94330E8EE496E0C2CA67E08D
:1037C00082E00E94160C8AED94E00E94330EE09194
:1037D0003D01F0913E0162E0848195810E94690F74
:1037E0000E943D0CC0910B01D0910C01B3CA909185
:1037F0001301933008F0B6CA8111B8CA9111ADCA4D
:1038000080913801811143C00E94BB11AFCA302F93
:103810003370F32E11F40E94490C60E08F2D880F55
:103820000E94160C0E943D0CA8950F5F0370E12CBE
:10383000F12CE51490F1442009F447C0C50DD11DC9
:10384000FE01E057FC4FE491E03209F4219680E05C
:1038500090E022E1522EFC01EC0FFD1FE057FC4FDF
:10386000449030E24316B9F02EEF4216A1F00196D3
:103870008331910581F70111CACF80E29EE40E9455
:10388000E210811122C08091120187FFC0CF04E0B5
:10389000C0E0D0E0DCCF582EEACFFE01EE0DFF1DD8
:1038A000E057FC4F4490442081F08FEF481203C052
:1038B0000E94F40706C09EEF491619F0842D0E945D
:1038C000B30D2FEFE21AF20AB4CF80E29EE40E9419
:1038D000E2108091120187FDDACF96CF44E467E4CD
:1038E00083E5CBCE4FE367E48FE3C7CE0E94420C63
:1038F00083E196E00E94330E8BEC0E9418090E942F
:10390000BB1180E090E0CDB7DEB7E2E10C9431432B
:103910000F931F93CF93DF9385E00E944F0985E0BB
:103920000E944B09EC018C01000F111F000F111FA9
:1039300010923601C8018E5E92408138954250F057
:1039400087E195E00E94330E0E94AD0C81E08093E8
:10395000360128C086E295E00E94330E62E0C8017D
:103960008A569F4F0E94690F0E94F407CA3F86E063
:10397000D80790F4C333D64060F48CE596E00E94FB
:10398000330E0E94AD0C8DEC0E9418090E94BB11F1
:1039900009C083E696E002C083E295E00E94330E00
:1039A0000E94AD0CDF91CF911F910F910895CF939D
:1039B000DF93DC019C01261B370BE0E090E0B901AE
:1039C000690F711D672F7727920F260F371FBA01D6
:1039D0006E0F711D672F7727E40FEB01CC0FDD1FF2
:1039E0004C0F5D1F6B3E28F4A217B30740F7CA01C6
:1039F00002C080E090E0DF91CF910895A7E1B0E0B0
:103A0000E4E0FDE10C9415438E8B162F042FA8954E
:103A1000E62FF0E0E153FD4F24912D87220F2D8BEF
:103A2000339634913A83E42FF0E0E153FD4F449113
:103A30004B83E42EEE0C3396F490E82FF0E0E15344
:103A4000FD4F84918983880F8E87339694919F8B45
:103A50004BB94D84442A4AB891B992B9862F0E9435
:103A60004B099C878B878B818E298BB95D845E285F
:103A70005AB8812F0E944B09ED85EAB9812F0E9427
:103A80004B091C011AB80E9400091BB84AB8812FC3
:103A90000E944B096B857C850E94AE094C01FA811E
:103AA000F1B912B82B813981232B2C832BB92AB978
:103AB0008E890E944B090E94B4095C011BB80E94C8
:103AC000000949814BB98E890E944B090E94B409B3
:103AD0006C0189818AB98E890E944B090E94B409C0
:103AE0003C01B601C5010E94AE098032E1E09E07AB
:103AF00030F4F0E28F16F1E09F0608F49CC58C0CC0
:103B00009D1C2B853C85820F931F8816990618F4FF
:103B1000DC86CB86130120914F0130916F01822FFB
:103B200090E0830F911D02974CF0213009F083C57E
:103B300090914C0180916C0198137DC539813E298B
:103B40003A878B859C858437910508F489C1880F55
:103B5000991F44962816390608F082C19F8991B9A9
:103B600092B95AB8812F0E9448096C01802F0E9497
:103B70004F095C01EBB8812F0E9448099601295A30
:103B80003D4F12B82817390708F0AAC0EA81E1B9F9
:103B9000FA85FAB9FBB9802F0E94480988349F4002
:103BA00028F085E080931A0182E204C085E08093CA
:103BB0001A0184E280931901D0924501C092440118
:103BC000B501C6010E94B90990934B0180934A0147
:103BD0009601A0E1B7E20E946B422091140130915E
:103BE000150140E050E00E942742309347012093A6
:103BF00046018D898E298AB91BB83F8931B932B9FE
:103C0000802F0E944F096C01812F0E944809B60144
:103C10000E94B9099C0190934901809348019091B9
:103C200019019F70943071F5409146015091470100
:103C300060914A0170914B01C901B9DE0097F1F022
:103C4000EAB84F898A81482B41B9812F0E944809DF
:103C50006C0111B89C01A0E1B7E20E946B42209177
:103C6000390130913A0140E050E00E942742A90119
:103C7000B601809148019091490199DE90934501E8
:103C800080934401809119018F70843009F4CBC472
:103C900012B89A81F92AF1B8E981EAB9FC81FBB935
:103CA0008E890E944B096C010E94B4097C01812F0E
:103CB0000E944F09A0901B01B0901C01BC01C601DD
:103CC0000E94B9099501DC010E946B42970140E016
:103CD00050E00E9427423093450120934401A3C441
:103CE0002A8121B93A853AB93BB98E890E9448099F
:103CF0006C01802F0E944F095C0149814BB98E896C
:103D00000E944809895A9D4F8C159D0508F093C45F
:103D10008F8982B981B9802F0E944809813D9340E3
:103D200028F485E080931A0182E304C085E0809343
:103D30001A0184E380931901B601C5010E94B909F3
:103D400090936B0180936A01C6010E94B4099C01A3
:103D5000A0E1B7E20E946B4220911B0130911C014F
:103D600040E050E00E9427423093670120936601B3
:103D700012B8FA81F1B98E858E298AB98BB98E89EC
:103D80000E944F096C01802F0E944809B6010E94D1
:103D9000B9099C0190936901809368019091190180
:103DA0009F70943091F54091660150916701609148
:103DB0006A0170916B01C901FADD009711F1EBB84E
:103DC000EAB82F8922B9EA81E22BE1B98E890E94F3
:103DD00048090E94B4096C0111B89C01A0E1B7E246
:103DE0000E946B42209132013091330140E050E05B
:103DF0000E942742A901B601809168019091690152
:103E0000D6DD9093650180936401809119018F70D4
:103E1000843009F4E6C13F893F2932B931B91BB872
:103E20004C814AB98E890E944B095C01812F0E9406
:103E30004F097C01C0901401D0901501BC01C5014F
:103E40000E94B9099601DC010E946B42970140E093
:103E500050E00E9427423093650120936401C1C164
:103E600012B88A8181B999819BB9EA85EAB98E89AC
:103E70000E944B09988B8F870E94B4099F838E8381
:103E8000802F0E944F09998788873101F4E66F0ED1
:103E9000711C2E813F81B10162167306D8F4C901ED
:103EA0000E94B9096C0120911B0130911C0140E076
:103EB00050E060E871EA83E09CE10E942742D6016D
:103EC0000E948042E885F9854F01A12CB12CA50103
:103ED000940123C08E819F810E94B9096C01FC81ED
:103EE000FAB98E890E944B09988B8F870E94B4097A
:103EF0009F838E83802F0E944F0999878887BC01FA
:103F0000C6010E94B9099C01A4E6B0E00E946B4280
:103F1000E885F9859F0140E050E00E942742490171
:103F20005A011AB81BB8FF89F2B9F1B981E00E94B1
:103F300018094AB8812F0E944B098F359D4008F41B
:103F400056C15AB8812F0E9448096C01802F0E94E7
:103F50004F099A8B898B8E890E944F099C8B8B8B82
:103F600089899A89813D974008F4CAC0EBB8812FAE
:103F70000E9448098115944098F080911A0184307C
:103F800078F48AE080931A0169897A898B899C89FF
:103F90000E94B909909365018093640181E026C471
:103FA00084E080931A018DE08093190176012C142E
:103FB0003D0410F4E218F3084090140150901501EC
:103FC000612C712C60E871EA83E09CE1A30192010D
:103FD0000E942742D7010E948042E989FA899F0105
:103FE00040E050E00E94274280916F01882369F0F1
:103FF0008091600190916101A0916201B091630193
:1040000082179307A407B50708F520936001309342
:10401000610140936201509363019601A0E1B7E210
:104020000E946B42A30192010E94274230936701D4
:104030002093660169897A898B899C890E94B909D4
:10404000909365018093640181E001C080E040911C
:1040500060015091610160916201709163014815A6
:1040600059056A057B0538F58092600190926101DF
:10407000A0926201B0926301688579858F859889E5
:104080000E94B90990936501809364012E813F815C
:10409000A0E1B7E20E946B4220911B0130911C010C
:1040A00040E050E00E942742205F384D3093670186
:1040B0002093660103C0882309F498C3C0901401BB
:1040C000D0901501E12CF12C9101A0E1B7E20E9402
:1040D0006B42A70196010E94274230936901209309
:1040E00068012B853C85A0E1B7E20E946B42A701E5
:1040F00096010E94274230936B0120936A014ECFB4
:10410000F1E62F16310408F072C021EDC21627E047
:10411000D20608F46CC085E080931A0182E1809396
:104120001901C60186509F4FEB89FC898E179F07A6
:1041300020F483E18093190116C0E0901401F090FF
:104140001501B6018B899C890E94B9099701DC0190
:104150000E946B42960140E050E00E94274230935B
:10416000650120936401FA81F770BF2E802F80646F
:1041700080937C002BE02983CC24C394D12CEE24A3
:10418000EA94A3E0FA2EA89561E08B8160D55AB835
:1041900080B18B21E9F33D853AB980917A00806442
:1041A00080937A0080917A0086FDFCCF8091780020
:1041B00090917900F701E81BF90BCE0EDF1EF98113
:1041C000F150F983F111DFCFC601880F991F880FD5
:1041D000991F69E070E00E94004270936B01609348
:1041E0006A0180916F018F5F80936F01D7CE5AB8BB
:1041F000EBB8812F0E944B095C01802F0E944F0970
:104200009F838E830E94B4097C016A147B04A8F406
:10421000B101C5010E94B9096C01209114013091CE
:10422000150140E050E060E871EA83E09CE10E9403
:104230002742D6010E9480421DC04AB82B812BB96B
:10424000812F0E944B095C01802F0E944F099F83A0
:104250008E830E94B4097C01C5012A143B0410F42A
:1042600082199309B7010E94B9099C01A4E6B0E044
:104270000E946B42970140E050E00E9427422901D2
:104280003A013A8131B912B84C814AB94BB98E8999
:104290000E944B096C01802F0E944F094C01812F15
:1042A0000E944F097C0180E3C81681E1D80608F01E
:1042B000C0C199819BB98E890E944B0999878887D3
:1042C000E981EAB98E890E944B09988B8F871BB8C8
:1042D00081E00E941809F981FBB98E890E944B097F
:1042E0002F8538892034364008F05FC081339141F2
:1042F00008F45BC0C6018A569F4F28853985281768
:10430000390708F052C086E080931A0180914F016E
:104310008F5F80934F01B701C4010E94B909909348
:10432000450180934401B701C6010E94B9099093E9
:104330004B0180934A011AB81BB83A8132B981E027
:104340000E94180949814AB98E890E944B09853F0C
:10435000910508F05AC28C818AB9802F0E944B09BE
:10436000813D934008F451C28E890E944F098D3DD2
:10437000924008F44AC229812AB98E890E944B09C9
:104380008D3D924008F441C249814BB981E00E94C1
:1043900018091BB88E890E944B09853F910508F0CA
:1043A00034C287E080931A0130C28A8181B99B812F
:1043B0009AB99BB981E00E941809EA85EAB9EBB97C
:1043C0008E890E944B096C010E94B4097C01802FE8
:1043D0000E944F099D838C830E94B4099987888726
:1043E000812F0E944F094C01288539852E3F394085
:1043F00008F4B0C084E080931A018CE08093190126
:10440000B101C7010E94B9096C0120911B013091D3
:104410001C0140E050E060E871EA83E09CE10E940A
:104420002742D6010E948042E885F9859F0140E03D
:1044300050E00E94274280914F01882369F08091CB
:10444000400190914101A0914201B0914301821736
:104450009307A407B50720F520934001309341014D
:104460004093420150934301B4018C819D810E948D
:10447000B90990934501809344019701A0E1B7E207
:104480000E946B4220911B0130911C0140E050E0E2
:104490000E942742309347012093460181E001C0EA
:1044A00080E0409140015091410160914201709142
:1044B0004301441555056605770528F540924001EE
:1044C000509241016092420170924301B5018E8188
:1044D0009F810E94B9099093450180934401950101
:1044E000A0E1B7E20E946B422091140130911501C6
:1044F00040E050E00E942742205F384D3093470152
:104500002093460103C0882309F480C19101A0E1F2
:10451000B7E20E946B42209114013091150140E0F6
:1045200050E00E94274230934901209348012B8597
:104530003C85A0E1B7E20E946B4220911B013091C3
:104540001C0140E050E00E94274230934B01209331
:104550004A015BC1F1E62F16310408F06AC029E474
:10456000E2162DE0F20608F464C085E080931A019B
:1045700082E080931901C40186509F4F8C159D05E0
:1045800020F483E08093190115C0A0901B01B09026
:104590001C01B401C6010E94B9099501DC010E9409
:1045A0006B42970140E050E00E9427423093450162
:1045B000209344013F893770D32E802F80648093ED
:1045C0007C004BE04A83EE24E394F12CA89560E054
:1045D0008B813DD38A858AB98BB980B18D21E9F76A
:1045E00099819AB980917A00806480937A00809151
:1045F0007A0086FDFCCF8091780090917900E80EDA
:10460000F91EEA81E150EA83E111E0CFC701880F8A
:10461000991F880F991F69E070E00E940042709313
:104620004B0160934A0180914F018F5F80934F014E
:10463000ECC011B812B81AB81BB811B8F7EC2F16A5
:10464000F1E03F0608F4C4C012B82E852AB908EC80
:10465000EA803F89E32AE1B881E00E9418094A8193
:1046600041B98E890E944F09429710F0015099F785
:104670008E858AB98BB961E08B81E9D28E890E94DF
:104680004B094C019D899AB91BB8EF89E1B9E2B990
:1046900060E08B81DCD2812F0E944B090E94B4091B
:1046A0006C01FD85FAB9812F0E944F097C018E892A
:1046B0000E944B09B7010E94B9097C01812F0E9419
:1046C0004F095C018E890E944B09B5010E94B9090E
:1046D00097012C5E3F4F2817390708F47CC012B8A9
:1046E0002A8121B939813AB93BB961E08B81AFD2D6
:1046F000812F0E944F095C018E890E944B09B501F0
:104700000E94B9095C01E816F90650F44E854AB9D1
:104710004BB98E890E944B099C01640175010FC041
:104720008D898AB91BB89F8991B992B960E08B8154
:104730008ED2812F0E944B090E94B4099C01E8EEA1
:10474000EE16E3E0FE0630F4C70164E670E00E9476
:10475000004206C0B70154E0769567955A95E1F797
:10476000C701875991098938914190F52E153F0568
:1047700078F5C60143E0969587954A95E1F7893C1F
:10478000910510F088EC90E08C0D9D1D8E159F0515
:10479000F8F46C157D05E0F480911A01833018F46B
:1047A00083E080931A0120911801822F90E0FC0190
:1047B000EF56FE4F3E8930831683880F991FFC0108
:1047C000E356FE4FF182E0822F5F2093180103C071
:1047D000612F8E892AD011B812B81AB81BB88EE290
:1047E0000E94B30D6796E2E10C94314390916F0102
:1047F0009F5F90936F01882371F300936C01109376
:104800006D014E8940936E01E6CF81E090914F019A
:104810009F5F90934F018823F1F200934C018E89A2
:1048200080934D0110934E01D6CFA0E0B0E0EBE1B4
:10483000F4E20C941743A895462F50E0FA01E15397
:10484000FD4F949033969491A82FB0E0FD01E15371
:10485000FD4FE4903396F49070916F0120914F01D9
:1048600030E0270F311D232B09F0ECC1A8952091D2
:104870001E0130911F01220F331F220F331F30936F
:104880003101209330012091740130917501220F84
:10489000331F220F331F30932F0120932E012EEB55
:1048A00020932C01C0911801E1E9F1E070E04A0F7A
:1048B0005B1F7C1759F02191A58130E02A0F311D33
:1048C0002417350709F451C07F5FF3CFD62FC82FC7
:1048D00012B891B9EAB8EBB8B8E1BB2EC12CD12C13
:1048E0008D2F0E944B09782E692E8C2F0E944F0924
:1048F0008C018C199D0997FF03C0919581959109B1
:10490000039734F0A895BA946801B110E9CF2DC08F
:10491000EE0C1BB8EAB88C2F0E944B09813591052B
:1049200020F5EBB88C2F0E944B096C01F1B8F2B85E
:104930001BB89AB8A8E18A2EA12CB12C8C2F0E940A
:104940004B09582E492E8D2F0E944F097C018A1940
:104950009B0997FF03C09195819591090397CCF02E
:10496000A8958A9457018110E9CF80911E019091FA
:104970001F019093310180933001809174019091D7
:10498000750190932F0180932E0189E180932C0172
:1049900059C1990C9AB88D2F0E944B095C01003CBB
:1049A00084E4180730F425E8C21621E0D206E8F6C0
:1049B00005C080EBC8168DE4D806B8F624EAE216E6
:1049C00022E0F20608F06CC088E9A816B10468F28B
:1049D000C6010E94B409AC019601A8E9B7EB0E9498
:1049E0006B429A0140E050E00E94274229013A01BF
:1049F000C5010E94B4099C01A8E9B7EB0E946B4273
:104A0000850120E030E0A90198010E94274288E753
:104A1000C8168FE0D80680F4D301C201F2E0880FF7
:104A2000991FAA1FBB1FFA95D1F7BC01CD01620FD8
:104A3000731F841F951F14C088E7A8168FE0B8065F
:104A4000B0F4DA01C901E2E0880F991FAA1FBB1F69
:104A5000EA95D1F7BC01CD01640D751D861D971D2A
:104A600025E030E040E050E00E9427420CC0D30136
:104A7000C201820F931FA41FB51F9C01AD01569563
:104A8000479537952795A4E6B0E00E9480422B0118
:104A90003C012CEA420E2DE0521E611C711C79C0B3
:104AA000672D762D0617170708F4B801C52CD42CEE
:104AB000CE14DF0408F467010617170708F48B010A
:104AC000A0901B01B0901C01C8010E94B90995017A
:104AD000DC010E946B422B013C01C8010E94B40919
:104AE0009C0140E050E0C301B2010E94274229012D
:104AF0003A01CE14DF0408F47601A0901401B090BE
:104B00001501B701C6010E94B9099501DC010E9497
:104B10006B424701A12CB12CA50194010E942742B0
:104B200008378FE0180780F4D301C20162E0880FD4
:104B3000991FAA1FBB1F6A95D1F7BC01CD01620F57
:104B4000731F841F951F14C088E7E8168FE0F806CE
:104B5000C0F4DA01C90132E0880F991FAA1FBB1FF8
:104B60003A95D1F7BC01CD01640D751D861D971DC9
:104B700025E030E040E050E00E94274229013A0160
:104B800008C0420E531E641E751E76946794579497
:104B9000479410911A01143008F0E7CEC1500C2F41
:104BA0000D0F202F30E0E901C65ADE4F8881220F19
:104BB000331F220F331FF901E255FE4F8823D9F12D
:104BC000C080D180E280F380A30192012C193D09BD
:104BD0004E095F0957FF07C05095409530952195C4
:104BE0003F4F4F4F5F4FAAE0B0E00E94804224E663
:104BF000C20ED11CE11CF11CA7019601240D351D2C
:104C0000461D571D0E942742232B242B252B09F0DC
:104C1000ACCE133019F081E080931A0182E08883D2
:104C200080917601E82FF0E0E35AFE4F00838F5F1A
:104C3000809376019ACE408251826282738281E0B3
:104C4000888393CECDB7DEB7E0E10C943343CF93A6
:104C5000C82FC0959BB160FF02C0982B01C09C2358
:104C60009BB99AB1892B8AB90E9417098AB18C2302
:104C70008AB98BB1C823CBB9CF910895AF92BF92B7
:104C8000DF92EF92FF920F931F93CF93DF931AE07F
:104C90008CEFD82E09E011B812B81BB8DAB880E052
:104CA0000E944B097C0181E00E944F09EC0182E0E7
:104CB0000E944F099C0180911A01893079F411B842
:104CC0001AB8F0925501E0925401D0935701C09365
:104CD000560130935901209358015CC084E0E816D6
:104CE000F10440F4C430D10568F42430310538F3C0
:104CF00091E00CC091E088EEE81683E0F80618F029
:104D000090E001C091E0C83ED34008F49260283E94
:104D1000334008F4946091B9C0E0D0E0A89580E0F9
:104D20000E9444095C0181E00E944F097C0182E0FD
:104D30000E944F0924E1A21625E0B20608F4089A61
:104D400024E1E21625E0F20608F4099A843125E010
:104D5000920708F40A9A26E0A216B10430F426E07D
:104D6000E216F10410F4069738F02196C43F81E072
:104D7000D807A1F600931A01E12CF12CEC16FD06E0
:104D800031F00E9406092FEFE21AF20AF7CF115014
:104D900009F081CFDF91CF911F910F91FF90EF909C
:104DA000DF90BF90AF900895CF92DF92EF92FF9285
:104DB000CF9320917B0130917C0140917D015091F6
:104DC0007E01C0918D018AE0C82ED12CE12CF12CFE
:104DD0008C2FCF5F213A96E8390791E049075105BA
:104DE00038F0CA01B901A70196010E942742F0CF0D
:104DF00080938D01A0913001B09131010E948042D9
:104E000028E833E140E050E00E94274220937B01F4
:104E100030937C0140937D0150937E01CF91FF90B0
:104E2000EF90DF90CF9008958F929F92AF92BF92B4
:104E3000CF92DF92EF92FF921F93CF93DF93982F41
:104E4000990F980F2FEF260F920F90935101E82F93
:104E5000F0E0E153FD4FD491262F30E0F901E1530A
:104E6000FD4FF490F901EE52FD4FD49090911A014C
:104E7000913009F49DC220911801E1E9F1E0DF01D0
:104E800090E0921791F016963C911697631309C023
:104E90003C91831306C0448555854C3D554008F42C
:104EA00087C29F5F11963296ECCF162FC82F1092B3
:104EB00088011092870181EF80938D0110927B0110
:104EC00010927C0110927D0110927E01D7DE12B803
:104ED000D1B8FAB8FBB88C2F0E944F095C01812F22
:104EE0000E944F09A81AB90A1AB8109253011092D9
:104EF00052018091520190915301843F914008F0FA
:104F0000A9C0DBB9DAB90E9400091AB81BB80E941F
:104F10000709A8958C2F0E944F097C01EA18FB080D
:104F200080915201909153018E37910528F08BE4C6
:104F3000E816F1040CF48EC0809152019091530157
:104F40002DE2E21621E0F20634F40196909353012B
:104F500080935201CECF892B09F0A1C185E1E816DB
:104F600085E0F8060CF49BC189DE1BB887E081B9A7
:104F700012B8FD2EFF0CFAB880E480937B0084E524
:104F800080BF8C2F806480937C0086E180937A00C0
:104F90000E940A091092530110925201109280004F
:104FA000109285001092840087E286BB81E2809394
:104FB0006F0081E080937801FBB890911A01809393
:104FC0008100953009F04BC081E090E00C2E01C0CB
:104FD000880F0A94EAF78095877081B9F89483B7AF
:104FE000817F83BF80917801882389F083B78160B6
:104FF00083BF7894889583B78E7F83BFF894A895F4
:1050000080915201909153018034964059F77894E1
:1050100010928100E0908600F090870010926F005F
:1050200086E980937A001AB81BB88C2F0E944F092A
:105030002091340130913501821B930B0C96909393
:10504000900180938F0180915201909153018032A1
:10505000934038F011B812B81AB81BB8A9C1D1B82A
:10506000BDCF80915201909153019093860180931E
:105070008501F0928401E092830184EF80938D0199
:10508000809152019091530182349105C8F0609152
:10509000830170918401809185019091860124E6BD
:1050A00030E040E050E00E9427422093830130939B
:1050B0008401409385015093860186EF80938D0192
:1050C000A0917901B0917A012091830130918401FE
:1050D00040918501509186010E94804220E233E098
:1050E00040E050E00E9427422093830130938401E6
:1050F000409385015093860120937B0130937C017E
:1051000040937D0150937E014FDE80918D01843F5D
:1051100009F070C0C0907B01D0907C01E0907D01CF
:10512000F0907E0180EAC8168FE0D806E104F10411
:10513000C0F4A70196012C543F4F4F4F5F4F60EAD8
:105140007FE080E090E00E942742C20ED31EE41E62
:10515000F51EC0927B01D0927C01E0927D01F0921D
:105160007E01C0907B01D0907C01E0907D01F090A9
:105170007E01C114D10421E0E206F10428F4D092AA
:10518000BF01C092BE0106C081E090E09093BF01D4
:105190008093BE018091510190E08E5D9F4F0E94EF
:1051A000C64390E0A0E0B0E08C159D05AE05BF05BC
:1051B00068F4C81AD90AEA0AFB0AC0927B01D092A5
:1051C0007C01E0927D01F0927E0114C034E1C30EB7
:1051D000D11CE11CF11CC816D906EA06FB0610F426
:1051E0000E94B51510927B0110927C0110927D01F6
:1051F00010927E01DAB980917B0190917C01A0919F
:105200007D01B0917E014997A105B10508F422CF37
:10521000C12CD12C80911801882329F080911A018A
:10522000853009F017CF88E080931A0180918D01B5
:1052300090918E019817C4F089130CCF80907B0158
:1052400090907C01A0907D01B0907E0140917F0103
:10525000509180016091810170918201481559053A
:105260006A057B0508F0F6CE40917B0150917C01E8
:1052700060917D0170917E0140937F015093800188
:10528000609381017093820180938E01D0928A0194
:10529000C092890110938B01C0938C01DBCEC701B2
:1052A000C12CD12C20915201309153012C153D0578
:1052B00060F00E9401098C2F0E944F098A199B09F6
:1052C000A8952FEFC21AD20AEDCF5701A81AB90A32
:1052D0001A141B049CF439ECA316B1040CF0BACEDA
:1052E00028EE33E0D5010E947A4297010F2C000C82
:1052F000440B550B0E942742690102C0C12CD12CDE
:1053000080915201909153010196A0E0B0E080930A
:10531000830190938401A0938501B0938601C70116
:105320008A0D9B1D0E94150A2091830130918401F2
:105330004091850150918601DC010E94804260937A
:10534000830170938401809385019093860160931B
:105350007B0170937C0180937D0190937E0187EFA8
:1053600080938D0121DD80907B0190907C01A09045
:105370007D01B0907E0185E090E00E94C643A8EEDA
:10538000B3E0A81BB10987FDB395A50194010E9464
:105390008A4224E630E040E050E00E942742209319
:1053A0007B0130937C0140937D0150937E0132CF8D
:1053B000DF91CF911F91FF90EF90DF90CF90BF9042
:1053C000AF909F908F9008951F920F920FB60F92FB
:1053D00011248F939F93B59904C080917801811116
:1053E00009C0B59B10C080918600909187008A3FCC
:1053F000910548F480915201909153010196909348
:105400005301809352019F918F910F900FBE0F9087
:105410001F9018951F920F920FB60F9211248F9321
:105420009F9310927801B09B10C08091860090915C
:1054300087008A3F910548F4809152019091530171
:10544000019690935301809352019F918F910F90F9
:105450000FBE0F901F901895A0E0B0E0E2E3FAE2D3
:105460000C941B4388E893E190931F0180931E01E5
:1054700090933101809330018EEB80932C0112B810
:1054800080E181B90E940F0911B884E00E944B09A4
:10549000AC018B5C9840833F9140A0F481E0809305
:1054A0003B012091300130913101AFEBB9E00E9416
:1054B0006B429A0140E050E00E94274230931F0166
:1054C00020931E0180911E0190911F019093310144
:1054D000809330018EE10E944F098EE10E944B09BA
:1054E00090933501809334010E94C209C7DB12B842
:1054F000FF24F394F1B884E58BB9D4E0DAB980E005
:105500000E944B098C01C2E0C1B980E1C82ECAB823
:1055100081E00E944B09080F191FD1B990E4D92EE0
:10552000DAB882E00E944B09080F191F1BB8F2B8C5
:10553000F1B8DAB980E00E944B090E94B4097C01FD
:10554000C2B9C1B9CAB881E00E944B090E94B4092E
:10555000E80EF91ED2B9D1B9DAB882E00E944B093F
:105560000E94B409E701C80FD91F11B812B81AB8C0
:1055700020913001309131016901CC0CDD1CC20E4B
:10558000D31EC01AD10ACC1ADD0AE12CF12C9801E5
:10559000A0E9BAE10E946B42A70196010E9427424E
:1055A00049015A0130933A01209339019E01A0E943
:1055B000BAE10E946B42A70196010E9427423093F4
:1055C0003301209332012057354E30931C01209334
:1055D0001B0180E7881A85EE980A90921501809247
:1055E000140189E180932C01CDB7DEB7ECE00C9477
:1055F0003743CF92DF92EF92FF920F93CF93DF93D7
:10560000F82EC62FD42F0E94250E8DE693E00E941F
:10561000330EFBD16C2F8F2D0E941F40C090C20112
:10562000D090C301E090C401F090C50180912001A9
:1056300087FD05C0C114D104E104F10421F089E61D
:1056400093E00E94330E8C2F0E94250EC114D104CA
:10565000E104F10431F00E94F40780915D010E94A1
:105660005808DD2351F080913C018F3030F490E0F8
:10567000855F904F0E94330E02C00E94AD0C80E007
:105680000E94CE0CCD28CE28CF28D9F06091C2013F
:105690007091C3018091C4019091C50103E028E499
:1056A00047EF0E94770E8CE793E00E94330E8CE266
:1056B00090E00E94CE4323E046E464EF0E945E0F38
:1056C0001AC080915D010E945808809120018E3F90
:1056D00094F480EB94E00E94330E6091A9017091E4
:1056E000AA018091AB019091AC0103E028E44091C4
:1056F00020010E94770E8091BA019091BB01A09188
:10570000BC01B091BD01892B8A2B8B2BF1F080E07D
:105710000E94CE0C6091BA017091BB018091BC01D6
:105720009091BD0104E028E440E00E94770E87E7F5
:1057300093E00E94330E23E040E26FEF8091C001BE
:105740009091C1010E945E0F07C080E00E94B30CDF
:1057500080913F01811102C00E94AD0CDF91CF9179
:105760000F91FF90EF90DF90CF900895EF92FF920E
:105770000F931F93CF93DF93182F0E94420C8091B9
:105780008B010E94250E8CEC94E00E94330E6ED3A8
:1057900060918B0180918C010E94680AEC019093CA
:1057A000880180938701E0908901F0908A01CA3FC7
:1057B0008FEFD80720F48EE693E00E94330E80919D
:1057C0008C010E94250E112359F090913C018FE02D
:1057D000891B0E940D0C8AED92E00E94330E02C0DC
:1057E0000E94AD0C0E94950C60917F017091800128
:1057F000809181019091820104E026E440918E0124
:105800000E94770ECA3FDF4F68F48BEB94E00E9452
:10581000330E22E04DE16EEF809187019091880177
:105820000E945E0F0E94AD0C0E949D0CE114F104D9
:1058300069F084EB94E00E94330E22E045E26FEFC2
:105840008091890190918A010E945E0F0E94AD0CA7
:10585000CDB7DEB7E6E00C943D438F7021F40E9493
:10586000A50C0C94881C08958F3021F4909136017A
:10587000913011F08F5F089580E00895CF9385EE09
:1058800092E00E9479346AE080E00E94160C85E183
:105890009FE00E94330EC0E00E94981160E082E019
:1058A0000E94152462E080E00E9415240E94420CB0
:1058B00080917601882329F041E062E080E099DE62
:1058C00012C085EE92E00E94330E85E19FE00E94B7
:1058D000330E0E94950C8FE30E94B30D80E00E946E
:1058E000B30C0E94AD0C8C2FB8DF88EE93E00E94C1
:1058F000E210811109C080911301843028F48C2FAB
:10590000B3DFC82F8A3F40F20E94490CCF9108951F
:105910000F931F93CF93DF93C0E0D8E012EF0FE017
:105920000E94981160E082E07FDAD0931A018091A2
:105930008D01843FE1F480917B0190917C01A091E5
:105940007D01B0917E0184369105A105B10578F401
:1059500040E060E082E00E94AF3D60937B01709385
:105960007C0180937D0190937E0110938D01809145
:105970008D01823FACF080938E0180917B019091EC
:105980007C01A0917D01B0917E0180937F01909375
:105990008001A0938101B093820181E0E7DE1CC009
:1059A0000E94420C8EED92E00E94330E80913C01E9
:1059B000902F981B892F0E940D0C8AED92E00E9477
:1059C000330E0E94950C8FE30E94B30D0E94AD0C24
:1059D0000E949D0C0E94AD0C8C2F3FDF88EE93E05F
:1059E0000E94E21081110AC080911301843030F4CA
:1059F0008C2F3ADFC82F8A3F08F492CF0E94490CBF
:105A0000DF91CF911F910F910895A4E1B0E0EBE0F9
:105A1000FDE20C94154382E08093200180911A01ED
:105A2000813009F01FC280917601813009F01AC2DD
:105A300000915D0124E0029FF0011124E255FE4F28
:105A400080819181A281B381893032E59307A105DC
:105A5000B10508F007C24C0110E0802F123028F485
:105A60000E944E08582E492E03C00E944E082C0159
:105A7000E42DF0E0EE52FD4F2490852D90E0FC01E6
:105A8000E153FD4FE4911BB812B820EF8216910448
:105A9000B0F410FD14C0A0901401B090150130E9CD
:105AA000A31A3AE1B30A21E030E0052C02C0220F2C
:105AB000331F0A94E2F7C901822981B906C0EAB905
:105AC00021B8A0901401B0901501F4E13F2E852D6E
:105AD0000E9448093C01842D0E944F0934E063165E
