:100000002FC600003FC600003DC600003BC60000F2
:1000100039C600000C94003335C600000C946B0FF9
:1000200031C600002FC600000C9453270C94EF3209
:100030000C94F4320C942F2725C6000023C6000030
:100040000C94CE321FC600001DC600001BC6000067
:1000500019C600000C946C0F15C6000013C60000F2
:1000600011C600000FC60000E62FF72F903009F4EC
:100070009395E5B8C4B8B6EFB0937A00A5E0A09325
:100080007B00A8E0A093810010928000AFEFA093C6
:100090008500A0938400A6E0A093360010928B0008
:1000A00010928A00B3E0AFE3A91B51E0392F33303F
:1000B0002AF0A05CBC4F53953350F9CFB093890020
:1000C000A0938800A0917A00A4FFFCCFB6EBB09378
:1000D0007A00A2E0A0936F00A9E0A093810062E003
:1000E000A0E0A0937B00A1E0A09353008895E5B821
:1000F000C4B884FF1AC0A8E10000AA95F1F7EF93F5
:10010000FF93E7B1F8B1A4E0C2FCA2E0C0FCA1E01B
:10011000BF2FBA2BAE2BB8B904B9A7B9E7B9F8B954
:10012000FF91EF910BC00C947300ACE10000000054
:10013000AA95F1F725B9E5B8000004B9A0918400AB
:10014000A0918500B0918900A395AB1760F7A091AD
:100150007A00A4FFF3CFB6EBB0937A006A9571F7FB
:100160006091780070917900308186FD630F619312
:10017000308186FD731F80FF7193652F4A9579F753
:1001800010926F0010928100B6E0B0937A0008954B
:10019000C401BD01B60118000720080808F80000D6
:1001A000002060A03FA06020020202FF02020210B5
:1001B00010101F000000050842818989760508C2D9
:1001C000A19189860508000402FF0010100508F8B7
:1001D00078385888091003081C3E7F0D080710FF67
:1001E000818181F1E1C1FF4040404743410D080159
:1001F00010FFFF11080310F1E1C14743410E000851
:10020000202121122060E0E0E0FEFE040201000156
:10021000037F7F21C2C4C4C040948400070301024D
:10022000040E080210FEFE7F7F0000000011000592
:10023000202060E0E0E00201000103C2C4C4C0402D
:100240000703010204010410090A0C4E6F742063B5
:10025000616C696272617465642120466F72FF632C
:10026000616C6962726174696F6E20636C616D703C
:10027000207468652033FF70696E7320746F676542
:100280007468657220616E64207374617274207783
:1002900069746820746865FF6B65792E2041636B13
:1002A0006E6F776C65646765207468652073656C34
:1002B000662D74657374207769746820746865208E
:1002C0006B65792077697468696EFF32732E2044FC
:1002D0006973636F6E6E6563742070696E732061FD
:1002E0006674657220746865FF6D65737361676518
:1002F000202269736F6C617465FF50726F626521B3
:10030000222069732073686F776E2E20536F667496
:100310007761726520616E6420646F63756D656ED0
:10032000746174696F6E20697320617420676974E9
:100330006875622E636F6D2FFE6B756269343800CD
:10034000B903870358032E030703E402C302A40280
:1003500088020000140029003E005300690080005C
:100360009700AE00C600DF00F80012012D01490120
:1003700065018201A001BE01DE01FF0121024402EC
:1003800068028E02B502DE0209033503640394039A
:10039000C803FE0337047304B404F904430593054A
:1003A000EA054906B3062907AE074808FF08DE0933
:1003B000FD0A930C480F991B00000000000000008C
:1003C00000000000000000001E2121211200807F9B
:1003D0000000007E4A4A4A34000000000000FC4051
:1003E00020100804020100000001010101010101C7
:1003F0000101010101017F0488D0E0F0F800000054
:10040000000000000000000000000000000000FCF0
:1004100094948400000102FC000000000000000031
:10042000000000001E21212112E0C0804020100F9A
:10043000000000C020202040000000FC00009E9E24
:1004400004030303030200000020202324252523A6
:100450002020203F00007B7B2142840480C00000DC
:10046000000000000000000000000000FC949484E4
:1004700000040607070708F0000000000000000065
:100480000000000000803F2121120C00000000FF4E
:10049000000000F0084848C80000FE0000E7818125
:1004A00081C1E1F1818181010020202021212120D1
:1004B00020203F0000F340404041434740407FC080
:1004C0000000000000000000000000000000489450
:1004D00094946400000000FF000000000000000091
:1004E00000000000000000003F2121120C0000FF6E
:1004F000000000F0084848D0000000000000FEFEA8
:10050000040404040404040700080808090909088D
:10051000087F3E1C08087F7F20202020202020E02C
:1005200000000000000000000000000000000000CB
:1005300048949494640000FF000000000000000054
:10054000000000FF003C0A090A3C0022312929264C
:10055000000082868E9EBEFEFEBEDEEFF6FAFEFE36
:10056000FAF2E2C28200000008080804027984A4BA
:10057000A46800FF00000000000000000000000070
:100580000000000000000000000000FF0000F02854
:100590002428F0001008FC0000000000000000000B
:1005A0000000003C0A090A3C00FF000000000000B7
:1005B000000000000000000000000000040C1C3CD3
:1005C0007CFF7C3C1C0C040000000000009EA1A9E4
:1005D000A99A804323130B0703FF030303030303B9
:1005E00000000000000000000000007884848448BF
:1005F00000FF000000000000000000F00804E2110D
:100600000909090909090909091121C2040810E0A9
:1006100000000001020404070000000000804020E8
:1006200010884423100804030000000000000000AC
:10063000000000FE0100FC020100000000000000BC
:100640000000000000000000000000794949790026
:10065000000000000000000000F80402225488049A
:100660000300020201007884020202847806040773
:100670000007040600FC00000080FC0007010101E7
:10068000000100000C12120C00000000000000002D
:100690000000000000000000000000000000003C1E
:1006A000FE3C0000000000060000000000160E00E6
:1006B000160E00000000000000000010FC1010FCEE
:1006C0001000010701010701001824FE4488000002
:1006D00003040F0403000C12924C201008020100C6
:1006E0000609090688542254880080010204040285
:1006F000010200160E0000000000000000000000D3
:100700000000F008040200000001020408000000DC
:10071000020408F000000008040201004850E0FC58
:10072000E0504802010007000102404040F840400C
:1007300000000000030000000000000000000000B6
:100740000B050000000040404040404040000000D9
:10075000000000000000000000000000060600008D
:100760000000000000C0300C03000C03000000007B
:10077000F8844222120CF801020404040201000869
:100780000402FE000000000000070000188442423E
:10079000422418070404040404040C020222225414
:1007A00088030404040402016050484442FE4000EF
:1007B0000000000007003E2212121222C2010204B1
:1007C00004040201F82412121222C40102040404D7
:1007D00002010202824222120E0007000000000005
:1007E000885422222254880102040404020138445D
:1007F00082828244F80204040404020100181800F2
:1008000000000000060600000000001818000000AC
:1008100000000B07000000000040A01008040200C8
:1008200000000102040800202020202020000101F7
:10083000010101010002040810A0400008040201A7
:100840000000180402824224180000000D0000007D
:10085000FC0262929292FC03040404040400F088F7
:1008600084828488F007000000000007FE22222214
:100870002222DC07040404040403FC020202020234
:100880000C03040404040403FE0202020202FC0737
:10089000040404040403FE22222222220207040488
:1008A00004040404FE2222222202020700000000A7
:1008B0000000FC0202024242CC03040404040207CA
:1008C000FE2020202020FE0700000000000700007E
:1008D00002FE020000000004070400000000000007
:1008E00000FE0000020404040300FE2050880402FD
:1008F0000007000000010204FE00000000000007E5
:10090000040404040404FE0408100804FE070000A4
:1009100000000007FE0618608000FE0700000001CE
:100920000607FC0202020202FC030404040404039E
:10093000FE42424242423C07000000000000FC022E
:1009400002020202FC03040404050205FE4242C244
:1009500042423C070000000102040C122222224203
:100960008C03040404040403020202FE02020200D7
:10097000000007000000FE0000000000FE03040469
:10098000040404030E70800080700E000003040352
:1009900000007E8000E000807E000007000700006D
:1009A000020C9060900C02040300000003041E205F
:1009B000408040201E00000007000000028242220A
:1009C000120A060704040404040400FE02020000E4
:1009D0000000070404000000081020408000000010
:1009E0000000000001020000000202FE0000000002
:1009F00004040700100804020408100000000000AE
:100A000000000000000000000004040404040404CA
:100A10000000000E160000000000000000008048EA
:100A200048484848F003040404040207FE2010105C
:100A30001010E007040404040403F0080808080880
:100A40001003040404040402E01010101020FE033C
:100A5000040404040407F088888888887003040468
:100A6000040404040020FC22220204000007000009
:100A70000000708888888888F00004040404040357
:100A8000FE4020101010E0070000000000070000EA
:100A900008FA00000000000007000000000000004D
:100AA000FA000002040404030000FE4040A0100805
:100AB0000007000000010204000002FE0000000028
:100AC000000003040000F81008F00808F007000018
:100AD00007000007F82010080808F00700000000D1
:100AE0000007F00808080808F003040404040403DD
:100AF000F89008080808F007000101010100F0085B
:100B000008080890F800010101010007F82010080A
:100B10000808300700000000000030484888888836
:100B200010020404040404030010FE10100000006E
:100B3000000304040402F80000000000F8030404A9
:100B4000040402071860800080601800000106019C
:100B50000000F80000C00000F801020403040201D4
:100B6000081020C02010080402010001020478804F
:100B700080808040F80204040404040308088848C4
:100B80002818080205040404040440A01C02020002
:100B90000000000708080000000000FF000000003F
:100BA00000000F000000000002021CA0400000082E
:100BB000080700000402010204080400000000000D
:100BC0000000E01008040408100101010101010106
:100BD00040F010101010F04000010101010101006F
:100BE00040FCF8F0E040FC40000703010000070073
:100BF00040FC40E0F0F8FC40000700000103070063
:100C000040FCFC0000FCFC40000707000007070058
:100C1000F808080808080808030202020202020293
:100C200008080808080808F8020202020202020383
:100C300040404040404040400000000000000000B4
:100C400040C000C020C000C0000102020102020238
:100C500020C000C020C000C0010202020102020147
:100C600011241FBECFEFD8E0DEBFCDBF21E0A0E052
:100C7000B1E001C01D92A63CB207E1F70E94EE135D
:100C80000C94083CBDC96F938F93559860D1529ACC
:100C90005ED18AE70DD06F9180E860FD80E408D0D6
:100CA0008F9106D0529A53D1559851D152984FC135
:100CB0000894881F559A10F4529801C0529A47D14F
:100CC000559845D1880FB1F7559A529840D155980B
:100CD0004D9BFECF4A9981E03AD1559A38C108958B
:100CE000529855985A985D98089597FF09C08F9328
:100CF0009F938DE2FED59F918F91909581959F4F07
:100D000062E271E04AE050E00E94A73B65C6EDDF79
:100D100001C0EBDF80E2EDC58DE2EBC58DE3E9C5F7
:100D2000EF92FF920F931F93182F062FF42E82E657
:100D300091E05DD6EE24E0913D01F0913E01868583
:100D4000E81611F4812F09C08485E81611F4802F6C
:100D500004C08585E81611F48F2DCBD5E3948E2D34
:100D6000833049F71F910F91FF90EF900895EF9214
:100D7000FF920F931F93182F062FF42E80E0B4D408
:100D800088E691E034D6EE248E2D23D6C7DFE0919D
:100D90003D01F0913E018685E81611F4812F09C0CE
:100DA0008485E81611F4802F04C08585E81611F4B7
:100DB0008F2D9FD5AFDFE3948E2D833029F71F91C0
:100DC0000F91FF90EF900895682F80E092E06623E6
:100DD00009F491E0623009F481E008950F93082F3F
:100DE000EEEAF1E0880F880FE80FF11D6081718154
:100DF00082819381643671058105910568F42091A3
:100E0000200127FD09C0802FDFDF692F03D26EEF9D
:100E100023E04DE111D704C04FEF04E02DE12CD6C3
:100E200079DF0F910895863058F4EDE9F1E0E80F8D
:100E3000F11DE80FF11D8081918163E008D76ACF31
:100E400008951F93182F80917601882319F062DF8F
:100E500080E04FD510D489E591E0C9D5812F8295E6
:100E60008F70E1DF812F8F70DEDF1F9108958091F9
:100E7000060182958F7018D08091060183701AD078
:100E800080910601DECFE1E9F1E0E80FF11D089560
:100E9000CF93F9DF9081C681C91710F405D001C046
:100EA00012D038DFCF910895EEDF8F93808191D5F6
:100EB0008F9100C08F9387E291E099D58F91E3DF06
:100EC000868187C50895DFDF8F93868182D58F91D4
:100ED00000C08F9383E291E08AD58F91D4DF808127
:100EE00078C508958F932F932AE080953B9A0894B4
:100EF00010F4439802C0439A000020D027D0869572
:100F00002A95B1F72F918F91089503D002D001D087
:100F100000D000D003D002D001D000D000D003D048
:100F200002D001D000D000D0A89503D002D001D0CB
:100F300000D000D003D002D001D000D000D003D028
:100F400002D001D000D000D003D002D001D000D018
:100F50000000089582E090E0893C28F0885C48EC2D
:100F6000849FC0011124009709F4089540918100E5
:100F7000477019F0D9DF0197F6CF8130910519F04C
:100F800002975EE303C057E180E090E04091B20039
:100F9000450F4093B30042E04093700047E043BFE9
:100FA000889546E043BF10927000A895DCCF8F93E0
:100FB00084E0D1DF06C08F93CDDF03C08F9381E043
:100FC000CADF8F911F93182F106410937C00E12FBC
:100FD000E07880912D01E81759F0E0932D01AEDF04
:100FE0008EE980937A0083E083BF889582E083BF97
:100FF00020E030E0A901E0E01FC08EE980937A0094
:1010000083E083BF889582E083BF60917800709110
:101010007900260F371F411D511DE43061F4809186
:101020002F01803041F084E02030380720F417FD94
:1010300002C01068CACFEF5F80912C01E817E8F278
:10104000609130017091310117FF04C060912E0151
:1010500070912F0180E090E00E94173A2FEF33E06B
:1010600040E050E00E94593AB901CA0120912C0198
:1010700030E040E050E00E94593AC9011F910895C4
:101080009B01281B390B50F0C9010895BC018091C8
:101090003001909131016817790718F4861B970B7E
:1010A000089580E090E0089588E393E00E94E23B99
:1010B0002091340130913501280F391F20931601FA
:1010C0003093170183E0283E380720F0C901885E7D
:1010D000934002C080E090E062E370E00E94323A08
:1010E000683008F067E0E0E4F3E0E60FF11DE60F9A
:1010F000F11D459155912591359162E3681B421B85
:10110000530B649FC001659F900D1124499662E3C3
:1011100070E00E94323A620F731F70937A016093FD
:1011200079018AE393E00E94DA3B992787FD909545
:101130006091340170913501860F971F90932F01B4
:1011400080932E01909375018093740108950F92FE
:1011500021E08C32920710F48CE291E08C529140A5
:1011600069E170E00E94323A99E16B3210F0982FF9
:101170006BE2981BE6EBF2E0E60FF11DE60FF11DC6
:101180009F93CF010E94DA3B482F3196CF010E94F6
:10119000DA3B582F3196CF010E94DA3B282F319647
:1011A000CF010E94DA3B382F6F91421B530B649F93
:1011B000C001659F900D11240C9669E170E00E94BA
:1011C000323A620F731FCB010F900895CF93DF93D4
:1011D00024E130E0B9010E94323ADC01E2E5F3E0BB
:1011E000E60FF71FE60FF71FC591D5914591559171
:1011F0004C1B5D0B4A9FC0014B9F900D5A9F900D59
:101200001124B9010E94323A6C0F7D1FCB01DF918E
:10121000CF910895AEE1B0E0E0E1F9E00C94473BF6
:10122000662EB82E860F898320911A01283059F531
:1012300020917F0130918001409181015091820184
:1012400057FD15C010918E0109C0CA01B9012AE0ED
:10125000312D412D512D0E94593A1F5F173FACF39C
:1012600091F4243160E036074105510518F48FEF01
:101270009FEF42C1173F39F480E028178DE7380708
:101280004105410510F020E03DE72C8B3D8B26ED1C
:10129000A22EE8E4F2E0E60DF11D859188608E87CC
:1012A000E8E4F2E0EB0DF11D859188608F87E5E4BD
:1012B000F2E0E60DF11D7590E5E4F2E0EB0DF11DB5
:1012C000C59090EC692AB92A81E0E82EF12C012D15
:1012D000112D8E831F82188619861A861B861C86FE
:1012E0001D86188E198E1B8E1A8E0E94822388E00E
:1012F00088B960927C0022DE3F8537B975B874B832
:1013000052E05A95F1F70000000014B815B8DD243A
:101310003E8537B975B874B860927C00A895A092E4
:101320007A0080917A0086FDFCCF20907800309082
:101330007900B0927C004C2DE3D020917800309160
:101340007900288B398B3F8537B9C5B8C4B8A895C3
:10135000B0927C00A0927A0080917A0086FDFCCF4A
:10136000609178007091790060927C00472DC8D020
:10137000409178005091790014B8CB01820D931DF3
:10138000E80EF91E011D111DEA82FB820C831D83EC
:1013900088899989840F951F2E813F816885798579
:1013A000280F391F611D711D2E833F836887798740
:1013B00022E32417150648F075B874B8C9DD14B8CF
:1013C00015B8888D8395888F07C0483E73E057070E
:1013D00018F08A8D83958A8F88899989281719062C
:1013E00058F03E8537B9C5B8C4B8B2DD14B815B8E1
:1013F000898D8395898F07C0883E73E0970718F021
:101400008B8D83958B8FD3945D2D5F3F49F05F3734
:1014100031F45C2D550FC50E572D550F750E78CF35
:101420004090390150903A01440C551C9201E4E07F
:10143000240D351DEA95E1F72901570168016E80F9
:101440007F808884998420911A012830C1F46C89A6
:101450007D89812D912D65507040804090409B0189
:10146000AC010E94173A9B01AC0160E779E786E185
:1014700090E00E94593A621A730A840A950AA614E7
:10148000B704C804D90428F46A187B088C089D089E
:1014900003C0662477244301B20180E090E0930109
:1014A000A4010E94173A9501A6010E94593A80E1D1
:1014B00093E07981870F911D0E94DA3B682EC90164
:1014C00060E170E00E94323A260F371FC9016816AA
:1014D000190618F4861991090FC08C5E9F4F861566
:1014E000910540F48C899D89843981E1980710F039
:1014F0000E949413812D912D6E96E2E10C94633B32
:10150000109281001092800010926F0010928B0058
:1015100010928A0057E056BB5FEF509385005093BE
:10152000840055E050937B0056EB50937A0051E0D5
:101530005093810058E25A95F1F7000045B944B93B
:1015400055E05A95F1F7000014B815B810928100D3
:1015500080917A0084FFFCCF80937A000895CF9326
:10156000C82F1C1614F0CF910895D4DBC150F9CFC9
:1015700060933C018093030186958093AD01660FD3
:10158000660F660F60930401089580913C0180937B
:1015900001018091AD0180930201089580910201C3
:1015A00060910101880FE4CF0895CF93C82F692F70
:1015B00081E069DB6C2F81E066DBCF910895682FB5
:1015C00080E061CB08958DE08DDC8AE08BCC0895BE
:1015D0001092AD0160E080E0CBDFF5CF0895CF93AE
:1015E000DF9385E1ECDF80E0EADF8FE3E8DF80E096
:1015F000E6DF85E7E4DF80E0E2DF8FE7E0DFC0E001
:10160000D0E190E080E0D1DF2197D9F7E1DFDF91F1
:10161000CF91089565DB84E19EDC8EEAD0DF85E121
:10162000CEDF80E0CCDF8FE3CADF85E7C8DF80E074
:10163000C6DF8FE7C4DF81E8C2DF80E8C0DF80EA71
:10164000BEDF81E5BCDF83EBBADF80E0B8DF8EEB85
:10165000B6DF8FE0B4DF8CEBB2DF88E0B0DF85ED82
:10166000AEDF82E6ACDF80EAAADF80E4A8DFB7DF86
:101670008FEAA5CF089581E08093AD0160E082E01C
:1016800077DFA1CF089582E08093AD0160E084E030
:101690006FDF99CF089583E08093AD0160E086E02D
:1016A00067DF91CF089590913C0180E1891B57CF6E
:1016B0000895CF93C82FF7DF8091AD018F5F80939E
:1016C000AD01883070F087E08093AD0181E08093B8
:1016D0003F018091AD016C2F880F4ADF74DFCF91FD
:1016E000089510923F01F5CFE4DFA7D38091AD01BB
:1016F000833008F068CF08956BDFD5DF69CF089598
:10170000BADFD1DFB8CF0895582F28E030E090E855
:1017100041E080E0652F642309F0892B440F969502
:1017200021503109B9F70895A5E0B0E0EAE9FBE0FE
:101730000C94473B9D838C83462E10E0C801860F96
:10174000911D813891050CF090C0F12CB701640F08
:10175000711D613871050CF088C04695842E912C5E
:10176000CB01019797FDCB01BC01759567957A83F5
:101770006983722F7270272E21FF15C081E0E81A4D
:10178000F10893E0F594E7949A95E1F7E09EC001A3
:10179000E19E900DF09E900D11246C817D81680F6B
:1017A000791F7D836C838CE3682E641A8FE3582E37
:1017B000541A21702B8369817A816815790508F4A0
:1017C00054C0AC80BD80A00EB11E7501D12CC12CBF
:1017D00038C085E1F4DE862DF2DE852DF0DE85E76A
:1017E000EEDE742C7C0C872DEADE872DE8DE7B8113
:1017F000F7013197711104C0EC81FD81EC0DFD1DE5
:101800007490222019F0872D7FDF782E84E0382E07
:10181000872D807C6FEF803C39F06FE0803821F0BD
:1018200060E0803409F460EF81E02DDA770C770C0A
:101830003A943110EDCF8FEFC81AD80A91E0E91A27
:10184000F1086C817D81E616F70609F0C2CF2220EF
:1018500019F05701A01AB10A74E0870E911C8CEFA1
:10186000680E580EBD82AC82A6CF2596E2E10C949C
:10187000633BEF920F93482F8F7320E6829FC00146
:10188000112488549C4F28E046FF28E4209305014A
:101890001092000147FD08C02091050130E230930D
:1018A00000012D5E2093050120E2E22E08E120E0F8
:1018B000409100016091050137DF0F91EF9008958D
:1018C000EF920F93262FFC0134913196449131967B
:1018D00004913196E490E09100014E0F6091050172
:1018E000630F049621DF0F91EF90089560E0E8CF39
:1018F0000895EF920F93CF93C82F80913C018F5F93
:1019000080933C018C2F90E040910301440F440FE1
:10191000440F60910401CC30D8F424E0880F991F63
:101920002A95E1F730E1E32E08E020E08053944F60
:10193000FBDE80910401885F80930401EFEFEC0FE0
:10194000EE3108F044C0F0E0E65FF34C0C94973AB7
:101950004C972EE0289FF001299FF00D112480E183
:10196000E82E07E020E0CF01885A994FDDDE609134
:101970000401695F6093040140910301440F440F27
:10198000440F01E020E080E996E0CEDE8091040182
:101990008F5FD2CF8EE3A6DA8CE703C08CE7A2DAA2
:1019A0008CE3A0DAA895CF910F91EF9008958CE782
:1019B000F2CF82E5F6CF8DE2F4CF85E7F2CF8FE468
:1019C00091DA88E68FDA8DE6ECCF8CE4EACF8C2FC3
:1019D000E8CF8F5C8ECF0895CF93DF93EC01899190
:1019E000811103C0DF91CF91089583DFF8CFCF93AA
:1019F000DF93EC01CE010E94DA3B882319F079DFF6
:101A00002196F8CFDF91CF910895EF920F93FC01CB
:101A100004913196E490029687DE0F91EF9008953D
:101A20000F9380E891E0E3DF40918D014D3F6CF42E
:101A300060917B0170917C0180917D0190917E018C
:101A400003E026E419D00F9108958FE352DFFBCF16
:101A5000909119019F70923071F446DE84E690E017
:101A6000C6DFE0913D01F0913E0122E04DE16FEFD4
:101A700084819581E1C00895AEE0B0E0E2E4FDE04C
:101A80000C94473B142F322E202E6B017C010F70DB
:101A900080E389838A838B838C838D838E83F7FE97
:101AA0003FC03AD9F094E094D094C094C11CD11CAA
:101AB000E11CF11C58EE452E53E0552E612C712C83
:101AC000033041F140E1442E47E2542E612C712C49
:101AD000043001F130EA432E36E8532E6624639435
:101AE000712C0530B9F020E4422E22E4522E2FE072
:101AF000622E712C063071F064E6462E512C612C5A
:101B0000712C073039F490E8492E96E9592E98E95E
:101B1000692E712C8AE0882E912CA12CB12C12C038
:101B200025FEC8CF8BE2E5DEC5CFC701B6016B5FEE
:101B30007F4F8F4F9F4FA50194010E94593A690131
:101B40007A011F5FC414D504E604F70470F781E13D
:101B5000810F9BEA899F812D1124782E769486E04F
:101B6000811B899F112D11241695912F990F190F03
:101B7000811B182F4E0187E0880E911C2AE0A401DA
:101B8000C701B6010E94863BF40101900020E9F7ED
:101B900031977F01E818F908DE2C812F90E0049638
:101BA0008E159F0514F473941D5F872D90E0845D5E
:101BB0009F4F0E94DA3B982E822D807124FE05C033
:101BC000802F8E19D01608F080E00E2D011B080F13
:101BD000101624F08EE28DDE812F8E19111101C0B6
:101BE00008EFA12CC82ED12CEC0CFD1C002E000CF3
:101BF000110BEA2DF0E0EE15FF0564F0992011F0CD
:101C0000892D77DE332011F0832D73DE2E96E2E1ED
:101C10000C94633B3696EC19FD0981E090E08C0F43
:101C20009D1FE80FF91F808164DEA394A0161106A2
:101C300001F78EE25EDEDDCF0F93362FBC0190E020
:101C400080E0022F242F432F17DF0F9108950F9369
:101C5000062FBC0190E080E026E54DEF0DDF0F91EF
:101C600008950F93042F28E440E006DF8AE741DE61
:101C700051D80F910895E82FF0E0EE0FFF1FE057C5
:101C8000FE4F8591949120910001420F2091050112
:101C9000620F20E0BACE0895CF93DF93C82FD62FDE
:101CA000E0913D01F0913E0148E16EE18685E3DF80
:101CB000E0913D01F0913E014D2F6C2F8485DBDFDB
:101CC000E0913D01F0913E0140E06EE18585D3DF7A
:101CD000DF91CF91089599B193FB992790F9499994
:101CE000926080911101843050F08EE080930D015C
:101CF00090930E011092120181E080931101809166
:101D00001101E82FF0E0E35FFE4F30813917C9F091
:101D100091110EC020911201E3E0E80FE370323020
:101D2000C9F4F0E0E35FFE4F30812F5F3330D9F02C
:101D3000E1E0E80FE370E0931101F0E0E35FFE4FB4
:101D400090838091120187FD03C080931301089551
:101D50008195FBCF313061F7F0E0E35FFE4F3081DA
:101D6000333031F7215020931201E2CFB0E0A0E0F0
:101D7000ECEBFEE00C94503BE82ED92E5398519892
:101D8000D8D810921201E0911101F0E03196E37081
:101D9000FF27E35FFE4F80EF8083C5E6D9E19BDF3D
:101DA0004F9B24C0CE2DDD2DF12C15E500E0BB248A
:101DB000B394D7FD15C082E3C82E8DDFBED8CA9478
:101DC000C110FBCF110F4F9B1F5F1F731F33A1F477
:101DD000011103C0CE2DDD2D04E00F5F083C80F023
:101DE000802FCDB7DEB7E9E00C946C3BA6D8D1507C
:101DF000B1F6C15099F6D6CF111102C00111F0CF42
:101E0000A8951C161D0624F42A9711F4CFEFDFEFD6
:101E100080911301882339F0F39480917701811127
:101E200002C0B092770184E18F1508F0C2CF809193
:101E300012018111D5CFF12CBCCFCF93A6DBC82FD7
:101E400080913F01882301F1813051F4C73041F482
:101E50006FE08EE08DDB8BE24CDD6FE08EE088DBA7
:101E600080E49FE183DF811104C08091130181111F
:101E7000F7CFC73041F480913F01813021F460E019
:101E80008EE076DB10DC8ADBCF910895409118015B
:101E9000A0913D01B0913E01E1E9F1E030E020E0A8
:101EA000822F2417B0F451911C969C911C975917BE
:101EB00019F05581951303C02F5F3F4FF1CF220FCB
:101EC000331FF901E356FE4F20813181293E334013
:101ED00008F084E108951895189510921A0110924F
:101EE000180110926F0110924F0110921901109277
:101EF0003B0110927601EAE5F1E010821182128234
:101F0000EBE7F1E0108A82E0818B109220011786C6
:101F10001686148215821682178281EF838B0895AC
:101F20008FE40E94720786E40E94720786E40E9492
:101F3000720749DB5E980E94880790E080E016CF28
:101F400008951F93CF93DF93162F98E097B998B910
:101F5000E82FF0E0EB5BFD4F949195B9262F281BFD
:101F6000E20FF11D27FDFA95E491E92BE4B92AD897
:101F7000EC01812F27D8AC01209130013091310143
:101F800036952795C9010397BE01625E7F4F86177C
:101F9000970778F4255E3F4FC217D30750F4BA0174
:101FA000625E7F4F8617970720F481E04217530740
:101FB00008F080E014B8DF91CF911F910895CF937E
:101FC00061E080E0BEDFC82F62E080E0BADFC80FCA
:101FD00062E081E0B6DF8C0FCF910895AFE0B0E012
:101FE000E4EFFFE00C94473BB82E10921A01807F7B
:101FF000B9F4E5DF833081F4F2DA88E492E0F7DCCB
:102000003ADB8FE376DC80ED97E0B0DE8B30B0F426
:10201000E6DA85EF90E0EBDC2F96E2E10C94633B8F
:1020200006E910E0DCDA88EB91E0E1DCC8DF833020
:1020300009F065C01F5F143008F462C01CDB0E9409
:10204000732781EB90E0D3DC60E082E193E00E94B3
:10205000E73B60E083E193E00E94E73B60E081E1E1
:1020600093E00E94E73B60E082E0D4D86C019A8361
:10207000898361E082E0CED87C019C838B8360E021
:1020800081E0C8D88C019E838D8323E040E26EEF0F
:10209000C601D2DD23E040E26EEFC701CDDD23E0D3
:1020A0004DE16EEFC801C8DD2AE5C216D10424F067
:1020B00084E190E09A838983698182E193E00E94C0
:1020C000E73B8AE5E816F10424F084E190E09C8384
:1020D0008B836B8183E193E00E94E73B0A35110516
:1020E00024F084E190E09E838D836D8181E193E013
:1020F0000E94E73B82E080933F019FDE07C010E033
:1021000088E20E94AB07015009F08CCFEB2DEF70F5
:10211000EF87E13009F04FC0EE24E394F12C68EB37
:10212000862E62ED962E67E4A62EB12C72E0D72E95
:1021300008E0E0E23E2EC12C1E2D42E2242EE0DA21
:10214000DBDA84E5D6DBC7010E9480060E948A069E
:10215000113009F0C1C184EE90E049DC64E0809167
:1021600034019091350173DD86DA8FED90E03FDC2C
:102170008091790190917A010E9480068EEB809384
:102180002C0107B908B914B815B888EE93E0EEDD54
:10219000143011F08B3020F4C39484E0C812CFCFF8
:1021A00088EE93E0E3DDEFEFEE1AFE0AF8E0EF16BB
:1021B000F10409F0C0CF18E702DF81117FC20FDA06
:1021C0008AEA90E014DC23E04DE16FEF8091320168
:1021D0009091330131DD4FDA83EA90E008DC23E0AF
:1021E0004DE16FEF8091390190913A0125DD82E058
:1021F00080933F0122DE10921A01F1D98FE990E01D
:10220000F6DB60E082E00E94512440908301509010
:10221000840160908501709086015C864B8661E048
:1022200082E00E9451248090830190908401A090CC
:102230008501B09086019E868D8660E081E00E94D7
:10224000512400918301109184011E830D8362E06B
:1022500080E00E94512480918301909184019C83AD
:102260008B8362E081E00E945124809183019091F0
:1022700084019A87898761E080E00E945124E09080
:102280008301F0908401FA82E982C2010E948906EA
:10229000C4010E948906B801110F880B990B03E055
:1022A00026E444EFE9DB2F85213009F012C282E0F9
:1022B000E80EF11CF886EF828E010F5F1F4F6E0152
:1022C000EFE0CE0ED11CF801819191910A97853BE8
:1022D0009105C8F4EC15FD05B9F731E3E32E33E0C1
:1022E000F32EF80160810E5F1F4F6E5EC7010E94E2
:1022F000E73BFFEFEF1AFF0A0C151D0591F7BBD95D
:1023000085EA91E074DB82E080933F0196DD0E94D4
:10231000BE362F85213029F080913801823009F0B6
:10232000C6C05DD980E055DB8BE491E060DB82E0E4
:1023300050DB84E290E05BDB90E4F92E10E02AE0D1
:10234000822E912CA12CB12CC8DD10921A0160E0D4
:1023500082E00E94512400918D0120917B013091F7
:102360007C0140917D0150917E01073F0CF4BBC17F
:1023700000938D0120937B0130937C0140937D017C
:1023800050937E01073F09F0B6C12056310941093B
:102390005109203935454105510508F0ACC160911E
:1023A0008F0170919001CB018B569F4F8B329140E2
:1023B00008F0A1C11F5F153008F49EC188E393E0C7
:1023C0000E94F53B0CD98DE190E011DB80918F01EB
:1023D000909190010E9475060E94540888E088B987
:1023E00089E087B980E284B982E00E94E207853DF6
:1023F0009340D4F714B810922F0110922E0182E06E
:102400000E94E2077C018091740190917501909384
:102410002F0180932E0182E00E94E2076C01CC0C18
:10242000DD1C10922F0110922E0182E00E94E20723
:102430004C01A0907401B0907501B0922F01A09250
:102440002E0119D986E190E0D2DA8AE393E00E9466
:10245000DA3B182FD701A80DB91DAC19BD0995019C
:102460000E94AC3A96010D2C000C440B550B0E94B7
:102470007B3A1D5F120F612F8AE393E00E94E73BD6
:10248000812F012E000C990B0E9475060E945408A2
:1024900082E080933F01D1DC1092380181E393E028
:1024A0000E94DA3B682F84E393E00E94E73B89E1D6
:1024B00080932C0180E00E94D13991D885EF90E083
:1024C00096DAD9D88FE292E092DA10921A0182E07D
:1024D00080933F01B2DCA0CD123091F52091300104
:1024E00030913101A8E5BBE10E949D3A24EC36E32E
:1024F00040E050E00E947B3A290181E085B9F5E097
:10250000F4B980E00E94D707841995099A838983DA
:1025100081E184B980E00E94D707841995099C83E2
:102520008B8384E085B984E184B981E00E94D70778
:10253000841995099E838D8389EC90E058DA37C021
:10254000133059F5D5B82AE024B980E00E94D707A6
:1025500020913001309131013695279538872F83AE
:10256000821B930B9A83898324B880E00E94D7074B
:102570002F813885821B930B9C838B8305B988E25E
:1025800084B981E00E94D7072F813885821B930B85
:102590009E838D838BEB90E0D1CF1430D1F488E310
:1025A00092E025DA0CDD882311F0F2E0CF2E63D81B
:1025B00089819A810E9475060E948A068B819C817E
:1025C0000E9475060E948A068D819E810E94750672
:1025D000D8CD1530B1F415B8D4B880E00E94D70733
:1025E0009A83898304B981E00E94D7079C838B83F7
:1025F00034B882E00E94D7079E838D838BED90E0F4
:102600009DCF163051F5D4B8D5B880E00E94D707D9
:102610002091300130913101821B930B9A83898381
:1026200004B905B981E00E94D707209130013091AB
:102630003101821B930B9C838B8334B835B882E0C5
:102640000E94D7072091300130913101821B930BFA
:102650009E838D8387ED90E071CF173009F0A7CF6F
:102660002091300130913101A8E5BBE10E949D3AF3
:10267000A50194010E94593A2901D5B8E3E0E4B9D3
:1026800080E00E94D707841995099A83898305B948
:10269000FCE0F4B981E00E94D707841995099C8376
:1026A0008B8335B820E324B982E00E94D7078419D0
:1026B00095099E838D8385EB90E040CF21D888E3F8
:1026C00092E095D984E60E94AB07115009F074CDD1
:1026D00076CD80913801823009F4E9CDF886EF8219
:1026E00010923801E9CD0F5FCA01B901A50194012B
:1026F0000E94593A3ACE10E00E943B0B60917B0158
:1027000070917C0180917D0190917E0104E026E42E
:1027100040918D01B1D90E94530B88E20E94AB0712
:10272000FA94F11011CEC3CE8091380181110DC001
:1027300081E393E00E94DA3B61E0680F84E393E079
:102740000E94E73B81E0809338010895EF92FF9269
:102750000F931F93CF93DF93D62FE82FF0E0E85B22
:10276000FD4FE491E8B9E860E7B915B8E62FF0E06D
:10277000EB5BFD4FE491E4B9CE2FCC0F88E8E82E57
:1027800083E1F82E8D2F0E94D7078C01C4B98E15D6
:102790009F0510F1892BD9F00E944B0B8BE291E041
:1027A00026D9D80120EA36E841E050E00E94B23A4A
:1027B00028E937EB40E050E00E94593AC90122E095
:1027C00041E467EF39DA88E087B988B914B8CDB742
:1027D000DEB7E6E00C946F3B7801D4CF80E48AB991
:1027E0008BB9D6E8D0937A001092C1000E948A0774
:1027F000C4B7C87084B7877F84BF0FB6F894A89514
:1028000080916000886180936000109260000FBE2C
:10281000D093640088E380937E001092B00087E03C
:102820008093B10078940E940A0BC1119BC580E18E
:1028300085BF84E0809311014F9908C00E94AA07C8
:10284000CF5FCC33C9F780E69DE604C08FE59DE6F7
:10285000CF31C8F790930C0180930B0110922D019A
:102860000E94732788E19FE00FB6F894A8958093A3
:1028700060000FBE90936000CC3309F45DC020E18E
:10288000722E38E1632E40E4842E41E0942E50E60F
:10289000A52E51E0B52E6DE0362E70EF572EE3E3F6
:1028A0004E2E0E94EF0A28E027B917DB0E947327FB
:1028B0000E94E80A65D580913B01882371F00E944F
:1028C0003B0B80E491E093D863E0809130019091DC
:1028D0003101BDD988EC0E94AB070E943B0B0E94DE
:1028E000822380911A01893061F50E94EF0A85E404
:1028F00091E07DD80E943B0B63E080915401909160
:102900005501A5D90E948A0663E0809156019091F5
:1029100057019DD90E948A0663E0809158019091E9
:10292000590195D98AEC0E94AB0781E157DBC09130
:102930000B01D0910C0195C10E94AC308111FCCFEC
:102940009ECF84E393E00E94DA3BC82F81E393E0BB
:102950000E94DA3BC81BC093380180E03FDB0E9435
:10296000800B8DEA92E043D883E00E9472070E94B8
:10297000E30A42E061E080E073D542E060E081E09C
:102980006FD541E062E080E06BD541E060E082E03D
:1029900067D540E062E081E063D540E061E082E03D
:1029A0005FD580911A0181110EC00E94822360E0E0
:1029B00082E00E94512461E082E00E94512460E0A4
:1029C00081E00E9451240E94EF0A90923E01809281
:1029D0003D0180911A018630F9F485EC0E94390C92
:1029E00060E188EF59D966E080E00E94B80A84E887
:1029F00092E00E94F70C66E082E00E94B80A89E546
:102A000091E00E94F70C62E08091440190914501B1
:102A10001ED90E94E30A8BCF873069F484EC0E94B0
:102A2000390C60E188EF38D966E080E00E94B80A8E
:102A30008DE892E0DECF8830A9F480918B019091EF
:102A40008C01890F9927991F029741F40E94D82978
:102A500080913801811133C463DA23CF80E00E9472
:102A6000062965CF833009F00DC1809118018130AE
:102A700009F06AC080E00E9448076091910180914E
:102A8000970164DE80E70E94210740E06091910198
:102A9000809197010E94E43560937B0170937C01E3
:102AA00080937D0190937E0180E00E94740B609181
:102AB0007B0170917C0180917D0190917E0102E00B
:102AC00026E442EF0E943C0D0E948C0641E060919A
:102AD0009101809197010E94E43560937B0170938E
:102AE0007C0180937D0190937E0126E442EF0E9459
:102AF0003C0D8DE191E00E94F70C0E94E30A0E94D8
:102B0000E30A80917601882309F411CF67B838E091
:102B100037B980E00E94740B20917601222309F4DA
:102B2000B2C380915D01213009F048C30E94E406E0
:102B300020915D01213009F03CC320911801211141
:102B400038C30E948F2984CF823079F582E30E94B6
:102B5000790C8DE091E00E94F70C909191013091F9
:102B60009201931308C080E00E94630781E00E94F5
:102B70005A0781E088CF209197018091980128130E
:102B800007C080E00E94540781E00E946907F1CFEE
:102B9000321306C081E0809306010E943707AFCF51
:102BA00098133EC070920601F8CF8330C9F5409269
:102BB00006018091970190919201891303C021E051
:102BC000209306014091910130919801431302C076
:102BD0007092060120919301821303C082E08093DA
:102BE000060180919901481303C040E24093060119
:102BF000321310C022E120930601981303C081E232
:102C00008093060183E30E94790C8DE091E00E949D
:102C1000F70CC3CF981799F380910601823290F395
:102C200083E992E00E94F70C8BE792E00E94F70C98
:102C30000E943B0B80911801805D0E94790C8AE212
:102C40000E94790C87E291E00E94F70C81E692E005
:102C50000E94F70C0E94E30A86E00E94390CC0E44F
:102C6000DFE167B84F9BFECFCE0180D8823328F4D6
:102C700090911301933008F413C30E94AC3081117A
:102C8000FCCF0FCE843009F058C180916F018823AA
:102C900009F465C080914F01882309F460C06091F8
:102CA0004C0180914E010E945124C0907B01D09034
:102CB0007C01E0907D01F0907E01C0918D016091DA
:102CC0006E0180916C010E9451248091400190918D
:102CD0004101A0914201B0914301409160015091A6
:102CE00061016091620170916301843F31E093075B
:102CF000A105B10538F4443FE1E05E0761057105C7
:102D000008F0C0EF443F51406105710538F4843F3D
:102D10009140A105B10510F050928D0180918D0177
:102D20008C1311C080917B0190917C01A0917D0159
:102D3000B0917E01C816D906EA06FB0630F03CE0E9
:102D40003093190104C0C817D4F73092190180914B
:102D50006F01882321F080914F018111CEC066E080
:102D600080E00E94B80A80EC0E94390C8091190121
:102D70008C3009F0CBC085E791E00E94F70C809180
:102D80006F01882319F080E70E94790C7FD8C82F43
:102D9000853098F4A0913D01B0913E01E82FF0E01C
:102DA000EF56FE4F1D969C91808162E0981301C002
:102DB00060E086E991E00E94600C60E189EF0E948A
:102DC0004C0E86E00E94590B84E891E00E94F70CBB
:102DD000E0913D01F0913E0160817181828193819A
:102DE00003E020E04EEF0E943C0D87E00E94590B6B
:102DF00089E40E94790CE0913D01F0913E018681C9
:102E000097818031974208F494C085E60E94790C3E
:102E1000E0913D01F0913E0186819781805197427A
:102E2000978386830E948E06E0913D01F0913E01DA
:102E300022E041E46AEF868197810E941C0E86E0C1
:102E40000E94590B8DE591E00E94F70CE0913D0145
:102E5000F0913E0163E0848195810E94270E81E01C
:102E600080933F01E0913D01F0913E018085918585
:102E7000892B91F085E00E94740B8FEE90E00E9408
:102E8000F70CE0913D01F0913E0122E041E46AEF50
:102E9000808591850E941C0EE0913D01F0913E01DC
:102EA00082859385892B91F085E00E94740B89EED1
:102EB00090E00E94F70CE0913D01F0913E0122E08C
:102EC00041E46AEF828593850E941C0EC53078F438
:102ED00080E00E94740B8C2F0E94480789E591E0E6
:102EE0000E94F70C8C2F0E9413070E94E30A43E410
:102EF00062E485E40E94B7068CCD4F9930CF809173
:102F0000190191E089278093190129CFB0923E01E0
:102F1000A0923D018BEC91E00E94760C8DE691E051
:102F20000E94F70C80914F01882309F42FCF8EE681
:102F30002BCF83E60E94790C75CF853009F0ECCD5C
:102F400066E080E00E94B80A80911901C82FC07124
:102F500084FF66C080E50E94790CB0923E01A09289
:102F60003D01C2E00E948C0680911901D82FDF70CC
:102F7000D43009F059C08FE891E00E94F70C83EC3F
:102F80000E94390C84ED91E0C1116AC00E94460F85
:102F9000853098F4A0913D01B0913E01E82FF0E01A
:102FA000EF56FE4F1D969C91808162E0981301C000
:102FB00060E086E991E00E94600C60E189EF0E9488
:102FC0004C0E86E00E94590B86E00E94590B8091BE
:102FD000190185FD61C085E591E00E94F70CE09143
:102FE0003D01F0913E0162E0828593850E94270EAB
:102FF000E0913D01F0913E01668584850E94512457
:1030000086E00E94590B0E94100D85E00E94280D59
:103010004FE367E48FE3D43009F46CCFC0E0BCC069
:103020008EE40E94790C9ECF85FF1DC084E40E942F
:10303000790CCF5FD330D9F489E891E00E94F70C86
:1030400081EC0E94390C81E292E0C13049F08DE2BE
:1030500092E0C23029F08DEF91E0C33009F096CFB5
:103060000E94760C93CF85E40E94790CE3CF84E92B
:1030700091E00E94F70C82EC0E94390C8DEE91E0F9
:10308000C13071F383EF91E0C23051F3C33009F0E6
:103090007DCF8BED91E0E4CFE0913D01F0913E01D9
:1030A0008F70843009F44EC0668584850E94512457
:1030B0000E94100D60E086E00E94B80A89E40E9438
:1030C000790C0E948E06E0913D01F0913E0122E0D4
:1030D00041E46AEF868197810E941C0E8FE491E0A3
:1030E0000E94F70CE0913D01F0913E0162E0828583
:1030F00093850E94270EE0913D01F0913E0180856D
:103100009185803C9241E0F480E00E94740B89E458
:103110000E94790C0E948E0622E041E46BEF90E061
:1031200080E00E941C0E8FE491E00E94F70CE09179
:103130003D01F0913E0162E0808591850E94270E5D
:1031400080E064CF84819581892B09F4B3CF80E03E
:1031500090E00E94F70CE0913D01F0913E0122E0E9
:1031600041E46AEF848195810E941C0EA3CFC111B6
:1031700003C080E00E94590B80E00E94740B8C2FEA
:103180000E94480789E591E00E94F70C8C2F0E946D
:1031900013070E94E30ACF5F80911801C81738F324
:1031A00044E467E483E5D33009F0A4CE43E467E464
:1031B000A0CE40E0692F0E944528B9CB90915E01D6
:1031C00034E0939FD0011124A255BE4F34E0839F79
:1031D000F0011124E255FE4FED90FD900D911C91F0
:1031E0004081518162817381C92F4E155F0560074F
:1031F000710708F0C82F223041F5980FC3E0C91BB2
:103200001C2F1695D2E0DC1B01E0C11102E0812FDA
:103210000E94E90C88E091E00E94F70C8D2F0E943B
:10322000E90C88E091E00E94F70C802F0E94E90CE5
:1032300080E00E94590B81E0C11180E00E94EE06FF
:1032400082E0811B0E94EE0672CB80915F0194E0C8
:10325000899FD0011124A255BE4F24E0C29FF001E6
:103260001124E255FE4F0D911D912D913C9140810D
:10327000518162817381401751076207730708F01B
:10328000BFCFC82FBDCF8BE692E00E94F70C0E9403
:103290003B0B88E992E00E94F70C83E992E0D8CCDE
:1032A0008111FFCA9111E0CCD3CB80E09DE70E9451
:1032B000B60E81114EC08091120187FF17C0D8E071
:1032C00010E000E09801255B3D4F7901F90180E0B5
:1032D00090E1D92EC491C03211F0CE3F09F4D82E1E
:1032E0008F5F31968131B1F7DD23F9F23D2F3770D1
:1032F000232E11F40E94EF0A60E0822D880F0E94B5
:10330000B80A0E94E30AA895DF5FD770212C2D1020
:103310000DC0CC23F1F0020D111DF801E55BFD4F4E
:10332000E491E03279F60F5F1F4FCCCFF701C491E3
:10333000CC2379F0CF3F39F40E948A062394FFEF23
:10334000EF1AFF0AE4CFCE3FC9F38C2F0E94790C0D
:10335000F5CF80E09DE70E94B60E8091120187FDB7
:10336000AECF7ACB0E94E80A88E592E00E94F70C83
:103370008BEC0E94AB070E94900F90E080E00895D4
:103380000F931F93CF93DF9385E00E94E20785E0C0
:103390000E94DE078C01EC01CC0FDD1FCC0FDD1F7E
:1033A000CA56DF4F10923601C43883E0D80770F454
:1033B00089E991E00E94F70C0E94530B81E0809311
:1033C0003601DF91CF911F910F91089588EA91E026
:1033D0000E94F70C62E0CE010E94270E0E948A062E
:1033E0000A3F86E01807B0F40333164060F481EA20
:1033F00092E00E94F70C0E94530B8DEC0E94AB07E9
:103400000E94900FDECF88EA92E00E94F70C0E94A3
:10341000530BD7CF85EA91E0F8CFFC019C01261B26
:10342000370BCA0170E060E0A901460F511D452F1E
:103430005527620F240F351FAC01470F511D452F33
:103440005527780FDA01AA0FBB1F8A0F9B1F4B3E2F
:1034500020F4E217F30740F7089590E080E0089524
:10346000A9E1B0E0E6E3FAE10C94473B582E462E82
:10347000342EA895E62FF0E0EB5BFD4F24912E87CC
:10348000220F2F8B339634913A8BE42FF0E0EB5BD5
:10349000FD4F44914983339684918F83E52DF0E06D
:1034A000EB5BFD4F2490922D990F9F8733962491CB
:1034B0002B8328602C8338603A8345B9EE84E42A54
:1034C000E4B827B93B8138B9862F0E94DE079D8773
:1034D0008C874E8544B9842D0E94DE073C0114B8C8
:1034E0000E94930715B8E4B8842D0E94DE076C850E
:1034F0007D850E9440086C018A8187B988E088B97F
:10350000998192299D8395B994B9852D0E94DE07F2
:103510000E9446084C0115B80E94930725B8852DD6
:103520000E94DE070E9446088C0124B8852D0E9467
:10353000DE070E944608B82E9987B801C4010E9490
:1035400040088032E1E09E0730F4F0E2CF16F1E06F
:10355000DF0608F4CAC5C00ED11E2C853D85820F3A
:10356000931FC816D90620F41D870C876B2C79840D
:1035700020914F0180916F01820F9927991F029727
:103580004CF0213009F0B1C590914C0180916C0153
:103590009813ABC5D980DD0CFE84FD283D2D322962
:1035A0003B878C859D858437910508F4AAC10A96CE
:1035B000880F991F6816790608F0A3C19C8197B9F6
:1035C000EB81E8B9F4B8842D0E94DB078C01832DD0
:1035D0000E94E2077C01D5B8842D0E94DB07980188
:1035E000295A3D4F2817390708F0B9C088E088B933
:1035F000FA81F7B92B8524B925B9832D0E94DB0701
:1036000088349F4008F470C085E080931A0182E2FC
:10361000809319011093450100934401B701C8013B
:103620000E944B0890934B0180934A019801A0E1BE
:10363000B7E20E949D3A209114013091150150E0AB
:1036400040E00E94593A30934701209346018F8908
:103650008D2984B915B84C8147B98B8188B9832DE0
:103660000E94E2078C01842D0E94DB07B8010E94B2
:103670004B089C0190934901809348019091190156
:103680009F709430B1F188E088B99F81EA819E2BC8
:1036900097B924B8FD81F5B9852D0E94DE078C010C
:1036A0000E9446089E838D83842D0E94E207E0904D
:1036B0001B01F0901C01BC01C8010E944B0897013E
:1036C000DC010E949D3AED81FE819F0150E040E0C7
:1036D0000E94593A309345012093440180914F0153
:1036E0008F5F80934F0189C385E080931A0184E244
:1036F0008FCF409146015091470160914A017091EE
:103700004B01C9018ADE0097F9F0D4B8EA89FC813F
:10371000EF2BE7B9842D0E94DB078C0188E087B985
:103720009801A0E1B7E20E949D3A209139013091C1
:103730003A0150E040E00E94593AA901B801809155
:1037400048019091490169DE9093450180934401BD
:10375000809119018F70843009F4C0CF94CF88E034
:1037600088B92A8127B93B8534B935B9852D0E949E
:10377000DB078C01832D0E94E2077C0125B8852D93
:103780000E94DB07895A9D4F8017910708F0ADC44E
:103790004B8148B98C8187B9832D0E94DB07813D1D
:1037A000934008F06EC085E080931A0182E3809315
:1037B0001901B801C7010E944B0890936B018093D7
:1037C0006A01C8010E9446089C01A0E1B7E20E947C
:1037D0009D3A20911B0130911C0150E040E00E9475
:1037E000593A3093670120936601F8E0F8B92A81CD
:1037F00027B98F858D2984B985B9852D0E94E20767
:103800008C01832D0E94DB07B8010E944B089C01AC
:103810009093690180936801909119019F70943091
:10382000A9F1EB813F81E32BE8B94C81342B37B907
:1038300015B88D8184B9852D0E94DE077C01842D09
:103840000E94E2079E838D8300911401109115015F
:10385000BC01C7010E944B089801DC010E949D3AFF
:10386000ED81FE819F0150E040E00E94593A309383
:1038700065012093640180916F018F5F80936F01D8
:1038800054C185E080931A0184E391CF4091660191
:103890005091670160916A0170916B01C901BDDDB2
:1038A000009721F1D5B8D4B8FB81F8B9EC812A8111
:1038B000E22BE7B9852D0E94DB070E9446088C01A8
:1038C00038E037B99C01A0E1B7E20E949D3A20910F
:1038D00032013091330150E040E00E94593AA90191
:1038E000B801809168019091690197DD909365011D
:1038F00080936401809119018F70843009F4BBCFEB
:1039000090CF88E088B94A8147B925B88B8584B9BA
:10391000852D0E94DE07998B888B0E944608988728
:103920008F83832D0E94E2079A87898783010C5930
:103930001F4FEF81F885B3010E171F0708F0F7C07E
:10394000CF010E944B089C8B8B8B20911B013091E7
:103950001C0150E040E060E871EA83E09CE10E94D5
:10396000593AAB89BC890E94B23AE985FA859F0130
:1039700050E040E00E94593A49015A0114B815B884
:10398000FB81F8B92C8127B981E00E94AB07E4B82C
:10399000842D0E94DE078F359D4008F474C1F4B871
:1039A000842D0E94DB07998F888F832D0E94E20768
:1039B0009C8B8B8B852D0E94E2079E8B8D8B8B8938
:1039C0009C89813D974008F4E6C084E080931A0109
:1039D0008DE080931901288D398D89010619170909
:1039E0006216730610F0088D198DC0901401D090E6
:1039F0001501F12CE12C60E871EA83E09CE1A7015C
:103A000096010E94593AD8010E94B23AEB89FC898A
:103A10009F0150E040E00E94593A80916F01882355
:103A200071F08091600190916101A0916201B0916B
:103A3000630182179307A407B50708F099C0209384
:103A40006001309361014093620150936301288DBE
:103A5000398DA0E1B7E20E949D3AA70196010E942C
:103A6000593A30936701209366016B897C898D896F
:103A70009E890E944B08909365018093640181E0C8
:103A80004091600150916101609162017091630108
:103A9000481559056A057B0508F06CC080926001E5
:103AA00090926101A0926201B092630169857A856A
:103AB000888999890E944B089093650180936401DD
:103AC0002F813885A0E1B7E20E949D3A20911B0129
:103AD00030911C0150E040E00E94593A205F384D7F
:103AE0003093670120936601C0901401D0901501B6
:103AF000F12CE12C9301A0E1B7E20E949D3AA701CD
:103B000096010E94593A30936901209368012C85EF
:103B10003D85A0E1B7E20E949D3AA70196010E946F
:103B2000593A30936B0120936A0181E025C08F815F
:103B300098850E944B089C8B8B8BFD81F4B9852D59
:103B40000E94DE07998B888B0E94460898878F8396
:103B5000832D0E94E2079A878987BC018B899C8903
:103B60000E944B089C01A4E6B0E00E949D3AFDCE65
:103B700080E086CF8111B8CF90916F019F5F9093C5
:103B80006F01882309F478C330926C0140926D0173
:103B900050926E0171C3F1E66F16710408F073C0A4
:103BA000288D398D213D47E0340708F46CC085E04D
:103BB00080931A0182E180931901C90186509F4FB9
:103BC000ED89FE898E179F0708F043C083E180933B
:103BD0001901FA89F770DF2E832D806480937C00B1
:103BE000EBE0EE2E21E030E03E832D830FEF13E07B
:103BF000A89561E089816FD5F4B886B18D21E9F38C
:103C00003E8534B980917A00806480937A008091F7
:103C10007A0086FDFCCF8091780090917900F801C0
:103C2000E81BF90B2D813E812E0F3F1F3E832D8314
:103C3000EA94E110DDCFC901880F991F880F991F01
:103C400069E070E00E94323A70936B0160936A0100
:103C500012CE0091140110911501688D798D8D8916
:103C60009E890E944B089801DC010E949D3AE88DD4
:103C7000F98D9F0150E040E00E94593A3093650170
:103C800020936401A6CFF4B8D5B8842D0E94DE0736
:103C90006C01832D0E94E20798878F830E9446085B
:103CA0009A8789870C151D0508F0A9C0B301C601C4
:103CB0000E944B088C01209114013091150150E0B5
:103CC00040E060E871EA83E09CE10E94593AD80143
:103CD0000E94B23AE985FA859F0150E040E00E94D7
:103CE000593A49015A01FA81F7B988E088B92D811A
:103CF00024B925B9852D0E94DE078C01832D0E94F1
:103D0000E2079A878987842D0E94E2077C010033AD
:103D100031E1130708F0E6C125B8852D0E94DE07C2
:103D2000998B888B24B8852D0E94DE079C8B8B8B0A
:103D300015B881E00E94AB0725B8852D0E94DE07EB
:103D4000EB89FC89E034F64008F079C08133914179
:103D500008F475C0C8018A569F4FE889F989E817A9
:103D6000F90708F06CC086E080931A0180914F013A
:103D70008F5F80934F01B70189859A850E944B0818
:103D80009093450180934401B701C8010E944B08FC
:103D900090934B0180934A0114B815B8FA89F8B989
:103DA00081E00E94AB0724B8852D0E94DE07853F85
:103DB000910518F52D8124B9832D0E94DE07813DE0
:103DC0009340D8F0852D0E94E2078D3D9240A8F0E7
:103DD00024B8852D0E94DE078D3D924070F025B8F5
:103DE00081E00E94AB0715B8852D0E94DE07853F54
:103DF000910518F487E080931A0181E0F8C0E4B8D7
:103E0000F981F5B9842D0E94DE076C01832D0E9493
:103E1000E20798878F830E9446089A878987C601A0
:103E20006C147D0410F48619970969857A850E94BF
:103E30004B089C01A4E6B0E00E949D3A4BCFFA816A
:103E4000F7B9298124B925B981E00E94AB073B85E8
:103E500034B935B9852D0E94DE078C010E944608D1
:103E6000998B888B832D0E94E2079E838D830E940D
:103E700046089A878987842D0E94E2077C018985FC
:103E80009A858E3F994008F4C1C084E080931A015E
:103E90008CE080931901B301888999890E944B08AD
:103EA0008C0120911B0130911C0150E040E060E842
:103EB00071EA83E09CE10E94593AD8010E94B23A2B
:103EC000E985FA859F0150E040E00E94593A8091CF
:103ED0004F01882371F08091400190914101A091A0
:103EE0004201B091430182179307A407B50708F078
:103EF0007AC0209340013093410140934201509396
:103F00004301B7018D819E810E944B08909345012A
:103F10008093440128893989A0E1B7E20E949D3A43
:103F200020911B0130911C0150E040E00E94593A61
:103F3000309347012093460181E040914001509128
:103F400041016091420170914301481559056A058C
:103F50007B0508F04AC08092400190924101A092F6
:103F60004201B0924301B6018F8198850E944B08AF
:103F700090934501809344019601A0E1B7E20E942D
:103F80009D3A209114013091150150E040E00E94CB
:103F9000593A205F384D30934701209346019301F1
:103FA000A0E1B7E20E949D3A2091140130911501E1
:103FB00050E040E00E94593A309349012093480173
:103FC0002C853D85A0E1B7E20E949D3A20911B011E
:103FD00030911C0150E040E00E94593A30934B016F
:103FE00020934A010ACF80E0A8CF8111D8CF9091C9
:103FF0004F019F5F90934F01882309F43DC1309298
:104000004C0150924D0140924E0136C1F1E66F16BF
:10401000710408F067C02889398929343D4008F4C3
:1040200061C085E080931A0182E080931901C70185
:1040300086509F4F8017910708F03CC083E0809323
:1040400019010B810770832D806480937C001BE035
:1040500021E030E03E832D83A89560E089813BD349
:104060003B8534B935B986B18023E9F724B880910E
:104070007A00806480937A0080917A0086FDFCCF7C
:104080008091780090917900ED81FE81E80FF91F11
:10409000FE83ED83115001F7CF01880F991F880F20
:1040A000991F69E070E00E94323A70934B0160936F
:1040B0004A0114CBC0901B01D0901C01B701C8016C
:1040C0000E944B089601DC010E949D3AE889F9891B
:1040D0009F0150E040E00E94593A309345012093FF
:1040E0004401AFCF88E087B988B914B815B888E023
:1040F00087B9F7EC6F16F1E07F0608F4E5C088B9E0
:104100002F8524B938EC3D834C818A81482B4F831D
:104110009F8197B981E00E94AB07EA81E7B9852DBD
:104120000E94E207429728F0FD81F150FD83F111D2
:10413000EFCF2F8524B925B961E08981CCD2852DB7
:104140000E94DE076C013F8934B915B84C8147B92C
:104150008B8188B960E08981BED2842D0E94DE0700
:104160000E9446089E838D839E8594B9842D0E946B
:10417000E2078C01852D0E94DE07B8010E944B08E2
:104180008C01842D0E94E2077C01852D0E94DE07B0
:10419000B7010E944B0898012C5E3F4F2817390742
:1041A00008F46AC088E088B9EA81E7B924B825B87C
:1041B00061E0898190D2842D0E94E2077C01852DE7
:1041C0000E94DE07B7010E944B087C0108171907FF
:1041D00008F05EC0FF85F4B9F5B9852D0E94DE07B1
:1041E000FC01CD82DE828D819E81883426E092079B
:1041F00008F060C09C0153E0369527955A95E1F789
:1042000048EEE41643E0F40608F057C0C70164E640
:1042100070E00E94323AC70187599109893891416B
:1042200008F052C0EE15FF0508F04EC08D819E814A
:10423000280F391F2E153F0508F046C0681779076B
:1042400008F042C080911A01833018F483E0809313
:104250001A0120911801822F90E0FC01EF56FE4FC9
:1042600050824682880F991FFC01E356FE4FF1826F
:10427000E0822F5F2093180188E087B988B914B8CD
:1042800015B88EE20E94790C6996E2E10C94633BCA
:104290002F8924B915B83C8137B94B8148B960E002
:1042A000898119D2842D0E94DE070E944608FC01F4
:1042B000780199CF28EC30E0A3CFB70144E07695A0
:1042C00067954A95E1F7A7CF642D852D01D0D4CF0E
:1042D000B0E0A0E0EEE6F1E20C94493BC82FD62F07
:1042E000A895862F90E0FC01EB5BFD4F5490339630
:1042F00024914C2F50E0FA01EB5BFD4F1491339663
:10430000049160916F0130914F01630F7727771F00
:10431000672B09F067C0A89560911E0170911F017D
:10432000660F771F660F771F70933101609330011E
:104330006091740170917501660F771F660F771F8A
:1043400070932F0160932E013EEB30932C0130913E
:104350001801E1E9F1E0DF01480F591F9A2F9E1B78
:10436000931718F188E088B9286027B914B915B9EE
:10437000B8E1BB2ED12CC12C8D2F0E94DE07782EE8
:10438000692E8C2F0E94E2077C018C199D0997FFF2
:1043900003C091958195910903970CF46BC1A89581
:1043A000BA946701B110E8CF0AC08D9115966C914F
:1043B0001597680F7727771F6417750779F680912F
:1043C0001E0190911F0190933101809330018091E3
:1043D00074019091750190932F0180932E0189E1D2
:1043E00080932C01CDB7DEB7E0E10C94653B25E866
:1043F000C21621E0D20618F7043AA2E01A0708F024
:10440000B1C0B8E9AB16B104D0F2C6010E944608AB
:10441000AC019601A8E9B7EB0E949D3A9A0150E0E1
:1044200040E00E94593A29013A01C5010E9446081C
:104430009C01A8E9B7EB0E949D3A950150E040E04D
:104440000E94593A88E7C8168FE0D80608F06EC077
:10445000F2E0440C551C661C771CFA95D1F7C30199
:10446000B201620F731F841F951F25E030E040E00A
:1044700050E00E94593AA4E6B0E00E94B23A6B01C3
:104480007C01BCEACB0EBDE0DB1EE11CF11C1091EF
:104490001A01143008F093CFC150DC0F8D2F90E03B
:1044A000FC01E65AFE4F2081880F991F880F991F43
:1044B00082559E4FDC01222309F4C1C08D909D904E
:1044C000AD90BC90A7019601281939094A095B09EA
:1044D00057FF07C050954095309521953F4F4F4F5E
:1044E0005F4FAAE0B0E00E94B23AB4E68B0E911C96
:1044F000A11CB11CC80CD91CEA1CFB1C6C157D0549
:104500008E059F0508F05BCF133019F081E0809392
:104510001A0182E0808380917601E82FF0E0E35A6F
:10452000FE4FD0838F5F8093760149CFA8E7AA160C
:10453000AFE0BA0670F4E2E0220F331F441F551FAC
:10454000EA95D1F7CA01B901640D751D861D971D45
:104550008CCF240D351D461D571D56954795379513
:10456000279589CFC0901B01D0901C01672D762D17
:10457000E616F70608F4B701C7010E944B0896013A
:10458000DC010E949D3A2B013C01C7010E944608B4
:104590009C0150E040E0C301B2010E94593A290158
:1045A0003A01A0901401B0901501892D982D801723
:1045B000910708F4C801B8010E944B089501DC017D
:1045C0000E949D3A980150E040E00E94593A88E7E5
:1045D000E8168FE0F806B0F462E0440C551C661C47
:1045E000771C6A95D1F7C301B201620F731F841F54
:1045F000951F25E030E040E050E00E94593A690103
:104600007A0145CF0837AFE01A0770F4CA01B90143
:1046100052E0660F771F881F991F5A95D1F7640DD6
:10462000751D861D971DE5CF73016201C20ED31E55
:10463000E41EF51EF694E794D794C79428CFCD9244
:10464000DD92ED92FC92139781E08083B8CE550CF9
:1046500054B88D2F0E94DE075C01B0ECEB16B4E479
:10466000FB0608F4C4CE80EBC8168DE4D80608F02B
:10467000A6CEC2CE110F15B814B98C2F0E94DE073A
:104680008135910508F09BCE15B98C2F0E94DE076D
:104690006C01802F886087B908B915B854B8A8E1B3
:1046A0004A2EB12CA12C8C2F0E94DE07982E892E29
:1046B0008D2F0E94E2078C018A199B0997FF03C086
:1046C000919581959109039714F2A8954A94580100
:1046D0004110E9CF74CECF93C82FC09595B160FF3C
:1046E0000FC0982B95B994B1982B94B90E94AA0742
:1046F00084B18C2384B985B18C2385B9CF91089579
:104700009C23F0CFB0E0A0E0E8E8F3E20C944F3B4C
:104710001AE008E08FE3C82E99E0D92E07B908B94E
:1047200015B8C4B880E00E94DE077C0181E00E94D9
:10473000E207EC0182E00E94E2079C0180911A01ED
:104740008930A1F488E087B914B8F0925501E0925D
:104750005401D0935701C0935601309359012093CF
:104760005801CDB7DEB7EAE00C946B3B84E0E81665
:10477000F10448F4C430D10560F42430310510F35D
:1047800099E092600AC098E088EEE81683E0F806A7
:1047900008F499E0C83ED340A0F3283E334008F423
:1047A000946097B9D0E0C0E0A89580E00E94D70758
:1047B0005C0181E00E94E2077C0182E00E94E20746
:1047C00024E1A21625E0B20608F4389A24E1E216A4
:1047D00025E0F20608F4399A843125E0920708F4BE
:1047E0003A9A26E0A216B10430F426E0E216F1046B
:1047F00010F4069738F02196C43F81E0D807A1F65F
:10480000D0921A01F12CE12CEC16FD0621F4115086
:1048100009F084CFA6CF0E9499072FEFE21AF20A7F
:10482000F3CFCF92DF92EF92FF92CF9320917B0153
:1048300030917C0140917D0150917E01C0918D01AC
:104840008AE0C82ED12CE12CF12C8C2FCF5F213A9D
:1048500096E8390791E049075105E0F480938D010E
:10486000A0913001B09131010E94B23A28E833E1C1
:1048700040E050E00E94593A20937B0130937C0144
:1048800040937D0150937E01CF91FF90EF90DF9098
:10489000CF900895CA01B901A70196010E94593A23
:1048A000D4CF8F929F92AF92BF92EF92FF920F93CD
:1048B0001F93CF93DF93C82FF62E880F8C0F9FEF97
:1048C000960F890F80935101EC2FF0E0EB5BFD4FC9
:1048D000D491862F90E0FC01EB5BFD4F1491FC011D
:1048E000E85BFD4F649180911A012091180141E924
:1048F00051E0DA018130F9F4DF91CF911F910F91EE
:10490000FF90EF90BF90AF909F908F900895169674
:104910008C9116978F110EC08C918C130BC0CD010A
:10492000880F991F81599140FC01848595858C3DA4
:10493000954010F311968A2F841B821740F3E62EC0
:104940006894E3F8109288011092870181EF8093B8
:104950008D0110927B0110927C0110927D011092CA
:104960007E01D0DE88E088B9E7B814B915B98C2F7C
:104970000E94E2078C018F2D0E94E20714B810926A
:104980005301109252014C01801A910A80915201F8
:1049900090915301843F914030F088E087B988B905
:1049A00014B815B8A9CFD5B9D4B90E94930714B8D3
:1049B00015B80E949A07A8958C2F0E94E2075C0107
:1049C000A80CB91C80915201909153018E3791052A
:1049D00020F02BE4A216B10404F33DE2A31631E06B
:1049E000B3060CF030C280915201909153010196B0
:1049F0009093530180935201C9CFC501F5E1AF16E1
:104A0000F5E0BF060CF440C17DDE15B88FE087B934
:104A100088E088B9BD2EBB0CB4B880E480937B00DD
:104A200084E580BF8C2F806480937C0086E1809336
:104A30007A000E949D071092530110925201109229
:104A40008000109285001092840087E286BB81E28C
:104A500080936F0081E080937801B5B890911A013E
:104A6000953009F0D0C18093810081E090E00C2E58
:104A700001C0880F0A94EAF780958F7087B9F8947F
:104A800083B7817F83BF80917801882389F083B7C2
:104A9000816083BF7894889583B78E7F83BFF894B5
:104AA000A89580915201909153018034964059F716
:104AB000789410928100A0908600B09087001092A8
:104AC0006F0086E980937A0014B815B88C2F0E9485
:104AD000E2072091340130913501821B930B0C9633
:104AE0009093900180938F01809152019091530196
:104AF0008032934008F051CF809152019091530140
:104B00009093860180938501B0928401A0928301E5
:104B100084EF80938D0180915201909153018234F2
:104B20009105C8F0609183017091840180918501A5
:104B30009091860124E630E040E050E00E94593A2E
:104B40002093830130938401409385015093860123
:104B500086EF80938D01A0917901B0917A01209127
:104B600083013091840140918501509186010E941A
:104B7000B23A20E233E040E050E00E94593A2093FC
:104B800083013093840140938501509386012093E3
:104B90007B0130937C0140937D0150937E0141DE87
:104BA00080918D01843F09F056C080907B019090E8
:104BB0007C01A0907D01B0907E01F0EA8F16FFE0AD
:104BC0009F06A104B104C0F4A50194012C543F4FE9
:104BD0004F4F5F4F60EA7FE080E090E00E94593ADB
:104BE000820E931EA41EB51E80927B0190927C01C2
:104BF000A0927D01B0927E0180907B0190907C011B
:104C0000A0907D01B0907E018114910421E0A20664
:104C1000B10408F0FCC09092BF018092BE01809167
:104C2000510190E08F5C9C4F0E94DA3B90E0B0E035
:104C3000A0E088159905AA05BB0508F0EFC0881A01
:104C4000990AAA0ABB0A80927B0190927C01A092E9
:104C50007D01B0927E01D4B980917B0190917C015D
:104C6000A0917D01B0917E014997A105B10508F0A1
:104C700082C093CE0E9494078C2F0E94E207880D79
:104C8000991DA8950F5F1F4F20915201309153013C
:104C90002017310778F74501881A990A1814190462
:104CA0000CF0AEC029EC821691040CF076CE28EE02
:104CB00033E0D4010E94AC3A95010B2C000C440B5C
:104CC000550B0E94593A89018091520190915301EC
:104CD0000196B0E0A0E08093830190938401A093BB
:104CE0008501B0938601C501880D991D0E94A70812
:104CF000209183013091840140918501509186017A
:104D0000DC010E94B23A6093830170938401809326
:104D100085019093860160937B0170937C01809361
:104D20007D0190937E0187EF80938D017ADD8090E5
:104D30007B0190907C01A0907D01B0907E0184E188
:104D400093E00E94DA3BA8EEB3E0A81BB10987FD0F
:104D5000B395A50194010E94BC3A24E630E040E0FE
:104D600050E00E94593A20937B0130937C0140939C
:104D70007D0150937E0180911801882329F0809154
:104D80001A01853009F009CE88E080931A018091DC
:104D90008D0190918E019817C4F08913FECD8090FB
:104DA0007B0190907C01A0907D01B0907E014091AC
:104DB0007F015091800160918101709182014815BD
:104DC00059056A057B0508F0E8CD40917B015091BB
:104DD0007C0160917D0170917E0140937F01509331
:104DE0008001609381017093820180938E01109302
:104DF0008A0100938901F0928B01C0938C01CDCD83
:104E000010E000E061CF80938100E7B838CE81E008
:104E100090E09093BF018093BE0101CF34E1830EF7
:104E2000911CA11CB11C88169906AA06BB0610F499
:104E30000E94941310927B0110927C0110927D01CC
:104E400010927E0108CF009152011091530101157B
:104E5000110509F4D2CDC50110E000E015CF1F9275
:104E60001FB61F9211248F939F93B59904C0809110
:104E70007801811109C0B59B10C080918600909186
:104E800087008A3F910548F4809152019091530127
:104E9000019690935301809352019F918F911F909F
:104EA0001FBE1F9018951F921FB61F9211248F933B
:104EB0009F9310927801B09B10C0809186009091D2
:104EC00087008A3F910548F48091520190915301E7
:104ED000019690935301809352019F918F911F905F
:104EE0001FBE1F901895B0E0A0E0E9E7F7E20C9430
:104EF0004D3B88E893E190931F0180931E019093AE
:104F00003101809330018EEB80932C01C8E0C8B949
:104F100088E187B90E94A207C7B984E00E94DE0732
:104F2000AC018B5C9840833F9140A0F481E080937A
:104F30003B012091300130913101AFEBB9E00E948B
:104F40009D3A9A0150E040E00E94593A30931F0187
:104F500020931E0180911E0190911F0190933101B9
:104F6000809330018EE00E94E2078EE00E94DE070F
:104F700090933501809334010E945408C3DB88E08C
:104F8000F82EF8B8C9E0C7B985E185B9D1E0D4B940
:104F900080E00E94DE078C019AE0D92ED7B824E089
:104FA000B22EB4B881E00E94DE07080F191F3CE062
:104FB000E32EE7B840E1C42EC4B882E00E94DE07C9
:104FC000080F191F15B8C8B9C7B9D4B980E00E9435
:104FD000DE070E944608EC01D8B8D7B8B4B881E023
:104FE0000E94DE070E944608C80FD91FE8B8E7B83C
:104FF000C4B882E00E94DE070E944608C80FD91F8D
:10500000F7B8F8B814B880913001909131016C0173
:10501000CC0CDD1CC80ED91EC8018C0F9D1FC81AF0
:10502000D90AF12CE12C9801A0E9BAE10E949D3A3D
:10503000A70196010E94593A49015A0130933A0159
:10504000209339019E01A0E9BAE10E949D3AA7018F
:1050500096010E94593A3093330120933201205730
:10506000354E30931C0120931B0180E7881A85EE92
:10507000980A909215018092140189E180932C0185
:10508000CDB7DEB7ECE00C94693BCF92DF92EF92A4
:10509000FF920F93CF93DF93F82EC62FD42F0E9449
:1050A000E90C88E091E00E94F70CFFD16C2F8F2D66
:1050B0000E944A38C090C201D090C301E090C40160
:1050C000F090C5018091200187FD05C0C114D10475
:1050D000E104F10421F084E091E00E94F70C8C2FB0
:1050E0000E94E90CC114D104E104F10431F00E94E2
:1050F0008A0680915D010E94EE06DD2309F459C005
:1051000080913C018D3008F054C08650990B855C2D
:105110009C4F0E94F70C80E00E94740BCD28CE2893
:10512000CF2809F449C06091C2017091C3018091F8
:10513000C4019091C50103E028E447EF0E943C0DB3
:1051400087E191E00E94F70C86E493E00E94E23B45
:1051500023E046E464EF0E941C0E8091BA01909116
:10516000BB01A091BC01B091BD01892B8A2B8B2B77
:10517000F1F180E00E94740B6091BA017091BB0163
:105180008091BC019091BD0104E028E440E00E94C0
:105190003C0D82E191E00E94F70C23E040E26FEFCA
:1051A0008091C0019091C1010E941C0E0E94530B7E
:1051B00025C00E94530BAFCF80915D010E94EE0687
:1051C000809120018E3F4CF68FE291E00E94F70C17
:1051D0006091A9017091AA018091AB019091AC01FD
:1051E00003E028E4409120010E943C0DB6CF80E00E
:1051F0000E94590B80913F018823C1F2DF91CF912A
:105200000F91FF90EF90DF90CF900895EF92FF9273
:105210000F931F93CF93DF93182F0E94E80A80917A
:105220008B010E94E90C8BE491E00E94F70C80D383
:1052300060918B0180918C010E940A09EC0190938E
:10524000880180938701E0908901F0908A01CA3F2C
:105250008FEFD80720F489E091E00E94F70C80914D
:105260008C010E94E90C112309F445C090913C0186
:105270008DE0891B0E94AF0A89E690E00E94F70C3E
:105280000E943B0B60917F017091800180918101B0
:105290009091820104E026E440918E010E943C0D31
:1052A000CA3FDF4F68F48AE391E00E94F70C22E0E6
:1052B0004DE16EEF80918701909188010E941C0E54
:1052C0000E94530B0E94430BE114F10469F083E345
:1052D00091E00E94F70C22E045E26FEF8091890196
:1052E00090918A010E941C0E0E94530BCDB7DEB72D
:1052F000E6E00C946F3B0E94530BC2CF8F7021F4F9
:105300000E944B0B0C94C01908958F3021F490919A
:105310003601913011F08F5F089580E00895CF93AA
:1053200084E790E080D76AE080E00E94B80A8FE3CB
:1053300093E00E94F70CC0E00E946D0F60E082E0F5
:105340000E94682162E080E00E9468210E94E80AD1
:10535000809176018823C9F041E062E080E095DE2B
:105360008C2FCCDF88EE93E00E94B60E811109C02D
:1053700080911301843028F48C2FC7DFC82F8A3F17
:10538000D8F20E94EF0ACF91089584E790E00E943E
:10539000F70C8FE393E00E94F70C0E943B0B8FE326
:1053A0000E94790C80E00E94590B0E94530BD8CFC9
:1053B0000F931F93CF93DF93C0E0D8E012EF0DE07F
:1053C0000E946D0F60E082E06CDAD0931A01809148
:1053D0008D01843FE1F480917B0190917C01A0914B
:1053E0007D01B0917E0184369105A105B10578F467
:1053F00040E060E082E00E94E43560937B017093BE
:105400007C0180937D0190937E0110938D018091AA
:105410008D01823F6CF180938E0180917B01909190
:105420007C01A0917D01B0917E0180937F019093DA
:105430008001A0938101B093820181E0E7DE8C2F8F
:105440005DDF88EE93E00E94B60E81110AC0809164
:105450001301843030F48C2F58DFC82F8A3F08F4B2
:10546000AFCF0E94EF0ADF91CF911F910F91089566
:105470000E94E80A8DE690E00E94F70C80913C01C2
:10548000902F981B892F0E94AF0A89E690E00E9416
:10549000F70C0E943B0B8FE30E94790C0E94530B88
:1054A0000E94430B0E94530BCACFA6E1B0E0EBE58C
:1054B000FAE20C94473B82E08093200180911A012C
:1054C000813009F0DDC180917601813009F0D8C1C9
:1054D00040905D0124E0429EF0011124E255FE4F10
:1054E00080819181A281B381893032E59307A10542
:1054F000B10508F0C5C11C01712C81E0871508F4C5
:10550000C3C1842D0E94E406982E892EE92FF0E075
:10551000E85BFD4F549090E0FC01EB5BFD4FE491A4
:1055200015B828E028B9372D3170632E20EF2216E8
:10553000310408F0B0C13111AEC1009114011091D5
:10554000150100591A4121E030E002C0220F331F3B
:105550008A95E2F7C9018529886087B934E1398BDA
:10556000892D0E94DB075C01882D0E94E20724E060
:10557000A216B10410F4049728F039893150398B00
:105580003111EECF80E480937B0094E590BF892DAC
:10559000806480937C0026E120937A00F12CE12C3A
:1055A00010928000109285001092840087E286BBE2
:1055B0000E949D07872D90E09A8B898B611074C1A2
:1055C00081E88093810058B886B385FF76C128E0D2
:1055D00028B91092810030E236BB209186003091CC
:1055E0008700690140918400509185002417350798
:1055F00008F471C186E980937A00B4E15B2E892DAD
:105600000E94DB075C01882D0E94E20724E0A216BD
:10561000B10410F4049718F05A945110F0CF809010
:10562000390190903A01820C931C800E911E2091BA
:1056300016013091170100398AE1180708F053C1AB
:1056400069E191EEC916D104E104F10430F4C60118
:1056500065E070E00E94323A645128523109261BFD
:10566000310967FD339566E0862F90E0B0E0A0E059
:105670008C159D05AE05BF0508F03EC1C81AD90AB4
:10568000EA0AFB0A662029F082E2C80ED11CE11C5E
:10569000F11C90E5E916F10418F0C12CD12C76012B
:1056A0008BE0C816D104E104F10428F091E0C91A96
:1056B000D108E108F108B12CA12CA8EEB3E00E94BA
:1056C0009D3A6B8B7C8B8D8B9E8BA0913001B09122
:1056D000310198010E949D3AA50194010E94593A16
:1056E000442755276B897C898D899E890E94593A68
:1056F000C9010E94E608FC01A5019401C701B60199
:105700000E94173A4B015C01BF0190E080E0E3E0AA
:10571000660F771F881F991FEA95D1F76B5F7F4F40
:105720008F4F9F4F2AE030E040E050E00E94593A0E
:10573000C501B4010E94593AE989FA89EE0FFF1FA9
:10574000EE0FFF1F81E090E08C0F9D1FE80FF91F07
:105750002083318342835383611018C09CE0C916B3
:10576000D104E104F10490F07394E989FA89319647
:10577000EE0FFF1FEE0FFF1F81E090E08C0F9D1FCB
:10578000E80FF91F2083318342835383A8957394D4
:1057900093E0971508F0B1CE88E088B984E00E94C4
:1057A000AB0791E00D811E812F81388549815A8197
:1057B0006B817C81401751076207730708F090E006
:1057C0000D851E852F85388949855A856B857C8591
:1057D00083E0401751076207730708F082E024E076
:1057E000829FD001112421E030E02C0F3D1FA20F39
:1057F000B31FE92FF0E0EE0FFF1FEE0FFF1FE20FC8
:10580000F31F0D911D912D913C9140815181628139
:105810007381041715072607370708F0892F34E02E
:10582000839FF001112421E030E02C0F3D1FE20F97
:10583000F31F40815181628173814093A90150938C
:10584000AA016093AB017093AC0180FD59C030EFA9
:105850002316310408F054C08BEF8093200180910F
:10586000A9019091AA01A091AB01B091AC01892B43
:105870008A2B8B2B11F41092200188E087B914B881
:105880006696E2E10C94633B842D0E94E40698271F
:105890008927982739CEE4B9852D886087B900918A
:1058A0001401109115015ACE58B80E94A60790E233
:1058B00096BB81E88093810087CE80FF85CE91E002
:1058C00096BBA89597012F5F3F4F79012035310591
:1058D00009F07ACE7CCE80FF8DCE21E026BB3FEF53
:1058E000E31AF30A87CEC40160EB76E30E94323AF2
:1058F000695F285D3F4FB8CEC12CD12C7601C2CE56
:105900008CEF80932001CB01BA016B5F7F4F8F4FEB
:105910009F4F2AE030E040E050E00E94593A209347
:10592000A9013093AA014093AB015093AC0197CFEA
:10593000B0E0A0E0EEE9FCE20C94493B0091890163
:1059400010918A010115110509F092C0E0918B01B7
:10595000F0E0E85BFD4FD491D860E0918C01F0E07D
:10596000EB5BFD4FC4910E94822388E088B915B893
:10597000D7B9C4B980918C010E94E2077C01D09113
:105980008E018CE08D0F843008F072C080917F0111
:1059900090918001A0918101B0918201D15F2C0191
:1059A0003D0125E0420E511C611C711CC301B20176
:1059B0002AE030E040E050E00E94593A49015A01A3
:1059C000DA01C901DF5FD73051F72AE5421623EC2F
:1059D00052066104710408F04BC0059708F448C0F2
:1059E000C5B9C4B9D0E0C0E0C815D90508F445C0B0
:1059F00014B815B8A89585E080932C0180918C018E
:105A00000E94E207EC01CE19DF09E816F90610F052
:105A1000D0E0C0E0D12CC12CC814D90490F1809101
:105A20008C010E94E20729E120932C01A895E81639
:105A3000F90618F48C010E191F090C171D0788F4BC
:105A40009E01201B310B69F0A4EFB1E00E949D3A4A
:105A50009E0150E040E00E94593A30938A01209321
:105A600089010E94822388E087B988B914B815B8E3
:105A7000CDB7DEB7E0E10C94653B0E94A407229607
:105A8000B3CF0E94A4078FEFC81AD80AC5CF8B30B6
:105A900008F08B50811109C089E192E00E94F70C57
:105AA0000E94530B0C94E30A0895813019F48EEA96
:105AB00091E0F4CF823019F480EF91E0EFCF8330A2
:105AC00019F485EE91E0EACF843019F48FE790E085
:105AD000E5CF853019F484E790E0E0CF863019F403
