:1000000038C300004AC3000048C3000046C30000D4
:1000100044C3000042C3000040C300000C94692E9A
:100020003CC300003AC3000038C3000036C30000E0
:1000300034C3000032C3000030C300002EC30000F0
:100040002CC300000C94562E0C945C2E26C300008A
:1000500024C3000022C3000020C300001EC3000010
:100060001CC300001AC3000018C3000016C3000020
:1000700014C300000C940B0A10C300000EC3000050
:100080000CC300000AC3000008C300000C943D2EFE
:1000900004C3000002C3000000C30000FEC2000051
:1000A000FCC20000FAC20000F8C20000F6C2000064
:1000B000F4C20000F2C20000F0C20000EEC2000074
:1000C000ECC20000EAC20000E8C20000E6C2000084
:1000D000E4C20000E2C20000E0C20000DEC2000094
:1000E000DCC20000E62FF72F903009F49395E092E0
:1000F0000801C0920701B7EFB0937A00A5E0A09382
:100100007B00A8E0A093810010928000AFEFA09345
:100110008500A0938400A6E0A093360010928B0087
:1001200010928A00B6E0AFE7A91B51E0392F3630B4
:100130002AF0A058B94F53953650F9CFB0938900A3
:10014000A0938800A0917A00A4FFFCCFB7EBB093F6
:100150007A00A2E0A0936F00A9E0A093810062E082
:10016000A0E0A0937B00A1E0A09353008895E092CB
:100170000801C092070184FF1AC0A3E4AA95F1F711
:10018000EF93FF93E0B3F1B3A4E0C2FCA2E0C0FCA4
:10019000A1E0BF2FBA2BAE2BB1BB00930701A0BBD0
:1001A000E0BBF1BBFF91EF910DC00C94B300A7E44D
:1001B0000000AA95F1F720930801E09208010000E1
:1001C00000930701A0918400A0918500B09189005F
:1001D000A395AB1750F7A0917A00A4FFF3CFB7EB2C
:1001E000B0937A006A9571F7609178007091790008
:1001F000308186FD630F6193308186FD731F80FF20
:100200007193652F4A9579F710926F0010928100D3
:10021000B7E0B0937A000895496473733D00312DBF
:10022000032D3320342D33306E46284C290052459F
:10023000465F523D005245465F433D00203E31300F
:10024000306E460066706EE46D006B4D0104100167
:100250000204041F111111111F04001E0203021ECB
:100260000000000F0818080F00001113171F1713C4
:10027000110011191D1F1D1911001B1B1B1B1B1B1E
:100280001B005244533D005B435D00312D032D3371
:100290002000312D04052D77772D332000432B4589
:1002A0005352405450313A3300433073616D7020E3
:1002B000004330200052695F4C6F3D0052695F4837
:1002C000693D0052303D0052482F524C002B52489D
:1002D0002D203132203133203233002B524C2D204F
:1002E00031322031332032330052482B0052482D16
:1002F000005248663D005265663D00494345733DE6
:1003000000494345303D0056657273696F6E203178
:100310002E31336B002D77772D002D04052D002A0B
:10032000012020007A20513D0020696620002040F5
:10033000302D3556002D022D002D012D004E6F74ED
:100340002063616C696272617465642120466F721A
:10035000FF63616C6962726174696F6E20636C61C6
:100360006D70207468652033FF70696E7320746F40
:1003700067657468657220616E642073746172745D
:10038000207769746820746865FF6B65792E204159
:10039000636B6E6F776C6564676520746865207346
:1003A000656C662D74657374207769746820746851
:1003B00065206B65792077697468696EFF32732EEA
:1003C00020446973636F6E6E6563742070696E7329
:1003D00020616674657220746865FF6D6573736172
:1003E0006765202269736F6C617465FF50726F627C
:1003F0006521222069732073686F776E2E20536FFA
:1004000066747761726520616E6420646F63756DD8
:10041000656E746174696F6E206973206174206702
:1004200069746875622E636F6D2FFE6B7562693437
:100430003800202049723D004C3D0020566C6F73FF
:10044000733D00204553523D005643433D004365F4
:100450006C6C21002D032D004056673D0020567422
:100460003D0055663D005562653D00203132333D0B
:1004700000504E50004E504E00433D00423D002D76
:1004800049474254004A464554002D4D4F53004FB2
:100490004B004672657175656E63790073686F72A3
:1004A000742050726F626573210053656C667465C9
:1004B0007374007475726E21004328E44629636FDB
:1004C0007272656374696F6E00726F746172792005
:1004D000656E636F6465720031302D6269742050FF
:1004E000574D00662D47656E657261746F720053DB
:1004F0007769746368206F66660053686F7720645D
:10050000617461005472616E736973746F72005329
:10051000656C656374696F6E3A0054657374204549
:100520006E640069736F6C6174652050726F6265F0
:1005300073210053656C6674657374206D6F646518
:100540002E2E0054696D656F7574210020646574EA
:100550006563746564004E6F2C20756E6B6E6F77EB
:100560006E2C206F720020756E6B6E6F776E00546C
:100570006879726973742E005472696163007061E6
:1005800072740064616D6167656420005465737402
:10059000696E672E00B903870358032E030703E42F
:1005A00002C302A40288020000140029003E005386
:1005B00000690080009700AE00C600DF00F800125E
:1005C000012D01490165018201A001BE01DE01FF8B
:1005D000012102440268028E02B502DE02090335DF
:1005E0000364039403C803FE0337047304B404F9DB
:1005F0000443059305EA054906B3062907AE0748F3
:1006000008FF08DE09FD0A930C480F991B705780FC
:10061000508D4A6645E340E83C5E3933365A33C66E
:10062000306D2E492C532A8428DA264E25DF238963
:10063000224A212020081F011E091D201C431B7374
:100640001AAD19F1183F189517F4165A16C6153A2F
:1006500015B3143214B7134013CE126112F811936C
:10066000113111D31078102020202020205B524C13
:100670005D0011241FBECFEFD1E2DEBFCDBF00E091
:100680000CBF22E0A0E0B2E001C01D92A73BB20780
:10069000E1F70E94C8100C94C538B2CC80FD149AC2
:1006A00080FF14980C9A0000159A0D9A10981198D2
:1006B0001298139864FD109A089A65FD119A099A88
:1006C00066FD129A0A9A67FD139A0B9A0000159814
:1006D00019D187FD10C0159A109811981298139887
:1006E00060FD109A61FD119A62FD129A63FD139AE2
:1006F0000000159807C1089597FF09C08F939F9335
:100700008DE2E8D39F918F91909581959F4F67E1FE
:1007100072E04AE050E00E94643841C4EDDF01C05D
:10072000EBDF80E2D7C38DE2D5C38DE3D3C3EF9275
:10073000FF920F931F93182F062FF42E8BE694E051
:1007400039D4EE24E0913202F09133028685E81626
:1007500011F4812F09C08485E81611F4802F04C09C
:100760008585E81611F48F2DB5D3E3948E2D833053
:1007700049F71F910F91FF90EF900895682F80E047
:1007800092E0662309F491E0623009F481E0089573
:100790000F93082FEFE9F2E0880F880FE80FF11DA3
:1007A0006081718182819381643671058105910533
:1007B00068F42091150227FD09C0802FDFDF692F23
:1007C000C0D16EEF23E044EF8AD504C04FEF04E0C0
:1007D00024EFA1D4A6DF0F910895863058F4EEE8F7
:1007E000F2E0E80FF11DE80FF11D8081918163E0D7
:1007F00081D597CF08951F93182F80916902882380
:1008000019F08FDF80E066D3C1D382E694E0D2D3C3
:10081000812F82958F70E1DF812F8F70DEDF1F9136
:1008200008958091020282958F7018D08091020203
:1008300083701AD080910202DECFE2E8F2E0E80F86
:10084000F11D0895CF93F9DF9081C681C91710F487
:1008500005D001C012D065DFCF910895EEDF8F93F0
:1008600080816AD38F9100C08F9389E393E0A2D3F4
:100870008F91E3DF868160C30895DFDF8F938681E8
:100880005BD38F9100C08F9385E393E093D38F91D7
:10089000D4DF808151C308958F932F932AE08095F0
:1008A000539A089410F45B9802C05B9A000020D021
:1008B00027D086952A95B1F72F918F91089503D06F
:1008C00002D001D000D000D003D002D001D000D09F
:1008D00000D003D002D001D000D000D0A89503D022
:1008E00002D001D000D000D003D002D001D000D07F
:1008F00000D003D002D001D000D000D003D002D06D
:1009000001D000D000C000C000C000000895E5DFA5
:10091000E5DFE4DF1F93182F106410937C00E12FB4
:10092000E07880912202E81751F0E0932202D5DFAF
:1009300087ED80937A0080917A0086FDFCCF20E0DD
:1009400030E0A901E0E01FC087ED80937A0080913C
:100950007A0086FDFCCF6091780070917900260FB7
:10096000371F411D511DE43069F48091240280300D
:1009700049F084E02030380728F417FD03C01068E0
:100980001F7BCBCFEF5F80912102E817E8F26091E7
:1009900025027091260217FF04C060912302709116
:1009A000240280E090E00E94DA362FEF33E040E04E
:1009B00050E00E941C37B901CA012091210230E0A9
:1009C00040E050E00E941C37C9011F9108959B012F
:1009D000281B390B50F0C9010895BC0180912502F4
:1009E000909126026817790718F4861B970B0895D3
:1009F00080E090E0089588E290E00E949F38209186
:100A0000290230912A02280F391F20930B023093BC
:100A10000C0283E0283E380720F0C901885E93402D
:100A200002C080E090E062E370E00E94F53668303A
:100A300008F067E0E5E9F5E0E60FF11DE60FF11DCE
:100A4000459155912591359162E3681B421B530BEB
:100A5000649FC001659F900D1124499662E370E088
:100A60000E94F536620F731F70936B0260936A02E7
:100A70008AE290E00E949738992787FD90956091CF
:100A8000290270912A02860F971F90932402809367
:100A90002302909368028093670208950F9221E0E9
:100AA0008C32920710F48CE291E08C52914069E113
:100AB00070E00E94F53699E16B3210F0982F6BE2EE
:100AC000981BEDE0F6E0E60FF11DE60FF11D4591F4
:100AD000559125913591692F421B530B649FC0019D
:100AE000659F900D11240C9669E170E00E94F53627
:100AF000620F731FCB010F900895CF93DF9324E112
:100B000030E0B9010E94F536DC01E7EAF5E0E60FD6
:100B1000F71FE60FF71FC591D591459155914C1BD5
:100B20005D0B4A9FC0014B9F900D5A9F900D112461
:100B3000B9010E94F5366C0F7D1FCB01DF91CF917B
:100B40000895AEE1B0E0E7EAF5E00C940438662ED3
:100B5000B82E860F898320910F02283059F52091F5
:100B6000700230917102409172025091730257FDF0
:100B700015C010917F0209C0CA01B9012AE0312DC8
:100B8000412D512D0E941C371F5F173FACF391F48C
:100B9000243160E036074105510518F48FEF9FEFCF
:100BA00052C1173F39F480E028178DE73807410517
:100BB000410510F020E03DE72D8B3E8B27EDA22E66
:100BC000EFE4F2E0E60DF11D859180608F87EFE4A0
:100BD000F2E0EB0DF11D85918060888BECE4F2E092
:100BE000E60DF11D7590ECE4F2E0EB0DF11DC59002
:100BF00090E8692AB92A81E0E82EF12C012D112D07
:100C00008F83188619861A861B861C861D861E866B
:100C1000198E1A8E1C8E1B8E0E94BE1F80E081BB17
:100C200060927C005ADE388930BB70920801709265
:100C3000070155E05A95F1F7000010920701109254
:100C40000801DD243F8530BB7092080170920701D6
:100C500060927C00A895A0927A0080917A0086FD2F
:100C6000FCCF2090780030907900B0927C004C2D21
:100C7000EED02091780030917900298B3A8B388919
:100C800030BBC0920801C0920701A895B0927C00C9
:100C9000A0927A0080917A0086FDFCCF6091780066
:100CA0007091790060927C00472DD1D040917800FE
:100CB0005091790010920701CB01820D931DE80E2F
:100CC000F91E011D111DEB82FC820D831E83898993
:100CD0009A89840F951F2F81388569857A85280F19
:100CE000391F611D711D2F83388769877A8722E339
:100CF0002417150668F0709208017092070102DE51
:100D00001092070110920801898D8395898F07C081
:100D1000483E73E0570718F08B8D83958B8F898938
:100D20009A892817190678F03F8530BBC0920801D0
:100D3000C0920701E7DD10920701109208018A8D29
:100D400083958A8F07C0883E73E0970718F08C8DD3
:100D500083958C8FD3945D2D5F3F49F05F3731F4DD
:100D60005C2D550FC50E572D550F750E6BCF40904E
:100D70002E0250902F02440C551C9201E4E0240DE9
:100D8000351DEA95E1F72901570168016F807884E4
:100D900089849A8420910F022830C1F46D897E895C
:100DA000812D912D65507040804090409B01AC0199
:100DB0000E94DA369B01AC0160E779E786E190E0BA
:100DC0000E941C37621A730A840A950AA614B70493
:100DD000C804D90428F46A187B088C089D0803C04D
:100DE000662477244301B20180E090E09301A401DE
:100DF0000E94DA369501A6010E941C3780E090E03F
:100E00007981870F911D0E949738682EC90160E192
:100E100070E00E94F536260F371FC90168161906C3
:100E200018F4861991090FC08C5E9F4F86159105A5
:100E300040F48D899E89843981E1980710F00E94E1
:100E40006D10812D912D6E96E2E10C942038109258
:100E500081001092800010926F0010928B0010920F
:100E60008A0057E056BB5FEF509385005093840093
:100E700055E050937B0057EB50937A0051E050932C
:100E800081005FE45A95F1F7409308014093070110
:100E90005BE05A95F1F71092070110920801109249
:100EA000810080917A0084FFFCCF80937A000895BE
:100EB000CF93C82F1C1614F0CF91089532DCC15087
:100EC000F9CF809131028093000280919E0280933D
:100ED00001020895CF93C82F809131028F5F8093D4
:100EE00031026C2F81E0DADB04DDC63058F482E594
:100EF000C430A0F4C23079F0A8F48EE3C13099F088
:100F00008C2F0CC085E7C43E49F0C43F79F0CD3248
:100F1000B9F78DE203C08CE7BFDC8CE3BDDCA8959C
:100F2000CF9108958CE7B8DC8CE7F8CF8FE4B4DC80
:100F300088E6B2DC8DE6F2CF8F5CCCCF0895682FC7
:100F400080E0ACDBD6CC089560933102813021F48F
:100F500080EC860FF4CF089580E8FBCF609100020B
:100F600080910102F1CF08958DE096DC8AE094CC67
:100F7000089510929E0280E8E2DF10923102F4CFD1
:100F8000089581E0DCDFA9DCF4CF089581E080934F
:100F90009E0280ECD4DF10923102E6CF0895CF9309
:100FA000DF93EC018991811103C0DF91CF91089506
:100FB00091DFF8CFCF93DF93EC01FE01849188237A
:100FC00019F088DF2196F9CFDF91CF9108950F9323
:100FD0001F93CF93DF93EC018C01085F1F4FFE013D
:100FE000849178DF21960C171D07C9F7DF91CF9107
:100FF0001F910F9108956CDC83E3A1DF82E39FDFF3
:101000006CDC80E29CDF80E29ADF8AE298DF88E095
:1010100096DF86E094DF82E092DFB3DF5FDC8CE076
:101020008EDF88E48CDF82E792E0D1DF80E587DF26
:101030008AE692E0CCDF88E582DF8AE792E0C7DFCC
:1010400080E67DDF82E692E0C2DF88E678DF8AE52F
:1010500092E0BDDF80E473DF82E592E0B8CF0895CF
:101060009091310280E1891B23CF0895CF93C82F3F
:10107000F7DF80919E028F5F80939E02823060F046
:1010800081E080939E02809334026C2F80919E02B7
:101090005BDF6ADFCF91089510923402F6CFE6DF6E
:1010A00074D180919E02833008F05ECF089561DF95
:1010B000D7DF5FCF08956ADFD3DF68CF08950F933E
:1010C00089E794E077DF40917E024D3F6CF46091B8
:1010D0006C0270916D0280916E0290916F0203E03C
:1010E00026E419D00F9108958FE3F4DEFBCF9091A1
:1010F0000E029F70923071F4D2DF82E892E05ADFE4
:10110000E0913202F091330222E044EF6FEF8481EC
:101110009581E5C00895AEE0B0E0E1E9F8E00C9417
:101120000638842E922EA02E6B017C01802F8F70AA
:10113000B82E80E389838A838B838C838D838E830F
:10114000F7FE40C0F0DAF094E094D094C094C11C53
:10115000D11CE11CF11C93E068EE462E63E0562E94
:10116000612C712CB91609F441C084E050E1452E80
:1011700057E2552E612C712CB816C1F195E040EA6A
:10118000442E46E8542E66246394712CB91671F1EE
:1011900086E030E4432E32E4532E3FE0632E712C80
:1011A000B81621F197E074E6472E512C612C712C72
:1011B000B9121CC020E8422E26E9522E28E9622EE0
:1011C000712C14C005FFC7CF8BE284DEC4CFC701EA
:1011D000B6016B5F7F4F8F4F9F4F2AE030E040E0BA
:1011E00050E00E941C3769017A018394C414D5042D
:1011F000E604F70460F7E1E1E80D0BEAE09FE12D7A
:1012000011241E2F169586E08819809F012D112428
:101210000695902F990F090F801B082F3E0187E03C
:10122000680E711C2AE0A301C701B6010E94433871
:10123000F30101900020E9F731977F01E618F708E4
:101240002E2D802F90E004968E159F0514F41F5FBD
:101250000D5FE12FF0E0EC5BFD4F14918A2D807162
:10126000A4FE05C08B2D8E192B1508F080E0AE2C46
:10127000A01AA80E1A1424F08EE22CDE802F8E19EC
:10128000011102C098EFA92E00E0C82ED12CEC0C61
:10129000FD1C0A2C000CBB08E02FF0E0EE15FF054A
:1012A00064F0112311F0812F15DE992011F0892DA2
:1012B00011DE2E96E0E10C9422383696EC19FD09E9
:1012C00081E090E08C0F9D1FE80FF91F808102DE06
:1012D0000F5F0A151B0401F78EE2FCDDDDCF0F93D3
:1012E000362FBC0190E080E0022F242F432F13DF24
:1012F0000F9108950F93062FBC0190E080E026E542
:101300004DEF09DF0F9108950F93042F28E440E07B
:1013100002DF8AE7DFDD05DA0F910895EF92FF9291
:101320000F931F93CF93DF93F82EE92EC5E6079B0B
:101330001BC0CF2DDE2D15E500E0D7FD0FC0CDDAA7
:10134000110F079B1F5F1F731F3391F4011103C01F
:10135000CF2DDE2D04E00F5F083C70F0802FCDB75D
:10136000DEB7E6E00C942C38B9DAC15001F7E1CFD2
:10137000111102C00111F2CFA8951C161D06ECF642
:101380002A97D9F6CFEFDFEFD8CFCF939ADDC82FCA
:10139000809134028823C1F0813049F4C13039F49E
:1013A0006FE0D2DD8BE296DD6FE081E0CDDD80E4A1
:1013B0009FE1B4DFC13039F480913402813019F4F7
:1013C00060E0C2DD4DDECADDCF91089540910D028F
:1013D000A0913202B0913302E2E8F2E030E020E086
:1013E000822F2417B0F451911C969C911C97591789
:1013F00019F05581951303C02F5F3F4FF1CF220F96
:10140000331FF901E257FD4F20813181293E3340DE
:1014100008F084E10895189510920F0210920D02C1
:10142000109262021092440210920E021092300248
:1014300010926902EDE4F2E0108211821282ECE671
:10144000F2E0108A82E0818B1092150217861686D0
:10145000148215821682178281EF838B08958FE4A0
:101460001BDA86E419DA86E417DA7EDD16982ADAC2
:1014700090E080E053CF08951F93CF93DF93162F12
:1014800010BA11BAE82FF0E0E45BFD4F949190930D
:101490000801262F281BE20FF11D27FDFA95E49184
:1014A000E92BE093070136DAEC01812F33DAAC0146
:1014B000209125023091260236952795C901039780
:1014C000BE01625E7F4F8617970778F4255E3F4F17
:1014D000C217D30750F4BA01625E7F4F8617970791
:1014E00020F481E04217530708F080E010920701D2
:1014F000DF91CF911F910895CF9361E080E0BCDF31
:10150000C82F62E080E0B8DFC80F62E081E0B4DF9E
:101510008C0FCF910895AFE0B0E0E1E9FAE00C94D0
:101520000438B82E10920F02807FB9F4E5DF8330C3
:1015300081F427DD83E395E03DDD28DD8FE3CADC20
:1015400080ED97E0EBDE8B30B0F41BDD87E093E0BD
:1015500031DD2F96E2E10C94203806E910E011DD30
:101560008CE994E027DDC8DF833009F065C01F5F98
:10157000143008F462C00ADD0E94472383EC92E035
:1015800019DD60E082E090E00E94A43860E083E032
:1015900090E00E94A43860E081E090E00E94A438CE
:1015A00060E082E0CEDA6C019A83898361E082E0B8
:1015B000C8DA7C019C838B8360E081E0C2DA8C0115
:1015C0009E838D8323E040E26EEFC60188DE23E038
:1015D00040E26EEFC70183DE23E044EF6EEFC80107
:1015E0007EDE2AE5C216D10424F084E190E09A83DD
:1015F0008983698182E090E00E94A4388AE5E81638
:10160000F10424F084E190E09C838B836B8183E080
:1016100090E00E94A4380A35110524F084E190E09E
:101620009E838D836D8181E090E00E94A43882E0EA
:1016300080933402AADE05C010E049D9015009F0B8
:101640008ECFEB2DEF70EF87E13009F06DC2EE2405
:10165000E394F12CE8EB8E2EE2ED9E2EE7E4AE2E25
:10166000B12C02E0F8E0DF2EA0E23A2EC12C1E2DB4
:1016700062E2262E20DD1BDD84E52CDCC70147D885
:1016800050D8113009F0E5C386EF92E093DC64E0B6
:101690008091290290912A022DDE78DC81EF92E080
:1016A00089DC80916A0290916B0231D88EEB809335
:1016B000210210BA11BA109207011092080188EEA7
:1016C00093E02CDE143011F08B3020F4C39484E0CE
:1016D000C812D0CF88EE93E021DEEFEFEE1AFE0ABB
:1016E000F8E0EF16F10409F0C1CF4BDC80E024DC18
:1016F0008CE4F0DB1AD811BA11E010BB109308018A
:101700001093070180E005D99A83898348E0942EDD
:1017100090927B0080E0FED89C838B8310927B00AC
:10172000A981BA81EB80FC8027014A1A5B0A052C4B
:10173000000C6608770820E93AE10E946937A301A6
:1017400092010E941C37CA01B90160939F027093F5
:10175000A0028093A1029093A20203E024EF4FEF36
:10176000DADC0E94910388E4B5DB0E949503C7018F
:1017700034D99C01A0E9BAE10E945A37A301920131
:101780000E941C37CA01B9016093A3027093A4029E
:101790008093A5029093A60224EF4FEFBCDCF6DB0A
:1017A00080E0CADB0E94910388E494DB0E949503E9
:1017B00011BB1092080180E0ACD89A838983909283
:1017C0007B0080E0A7D89C838B8310927B00C9802C
:1017D000DA80C60102D9AB80BC80CA18DB080D2CA8
:1017E000000CEE08FF089C01A0E9BAE10E945A37FC
:1017F000A70196010E941C37CA01B9016093A30298
:101800007093A4028093A5029093A60224EF4FEF59
:1018100082DC0E9491038CE45DDB0E94950320E949
:101820003AE1D5010E946937A70196010E941C3751
:10183000CA01B90160939F027093A0028093A10234
:101840009093A20224EF4FEF66DC3DD812E0109394
:1018500034029BDD96DB81E06FDB8CE43BDB0E9496
:10186000950311BA10BB54E0852E80920801809236
:10187000070181E04ED89A83898390927B0082E0B1
:1018800049D89C838B8310927B00A981BA81EB801D
:10189000FC8027014A1A5B0A052C000C66087708B1
:1018A00020E93AE10E946937A30192010E941C37A6
:1018B000CA01B90160939F027093A0028093A102B4
:1018C0009093A20224EF4FEF26DC0E94910388E45C
:1018D00001DB0E949503C70180D89C01A0E9BAE111
:1018E0000E945A37A30192010E941C37CA01B90114
:1018F0006093A3027093A4028093A5029093A60222
:1019000024EF4FEF08DC42DB81E016DB88E4E2DA0B
:101910000E94950311BB1092080181E00E94890486
:101920009A83898390927B0082E00E948A049C8340
:101930008B8310927B00C980DA80C6014ED8AB80C1
:10194000BC80CA18DB080D2C000CEE08FF089C01B7
:10195000A0E9BAE10E945A37A70196010E941C37FC
:10196000CA01B9016093A3027093A4028093A502F7
:101970009093A60224EF4FEFCEDB0E9491038CE4FC
:10198000A9DA0E94950320E93AE1D5010E9469375E
:10199000A70196010E941C37CA01B90160939F02FA
:1019A0007093A0028093A1029093A20224EF4FEFC4
:1019B000B2DB0E94630410933402E7DCE2DA82E0D7
:1019C000BBDA8CE487DA0E94950380BA80E18093C9
:1019D00008018093070182E00E9489049A83898329
:1019E00090927B0084E00E948A049C838B831092F7
:1019F0007B00A981BA81EB80FC8027014A1A5B0A2F
:101A0000052C000C6608770820E93AE10E94693746
:101A1000A30192010E941C37CA01B90160939F0281
:101A20007093A0028093A1029093A20224EF4FEF43
:101A300072DB0E94910388E44DDA0E949503C7018E
:101A40000E94ED049C01A0E9BAE10E945A37A3016B
:101A500092010E941C37CA01B9016093A3027093DE
:101A6000A4028093A5029093A60224EF4FEF53DBCC
:101A70008DDA82E061DA88E42DDA0E94950381BA7A
:101A80001092080182E00E9489049A8389839092CF
:101A90007B0084E00E948A049C838B8310927B00ED
:101AA000C980DA80C6010E94ED04AB80BC80CA18F0
:101AB000DB080D2C000CEE08FF089C01A0E9BAE140
:101AC0000E945A37A70196010E941C37CA01B9012A
:101AD0006093A3027093A4028093A5029093A60240
:101AE00024EF4FEF18DB0E9491038CE4F3D90E949E
:101AF000950320E93AE1D5010E946937A7019601D3
:101B00000E941C37CA01B90160939F027093A00222
:101B10008093A1029093A20224EF4FEFFCDA0E947F
:101B200063041093340231DC18E7E6DC81119DC2B6
:101B300028DA8CEB92E03EDA23E044EF6FEF8091FD
:101B4000270290912802CBDB21DA85EB92E032DA92
:101B500023E044EF6FEF80912E0290912F02BFDBC4
:101B600082E08093340211DC10920F020ADA81EBDA
:101B700092E020DA60E082E00E94982040907402B7
:101B80005090750260907602709077025C864B866A
:101B900061E082E00E94982080907402909075022B
:101BA000A0907602B09077029E868D8660E081E0FC
:101BB0000E94982000917402109175021E830D837B
:101BC00062E080E00E9498208091740290917502FA
:101BD0009C838B8362E081E00E9498208091740254
:101BE000909175029A87898761E080E00E94982031
:101BF000E0907402F0907502FA82E982C2010E94BC
:101C00009003C4010E949003B801110F880B990B37
:101C100003E026E444EF7FDA2F85213009F030C25B
:101C200082E0E80EF11CF886EF828E010F5F1F4FF5
:101C30006E01EFE0CE0ED11CF801819191910A97CF
:101C4000853B9105C8F4EC15FD05B9F731E2E32EAB
:101C500030E0F32EF80160810E5F1F4F6E5EC7010A
:101C60000E94A438FFEFEF1AFF0A0C151D0591F72B
:101C70008DD98FE894E09ED982E08093340285DB91
:101C80000E9487332F85213029F080912D028230E8
:101C900009F0CAC076D980E04FD984E594E08AD9AA
:101CA00082E04AD98CE392E085D990E4E92EF12CC8
:101CB0002AE0822E912CA12CB12CAEDB10920F02C7
:101CC00060E082E00E94982010917E0220916C02D8
:101CD00030916D0240916E0250916F02173F0CF4EB
:101CE000DCC110937E0220936C0230936D0240930E
:101CF0006E0250936F02173F09F0D7C12056310989
:101D000041095109203935454105510508F0CDC13A
:101D10006091800270918102CB018B569F4F8B3274
:101D2000914008F0C2C1F394F4E0FF1508F0BEC181
:101D300088E290E00E94B23824D985E392E03AD953
:101D400080918002909181020E947C030E94FB049A
:101D500011BA81E080BB80E28093070182E00E949B
:101D60008A04853D9340D4F7109207011092240213
:101D70001092230282E00E948A047C018091670213
:101D800090916802909324028093230282E00E9443
:101D90008A046C01CC0CDD1C1092240210922302E8
:101DA00082E00E948A044C01A0906702B090680211
:101DB000B0922402A0922302E9D88EE292E0FAD8EF
:101DC0008AE290E00E949738182FD701A80DB91D1C
:101DD000AC19BD0995010E94693796010D2C000CC4
:101DE000440B550B0E943E371D5F120F612F8AE294
:101DF00090E00E94A438812F012E000C990B0E94C4
:101E00007C030E94FB0482E080933402BEDA1092CD
:101E10002D028CE094D881E290E00E949738682FE0
:101E200084E290E00E94A43889E18093210280E05E
:101E30000E949636A6D887E093E0BCD8A7D88AE15E
:101E400095E0B8D810920F0282E0809334029DDAB8
:101E500080CB1230B9F52091250230912602A8E5F9
:101E6000BBE10E945A3724EC36E340E050E00E9488
:101E70003E37290181E080930801F5E0F0930701E6
:101E800080E00E948704841995099A83898381E1FF
:101E90008093070180E00E948704841995099C8340
:101EA0008B8384E08093080184E18093070181E0C3
:101EB0000E948704841995099E838D838BED92E09F
:101EC00079D83CC0133081F5009308012AE02093B3
:101ED000070180E00E9487042091250230912602AC
:101EE0003695279538872F83821B930B9A83898396
:101EF0002092070180E00E9487042F813885821B91
:101F0000930B9C838B83D092080188E28093070116
:101F100081E00E9487042F813885821B930B9E836A
:101F20008D838DEC92E0CCCF1430D1F483E295E038
:101F300041D8E2DA882311F0B2E0CB2E27D889818C
:101F40009A810E947C030E9491038B819C810E9454
:101F50007C030E9491038D819E810E947C03A9CB0A
:101F60001530D1F4109208010093070180E00E941F
:101F700087049A838983D092070181E00E948704B5
:101F80009C838B833092070182E00E9487049E83AA
:101F90008D838DEE92E094CF163081F5009307018A
:101FA0000093080180E00E9487042091250230916F
:101FB0002602821B930B9A838983D0920701D092C9
:101FC000080181E00E9487042091250230912602B9
:101FD000821B930B9C838B83309207013092080104
:101FE00082E00E9487042091250230912602821B04
:101FF000930B9E838D8389EE92E062CF173009F0B8
:102000009DCF2091250230912602A8E5BBE10E94D8
:102010005A37A50194010E941C3729010093080139
:10202000E3E0E093070180E00E94870484199509AA
:102030009A838983D0920801FCE0F093070181E044
:102040000E948704841995099C838B833092080130
:1020500020E32093070182E00E94870484199509F8
:102060009E838D8387EC92E02BCF25D883E295E089
:102070000E94DA070E946404115009F056CD58CD31
:1020800080912D02823009F4CBCDF886EF82109238
:102090002D028CE00E949F07C8CD1F5FCA01B901C5
:1020A000A50194010E941C3719CEF12C0E94C6078D
:1020B00060916C0270916D0280916E0290916F023E
:1020C00004E026E440917E0226D80E9430080E9457
:1020D0006704EA94E110F1CDA7CE80912D02811121
:1020E0000DC081E290E00E94973861E0680F84E2C1
:1020F00090E00E94A43881E080932D020895EF9231
:10210000FF920F931F93CF93DF93D62FE82FF0E02A
:10211000E15BFD4FE491E1BBE0BB10920801E62FCB
:10212000F0E0E45BFD4FE491E0930701CE2FCC0F8C
:1021300088E8E82E83E1F82E8D2F0E9487048C0119
:10214000C09307018E159F0508F1892BD1F082E31A
:1021500094E00E94DA07D80120EA36E841E050E036
:102160000E946F3728E937EB40E050E00E941C37AF
:10217000C90122E041E467EFB2D810BA11BA109257
:102180000701CDB7DEB7E6E00C942C387801D4CF48
:1021900080E481B982B987E880937A001092C10007
:1021A0000E9464045B9A539AC4B7C87084B7877F4F
:1021B00084BF0FB6F894A8958091600088618093E1
:1021C0006000109260000FBE78940E94FB07C1115E
:1021D00036C580E185BF0E940132079908C00E9480
:1021E0006D04CF5FCC33C9F780E69DE604C08FE570
:1021F0009DE6CF31C8F790930802809307021092B2
:1022000022020E94472388E19FE00FB6F894A89528
:10221000809360000FBE90936000CC3309F45FC0E0
:1022200020E1722E30E1632E45E3842E42E0942EAD
:1022300053E5A52E52E0B52E61E2362E72E1572EFF
:10224000E0E24E2E0E94C10710BAE6D80E94472352
:102250000E94B90787E093E00E94DA07809130027C
:10226000882371F00E94C60789E494E00E94DA078F
:1022700063E080912502909126023CD80E9463047D
:102280000E94C6070E94BE1F80910F02893061F52F
:102290000E94C1078EE494E00E94DA070E94C607FC
:1022A00063E0809147029091480224D80E949103F4
:1022B00063E08091490290914A021CD80E949103E8
:1022C00063E080914B0290914C0214D80E9462040A
:1022D00081E121D98091070290910802A1C10E9459
:1022E0005D2C8111FCCF9CCF8CE00E949F0784E283
:1022F00090E00E949738C82F81E290E00E949738C2
:10230000C81BC0932D02CC2319F08EE00E949F07BA
:1023100080E001D90E945B088CE895E00E94DA0712
:1023200083E00E944C040E94B40742E061E080E038
:10233000B6D442E060E081E0B2D441E062E080E007
:10234000AED441E060E082E0AAD440E062E081E007
:10235000A6D440E061E082E0A2D480910F02811116
:102360000EC00E94BE1F60E082E00E94982061E0E3
:1023700082E00E94982060E081E00E9498200E9404
:10238000C107909233028092320280910F02863010
:10239000C9F48FE695E00E94DA0741E467E483E43C
:1023A0000E9497030E94C60782E694E00E94DA0723
:1023B00062E08091390290913A020E947A090E946B
:1023C000B40788CF873041F488E795E00E94DA07A8
:1023D00042E367E481E3E4CF8830D9F480917C0262
:1023E00090917D02890F9927991F029771F40E949D
:1023F000BA258CE00E949F0780912D02882309F462
:1024000008C4D2E010E000E0F1C380E00E94DD24C7
:1024100061CF833009F011C180910D02813009F044
:1024200077C080E00E94220460918202809188023D
:1024300066DE80E70E94FB0340E0609182028091AB
:1024400088020E94D13260936C0270936D02809377
:102450006E0290936F0280E00E944F0860916C02C0
:1024600070916D0280916E0290916F0202E026E4FD
:1024700042EF0E948B080E94930341E06091820228
:10248000809188020E94D13260936C0270936D0239
:1024900080936E0290936F0226E442EF0E948B08B5
:1024A0008FE293E00E94DA070E94B4070E94B4070B
:1024B00080916902882309F40DCF70BA80910702D8
:1024C000909108020E948E0910BA0E94C107809163
:1024D0000D02805D0E946A078FE193E00E94DA0797
:1024E00020916902222309F447C3809150022130D0
:1024F00009F0DDC20E94BE0320915002213009F094
:10250000D1C220910D022111CDC20E947C2571CF34
:10251000823079F582E30E946A078FE193E00E949E
:10252000DA079091820230918302931308C080E011
:102530000E943D0481E00E94340481E07BCF209121
:10254000880280918902281307C080E00E942E042F
:1025500081E00E944304F1CF321306C081E08093F2
:1025600002020E941104A2CF98133CC060920202A2
:10257000F8CF8330B9F523E32093020280918802DB
:1025800090918302891303C021E0209302024091BD
:10259000820230918902431302C0609202022091AC
:1025A0008402821303C082E08093020280918A0237
:1025B000481302C04092020232130EC0509202022F
:1025C000981302C03092020283E30E946A078FE1EF
:1025D00093E00E94DA07C5CF9817A1F38091020219
:1025E000823290F38EE795E00E94DA0786E695E066
:1025F0000E94DA070E94C60780910D02805D0E944A
:102600006A078AE20E946A0789E393E00E94DA0778
:102610008CE495E00E94DA070E94B40780E49FE111
:1026200070BA079BFECF0E948E09823308F4B1C2B4
:102630000E945D2C8111FCCF05CE843009F04AC187
:1026400080916202882309F467C080914402882344
:1026500009F462C060914102809143020E94982077
:10266000C0906C02D0906D02E0906E02F0906F020C
:10267000C0917E026091610280915F020E94982069
:102680008091350290913602A0913702B0913802C4
:10269000409153025091540260915502709156023C
:1026A000843FE1E09E07A105B10538F4443FF1E025
:1026B0005F076105710508F0C0EF443F51406105B7
:1026C000710540F4843F9140A105B10518F080EFF9
:1026D00080937E0280917E028C1311C080916C02E7
:1026E00090916D02A0916E02B0916F02C816D9064A
:1026F000EA06FB0630F08CE080930E0205C0C81796
:10270000D4F79DE090930E0280916202882321F01D
:1027100080914402811123C080910E028C3041F5DA
:1027200085E794E00E94DA0780916202882319F01D
:1027300080E70E946A070E9491030E94E609C82F61
:10274000853070F580910E028C3001F59091420237
:1027500080914302891700F185E393E01FC0079938
:10276000DBCF80910E0291E0892780930E02D4CFB7
:10277000B0923302A092320281E794E00E94DA071D
:10278000809144028823B9F28EE6D3CF9091600203
:1027900080916102981700F789E393E00E94DA07BD
:1027A00043E462E485E40E9497030E94C6078CE735
:1027B00094E00E94DA07E0913202F09133026081E6
:1027C00071818281938103E020E04EEF0E948B08AB
:1027D0000E94910389E40E946A07E0913202F0911D
:1027E0003302868197818031974208F46FC085E675
:1027F0000E946A07E0913202F0913302868197814C
:1028000080519742978386830E949503E09132021C
:10281000F091330222E041E46AEF868197810E94C1
:102820006F0980E00E944F0886E694E00E94DA0774
:10283000E0913202F091330263E0848195810E943D
:102840007A09E0913202F091330280859185892BDB
:1028500091F080E00E944F0881E093E00E94DA0747
:10286000E0913202F091330223E041E46AEF808587
:1028700091850E946F09E0913202F09133028285C6
:102880009385892B91F080E00E944F088BEF92E0B6
:102890000E94DA07E0913202F091330223E041E432
:1028A0006AEF828593850E946F09C53008F012CDCA
:1028B00080E00E944F088C2F0E94220482E694E060
:1028C0000E94DA078C2F0E94ED0379CD83E60E94E7
:1028D0006A079ACF853009F003CE80910E0284FFFB
:1028E0003DC080E50E946A07B0923302A092320296
:1028F0000E94930380910E02C82FCF70C43091F5CF
:1029000085E894E00E94DA074FE367E48FE30E94D2
:10291000970380910E0285FD3EC00E94C607E0919C
:102920003202F0913302668584850E9498200E94CD
:102930005F088DE594E00E94DA07E0913202F091A1
:10294000330262E0828593850E947A0980E00E94CA
:102950007708C43009F4BECCC0E09FC08EE40E946A
:102960006A07C6CF85FF0DC084E40E946A07C330A2
:1029700051F48FE794E00E94DA0743E467E485E4CA
:10298000C6CF85E4F2CF8AE894E00E94DA0744E4F7
:1029900067E483E5BCCF8F70843009F452C080E0D7
:1029A0000E943608E0913202F091330266858485F8
:1029B0000E9498200E945F0880E00E944F0889E4EE
:1029C0000E946A070E949503E0913202F09133025F
:1029D00022E041E46AEF868197810E946F0988E5D1
:1029E00094E00E94DA07E0913202F091330262E053
:1029F000828593850E947A09E0913202F091330238
:102A000080859185803C924108F0A0CF80E00E94B3
:102A10004F0889E40E946A070E94950322E041E47E
:102A20006BEF90E080E00E946F0988E594E00E94DF
:102A3000DA07E0913202F091330262E080859185FD
:102A400083CFE0913202F091330284819581892B0A
:102A500009F4B2CF80E00E94360888E192E00E943B
:102A6000DA07E0913202F091330222E041E46AEFAA
:102A7000848195810E946F099FCF80E00E944F085A
:102A80008C2F0E94220482E694E00E94DA078C2FA9
:102A90000E94ED030E94B407CF5F80910D02C8171A
:102AA00060F318CC40E0692F0E941C2413CC909155
:102AB000510234E0939FD0011124A156BD4F34E060
:102AC000839FF0011124E156FD4FED90FD900D9193
:102AD0001C914081518162817381C92F4E155F0520
:102AE0006007710708F0C82F223041F5980FC3E046
:102AF000C91BDC2FD69502E00C1B11E0C11112E0BE
:102B00008D2F0E949C078AE193E00E94DA07802FB4
:102B10000E949C078AE193E00E94DA07812F0E94BD
:102B20009C0780E00E94360881E0C11180E00E948D
:102B3000C80382E08D1B0E94C803CCCB8091520257
:102B400094E0899FD0011124A156BD4F24E0C29F7B
:102B5000F0011124E156FD4F0D911D912D913C91F5
:102B60004081518162817381401751076207730769
:102B700008F0BFCFC82FBDCF86E595E00E94DA07E9
:102B80000E94C60783E895E00E94DA078EE795E089
:102B900041CD811157CB2DCCC491C03211F0CE3F25
:102BA00009F4C82E8F5F31968131B1F7DD2339F1F9
:102BB0003D2F3170232ED0FF0E94C10760E0822D8F
:102BC0000E94A4070E94B407A895DF5FD170212C52
:102BD0002C1022C0CC23C9F0020D111DF801E35CBA
:102BE000FC4FE491E03211F40F5F1F4F9801235C1A
:102BF0003C4F7901F90180E090E1C92ECDCF80E111
:102C000097E20E948E09882399F280E197E20E9460
:102C10008E090E942F0A16CBF701C491CC23A9F389
:102C2000CF3F39F40E9491032394FFEFEF1AFF0A7C
:102C3000CFCFCE3FC9F38C2F0E946A07F5CF0E94F9
:102C4000B90783E495E00E94DA070E9461040E94BC
:102C50002F0A90E080E00895FC019C01261B370BB1
:102C6000CA0170E060E0A901460F511D452F5527AC
:102C7000620F240F351FAC01470F511D452F5527FB
:102C8000780FDA01AA0FBB1F8A0F9B1F4B3E20F45F
:102C9000E217F30740F7089590E080E00895A7E178
:102CA000B0E0E5E5F6E10C9404388E8B162F042F86
:102CB000A895E62FF0E0E45BFD4F24912D87220FCD
:102CC0002D8B339634913A83E42FF0E0E45BFD4F93
:102CD00044914B833396F490E82FF0E0E45BFD4F92
:102CE00084918983880F8E87339694919F8B40932C
:102CF00008016D84642A6092070190BB91BB862F06
:102D00000E9489049C878B87ED85E0930701812FC2
:102D10000E9489041C01109207010E946D04109208
:102D2000080160920701812F0E9489046B857C85D0
:102D30000E94E7044C01FA81F0BB11BA2B81398162
:102D4000232B2C8320930801209307018E890E9456
:102D500089040E94ED045C01109208010E946D0438
:102D60004981409308018E890E9489040E94ED04E4
:102D70006C018981809307018E890E9489040E94D9
:102D8000ED04782EE92EB601C5010E94E7048032D9
:102D9000E1E09E0730F4F0E28F16F1E09F0608F4C0
:102DA000D2C58C0C9D1C2B853C85820F931F8816E9
:102DB000990620F4DC86CB86272C3E2C20914402F9
:102DC00080916202820F9927991F02974CF021305F
:102DD00009F0B9C59091410280915F029813B3C583
:102DE000EB80EE0C7D847E2839813E293A878B85E5
:102DF0009C858437910508F4A9C10A96880F991F0C
:102E00002816390608F0A2C19F8990BB91BB709229
:102E10000701812F0E9488046C01802F0E948A0480
:102E20005C01E0920801812F0E9488049601295AD2
:102E30003D4F11BA2817390708F0B8C0EA81E0BB46
:102E4000FA85F0930701F0930801802F0E9488040F
:102E500088349F4008F46FC085E080930F0282E2BF
:102E600080930E02D0923A02C0923902B501C60197
:102E70000E94F2049093400280933F029601A0E1E9
:102E8000B7E20E945A372091090230910A0250E0BD
:102E900040E00E941C3730933C0220933B028D8916
:102EA0008E2980930701109208013F8930BB31BB06
:102EB000802F0E948A046C01812F0E948804B60131
:102EC0000E94F2049C0190933E0280933D029091F7
:102ED0000E029F709430A1F111BA4A81F42AF0BA1F
:102EE0008981809307019C81909308018E890E94BB
:102EF00089046C010E94ED047C01812F0E948A04E8
:102F0000A0901002B0901102BC01C6010E94F20410
:102F10009501DC010E945A37970150E040E00E9481
:102F20001C3730933A0220933902809144028F5F1C
:102F3000809344028EC385E080930F0284E290CF99
:102F400040913B0250913C0260913F0270914002DF
:102F5000C90182DE0097F9F0E0920701EF89FA815A
:102F6000EF2BE0BB812F0E9488046C0110BA9C01FA
:102F7000A0E1B7E20E945A3720912E0230912F0231
:102F800050E040E00E941C37A901B60180913D024B
:102F900090913E0261DE90933A02809339028091D3
:102FA0000E028F70843009F4C0CF96CF2A8120BBE7
:102FB0003A8530930701309308018E890E94880476
:102FC0006C01802F0E948A045C01498140930801B2
:102FD0008E890E948804895A9D4F8C159D0508F0A2
:102FE000B2C48F8981BB80BB802F0E948804813D41
:102FF000934008F06BC085E080930F0282E38093DA
:103000000E02B601C5010E94F20490935E02809305
:103010005D02C6010E94ED049C01A0E1B7E20E949E
:103020005A37209110023091110250E040E00E9486
:103030001C3730935A022093590211BAFA81F0BB1F
:103040008E858E2980930701809308018E890E94C6
:103050008A046C01802F0E948804B6010E94F20449
:103060009C0190935C0280935B0290910E029F7092
:10307000943089F12F892F2921BB20BB10920801A0
:103080003C81309307018E890E9489045C01812F65
:103090000E948A047C01C0900902D0900A02BC01FF
:1030A000C5010E94F2049601DC010E945A37970183
:1030B00050E040E00E941C373093580220935702A2
:1030C000809162028F5F8093620251C185E080939C
:1030D0000F0284E394CF4091590250915A026091BB
:1030E0005D0270915E02C901B7DD009721F1E092A7
:1030F0000801E09207014F8941BBEA81E42BE0BB64
:103100008E890E9488040E94ED046C0110BA9C0113
:10311000A0E1B7E20E945A3720912702309128029D
:1031200050E040E00E941C37A901B60180915B028B
:1031300090915C0291DD90935802809357028091A8
:103140000E028F70843009F4BBCF94CF11BA8A81FC
:1031500080BB998190930801EA85E09307018E89ED
:103160000E948904988B8F870E94ED049F838E8331
:10317000802F0E948A04998788872101F4E64F0EE8
:10318000511C2E813F81B1014216530608F0F1C057
:10319000C9010E94F2046C012091100230911102C9
:1031A00050E040E060E871EA83E09CE10E941C3757
:1031B000D6010E946F37E885F9859F0150E040E015
:1031C0000E941C3749015A01109207011092080110
:1031D000FF89F1BBF0BB0E946E0460920701812F52
:1031E0000E9489048F359D4008F46CC170920701DC
:1031F000812F0E9488046C01802F0E948A049A8B80
:10320000898B8E890E948A049C8B8B8B89899A89F1
:10321000813D974008F4E1C084E080930F028DE087
:1032200080930E0276012C143D0410F4E218F3088A
:103230004090090250900A02712C612C60E871EAFA
:1032400083E09CE1A30192010E941C37D7010E94F8
:103250006F37E989FA899F0150E040E00E941C37EE
:1032600080916202882371F0809153029091540200
:10327000A0915502B091560282179307A407B50793
:1032800008F097C0209353023093540240935502A4
:10329000509356029601A0E1B7E20E945A37A3016B
:1032A00092010E941C3730935A0220935902698977
:1032B0007A898B899C890E94F204909358028093AA
:1032C000570281E04091530250915402609155029F
:1032D00070915602481559056A057B0508F06BC0C8
:1032E0008092530290925402A0925502B0925602DC
:1032F000688579858F8598890E94F2049093580299
:10330000809357022E813F81A0E1B7E20E945A3795
:10331000209110023091110250E040E00E941C37D1
:10332000205F384D30935A0220935902C090090211
:10333000D0900A02F12CE12C9101A0E1B7E20E94A9
:103340005A37A70196010E941C3730935C022093E4
:103350005B022B853C85A0E1B7E20E945A37A701AA
:1033600096010E941C3730935E0220935D0281E03B
:1033700024C08E819F810E94F2046C01FC81F09335
:1033800007018E890E948904988B8F870E94ED0423
:103390009F838E83802F0E948A0499878887BC012F
:1033A000C6010E94F2049C01A4E6B0E00E945A37D4
:1033B00002CF80E087CF8111B9CF909162029F5FE9
:1033C00090936202882309F484C300935F021093F0
:1033D00060024E89409361027CC3F1E62F163104EE
:1033E00008F070C021EDC21627E0D20608F46AC0CA
:1033F00085E080930F0282E180930E02C601865021
:103400009F4FEB89FC898E179F0708F044C083E12A
:1034100080930E02FA81F770BF2E802F8064809314
:103420007C002BE02983CC24C394D12CEE24EA9495
:10343000A3E0FA2EA89561E08B8181D570920701F7
:103440008FB18B21E9F33D853093070180917A009C
:10345000806480937A0080917A0086FDFCCF809111
:10346000780090917900F701E81BF90BCE0EDF1E72
:10347000F981F150F983F111DDCFC601880F991F51
:10348000880F991F69E070E00E94F53670935E0224
:1034900060935D0215CEE0900902F0900A02B60139
:1034A0008B899C890E94F2049701DC010E945A37A3
:1034B000960150E040E00E941C3730935802209360
:1034C0005702A8CF70920701E0920801812F0E9455
:1034D00089045C01802F0E948A049F838E830E944E
:1034E000ED047C014A145B0408F0B5C0B101C501CC
:1034F0000E94F2046C012091090230910A0250E00E
:1035000040E060E871EA83E09CE10E941C37D6014C
:103510000E946F37970150E040E00E941C3729015C
:103520003A013A8130BB11BA4C8140930701409374
:1035300008018E890E9489046C01802F0E948A04F0
:103540004C01812F0E948A047C0180E3C81681E12E
:10355000D80608F0F6C19981909308018E890E94DF
:10356000890499878887E981E09307018E890E9401
:103570008904988B8F87109208010E946E04F9814C
:10358000F09308018E890E9489042F8538892034A0
:10359000364008F080C08133914108F47CC0C601F8
:1035A0008A569F4F288539852817390708F073C038
:1035B00086E080930F02809144028F5F80934402E3
:1035C000B701C4010E94F20490933A028093390239
:1035D000B701C6010E94F2049093400280933F021B
:1035E00010920701109208013A8131BB0E946E04CB
:1035F0004981409307018E890E948904853F910586
:1036000040F58C8180930701802F0E948904813DC1
:103610009340F8F08E890E948A048D3D9240C8F054
:103620002981209307018E890E9489048D3D924053
:1036300080F04981409308010E946E0410920801B5
:103640008E890E948904853F910518F487E0809354
:103650000F0281E0F8C0609207012B8120930801DE
:10366000812F0E9489045C01802F0E948A049F831D
:103670008E830E94ED047C01C5012A143B0410F4E2
:1036800082199309B7010E94F2049C01A4E6B0E0FC
:103690000E945A373FCF8A8180BB9B81909307015C
:1036A000909308010E946E04EA85E0930701E0937D
:1036B00008018E890E9489046C010E94ED047C013E
:1036C000802F0E948A049D838C830E94ED04998739
:1036D0008887812F0E948A044C01288539852E3FD6
:1036E000394008F4C0C084E080930F028CE08093DE
:1036F0000E02B101C7010E94F2046C012091100278
:103700003091110250E040E060E871EA83E09CE112
:103710000E941C37D6010E946F37E885F9859F010A
:1037200050E040E00E941C3780914402882371F0F1
:103730008091350290913602A0913702B091380203
:1037400082179307A407B50708F079C020933502C4
:10375000309336024093370250933802B4018C8183
:103760009D810E94F20490933A028093390297015E
:10377000A0E1B7E20E945A37209110023091110265
:1037800050E040E00E941C3730933C0220933B0203
:1037900081E040913502509136026091370270917C
:1037A0003802441555056605770508F04AC0409271
:1037B0003502509236026092370270923802B5019B
:1037C0008E819F810E94F20490933A028093390285
:1037D0009501A0E1B7E20E945A3720910902309189
:1037E0000A0250E040E00E941C37205F384D3093C1
:1037F0003C0220933B029101A0E1B7E20E945A37BC
:103800002091090230910A0250E040E00E941C37EA
:1038100030933E0220933D022B853C85A0E1B7E228
:103820000E945A37209110023091110250E040E07E
:103830000E941C373093400220933F020ACF80E061
:10384000A8CF8111D8CF909144029F5F90934402FA
:10385000882309F43EC1009341028E89809342027D
:103860001093430236C1F1E62F16310408F069C007
:1038700029E4E2162DE0F20608F463C085E08093A7
:103880000F0282E080930E02C40186509F4F8C1578
:103890009D0508F040C083E080930E023F89377099
:1038A000D32E802F806480937C004BE04A83EE24EB
:1038B000E394F12CA89560E08B8141D38A858093B5
:1038C0000701809308018FB18D21E9F799819093C9
:1038D000070180917A00806480937A0080917A0059
:1038E00086FDFCCF8091780090917900E80EF91E5A
:1038F000EA81E150EA83E111DDCFC701880F991F0A
:10390000880F991F69E070E00E94F53670934002BD
:1039100060933F020ACBA0901002B0901102B40154
:10392000C6010E94F2049501DC010E945A379701FA
:1039300050E040E00E941C3730933A022093390255
:10394000ADCF10BA11BA109207011092080110BA47
:10395000F7EC2F16F1E03F0608F4E5C011BA2E850A
:103960002093070108ECEA803F89E32AE0BA0E942D
:103970006E044A8140BB8E890E948A04429710F0EF
:103980000150A1F78E85809307018093080161E0C3
:103990008B81D5D28E890E9489044C019D89909398
:1039A000070110920801EF89E0BBE1BB60E08B8169
:1039B000C6D2812F0E9489040E94ED046C01FD850E
:1039C000F0930701812F0E948A047C018E890E9456
:1039D0008904B7010E94F2045C01812F0E948A04CD
:1039E0007C018E890E948904B7010E94F20495012E
:1039F0002C5E3F4F2817390708F46BC011BA2A8193
:103A000020BB3981309307013093080161E08B813D
:103A100096D2812F0E948A047C018E890E9489049B
:103A2000B7010E94F2047C01A816B90608F05EC036
:103A30004E8540930701409308018E890E948904B6
:103A4000FC01640128E4C21626E0D20608F061C039
:103A5000960153E0369527955A95E1F748EEE4161E
:103A600043E0F40608F058C0C70164E670E00E9425
:103A7000F536C701875991098938914108F053C03B
:103A8000EE15FF0508F04FC02C0D3D1D2E153F050E
:103A900008F049C06C157D0508F045C080910F0203
:103AA000833018F483E080930F0220910D02822F5F
:103AB00090E0FC01EE57FD4F3E8930831683880F5E
:103AC000991FFC01E257FD4FF182E0822F5F2093A6
:103AD0000D0210BA11BA10920701109208018EE27D
:103AE0000E946A076796E2E10C9420388D898093E2
:103AF0000701109208019F8990BB91BB60E08B8108
:103B00001ED2812F0E9489040E94ED04FC017501E0
:103B100099CF28EC30E0A2CFB70144E076956795C5
:103B20004A95E1F7A6CF612F8E8901D0D2CFB0E0C0
:103B3000A0E0EDE9FDE10C940638C82FD62FA8953A
:103B4000862F90E0FC01E45BFD4F54903396249166
:103B50004C2F50E0FA01E45BFD4F14913396049131
:103B60006091620230914402630F7727771F672BC1
:103B700009F067C0A8956091130270911402660F56
:103B8000771F660F771F709326026093250260915E
:103B9000670270916802660F771F660F771F709338
:103BA0002402609323023EEB3093210230910D02F8
:103BB000E2E8F2E0DF01480F591F9A2F9E1B93178E
:103BC00018F111BA20BB1093070110930801B8E156
:103BD000BB2ED12CC12C8D2F0E948904782E692EEA
:103BE0008C2F0E948A047C018C199D0997FF03C0C9
:103BF00091958195910903970CF46CC1A895BA949D
:103C00006701B110E8CF0AC08D9115966C91159798
:103C1000680F7727771F6417750779F6809113026D
:103C2000909114029093260280932502809167025E
:103C300090916802909324028093230289E18093FB
:103C40002102CDB7DEB7E0E10C94223825E8C21698
:103C500021E0D20618F7043AA2E01A0708F0B1C032
:103C6000B8E9AB16B104D0F2C6010E94ED04AC0174
:103C70009601A8E9B7EB0E945A379A0150E040E05C
:103C80000E941C3729013A01C5010E94ED049C01E4
:103C9000A8E9B7EB0E945A37950150E040E00E9436
:103CA0001C3788E7C8168FE0D80608F06EC0F2E02F
:103CB000440C551C661C771CFA95D1F7C301B20160
:103CC000620F731F841F951F25E030E040E050E035
:103CD0000E941C37A4E6B0E00E946F376B017C01A4
:103CE000BCEACB0EBDE0DB1EE11CF11C10910F0203
:103CF000143008F093CFC150DC0F8D2F90E0FC0101
:103D0000E35BFD4F2081880F991F880F991F815613
:103D10009D4FDC01222309F4C1C08D909D90AD9090
:103D2000BC90A7019601281939094A095B0957FF78
:103D300007C050954095309521953F4F4F4F5F4FAD
:103D4000AAE0B0E00E946F37B4E68B0E911CA11C74
:103D5000B11CC80CD91CEA1CFB1C6C157D058E051A
:103D60009F0508F05BCF133019F081E080930F02BC
:103D700082E0808380916902E82FF0E0E05BFD4FF4
:103D8000D0838F5F8093690249CFA8E7AA16AFE07E
:103D9000BA0670F4E2E0220F331F441F551FEA9564
:103DA000D1F7CA01B901640D751D861D971D8CCF11
:103DB000240D351D461D571D56954795379527955A
:103DC00089CFC0901002D0901102672D762DE61693
:103DD000F70608F4B701C7010E94F2049601DC015E
:103DE0000E945A372B013C01C7010E94ED049C013F
:103DF00050E040E0C301B2010E941C3729013A01A2
:103E0000A0900902B0900A02892D982D8017910781
:103E100008F4C801B8010E94F2049501DC010E9477
:103E20005A37980150E040E00E941C3788E7E816B6
:103E30008FE0F806B0F462E0440C551C661C771C59
:103E40006A95D1F7C301B201620F731F841F951FDA
:103E500025E030E040E050E00E941C3769017A0123
:103E600045CF0837AFE01A0770F4CA01B90152E034
:103E7000660F771F881F991F5A95D1F7640D751D1E
:103E8000861D971DE5CF73016201C20ED31EE41E8D
:103E9000F51EF694E794D794C79428CFCD92DD927F
:103EA000ED92FC92139781E08083B8CE550C50922E
:103EB00007018D2F0E9489045C01B0ECEB16B4E47D
:103EC000FB0608F4C3CE80EBC8168DE4D80608F0D4
:103ED000A5CEC1CE110F10920801109307018C2FAF
:103EE0000E9489048135910508F098CE109308014D
:103EF0008C2F0E9489046C0100BB01BB1092080149
:103F000050920701A8E14A2EB12CA12C8C2F0E94BF
:103F10008904982E892E8D2F0E948A048C018A197B
:103F20009B0997FF03C091958195910903970CF424
:103F3000BDCFA8954A9458014110E8CF6FCECF93DA
:103F4000C82FC0959091080160FF16C0982B9093E0
:103F5000080190910701982B909307010E946D042E
:103F6000809107018C2380930701809108018C23A5
:103F700080930801CF9108959C23E9CFAF92BF921F
:103F8000DF92EF92FF920F931F93CF93DF931AE08C
:103F90008FE3D82E09E010BA11BA10920801D0921E
:103FA000070180E00E9489047C0181E00E948A046C
:103FB000EC0182E00E948A049C0180910F0289300A
:103FC000C9F410BA10920701F0924802E092470239
:103FD000D0934A02C093490230934C0220934B0283
:103FE000DF91CF911F910F91FF90EF90DF90BF90E5
:103FF000AF90089584E0E816F10450F4C430D10580
:1040000008F04EC024303105E0F291E092600AC021
:1040100091E088EEE81683E0F80608F090E0C83EEC
:10402000D340A0F3283E334008F4946090BBD0E026
:10403000C0E0A89580E00E9487045C0181E00E94B6
:104040008A047C0182E00E948A0424E1A21625E011
:10405000B20608F4809A24E1E21625E0F20608F49C
:10406000819A843125E0920708F4829A26E0A2160C
:10407000B10430F426E0E216F10410F4069738F0AB
:104080002196C43F81E0D807A1F600930F02F12CDE
:10409000E12CEC16FD0631F4115009F07CCFA0CFD5
:1040A00091E0BDCF0E9473042FEFE21AF20AF1CF24
:1040B000CF92DF92EF92FF92CF9320916C023091DA
:1040C0006D0240916E0250916F02C0917E028AE0B3
:1040D000C82ED12CE12CF12C8C2FCF5F213A96E801
:1040E000390791E049075105E0F480937E02A091E1
:1040F0002502B09126020E946F3728E833E140E0A4
:1041000050E00E941C3720936C0230936D02409364
:104110006E0250936F02CF91FF90EF90DF90CF909F
:104120000895CA01B901A70196010E941C37D4CF96
:10413000B0E0A0E0EEE9F0E20C940638182FB62EBD
:10414000880F810F9FEF960F890F80934602E12F12
:10415000F0E0E45BFD4F0491862F90E0FC01E45B0E
:10416000FD4FC491FC01E15BFD4FA49080910F02D3
:1041700090910D0222E832E0D9018130C1F4CDB72F
:10418000DEB7E0E10C94223816968C9116978B11CD
:104190000DC08C9181130AC0FD01EE0FFF1FE25884
:1041A000F240448555854C3D554048F311968A2F81
:1041B000821B891748F3109279021092780281EFDE
:1041C00080937E0210926C0210926D0210926E0229
:1041D00010926F02D3DE11BAA0BAC0930701C09348
:1041E0000801812F0E948A047C018B2D0E948A0481
:1041F00010920701D0E0C0E06C01CE18DF080093F8
:104200000801009307010E946D04109207011092AB
:1042100008010E947404A895812F0E948A047C01E1
:104220004601880E991ECE37D10520F02BE4821668
:1042300091045CF08DE2881681E098060CF063C171
:104240002196C43F21E0D207D1F610BA11BA1092DC
:1042500007011092080193CF85E1881685E0980642
:104260000CF454C18BDE1092080187E080BB11BAB8
:10427000F02EFF0CF092070180E480937B0084E530
:1042800080BF812F806480937C0087E180937A00D7
:104290000E94770410928000109285001092840092
:1042A00087E286BBF092080180910F02853009F009
:1042B00009C181E08093810081E090E0012E01C07E
:1042C000880F0A94EAF78095877080BBF12CE12C67
:1042D00091E086B385FD0CC080FFFBCF96BBA8950F
:1042E0002FEFE21AF20A20E8E2162CE0F20689F734
:1042F0001092810090E296BBC0908600D09087001B
:104300002091840030918500C216D30638F480FFD6
:1043100005C081E086BB8FEFE81AF80A87E9809331
:104320007A001092070110920801812F0E948A04DE
:104330002091290230912A02821B930B0C969093B4
:1043400081028093800220E4E21626E0F20608F063
:104350007CCFF0927702E0927602D0927502C09202
:10436000740284EF80937E0282E4E816F104C8F0C0
:10437000609174027091750280917602909177023B
:1043800024E630E040E050E00E941C3720937402A5
:1043900030937502409376025093770286EF8093B4
:1043A0007E02A0916A02B0916B022091740230915A
:1043B000750240917602509177020E946F3720E497
:1043C00036E040E050E00E941C37209374023093A6
:1043D0007502409376025093770220936C023093DB
:1043E0006D0240936E0250936F0262DE80917E02F6
:1043F000843F09F054C0C0906C02D0906D02E090F0
:104400006E02F0906F0220EAC2162FE0D206E1049D
:10441000F104C0F4A70196012C543F4F4F4F5F4F5A
:1044200060EA7FE080E090E00E941C37C20ED31E5D
:10443000E41EF51EC0926C02D0926D02E0926E02F4
:10444000F0926F02C0906C02D0906D02E0906E020C
:10445000F0906F02C114D10481E0E806F104B8F5D0
:10446000D092B002C092AF028091460290E08F5D80
:104470009F4F0E94973890E0B0E0A0E08C159D051A
:10448000AE05BF0558F5C81AD90AEA0AFB0AC09258
:104490006C02D0926D02E0926E02F0926F02009375
:1044A000070180916C0290916D02A0916E02B09113
:1044B0006F024997A105B10508F0A4C0C6CED12C62
:1044C00000E04AC081E080938100A0BAFFCE81E085
:1044D00090E09093B0028093AF02C6CF24E1C20E69
:1044E000D11CE11CF11CC816D906EA06FB0610F423
:1044F0000E946D1010926C0210926D0210926E026A
:1045000010926F02CCCF209709F4A6CED12CC12CEB
:104510000E946E04812F0E948A04A8952FEFC21A70
:10452000D20ACC15DD05A0F7E81AF90A1E141F04FB
:1045300034F689ECE816F1040CF087CE28EE33E06F
:10454000D7010E9469379401092C000C440B550BCC
:104550000E941C37D22E032F2196CE01B0E0A0E09E
:104560008093740290937502A0937602B0937702C1
:10457000C4018E0D9F1D0E944E0520917402309142
:1045800075024091760250917702DC010E946F37EC
:104590006093740270937502809376029093770211
:1045A00060936C0270936D0280936E0290936F0221
:1045B00087EF80937E027CDD40906C0250906D020C
:1045C00060906E0270906F0284E090E00E949738D5
:1045D000A8EEB3E0A81BB10987FDB395A301920132
:1045E0000E94793724E630E040E050E00E941C371A
:1045F00020936C0230936D0240936E0250936F02D1
:10460000CD2DD02F80910D02882329F080910F02AB
:10461000853009F01ACE88E080930F0280917E02E7
:1046200090917F029817C4F089130FCEC0906C024E
:10463000D0906D02E0906E02F0906F024091700297
:104640005091710260917202709173024C155D0578
:104650006E057F0508F0F9CD40916C0250916D0216
:1046600060916E0270916F024093700250937102DC
:10467000609372027093730280937F02D0937B02E7
:10468000C0937A02B0927C0210937D02DECDB0E03E
:10469000A0E0EDE4F3E20C940A3888E893E190930B
:1046A00014028093130290932602809325028EEBCE
:1046B0008093210211BA80E180BB0E947C0410BA71
:1046C00084E00E948904AC018B5C9840833F914058
:1046D000A0F481E0809330022091250230912602DF
:1046E000AFEBB9E00E945A379A0150E040E00E94D7
:1046F0001C3730931402209313028091130290917F
:10470000140290932602809325028EE10E948A046F
:104710008EE10E94890490932A02809329020E94CC
:10472000FB042CDC11BAC1E0C0BB85E18093080119
:10473000C093070180E00E9489048C0182E0D82E9A
:10474000D0BAD4E0D093070181E00E948904080F19
:10475000191FD0BB90E1C92EC092070182E00E94D0
:104760008904080F191F10920801C1BBC0BBC09378
:10477000070180E00E9489040E94ED047C01D1BA07
:10478000D0BAD093070181E00E9489040E94ED0411
:10479000E80EF91ED1BBD0BBC092070182E00E9497
:1047A00089040E94ED04E701C80FD91F10BA11BA9D
:1047B0001092070180912502909126026C01CC0C89
:1047C000DD1CC80ED91EC8018C0F9D1FC81AD90A3E
:1047D000F12CE12C9801A0E9BAE10E945A37A70117
:1047E00096010E941C3749015A0130932F022093F1
:1047F0002E029E01A0E9BAE10E945A37A701960154
:104800000E941C3730932802209327022057354EF0
:10481000309311022093100280E7881A85EE980ADF
:1048200090920A028092090289E180932102CDB719
:10483000DEB7ECE00C942638CF92DF92EF92FF9235
:104840000F93CF93DF93F82EC62FD42F0E949C078F
:104850008AE193E00E94DA0700D26C2F8F2D0E942C
:104860001235C090B302D090B402E090B502F0903F
:10487000B6028091150287FD05C0C114D104E10480
:10488000F10421F086E193E00E94DA078C2F0E9468
:104890009C07C114D104E104F10431F00E9491039A
:1048A000809150020E94C803DD2309F459C0809111
:1048B00031028D3008F054C08650990B8959994FB8
:1048C0000E94DA0780E00E944F08CD28CE28CF282A
:1048D00009F449C06091B3027091B4028091B502AD
:1048E0009091B60203E028E447EF0E948B0889E22A
:1048F00093E00E94DA078BE290E00E949F3822E06A
:1049000046E464EF0E946F098091AB029091AC0283
:10491000A091AD02B091AE02892B8A2B8B2BF1F1C5
:1049200080E00E944F086091AB027091AC028091D0
:10493000AD029091AE0204E028E440E00E948B08B2
:1049400084E293E00E94DA0723E040E26FEF809177
:10495000B1029091B2020E946F090E94300825C0F6
:104960000E943008AFCF809150020E94C80380910E
:1049700015028E3F4CF688E394E00E94DA076091BE
:104980009A0270919B0280919C0290919D0203E09B
:1049900028E4409115020E948B08B6CF80E00E9467
:1049A0003608809134028823C1F2DF91CF910F91B4
:1049B000FF90EF90DF90CF900895EF92FF920F93CA
:1049C0001F93CF93DF93182F0E94B90780917C0229
:1049D0000E949C0784E594E00E94DA077ED36091F0
:1049E0007C0280917D020E94A105EC0190937902E6
:1049F00080937802E0907A02F0907B02CA3F8FEFBA
:104A0000D80730F4E114F10409F467C0111165C04E
:104A100080917D020E949C07112309F448C0909167
:104A200031028DE0891B0E94580787E892E00E94BE
:104A3000DA070E94C607609170027091710280913E
:104A400072029091730204E026E440917F020E947A
:104A50008B08CA3FDF4F68F483E494E00E94DA07D2
:104A600022E044EF6EEF80917802909179020E94EB
:104A70006F090E943008112399F0E114F10481F0CC
:104A800080E00E944F088CE394E00E94DA0722E065
:104A900045E26FEF80917A0290917B020E946F094C
:104AA0000E943008CDB7DEB7E6E00C942C38809138
:104AB0007A0290917B02892B69F08BE394E00E944B
:104AC000DA0722E045E26FEF80917A0290917B0253
:104AD0000E946F090E943008ACCF8BE193E00E94E6
:104AE000DA0796CF8F3021F490912B02913011F09C
:104AF0008F5F089580E00895CF9382E992E00BD70D
:104B00006AE080E00E94A4078BE696E00E94DA0744
:104B1000C0E00E940C0A60E082E009D862E080E018
:104B200006D80E94B90780916902882399F041E074
:104B300062E080E081DE88EE93E00E948E098111C0
:104B400005C08C2FCFDFC82F8A3F18F30E94C10702
:104B5000CF91089582E992E00E94DA078BE696E011
:104B60000E94DA070E94C6078FE30E946A070E942C
:104B70003008E1CF0F931F93CF93DF93C0E0D8E0CD
:104B800012EF0DE00E940C0A60E082E0D1DAD093CF
:104B90000F0280917E02843FE1F480916C0290913B
:104BA0006D02A0916E02B0916F0284369105A1054D
:104BB000B10578F440E060E082E00E94D132609379
:104BC0006C0270936D0280936E0290936F0210934B
:104BD0007E0280917E02823F3CF180937F02809131
:104BE0006C0290916D02A0916E02B0916F02809361
:104BF000700290937102A0937202B093730281E0ED
:104C0000DCDE80ED97E00E948E09811106C08C2FBA
:104C100069DFC82F8A3F08F4B5CF0E94C107DF9132
:104C2000CF911F910F9108950E94B9078BE892E0F0
:104C30000E94DA0780913102902F981B892F0E94E1
:104C4000580787E892E00E94DA070E94C6078FE3C0
:104C50000E946A070E943008D4CFA6E1B0E0E3E3E7
:104C6000F6E20C94043882E08093150280910F02E2
:104C7000813009F0DBC180916902813009F0D6C131
:104C80004090500224E0429EF0011124E156FD4F75
:104C900080819181A281B381893032E59307A1059A
:104CA000B10508F0C3C11C01712C81E0871508F41F
:104CB000C1C1842D0E94BE03982E892EE92FF0E0F9
:104CC000E15BFD4F549090E0FC01E45BFD4FE4910B
:104CD0001092080111BA272D2170622E30EF231691
:104CE000310408F0AEC12111ACC10091090210914C
:104CF0000A0200591A4121E030E002C0220F331F9E
:104D00008A95E2F7C901852980BB34E1398B892D69
:104D10000E9488045C01882D0E948A0424E0A21667
:104D2000B10410F4049728F039893150398B3111CE
:104D3000EECF80E480937B0094E590BF892D806462
:104D400080937C0027E120937A00F12CE12C1092D3
:104D50008000109285001092840037E236BB0E94DA
:104D60007704872D90E09A8B898B611072C181E85E
:104D70008093810051BA86B385FF74C111BA109235
:104D8000810020E226BB20918600309187006901D6
:104D900040918400509185002417350708F470C1B4
:104DA00087E980937A00B4E15B2E892D0E94880404
:104DB0005C01882D0E948A0424E0A216B10410F43C
:104DC000049718F05A945110F0CF80902E029090D2
:104DD0002F02820C931C800E911E20910B023091A9
:104DE0000C0200398AE1180708F052C169E191EE1E
:104DF000C916D104E104F10430F4C60165E070E0A5
:104E00000E94F536645128523109261B310967FD8D
:104E1000339566E0862F90E0B0E0A0E08C159D050C
:104E2000AE05BF0508F03DC1C81AD90AEA0AFB0A57
:104E3000662029F08AE3C80ED11CE11CF11C90EA1F
:104E4000E916F10418F0C12CD12C76018BE0C816BC
:104E5000D104E104F10428F091E0C91AD108E10875
:104E6000F108B12CA12CA8EEB3E00E945A376B8B4D
:104E70007C8B8D8B9E8BA0912502B0912602980190
:104E80000E945A37A50194010E941C3744275527D8
:104E90006B897C898D899E890E941C37C9010E947B
:104EA0007D05FC01A5019401C701B6010E94DA3617
:104EB0004B015C01BF0190E080E0E4E0660F771FEA
:104EC000881F991FEA95D1F76B5F7F4F8F4F9F4FD8
:104ED0002AE030E040E050E00E941C37442755278C
:104EE000C501B4010E941C37E989FA89EE0FFF1F42
:104EF000EE0FFF1F81E090E08C0F9D1FE80FF91F60
:104F00002083318342835383611018C094E1C91612
:104F1000D104E104F10490F07394E989FA8931969F
:104F2000EE0FFF1FEE0FFF1F81E090E08C0F9D1F23
:104F3000E80FF91F2083318342835383A89573942C
:104F400093E0971508F0B1CE11BA0E946C0491E07D
:104F50000D811E812F81388549815A816B817C8129
:104F6000401751076207730708F090E00D851E8512
:104F70002F85388949855A856B857C8583E0401764
:104F800051076207730708F082E024E0829FD00196
:104F9000112421E030E02C0F3D1FA20FB31FE92F99
:104FA000F0E0EE0FFF1FEE0FFF1FE20FF31F0D915A
:104FB0001D912D913C914081518162817381041733
:104FC00015072607370708F0892F34E0839FF00183
:104FD000112421E030E02C0F3D1FE20FF31F408130
:104FE00051816281738140939A0250939B02609336
:104FF0009C0270939D0280FD58C030EF231631044F
:1050000008F053C08BEF8093150280919A02909123
:105010009B02A0919C02B0919D02892B8A2B8B2B25
:1050200011F41092150210BA109207016696E2E18F
:105030000C942038842D0E94BE0398278927982736
:105040003BCEE093070150BA0091090210910A0289
:105050005CCE51BA0E94800490E296BB81E88093B6
:10506000810089CE80FF87CE31E036BBA8959701BD
:105070002F5F3F4F7901203A310509F07CCE7ECE7B
:1050800080FF8ECE81E086BB9FEFE91AF90A88CEB9
:10509000C40168E57BE10E94F536695F285D3F4FFA
:1050A000B9CEC12CD12C7601C3CE8CEF80931502E2
:1050B000CB01BA016B5F7F4F8F4F9F4F2AE030E0EB
:1050C00040E050E00E941C3720939A0230939B02EC
:1050D00040939C0250939D0298CFB0E0A0E0E3E79C
:1050E000F8E20C94063800917A0210917B020115C7
:1050F000110509F097C0E0917C02F0E0E15BFD4F03
:10510000D491E0917D02F0E0E45BFD4FC4910E94F8
:10511000BE1F11BA10920801D0BBC0930701809145
:105120007D020E948A047C01D0917F028CE08D0F69
:10513000843008F077C08091700290917102A09144
:105140007202B0917302D15F2C013D0125E0420E45
:10515000511C611C711CC301B2012AE030E040E027
:1051600050E00E941C3749015A01DA01C901DF5F92
:10517000D73051F72AE5421623EC52066104710438
:1051800008F050C0059708F44DC0C0930801C093C3
:105190000701D0E0C0E0C815D90508F448C0109256
:1051A000070110920801A89585E080932102809163
:1051B0007D020E948A04EC01CE19DF09E816F90687
:1051C00010F0D0E0C0E0D12CC12CC814D90498F163
:1051D00080917D020E948A0429E120932102A895F2
:1051E000E816F90618F48C010E191F090C171D0793
:1051F00088F49E01201B310B69F0A4EFB1E00E94FE
:105200005A379E0150E040E00E941C3730937B02E9
:1052100020937A020E94BE1F10BA11BA10920701A1
:1052200010920801CDB7DEB7E0E10C9422380E945D
:105230007E042296B0CF0E947E048FEFC81AD80A4F
:10524000C4CF8C3008F08C50811109C084E095E007
:105250000E94DA070E9430080C94B4070895813048
:1052600019F482E994E0F4CF823019F483EE94E0EB
:10527000EFCF833019F488ED94E0EACF843019F44D
:105280008DE992E0E5CF853019F482E992E0E0CF34
:10529000863019F48BE892E0DBCF883019F489EC82
:1052A00094E0D6CF873019F489EB94E0D1CF8930E0
:1052B00019F48AEA94E0CCCF8A3019F48AEF94E0AA
:1052C000C7CF8B3039F68FEE94E0C2CF0F93CF93D8
:1052D0008DE992E020D3C0E010920F0260E082E0FE
:1052E00028D580910F02883009F049C00E94B90783
:1052F00083E40E946A070E94950360917002709196
:105300007102809172029091730203E026E4409151
:105310007F020E948B080E94300860917C0280917D
:105320007D020E94A10590937902809378020E94E9
:10533000C60784E494E00E94DA0780917802909195
:1053400079028A3F2FEF9207B0F422E044EF6EEF2C
:105350000E946F090E94300888EE93E00E948E0937
:10536000811106C08C2FBEDBC82F8A3F08F4B4CF52
:10537000CF910F9108958FE30E946A07EBCF0E94AF
:10538000B9078DE992E00E94DA070E9430080E9476
:105390005B08E2CFA5E0B0E0E0EDF9E20C94043860
:1053A00083EE94E0B8D280E18093800010926F0089
:1053B00081E090E0909389008093880010928B00A8
:1053C00010928A0083E086BB1092820088E080936E
:1053D00081001092080181E18093070111BA81E0F8
:1053E00080BB269A89E080938100312C20E03AE04E
:1053F000398341E04C83812C912C5401839451E1F9
:105400005D83832D90E00A966EE170E00E9409377B
:105410006B83F62E621759F00E94B90783EE94E071
:105420000E94DA0710E01F11D1C00E9430088C8161
:1054300069810E94E936A92FB0E0A50194010E947C
:105440006F376B017C018D81823150F0652D762D97
:10545000872D902F0E941C37C60ED71EE81EF91EFE
:105460000E94C6079C812981212C921306C081E0ED
:105470003D81323108F480E0282E2A828CE321100D
:1054800005C04D8182E5463108F48EE30E946A072B
:105490004D81C701B6010E948409C701B6017C5D38
:1054A0008B409F4FA7019601220F331F441F551FAA
:1054B0000E941C37CA014F3F510509F008F48BC008
:1054C0008DE08093810080E094E02C01712C612CB0
:1054D000CA01B901A30192010E941C372150310970
:1054E00030938900209388008091880090918900F2
:1054F000892B31F481E090E09093890080938800BB
:10550000009188001091890060E072E18AE790E0E4
:10551000A30192010E941C37A4E6B0E00E946F37FD
:105520000F5F1F4F980150E040E00E941C37290197
:105530003A01A4E6B0E0A70196010E946F37A301EB
:105540009201261B370B480B590BCA01B90102E225
:1055500028E44EEF0E948B088AE70E946A070E94A7
:10556000300880ED97E00E948E09882309F46BC013
:10557000883C08F07AC0813508F45FC0222009F425
:105580004AC03D8131503D83C501B4012AE030E07D
:1055900040E050E00E941C3749015A01C701B601A2
:1055A0000E941C37CA01B9012AE030E040E050E017
:1055B0000E941C376A834AE049832A812C83312C5C
:1055C0002B815C2C6D2C7E2C0F2D1BCF8EE20E942C
:1055D0006A071F5F28CF4034510530F08CE080937C
:1055E000810080E091E071CF4830510530F08BE0D0
:1055F0008093810080E490E068CF892B31F08AE0CD
:105600008093810088E090E060CF89E08093810002
:1056100081E090E05ACF5D81563198F55F5F5D8300
:10562000563111F485E18983AAE0B0E0A501940127
:105630000E946F374B015C01C0CF8B3018F09C810A
:105640009F5F9C83312C2C81822F90E03981632FC6
:1056500070E06F5F7F4F0E9409378C83832D42DAA1
:10566000382E4FEE481708F0ABCF10928100109201
:10567000800010BA1092070126982596E2E10C945A
:1056800020385AE0598381E08A83812C912C54017F
:10569000839491E19D8391CFB0E0A0E0E2E5FBE24D
:1056A0000C94063888ED94E036D183E28093800034
:1056B00010926F008FEF90E090938B0080938A00A0
:1056C00083E086BB109282001092080181E18093F2
:1056D000070111BA81E080BB269A81E090E09093A7
:1056E00089008093880089E08093810010E080E049
:1056F000C2E3D0E094E6C92ED12CE12CF12C882411
:105700008A9423E0922EA12CB12CC81799F1C436AB
:1057100008F0C4562C2F30E0AFEFB3E00E945A37A8
:105720006E5C7F4F8F4F9F4FA70196010E941C37E1
:1057300029013A0130938B0020938A000E94C6070A
:10574000A8EEB3E0A30192010E946F3761507E4F33
:105750008F4F9F4FA50194010E941C37C90125E07E
:1057600045E26FEF0E946F090E943008D93210F0B5
:105770000E94660480E496E00E948E09D82F833848
:1057800078F40AE0833320F40C2F882319F001E029
:105790000C0F10E0812FA6D9182F8C2F103F68F026
:1057A00010BA109281001092800010920701269882
:1057B000CDB7DEB7E0E10C942238C02FA6CF0F930F
:1057C0001F93CF93DF9389EB94E0A5D084E090E022
:1057D0000E949738C82FD0E00E94C6070C2F0C2ECD
:1057E000000C110BC7FF25C00E94930323E045E284
:1057F0006FEF88279927801B910B0E946F090E94E9
:10580000300880E496E00E948E0981111DC0C135E8
:10581000BCF0C5568D2F66D9D82F803FE8F26C2F8B
:1058200084E090E00E94A438DF91CF911F910F9106
:10583000089523E045E26FEFC801DFCFC15009C0F2
:10584000CC3E44F7CB59E6CF823848F78932B0F3E3
:10585000CF5FD0E0DCCF813019F480E070C00895D4
:10586000823011F497CD0895833011F415CF089547
:10587000843011F42BCD0895853011F43DC908957D
:10588000863021F40E94C10775C90895883011F44B
:1058900066C30895873011F492CF0895893021F4BA
:1058A00081E10C948B0A08958A3011F4A6C40895FE
:1058B0008B3011F40C942F0A0895CF93DF938FE06F
:1058C00095E029D0D0E0C0E00E94C6078C2FB9DC5B
:1058D00080E49FE10E948E098111D0E090912B021B
:1058E000913009F4D0E0823390F0CC2341F08C2F3A
:1058F000B2DF8FE095E00FD0DF5FD83721F480E092
:10590000DF91CF910895CC30F8F2CC50DDCF8823D1
:1059100099F3CF5FF1CFCF93DF93EC010E94C107E2
:10592000CE010E94DA07C4E60E946D04079902C006
:10593000C150D1F70E94C607DF91CF910895A7E02B
:10594000B0E0E5EAFCE20C94043882E994E0E3DF9D
:1059500060EF6B836E980E94730410929000109217
:10596000950010929400109203021092040210927B
:1059700005021092060281E088BB809371001092AC
:105980008000E5E2F4EFF0938B00E0938A0081E081
:1059900090E0909389008093880010928500109287
:1059A000840083B5816083BD96E096BB90936F00C1
:1059B0007894E4E0E0938100F2E3F9831A820E9494
:1059C0006C04A895079902C061E06A8380919100F8
:1059D000882329F08981815089838111F0CF109229
:1059E000910080919400909195009093040280938F
:1059F00003020E94C10786E60E946A070E9495037F
:105A00006091030270910402809105029091060258
:105A100047E00E9484096E9880918100882319F0E4
:105A20008FE30E946A071092810010926F0020910C
:105A30000302309104024091050250910602DA01FE
:105A4000C9010197A109B1098336934CA105B1059C
:105A500008F08EC0AAE0B0E00E946F37605F7F4F11
:105A60008F4F9F4F24E096958795779567952A9558
:105A7000D1F7660F771F70936402609363026E988C
:105A80000E947304109295001092940010920302E9
:105A9000109204021092050210920602F1E0F8BB87
:105AA000F0937100109266021092650260E16093BB
:105AB0006A00E69AEE9A7894EE9A19820E946C0433
:105AC000A895079902C081E08A83EE9B05C0998161
:105AD0009F5F99839A3F91F710929100EE98809181
