:100000000BC600001BC6000019C6000017C6000082
:1000100015C600000C94033411C600000FC6000082
:100020000DC600000C94730F09C6000007C600003F
:100030000C9480270C94F2330C94F7330C945C27C7
:10004000FDC50000FBC500000C94D133F7C50000CE
:10005000F5C50000F3C50000F1C50000EFC50000C4
:100060000C94740FEBC50000E9C50000E7C5000063
:10007000E5C50000E3C50000E1C50000DFC50000E4
:10008000DDC50000DBC50000D9C50000302DB5E599
:10009000BB19A0E0EF93FF93F0E000000000000028
:1000A0000000000000000000EB2F2BB9EBB83A95E0
:1000B00019F0AA0DE10909940AB9FF91EF9181FFA6
:1000C00099C0A1B1A760A1B995C04F925F921F934B
:1000D000512C5A9481FF02C09F9291B07F927090F0
:1000E0007C00E62FF72F903009F49395EBB8CAB84F
:1000F000B7EFB0937A00A5E0A0937B00A8E0A093AF
:10010000810010928000AFEFA0938500A09384003F
:10011000A6E0A093360010928B0010928A0085FF13
:1001200009C0A3E0A0938B00AA95A0938500AFEF30
:10013000A09384008F939F939EE285FD9EEE80E0C6
:10014000B501785F76956795769567950E9405432A
:10015000062E03949F918F91B6E0AFE7A91B51E063
:10016000392F363085FD33302AF0A058B94F5395DA
:100170003650F7CFB0938900A0938800A0917A0001
:10018000A4FFFCCFB7EBB0937A00A2E0A0936F007E
:10019000A9E0A093810062E0A0E0A0937B00A1E031
:1001A000A09353008895EBB8CAB884FF19C0A3E4A4
:1001B000AA95F1F7EF93FF93E1B1F2B1A4E0C4FC8B
:1001C000A2E0C2FCA1E0BF2FBA2BAE2BB2B90AB994
:1001D000A1B9E1B9F2B9FF91EF910CC00C94CF0035
:1001E00087FD54CFA6E40000AA95F1F72BB9EBB830
:1001F00000000AB9A0918400A0918500B091890007
:10020000A395AB1758F781FF09C0A81539F4A09141
:100210008400A0918500A815D1F391B8A0917A002F
:10022000A4FFE8CFB7EBB0937A0083FF0BC073E075
:10023000523040F009F471E0372D671709F0387F2C
:1002400030937C006A95B1F66091780070917900E6
:1002500057FE05C02B01440C551C440C551C142D95
:10026000352D369517953695179582FD611B82FDC4
:10027000730B460E571E308186FD630F61933081EC
:1002800086FD731F80FF7193652F4A95E1F61092EA
:100290006F0010928100B7E0B0937A0070927C00FA
:1002A0007F9081FF02C091B89F901F915F904F9007
:1002B0000895FE02F502EC02496473733D00206567
:1002C00074613D00554A54005055540018000720F1
:1002D000080808F80000002060A03FA0602002028B
:1002E00002FF0202021010101F0000000708FFDBCF
:1002F000BDB5B5CBFF0708FFBB9DADADB3FF07088C
:10030000FFFFF7FB81FFFF10100508F878385888C9
:10031000091003081C3E7F0D080710FF818181F141
:10032000E1C1FF4040404743410D080110FFFF116C
:10033000080310F1E1C14743410E000820212112BA
:100340002060E0E0E0FEFE0402010001037F7F2167
:10035000C2C4C4C04094840007030102040E080212
:1003600010FEFE7F7F00000000110005202060E0ED
:10037000E0E00201000103C2C4C4C040070301025F
:1003800004310603063320342D33306E46284C29C1
:10039000005245465F523D005245465F433D006670
:1003A000706E1E6D006B4D041040010204524453E8
:1003B0003D005B435D003106030633200031060437
:1003C0000506070806332000432B4553524054507E
:1003D000313A3300433073616D70200043302000A8
:1003E00052695F4C6F3D0052695F48693D00523071
:1003F0003D0052482F524C002B52482D20313220C4
:100400003133203233002B524C2D20313220313306
:100410002032330052482B0052482D005248663D8E
:10042000005265663D00494345733D0049434530F0
:100430003D0056657273696F6E20312E31336B004B
:10044000060708060006040506002A012020007A97
:1004500020513D0020696620002040302D35560097
:1004600006020600060106004E6F742063616C6987
:100470006272617465642100566578743D0049724A
:100480003D004C3D0020566C6F73733D002045537A
:10049000523D005643433D0043656C6C210006030A
:1004A00006004056673D002056743D0055663D00ED
:1004B0005562653D00203132333D0050696E2000A9
:1004C000424A542D504E5000424A542D4E504E0038
:1004D00043673D006846453D002D49474254004A68
:1004E000464554002D4D4F53004443205077722011
:1004F0004D6F6465004F4B004261742E20004372C3
:10050000797374616C2020004365722E7265736F7D
:100510006E61746F72202000436F6E747261737429
:10052000004C462071756172747A004846207175DE
:100530006172747A004672657175656E6379203EEA
:1005400020324D487A004672657175656E63790098
:1005500073686F72742050726F6265732100536507
:100560006C6674657374007475726E210043281E86
:100570004629636F7272656374696F6E00726F747F
:1005800061727920656E636F6465720031302D622F
:1005900069742050574D00662D47656E6572617411
:1005A0006F7200537769746368206F6666005368E2
:1005B0006F77206461746100566F6C7461676500C9
:1005C0005472616E736973746F720053656C656306
:1005D00074696F6E3A005465737420456E640069E7
:1005E000736F6C6174652050726F62657321005384
:1005F000656C6674657374206D6F64652E2E00548F
:10060000696D656F75742100206465746563746538
:1006100064004E6F2C20756E6B6E6F776E2C206FA2
:10062000720020756E6B6E6F776E00546879726918
:1006300073742E0054726961630070617274006497
:10064000616D616765642000656D70747921007764
:1006500065616B0054657374696E672E00B903871A
:100660000358032E030703E402C302A40288020016
:1006700000140029003E005300690080009700AE7E
:1006800000C600DF00F80012012D0149016501825A
:1006900001A001BE01DE01FF012102440268028EB9
:1006A00002B502DE020903350364039403C803FEA6
:1006B0000337047304B404F90443059305EA0549B8
:1006C00006B3062907AE074808FF08DE09FD0A93AE
:1006D0000C480F991B705780508D4A6645E340E8DF
:1006E0003C5E3933365A33C6306D2E492C532A843A
:1006F00028DA264E25DF2389224A212020081F01DF
:100700001E091D201C431B731AAD19F1183F1895C3
:1007100017F4165A16C6153A15B3143214B7134007
:1007200013CE126112F81193113111D31078100009
:100730000000000000000000000000000000001E9B
:100740002121211200807F0000007E4A4A4A3400A5
:100750000000000000FC402010080402010000001E
:10076000010101010101010101010101017F048871
:10077000D0E0F0F8000000000000000000000000E1
:10078000000000000000FC94948400000102FC00C2
:1007900000000000000000000000001E21212112C6
:1007A000E0C0804020100F000000C020202040004A
:1007B0000000FC00009E9E040303030302000000EF
:1007C000202023242525232020203F00007B7B217F
:1007D00042840480C000000000000000000000000F
:1007E000000000FC94948400040607070708F0004A
:1007F000000000000000000000000000803F2121F8
:10080000120C00000000FF000000F0084848C8007B
:1008100000FE0000E7818181C1E1F1818181010059
:100820002020202121212020203F0000F3404040B3
:1008300041434740407FC00000000000000000002E
:100840000000000000489494946400000000FF0041
:100850000000000000000000000000000000003F59
:100860002121120C0000FF000000F0084848D000D1
:100870000000000000FEFE04040404040404070059
:1008800008080809090908087F3E1C08087F7F201E
:10089000202020202020E0000000000000000000B8
:1008A0000000000000000048949494640000FF00E1
:1008B00000000000000000000000FF003C0A090AE0
:1008C0003C002231292926000082868E9EBEFEFE33
:1008D000BEDEEFF6FAFEFEFAF2E2C2820000000887
:1008E000080804027984A4A46800FF000000000046
:1008F00000000000000000000000000000000000F8
:100900000000FF0000F0282428F0001008FC000080
:10091000000000000000000000003C0A090A3C0042
:10092000FF000000000000000000000000000000C8
:10093000000000040C1C3C7CFF7C3C1C0C040000F0
:10094000000000009EA1A9A99A804323130B07036E
:10095000FF03030303030300000000000000000086
:100960000000788484844800FF000000000000003C
:100970000000F00804E21109090909090909090937
:100980001121C2040810E000000001020404070065
:100990000000000080402010884423100804030059
:1009A00000000000000000000000FE0100FC020149
:1009B0000000000000000000000000000000000037
:1009C0000000794949790000000000000000004063
:1009D0003E4949365C6202625C807C40403C0002D9
:1009E0000502000000000000065F06000006000689
:1009F0000000247E247E24242A7F2A1263130864A4
:100A0000633649562050000A060000003E410000AF
:100A100000413E000014083E081408083E08080083
:100A2000A0600000080808080800606000002010AE
:100A30000804023E5149453E00427F400062514950
:100A4000494622494949361814127F102F4949490D
:100A5000313C4A4949300171090503364949493653
:100A6000064949291E006666000000563600000847
:100A70001422410014141414140041221408020119
:100A8000590906324979413E7C1211127C7F49494D
:100A900049363E414141227F4141413E7F494949DA
:100AA000417F090909013E4149497A7F0808087FC9
:100AB00000417F4100304040403F7F081422417F89
:100AC000404040407F020C027F7F0408107F3E417F
:100AD00041413E7F090909063E4151215E7F0909D6
:100AE0001966264949493201017F01013F404040D2
:100AF0003F1F2040201F3F4038403F6314081463CD
:100B000007087008076151494543007F41410002D1
:100B1000040810200041417F00040201020440400B
:100B2000404040000102040020545454383F4844DF
:100B300044383844444420384444483F385454549A
:100B400018087E090102085454543C7F08040478B4
:100B500000007D40004080847D007F10284400001C
:100B6000007F40007C047804787C080404783844D2
:100B70004444387C14141408081414187C047804B1
:100B800004084854545420043F4440203C40402032
:100B90007C1C2040201C3C4030403C442810284411
:100BA0000C1010503C4464544C4400083E4100007A
:100BB000007F000000413E080010080810083C2695
:100BC00023263C083E22223E08087F3E1C087F7FE9
:100BD000081C3E7F087F7F00007F7F3E222222226A
:100BE0002222222222223E080808080808384058FB
:100BF0002458405824584038082020202020202005
:100C0000202020205B524C5D0070617220007365D3
:100C1000722000436D3D000011241FBECFEFD0E4D1
:100C2000DEBFCDBF21E0A0E0B1E001C01D92A63C37
:100C3000B207E1F70E94E2130C94FB44E1C96F9301
:100C40008F93239860D1249A5ED188E70DD06F915D
:100C500080E860FD80E408D08F9106D0249A53D1BB
:100C6000239851D124984FC10894881F239A10F4D7
:100C7000249801C0249A47D1239845D1880FB1F711
:100C8000239A249840D123981B9BFECF1C9981E086
:100C90003AD1239A38C10895249823982C982B98F8
:100CA000089597FF09C08F939F938DE284D59F91FC
:100CB0008F91909581959F4F6FE171E04AE050E0F0
:100CC0000E949A44EAC5EDDF01C0EBDF80E273C504
:100CD0008DE271C58DE36FC5EF92FF920F931F9365
:100CE000182F062FF42E85EB94E0E2D5EE24E09148
:100CF0003A01F0913B018685E81611F4812F09C075
:100D00008485E81611F4802F04C08585E81611F457
:100D10008F2D51D5E3948E2D833049F71F910F917C
:100D2000FF90EF900895EF92FF920F931F93182F6B
:100D3000062FF42E80E062D48BEB94E0B9D5EE243C
:100D40008E2DA8D5C7DFE0913A01F0913B01868551
:100D5000E81611F4812F09C08485E81611F4802F5C
:100D600004C08585E81611F48F2D25D5AFDFE394F7
:100D70008E2D833029F71F910F91FF90EF900895EA
:100D8000682F80E092E0662309F491E0623009F474
:100D900081E008950F93082FEAEAF1E0880F880FA9
:100DA000E80FF11D60817181828193816436710544
:100DB0008105910568F420911D0127FD09C0802F50
:100DC000DFDF692FC8D16EEF23E04DE199D604C073
:100DD0004FEF04E02DE1B0D579DF0F910895863013
:100DE00058F4E9E9F1E0E80FF11DE80FF11D808109
:100DF000918163E090D66ACF08951F93182F809158
:100E00007301882319F062DF80E0D5D4C2D38CEA65
:100E100094E04ED5812F82958F70E1DF812F8F7006
:100E2000DEDF1F91089580910A0182958F7018D09E
:100E300080910A0183701AD080910A01DECFEDE81B
:100E4000F1E0E80FF11D0895CF93F9DF9081C6819D
:100E5000C91710F405D001C012D038DFCF91089522
:100E6000EEDF8F93808116D58F9100C08F9384E63B
:100E700094E01ED58F91E3DF86810CC50895DFDFF6
:100E80008F93868107D58F9100C08F9380E694E081
:100E90000FD58F91D4DF8081FDC408958F932F9358
:100EA0002AE08095519A089410F4599802C0599AF2
:100EB000000020D027D086952A95B1F72F918F91E9
:100EC000089503D002D001D000D000D003D002D0CA
:100ED00001D000D000D003D002D001D000D000D08B
:100EE000A89503D002D001D000D000D003D002D00A
:100EF00001D000D000D003D002D001D000D000D06B
:100F000003D002D001D000D000D0000008958F930C
:100F100084E029D706C08F9363D703C08F9381E005
:100F200022D78F911F93182F106410937C00E12F0C
:100F3000E07880912A01E81759F0E0932A01DADF7E
:100F40008FE980937A0083E083BF889582E083BF36
:100F500020E030E0A901E0E020C08FE980937A0032
:100F600083E083BF889582E083BF609178007091B1
:100F70007900260F371F411D511DE43069F480911F
:100F80002C01803049F084E02030380728F417FD28
:100F900003C010681F7BC9CFEF5F80912901E8175C
:100FA000E0F260912D0170912E0117FF04C0609155
:100FB0002B0170912C0180E090E00E94EA422FEF1B
:100FC00033E040E050E00E942C43B901CA01209177
:100FD000290130E040E050E00E942C43C9011F91FC
:100FE00008959B01281B390B50F0C9010895BC01DD
:100FF00080912D0190912E016817790718F4861BB6
:10100000970B089580E090E0089589E290E00E94B7
:10101000D5442091310130913201280F391F20939E
:1010200013013093140183E0283E380720F0C901F2
:10103000885E934002C080E090E062E370E00E942E
:101040000543683008F067E0EDE5F6E0E60FF11DD6
:10105000E60FF11D459155912591359162E3681B8D
:10106000421B530B649FC001659F900D112449964C
:1010700062E370E00E940543620F731F7093760174
:10108000609375018BE290E00E94CD44992787FD23
:1010900090956091310170913201860F971F909366
:1010A0002C0180932B01909372018093710108951C
:1010B0000F9221E08C32920710F48CE291E08C5276
:1010C000914069E170E00E94054399E16B3210F0B4
:1010D000982F6BE2981BE5EDF6E0E60FF11DE60FA9
:1010E000F11D4591559125913591692F421B530B67
:1010F000649FC001659F900D11240C9669E170E01A
:101100000E940543620F731FCB010F900895CF9388
:10111000DF9324E130E0B9010E940543DC01EFE6F2
:10112000F6E0E60FF71FE60FF71FC591D591459141
:1011300055914C1B5D0B4A9FC0014B9F900D5A9FD0
:10114000900D1124B9010E9405436C0F7D1FCB0146
:10115000DF91CF910895AEE1B0E0E1EBF8E00C94BF
:101160001D44662EB82E860F8983209117012830E2
:1011700059F520917B0130917C0140917D01509186
:101180007E0157FD15C010918A0109C0CA01B9013D
:101190002AE0312D412D512D0E942C431F5F173F16
:1011A000ACF391F4243160E036074105510518F4A1
:1011B0008FEF9FEF41C1173F39F480E028178DE78B
:1011C00038074105410510F020E03DE72C8B3D8BB1
:1011D00027EDA22EEAEAF3E0E60DF11D859180608D
:1011E0008E87EAEAF3E0EB0DF11D859180608F8731
:1011F000E7EAF3E0E60DF11D7590E7EAF3E0EB0DA9
:10120000F11DC59090EC692AB92A81E0E82EF12CF5
:10121000012D112D8E831F82188619861A861B8632
:101220001C861D86188E198E1B8E1A8E0E94AB236B
:1012300080E082B960927C005DDE3F8531B97BB889
:101240007AB855E05A95F1F700001AB81BB8DD24BA
:101250003E8531B97BB87AB860927C00A895A0929F
:101260007A0080917A0086FDFCCF20907800309043
:101270007900B0927C004C2DE3D020917800309121
:101280007900288B398B3F8531B9CBB8CAB8A8957E
:10129000B0927C00A0927A0080917A0086FDFCCF0B
:1012A000609178007091790060927C00472DC8D0E1
:1012B00040917800509179001AB8CB01820D931DAE
:1012C000E80EF91E011D111DEA82FB820C831D83AD
:1012D00088899989840F951F2E813F81688579853A
:1012E000280F391F611D711D2E833F836887798701
:1012F00022E32417150648F07BB87AB805DE1AB841
:101300001BB8888D8395888F07C0483E73E05707C8
:1013100018F08A8D83958A8F8889998928171906EC
:1013200058F03E8531B9CBB8CAB8EEDD1AB81BB853
:10133000898D8395898F07C0883E73E0970718F0E1
:101340008B8D83958B8FD3945D2D5F3F49F05F37F5
:1013500031F45C2D550FC50E572D550F750E78CFF6
:101360004090360150903701440C551C9201E4E046
:10137000240D351DEA95E1F72901570168016E80BA
:101380007F8088849984209117012830C1F46C896A
:101390007D89812D912D65507040804090409B014A
:1013A000AC010E94EA429B01AC0160EF7FE080E06B
:1013B00090E00E942C43621A730A840A950AA614CC
:1013C000B704C804D90428F46A187B088C089D085F
:1013D00003C0662477244301B20180E090E09301CA
:1013E000A4010E94EA429501A6010E942C4381E0DB
:1013F00090E07981870F911D0E94CD44682EC9012C
:1014000060E170E00E940543260F371FC90168168E
:10141000190618F4861991090FC08C5E9F4F861526
:10142000910540F48C899D89843981E1980710F0F9
:101430000E948A13812D912D6E96E2E10C9439441D
:10144000109281001092800010926F0010928B0019
:1014500010928A0057E056BB5FEF5093850050937F
:10146000840055E050937B0057EB50937A0051E095
:10147000509381005FE45A95F1F7000000004BB9EA
:101480004AB95BE05A95F1F71AB81BB8109281007F
:1014900080917A0084FFFCCF80937A000895CF93E7
:1014A000C82F1C1614F0CF91089510DCC150F9CF4D
:1014B00060933901809307018093A901862F880FDB
:1014C000860F880F809308010895809139018093D9
:1014D00005018091A901809306010895609105019D
:1014E00080910601E5CF0895682F80E0A8CB08958C
:1014F0008EEAFADF85EAF8CF08958DE0CFDC8AE046
:10150000CDCC08951092A90160E080E0D1DFF5CF45
:101510000895CF93DF93C0E080E1E6DF80E0E4DF71
:101520008C2F806BE1DFD4E860E081E088DBD15074
:10153000D9F7CF5FC83081F7E5DFDF91CF9108950C
:10154000ABDB84E110D48EEACFDF82EECDDF82EA1E
:10155000CBDF80EAC9DF80ECC7DF85EDC5DF80E83F
:10156000C3DF8DE8C1DF84E1BFDF81E8BDDF80E05C
:1015700090E00E94CD44B8DF80E4B6DF84EAB4DFB7
:1015800086EAB2DFC6DF8FEAAFDF60E080E090CFAF
:10159000089581E08093A90160E08ADFAECF0895CD
:1015A00082E08093A90160E083DFA7CF089583E004
:1015B0008093A90160E07CDFA0CF0895909139016C
:1015C00085E1891B6CCF0895CF93C82FF7DF8091F9
:1015D000A9018F5F8093A901883068F087E080932C
:1015E000A90181E080933C016C2F8091A90160DF0B
:1015F00084DFCF91089510923C01F6CFE5DF2BD424
:101600008091A901833008F078CF08957BDFD6DF81
:1016100079CF0895BEDFD2DFBCCF0895582F28E0E0
:1016200030E090E841E080E0652F642309F0892BE9
:10163000440F969521503109B9F70895B0E0A0E024
:10164000E4E2FBE00C941E446C01A02EB12CC50119
:10165000860F911D813891050CF040C0E42FEE0DEE
:10166000FF27FF1FCF01E134F105C4F5D42FD69534
:10167000D695D695019733E0959587953A95E1F7FC
:10168000F22FF2704F2E21FF0DC0482F4D1B550B2E
:10169000FA01EA9DA001EB9D500DFA9D500D112419
:1016A000C40ED51E782E57E0581710F497E0792E07
:1016B000C0E8C01BC61B8C2F82958F70582E689473
:1016C00054F887E0382ECF702170622E7D1658F4C2
:1016D0009091070187E0891B806B06DFCDB7DEB7ED
:1016E000E1E10C943A44832D8D1B806BFDDE852D4A
:1016F000FBDE8C2FF9DE7601EA0CFB1C870146012C
:10170000C016D10641F4442019F07601EA18FB080E
:10171000DF5F6701DBCF01501109F8016110F401AF
:101720008491411001C07ADF682F81E088DAFFEFF1
:101730008F1A9F0AE5CFEF920F93482F8F7320E601
:10174000829FC0011124815D984F28E046FF28E464
:10175000209309011092040147FD08C0209109015E
:1017600030E2309304012D5E2093090120E2E22E45
:1017700008E120E040910401609109015FDF0F91D1
:10178000EF900895EF920F93262FFC01349131963C
:101790004491319604913196E490E09104014E0F0A
:1017A00060910901630F049649DF0F91EF9008954E
:1017B00060E0E8CF0895EF920F93CF93C82F809108
:1017C00039018F5F809339012C2F30E04091070160
:1017D000440F440F440F60910801CC30D0F426E050
:1017E000C29FC001112438E0E32E06E020E08D53B3
:1017F000944F24DF809108018A5F80930801EFEF06
:10180000EC0FEE3108F044C0F0E0E350FB4B0C94D9
:101810006A432C51310955E0529FC001539F900DEE
:10182000112428E0E22E05E020E08153964F06DFE8
:10183000609108016B5F6093080140910701440FBC
:10184000440F440F01E020E083EE99E0F7DE809141
:1018500008018F5FD2CF8EE321DB8CE703C08CE7DA
:101860001DDB8CE31BDBA895CF910F91EF900895C2
:101870008CE7F2CF82E5F6CF8DE2F4CF85E7F2CFA9
:101880008FE40CDB88E60ADB8DE6ECCF8CE4EACF54
:101890008C2FE8CF8F5C8FCF0895CF93DF93EC012F
:1018A0008991811103C0DF91CF91089584DFF8CF32
:1018B000CF93DF93EC01FE018491882319F07BDF45
:1018C0002196F9CFDF91CF910895EF920F93FC010C
:1018D00004913196E4900296B1DE0F91EF90089555
:1018E0000F9380ED94E0E4DF409189014D3F6CF46B
:1018F00060917701709178018091790190917A01DE
:1019000003E026E419D00F9108958FE354DFFBCF55
:10191000909116019F70923071F470DE8DEA93E021
:10192000C7DFE0913A01F0913B0122E04DE16FEF1A
:1019300084819581E5C00895AEE0B0E0E2EAFCE084
:101940000C941F44842E922EA02E6B017C01802FBC
:101950008F70B82E80E389838A838B838C838D83F9
:101960008E83F7FE40C0B4D9F094E094D094C09434
:10197000C11CD11CE11CF11C93E068EE462E63E013
:10198000562E612C712CB91609F441C084E050E147
:10199000452E57E2552E612C712CB816C1F195E0F9
:1019A00040EA442E46E8542E66246394712CB916FE
:1019B00071F186E030E4432E32E4532E3FE0632E93
:1019C000712CB81621F197E074E6472E512C612C4A
:1019D000712CB9121CC020E8422E26E9522E28E9AB
:1019E000622E712C14C005FFC7CF8BE2E4DEC4CF9A
:1019F000C701B6016B5F7F4F8F4F9F4F2AE030E0EA
:101A000040E050E00E942C4369017A018394C414A1
:101A1000D504E604F70460F7E1E1E80D0BEAE09F86
:101A2000E12D11241E2F169586E08819809F012D27
:101A300011240695902F990F090F801B082F3E0146
:101A400087E0680E711C2AE0A301C701B6010E945D
:101A50007944F30101900020E9F731977F01E618FE
:101A6000F7082E2D802F90E004968E159F0514F414
:101A70001F5F0D5FE12FF0E0E156FC4F14918A2DBE
:101A80008071A4FE05C08B2D8E192B1508F080E007
:101A9000AE2CA01AA80E1A1424F08EE28CDE802F31
:101AA0008E19011102C098EFA92E00E0C82ED12C8A
:101AB000EC0CFD1C0A2C000CBB08E02FF0E0EE152E
:101AC000FF0564F0112311F0812F75DE992011F0CC
:101AD000892D71DE2E96E0E10C943B443696EC198C
:101AE000FD0981E090E08C0F9D1FE80FF91F8081B8
:101AF00062DE0F5F0A151B0401F78EE25CDEDDCFAC
:101B00000F93362FBC0190E080E0022F242F432F4B
:101B100013DF0F9108950F93062FBC0190E080E032
:101B200026E54DEF09DF0F9108950F93042F28E468
:101B300040E002DF8AE73FDEC9D80F910895E82F21
:101B4000F0E0EE0FFF1FEE54FD4F85919491209130
:101B50000401420F20910901620F20E0B6CE0895E2
:101B6000CF93DF93C82FD62FE0913A01F0913B013C
:101B700048E16EE18685E3DFE0913A01F0913B01B7
:101B80004D2F6C2F8485DBDFE0913A01F0913B0112
:101B900040E06EE18585D3DFDF91CF9108951F93FB
:101BA000CF93DF93B6DC80ECC6DD62E08CEC92E094
:101BB000E9DD80E8C0DD87E093E0FADD60E085E004
:101BC00077DC88EC94E074DE6AE085E071DC80EC20
:101BD00094E06EDE88E99AE306D19BDC83E4ABDD1A
:101BE00083E0A9DD80E193E0E3DD61E082E060DC99
:101BF0008EE4E1DD6DD88FED94E05ADE6BE082E09B
:101C000057DC80E5D8DD64D88FED94E051DE88E9BB
:101C10009AE3E9D07EDC81EC8EDD81E88CDD89E61B
:101C200093E0C6DD60E085E043DC8EE4C4DD50D89F
:101C300085E4C1DD89ED94E03BDE6AE086E038DCD6
:101C400080E5B9DD45D885E4B6DD89ED94E030DE88
:101C500088E99AE3C8D05DDC81E46DDD8DE593E031
:101C6000A7DD81E068DD89E393E0A2DD60E081E04B
:101C70001FDC8EE4A0DD2CD884E49DDD89ED94E0AA
:101C800017DE6AE082E014DC80E595DD21D884E48B
:101C900092DD89ED94E00CDE88E99AE3A4D039DC8A
:101CA00082EC49DD82E847DD8FE293E081DD60E090
:101CB00085E0FEDB8EE47FDD0BD885E47CDD84EE01
:101CC00094E0F6DD6AE086E0F3DB80E574DD00D8C1
:101CD00085E471DD84EE94E0EBDD88E99AE383D05E
:101CE00018DC82E428DD89E293E062DD82E023DD16
:101CF00087E193E05DDD61E081E0DADB8EE45BDDCE
:101D00000E94680684E457DD84EE94E0D1DD6BE048
:101D100082E0CEDB80E54FDD0E94680684E44BDD87
:101D200084EE94E0C5DDC0E0D5E18C2F6D2F0E94DC
:101D3000F942182F911109C0C53120F488E99AE3BE
:101D400052D0E7DB60E0812FB3DB8CE18C0F33DD19
:101D5000CF5FC43651F788E99AE345D0DADBDF91EB
:101D6000CF911F9108951F93CF93DF93C82FD0E099
:101D7000893C48F0CE01885C910928EC289FE0015D
:101D8000299FD00D112412E0209721F4DF91CF91EB
:101D90001F91089580918100877019F0A1D8219733
:101DA000F3CFC130D105C1F022979CE88091B200F9
:101DB000890F8093B3001093700083B7817F866092
:101DC00083BF83B7816083BF889583B78E7F83BFCE
:101DD00010927000A895D8CF9EE3D0E0C0E0E6CF87
:101DE00082E0C1CF0895EF92FF920F931F93CF939C
:101DF000DF93F82EE92EC5E6379B1BC0CF2DDE2DD5
:101E000015E500E0D7FD0FC0EBDF110F379B1F5F1B
:101E10001F731F3399F4011103C0CF2DDE2D04E091
:101E20000F5F083C78F0802FCDB7DEB7E6E00C946A
:101E3000454481E098DFC150F9F6E0CF111102C0AE
:101E40000111F1CFA8951C161D06E4F62A97D1F6CC
:101E5000CFEFDFEFD7CFCF9338DBC82F80913C0196
:101E60008823D1F0813051F4C73041F464E187E038
:101E70001FDB8BE2A0DC64E187E01ADB80E49FE1FA
:101E8000B2DFC73041F480913C01813021F460E041
:101E900087E00EDB93DB22DBCF91089540911501A3
:101EA000A0913A01B0913B01EDE8F1E030E020E093
:101EB000822F2417B0F451911C969C911C975917AE
:101EC00019F05581951303C02F5F3F4FF1CF220FBB
:101ED000331FF901E756FE4F20813181293E3340FF
:101EE00008F084E108951895189510921701109242
:101EF000150110926C0110924C0110921601109273
:101F0000380110927301E7E5F1E01082118212822C
:101F1000E7E7F1E0108A82E0818B10921D011786BD
:101F20001686148215821682178281EF838B08959C
:101F30008FE40E944E0786E40E944E0786E40E94CA
:101F40004E07DBDAD5DA29980E94640790E080E03A
:101F50004ACF08951F93CF93DF93162F11B812B86D
:101F6000E82FF0E0E955FC4F94919BB9262F281BF0
:101F7000E20FF11D27FDFA95E491E92BEAB90E94E1
:101F80009207EC01812F0E949207AC0120912D0154
:101F900030912E0136952795C9010397BE01625EE7
:101FA0007F4F8617970778F4255E3F4FC217D307F8
:101FB00050F4BA01625E7F4F8617970720F481E0E4
:101FC0004217530708F080E01AB8DF91CF911F91B4
:101FD0000895CF9361E080E0BDDFC82F62E080E02C
:101FE000B9DFC80F62E081E0B5DF8C0FCF910895B3
:101FF000AFE0B0E0EEEFFFE00C941D44B82E10927D
:102000001701807FB9F4E5DF833081F482DA8FEE47
:1020100095E04EDCBEDA8FE3CEDB80ED97E0E3DEC9
:102020008B30B0F476DA82E394E042DC2F96E2E182
:102030000C94394406E910E06CDA80E595E038DC70
:10204000C8DF833009F065C01F5F143008F462C038
:10205000A0DA0E94A0278EEE93E02ADC60E083E005
:1020600090E00E94DA4460E084E090E00E94DA446C
:1020700060E082E090E00E94DA4460E082E06BD8A9
:102080006C019A83898361E082E065D87C019C833E
:102090008B8360E081E05FD88C019E838D8323E099
:1020A00040E26EEFC6012CDD23E040E26EEFC70197
:1020B00027DD23E04DE16EEFC80122DD2AE5C216DF
:1020C000D10424F084E190E09A838983698183E0DC
:1020D00090E00E94DA448AE5E816F10424F084E1F5
:1020E00090E09C838B836B8184E090E00E94DA44D3
:1020F0000A35110524F084E190E09E838D836D8183
:1021000082E090E00E94DA4482E080933C01A3DE0A
:1021100006C010E088E227DE015009F08DCFEB2DDC
:10212000EF70EF87E13009F04FC0EE24E394F12C1B
:1021300068EB862E62ED962E67E4A62EB12C08E0A1
:1021400070E2D72EE0E83E2EC12C1E2D48E8242E4A
:1021500061DA5CDA84E52FDBC7010E945C060E942D
:102160006606113009F0AEC181E294E0A1DB64E0C3
:102170008091310190913201CEDC0BDA8CE194E058
:1021800097DB80917501909176010E945C068EEB41
:102190008093290111B812B81AB81BB888EE93E0E1
:1021A00022DE143011F08B3020F4C39484E0C81286
:1021B000CFCF88EE93E017DEEFEFEE1AFE0AF8E0DD
:1021C000EF16F10409F0C0CF18E703DF81116DC2EB
:1021D000A0D987EE93E06CDB23E04DE16FEF8091B7
:1021E0002F01909130018CDCD4D980EE93E060DB3C
:1021F00023E04DE16FEF809136019091370180DC53
:1022000082E080933C0127DE1092170182D98CED89
:1022100093E04EDB60E082E00E94822440907F01E8
:102220005090800160908101709082015C864B86A5
:1022300061E082E00E94822480907F019090800182
:10224000A0908101B09082019E868D8660E081E041
:102250000E94822400917F01109180011E830D83D2
:1022600062E080E00E94822480917F019091800151
:102270009C838B8362E081E00E94822480917F01B5
:10228000909180019A87898761E080E00E94822492
:10229000E0907F01F0908001FA82E982C2010E9401
:1022A0006506C4010E946506B801110F880B990BE1
:1022B00003E026E444EF40DB2F85213009F000C223
:1022C00082E0E80EF11CF886EF828E010F5F1F4F4F
:1022D0006E01EFE0CE0ED11CF801819191910A9729
:1022E000853B9105C8F4CE16DF06B9F732E2E32E3E
:1022F00030E0F32EF80160810E5F1F4F6E5EC70164
:102300000E94DA44FFEFEF1AFF0A0C151D0591F742
:1023100040D985EF94E0CCDA82E080933C019BDDEC
:102320000E94833B2F85213029F080913501823036
:1023300009F0B3C090E4F92E10E02AE0822E912C2F
:10234000A12CB12CD2DD0E94BB36009189012091D5
:102350007701309178014091790150917A01073FDE
:102360000CF4B8C100938901209377013093780170
:102370004093790150937A01073F09F0B3C1205689
:10238000310941095109203935454105510508F008
:10239000A9C160918B0170918C01CB018B569F4F2D
:1023A0008B32914008F09EC11F5F153008F49BC12D
:1023B00089E290E00E94E844ACD888E993E078DABA
:1023C00080918B0190918C010E9451060E9405081A
:1023D00046983E9A87E00E949207853D9340D4F745
:1023E0003E9810922C0110922B0187E00E949207D8
:1023F0007C01809171019091720190932C018093E6
:102400002B0187E00E9492076C01CC0CDD1C10921E
:102410002C0110922B0187E00E9492074C01A090A2
:102420007101B0907201B0922C01A0922B01B1D831
:1024300081E993E03DDA8BE290E00E94CD44182FD1
:10244000D701A80DB91DAC19BD0995010E948243A1
:1024500096010D2C000C440B550B0E944E431D5F42
:10246000120F612F8BE290E00E94DA44812F012E3F
:10247000000C990B0E9451060E94050882E080938F
:102480003C01E9DC1092350182E290E00E94CD44EB
:10249000682F85E290E00E94DA4489E18093290167
:1024A00080E00E94963E35D882E394E001DA71D84C
:1024B00086ED95E0FDD91092170182E080933C01F2
:1024C000CADCB4CD123091F520912D0130912E014E
:1024D000A8E5BBE10E94734324EC36E340E050E002
:1024E0000E944E432901F4E0FBB984E18AB980E0FF
:1024F0000E948707841995099A83898384E48AB99D
:1025000080E00E948707841995099C838B8380E172
:102510008BB980E58AB981E00E9487078419950903
:102520009E838D8386E094E0C3D937C0133059F57C
:102530000BB928E22AB980E00E94870720912D017B
:1025400030912E013695279538872F83821B930B68
:102550009A8389832AB880E00E9487072F81388573
:10256000821B930B9C838B83DBB880EA8AB981E062
:102570000E9487072F813885821B930B9E838D8352
:1025800088EF93E0D1CF1430D9F48FED95E090D956
:1025900020DD882311F0F2E0CF2E0E94C90A898144
:1025A0009A810E9451060E9466068B819C810E943E
:1025B00051060E9466068D819E810E945106EACDD9
:1025C0001530B1F41BB80AB980E00E9487079A83DE
:1025D0008983DAB881E00E9487079C838B833AB8AD
:1025E00082E00E9487079E838D8388E194E09CCFE0
:1025F000163051F50AB90BB980E00E948707209187
:102600002D0130912E01821B930B9A838983DAB8B6
:10261000DBB881E00E94870720912D0130912E01C7
:10262000821B930B9C838B833AB83BB882E00E9459
:10263000870720912D0130912E01821B930B9E83E1
:102640008D8384E194E070CF173009F0A6CF2091FC
:102650002D0130912E01A8E5BBE10E947343A50135
:1026600094010E942C4329010BB9ECE0EAB980E007
:102670000E948707841995099A838983DBB8F0E360
:10268000FAB981E00E948707841995099C838B839E
:102690003BB820EC2AB982E00E948707841995098B
:1026A0009E838D8382EF93E03FCF0E940A0B8FEDD4
:1026B00095E0FED884E657DB115009F086CD88CD31
:1026C00080913501823009F4FBCDF886EF821092BB
:1026D0003501FBCD0F5FCA01B901A50194010E942C
:1026E0002C433DCE10E00E94C90A609177017091A1
:1026F00078018091790190917A0104E026E440917B
:1027000089011AD90E94DE0A88E22DDBFA94F110C1
:1027100019CEC3CE8091350181110DC082E290E0C7
:102720000E94CD4461E0680F85E290E00E94DA44A7
:1027300081E0809335010895EF92FF920F931F93EC
:10274000CF93DF93D62FE82FF0E0E655FC4FE491CE
:10275000E2B9E1B91BB8E62FF0E0E955FC4FE4918E
:10276000EAB9CE2FCC0F88E8E82E83E1F82E8D2F22
:102770000E9487078C01CAB98E159F0508F1892B25
:10278000D1F00E94D70A8EE794E092D8D80120EACF
:1027900036E841E050E00E94884328E937EB40E00A
:1027A00050E00E942C43C90122E041E467EFA8D920
:1027B00011B812B81AB8CDB7DEB7E6E00C944544AC
:1027C0007801D5CF82E084B985B987E880937A0013
:1027D0001092C1000E946607599A519AC4B7C870F6
:1027E00084B7877F84BF0FB6F894A8958091600066
:1027F000886180936000109260000FBE84E980932E
:10280000640088E380937E001092B00087E080939C
:10281000B10078940E94A00AC111E9C580E185BF8A
:102820000E94E739379907C0DBDACF5FCC33D1F7A5
:1028300080E69DE604C08FE59DE6CF31C8F7909312
:10284000100180930F0110922A010E94A02788E1B5
:102850009FE00FB6F894A895809360000FBE909308
:102860006000CC3309F465C0C0E12DE3C22E21E045
:10287000D22E3DE5E32E31E0F32E10EF43E3B42EEC
:1028800051E2A52E62E1362E70E2272E8FEA0E94D9
:10289000740A84EA0E94740A0E94890A11B825DB2E
:1028A0000E94A0270E94820AB0D580913801882317
:1028B00071F00E94C90A83E994E00E94580C63E019
:1028C00080912D0190912E0126D988EC4CDA379B0E
:1028D00035C00E94C90A0E94AB238091170189303C
:1028E00009F043C00E94890A88E994E00E94580CCC
:1028F0000E94C90A63E080915101909152010BD965
:102900000E94660663E0809153019091540103D9BF
:102910000E94660663E08091550190915601FBD8B4
:102920008AEC21DA81E164DB80910F019091100142
:1029300033C20E943E318111FCCF96CF0E940A0B18
:1029400088E794E00E94580C11B883E00E948E073B
:102950004C010E947D0A63E02AE0289DC001299D68
:10296000900D1124D8D88CE3B1CF85E290E00E947D
:10297000CD44082F82E290E00E94CD44081B0093D2
:10298000350180E035DB0E940A0B84E596E00E9469
:10299000580C83E00E944E070E947D0A42E061E0ED
:1029A00080E0A3D542E060E081E09FD541E062E0B5
:1029B00080E09BD541E060E082E097D540E062E0B6
:1029C00081E093D540E061E082E08FD580911701EE
:1029D00081110EC00E94AB2360E082E00E9482243D
:1029E00061E082E00E94822460E081E00E94822413
:1029F00080911701833061F480911501823041F498
:102A000090918D0180918E01981302C00E94293807
:102A100080911701882331F0883031F480918A0148
:102A2000843F11F40E94A53F0E94890AD0923B0185
:102A3000C0923A01809117018630F9F485EC0E942A
:102A40009B0B60E188EF8CD868E080E00E94580A18
:102A50008BE296E00E94580C68E081E00E94580AE0
:102A60008CEA94E00E94580CE0913A01F0913B010D
:102A700062E0848195814FD8D7C2873069F484ECB5
:102A80000E949B0B60E188EF6BD868E080E00E94B9
:102A9000580A84E396E0DECF8A3071F488EC92E045
:102AA0000E94580CF0923B01E0923A0143E467E443
:102AB00081E40E946C06D0CF823009F040C084ECE3
:102AC00092E00E94580C42E365E481E30E946C06A8
:102AD00080E00E94E40A60914B0180914A01E62F58
:102AE000F0E0E95AFE4FE80FF11D319710820E9485
:102AF0009521E0914B0180914A01E80FFF27FF1FCC
:102B0000EE0FFF1FEE0FFF1FEA55FE4F6081718130
:102B10008281938102E02DE14FEF0E949C0C8EEBAD
:102B200092E00E94580C609147017091480190E03A
:102B300080E003E025E240E00E949C0CF5CE883066
:102B400001F58091870190918801890F9927991F3C
:102B5000029799F40E94FD2980913501882359F04C
:102B60000E94890A88E694E00E94580C0E947D0A1F
:102B700080E197E238D9DCD989CE80E00E942F2904
:102B8000D3CE8B3049F488E095E00E94580C0E9427
:102B90008A4081117BCEC8CE8C3019F48EEF94E040
:102BA000F4CF833009F004C180911501813009F020
:102BB00069C080E00E94240760918D01809193019B
:102BC000BBDD80E70E94FD0640E060918D018091B1
:102BD00093010E94CB3A60937701709378018093C0
:102BE000790190937A0180E00E94FE0A609177015A
:102BF000709178018091790190917A0102E026E448
:102C000042EF0E949C0C0E94680641E060918D0199
:102C1000809193010E94CB3A609377017093780181
:102C20008093790190937A0126E442EF0E949C0CF4
:102C300089E594E00E94580C0E947D0A0E947D0A5A
:102C400080917301882309F46FCEC1B911B880E077
:102C50000E94FE0A20917301222309F4B8C38091D7
:102C60005A01213009F04AC30E94C00620915A013E
:102C7000213009F03EC32091150121113AC30E9471
:102C8000B8296ACF823079F582E30E94DB0B8AE4AF
:102C900094E00E94580C90918D0130918E01931315
:102CA00008C080E00E943F0781E00E94360781E073
:102CB00089CF2091930180919401281307C080E06F
:102CC0000E94300781E00E944507F1CF321306C011
:102CD00081E080930A010E941307B0CF98133BC094
:102CE000C0930A01F8CF8330B1F5B0920A01809108
:102CF000930190918E01891303C021E020930A0172
:102D000040918D0130919401431302C0C0930A0198
:102D100020918F01821303C082E080930A01809189
:102D20009501481302C020920A0132130EC030925E
:102D30000A01981302C0A0920A0183E30E94DB0BF0
:102D40008AE494E00E94580CC6CF9817A1F38091B2
:102D50000A01823290F38AE396E00E94580C82E2E4
:102D600096E00E94580C0E94C90A80911501805D6E
:102D70000E94DB0B8AE20E94DB0B84E694E00E9457
:102D8000580C88E096E00E94580C0E947D0A86E06C
:102D90000E949B0B80E49FE1C1B9379BFECF23D8F3
:102DA000823308F421C30E943E318111FCCF6ECDE5
:102DB000843009F05CC180916C01882309F466C0FD
:102DC00080914C01882309F461C060914901809190
:102DD0004B010E94822440907701509078016090CE
:102DE000790170907A010091890160916B01809165
:102DF00069010E94822480913D0190913E01A09141
:102E00003F01B091400140915D0150915E016091A0
:102E10005F0170916001843F31E09307A105B10526
:102E200038F4443F21E052076105710508F000EFD6
:102E3000443F51406105710538F4843F9140A1053C
:102E4000B10510F01093890180918901801311C0A0
:102E50008091770190917801A0917901B0917A01E8
:102E6000481659066A067B0630F08CE080931601FE
:102E700005C00817D4F73DE03093160180916C012E
:102E8000882321F080914C018111D1C068E080E05D
:102E90000E94580A80EC0E949B0B809116018C3096
:102EA00009F0CEC088EC94E00E94580C80916C012F
:102EB000882319F080E70E94DB0B0E944E0FD82F69
:102EC000853098F4A0913A01B0913B01E82FF0E0F1
:102ED000E357FE4F1D969C91808162E0981301C0DC
:102EE00060E08CEC92E00E94C20B60E189EF0E94EE
:102EF000B00D88E00E94E40A84ED94E00E94580C32
:102F0000E0913A01F0913B0160817181828193816E
:102F100003E020E04EEF0E949C0C89E00E94E40A4E
:102F200089E40E94DB0BE0913A01F0913B0186813C
:102F300097818031974208F496C085E60E94DB0BAA
:102F4000E0913A01F0913B0186819781805197424F
:102F5000978386830E946A06E0913A01F0913B01D3
:102F600022E041E46AEF868197810E94800D88E02B
:102F70000E94E40A80EB94E00E94580CE0913A0130
:102F8000F0913B0163E0848195810E948B0D81E08B
:102F900080933C01E0913A01F0913B01808591855D
:102FA000892B91F087E00E94FE0A8CE294E00E9457
:102FB000580CE0913A01F0913B0122E041E46AEFC4
:102FC000808591850E94800DE0913A01F0913B014E
:102FD00082859385892B91F087E00E94FE0A86E224
:102FE00094E00E94580CE0913A01F0913B0122E0FC
:102FF00041E46AEF828593850E94800DD53078F494
:1030000080E00E94FE0A8D2F0E9424078CEA94E043
:103010000E94580C8D2F0E94EF060E947D0A43E407
:1030200062E485E40E9493060E947D0A7DCC379974
:103030002DCF8091160191E089278093160126CF2C
:10304000F0923B01E0923A0187E093E00E94D80BB6
:1030500080EC94E00E94580C80914C01882309F484
:103060002CCF8EE628CF83E60E94DB0B73CF853012
:1030700009F0F0CD68E080E00E94580A80911601C6
:10308000D82FD07184FF66C080E50E94DB0BF092E0
:103090003B01E0923A01D2E00E946806809116015D
:1030A000082F0F70043009F059C08FED94E00E9492
:1030B000580C83EC0E949B0B80E193E0D1116AC015
:1030C0000E944E0F853098F4A0913A01B0913B01D7
:1030D000E82FF0E0E357FE4F1D969C91808162E05F
:1030E000981301C060E08CEC92E00E94C20B60E19A
:1030F00089EF0E94B00D88E00E94E40A88E00E94F7
:10310000E40A8091160185FD61C088EA94E00E947E
:10311000580CE0913A01F0913B0162E08285938581
:103120000E948B0DE0913A01F0913B016685848508
:103130000E94822488E00E94E40A0E94700C87E0CA
:103140000E94880C4FE367E48FE3043009F46ACFF0
:10315000912CC2C08EE40E94DB0B9ECF85FF1DC068
:1031600084E40E94DB0BDF5F0330D9F489ED94E047
:103170000E94580C81EC0E949B0B8DE593E0D130AE
:1031800049F089E693E0D23029F089E393E0D33027
:1031900009F096CF0E94D80B93CF85E40E94DB0BF9
:1031A000E3CF84EE94E00E94580C82EC0E949B0BCB
:1031B00089E293E0D13071F38FE293E0D23051F3A2
:1031C000D33009F07DCF87E193E0E4CFE0913A017D
:1031D000F0913B018F70843009F454C0668584857A
:1031E0000E9482240E94700C60E085E00E94580AD0
:1031F00089E40E94DB0B84E60E94DB0B0E946A06D6
:10320000E0913A01F0913B0122E041E46AEF8681CE
:1032100097810E94800D82EA94E00E94580CE09110
:103220003A01F0913B0162E0828593850E948B0D0B
:10323000E0913A01F0913B0180859185803C92417B
:10324000F8F480E00E94FE0A89E40E94DB0B84E629
:103250000E94DB0B0E946A0622E041E46BEF90E0E3
:1032600080E00E94800D82EA94E00E94580CE09178
:103270003A01F0913B0162E0808591850E948B0DBF
:1032800080E05ECF84819581892B09F4ADCF88EBF6
:1032900092E00E94580CE0913A01F0913B0122E04B
:1032A00041E46AEF848195810E94800D9DCF911049
:1032B00003C080E00E94E40A80E00E94FE0A892D9B
:1032C0000E9424078CEA94E00E94580C892D0E94E9
:1032D000EF060E947D0A939480911501981638F3A9
:1032E00044E467E483E5033009F09CCE43E467E4FB
:1032F00098CE40E0692F0E946E2816CB90915B011A
:1033000034E0939FD0011124A655BE4F34E0839F33
:10331000F0011124E655FE4F4D905D906D907C902C
:103320004081518162817381992E4415550566054E
:10333000770508F0982E223061F5980F83E0982EDB
:10334000991A892C869402E009197724739499209C
:1033500011F082E0782E882D0E944A0C85E494E0DA
:103360000E94580C802F0E944A0C85E494E00E9431
:10337000580C872D0E944A0C80E00E94E40A81E0EC
:10338000911080E00E94CA0682E088190E94CA0655
:10339000CBCA80915C0194E0899FD0011124A6558D
:1033A000BE4F24E0929EF0011124E655FE4F4D9051
:1033B0005D906D907C904081518162817381441554
:1033C00055056605770508F0BCCF982EBACF82E187
:1033D00096E00E94580C0E94C90A8FE396E00E9472
:1033E000580C8AE396E0CFCC811150CAB5CB0E942D
:1033F000820A8FEF95E00E94580C8BEC0E94B30E6E
:103400000E94980F90E080E008950F931F93CF9350
:10341000DF9385E00E94920785E00E948E078C0171
:10342000EC012F96CC0FDD1FCC0FDD1F1092330166
:10343000CE01845893408939914270F089EE94E02E
:103440000E94580C0E94DE0A81E080933301DF91D4
:10345000CF911F910F91089588EF94E00E94580C2E
:1034600062E0CE010E948B0D0E946606093183E066
:10347000180788F48FE496E0083E124070F488E460
:1034800096E00E94580C0E94DE0A8DEC0E94B30E5A
:103490000E94980FDCCF85EF94E00E94580C0E94A8
:1034A000DE0AD5CFFC019C01261B370BCA0170E058
:1034B00060E0A901460F511D452F5527620F240FCB
:1034C000351FAC01470F511D452F5527780FDA01E5
:1034D000AA0FBB1F8A0F9B1F4B3E20F4E217F30776
:1034E00040F7089590E080E00895A7E1B0E0EBE7B1
:1034F000FAE10C941D448E8B162F042FA895E62F0D
:10350000F0E0E955FC4F24912D87220F2D8B339647
:1035100034913A83E42FF0E0E955FC4F44914B831A
:10352000E42EEE0C3396F490E82FF0E0E955FC4FD2
:1035300084918983880F8E87339694919F8B4BB9A2
:103540004D84442A4AB891B992B9862F0E948E07B9
:103550009C878B878B818E298BB95D845E285AB8B6
:10356000812F0E948E07ED85EAB9812F0E948E0778
:103570001C011AB80E946F071BB84AB8812F0E941D
:103580008E076B857C850E94F1074C01FA81F1B9A9
:1035900012B82B813981232B2C832BB92AB98E8920
:1035A0000E948E070E94F7075C011BB80E946F07FC
:1035B00049814BB98E890E948E070E94F7076C01E2
:1035C00089818AB98E890E948E070E94F7073C0183
:1035D000B601C5010E94F1078032E1E09E0730F498
:1035E000F0E28F16F1E09F0608F4BAC58C0C9D1C22
:1035F0002B853C85820F931F8816990618F4DC866C
:10360000CB86130120914C0180916C01820F992788
:10361000991F02974CF0213009F0A2C59091490101
:103620008091690198139CC539813E293A878B8521
:103630009C858437910508F497C10A96880F991FD5
:103640002816390608F090C19F8991B992B95AB8E5
:10365000812F0E948B076C01802F0E9492075C01D2
:10366000EBB8812F0E948B079601295A3D4F12B863
:103670002817390708F0B1C0EA81E1B9FA85FAB92B
:10368000FBB9802F0E948B0788349F4008F46BC0E1
:1036900085E08093170182E280931601D092420167
:1036A000C0924101B501C6010E94FC0790934801F8
:1036B000809347019601A0E1B7E20E9473432091F5
:1036C00011013091120150E040E00E942C433093F0
:1036D0004401209343018D898E298AB91BB83F8903
:1036E00031B932B9802F0E9492076C01812F0E945C
:1036F0008B07B6010E94FC079C01909346018093C2
:103700004501909116019F70943091F112B84A8151
:10371000F42AF1B889818AB99C819BB98E890E946B
:103720008E076C010E94F7077C01812F0E9492078F
:10373000A0901801B0901901BC01C6010E94FC07BD
:103740009501DC010E947343970150E040E00E9424
:103750002C43309342012093410180914C018F5FB3
:1037600080934C018BC385E08093170184E294CF52
:10377000409143015091440160914701709148018B
:10378000C90190DE0097F1F0EAB8EF89FA81EF2BDA
:10379000E1B9812F0E948B076C0111B89C01A0E157
:1037A000B7E20E947343209136013091370150E017
:1037B00040E00E942C43A901B601809145019091FF
:1037C000460170DE90934201809341018091160181
:1037D0008F70843009F4C1CF99CF2A8121B93A85FD
:1037E0003AB93BB98E890E948B076C01802F0E94E9
:1037F00092075C0149814BB98E890E948B07895AD7
:103800009D4F8C159D0508F0ABC48F8982B981B995
:10381000802F0E948B07813D934008F067C085E0B0
:103820008093170182E380931601B601C5010E94BF
:10383000FC079093680180936701C6010E94F70717
:103840009C01A0E1B7E20E947343209118013091DE
:10385000190150E040E00E942C4330936401209312
:10386000630112B8FA81F1B98E858E298AB98BB9B4
:103870008E890E9492076C01802F0E948B07B601EF
:103880000E94FC079C0190936601809365019091D2
:1038900016019F70943079F12F892F2922B921B90F
:1038A0001BB83C813AB98E890E948E075C01812F3A
:1038B0000E9492077C01C0901101D0901201BC01BE
:1038C000C5010E94FC079601DC010E947343970129
:1038D00050E040E00E942C4330936201209361014C
:1038E00080916C018F5F80936C01B8C085E08093FC
:1038F000170184E398CF4091630150916401609176
:10390000670170916801C901CDDD009711F1EBB835
:10391000EAB84F8942B9EA81E42BE1B98E890E9465
:103920008B070E94F7076C0111B89C01A0E1B7E278
:103930000E94734320912F013091300150E040E00C
:103940000E942C43A901B601809165019091660106
:10395000A9DD9093620180936101809116018F70BF
:10396000843009F4BDCF98CF12B88A8181B999818A
:103970009BB9EA85EAB98E890E948E07988B8F875A
:103980000E94F7079F838E83802F0E94920799875A
:1039900088873101F4E66F0E711C2E813F81B101E1
:1039A0006216730608F06BC0C9010E94FC076C0127
:1039B000209118013091190150E040E060E871EA6F
:1039C00083E09CE10E942C43D6010E948843E88555
:1039D000F9859F0150E040E00E942C4349015A01C3
:1039E0001AB81BB8FF89F2B9F1B981E00E94B30E91
:1039F0004AB8812F0E948E078F359D4008F483C1FD
:103A00005AB8812F0E948B076C01802F0E94920769
:103A10009A8B898B8E890E9492079C8B8B8B8989CC
:103A20009A89813D974008F4FBC0EBB8812F0E9432
:103A30008B078115944008F441C0809117018430B0
:103A4000E8F58AE08093170169897A898B899C89D6
:103A50000E94FC07909362018093610181E0909144
:103A60006C019F5F90936C01882309F434C4009328
:103A7000690110936A014E8940936B012CC48E81B9
:103A80009F810E94FC076C01FC81FAB98E890E941B
:103A90008E07988B8F870E94F7079F838E83802FD6
:103AA0000E94920799878887BC01C6010E94FC0783
:103AB0009C01A4E6B0E00E94734389CF84E0809328
:103AC00017018DE08093160176012C143D0410F44B
:103AD000E218F3084090110150901201712C612CF2
:103AE00060E871EA83E09CE1A30192010E942C430B
:103AF000D7010E948843E989FA899F0150E040E09C
:103B00000E942C4380916C01882371F080915D01AB
:103B100090915E01A0915F01B091600182179307BF
:103B2000A407B50708F076C020935D0130935E01CD
:103B300040935F01509360019601A0E1B7E20E94BB
:103B40007343A30192010E942C433093640120939C
:103B5000630169897A898B899C890E94FC0790930B
:103B600062018093610181E040915D0150915E01AD
:103B700060915F0170916001481559056A057B05E8
:103B800008F04AC080925D0190925E01A0925F01B0
:103B9000B0926001688579858F8598890E94FC07BD
:103BA00090936201809361012E813F81A0E1B7E291
:103BB0000E947343209118013091190150E040E0B8
:103BC0000E942C43205F384D3093640120936301A1
:103BD000C0901101D0901201F12CE12C9101A0E1D3
:103BE000B7E20E947343A70196010E942C433093D1
:103BF0006601209365012B853C85A0E1B7E20E9418
:103C00007343A70196010E942C43309368012093CF
:103C1000670124CF80E0A8CF882309F420CFD8CF34
:103C2000F1E62F16310408F06EC021EDC21627E030
:103C3000D20608F468C085E08093170182E1809382
:103C40001601C60186509F4FEB89FC898E179F078E
:103C500008F042C083E180931601FA81F770BF2E0D
:103C6000802F806480937C002BE02983CC24C39434
:103C7000D12CEE24EA94A3E0FA2EA89561E08B8182
:103C800053D55AB880B18B21E9F33D853AB980917B
:103C90007A00806480937A0080917A0086FDFCCF60
:103CA0008091780090917900F701E81BF90BCE0E16
:103CB000DF1EF981F150F983F111DFCFC601880FC2
:103CC000991F880F991F69E070E00E940543709367
:103CD00068016093670104CEE0901101F090120139
:103CE000B6018B899C890E94FC079701DC010E9428
:103CF0007343960150E040E00E942C4330936201F0
:103D000020936101AACF5AB8EBB8812F0E948E0789
:103D10005C01802F0E9492079F838E830E94F70789
:103D20007C016A147B0408F0ABC0B101C5010E949C
:103D3000FC076C01209111013091120150E040E02C
:103D400060E871EA83E09CE10E942C43D6010E9466
:103D50008843970150E040E00E942C4329013A013A
:103D60003A8131B912B84C814AB94BB98E890E9457
:103D70008E076C01802F0E9492074C01812F0E94B8
:103D800092077C0180E3C81681E1D80608F0E6C1FD
:103D900099819BB98E890E948E0799878887E981CE
:103DA000EAB98E890E948E07988B8F871BB881E0B5
:103DB0000E94B30EF981FBB98E890E948E072F8570
:103DC00038892034364008F079C08133914108F4B5
:103DD00075C0C6018A569F4F28853985281739072F
:103DE00008F06CC086E08093170180914C018F5FD2
:103DF00080934C01B701C4010E94FC0790934201DB
:103E000080934101B701C6010E94FC0790934801CD
:103E1000809347011AB81BB83A8132B981E00E94F9
:103E2000B30E49814AB98E890E948E07853F91055C
:103E300028F58C818AB9802F0E948E07813D93409E
:103E4000E8F08E890E9492078D3D9240B8F029815A
:103E50002AB98E890E948E078D3D924078F0498163
:103E60004BB981E00E94B30E1BB88E890E948E0769
:103E7000853F910518F487E08093170181E0F3C036
:103E80004AB82B812BB9812F0E948E075C01802FAD
:103E90000E9492079F838E830E94F7077C01C501D1
:103EA0002A143B0410F482199309B7010E94FC07FD
:103EB0009C01A4E6B0E00E9473434BCF8A8181B994
:103EC0009B819AB99BB981E00E94B30EEA85EAB959
:103ED000EBB98E890E948E076C010E94F7077C0166
:103EE000802F0E9492079D838C830E94F7079987F9
:103EF0008887812F0E9492074C01288539852E3FA3
:103F0000394008F4C0C084E0809317018CE08093AE
:103F10001601B101C7010E94FC076C012091180134
:103F20003091190150E040E060E871EA83E09CE1E3
:103F30000E942C43D6010E948843E885F9859F01A1
:103F400050E040E00E942C4380914C01882371F0A6
:103F500080913D0190913E01A0913F01B0914001BF
:103F600082179307A407B50708F079C020933D0195
:103F700030933E0140933F0150934001B4018C8146
:103F80009D810E94FC07909342018093410197011B
:103F9000A0E1B7E20E94734320911801309119010A
:103FA00050E040E00E942C433093440120934301B1
:103FB00081E040913D0150913E0160913F0170913F
:103FC0004001441555056605770508F04AC0409242
:103FD0003D0150923E0160923F0170924001B50157
:103FE0008E819F810E94FC07909342018093410142
:103FF0009501A0E1B7E20E94734320911101309135
:10400000120150E040E00E942C43205F384D309375
:104010004401209343019101A0E1B7E20E94734360
:10402000209111013091120150E040E00E942C4398
:1040300030934601209345012B853C85A0E1B7E2F2
:104040000E947343209118013091190150E040E023
:104050000E942C4330934801209347010FCF80E00A
:10406000A8CF8111D8CF90914C019F5F90934C01C4
:10407000882309F430C1009349018E8980934A0155
:1040800010934B0128C1F1E62F16310408F066C0E9
:1040900029E4E2162DE0F20608F460C085E0809382
:1040A000170182E080931601C40186509F4F8C1542
:1040B0009D0508F03DC083E0809316013F8937706D
:1040C000D32E802F806480937C004BE04A83EE24C3
:1040D000E394F12CA89560E08B8126D38A858AB978
:1040E0008BB980B18D21E9F799819AB980917A00D5
:1040F000806480937A0080917A0086FDFCCF809165
:10410000780090917900E80EF91EEA81E150EA8387
:10411000E111E0CFC701880F991F880F991F69E04F
:1041200070E00E940543709348016093470115CBEE
:10413000A0901801B0901901B401C6010E94FC07BB
:104140009501DC010E947343970150E040E00E941A
:104150002C433093420120934101B0CF11B812B8E3
:104160001AB81BB811B8F7EC2F16F1E03F0608F4A7
:10417000D8C012B82E852AB908ECEA803F89E32A14
:10418000E1B881E00E94B30E4A8141B98E890E9454
:104190009207429710F0015099F78E858AB98BB932
:1041A00061E08B81C1D28E890E948E074C019D896E
:1041B0009AB91BB8EF89E1B9E2B960E08B81B4D25A
:1041C000812F0E948E070E94F7076C01FD85FAB9C6
:1041D000812F0E9492077C018E890E948E07B70171
:1041E0000E94FC075C01812F0E9492077C018E894E
:1041F0000E948E07B7010E94FC0795012C5E3F4F7D
:104200002817390708F467C012B82A8121B9398103
:104210003AB93BB961E08B8187D2812F0E94920726
:104220007C018E890E948E07B7010E94FC077C01E9
:10423000A816B90608F05AC04E854AB94BB98E89FE
:104240000E948E07FC01640128E4C21626E0D20613
:1042500008F05DC0960153E0369527955A95E1F731
:1042600048EEE41643E0F40608F054C0C70164E6E3
:1042700070E00E940543C70187599109893891412F
:1042800008F04FC0EE15FF0508F04BC02C0D3D1D8A
:104290002E153F0508F045C06C157D0508F041C09E
:1042A00080911701833018F483E0809317012091E7
:1042B0001501822F90E0FC01E357FE4F3E893083C9
:1042C0001683880F991FFC01E756FE4FF182E082AA
:1042D0002F5F2093150111B812B81AB81BB88EE2DF
:1042E0000E94DB0B6796E2E10C9439448D898AB910
:1042F0001BB89F8991B992B960E08B8115D2812F4B
:104300000E948E070E94F707FC0175019DCF28ECE3
:1043100030E0A6CFB70144E0769567954A95E1F77E
:10432000AACF612F8E8901D0D6CFB0E0A0E0EBE913
:10433000F1E20C941F44C82FD62FA895862F90E049
:10434000FC01E955FC4F5490339624914C2F50E0DA
:10435000FA01E955FC4F14913396049160916C0178
:1043600030914C01630F7727771F672B09F065C0E9
:10437000A89560911B0170911C01660F771F660F55
:10438000771F70932E0160932D01609171017091E0
:104390007201660F771F660F771F70932C01609371
:1043A0002B013EEB3093290130911501EDE8F1E04E
:1043B000DF01480F591F9A2F9E1B931708F112B85F
:1043C00021B91AB91BB9B8E1BB2ED12CC12C8D2F44
:1043D0000E948E07782E692E8C2F0E9492077C01F6
:1043E0008C199D0997FF03C09195819591090397B9
:1043F0000CF46BC1A895BA946701B110E8CF0AC05C
:104400008D9115966C911597680F7727771F641714
:10441000750789F680911B0190911C0190932E01E4
:1044200080932D01809171019091720190932C01E4
:1044300080932B0189E180932901CDB7DEB7E0E1BC
:104440000C943B4425E8C21621E0D20618F7043A42
:10445000A2E01A0708F0B1C0B8E9AB16B104D0F277
:10446000C6010E94F707AC019601A8E9B7EB0E94CC
:1044700073439A0150E040E00E942C4329013A0125
:10448000C5010E94F7079C01A8E9B7EB0E9473439E
:10449000950150E040E00E942C4388E7C8168FE069
:1044A000D80608F06EC0F2E0440C551C661C771C60
:1044B000FA95D1F7C301B201620F731F841F951FD4
:1044C00025E030E040E050E00E942C43A4E6B0E05C
:1044D0000E9488436B017C01BCEACB0EBDE0DB1E71
:1044E000E11CF11C10911701143008F093CFC1505A
:1044F000DC0F8D2F90E0FC01E95AFE4F2081880FE0
:10450000991F880F991F86559E4FDC01222309F4BD
:10451000C1C08D909D90AD90BC90A70196012819C7
:1045200039094A095B0957FF07C0509540953095F6
:1045300021953F4F4F4F5F4FAAE0B0E00E94884364
:10454000B4E68B0E911CA11CB11CC80CD91CEA1C32
:10455000FB1C6C157D058E059F0508F05BCF1330A5
:1045600019F081E08093170182E0808380917301CC
:10457000E82FF0E0E65AFE4FD0838F5F80937301FF
:1045800049CFA8E7AA16AFE0BA0670F4E2E0220F1E
:10459000331F441F551FEA95D1F7CA01B901640DB5
:1045A000751D861D971D8CCF240D351D461D571D6D
:1045B000569547953795279589CFC0901801D0908B
:1045C0001901672D762DE616F70608F4B701C70125
:1045D0000E94FC079601DC010E9473432B013C0101
:1045E000C7010E94F7079C0150E040E0C301B201FF
:1045F0000E942C4329013A01A0901101B0901201B0
:10460000892D982D8017910708F4C801B8010E94E0
:10461000FC079501DC010E947343980150E040E0E3
:104620000E942C4388E7E8168FE0F806B0F462E0B9
:10463000440C551C661C771C6A95D1F7C301B20166
:10464000620F731F841F951F25E030E040E050E0AB
:104650000E942C4369017A0145CF0837AFE01A0761
:1046600070F4CA01B90152E0660F771F881F991FC5
:104670005A95D1F7640D751D861D971DE5CF730101
:104680006201C20ED31EE41EF51EF694E794D79481
:10469000C79428CFCD92DD92ED92FC92139781E0E2
:1046A0008083B8CE550C5AB88D2F0E948E075C01BE
:1046B000B0ECEB16B4E4FB0608F4C4CE80EBC816ED
:1046C0008DE4D80608F0A6CEC2CE110F1BB81AB9D9
:1046D0008C2F0E948E078135910508F09BCE1BB967
:1046E0008C2F0E948E076C0101B902B91BB85AB811
:1046F000A8E14A2EB12CA12C8C2F0E948E07982E57
:10470000892E8D2F0E9492078C018A199B0997FF91
:1047100003C0919581959109039724F2A8954A9435
:1047200058014110E9CF76CECF93C82FC0959BB1E9
:1047300060FF0FC0982B9BB99AB1982B9AB90E9431
:10474000F00E8AB18C238AB98BB18C238BB9CF91AF
:1047500008959C23F0CFAF92BF92DF92EF92FF9229
:104760000F931F93CF93DF931AE08CEFD82E09E0BD
:1047700011B812B81BB8DAB880E00E948E077C012D
:1047800081E00E949207EC0182E00E9492079C0166
:10479000809117018930C1F411B81AB8F092520112
:1047A000E0925101D0935401C093530130935601CC
:1047B00020935501DF91CF911F910F91FF90EF90C2
:1047C000DF90BF90AF90089584E0E816F10450F4B4
:1047D000C430D10508F04EC024303105E8F291E034
:1047E00092600AC091E088EEE81683E0F80608F0CF
:1047F00090E0C83ED340A0F3283E334008F49460D4
:1048000091B9D0E0C0E0A89580E00E9487075C01E4
:1048100081E00E9492077C0182E00E94920724E1DD
:10482000A21625E0B20608F4089A24E1E21625E073
:10483000F20608F4099A843125E0920708F40A9AEE
:1048400026E0A216B10430F426E0E216F10410F4DA
:10485000069738F02196C43F81E0D807A1F600936F
:104860001701F12CE12CEC16FD0631F4115009F082
:104870007FCFA0CF91E0BDCF0E9475072FEFE21A46
:10488000F20AF1CFCF92DF92EF92FF92CF93209175
:104890007701309178014091790150917A01C0916E
:1048A00089018AE0C82ED12CE12CF12C8C2FCF5F0E
:1048B000213A96E8390791E049075105E0F48093E1
:1048C0008901A0912D01B0912E010E94884328E812
:1048D00033E140E050E00E942C4320937701309375
:1048E00078014093790150937A01CF91FF90EF9036
:1048F000DF90CF900895CA01B901A70196010E94E7
:104900002C43D4CF8F929F92BF92CF92DF92EF929F
:10491000FF920F931F93CF93DF93C82FB62E880F6C
:104920008C0F9FEF960F890F80934E01EC2FF0E0D4
:10493000E955FC4FD491862F90E0FC01E955FC4FDE
:104940001491FC01E655FC4FD49080911701909191
:1049500015012DE831E0D9018130F9F4DF91CF91D3
:104960001F910F91FF90EF90DF90CF90BF909F909D
:104970008F90089516968C9116978B110DC08C917F
:104980008C130AC0FD01EE0FFF1FED58F140448566
:1049900055854C3D554010F311968A2F821B89177F
:1049A00048F3109284011092830181EF8093890172
:1049B00010927701109278011092790110927A0189
:1049C000CADE12B8D1B81AB91BB98C2F0E9492074F
:1049D0008C018B2D0E9492071AB8109250011092F0
:1049E0004F014C01801A910A80914F019091500122
:1049F000843F914028F011B812B81AB81BB8AECF56
:104A0000DBB9DAB90E946F071AB81BB80E947607A3
:104A1000A8958C2F0E9492077C01E80CF91C8091CC
:104A20004F01909150018E37910520F02BE4E21652
:104A3000F1040CF38DE2E81681E0F8060CF030C2C8
:104A400080914F0190915001019690935001809375
:104A50004F01CACF85E1E81685E0F8060CF4FBC1EA
:104A60007ADE1BB887E081B912B8FD2EFF0CFAB8C8
:104A700080E480937B0084E580BF8C2F80648093EA
:104A80007C0087E180937A000E94790710925001A0
:104A900010924F01109280001092850010928400B5
:104AA00087E286BB81E280936F0081E0809374018E
:104AB000FBB890911701953009F0D2C18093810025
:104AC00081E090E00C2E01C0880F0A94EAF78095EF
:104AD000877081B9F89483B7817F83BF8091740117
:104AE000882389F083B7816083BF7894889583B7E2
:104AF0008E7F83BFF894A89580914F0190915001CB
:104B000080389C4059F7789410928100E09086009C
:104B1000F090870010926F0087E980937A001AB8AE
:104B20001BB88C2F0E9492072091310130913201E5
:104B3000821B930B0C9690938C0180938B01809138
:104B40004F01909150018034964008F054CF8091ED
:104B50004F01909150019093820180938101F092D6
:104B60008001E0927F0184EF8093890180914F0161
:104B70009091500182349105C8F060917F0170914D
:104B80008001809181019091820124E630E040E033
:104B900050E00E942C4320937F013093800140938A
:104BA00081015093820186EF80938901A091750164
:104BB000B091760120917F01309180014091810177
:104BC000509182010E94884320E436E040E050E0AA
:104BD0000E942C4320937F013093800140938101F8
:104BE00050938201209377013093780140937901AB
:104BF00050937A0147DE80918901843F09F056C0C5
:104C0000C0907701D0907801E0907901F0907A011E
:104C100080EAC8168FE0D806E104F104C0F4A701C9
:104C200096012C543F4F4F4F5F4F60EA7FE080E08A
:104C300090E00E942C43C20ED31EE41EF51EC092CB
:104C40007701D0927801E0927901F0927A01C090D8
:104C50007701D0907801E0907901F0907A01C11449
:104C6000D10421E0E206F10408F0FEC0D092BB01BD
:104C7000C092BA0180914E0190E08E5D9F4F0E94DC
:104C8000CD4490E0B0E0A0E08C159D05AE05BF05D9
:104C900008F0F1C0C81AD90AEA0AFB0AC0927701E3
:104CA000D0927801E0927901F0927A01DAB980919C
:104CB000770190917801A0917901B0917A0149979B
:104CC000A105B10508F082C096CE0E9470078C2F16
:104CD0000E949207880D991DA8950F5F1F4F209184
:104CE0004F01309150012017310778F76701C81A3A
:104CF000D90A1C141D040CF0B0C029ECC216D10452
:104D00000CF079CE28EE33E0D6010E948243970161
:104D10000F2C000C440B550B0E942C4389018091F1
:104D20004F01909150010196B0E0A0E080937F0187
:104D300090938001A0938101B0938201C7018C0DF3
:104D40009D1D0E94580820917F0130918001409163
:104D5000810150918201DC010E94884360937F01B0
:104D60007093800180938101909382016093770119
:104D7000709378018093790190937A0187EF809303
:104D8000890180DDC0907701D0907801E0907901B1
:104D9000F0907A0185E090E00E94CD44A8EEB3E067
:104DA000A81BB10987FDB395A70196010E94924304
:104DB00024E630E040E050E00E942C43209377014D
:104DC000309378014093790150937A0180911501D5
:104DD000882329F080911701853009F00CCE88E0F6
:104DE000809317018091890190918A019817C4F0EE
:104DF000891301CEC0907701D0907801E0907901BD
:104E0000F0907A0140917B0150917C0160917D018D
:104E100070917E014C155D056E057F0508F0EBCDA8
:104E200040917701509178016091790170917A01F8
:104E300040937B0150937C0160937D0170937E01D0
:104E400080938A011093860100938501B0928701B7
:104E5000C0938801D0CDC70142CF10E000E05FCF02
:104E600080938100D1B836CE81E090E09093BB0171
:104E70008093BA01FFCE24E1C20ED11CE11CF11CCB
:104E8000C816D906EA06FB0610F40E948A1310928F
:104E90007701109278011092790110927A0106CF71
:104EA00000914F01109150010115110509F4D2CD67
:104EB000C70110E000E013CF1F921FB61F9211240C
:104EC0008F939F93B59904C080917401811109C09B
:104ED000B59B10C080918600909187008A3F910514
:104EE00048F480914F0190915001019690935001A8
:104EF00080934F019F918F911F901FBE1F90189517
:104F00001F921FB61F9211248F939F9310927401CA
:104F1000B09B10C080918600909187008A3F9105D8
:104F200048F480914F019091500101969093500167
:104F300080934F019F918F911F901FBE1F901895D6
:104F4000B0E0A0E0E6EAF7E20C94234488E893E1BD
:104F500090931C0180931B0190932E0180932D014F
:104F60008EEB8093290112B880E181B90E947E07FF
:104F700011B884E00E948E07AC018B5C9840833F9F
:104F80009140A0F481E08093380120912D0130916F
:104F90002E01AFEBB9E00E9473439A0150E040E06C
:104FA0000E942C4330931C0120931B0180911B0114
:104FB00090911C0190932E0180932D018EE10E940F
:104FC00092078EE10E948E07909332018093310107
:104FD0000E940508C0DB12B8FF24F394F1B884E501
:104FE0008BB9D4E0DAB980E00E948E078C01C2E070
:104FF000C1B980E1C82ECAB881E00E948E07080FAF
:10500000191FD1B990E4D92EDAB882E00E948E0738
:10501000080F191F1BB8F2B8F1B8DAB980E00E9486
:105020008E070E94F7077C01C2B9C1B9CAB881E0F6
:105030000E948E070E94F707E80EF91ED2B9D1B977
:10504000DAB882E00E948E070E94F707E701C80FD6
:10505000D91F11B812B81AB880912D0190912E0164
:105060006C01CC0CDD1CC80ED91EC8018C0F9D1F15
:10507000C81AD90AF12CE12C9801A0E9BAE10E94E2
:105080007343A70196010E942C4349015A013093B2
:105090003701209336019E01A0E9BAE10E947343D3
:1050A000A70196010E942C433093300120932F01D9
:1050B0002057354E309319012093180180E7881A44
:1050C00085EE980A909212018092110189E18093F5
:1050D0002901CDB7DEB7ECE00C943F44CF92DF92CC
:1050E000EF92FF920F93CF93DF93F82EC62FD42F1A
:1050F0000E944A0C85E494E00E94580CF7D16C2F72
:105100008F2D0E94123DC090BE01D090BF01E09053
:10511000C001F090C10180911D0187FD05C0C1143F
:10512000D104E104F10421F081E494E00E94580CE0
:105130008C2F0E944A0CC114D104E104F10431F017
:105140000E94660680915A010E94CA06DD2309F476
:1051500059C080913901823108F054C08650990BB2
:105160008750944F0E94580C80E00E94FE0ACD2880
:10517000CE28CF2809F449C06091BE017091BF01CB
:105180008091C0019091C10103E028E447EF0E94A3
:105190009C0C84E594E00E94580C8CE290E00E9404
:1051A000D54423E046E464EF0E94800D8091B6016F
:1051B0009091B701A091B801B091B901892B8A2BC8
:1051C0008B2BF1F180E00E94FE0A6091B601709194
:1051D000B7018091B8019091B90104E028E440E062
:1051E0000E949C0C8FE494E00E94580C23E040E263
:1051F0006FEF8091BC019091BD010E94800D0E94D3
:10520000DE0A25C00E94DE0AAFCF80915A010E94BB
:10521000CA0680911D018E3F4CF682E894E00E9400
:10522000580C6091A5017091A6018091A701909101
:10523000A80103E028E440911D010E949C0CB6CF18
:1052400080E00E94E40A80913C018823C1F2DF9152
:10525000CF910F91FF90EF90DF90CF900895EF9254
:10526000FF920F931F93CF93DF93182F0E94820A10
:10527000809187010E944A0C8EE994E00E94580CAC
:1052800073D360918701809188010E94AB08EC0183
:105290009093840180938301E0908501F0908601D2
:1052A000CA3F8FEFD80720F486E494E00E94580CA0
:1052B000809188010E944A0C112309F445C0909105
:1052C000390182E1891B0E944F0A82EB93E00E9420
:1052D000580C0E94C90A60917B0170917C018091F9
:1052E0007D0190917E0104E026E440918A010E94B4
:1052F0009C0CCA3FDF4F68F48DE894E00E94580C84
:1053000022E04DE16EEF80918301909184010E9433
:10531000800D0E94DE0A0E94D00AE114F10469F0B7
:1053200086E894E00E94580C22E045E26FEF8091FD
:105330008501909186010E94800D0E94DE0ACDB702
:10534000DEB7E6E00C9445440E94DE0AC2CF8F70BF
:1053500021F40E94D70A0C94051A08958F3021F485
:1053600090913301913011F08F5F089580E008959E
:10537000CF938DEB93E0E1D76AE080E00E94580A7A
:105380008DEF9BE00E94580CC0E00E94750F60E01A
:1053900082E00E94952162E080E00E9495210E94B7
:1053A000820A809173018823A9F041E062E080E0E5
:1053B00095DE8C2FCCDF88EE93E00E94F30E8111F6
:1053C00005C08C2FCBDFC82F8A3FF8F20E94890AD4
:1053D000CF9108958DEB93E00E94580C8DEF9BE0E8
:1053E0000E94580C0E94C90A8FE30E94DB0B80E0E8
:1053F0000E94E40A0E94DE0ADCCF0F931F93CF9332
:10540000DF93C0E0D8E012EF02E10E94750F60E088
:1054100082E078DAD093170180918901843FE1F42A
:105420008091770190917801A0917901B0917A01F2
:1054300084369105A105B10578F440E060E082E092
:105440000E94CB3A60937701709378018093790141
:1054500090937A011093890180918901823F4CF1E8
:1054600080938A018091770190917801A0917901D0
:10547000B0917A0180937B0190937C01A0937D0190
:10548000B0937E0181E0EBDE8C2F61DF88EE93E04C
:105490000E94F30E811106C08C2F60DFC82F8A3F57
:1054A00008F4B3CF0E94890ADF91CF911F910F9129
:1054B00008950E94820A86EB93E00E94580C809126
:1054C0003901902F981B892F0E944F0A82EB93E09D
:1054D0000E94580C0E94C90A8FE30E94DB0B0E94B5
:1054E000DE0A0E94D00A0E94DE0ACECFA6E1B0E01A
:1054F000ECE7FAE20C941D4482E080931D01809158
:105500001701813009F0DAC180917301813009F00F
:10551000D5C140905A0124E0429EF0011124E65585
:10552000FE4F80819181A281B381893032E593075A
:10553000A105B10508F0C2C11C01712C81E08715DD
:1055400008F4C0C1842D0E94C006982E892EE92F30
:10555000F0E0E655FC4F549090E0FC01E955FC4F1B
:10556000E4911BB812B8272D2170622E30EF23165C
:10557000310408F0AEC12111ACC1009111011091AC
:10558000120100591A4121E030E002C0220F331FFE
:105590008A95E2F7C901852981B934E1398B892DD2
:1055A0000E948B075C01882D0E94920724E0A216BE
:1055B000B10410F4049728F039893150398B311136
:1055C000EECF80E480937B0094E590BF892D8064CA
:1055D00080937C0027E120937A00F12CE12C10923B
:1055E0008000109285001092840037E236BB0E9442
:1055F0007907872D90E09A8B898B611071C181E8C2
:105600008093810052B886B385FF73C112B810929F
:10561000810020E226BB209186003091870069013D
:1056200040918400509185002417350708F46FC11C
:1056300087E980937A00B4E15B2E892D0E948B0765
:105640005C01882D0E94920724E0A216B10410F498
:10565000049718F05A945110F0CF80903601909032
:105660003701820C931C800E911E20911301309102
:10567000140100398AE1180708F051C169E191EE7F
:10568000C916D104E104F10430F4C60165E070E00C
:105690000E940543645128523109261B310967FDD8
:1056A000339566E0862F90E0B0E0A0E08C159D0574
:1056B000AE05BF0508F03CC1C81AD90AEA0AFB0AC0
:1056C000662029F08AE3C80ED11CE11CF11C90EA87
:1056D000E916F10418F0C12CD12C76018BE0C81624
:1056E000D104E104F10428F091E0C91AD108E108DD
:1056F000F108B12CA12CA8EEB3E00E9473436B8B90
:105700007C8B8D8B9E8BA0912D01B0912E019801E9
:105710000E947343A50194010E942C4344275527FE
:105720006B897C898D899E890E942C43C9010E94C6
:105730008708FC01A5019401C701B6010E94EA4255
:105740004B015C01BF0190E080E0E4E0660F771F51
:10575000881F991FEA95D1F76B5F7F4F8F4F9F4F3F
:105760002AE030E040E050E00E942C4344275527D7
:10577000C501B4010E942C43E989FA89EE0FFF1F8D
:10578000EE0FFF1F81E090E08C0F9D1FE80FF91FC7
:105790002083318342835383611018C094E1C9167A
:1057A000D104E104F10490F07394E989FA89319607
:1057B000EE0FFF1FEE0FFF1F81E090E08C0F9D1F8B
:1057C000E80FF91F2083318342835383A895739494
:1057D00093E0971508F0B2CE12B884E00E94B30EA1
:1057E00091E00D811E812F81388549815A816B811D
:1057F0007C81401751076207730708F090E00D8520
:105800001E852F85388949855A856B857C8583E07F
:10581000401751076207730708F082E024E0829F77
:10582000D001112421E030E02C0F3D1FA20FB31F47
:10583000E92FF0E0EE0FFF1FEE0FFF1FE20FF31F47
:105840000D911D912D913C91408151816281738117
:10585000041715072607370708F0892F34E0839FC0
:10586000F001112421E030E02C0F3D1FE20FF31F67
:1058700040815181628173814093A5015093A601BB
:105880006093A7017093A80180FD56C030EF2316E6
:10589000310408F051C08BEF80931D018091A50168
:1058A0009091A601A091A701B091A801892B8A2B04
:1058B0008B2B11F410921D0111B81AB86696E2E113
:1058C0000C943944842D0E94C00698278927982774
:1058D0003CCEEAB951B800911101109112015DCE90
:1058E00052B80E94820790E296BB81E880938100C3
:1058F0008ACE80FF88CE31E036BBA89597012F5F16
:105900003F4F7901203A310509F07DCE7FCE80FFEF
:105910008FCE81E086BB9FEFE91AF90A89CEC401D8
:1059200068E57BE10E940543695F285D3F4FBACE81
:10593000C12CD12C7601C4CE8CEF80931D01CB01FC
:10594000BA016B5F7F4F8F4F9F4F2AE030E040E0FE
:1059500050E00E942C432093A5013093A601409370
:10596000A7015093A8019ACFB0E0A0E0EAEBFCE2D7
:105970000C941F44009185011091860101151105B9
:1059800009F08FC0E0918701F0E0E655FC4FD4911B
:10599000E0918801F0E0E955FC4FC4910E94AB23EF
:1059A00012B81BB8D1B9CAB9809188010E94920778
:1059B0007C01D0918A018CE08D0F843008F071C099
:1059C00080917B0190917C01A0917D01B0917E013D
:1059D000D15F2C013D0125E0420E511C611C711C60
:1059E000C301B2012AE030E040E050E00E942C43C5
:1059F00049015A01DA01C901DF5FD73051F72AE5C1
:105A0000421623EC52066104710408F04AC005975F
:105A100008F447C0CBB9CAB9D0E0C0E0C815D90571
:105A200008F444C01AB81BB8A89585E080932901F2
:105A3000809188010E949207EC01CE19DF09E816D7
:105A4000F90610F0D0E0C0E0D12CC12CC814D90464
:105A500088F1809188010E94920729E12093290111
:105A6000A895E816F90618F48C010E191F090C17F1
:105A70001D0788F49E01201B310B69F0A4EFB1E0F3
:105A80000E9473439E0150E040E00E942C433093FB
:105A90008601209385010E94AB2311B812B81AB871
:105AA0001BB8CDB7DEB7E0E10C943B440E94800701
:105AB0002296B4CF0E9480078FEFC81AD80AC6CFAB
:105AC000813108F08151811109C080EC95E00E947C
:105AD000580C0E94DE0A0C947D0A0895813019F456
