:1000000085C0000095C0000093C0000091C00000B2
:100010008FC000008DC000008BC0000089C00000B0
:1000200087C0000085C0000083C0000081C00000C0
:100030007FC000007DC000007BC0000079C00000D0
:1000400077C0000075C0000073C0000071C00000E0
:100050006FC000006DC000006BC0000069C00000F0
:1000600067C0000065C000005245465F523D005227
:1000700045465F433D00203E3130306E460001046E
:100080001001020452303D00494345733D0049438D
:1000900045303D00B903870358032E030703E402EC
:1000A000C302A40288020000140029003E0053008D
:1000B000690080009700AE00C600DF00F800120162
:1000C0002D01490165018201A001BE01DE01FF0190
:1000D0002102440268028E02B502DE0209033503E2
:1000E00064039403C803FE0337047304B404F904DF
:1000F00043059305EA054906B3062907AE074808F4
:10010000FF08DE09FD0A930C480F991B11241FBE3E
:10011000CFEFD4E0DEBFCDBF21E0A0E0B1E001C071
:100120001D92A33AB207E1F70E94E0090C94401F28
:1001300067CF80FD5F9A80FF5F98579A00005D9AB5
:10014000559A5C985B985A98599864FD5C9A549AB1
:1001500065FD5B9A539A66FD5A9A529A67FD599AC1
:10016000519A00005D9806D187FD10C05D9A5C9899
:100170005B985A98599860FD5C9A61FD5B9A62FDA4
:100180005A9A63FD599A00005D98F4C0089597FF4C
:1001900009C08F939F938DE223D49F918F91909567
:1001A00081959F4F63E171E04AE050E00E94F41EA8
:1001B00067C4EDDF01C0EBDF80E212C48DE210C442
:1001C0008DE30EC4EF92FF920F931F93182F062F0B
:1001D000F42E89EA90E06CD4EE24E0912E01F091A7
:1001E0002F018685E81611F4812F09C08485E81651
:1001F00011F4802F04C08585E81611F48F2DF0D3FB
:10020000E3948E2D833049F71F910F91FF90EF906B
:100210000895682F80E092E0662309F491E062304F
:1002200009F481E008950F93082FE7E9F1E0880FC2
:10023000880FE80FF11D608171818281938164369E
:1002400071058105910568F42091110127FD09C010
:10025000802FDFDF692F16D26EEF23E044EF7DD5CC
:1002600004C04FEF04E024EFCCD4A6DF0F91089533
:10027000863058F4E6E8F1E0E80FF11DE80FF11DD3
:100280008081918163E074D597CF08951F93182FD3
:1002900080916101882319F08FDF82E5A1D3BAD361
:1002A00080EA90E005D4812F82958F70E1DF812F65
:1002B0008F70DEDF1F9108958091020182958F700B
:1002C00018D08091020183701AD080910201DECF94
:1002D000EAE7F1E0E80FF11D0895CF93F9DF90818F
:1002E000C681C91710F405D001C012D065DFCF91C7
:1002F0000895EEDF8F9380817ED38F9100C08F931E
:100300008EE690E0D5D38F91E3DF868174C30895A4
:10031000DFDF8F9386816FD38F9100C08F938AE642
:1003200090E0C6D38F91D4DF808165C3089503D058
:1003300002D001D000D000D003D002D001D000D034
:1003400000D003D002D001D000D000D0A89503D0B7
:1003500002D001D000D000D003D002D001D000D014
:1003600000D003D002D001D000D000D003D002D002
:1003700001D000D000000895E8DFE8DFE7DF1F9339
:10038000182F106410937C00E12FE07880911E01FB
:10039000E81751F0E0931E01E3DF86ED80937A00C9
:1003A00080917A0086FDFCCF20E030E0A901E0E0FA
:1003B0001EC086ED80937A0080917A0086FDFCCF86
:1003C0006091780070917900260F371F411D511DF3
:1003D000E43061F480912001803041F084E02030ED
:1003E000380720F417FD02C01068CCCFEF5F809172
:1003F0001D01E817F0F2609121017091220117FFB1
:1004000004C060911F017091200180E090E00E9483
:10041000311E2FEF33E040E050E00E94601EB90132
:10042000CA0120911D0130E040E050E00E94601EB2
:10043000C9011F9108959B01281B390B50F0C90178
:100440000895BC01809121019091220168177907DC
:1004500018F4861B970B089580E090E00895EF92C2
:10046000FF920F931F93CF93DF937C01C5E64899CA
:1004700003C06CDFC150D9F7E70105E510E0D7FDF7
:100480001BC063DF000F489B0F5F0F730F3341F4F6
:10049000111102C0E70114E01F5F163928F00CC0EB
:1004A000011102C0111108C0A895209741F32A97A5
:1004B00031F7CFEFDFEFE3CF812FDF91CF911F91A6
:1004C0000F91FF90EF900895CF9381D2C82F809124
:1004D00030018823D1F0813051F4C33041F463E11D
:1004E00083E0B0D28BE27CD263E183E0ABD280E4E4
:1004F0009FE1B5DFC33041F480913001813021F4B8
:1005000083E060E09FD22BD3B0D2CF91089584EDE9
:1005100091E00E94271F382F85ED91E00E94271F50
:1005200020912501230F30912601381F20930701C8
:100530003093080183E0283E380720F0C901885E27
:10054000934002C080E090E062E370E00E944C1EA5
:10055000683008F067E0E4E9F0E0E60FF11DE60F2F
:10056000F11D459155912591359162E3681B421B20
:10057000530B649FC001659F900D1124499662E35F
:1005800070E00E944C1E620F731F709363016093B2
:10059000620186ED91E00E94271F992787FD9095C3
:1005A0006091250170912601860F971F909320017D
:1005B00080931F019093600180935F0108950F92D3
:1005C00021E08C32920710F48CE291E08C52914041
:1005D00069E170E00E944C1E99E16B3210F0982F97
:1005E0006BE2981BEFE6F1E0E60FF11DE60FF11D5F
:1005F0009F93CF010E94271F482F3196CF010E9461
:10060000271F582F3196CF010E94271F282F319680
:10061000CF010E94271F382F6F91421B530B649FFD
:10062000C001659F900D11240C9669E170E00E9455
:100630004C1E620F731FCB010F900895CF93DF9371
:1006400024E130E0B9010E944C1EDC01E6EAF0E052
:10065000E60FF71FE60FF71FC591D591459155910C
:100660004C1B5D0B4A9FC0014B9F900D5A9F900DF4
:100670001124B9010E944C1E6C0F7D1FCB01DF912C
:10068000CF910895AEE1B0E0E8E4F3E00C94BD1E34
:10069000662EB82E860F898320910B01283059F5DC
:1006A000209168013091690140916A0150916B017C
:1006B00057FD15C01091770109C0CA01B9012AE0A0
:1006C000312D412D512D0E94601E1F5F173FACF34D
:1006D00091F4243160E036074105510518F48FEF9D
:1006E0009FEF39C1173F39F480E028178DE73807AD
:1006F0004105410510F020E03DE72C8B3D8B26EDB8
:10070000A22EE1E8F0E0E60DF11D859180608E8774
:10071000E1E8F0E0EB0DF11D859180608F87EEE759
:10072000F0E0E60DF11D7590EEE7F0E0EB0DF11D48
:10073000C59090EC692AB92A81E0E82EF12C012DB0
:10074000112D8E831F82188619861A861B861C8699
:100750001D86188E198E1B8E1A8E0E94CE1680E072
:1007600088B960927C00FCDD3F8537B975B874B8F4
:1007700052E05A95F1F70000000014B815B8DD24D6
:100780003E8537B975B874B860927C00A895A09280
:100790007A0080917A0086FDFCCF2090780030901E
:1007A0007900B0927C004C2DDAD020917800309105
:1007B0007900288B398B3F8537B9C5B8C4B8A8955F
:1007C000B0927C00A0927A0080917A0086FDFCCFE6
:1007D000609178007091790060927C00472DBFD0C5
:1007E000409178005091790014B8CB01820D931D8F
:1007F000E80EF91E011D111DEA82FB820C831D8388
:1008000088899989840F951F2E813F816885798514
:10081000280F391F611D711D2E833F8368877987DB
:1008200022E32417150648F075B874B8A3DD14B890
:1008300015B8888D8395888F07C0483E73E05707A9
:1008400018F08A8D83958A8F8889998928171906C7
:1008500058F03E8537B9C5B8C4B88CDD14B815B8A2
:10086000898D8395898F07C0883E73E0970718F0BC
:100870008B8D83958B8FD3945D2D5F3F09F080CF57
:1008800040902A0150902B01440C551C9201E4E049
:10089000240D351DEA95E1F72901570168016E80A5
:1008A0007F808884998420910B012830C1F46C8961
:1008B0007D89812D912D65507040804090409B0135
:1008C000AC010E94311E9B01AC0160E779E786E133
:1008D00090E00E94601E621A730A840A950AA614A8
:1008E000B704C804D90428F46A187B088C089D084A
:1008F00003C0662477244301B20180E090E09301B5
:10090000A4010E94311E9501A6010E94601E89EC7F
:1009100091E07981870F911D0E94271F682EC901E0
:1009200060E170E00E944C1E260F371FC901681657
:10093000190618F4861991090EC08C5E9F4F861512
:10094000910538F48C899D89843981E1980708F0F4
:10095000E1D4812D912D6E96E2E10C94D91E109276
:1009600081001092800010926F0010928B00109204
:100970008A0057E056BB5FEF509385005093840088
:1009800055E050937B0056EB50937A0051E0509322
:10099000810058E25A95F1F7000045B944B955E095
:1009A0005A95F1F7000014B815B8109281008091A3
:1009B0007A0084FFFCCF80937A000895CF93C82FEC
:1009C0001C1614F0CF910895F7DBC150F9CF809138
:1009D0002D0180930001809196018093010108957B
:1009E00090912D019F5F90932D01682F81E0A1DBF5
:1009F000B8DCA89508958F5CF3CF0895682F80E048
:100A000098DBAFCC08951092960180E8F7DF109242
:100A10002D01089581E08093960180ECEFDF109224
:100A20002D01089582E08093960184E9E7DF10921A
:100A30002D01089583E08093960184EDDFDF10920D
:100A40002D010895982F862F60932D01913019F470
:100A50008054D4CF0895923011F48C56FACF93304D
:100A600011F48C52F6CF8058F4CF60910001809140
:100A70000101E8CF089581E0C1DF67DCC4CF0895AC
:100A8000CF93DF93EC018991811103C0DF91CF9166
:100A90000895A6DFF8CFCF93DF93EC01FE01849198
:100AA000882319F09DDF2196F9CFDF91CF9108952A
:100AB000CF93DF93EC01CE010E94271F882319F00A
:100AC0008FDF2196F8CFDF91CF9108950F931F9379
:100AD000CF93DF93EC0128968C010F5F1F4F0E948C
:100AE000271F7EDFC8010C171D07B1F7DF91CF91DB
:100AF0001F910F91089524DC83E380DF82E37EDF82
:100B000024DC80E27BDF80E279DF88E677DF89E042
:100B100075DF8AE273DF88E071DF86E06FDF82E0F5
:100B20006DDFA9DF13DC8CE069DF88E467DF80E23A
:100B300090E0CCDF80E562DF88E190E0C7DF88E508
:100B40005DDF88E290E0C2DF80E658DF80E190E080
:100B5000BDDF88E653DF88E090E0B8CF089590913C
:100B60002D0184E1891B2ACF0895CF93C82FF7DF89
:100B7000809196018F5F80939601843060F083E0CE
:100B80008093960181E0809330016C2F80919601D3
:100B900059DFCF91089510923001F7CFE6DF94CC62
:100BA000089538DFDCDF36CF08950F938AEB90E0AD
:100BB0007FDF409176014D3F6CF46091640170914C
:100BC0006501809166019091670103E026E419D0E8
:100BD0000F9108958FE304DFFBCF90910A019F707E
:100BE000923071F4DBDF80E390E062DFE0912E0170
:100BF000F0912F0122E044EF6FEF84819581ADC029
:100C00000895AEE0B0E0E7E0F6E00C94BD1E142FCE
:100C1000322E202E6B017C010F7080E389838A8342
:100C20008B838C838D838E83F7FE1CC0C7DAF09490
:100C3000E094D094C094C11CD11CE11CF11C88EE3E
:100C400093E0033031F080E197E2043011F084E664
:100C500090E02C01712C612C2AE0822E912CA12C89
:100C6000B12C12C025FEEBCF8BE2BADEE8CFC70174
:100C7000B6016B5F7F4F8F4F9F4FA50194010E947C
:100C8000601E69017A011F5FC414D504E604F704ED
:100C900070F786E0811B63E00E94401E792E4E01B2
:100CA00087E0880E911C4AE0B401C6010E94FE1E36
:100CB000F40101900020E9F731977F01E818F90865
:100CC0001F5E8BEA189F812D1124869590E080503D
:100CD00090400E94271F982E822D807124FE05C00F
:100CE000802F8E19E01608F080E0CE2CC718C80EB1
:100CF0001C1424F08EE274DE872D8E19711002C050
:100D000098EFC92EB12C082F10E0E00EF11E0C2C2C
:100D1000000CDD08EB2DF0E0EE15FF0564F09920E6
:100D200011F0892D5DDE332011F0832D59DE2E96D2
:100D3000E2E10C94D91E3696E01BF10B81E090E0C5
:100D40008C0F9D1FE80FF91F80814ADEB394BC14FD
:100D50001D0401F78EE244DEDDCF0F93362FBC0178
:100D600090E080E0022F242F432F4BDF0F91089556
:100D70000F93062FBC0190E080E026E54DEF41DFA8
:100D80000F91089540910901A0912E01B0912F017A
:100D9000EAE7F1E030E020E0822F2417B0F451912F
:100DA0001C969C911C97591719F05581951303C0F7
:100DB0002F5F3F4FF1CF220F331FF901EA57FE4F4C
:100DC00020813181293E334008F084E1089510925A
:100DD0000B011092090110925E01109240011092D5
:100DE0000A0110922C0110926101E9E4F1E01082F5
:100DF00011821282E4E6F1E0108A82E0818B109287
:100E0000110117861686148215821682178281EFC9
:100E1000838B08955E988EDA90E080E020CB089571
:100E20001F93CF93DF93162F17B818B8E82FF0E071
:100E3000E258FF4F949195B9262F281BE20FF11D20
:100E400027FDFA95E491E92BE4B999DAEC01812FB9
:100E500096DAAC0120912101309122013695279537
:100E6000C9010497BE01625E7F4F8617970778F429
:100E7000265E3F4FC217D30750F4BA01625E7F4F20
:100E80008617970720F481E04217530708F080E0A7
:100E900014B8DF91CF911F910895CF9361E080E066
:100EA000BFDFC82F62E080E0BBDFC80F62E081E0F7
:100EB000B7DF8C0FCF910895AEE0B0E0E2E6F7E047
:100EC0000C94BF1E10920B01807F09F01EC2E5DF5B
:100ED000833009F0F9C1CFDD81E091E0E9DD9ADDF1
:100EE0008FE37EDD80ED97E0BADA8B3008F40DC237
:100EF00091DD0E94FA1984E890E0CDDD60E08BEC92
:100F000091E00E942F1F60E08CEC91E00E942F1F67
:100F100060E08AEC91E00E942F1F60E082E0B2DB8B
:100F20006C019A83898361E082E0ACDB7C019C8365
:100F30008B8360E081E0A6DB8C019E838D8323E0C0
:100F400040E26EEFC60109DF23E040E26EEFC70129
:100F500004DF23E044EF6EEFC801FFDE2AE5C2168E
:100F6000D10424F08DE190E09A83898369818BEC30
:100F700091E00E942F1F8AE5E816F10424F08DE12C
:100F800090E09C838B836B818CEC91E00E942F1FFF
:100F90000A35110524F08DE190E09E838D836D81EB
:100FA0008AEC91E00E942F1F82E0809330018CDA5E
:100FB00018E773DF81117DC05EDD86E490E078DDA7
:100FC00023E044EF6FEF8091230190912401C5DE6F
:100FD00021DD8FE390E06CDD23E044EF6FEF809143
:100FE0002A0190912B01B9DE82E0809330016CDA06
:100FF00010920B0140DD8BE390E05ADD60E082E06F
:101000000E948D1740906C0150906D0160906E01B0
:1010100070906F015C864B8661E082E00E948D17C4
:1010200080906C0190906D01A0906E01B0906F0166
:101030009E868D8660E081E00E948D1700916C0194
:1010400010916D011E830D8362E080E00E948D1778
:1010500080916C0190916D019C838B8362E081E0B3
:101060000E948D1780916C0190916D019A878987FC
:1010700061E080E00E948D17E0906C01F0906D01BE
:10108000FA82E982C20197D8C40195D8B801110F3C
:10109000880B990B03E026E444EFB3DD809129012E
:1010A000823081F0F886EF82109229018CE0A6DC74
:1010B0000EC077DD81EF90E0FBDC3ED9115009F0E6
:1010C00078CF7ACFE2E0EE0EF11CF886EF828E0147
:1010D0000F5F1F4F6E01FFE0CF0ED11CF801819111
:1010E00091910A97853B9105C8F4EC15FD05B9F778
:1010F0003DECE32E31E0F32EF80160810E5F1F4FCF
:10110000615FC7010E942F1FFFEFEF1AFF0A0C1546
:101110001D0591F77FDC8FED90E0CADC82E08093C3
:101120003001D2D9A8DC80E066DC82E990E0C0DC46
:1011300082E061DC86E790E0AEDC10E090E4F92E1E
:101140002AE0822E912CA12CB12C41DE10920B01B1
:1011500060E082E00E948D17009176012091640189
:10116000309165014091660150916701073F0CF491
:10117000AFC00093760120936401309365014093E2
:10118000660150936701073F09F0AAC02056310954
:1011900041095109203935454105510508F0A0C0E4
:1011A0006091780170917901CB018B569F4F8B3202
:1011B000914008F095C01F5F153008F492C084ED8F
:1011C00091E00E943D1F57DC8FE690E064DC809147
:1011D0007801909179010E94C70099D918B881E0EF
:1011E00087B980E284B982E0CAD8853D9340DCF7B4
:1011F00014B81092200110921F0182E0C0D87C0127
:1012000080915F01909160019093200180931F0174
:1012100082E0B5D86C01CC0CDD1C1092200110923C
:101220001F0182E0ACD84C01A0905F01B09060013A
:10123000B0922001A0921F01EDDB88E690E02BDC4C
:1012400086ED91E00E94271F182FD701A80DB91D28
:10125000AC19BD0995010E94AD1E96010D2C000C24
:10126000440B550B0E94821E1D5F120F612F86EDED
:1012700091E00E942F1F812F012E000C990B0E94DC
:10128000C70045D982E0809330011ED91092290110
:101290008CE0B4DB8DEC91E00E94271F682F80ED7D
:1012A00091E00E942F1F89E180931D01E4DB8DE412
:1012B00090E0FEDBAFDB88EE90E0FADB10920B01F2
:1012C00082E08093300100D92E96E0E10C94DB1E81
:1012D0000F5FCA01B901A50194010E94601E46CFAB
:1012E00010E098DB60916401709165018091660166
:1012F0009091670104E026E44091760182DC2FDCC6
:101300001ED8FA94F11021CFCECFB5DB8DE490E05A
:10131000CFDBDACF8091290181110DC08DEC91E0F6
:101320000E94271F61E0680F80ED91E00E942F1F4F
:1013300081E0809329010895EF92FF920F931F930C
:10134000CF93DF93D62FE82FF0E0EF57FF4FE491D4
:10135000E8B9E7B915B8E62FF0E0E258FF4FE4919D
:10136000E4B9CE2FCC0F88E8E82E83E1F82E8D2F3C
:1013700003D88C01C4B98E159F0500F1892BC9F0E3
:1013800059DB82E790E094DBD80120EA36E841E0BF
:1013900050E00E94B31E28E937EB40E050E00E9485
:1013A000601EC90122E041E467EFD7DC17B818B826
:1013B00014B8CDB7DEB7E6E00C94E51E7801D7CFC0
:1013C00080E48AB98BB986E880937A000E949C01F8
:1013D000C4B7C87084B7877F84BF0FB6F894A89548
:1013E00080916000886180936000109260000FBE61
:1013F000789481DBC11101C480E185BF489908C0A0
:101400000E94A501CF5FCC33C9F780E69DE604C0FA
:101410008FE59DE6CF31C8F79093040180930301D7
:1014200010921E010E94FA1988E19FE00FB6F8940D
:10143000A895809360000FBE90936000D0E133E3E5
:10144000D32E41E3A42E41E0B42E5FE4E52E51E01B
:10145000F52E6DE0362E70EF272E10E181E2C82EBA
:1014600092E1992E20E2822E06DB17B8B0DC0E94B2
:10147000FA19C9DACED380912C01882361F0CADA37
:1014800087E890E015DB63E08091210190912201D3
:101490006FDC0E949B01BEDA0E94CE1680910B0188
:1014A000893069F4E8DA8CE890E002DB0E949A0166
:1014B00081E102DD809103019091040130C18CE053
:1014C0009DDA80ED91E00E94271FC82F8DEC91E0FE
:1014D0000E94271FC81BC0932901CC2311F08EE066
:1014E0008DDA81E0E9DC5DDB86E691E0E1DA42E07D
:1014F00061E080E0D8D342E060E081E0D4D341E015
:1015000062E080E0D0D341E060E082E0CCD340E014
:1015100062E081E0C8D340E061E082E0C4D3809122
:101520000B0181110EC00E94CE1660E082E00E9485
:101530008D1761E082E00E948D1760E081E00E94DB
:101540008D1799DAB0922F01A0922E0180910B0194
:10155000863099F48DE391E0ABDA41E467E483E40B
:101560000E94E20057DA80EA90E0A2DA62E080911D
:10157000350190913601FCDB9DCF873039F486E44C
:1015800091E096DA42E367E481E3EACF883019F428
:101590000E94F51A8FCF833009F0CAC080910901EB
:1015A000813009F040C080E00E946D0160917A01B5
:1015B00080918001C1DE80E70E94460160917A013E
:1015C000809180010E948D17809176018D3F8CF46F
:1015D00029DA87EB90E06CDA609164017091650123
:1015E000809166019091670103E026E440917601C5
:1015F00008DB80916101882309F45CCFD7B917B863
:1016000080E0CCDAA0916101AA2309F4E9C28091BB
:101610004C01A13009F07DC20E94090140E0692F10
:101620000E94BE1A47CF823079F582E3D9D985E688
:1016300090E03EDA90917A0130917B0193130AC0D9
:1016400080E00E94880181E00E947F0181E00E9489
:101650004601CFCF2091800180918101281307C0DE
:1016600080E00E94790181E00E948E01EFCF321369
:1016700006C081E0809302010E945C01BACF9813FA
:1016800039C010930201F8CF8330A1F5D092020146
:101690008091800190917B01891303C021E0209308
:1016A000020140917A0130918101431302C01093ED
:1016B000020120917C01821303C082E08093020129
:1016C00080918201481302C08092020132130CC043
:1016D00090920201981302C0C092020183E380D964
:1016E00085E690E0E5D9C8CF9817B1F38091020163
:1016F0008232A0F38CE491E0DBD984E391E0D8D985
:1017000089D980910901805D6BD98AE269D98EE619
:1017100090E0CED98AE191E0CBD980E49FE1D7B9BE
:10172000489BFECF0E942F0281119ECE73DB96CE86
:10173000843009F031C180915E01882309F465C0CD
:1017400080914001882309F460C060913D0180913F
:101750003F010E948D174090640150906501609098
:10176000660170906701C091760160915D01809182
:101770005B010E948D178091310190913201A091FF
:101780003301B091340140914F015091500160916B
:10179000510170915201843F21E09207A105B105EA
:1017A00038F4443FE1E05E076105710508F0C0EFE1
:1017B000443F51406105710538F4843F9140A105D3
:1017C000B10510F020927601809176018C1311C042
:1017D0008091640190916501A0916601B0916701CB
:1017E000481659066A067B0630F08CE080930A01A1
:1017F00004C0C817D4F730920A0180915E01882393
:1018000021F080914001811120C080910A018C302B
:1018100029F583EB90E04CD980915E01882311F08B
:1018200080E7DED80E94DC00ADDAC82F853060F595
:1018300080910A018C30F9F490913E0180913F0132
:101840008917F8F08AE690E01EC04899DECF8091B3
:101850000A0191E0892780930A01D7CFF0922F01E6
:10186000E0922E018FEA90E023D9809140018823F5
:10187000C9F28EE6D6CF90915C0180915D019817F8
:1018800008F78EE690E014D943E462E485E40E9410
:10189000E200C0D88EEB90E00BD9E0912E01F091E0
:1018A0002F01608171818281938103E020E04EEFFE
:1018B000A8D90E94DC0089E493D8E0912E01F09130
:1018C0002F01868197818031974208F462C085E6B6
:1018D00087D8E0912E01F0912F0186819781805168
:1018E0009742978386830E94E000E0912E01F09159
:1018F0002F0122E041E46AEF868197812EDA80E0B1
:101900004DD984EA90E0D4D8E0912E01F0912F01D6
:1019100063E0848195812CDAE0912E01F0912F0112
:1019200080859185892B79F080E038D98EE890E028
:10193000B2D8E0912E01F0912F0123E041E46AEF4B
:10194000808591850ADAE0912E01F0912F01828540
:101950009385892B79F080E021D988E890E09BD8A5
:10196000E0912E01F0912F0123E041E46AEF82859E
:101970009385F3D9C53008F09DCD80E00FD98C2F29
:101980000E946D0180EA90E093D88C2F0E9438016C
:1019900091CD83E625D8A7CF853009F033CE80914D
:1019A0000A0184FF36C080E51BD8F0922F01E09237
:1019B0002E010E94DE0080910A01C82FCF70C43032
:1019C00061F589EC90E074D84FE367E48FE30E94FF
:1019D000E20080910A0185FD37C01CD8E0912E01FC
:1019E000F0912F01668584850E948D17DED88BE9E2
:1019F00090E05ED8E0912E01F0912F0162E08285A7
:101A00009385B6D980E0E9D8C43009F453CDC0E05D
:101A10007BC08EE40E94F004CCCF85FF0CC084E430
:101A20000E94F004C33049F483EC90E041D843E4D1
:101A300067E485E4CCCF85E4F3CF8EEC90E038D832
:101A400044E467E483E5C3CF8F70843059F080E0CD
:101A50008CD8E0912E01F0912F01668584850E943B
:101A60008D17A3D880E09AD889E40E94F00484E618
:101A70000E94F0040E94E000E0912E01F0912F01FD
:101A800022E041E46AEF8681978167D986E990E098
:101A90000FD8E0912E01F0912F0162E082859385AD
:101AA00067D9E0912E01F0912F0180859185803CCE
:101AB000924108F0A7CF80E071D889E40E94F00439
:101AC00084E60E94F0040E94E00022E041E46BEF13
:101AD00090E080E042D986E990E00E945805E091CC
:101AE0002E01F0912F0162E0808591858ACF80E000
:101AF00055D88C2F0E946D0180EA90E00E94580515
:101B00008C2F0E943801CF5F80910901C81778F3AC
:101B1000D1CC90914D0124E0929FF0011124E9561F
:101B2000FE4F44E0849F9001112429563E4F40818E
:101B3000518162817381F90140805180628073809C
:101B4000C92F441655066606770608F0C82FA2303E
:101B500049F5980FC3E0C91B6C2E669482E0782E7D
:101B60007C1A01E0C11102E0862D0E94FB0480E690
:101B700090E00E945805872D0E94FB0480E690E0CB
:101B80000E945805802F0E94FB0480E00E94B5054A
:101B900081E0C11180E00E94130182E086190E9459
:101BA000130188CC80914E01F4E08F9FD001112465
:101BB000A956BE4F24E0C29FF0011124E956FE4F02
:101BC0004D905D906D907C904081518162817381D8
:101BD000441555056605770508F0BECFC82FBCCF64
:101BE00084E291E00E9458050E940A0581E591E097
:101BF0000E9458058CE491E08FCD0E94030581E19D
:101C000091E00E9458050E94990104D990E080E07B
:101C100008950F931F93CF93DF9385E00E94BF0138
:101C200085E00E94BE018C01EC01CC0FDD1FCC0FC2
:101C3000DD1FCA56DF4F10922701C43883E0D80752
:101C400070F483ED90E00E9458050E94AF0581E09A
:101C500080932701DF91CF911F910F91089582EE1C
:101C600090E00E94580562E0CE0182D80E94DC001C
:101C70000A3F86E01807A0F40333164050F48AE5C3
:101C800091E00E9458050E94AF050E949701C2D8BA
:101C9000E1CF81E691E00E9458050E94AF05DACFBE
:101CA0008FED90E0F8CFA9E1B0E0E9E5FEE00C941B
:101CB000BD1E888F698F242EA895098DE02FF0E036
:101CC000E258FF4F14911D87110F1F8B339604911B
:101CD0000983E42FF0E0E258FF4F9490339614917B
:101CE000E82FF0E0E258FF4F8490082D000F0E8798
:101CF0003396349095B80D850929098704B937B80A
:101D000038B8898D0E94BE013C010D8504B9898DCA
:101D10000E94BE012C0114B80E94A50115B80985C6
:101D200004B9898D0E94BE01B3010E941B025C01AF
:101D3000098107B918B8092D08290B8305B904B919
:101D4000888D0E94BE010E9421026C0115B80E947C
:101D5000A50185B8888D0E94BE010E9421027C01E8
:101D600084B8888D0E94BE010E9421028A83092FB7
:101D7000B701C6010E941B02803221E0920730F4B5
:101D800030E2A31631E0B30608F412C5AE0CBF1C56
:101D9000860D971DA816B90618F437014A80502EF3
:101DA0002091400180915E01820F9927991F02972F
:101DB0004CF0213009F0FCC490913D0180915B0111
:101DC0009813F6C4B92CBB0CAD84AB280B2D082995
:101DD0000A8324E76216710408F41DC1C3010A9640
:101DE000880F991F4816590608F015C137B838B83A
:101DF000A4B8898D0E94BD017C01822D0E94BF0183
:101E00006C01B5B8898D0E94BD019701295A3D4FDB
:101E100018B8098107B90A8104B905B92817390723
:101E200008F074C0822D0E94BD0188349F4008F4E0
:101E300068C085E080930B0182E280930A01F092F2
:101E40003601E0923501B601C7010E942602909347
:101E50003C0180933B019701A0E1B7E20E949E1EE6
:101E6000209105013091060150E040E00E94601E83
:101E700030933801209337010F89B02AB4B815B8D0
:101E800037B838B8822D0E94BF017C01898D0E942D
:101E9000BD01B7010E94260290933A018093390157
:101EA00080910A018F70843031F118B80981102BAC
:101EB00017B984B81B8115B9888D0E94BE017C01B9
:101EC0000E9421028C01898D0E94BF01C0900C01EB
:101ED000D0900D01BC01C7010E9426029601DC01D1
:101EE0000E949E1E980150E040E00E94601E3093C8
:101EF000360120933501809140018F5F809340012E
:101F0000E9C285E080930B0184E297CF888D0E941F
:101F1000BD017C01822D0E94BF016C0185B8888DB6
:101F20000E94BD01895A9D4F8E159F0508F040C43F
:101F300038B837B8822D0E94BD01813D934008F02A
:101F400065C085E080930B0182E380930A01B701AD
:101F5000C6010E94260290935A0180935901C7013D
:101F60000E9421029C01A0E1B7E20E949E1E2091E6
:101F70000C0130910D0150E040E00E94601E309352
:101F800056012093550118B8098107B90E85B02A6A
:101F9000B4B8B5B8888D0E94BF017C01822D0E9423
:101FA000BD01B7010E94260290935801809357010A
:101FB00080910A018F70843019F1132918B917B96B
:101FC00015B81B8114B9888D0E94BE016C01898DE2
:101FD0000E94BF018C01E0900501F0900601BC0158
:101FE000C6010E9426029701DC010E949E1E9801F4
:101FF00050E040E00E94601E309354012093530152
:1020000080915E018F5F80935E0110C185E08093B7
:102010000B0184E39ACF18B8098107B985B81A81F2
:1020200014B9888D0E94BE0198878F830E94210277
:102030006C01822D0E94BF019E838D83720124E674
:10204000E20EF11CB201C601EC14FD0408F0F0C070
:102050000E9426028C0120910C0130910D0150E06C
:1020600040E060E871EA83E09CE10E94601ED801D4
:102070000E94B31E0D811E81980150E040E00E9435
:10208000601E2B8B3C8B4D8B5E8B14B815B838B80B
:1020900037B80E94A601198514B9898D0E94BE0126
:1020A0008F359D4008F463C1A4B8898D0E94BD019D
:1020B0008C01822D0E94BF01988B8F87888D0E9492
:1020C000BF019A8B898B8F859889813D974008F451
:1020D000E0C084E080930B018DE080930A017801D9
:1020E0004016510610F4E418F50880900501909010
:1020F0000601B12CA12C60E871EA83E09CE1A50106
:1021000094010E94601ED7010E94B31EEF85F889DA
:102110009F0150E040E00E94601E80915E01882394
:1021200071F080914F0190915001A0915101B091B7
:10213000520182179307A407B50708F095C02093B2
:102140004F01309350014093510150935201980137
:10215000A0E1B7E20E949E1EA50194010E94601EAC
:1021600030935601209355016F85788989899A8922
:102170000E942602909354018093530181E0409184
:102180004F015091500160915101709152010B89A2
:102190001C892D893E89401751076207730708F093
:1021A00065C000934F01109350012093510130936B
:1021B00052016D817E818F8198850E9426029093C5
:1021C0005401809353019601A0E1B7E20E949E1E44
:1021D00020910C0130910D0150E040E00E94601E02
:1021E000205F384D3093560120935501C090050172
:1021F000D0900601F12CE12C9201A0E1B7E20E94FF
:102200009E1EA70196010E94601E309358012093E4
:1022100057019301A0E1B7E20E949E1EA70196011B
:102220000E94601E30935A012093590181E020C022
:102230000E9426028C012B8124B9888D0E94BE0148
:1022400098878F830E9421026C01822D0E94BF011A
:102250009E838D83BC01C8010E9426029C01A4E6D6
:10226000B0E00E949E1E06CF80E089CF8111BECFD4
:1022700090915E019F5F90935E01882309F44FC3A4
:1022800020925B01098D00935C01188D10935D0114
:1022900046C321E64216510408F069C0013D37E00B
:1022A000130708F464C085E080930B0182E18093FA
:1022B0000A01C80186509F4FA989BA898A179B07CE
:1022C00008F03EC083E180930A0109810770C02EA7
:1022D000822D806480937C00FBE0DF2EEE24E3946B
:1022E000F12C0FEF13E0A89561E0892D40D5A4B83B
:1022F00086B18C21E9F32D8524B980917A00806420
:1023000080937A0080917A0086FDFCCF80917800DE
:1023100090917900D801A81BB90BEA0EFB1EDA9444
:10232000D110E1CFC701880F991F880F991F69E06D
:1023300070E00E944C1E70935A016093590160CE68
:10234000E0900501F0900601B80189899A890E9400
:1023500026029701DC010E949E1E980150E040E099
:102360000E94601E3093540120935301AECFA4B855
:10237000B5B8898D0E94BE015C01822D0E94BF010B
:102380009E838D830E9421028C01EA14FB0408F0D5
:10239000A3C0B201C5010E9426027C012091050163
:1023A0003091060150E040E060E871EA83E09CE192
:1023B0000E94601ED7010E94B31E980150E040E0C9
:1023C0000E94601E29873A874B875C87198117B95D
:1023D00018B80B8104B905B9888D0E94BE017C0133
:1023E000822D0E94BF0198878F83898D0E94BF0133
:1023F0006C0110E3E11611E1F10608F0D7C185B8D0
:10240000888D0E94BE01988B8F8784B8888D0E942A
:10241000BE018C0115B80E94A60185B8888D0E9466
:10242000BE010034164008F075C08133914108F4B4
:1024300071C0C7018A569F4F0F8518890817190761
:1024400008F068C086E080930B01809140018F5FA7
:1024500080934001B6018F8198850E942602909357
:10246000360180933501B601C7010E942602909380
:102470003C0180933B0114B815B8198118B90E942A
:10248000A60184B8888D0E94BE01853F910510F594
:102490000B8104B9822D0E94BE01813D9340D0F092
:1024A000888D0E94BF018D3D9240A0F084B8888D38
:1024B0000E94BE018D3D924068F085B80E94A60141
:1024C00015B8888D0E94BE01853F910518F487E0FC
:1024D00080930B0181E0F4C0098504B995B8898D1A
:1024E0000E94BE015C01822D0E94BF019E838D83EC
:1024F0000E9421028C01C5014A145B0410F4841966
:102500009509B8010E9426029C01A4E6B0E00E9451
:102510009E1E53CF098107B994B895B80E94A601B1
:102520001A8114B915B9888D0E94BE017C010E94E0
:1025300021028C01822D0E94BF019C838B830E940B
:10254000210298878F83898D0E94BF016C012F81A2
:1025500038852E3F394008F4C4C084E080930B01D5
:102560008CE080930A01B201C8010E9426027C011E
:1025700020910C0130910D0150E040E060E871EADB
:1025800083E09CE10E94601ED7010E94B31EAF81D0
:10259000B8859D0150E040E00E94601E809140019E
:1025A000882371F08091310190913201A091330123
:1025B000B091340182179307A407B50708F07CC0D7
:1025C0002093310130933201409333015093340111
:1025D000B6018B819C810E942602909336018093E4
:1025E00035019801A0E1B7E20E949E1E20910C01E6
:1025F00030910D0150E040E00E94601E30933801A0
:102600002093370181E04091310150913201609176
:1026100033017091340109851A852B853C8540175B
:1026200051076207730708F049C000933101109306
:1026300032012093330130933401B5018D819E81A5
:102640000E94260290933601809335019501A0E106
:10265000B7E20E949E1E209105013091060150E0D4
:1026600040E00E94601E205F384D30933801209377
:1026700037019201A0E1B7E20E949E1E2091050160
:102680003091060150E040E00E94601E30933A0114
:10269000209339019301A0E1B7E20E949E1E209190
:1026A0000C0130910D0150E040E00E94601E30931B
:1026B0003C0120933B010ECF80E0A5CF8111D9CF03
:1026C000909140019F5F90934001882309F427C1B6
:1026D00020923D01088D00933E01198D10933F011A
:1026E0001EC121E64216510408F060C009343DE0E5
:1026F000130708F45BC085E080930B0182E08093B0
:102700000A01C60186509F4F8E159F05C8F583E0CC
:1027100080930A01432D4770342E822D806480936C
:102720007C007BE0F72E01E010E0A89560E0892DA9
:102730001ED38A8184B985B986B18321E9F784B82B
:1027400080917A00806480937A0080917A0086FD7F
:10275000FCCF8091780090917900080F191FFA94AE
:10276000F110E3CFC801880F991F880F991F69E006
:1027700070E00E944C1E70933C0160933B01BBCB08
:10278000A0900C01B0900D01B601C7010E94260275
:102790009501DC010E949E1E980150E040E00E94DD
:1027A000601E3093360120933501B4CF17B818B8A6
:1027B00014B815B817B897EC491691E0590608F403
:1027C000D3C018B80E8504B918EC0981032907B9DC
:1027D0000E94A601298127B9888D0E94BF014297D6
:1027E00010F01150A1F70E8504B905B961E0892DEB
:1027F000BED2888D0E94BE015C011F8914B915B834
:1028000037B838B860E0892DB2D2898D0E94BE01F8
:102810000E9421027C010D8504B9898D0E94BF01AF
:102820008C01888D0E94BE01B8010E9426026C01B5
:10283000898D0E94BF018C01888D0E94BE01B80164
:102840000E94260296012C5E3F4F2817390708F494
:1028500066C018B8198117B984B885B861E0892DA8
:1028600086D2898D0E94BF018C01888D0E94BE0195
:10287000B8010E9426028C01C816D90608F05AC079
:102880002E8524B925B9888D0E94BE01FC017501F1
:1028900028E4E21626E0F20608F05CC0970153E057
:1028A000369527955A95E1F7083E43E0140708F05E
:1028B00054C0C80164E670E00E944C1EC8018759EC
:1028C00091098938914108F04FC0E017F10708F0ED
:1028D0004BC02E0D3F1D2017310708F045C06E1567
:1028E0007F0508F041C080910B01833018F483E02C
:1028F00080930B0120910901822F90E0FC01E658A2
:10290000FE4FB88DB083398D3683880F991FFC0137
:10291000EA57FE4F118300832F5F2093090117B8F8
:1029200018B814B815B88EE20E94F0046996E2E176
:102930000C94D91E0F8904B915B837B838B860E0BF
:10294000892D15D2898D0E94BE010E942102FC01B1
:1029500086019ECF28EC30E0A7CFB80144E0769501
:1029600067954A95E1F7AACF698D888D01D0D7CFB9
:10297000B0E0A0E0EEEBF4E10C94BF1EC82FD62F20
:10298000A895862F90E0FC01E258FF4F54903396B3
:1029900024914C2F50E0FA01E258FF4F14913396E6
:1029A000049160915E0130914001630F7727771F9A
:1029B000672B09F065C0A89560910F017091100117
:1029C000660F771F660F771F7093220160932101B6
:1029D00060915F0170916001660F771F660F771F2E
:1029E0007093200160931F013EEB30931D013091E5
:1029F0000901EAE7F1E0DF01480F591F9A2F9E1BFA
:102A0000931708F118B827B914B915B9B8E1BB2E56
:102A1000D12CC12C8D2F0E94BE01782E692E8C2FB7
:102A20000E94BF017C018C199D0997FF03C09195FD
:102A30008195910903970CF46BC1A895BA9467012D
:102A4000B110E8CF0AC08D9115966C911597680F5B
:102A50007727771F6417750789F680910F0190918A
:102A60001001909322018093210180915F01909148
:102A700060019093200180931F0189E180931D01E3
:102A8000CDB7DEB7E0E10C94DB1E25E8C21621E0ED
:102A9000D20618F7043AA2E01A0708F0B1C0B8E964
:102AA000AB16B104D0F2C6010E942102AC0196011E
:102AB000A8E9B7EB0E949E1E9A0150E040E00E94F8
:102AC000601E29013A01C5010E9421029C01A8E96A
:102AD000B7EB0E949E1E950150E040E00E94601EF0
:102AE00088E7C8168FE0D80608F06EC0F2E0440C04
:102AF000551C661C771CFA95D1F7C301B201620F11
:102B0000731F841F951F25E030E040E050E00E94D5
:102B1000601EA4E6B0E00E94B31E6B017C01BCEA1B
:102B2000CB0EBDE0DB1EE11CF11C10910B0114303B
:102B300008F093CFC150DC0F8D2F90E0FC01E75BD4
:102B4000FE4F2081880F991F880F991F89569E4F2D
:102B5000DC01222309F4C1C08D909D90AD90BC9002
:102B6000A7019601281939094A095B0957FF07C0CF
:102B700050954095309521953F4F4F4F5F4FAAE0BC
:102B8000B0E00E94B31EB4E68B0E911CA11CB11CD8
:102B9000C80CD91CEA1CFB1C6C157D058E059F0515
:102BA00008F05BCF133019F081E080930B0182E0D5
:102BB000808380916101E82FF0E0E45BFE4FD083D9
:102BC0008F5F8093610149CFA8E7AA16AFE0BA06EC
:102BD00070F4E2E0220F331F441F551FEA95D1F72E
:102BE000CA01B901640D751D861D971D8CCF240D7A
:102BF000351D461D571D569547953795279589CF05
:102C0000C0900C01D0900D01672D762DE616F706C9
:102C100008F4B701C7010E9426029601DC010E9458
:102C20009E1E2B013C01C7010E9421029C0150E025
:102C300040E0C301B2010E94601E29013A01A09048
:102C40000501B0900601892D982D8017910708F491
:102C5000C801B8010E9426029501DC010E949E1E57
:102C6000980150E040E00E94601E88E7E8168FE07F
:102C7000F806B0F462E0440C551C661C771C6A959B
:102C8000D1F7C301B201620F731F841F951F25E0A6
:102C900030E040E050E00E94601E69017A0145CFBB
:102CA0000837AFE01A0770F4CA01B90152E0660FA5
:102CB000771F881F991F5A95D1F7640D751D861DC2
:102CC000971DE5CF73016201C20ED31EE41EF51EEF
:102CD000F694E794D794C79428CFCD92DD92ED92E5
:102CE000FC92139781E08083B8CE550C54B88D2F99
:102CF0000E94BE015C01B0ECEB16B4E4FB0608F4E4
:102D0000C4CE80EBC8168DE4D80608F0A6CEC2CE9D
:102D1000110F15B814B98C2F0E94BE018135910591
:102D200008F09BCE15B98C2F0E94BE016C0107B92B
:102D300008B915B854B8A8E14A2EB12CA12C8C2F93
:102D40000E94BE01982E892E8D2F0E94BF018C01FA
:102D50008A199B0997FF03C0919581959109039763
:102D600024F2A8954A9458014110E9CF76CECF932A
:102D7000C82FC09595B160FF0FC0982B95B994B13D
:102D8000982B94B90E94A50184B18C2384B985B194
:102D90008C2385B9CF9108959C23F0CFB0E0A0E0BB
:102DA000E3EDF6E1F3C71AE08FE3B82E09E017B8B8
:102DB00018B815B8B4B880E00E94BE017C0181E06B
:102DC0000E94BF01EC0182E00E94BF019C01809142
:102DD0000B01893061F084E0E816F10470F4C4302E
:102DE000D10508F053C02430310508F051C017B8A0
:102DF00014B8CDB7DEB7E9E0E5C791E088EEE81694
:102E000083E0F80608F090E0C83ED34008F49260F2
:102E1000283E334008F4946097B9D0E0C0E0A8950C
:102E200080E00E94BC016C0181E00E94BF017C0136
:102E300082E00E94BF0124E1C21625E0D20608F418
:102E4000389A24E1E21625E0F20608F4399A843132
:102E500025E0920708F43A9A26E0C216D10430F42D
:102E600026E0E216F10410F4069738F02196C43FEC
:102E700081E0D807A1F600930B01F12CE12CEC16B0
:102E8000FD0641F4115009F092CFB3CF91E0BCCFD1
:102E900091E0BDCF0E94AB012FEFE21AF20AEFCF13
:102EA000CF92DF92EF92FF92CF9320916401309105
:102EB00065014091660150916701C09176018AE0F9
:102EC000C82ED12CE12CF12C8C2FCF5F213A96E823
:102ED000390791E049075105D0F480937601A0911C
:102EE0002101B09122013FD728E833E140E050E0D2
:102EF000E7D62093640130936501409366015093B7
:102F00006701CF91FF90EF90DF90CF900895CA01B5
:102F1000B901A7019601D4D6D7CFB0E0A0E0E2E98D
:102F2000F7E131C7182FD62E880F810F9FEF960F2C
:102F3000890F80934201E12FF0E0E258FF4F0491A6
:102F4000862F90E0FC01E258FF4FC491FC01EF573F
:102F5000FF4FC49080910B01909109012AE731E065
:102F6000D9018130B9F4CDB7DEB7ECE028C71696A9
:102F70008C9116978D110DC08C9181130AC0FD01A3
:102F8000EE0FFF1FEA57F140448555854C3D5540F3
:102F900050F311968A2F821B891748F31092710102
:102FA0001092700181EF809376011092640110926B
:102FB00065011092660110926701F0DE18B8C7B87B
:102FC000C4B9C5B9812F0E94BF017C018D2D0E941B
:102FD000BF0114B8D0E0C0E05C01AE18BF0805B96D
:102FE00004B90E94A50114B815B80E94AC01A895B7
:102FF000812F0E94BF017C014501880E991ECE37AA
:10300000D10520F02BE4821691045CF08DE2881645
:1030100081E098060CF039C12196C43F21E0D20727
:10302000F1F617B818B814B815B89DCF85E1881611
:1030300085E098060CF42CC1B1DE15B887E087B99D
:1030400018B8F02EFF0CF4B880E480937B0084E580
:1030500080BF812F806480937C0086E180937A001A
:103060000E94AF011092800010928500109284009F
:1030700087E286BBF5B880910B01853009F0F7C077
:1030800081E08093810081E090E0012E01C0880FF3
:103090000A94EAF78095877087B9F12CE12C91E0CA
:1030A00086B385FD0CC080FFFBCF96BBA8952FEFA4
:1030B000E21AF20A20E4E21626E0F20689F71092FC
:1030C000810090E296BBA0908600B090870020918E
:1030D000840030918500A216B30638F480FF05C045
:1030E00081E086BB8FEFE81AF80A86E980937A00C0
:1030F00014B815B8812F0E94BF012091250130918D
:103100002601821B930B0C96909379018093780192
:1031100020E2E21623E0F20608F083CFF0926F017E
:10312000E0926E01B0926D01A0926C0184EF8093E9
:10313000760182E4E816F104C0F060916C017091B0
:103140006D0180916E0190916F0124E630E040E0C6
:1031500050E0B6D520936C0130936D0140936E0121
:1031600050936F0186EF80937601A0916201B09138
:10317000630120916C0130916D0140916E0150917D
:103180006F01F1D520E233E040E050E099D5209383
:103190006C0130936D0140936E0150936F01209349
:1031A000640130936501409366015093670178DEB6
:1031B00080917601843F09F048C08090640190902E
:1031C0006501A0906601B090670120EA82162FE0A9
:1031D0009206A104B104B8F4A501940124523F4F12
:1031E0004F4F5F4F60EA7FE080E090E069D5820E4C
:1031F000931EA41EB51E8092640190926501A09258
:103200006601B09267018091420190E083539E4F26
:103210001ED64091640150916501609166017091E4
:10322000670190E0B0E0A0E084179507A607B70714
:1032300018F5481B590B6A0B7B0B409364015093A4
:103240006501609366017093670104B98091640120
:1032500090916501A0916601B09167014997A10520
:10326000B10508F082C0DDCEC12C00E035C081E0A0
:1032700080938100C7B811CF10926401109265014C
:103280001092660110926701E0CF209709F4CECE2C
:10329000B12CA12C0E94A601812F0E94BF01A895EC
:1032A0002FEFA21AB20ACA15DB05A0F7E81AF90A2D
:1032B0001E141F04CCF689ECE816F1040CF0B1CE14
:1032C00028EE33E0D70149D59401092C000C440BBA
:1032D000550BF6D4C22E032F2196CE01B0E0A0E00C
:1032E00080936C0190936D01A0936E01B0936F0178
:1032F000C4018E0D9F1D0E94DF0220916C01309150
:103300006D0140916E0150916F01DC012CD56093ED
:103310006C0170936D0180936E0190936F016093C7
:10332000640170936501809366019093670187EF54
:1033300080937601B5DD2091640130916501409163
:10334000660150916701A8EEB3E00DD524E630E0A8
:1033500040E050E0B5D42093640130936501409380
:10336000660150936701CC2DD02F809109018823ED
:1033700029F080910B01853009F053CE88E08093CD
:103380000B0180917601909177019817C4F0891311
:1033900048CE8090640190906501A0906601B09045
:1033A0006701409168015091690160916A017091D3
:1033B0006B01481559056A057B0508F032CE40912E
:1033C00064015091650160916601709167014093BD
:1033D00068015093690160936A0170936B01809357
:1033E0007701D0937301C0937201D092740110934E
:1033F000750117CEB0E0A0E0EFEFF9E1C4C488E8B2
:1034000093E19093100180930F0190932201809398
:1034100021018EEB80931D0118B880E187B90E94CD
:10342000B40117B884E00E94BE01AC018B5C9840E7
:10343000833F914090F481E080932C012091210101
:1034400030912201AFEBB9E079D49A0150E040E02D
:1034500037D43093100120930F0180910F01909188
:10346000100190932201809321018EE00E94BF0100
:103470008EE00E94BE0190932601809325010E9458
:1034800087028CDC18B8C1E0C7B985E185B9C4B939
:1034900080E00E94BE018C0182E0D82ED7B8D4E033
:1034A000D4B981E00E94BE01080F191FD7B990E17D
:1034B000C92EC4B882E00E94BE01080F191F15B8BA
:1034C000C8B9C7B9C4B980E00E94BE010E942102F8
:1034D0007C01D8B8D7B8D4B981E00E94BE010E945F
:1034E0002102E80EF91ED8B9D7B9C4B882E00E940B
:1034F000BE010E942102E701C80FD91F17B818B8F2
:1035000014B880912101909122016C01CC0CDD1C3A
:10351000C80ED91EC8018C0F9D1FC81AD90AF12CDC
:10352000E12C9801A0E9BAE109D4A7019601C8D31A
:1035300049015A0130932B0120932A019E01A0E9F1
:10354000BAE1FCD3A7019601BBD3309324012093A9
:1035500023012057354E30930D0120930C0180E755
:10356000881A85EE980A909206018092050189E1F9
:1035700080931D01CDB7DEB7ECE021C40F93CF934C
:10358000C62F0E94FB0480E690E00E94580595D06B
:103590008091110187FF04C08CE590E00E945805DE
:1035A0008C2F0E94FB040E94AF0580E00E94CE0594
:1035B00080914C010E941301809111018E3F94F47F
:1035C00086E790E00E945805609192017091930106
:1035D000809194019091950103E028E440911101BC
:1035E0000E940106CF910F910895EF92FF920F93E1
:1035F000CF93DF930E940305809174010E94FB0426
:1036000082E990E00E94580587D260917401809110
:1036100075010E944203EC01909371018093700147
:10362000E0907201F0907301CA3F8FEFD80720F449
:1036300081E690E00E945805809175010E94FB048C
:103640000E94AF050E940A056091680170916901AE
:1036500080916A0190916B0104E026E4409177012A
:103660000E940106CA3FDF4F68F481E890E00E94A3
:10367000580522E044EF6EEF809170019091710146
:103680000E94AD060E94AF050E941205EF2869F066
:103690008AE790E00E94580522E045E26FEF8091B2
:1036A0007201909173010E94AD060E94AF05DF91F7
:1036B000CF910F91FF90EF900895A6E1B0E0E2E680
:1036C000FBE15BC382E08093110180910B018130AB
:1036D00009F0CFC180916101813009F0CAC14090E9
:1036E0004C0124E0429EF0011124E956FE4F8081F6
:1036F0009181A281B381893032E59307A105B1059B
:1037000008F0B7C11C01712C81E0871508F4B4C121
:10371000842D0E940901982E892EE92FF0E0EF57A1
:10372000FF4F549090E0FC01E258FF4FE49115B830
:1037300018B8272D2170622E30EF2316310408F0BF
:10374000A2C12111A0C100910501109106010059EB
:103750001A4121E030E002C0220F331F8A95E2F7C0
:10376000C901852987B934E1398B892D0E94BD01B2
:103770005C01882D0E94BF0124E0A216B10410F460
:10378000049728F039893150398B3111EECF80E41C
:1037900080937B0094E590BF892D806480937C00AA
:1037A00026E120937A00F12CE12C109280001092F7
:1037B00085001092840037E236BB0E94AF01872D4E
:1037C00090E09A8B898B611065C181E880938100BC
:1037D00058B886B385FF67C118B81092810020E2FF
:1037E00026BB2091860030918700690140918400BA
:1037F000509185002417350708F463C186E980934A
:103800007A00B4E15B2E892D0E94BD015C01882DF8
:103810000E94BF0124E0A216B10410F4049718F02E
:103820005A945110F0CF80902A0190902B01820C75
:10383000931C800E911E20910701309108010039E0
:103840008AE1180708F045C169E191EEC916D10473
:10385000E104F10428F4C60165E070E01DD2645172
:1038600028523109261B310967FD339566E0862F02
:1038700090E0B0E0A0E08C159D05AE05BF0508F016
:1038800030C1C81AD90AEA0AFB0A662029F082E286
:10389000C80ED11CE11CF11C90E5E916F10418F0EA
:1038A000C12CD12C76018BE0C816D104E104F104BF
:1038B00028F091E0C91AD108E108F108B12CA12C37
:1038C000A8EEB3E03BD26B8B7C8B8D8B9E8BA09153
:1038D0002101B0912201980131D2A5019401F0D1CA
:1038E000442755276B897C898D899E89E9D1C90137
:1038F0000E941E03FC01A5019401C701B601B1D1CC
:103900004B015C01BF0190E080E0E3E0660F771FB0
:10391000881F991FEA95D1F76B5F7F4F8F4F9F4F9D
:103920002AE030E040E050E0CBD1C501B401C8D17D
:10393000E989FA89EE0FFF1FEE0FFF1F81E090E08B
:103940008C0F9D1FE80FF91F20833183428353831F
:10395000611018C09CE0C916D104E104F10490F094
:103960007394E989FA893196EE0FFF1FEE0FFF1F5E
:1039700081E090E08C0F9D1FE80FF91F20833183B9
:1039800042835383A895739493E0971508F0BCCEB7
:1039900018B80E94A40191E00D811E812F81388505
:1039A00049815A816B817C814017510762077307F7
:1039B00008F090E00D851E852F85388949855A8548
:1039C0006B857C8583E0401751076207730708F019
:1039D00082E024E0829FD001112421E030E02C0F0E
:1039E0003D1FA20FB31FE92FF0E0EE0FFF1FEE0FF8
:1039F000FF1FE20FF31F0D911D912D913C9140810E
:103A0000518162817381041715072607370708F073
:103A1000892F34E0839FF001112421E030E02C0F46
:103A20003D1FE20FF31F40815181628173814093FA
:103A3000920150939301609394017093950180FDDE
:103A400054C030EF2316310408F04FC08BEF809341
:103A500011018091920190919301A0919401B091F4
:103A60009501892B8A2B8B2B11F41092110117B819
:103A700014B86696E2E19DC1842D0E940901982741
:103A80008927982748CEE4B957B8009105011091CD
:103A9000060169CE58B80E94B80190E296BB81E851
:103AA0008093810096CE80FF94CE31E036BBA895FE
:103AB00097012F5F3F4F79012035310509F089CEFD
:103AC0008BCE80FF9BCE81E086BB9FEFE91AF90A7F
:103AD00095CEC40160EB76E3DFD0695F285D3F4F90
:103AE000C6CEC12CD12C7601D0CE8CEF80931101A3
:103AF000CB01BA016B5F7F4F8F4F9F4F2AE030E0C1
:103B000040E050E0DDD02093920130939301409348
:103B10009401509395019DCFB0E0A0E0E1E9FDE173
:103B20002EC100917201109173010115110509F068
:103B30008AC0E0917401F0E0EF57FF4FD491E0911B
:103B40007501F0E0E258FF4FC49128D918B815B8B4
:103B5000D7B9C4B9809175010E94BF017C01D09191
:103B600077018CE08D0F843008F06DC08091680182
:103B700090916901A0916A01B0916B01D15F2C0114
:103B80003D0125E0420E511C611C711CC301B201B4
:103B90002AE030E040E050E093D049015A01DA01D8
:103BA000C901DF5FD73059F72AE5421623EC5206E8
:103BB0006104710408F047C0059708F444C0C5B912
:103BC000C4B9D0E0C0E0C815D90508F440C014B8A5
:103BD00015B8A89585E080931D01809175010E941C
:103BE000BF01EC01CE19DF09E816F90610F0D0E0AC
:103BF000C0E0D12CC12CC814D90468F180917501A2
:103C00000E94BF0129E120931D01A895E816F9063D
:103C100018F48C010E191F090C171D0778F49E016A
:103C2000201B310B59F0A4EFB1E088D09E0150E089
:103C300040E046D03093730120937201AFD817B89B
:103C400018B814B815B8CDB7DEB7E0E1B4C00E941B
:103C5000B6012296B8CF0E94B6018FEFC81AD80AD3
:103C6000CACFDB018F939F937ED0BF91AF91A29F6C
:103C7000800D911DA39F900DB29F900D112408956A
:103C8000991B79E004C0991F961708F0961B881FAE
:103C90007A95C9F780950895AA1BBB1B51E107C00F
:103CA000AA1FBB1FA617B70710F0A61BB70B881FCC
:103CB000991F5A95A9F780959095BC01CD0108955B
:103CC000A1E21A2EAA1BBB1BFD010DC0AA1FBB1F20
:103CD000EE1FFF1FA217B307E407F50720F0A21B92
:103CE000B30BE40BF50B661F771F881F991F1A94FF
:103CF00069F760957095809590959B01AC01BD0129
:103D0000CF010895052E97FB16F400940FD057FDB0
:103D100005D0D6DF07FC02D046F408C05095409588
:103D2000309521953F4F4F4F5F4F08959095809567
:103D3000709561957F4F8F4F9F4F0895A29FB0015F
:103D4000B39FC001A39F700D811D1124911DB29FCF
:103D5000700D811D1124911D0895F0DFB7FF0895A6
:103D6000821B930B0895EADFA59F900DB49F900DE1
:103D7000A49F800D911D112408952F923F924F9280
:103D80005F926F927F928F929F92AF92BF92CF92EB
:103D9000DF92EF92FF920F931F93CF93DF93CDB7F4
:103DA000DEB7CA1BDB0B0FB6F894DEBF0FBECDBF6C
:103DB00009942A88398848885F846E847D848C843D
:103DC0009B84AA84B984C884DF80EE80FD800C8146
:103DD0001B81AA81B981CE0FD11D0FB6F894DEBF29
:103DE0000FBECDBFED0108954532510518F44230A4
:103DF00008F004C0FB011082CB010895BB27FB0132
:103E00005527AA27880F991FAA1FA41710F0A41BD3
:103E100083955051B9F7A05DAA3308F0A95DA1932D
:103E2000009779F7B111B1931192CB0100C0DC0179
:103E3000FC01672F71917723E1F7329704C07C91E1
:103E40006D9370836291AE17BF07C8F30895F99917
:103E5000FECF92BD81BDF89A992780B50895262F8F
:103E6000F999FECF1FBA92BD81BD20BD0FB6F8945F
:103E7000FA9AF99A0FBE01960895F1DF272FF0CF35
:043E8000F894FFCFE4
:00000001FF
