:10000000BDC50000CDC50000CBC50000C9C50000BE
:10001000C7C500000C945534C3C500000C940210F1
:10002000BFC50000BDC500000C946B270C94443480
:100030000C9449340C944727B3C50000B1C50000A7
:100040000C942334ADC50000ABC50000A9C5000069
:10005000A7C500000C940310A3C50000A1C50000B3
:100060009FC500009DC50000E62FF72F903009F4D2
:100070009395E5B8C4B8B6EFB0937A00A5E0A09325
:100080007B00A8E0A093810010928000AFEFA093C6
:100090008500A0938400A6E0A093360010928B0008
:1000A00010928A00B3E0AFE3A91B51E0392F33303F
:1000B0002AF0A05CBC4F53953350F9CFB093890020
:1000C000A0938800A0917A00A4FFFCCFB6EBB09378
:1000D0007A00A2E0A0936F00A9E0A093810062E003
:1000E000A0E0A0937B00A1E0A09353008895E5B821
:1000F000C4B884FF1AC0A8E10000AA95F1F7EF93F5
:10010000FF93E7B1F8B1A4E0C2FCA2E0C0FCA1E01B
:10011000BF2FBA2BAE2BB8B904B9A7B9E7B9F8B954
:10012000FF91EF910BC00C947300ACE10000000054
:10013000AA95F1F725B9E5B8000004B9A0918400AB
:10014000A0918500B0918900A395AB1760F7A091AD
:100150007A00A4FFF3CFB6EBB0937A006A9571F7FB
:100160006091780070917900308186FD630F619312
:10017000308186FD731F80FF7193652F4A9579F753
:1001800010926F0010928100B6E0B0937A0008954B
:10019000C401BD01B60118000720080808F80000D6
:1001A000002060A03FA06020020202FF02020210B5
:1001B00010101F000000050842818989760508C2D9
:1001C000A19189860508000402FF0010100508F8B7
:1001D00078385888091003081C3E7F0D080710FF67
:1001E000818181F1E1C1FF4040404743410D080159
:1001F00010FFFF11080310F1E1C14743410E000851
:10020000202121122060E0E0E0FEFE040201000156
:10021000037F7F21C2C4C4C040948400070301024D
:10022000040E080210FEFE7F7F0000000011000592
:10023000202060E0E0E00201000103C2C4C4C0402D
:1002400007030102040104100102044E6F742063CD
:10025000616C696272617465642100B90387035837
:10026000032E030703E402C302A402880200001461
:100270000029003E005300690080009700AE00C6D0
:1002800000DF00F80012012D01490165018201A083
:1002900001BE01DE01FF012102440268028E02B5A7
:1002A00002DE020903350364039403C803FE033727
:1002B000047304B404F90443059305EA054906B33D
:1002C000062907AE074808FF08DE09FD0A930C4817
:1002D0000F991B000000000000000000000000005B
:1002E0000000001E2121211200807F0000007E4AB4
:1002F0004A4A34000000000000FC402010080402BC
:1003000001000000010101010101010101010101E0
:10031000017F0488D0E0F0F8000000000000000039
:1003200000000000000000000000FC949484000025
:100330000102FC0000000000000000000000001EA0
:1003400021212112E0C0804020100F000000C020B9
:10035000202040000000FC00009E9E0403030303D5
:1003600002000000202023242525232020203F00F8
:10037000007B7B2142840480C0000000000000005C
:1003800000000000000000FC9494840004060707AD
:100390000708F0000000000000000000000000005E
:1003A000803F2121120C00000000FF000000F00837
:1003B0004848C80000FE0000E7818181C1E1F18169
:1003C000818101002020202121212020203F0000C8
:1003D000F340404041434740407FC00000000000E0
:1003E00000000000000000000048949494640000A5
:1003F0000000FF00000000000000000000000000FE
:100400000000003F2121120C0000FF000000F00856
:100410004848D0000000000000FEFE04040404046C
:100420000404070008080809090908087F3E1C0899
:10043000087F7F20202020202020E00000000000F6
:100440000000000000000000000000489494946444
:100450000000FF0000000000000000000000FF009E
:100460003C0A090A3C002231292926000082868E96
:100470009EBEFEFEBEDEEFF6FAFEFEFAF2E2C2829B
:1004800000000008080804027984A4A46800FF00A2
:10049000000000000000000000000000000000005C
:1004A000000000000000FF0000F0282428F00010E9
:1004B00008FC0000000000000000000000003C0AF2
:1004C000090A3C00FF0000000000000000000000DE
:1004D00000000000000000040C1C3C7CFF7C3C1C65
:1004E0000C040000000000009EA1A9A99A804323EB
:1004F000130B0703FF0303030303030000000000C3
:10050000000000000000788484844800FF000000A0
:10051000000000000000F00804E2110909090909BF
:10052000090909091121C2040810E00000000102B4
:1005300004040700000000008040201088442310BD
:100540000804030000000000000000000000FE019D
:1005500000FC02010000000000000000000000009C
:100560000000000000007949497900000000000007
:1005700000000000F8040222548804030002020173
:10058000007884020202847806040700070406004B
:10059000FC00000080FC0007010101000100000CCC
:1005A00012120C000000000000000000000000001B
:1005B000000000000000000000003CFE3C000000C5
:1005C0000000060000000000160E00160E000000DD
:1005D00000000000000010FC1010FC1000010701DA
:1005E000010701001824FE4488000003040F0403DF
:1005F000000C12924C20100802010006090906881E
:100600005422548800800102040402010200160EE4
:1006100000000000000000000000000000F00804DE
:100620000200000001020408000000020408F000BB
:10063000000008040201004850E0FCE050480201BC
:100640000007000102404040F84040000000000365
:1006500000000000000000000000000B050000008A
:1006600000404040404040400000000000000000CA
:10067000000000000000000606000000000000006E
:10068000C0300C03000C0300000000F8844222126A
:100690000CF80102040404020100080402FE000038
:1006A000000000000700001884424242241807049A
:1006B00004040404040C02022222548803040404E7
:1006C0000402016050484442FE4000000000000760
:1006D000003E2212121222C201020404040201F896
:1006E0002412121222C40102040404020102028232
:1006F0004222120E0007000000000088542222222D
:10070000548801020404040201384482828244F8BD
:10071000020404040402010018180000000000068E
:10072000060000000000181800000000000B070081
:100730000000000040A010080402000000010204B4
:1007400008002020202020200001010101010100DB
:1007500002040810A040000804020100001804026E
:10076000824224180000000D000000FC02629292F8
:1007700092FC03040404040400F08884828488F05A
:1007800007000000000007FE2222222222DC0704CC
:100790000404040403FC02020202020C0304040425
:1007A000040403FE0202020202FC0704040404041F
:1007B00003FE22222222220207040404040404FE6F
:1007C00022222222020207000000000000FC020296
:1007D000024242CC03040404040207FE202020202D
:1007E00020FE07000000000007000002FE020000DB
:1007F000000004070400000000000000FE000002EA
:100800000404040300FE20508804020007000000D6
:10081000010204FE000000000000070404040404B8
:1008200004FE0408100804FE07000000000007FE94
:100830000618608000FE07000000010607FC0202A7
:10084000020202FC03040404040403FE4242424286
:10085000423C07000000000000FC0202020202FC11
:1008600003040404050205FE4242C242423C070062
:1008700000000102040C12222222428C0304040410
:10088000040403020202FE0202020000000700004C
:1008900000FE0000000000FE030404040404030E34
:1008A00070800080700E000003040300007E800052
:1008B000E000807E00000700070000020C906090BE
:1008C0000C02040300000003041E20408040201E90
:1008D0000000000700000002824222120A060704FC
:1008E000040404040400FE020200000000070404E3
:1008F00000000008102040800000000000000001FF
:10090000020000000202FE000000000404070010C4
:1009100008040204081000000000000000000000AD
:1009200000000000040404040404040000000E1687
:10093000000000000000000000804848484848F0DF
:1009400003040404040207FE2010101010E0070442
:100950000404040403F0080808080810030404044D
:10096000040402E01010101020FE03040404040428
:1009700007F088888888887003040404040404004D
:1009800020FC22220204000007000000007088887A
:10099000888888F000040404040403FE402010103A
:1009A00010E007000000000007000008FA00000047
:1009B0000000000700000000000000FA0000020430
:1009C0000404030000FE4040A010080007000000DF
:1009D000010204000002FE00000000000003040009
:1009E00000F81008F00808F007000007000007F8FA
:1009F0002010080808F007000000000007F00808B1
:100A0000080808F003040404040403F89008080824
:100A100008F007000101010100F00808080890F83B
:100A200000010101010007F8201008080830070044
:100A30000000000000304848888888100204040440
:100A40000404030010FE101000000000030404045E
:100A500002F80000000000F8030404040402071870
:100A600060800080601800000106010000F80000AE
:100A7000C00000F801020403040201081020C02095
:100A8000100804020100010204788080808040F890
:100A9000020404040404030808884828180802050E
:100AA000040404040440A01C020200000000070823
:100AB000080000000000FF0000000000000F000020
:100AC00000000002021CA04000000808070000040B
:100AD00002010204080400000000000000E0100809
:100AE000040408100101010101010140F01010107F
:100AF00010F040000101010101010040FCF8F0E0AC
:100B000040FC40000703010000070040FC40E0F00B
:100B1000F8FC40000700000103070040FCFC000057
:100B2000FCFC400007070000070700F80808080859
:100B30000808080302020202020202080808080864
:100B40000808F8020202020202020340404040404C
:100B5000404040000000000000000040C000C020F5
:100B6000C000C0000102020102020220C000C02039
:100B7000C000C001020202010202010011241FBED6
:100B8000CFEFD8E0DEBFCDBF21E0A0E0B1E001C0F3
:100B90001D92AC3CB207E1F70E9481140C94513DC8
:100BA0002FCA5D98559A80FD599A80FF5998519A9D
:100BB000539A5A9867FD5B9A67FF5B985A9A5A98BE
:100BC00066FD5B9A66FF5B985A9A5A9865FD5B9A38
:100BD00065FF5B985A9A5A9864FD5B9A64FF5B982C
:100BE0005A9A5A9863FD5B9A63FF5B985A9A5A988F
:100BF00062FD5B9A62FF5B985A9A5A9861FD5B9A14
:100C000061FF5B985A9A5A9860FD5B9A60FF5B9807
:100C10005A9A5D9A5A985B98089597FF09C08F93E6
:100C20009F938DE21ED69F918F91909581959F4FB6
:100C300064E271E04AE050E00E94F03C67C6EDDFFC
:100C400001C0EBDF80E20DC68DE20BC68DE309C665
:100C5000EF92FF920F931F93182F062FF42E8DE71C
:100C600091E06CD6EE24E0913F01F0914001868541
:100C7000E81611F4812F09C08485E81611F4802F3D
:100C800004C08585E81611F48F2DEBD5E3948E2DE5
:100C9000833049F71F910F91FF90EF900895EF92E5
:100CA000FF920F931F93182F062FF42E80E0D5D4B8
:100CB00083E891E043D6EE248E2D25D6C7DFE09160
:100CC0003F01F09140018685E81611F4812F09C09B
:100CD0008485E81611F4802F04C08585E81611F488
:100CE0008F2DBFD5AFDFE3948E2D833029F71F9171
:100CF0000F91FF90EF900895682F80E092E06623B7
:100D000009F491E0623009F481E008950F93082F0F
:100D1000E4EBF1E0880F880FE80FF11D608171812D
:100D200082819381643671058105910568F4209173
:100D3000220127FD09C0802FDFDF692FF0D16EEF80
:100D400023E04DE120D704C04FEF04E02DE13BD676
:100D500079DF0F910895863058F4E3EAF1E0E80F67
:100D6000F11DE80FF11D8081918163E017D76ACFF3
:100D700008951F93182F80917A01882319F062DF5C
:100D800080E06FD58DD384E791E0D8D5812F82950F
:100D90008F70E1DF812F8F70DEDF1F9108958091CA
:100DA000060182958F7018D08091060183701AD049
:100DB00080910601DECFE7E9F1E0E80FF11D08952B
:100DC000CF93F9DF9081C681C91710F405D001C017
:100DD00012D038DFCF910895EEDF8F93808193D5C5
:100DE0008F9100C08F938CE391E0A8D58F91E3DFC2
:100DF000868189C50895DFDF8F93868184D58F91A1
:100E000000C08F9388E391E099D58F91D4DF8081E2
:100E10007AC5089503D002D001D000D000D003D00D
:100E200002D001D000D000D003D002D001D000D039
:100E300000D0A89503D002D001D000D000D003D0BC
:100E400002D001D000D000D003D002D001D000D019
:100E500000D003D002D001D000D00000089582E07D
:100E600090E0893C28F0885C48EC849FC001112404
:100E7000009709F4089540918100477019F0D9DF77
:100E80000197F6CF8130910519F002975EE303C018
:100E900057E180E090E04091B200450F4093B300ED
:100EA00042E04093700047E043BF889546E043BF6F
:100EB00010927000A895DCCF8F9384E0D1DF06C03C
:100EC0008F93CDDF03C08F9381E0CADF8F911F9393
:100ED000182F106410937C00E12FE07880912F018F
:100EE000E81759F0E0932F01AEDF8EE980937A0086
:100EF00083E083BF889582E083BF20E030E0A901D2
:100F0000E0E01FC08EE980937A0083E083BF88957C
:100F100082E083BF6091780070917900260F371FBF
:100F2000411D511DE43061F480913101803041F068
:100F300084E02030380720F417FD02C01068CACFC3
:100F4000EF5F80912E01E817E8F260913201709115
:100F5000330117FF04C0609130017091310180E0CE
:100F600090E00E94663B2FEF33E040E050E00E94AB
:100F7000A83BB901CA0120912E0130E040E050E0C9
:100F80000E94A83BC9011F9108959B01281B390BA2
:100F900050F0C9010895BC01809132019091330154
:100FA0006817790718F4861B970B089580E090E086
:100FB000089587E593E00E942B3D20913601309102
:100FC0003701280F391F209316013093170183E052
:100FD000283E380720F0C901885E934002C080E0B7
:100FE00090E062E370E00E94813B683008F067E0C7
:100FF000EBE5F2E0E60FF11DE60FF11D459155918D
:101000002591359162E3681B421B530B649FC0011D
:10101000659F900D1124499662E370E00E94813B28
:10102000620F731F70937E0160937D0189E593E0E9
:101030000E94233D992787FD90956091360170911C
:101040003701860F971F9093310180933001909361
:1010500079018093780108950F9221E08C329207F4
:1010600010F48CE291E08C52914069E170E00E94B2
:10107000813B99E16B3210F0982F6BE2981BE1ED08
:10108000F2E0E60FF11DE60FF11D9F93CF010E94E4
:10109000233D482F3196CF010E94233D582F319692
:1010A000CF010E94233D282F3196CF010E94233D7E
:1010B000382F6F91421B530B649FC001659F900DA9
:1010C00011240C9669E170E00E94813B620F731F4E
:1010D000CB010F900895CF93DF9324E130E0B90165
:1010E0000E94813BDC01EDE6F2E0E60FF71FE60F20
:1010F000F71FC591D591459155914C1B5D0B4A9FAA
:10110000C0014B9F900D5A9F900D1124B9010E9470
:10111000813B6C0F7D1FCB01DF91CF910895AEE134
:10112000B0E0E5E9F8E00C94903C662EB82E860F0E
:10113000898320911A01283059F52091830130913B
:101140008401409185015091860157FD15C0109191
:10115000920109C0CA01B9012AE0312D412D512D5A
:101160000E94A83B1F5F173FACF391F4243160E06D
:1011700036074105510518F48FEF9FEF42C1173F25
:1011800039F480E028178DE738074105410510F054
:1011900020E03DE72C8B3D8B26EDA22EE8E4F2E02B
:1011A000E60DF11D859180608E87E8E4F2E0EB0D9D
:1011B000F11D859180608F87E5E4F2E0E60DF11D79
:1011C0007590E5E4F2E0EB0DF11DC59090EC692A15
:1011D000B92A81E0E82EF12C012D112D8E831F827A
:1011E000188619861A861B861C861D86188E198EEF
:1011F0001B8E1A8E0E94962380E088B960927C0034
:1012000022DE3F8537B975B874B852E05A95F1F7C8
:101210000000000014B815B8DD243E8537B975B854
:1012200074B860927C00A895A0927A0080917A00B0
:1012300086FDFCCF2090780030907900B0927C0041
:101240004C2DE3D02091780030917900288B398B98
:101250003F8537B9C5B8C4B8A895B0927C00A092B4
:101260007A0080917A0086FDFCCF609178007091C1
:10127000790060927C00472DC8D040917800509151
:10128000790014B8CB01820D931DE80EF91E011DE3
:10129000111DEA82FB820C831D8388899989840F42
:1012A000951F2E813F8168857985280F391F611D23
:1012B000711D2E833F836887798722E324171506E3
:1012C00048F075B874B8C9DD14B815B8888D839521
:1012D000888F07C0483E73E0570718F08A8D8395C2
:1012E0008A8F888999892817190658F03E8537B959
:1012F000C5B8C4B8B2DD14B815B8898D8395898F87
:1013000007C0883E73E0970718F08B8D83958B8F0D
:10131000D3945D2D5F3F49F05F3731F45C2D550F5D
:10132000C50E572D550F750E78CF40903B0150904C
:101330003C01440C551C9201E4E0240D351DEA9556
:10134000E1F72901570168016E807F8088849984C4
:1013500020911A012830C1F46C897D89812D912D4D
:1013600065507040804090409B01AC010E94663BFC
:101370009B01AC0160E779E786E190E00E94A83B21
:10138000621A730A840A950AA614B704C804D90419
:1013900028F46A187B088C089D0803C0662477240B
:1013A0004301B20180E090E09301A4010E94663BFA
:1013B0009501A6010E94A83B8FE293E07981870FF7
:1013C000911D0E94233D682EC90160E170E00E94DA
:1013D000813B260F371FC9016816190618F48619B4
:1013E00091090FC08C5E9F4F8615910540F48C8942
:1013F0009D89843981E1980710F00E942914812D7C
:10140000912D6E96E2E10C94AC3C1092810010920A
:10141000800010926F0010928B0010928A0057E0AB
:1014200056BB5FEF509385005093840055E0509376
:101430007B0056EB50937A0051E05093810058E2C4
:101440005A95F1F7000045B944B955E05A95F1F7BE
:10145000000014B815B81092810080917A0084FFC2
:10146000FCCF80937A000895CF93C82F1C1614F0F8
:10147000CF910895E7DBC150F9CF60933E0180938F
:10148000030186958093B301660F660F660F609324
:10149000040108951092B30160E080E0EECF08955A
:1014A00081E08093B30160E082E0E7CF089582E0BD
:1014B0008093B30160E084E0E0CF089583E08093FF
:1014C000B30160E086E0D9CF089580913E0180931A
:1014D00001018091B301809302010895809102017E
:1014E00060910101880FC9CF0895CF93C82F692F4C
:1014F00081E057DB6C2F81E054DBCF910895682F9A
:1015000080E04FCB0895CF93DF938AE2F8DF90E03D
:1015100080E0EBDF80EA90E0E8DF8BE2F0DF90E054
:1015200080E0E3DF80E890E0E0DF8CE2E8DFC0E02D
:10153000A895D0EA80911B0190911C01D6DFD15073
:10154000C9F7CF5FC038A1F7A5DFDF91CF9108952C
:10155000CF93DF9358985A985B985D98509A529A17
:10156000539A559A75DC5D9A559A5998519A84E127
:1015700077DC589A84E174DC8AE072DC81E1BFDFB9
:1015800084E06EDC86E2BBDF64E081E00ADB81EBB5
:10159000B6DF6EE081E005DB64E181E002DB80EC38
:1015A000AEDF80E09EE0A1DF81ECA9DF65E081E0B5
:1015B000F8DA85ECA4DF80E498E397DF8AE39FDF25
:1015C00065E081E0EEDA86E39ADF8EE293E00E9446
:1015D000233DCBE1D1E088838DE293E00E94233D5F
:1015E00089838CE293E00E94233DC5E9D1E08883A2
:1015F0008BE293E00E94233D89836CE381E0D1DAA2
:1016000084EB7DDF60E081E0CCDA7DDF89E277DFAB
:101610008AE026DCDF91CF91089590913E0184E12C
:10162000891B22CF0895CF93C82FF7DF8091B30194
:101630008F5F8093B301883068F087E08093B301B7
:1016400081E0809341018091B3016C2F880F15DFF9
:10165000CF91089510924101F6CFE5DF85C408953A
:1016600019DFDBDF17CF08951BDFD7DF19CF089510
:10167000582F28E030E090E841E080E0652F6423B7
:1016800009F0892B440F969521503109B9F7089537
:10169000A6E0B0E0EEE4FBE00C94903C9E838D83EA
:1016A000F42E10E0462E512CC201800F911F813A7A
:1016B00091050CF08BC08E2D90E0AC014F0D511DAB
:1016C000413851050CF082C0EA94EF0CE7FE02C0ED
:1016D0005FE7E52E322F3270398321FF13C0019767
:1016E00043E0959587954A95E1F7809FA001819FFA
:1016F000500D909F500D11248D819E81840F951F58
:101700009E838D8321702C83EF1408F45FC08D803D
:101710009E80800E911E6401B12CA12C8F2D90E033
:1017200027E730E0281B390B3B832A832EE7222E44
:10173000312C281A390A39C08BE2E1DE8A819B817B
:10174000D4DEC101D2DE8AE2DADE32016A0C7B1C11
:10175000C301CBDEC301C9DE8CE2D1DE9C81F60180
:101760003197911104C0ED81FE81EA0DFB1D74904B
:101770002981222319F0872D7BDF782E38E0632E14
:1017800080915C0190915D0177FC04C080911B0108
:1017900090911C01AADE770C6A946110F1CF3FEFA3
:1017A000A31AB30A81E0C81AD1082D813E81C2165E
:1017B000D30609F0C1CF3981332319F04601801ACD
:1017C000910A88E0F80E9E828D829ECF2696E2E1F5
:1017D0000C94AC3CEF920F93482F8FEF93E09093D3
:1017E0005D0180935C01842F8F7320E6829FC0018E
:1017F00011248D529D4F28E046FF28E520930501D6
:101800001092000147FD08C02091050130E230939D
:1018100000012D5D2093050120E2E22E08E120E089
:10182000409100016091050133DF0F91EF90089521
:10183000EF920F93262FFC0134913196449131960B
:1018400004913196E490E09100014E0F6091050102
:10185000630F04961DDF0F91EF90089560E0E8CFCD
:101860000895EF920F932091950130919601309356
:101870005D0120935C0190913E019F5F90933E013A
:10188000282F30E040910301440F440F440F609132
:1018900004018C30B0F4C90134E0880F991F3A95E7
:1018A000E1F750E1E52E08E020E08551954FF0DEAC
:1018B00080910401885F80930401A8950F91EF90B7
:1018C00008952C5131095EE0529FC001539F900D45
:1018D000112420E1E22E07E020E08D589A4FD8DE57
:1018E00060910401695F6093040140910301440F1A
:1018F000440F440F01E020E08BEA95E0C9DE8091BF
:1019000004018F5FD8CF8F5CACCF0895CF93DF9366
:10191000EC018991811103C0DF91CF910895A1DF7E
:10192000F8CFCF93DF93EC01FE018491882319F067
:1019300098DF2196F9CFDF91CF910895CF93DF9370
:10194000EC01CE010E94233D882319F08ADF219605
:10195000F8CFDF91CF910895EF920F93FC0104919E
:101960003196E490029694DE0F91EF9008950F93D4
:101970008BE991E0E3DF409191014D3F6CF4609180
:101980007F0170918001809181019091820103E03B
:1019900026E419D00F9108958FE363DFFBCF909178
:1019A00019019F70923071F458DE84E690E0C6DF32
:1019B000E0913F01F091400122E04DE16FEF848121
:1019C0009581E1C00895AEE0B0E0E9EEFCE00C9452
:1019D000903C142F322E202E6B017C010F7080E37F
:1019E00089838A838B838C838D838E83F7FE3FC0AC
:1019F0002BD9F094E094D094C094C11CD11CE11C6C
:101A0000F11C58EE452E53E0552E612C712C0330FD
:101A100041F140E1442E47E2542E612C712C0430F8
:101A200001F130EA432E36E8532E66246394712C7C
:101A30000530B9F020E4422E22E4522E2FE0622E2F
:101A4000712C063071F064E6462E512C612C712CFD
:101A5000073039F490E8492E96E9592E98E9692E15
:101A6000712C8AE0882E912CA12CB12C12C025FE5D
:101A7000C8CF8BE2F6DEC5CFC701B6016B5F7F4FE3
:101A80008F4F9F4FA50194010E94A83B69017A01E5
:101A90001F5FC414D504E604F70470F781E1810FD9
:101AA0009BEA899F812D1124782E769486E0811BF4
:101AB000899F112D11241695912F990F190F811BB4
:101AC000182F4E0187E0880E911C2AE0A401C7015F
:101AD000B6010E94CF3CF40101900020E9F7319754
:101AE0007F01E818F908DE2C812F90E004968E150E
:101AF0009F0514F473941D5F872D90E0845D9F4FC4
:101B00000E94233D982E822D807124FE05C0802FD7
:101B10008E19D01608F080E00E2D011B080F10164C
:101B200024F08EE29EDE812F8E19111101C008EF84
:101B3000A12CC82ED12CEC0CFD1C002E000C110B7E
:101B4000EA2DF0E0EE15FF0564F0992011F0892DE3
:101B500088DE332011F0832D84DE2E96E2E10C9492
:101B6000AC3C3696EC19FD0981E090E08C0F9D1F8E
:101B7000E80FF91F808175DEA394A016110601F706
:101B80008EE26FDEDDCF0F93362FBC0190E080E058
:101B9000022F242F432F17DF0F9108950F93062F45
:101BA000BC0190E080E026E54DEF0DDF0F91089538
:101BB0000F93042F28E440E006DF8AE752DE42D884
:101BC0000F910895E82FF0E0EE0FFF1FE057FE4F52
:101BD0008591949120910001420F20910501620F9F
:101BE00020E0BACE0895CF93DF93C82FD62FE0918F
:101BF0003F01F091400148E16EE18685E3DFE0912D
:101C00003F01F09140014D2F6C2F8485DBDFE09187
:101C10003F01F091400140E06EE18585D3DFDF9127
:101C2000CF9108951F93CF93DF936DDC80ECD2DDCD
:101C300062E086E991E0FCDD80E8CCDD8BEC91E0B0
:101C40000DDE60E085E019DC80E991E077DE6AE096
:101C500085E013DC88E891E071DE88E99AE31AD127
:101C600052DC83E4B7DD83E0B5DD84ED91E0F6DDA1
:101C700061E082E002DC8EE4F4DD0E9424068AEA60
:101C800091E05CDE6BE082E0F8DB80E5EADD0E945B
:101C900024068AEA91E052DE88E99AE3FBD033DC3D
:101CA00081EC98DD81E896DD8DE292E0D7DD60E0A1
:101CB00085E0E3DB8EE4D5DD0E94240685E4D1DDFA
:101CC00084EA91E03BDE6AE086E0D7DB80E5C9DDAF
:101CD0000E94240685E4C5DD84EA91E02FDE88E9D0
:101CE0009AE3D8D010DC81E475DD81E292E0B6DDC4
:101CF00081E070DD8DEF91E0B1DD60E081E0BDDB82
:101D00008EE4AFDD0E94240684E4ABDD84EA91E03A
:101D100015DE6AE082E0B1DB80E5A3DD0E942406E7
:101D200084E49FDD84EA91E009DE88E99AE3B2D099
:101D3000EADB82EC4FDD82E84DDD83EF91E08EDD62
:101D400060E085E09ADB8EE48CDD0E94240685E469
:101D500088DD8FEA91E0F2DD6AE086E08EDB80E5E7
:101D600080DD0E94240685E47CDD8FEA91E0E6DDDB
:101D700088E99AE38FD0C7DB82E42CDD8DEE91E019
:101D80006DDD82E027DD8BED91E068DD61E081E0D3
:101D900074DB8EE466DD0E94240684E462DD8FEA53
:101DA00091E0CCDD6BE082E068DB80E55ADD0E94EB
:101DB000240684E456DD8FEA91E0C0DDC0E0D4E182
:101DC0008C2F6D2F0E94753B182F91110AC0C431C2
:101DD00020F488E99AE35ED096DB60E0812F880FDB
:101DE0004CDB8CE18C0F3DDDCF5FC43649F788E9D1
:101DF0009AE350D088DBDF91CF911F91089599B17C
:101E000093FB992790F94999926080911101843050
:101E100050F08EE080930D0190930E01109212010C
:101E200081E08093110180911101E82FF0E0E35FE0
:101E3000FE4F30813917C9F091110EC02091120167
:101E4000E3E0E80FE3703230C9F4F0E0E35FFE4F07
:101E500030812F5F3330D9F0E1E0E80FE370E09399
:101E60001101F0E0E35FFE4F90838091120187FD46
:101E700003C08093130108958195FBCF313061F742
:101E8000F0E0E35FFE4F3081333031F72150209393
:101E90001201E2CFB0E0A0E0E0E5FFE00C94993C55
:101EA000E82ED92E539851980E941E0710921201C5
:101EB000E0911101F0E03196E370FF27E35FFE4F00
:101EC00080EF8083C5E6D9E19ADF4F9B25C0CE2DF8
:101ED000DD2DF12C15E500E0BB24B394D7FD16C031
:101EE00082E3C82E8CDF0E942207CA94C110FACF69
:101EF000110F4F9B1F5F1F731F33A9F4011103C004
:101F0000CE2DDD2D04E00F5F083C88F0802FCDB78B
:101F1000DEB7E9E00C94B53C0E942207D150A1F64F
:101F2000C15089F6D4CF111102C00111EFCFA8958D
:101F30001C161D0624F42A9711F4CFEFDFEF8091D1
:101F40001301882339F0F39480917B01811102C041
:101F5000B0927B0184E18F1508F0C0CF809112010F
:101F60008111D4CFF12CBACFCF93AFDAC82F8091A3
:101F70004101882301F1813051F4C73041F463E11C
:101F80008EE07BDA8BE26DDC63E18EE076DA80E472
:101F90009FE180DF811104C0809113018111F7CF8F
:101FA000C73041F480914101813021F460E08EE03E
:101FB00064DA33DB93DACF91089540911801A09150
:101FC0003F01B0914001E7E9F1E030E020E0822FED
:101FD0002417B0F451911C969C911C97591719F035
:101FE0005581951303C02F5F3F4FF1CF220F331F51
:101FF000F901ED55FE4F20813181293E334008F033
:1020000084E108951895189510921A0110921801FC
:1020100010927301109251011092190110923D011A
:1020200010927A01EEE5F1E0108211821282EFE760
:10203000F1E0108A82E0818B1092220117861686C9
:10204000148215821682178281EF838B08955E9821
:102050000E940D0790E080E01DCF08951F93CF935D
:10206000DF93162F17B818B8E82FF0E0EB5BFD4FA1
:10207000949195B9262F281BE20FF11D27FDFA95A3
:10208000E491E92BE4B90E946707EC01812F0E94DB
:102090006707AC01209132013091330136952795C5
:1020A000C9010397BE01625E7F4F8617970778F4D8
:1020B000255E3F4FC217D30750F4BA01625E7F4FCF
:1020C0008617970720F481E04217530708F080E055
:1020D00014B8DF91CF911F910895CF9361E080E014
:1020E000BDDFC82F62E080E0B9DFC80F62E081E0A9
:1020F000B5DF8C0FCF910895AFE0B0E0E2E8F0E1FA
:102100000C94903CB82E10921A01807FB9F4E5DF50
:10211000833081F4F8D983E692E010DCC1D98FE3F3
:10212000A0DB80ED97E0B6DE8B30B0F4ECD98AE02E
:1021300091E004DC2F96E2E10C94AC3C06E910E05F
:10214000E2D983ED91E0FADBC8DF833009F068C0A3
:102150001F5F143008F465C0A3D90E948B2781EB60
:1021600090E0ECDB60E081E393E00E94303D60E0D2
:1021700082E393E00E94303D60E080E393E00E94C0
:10218000303D60E082E00E948F086C019A83898371
:1021900061E082E00E948F087C019C838B8360E079
:1021A00081E00E948F088C019E838D8323E040E2B2
:1021B0006EEFC601E8DC23E040E26EEFC701E3DC2E
:1021C00023E04DE16EEFC801DEDC2AE5C216D10442
:1021D00024F084E190E09A838983698181E393E02C
:1021E0000E94303D8AE5E816F10424F084E190E095
:1021F0009C838B836B8182E393E00E94303D0A35A0
:10220000110524F084E190E09E838D836D8180E34D
:1022100093E00E94303D82E080934101A5DE07C03B
:1022200010E088E20E943007015009F089CFEB2DC1
:10223000EF70EF87E13009F04FC0EE24E394F12C0A
:1022400068EB862E62ED962E67E4A62EB12C02E096
:1022500078E0D72EE0E23E2EC12C1E2D42E2242E45
:1022600003DAFED984E5FDDAC7010E9418060E9450
:102270002206113009F0C3C184EE90E05FDB64E018
:10228000809136019091370189DC0AD98FED90E079
:1022900055DB80917D0190917E010E9418068EEBA6
:1022A00080932E0117B818B814B815B888EE93E0CB
:1022B000F1DD143011F08B3020F4C39484E0C812A7
:1022C000CFCF88EE93E0E6DDEFEFEE1AFE0AF8E0FE
:1022D000EF16F10409F0C0CF18E7FFDE811182C2CA
:1022E00012D98AEA90E02ADB23E04DE16FEF80917A
:1022F00034019091350147DCD3D883EA90E01EDBAE
:1023000023E04DE16FEF80913B0190913C013BDC7C
:1023100082E08093410128DE10921A01F4D88FE9FF
:1023200090E00CDB60E082E00E946D244090870129
:10233000509088016090890170908A015C864B867C
:1023400061E082E00E946D24809087019090880176
:10235000A0908901B0908A019E868D8660E081E020
:102360000E946D2400918701109188011E830D83C6
:1023700062E080E00E946D24809187019091880145
:102380009C838B8362E081E00E946D2480918701B1
:10239000909188019A87898761E080E00E946D248E
:1023A000E0908701F0908801FA82E982C2010E94E0
:1023B0002106C4010E942106B801110F880B990B58
:1023C00003E026E444EFFFDA2F85213009F016C23E
:1023D00082E0E80EF11CF886EF828E010F5F1F4F3E
:1023E0006E01EFE0CE0ED11CF801819191910A9718
:1023F000853B9105C8F4EC15FD05B9F730E5E32EF2
:1024000033E0F32EF80160810E5F1F4F6E5EC7014F
:102410000E94303DFFEFEF1AFF0A0C151D0591F7E2
:102420003FD880EC91E08ADA82E0809341019CDD24
:102430000E940F382F85213029F080913A01823097
:1024400009F0C6C060D880E05EDA86E691E076DA10
:1024500082E059DA84E290E071DA90E4F92E10E03B
:102460002AE0822E912CA12CB12CCEDD10921A01E3
:1024700060E082E00E946D240091910120917F0133
:10248000309180014091810150918201073F0CF40D
:10249000BFC10093910120937F013093800140934D
:1024A000810150938201073F09F0BAC120563109DA
:1024B00041095109203935454105510508F0B0C1A0
:1024C0006091930170919401CB018B569F4F8B3299
:1024D000914008F0A5C11F5F153008F4A2C187E53F
:1024E00093E00E943E3D0FD88DE190E027DA809185
:1024F0009301909194010E940D060E94D90718B88B
:1025000081E087B980E284B982E00E946707853D57
:102510009340D4F714B8109231011092300182E048
:102520000E9467077C0180917801909179019093D6
:1025300031018093300182E00E9467076C01CC0C6E
:10254000DD1C109231011092300182E00E94670779
:102550004C01A0907801B0907901B0923101A09225
:1025600030010E94500A86E190E0E8D989E593E0C5
:102570000E94233D182FD701A80DB91DAC19BD0924
:1025800095010E94F53B96010D2C000C440B550B58
:102590000E94CA3B1D5F120F612F89E593E00E94E4
:1025A000303D812F012E000C990B0E940D060E94D8
:1025B000D90782E080934101D7DC10923A0180E58F
:1025C00093E00E94233D682F83E593E00E94303D15
:1025D00089E180932E0180E00E94203B0E94830AC3
:1025E0008AE091E0ABD90E94500A8AE492E0A6D931
:1025F00010921A0182E080934101B6DC9BCD12302B
:1026000091F52091320130913301A8E5BBE10E94A0
:10261000E63B24EC36E340E050E00E94CA3B29014F
:1026200081E085B9F5E0F4B980E00E945C07841987
:1026300095099A83898381E184B980E00E945C07CF
:10264000841995099C838B8384E085B984E184B9DE
:1026500081E00E945C07841995099E838D8389EC33
:1026600090E06CD937C0133059F505B92AE024B988
:1026700080E00E945C072091320130913301369551
:10268000279538872F83821B930B9A83898324B8DD
:1026900080E00E945C072F813885821B930B9C830E
:1026A0008B83D5B888E284B981E00E945C072F81D2
:1026B0003885821B930B9E838D838BEB90E0D1CF6B
:1026C0001430D9F483E592E039D907DD882311F07D
:1026D000F2E0CF2E0E94500A89819A810E940D0655
:1026E0000E9422068B819C810E940D060E94220678
:1026F0008D819E810E940D06D5CD1530B1F415B89F
:1027000004B980E00E945C079A838983D4B881E091
:102710000E945C079C838B8334B882E00E945C0734
:102720009E838D838BED90E09CCF163051F504B9DC
:1027300005B980E00E945C0720913201309133019D
:10274000821B930B9A838983D4B8D5B881E00E9409
:102750005C072091320130913301821B930B9C83E3
:102760008B8334B835B882E00E945C072091320137
:1027700030913301821B930B9E838D8387ED90E014
:1027800070CF173009F0A6CF20913201309133017C
:10279000A8E5BBE10E94E63BA50194010E94A83B8D
:1027A000290105B9E3E0E4B980E00E945C078419DF
:1027B00095099A838983D5B8FCE0F4B981E00E9439
:1027C0005C07841995099C838B8335B820E324B971
:1027D00082E00E945C07841995099E838D8385EBB6
:1027E00090E03FCF0E94340B83E592E0A7D884E6C7
:1027F0000E943007115009F070CD72CD80913A01DE
:10280000823009F4E5CDF886EF8210923A01E5CDE9
:102810000F5FCA01B901A50194010E94A83B36CE01
:1028200010E00E94500A60917F01709180018091B8
:1028300081019091820104E026E440919101C3D886
:102840000E940D0B88E20E943007FA94F1100DCE21
:10285000BFCE80913A0181110DC080E593E00E94C6
:10286000233D61E0680F83E593E00E94303D81E005
:1028700080933A010895EF92FF920F931F93CF93A5
:10288000DF93D62FE82FF0E0E85BFD4FE491E8B945
:10289000E7B915B8E62FF0E0EB5BFD4FE491E4B942
:1028A000CE2FCC0F88E8E82E83E1F82E8D2F0E94E2
:1028B0005C078C01C4B98E159F0508F1892BD1F0F6
:1028C0000E945E0A86E491E039D8D80120EA36E811
:1028D00041E050E00E94FB3B28E937EB40E050E04C
:1028E0000E94A83BC90122E041E467EF4CD917B828
:1028F00018B814B8CDB7DEB7E6E00C94B83C780150
:10290000D5CF80E48AB98BB9D6E8D0937A001092FB
:10291000C1000E940F07C4B7C87084B7877F84BF07
:102920000FB6F894A895809160008861809360004C
:10293000109260000FBED093640088E380937E0005
:102940001092B00087E08093B10078940E94A80AAA
:10295000C11158C580E185BF84E0809311014F9972
:1029600008C00E942F07CF5FCC33C9F780E69DE6F1
:1029700004C08FE59DE6CF31C8F790930C0180939A
:102980000B0110922F010E948B2788E19FE00FB668
:10299000F894A895809360000FBE90936000CC33AC
:1029A00009F465C0C0E192E4C92E91E0D92E24E675
:1029B000E22E21E0F22E3CE0232EDDE040EFB42EAB
:1029C00053E3A52E61E2962E72E1872EE0E23E2EC1
:1029D0000E94830A17B818DB0E948B270E944A0ABC
:1029E0001FD580913D01882379F00E94500A8BE524
:1029F00091E00E949E0C63E080913201909133013E
:102A0000CDD888EC0E9430074F9B36C00E94500AF8
:102A10000E94962380911A01893009F042C00E94D9
:102A2000830A80E691E00E949E0C0E94500A63E0B7
:102A30008091560190915701B1D80E94220663E01F
:102A40008091580190915901A9D80E94220663E013
:102A500080915A0190915B01A1D88AEC0E943007C5
:102A600081E14ADB00910B0110910C01A3C10E948E
:102A700001328111FCCF96CF0E94340B80E491E0AB
:102A80000E949E0C17B883E00E94630763E04AE04F
:102A90009C01429FC001439F900D11247FD88CE37D
:102AA000B1CF83E593E00E94233D182F80E593E0AA
:102AB0000E94233D181B10933A0180E01DDB0E9409
:102AC000340B88EC92E00E949E0C42E061E080E0D2
:102AD00017D542E060E081E013D541E062E080E09C
:102AE0000FD541E060E082E00BD540E062E081E09C
:102AF00007D540E061E082E003D580911A018111A1
:102B00000EC00E94962360E082E00E946D2461E086
:102B100082E00E946D2460E081E00E946D240E94AA
:102B2000830AD0924001C0923F0180911A01863001
:102B3000E9F485EC0E94EA0B60E188EF54D866E086
:102B400080E00E943D0A8FE992E00E949E0C66E0C0
:102B500082E00E943D0A84E791E00E949E0C62E0C0
:102B6000809146019091470119D87CCF873069F454
:102B700084EC0E94EA0B60E188EF35D866E080E0E3
:102B80000E943D0A88EA92E0E0CF8830F1F480911B
:102B90008F0190919001890F9927991F029789F4CD
:102BA0000E94EB2980913A01882349F00E94830A10
:102BB0008BE492E00E94910C80E197E26BD947DAB6
:102BC00007CF80E00E9418294DCF833009F003C160
:102BD00080911801813009F065C080E00E94E00614
:102BE0006091970180919D0146DE80E70E94B906C1
:102BF00040E06091970180919D010E94363760937B
:102C00007F0170938001809381019093820180E025
:102C10000E942D0B60917F01709180018091810154
:102C20009091820102E026E442EF0E94E30C0E94B0
:102C3000240641E06091970180919D010E94363702
:102C400060937F0170938001809381019093820152
:102C500026E442EF0E94E30C81E391E00E949E0C87
:102C600080917A01882309F4FDCEC7B917B880E0B6
:102C70000E942D0B20917A01222309F4B1C3809187
:102C80006101213009F044C30E947C06209161015A
:102C9000213009F038C320911801211134C30E945A
:102CA000A12980CF823079F582E30E94310C82E243
:102CB00091E00E949E0C909197013091980193139E
:102CC00008C080E00E94FB0681E00E94F20681E0DD
:102CD0008DCF20919D0180919E01281307C080E037
:102CE0000E94EC0681E00E940107F1CF321306C07A
:102CF00081E0809306010E94CF06B2CF98133BC0BB
:102D0000C0930601F8CF8330B1F5A09206018091FF
:102D10009D0190919801891303C021E02093060141
:102D20004091970130919E01431302C0C093060168
:102D300020919901821303C082E080930601809163
:102D40009F01481302C03092060132130EC08092D8
:102D50000601981302C09092060183E30E94310C91
:102D600082E291E00E949E0CC6CF9817A1F3809159
:102D70000601823290F38EEA92E00E949E0C86E970
:102D800092E00E949E0C0E94500A80911801805D82
:102D90000E94310C8AE20E94310C8CE391E00E9487
:102DA0009E0C8CE792E00E949E0C86E00E94EA0B4B
:102DB00000E41FE1C7B94F9BFECFC8016BD8823337
:102DC00028F490911301933008F417C30E94013244
:102DD0008111FCCFFDCD843009F055C18091730184
:102DE000882309F464C080915101882309F45FC0ED
:102DF00060914E01809150010E946D2440907F01AE
:102E00005090800160908101709082011091910139
:102E100060917201809170010E946D248091420145
:102E200090914301A0914401B0914501409164010A
:102E3000509165016091660170916701843F21E0C6
:102E40009207A105B10538F4443F31E0530761050D
:102E5000710508F010EF443F51406105710538F4E9
:102E6000843F9140A105B10510F0B092910180918D
:102E70009101811310C080917F0190918001A091F8
:102E80008101B0918201481659066A067B0628F036
:102E90002092190104C01817DCF7D0931901809112
:102EA0007301882321F0809151018111CCC066E02B
:102EB00080E00E943D0A80EC0E94EA0B809119019B
:102EC0008C3009F0C9C080E991E00E949E0C80918D
:102ED0007301882319F080E70E94310C6ED8182FF7
:102EE000853098F4A0913F01B0914001E82FF0E0C7
:102EF000E956FE4F1D969C91808162E0981301C0B7
:102F000060E086E991E00E94180C60E189EF0E9480
:102F1000F30D86E00E94130B8FE991E00E949E0C56
:102F2000E0913F01F0914001608171818281938144
:102F300003E020E04EEF0E94E30C87E00E94130BB9
:102F400089E40E94310CE0913F01F09140018681BB
:102F500097818031974208F492C085E60E94310C37
:102F6000E0913F01F0914001868197818051974225
:102F7000978386830E942606E0913F01F0914001ED
:102F800022E041E46AEF868197810E94C30D86E0CA
:102F90000E94130B88E791E00E949E0CE0913F0194
:102FA000F091400163E0848195810E94CE0D81E023
:102FB00080934101E0913F01F0914001808591852E
:102FC000892B91F085E00E942D0B84E091E00E9416
:102FD0009E0CE0913F01F091400122E041E46AEF54
:102FE000808591850E94C30DE0913F01F0914001E1
:102FF00082859385892B91F085E00E942D0B8EEFC1
:1030000090E00E949E0CE0913F01F091400122E08F
:1030100041E46AEF828593850E94C30D153068F400
:1030200080E00E942D0B812F0E94E00684E791E052
:103030000E949E0C812F0E94AB0643E462E485E46B
:103040000E944F060FCD4F9932CF8091190191E028
:103050008927809319012BCFF0924001E0923F0124
:103060008BEC91E00E942E0C88E891E00E949E0C6F
:1030700080915101882309F431CF8EE62DCF83E66C
:103080000E94310C77CF853009F0F4CD66E080E006
:103090000E943D0A80911901082F007184FF66C0CB
:1030A00080E50E94310CF0924001E0923F0102E085
:1030B0000E94240680911901182F1F70143009F006
:1030C00059C08AEA91E00E949E0C83EC0E94EA0BB0
:1030D00084ED91E001116AC00E94DD0F853098F403
:1030E000A0913F01B0914001E82FF0E0E956FE4F7A
:1030F0001D969C91808162E0981301C060E086E992
:1031000091E00E94180C60E189EF0E94F30D86E0C7
:103110000E94130B86E00E94130B8091190185FD1C
:1031200061C080E791E00E949E0CE0913F01F09128
:10313000400162E0828593850E94CE0DE0913F01BF
:10314000F0914001668584850E946D2486E00E948E
:10315000130B0E94B70C85E00E94CF0C4FE367E48D
:103160008FE3143009F46CCF00E0C0C08EE40E94FD
:10317000310C9ECF85FF1DC084E40E94310C0F5F8F
:103180001330D9F484EA91E00E949E0C81EC0E94F5
:10319000EA0B81E292E0013049F08DE292E00230E8
:1031A00029F08DEF91E0033009F096CF0E942E0CAC
:1031B00093CF85E40E94310CE3CF8FEA91E00E9427
:1031C0009E0C82EC0E94EA0B8DEE91E0013071F3CF
:1031D00083EF91E0023051F3033009F07DCF8BEDA6
:1031E00091E0E4CFE0913F01F09140018F70843095
:1031F00009F454C0668584850E946D240E94B70C32
:1032000060E086E00E943D0A89E40E94310C84E679
:103210000E94310C0E942606E0913F01F09140018E
:1032200022E041E46AEF868197810E94C30D8AE61D
:1032300091E00E949E0CE0913F01F091400162E01C
:10324000828593850E94CE0DE0913F01F09140016F
:1032500080859185803C9241F8F480E00E942D0B9E
:1032600089E40E94310C84E60E94310C0E942606FB
:1032700022E041E46BEF90E080E00E94C30D8AE61B
:1032800091E00E949E0CE0913F01F091400162E0CC
:10329000808591850E94CE0D80E05ECF84819581EE
:1032A000892B09F4ADCF80E090E00E949E0CE09164
:1032B0003F01F091400122E041E46AEF8481958171
:1032C0000E94C30D9DCF011103C080E00E94130B2B
:1032D00080E00E942D0B802F0E94E00684E791E0A1
:1032E0000E949E0C802F0E94AB060F5F80911801F8
:1032F000081748F344E467E483E5133009F0A0CEEF
:1033000043E467E49CCE40E0692F0E945728AACB93
:103310009091620134E0939FD0011124AC54BE4FD0
:1033200044E0849FF0011124EC54FE4F4D905D90D9
:103330006D907C904081518162817381192F441579
:1033400055056605770508F0182F223059F5980FB6
:1033500013E0191B712E769402E0011B662463941E
:10336000112311F082E0682E872D0E94830C8DE1DD
:1033700091E00E949E0C802F0E94830C8DE191E0D1
:103380000E949E0C862D0E94830C80E00E94130BED
:1033900081E0111180E00E94860682E087190E9478
:1033A000860660CB8091630194E0899FD00111244F
:1033B000AC54BE4F24E0129FF0011124EC54FE4F98
:1033C0004D905D906D907C904081518162817381C0
:1033D000441555056605770508F0BCCF182FBACF00
:1033E00086E892E00E949E0C0E94500A83EB92E0D5
:1033F0000E949E0C8EEA92E0D6CC8111E9CA91110E
:10340000DCCCD0CB0E944A0A83E792E00E949E0C5B
:103410008BEC0E9430070E94271090E080E0089516
:103420000F931F93CF93DF9385E00E94670785E09A
:103430000E9463078C01EC01CC0FDD1FCC0FDD1F58
:10344000CA56DF4F10923801C43883E0D80770F4B1
:1034500084EB91E00E949E0C0E940D0B81E0809312
:103460003801DF91CF911F910F91089583EC91E086
:103470000E949E0C62E0CE010E94CE0D0E942206A8
:103480000A3F86E01807B0F40333164060F48CEB73
:1034900092E00E949E0C0E940D0B8DEC0E94300762
:1034A0000E942710DECF83EC92E00E949E0C0E94C7
:1034B0000D0BD7CF80EC91E0F8CFFC019C01261BCF
:1034C000370BCA0170E060E0A901460F511D452F7E
:1034D0005527620F240F351FAC01470F511D452F93
:1034E0005527780FDA01AA0FBB1F8A0F9B1F4B3E8F
:1034F00020F4E217F30740F7089590E080E0089584
:10350000A7E1B0E0E6E8FAE10C94903C8E8B162F30
:10351000042FA895E62FF0E0EB5BFD4F24912D875B
:10352000220F2D8B339634913A83E42FF0E0EB5B3E
:10353000FD4F44914B833396F490E82FF0E0EB5B22
:10354000FD4F84918983880F8E87339694919F8B4A
:1035500045B96D84642A64B897B998B9862F0E94DA
:1035600063079C878B87ED85E4B9812F0E946307F1
:103570001C0114B80E94180715B864B8812F0E9466
:1035800063076B857C850E94C5074C01FA81F7B9FA
:1035900018B82B813981232B2C8325B924B98E8926
:1035A0000E9463070E94CB075C0115B80E941807B0
:1035B000498145B98E890E9463070E94CB076C013F
:1035C000898184B98E890E9463070E94CB07782E77
:1035D000E92EB601C5010E94C5078032E1E09E07D1
:1035E00030F4F0E28F16F1E09F0608F4A4C58C0CCD
:1035F0009D1C2B853C85820F931F8816990620F40D
:10360000DC86CB86272C3E2C2091510180917301C2
:10361000820F9927991F02974CF0213009F08BC532
:1036200090914E0180917001981385C5EB80EE0C4E
:103630007D847E2839813E293A878B859C85843715
:10364000910508F497C10A96880F991F2816390624
:1036500008F090C19F8997B998B974B8812F0E94DA
:1036600060076C01802F0E9467075C01E5B8812F1D
:103670000E9460079601295A3D4F18B8281739074C
:1036800008F0B1C0EA81E7B9FA85F4B9F5B9802F3D
:103690000E94600788349F4008F46BC085E08093E7
:1036A0001A0182E280931901D0924701C09246012B
:1036B000B501C6010E94D00790934D0180934C0143
:1036C0009601A0E1B7E20E94E63B209114013091FF
:1036D000150150E040E00E94A83B3093490120933F
:1036E00048018D898E2984B915B83F8937B938B911
:1036F000802F0E9467076C01812F0E946007B6012E
:103700000E94D0079C0190934B0180934A019091B5
:1037100019019F70943091F118B84A81F42AF7B8D2
:10372000898184B99C8195B98E890E9463076C0157
:103730000E94CB077C01812F0E946707A0901D018A
:10374000B0901E01BC01C6010E94D0079501DC01AA
:103750000E94E63B970150E040E00E94A83B309376
:10376000470120934601809151018F5F8093510161
:1037700070C385E080931A0184E294CF40914801A0
:103780005091490160914C0170914D01C90195DE44
:103790000097F1F0E4B8EF89FA81EF2BE7B9812FB8
:1037A0000E9460076C0117B89C01A0E1B7E20E947B
:1037B000E63B20913B0130913C0150E040E00E940B
:1037C000A83BA901B60180914A0190914B0175DE99
:1037D0009093470180934601809119018F70843046
:1037E00009F4C1CF99CF2A8127B93A8534B935B9BF
:1037F0008E890E9460076C01802F0E9467075C0120
:10380000498145B98E890E946007895A9D4F8C1560
:103810009D0508F090C48F8988B987B9802F0E94D0
:103820006007813D934008F067C085E080931A01EE
:1038300082E380931901B601C5010E94D0079093DD
:103840006F0180936E01C6010E94CB079C01A0E12D
:10385000B7E20E94E63B20911D0130911E0150E02D
:1038600040E00E94A83B30936B0120936A0118B896
:10387000FA81F7B98E858E2984B985B98E890E941F
:1038800067076C01802F0E946007B6010E94D00775
:103890009C0190936D0180936C01909119019F7030
:1038A000943079F12F892F2928B927B915B83C818F
:1038B00034B98E890E9463075C01812F0E946707DB
:1038C0007C01C0901401D0901501BC01C5010E947B
:1038D000D0079601DC010E94E63B970150E040E0F2
:1038E0000E94A83B30936901209368018091730185
:1038F0008F5F809373014AC185E080931A0184E34E
:1039000098CF40916A0150916B0160916E01709166
:103910006F01C901D2DD009711F1E5B8E4B84F8914
:1039200048B9EA81E42BE7B98E890E9460070E94BA
:10393000CB076C0117B89C01A0E1B7E20E94E63BFF
:10394000209134013091350150E040E00E94A83BC5
:10395000A901B60180916C0190916D01AEDD90934B
:10396000690180936801809119018F70843009F496
:10397000BDCF98CF18B88A8187B9998195B9EA8562
:10398000E4B98E890E946307988B8F870E94CB07CA
:103990009F838E83802F0E946707998788872101E4
:1039A000F4E64F0E511C2E813F81B10142165306A1
:1039B00008F0EEC0C9010E94D0076C0120911D01E2
:1039C00030911E0150E040E060E871EA83E09CE144
:1039D0000E94A83BD6010E94FB3BE885F9859F0128
:1039E00050E040E00E94A83B49015A0114B815B8C4
:1039F000FF89F8B9F7B981E00E94300764B8812FD8
:103A00000E9463078F359D4008F468C174B8812F08
:103A10000E9460076C01802F0E9467079A8B898B38
:103A20008E890E9467079C8B8B8B89899A89813D3F
:103A3000974008F4E0C084E080931A018DE0809301
:103A4000190176012C143D0410F4E218F30840909B
:103A5000140150901501712C612C60E871EA83E02B
:103A60009CE1A30192010E94A83BD7010E94FB3B6D
:103A7000E989FA899F0150E040E00E94A83B8091CB
:103A80007301882371F08091640190916501A09188
:103A90006601B091670182179307A407B50708F084
:103AA00096C0209364013093650140936601509362
:103AB00067019601A0E1B7E20E94E63BA3019201F3
:103AC0000E94A83B30936B0120936A0169897A892F
:103AD0008B899C890E94D00790936901809368012B
:103AE00081E040916401509165016091660170919F
:103AF0006701481559056A057B0508F06AC0809280
:103B0000640190926501A0926601B0926701688598
:103B100079858F8598890E94D00790936901809359
:103B200068012E813F81A0E1B7E20E94E63B20912F
:103B30001D0130911E0150E040E00E94A83B205F33
:103B4000384D30936B0120936A01C0901401D090DE
:103B50001501F12CE12C9101A0E1B7E20E94E63BB6
:103B6000A70196010E94A83B30936D0120936C0140
:103B70002B853C85A0E1B7E20E94E63BA7019601B8
:103B80000E94A83B30936F0120936E0181E023C017
:103B90008E819F810E94D0076C01FC81F4B98E89CF
:103BA0000E946307988B8F870E94CB079F838E8329
:103BB000802F0E94670799878887BC01C6010E94F1
:103BC000D0079C01A4E6B0E00E94E63B06CF80E06F
:103BD00088CF8111BACF909173019F5F9093730149
:103BE000882309F463C300937001109371014E8917
:103BF000409372015BC3F1E62F16310408F06EC0EA
:103C000021EDC21627E0D20608F468C085E0809353
:103C10001A0182E180931901C60186509F4FEB89FA
:103C2000FC898E179F0708F042C083E18093190139
:103C3000FA81F770BF2E802F806480937C002BE088
:103C40002983CC24C394D12CEE24EA94A3E0FA2E49
:103C5000A89561E08B8153D574B886B18B21E9F3C7
:103C60003D8534B980917A00806480937A00809198
:103C70007A0086FDFCCF8091780090917900F70161
:103C8000E81BF90BCE0EDF1EF981F150F983F1111B
:103C9000DFCFC601880F991F880F991F69E070E078
:103CA0000E94813B70936F0160936E011FCEE09084
:103CB0001401F0901501B6018B899C890E94D007F0
:103CC0009701DC010E94E63B960150E040E00E9433
:103CD000A83B3093690120936801AACF74B8E5B876
:103CE000812F0E9463075C01802F0E9467079F83DA
:103CF0008E830E94CB077C014A145B0408F0ABC0A2
:103D0000B101C5010E94D0076C01209114013091CE
:103D1000150150E040E060E871EA83E09CE10E9418
:103D2000A83BD6010E94FB3B970150E040E00E9477
:103D3000A83B29013A013A8137B918B84C8144B9F6
:103D400045B98E890E9463076C01802F0E94670726
:103D50004C01812F0E9467077C0180E3C81681E136
:103D6000D80608F0E6C1998195B98E890E9463074B
:103D700099878887E981E4B98E890E946307988BC7
:103D80008F8715B881E00E943007F981F5B98E89D7
:103D90000E9463072F8538892034364008F079C0A7
:103DA0008133914108F475C0C6018A569F4F28851A
:103DB00039852817390708F06CC086E080931A010E
:103DC000809151018F5F80935101B701C4010E941E
:103DD000D0079093470180934601B701C6010E9426
:103DE000D00790934D0180934C0114B815B83A81D7
:103DF00038B981E00E943007498144B98E890E9418
:103E00006307853F910528F58C8184B9802F0E9436
:103E10006307813D9340E8F08E890E9467078D3DDE
:103E20009240B8F0298124B98E890E9463078D3DA4
:103E3000924078F0498145B981E00E94300715B879
:103E40008E890E946307853F910518F487E080936F
:103E50001A0181E0F3C064B82B8125B9812F0E943B
:103E600063075C01802F0E9467079F838E830E94F7
:103E7000CB077C01C5012A143B0410F48219930975
:103E8000B7010E94D0079C01A4E6B0E00E94E63B87
:103E90004BCF8A8187B99B8194B995B981E00E9403
:103EA0003007EA85E4B9E5B98E890E9463076C01A1
:103EB0000E94CB077C01802F0E9467079D838C8323
:103EC0000E94CB0799878887812F0E9467074C0142
:103ED000288539852E3F394008F4C0C084E080939E
:103EE0001A018CE080931901B101C7010E94D0072B
:103EF0006C0120911D0130911E0150E040E060E80E
:103F000071EA83E09CE10E94A83BD6010E94FB3B42
:103F1000E885F9859F0150E040E00E94A83B809130
:103F20005101882371F08091420190914301A09149
:103F30004401B091450182179307A407B50708F023
:103F400079C0209342013093430140934401509340
:103F50004501B4018C819D810E94D0079093470157
:103F6000809346019701A0E1B7E20E94E63B2091D1
:103F70001D0130911E0150E040E00E94A83B3093AB
:103F800049012093480181E0409142015091430151
:103F9000609144017091450144155505660577050A
:103FA00008F04AC04092420150924301609244019D
:103FB00070924501B5018E819F810E94D007909338
:103FC0004701809346019501A0E1B7E20E94E63BDC
:103FD000209114013091150150E040E00E94A83B6F
:103FE000205F384D30934901209348019101A0E1B1
:103FF000B7E20E94E63B209114013091150150E098
:1040000040E00E94A83B30934B0120934A012B854E
:104010003C85A0E1B7E20E94E63B20911D01309172
:104020001E0150E040E00E94A83B30934D012093D8
:104030004C010FCF80E0A8CF8111D8CF90915101D2
:104040009F5F90935101882309F430C100934E0182
:104050008E8980934F011093500128C1F1E62F16ED
:10406000310408F066C029E4E2162DE0F20608F4F7
:1040700060C085E080931A0182E080931901C40139
:1040800086509F4F8C159D0508F03DC083E08093BE
:1040900019013F893770D32E802F806480937C0074
:1040A0004BE04A83EE24E394F12CA89560E08B81E9
:1040B00026D38A8584B985B986B18D21E9F799819E
:1040C00094B980917A00806480937A0080917A001C
:1040D00086FDFCCF8091780090917900E80EF91E62
:1040E000EA81E150EA83E111E0CFC701880F991F0F
:1040F000880F991F69E070E00E94813B70934D0129
:1041000060934C0130CBA0901D01B0901E01B40112
:10411000C6010E94D0079501DC010E94E63B970191
:1041200050E040E00E94A83B3093470120934601B5
:10413000B0CF17B818B814B815B817B8F7EC2F16D1
:10414000F1E03F0608F4D8C018B82E8524B908EC71
:10415000EA803F89E32AE7B881E00E9430074A817C
:1041600047B98E890E946707429710F0015099F76E
:104170008E8584B985B961E08B81C1D28E890E9418
:1041800063074C019D8994B915B8EF89E7B9E8B97F
:1041900060E08B81B4D2812F0E9463070E94CB071D
:1041A0006C01FD85F4B9812F0E9467077C018E891F
:1041B0000E946307B7010E94D0075C01812F0E9413
:1041C00067077C018E890E946307B7010E94D007B0
:1041D00095012C5E3F4F2817390708F467C018B8BF
:1041E0002A8127B9398134B935B961E08B8187D209
:1041F000812F0E9467077C018E890E946307B701A7
:104200000E94D0077C01A816B90608F05AC04E8556
:1042100044B945B98E890E946307FC01640128E412
:10422000C21626E0D20608F05DC0960153E036952E
:1042300027955A95E1F748EEE41643E0F40608F0B6
:1042400054C0C70164E670E00E94813BC7018759F2
:1042500091098938914108F04FC0EE15FF0508F02B
:104260004BC02C0D3D1D2E153F0508F045C06C15AB
:104270007D0508F041C080911A01833018F483E075
:1042800080931A0120911801822F90E0FC01E956D9
:10429000FE4F3E8930831683880F991FFC01ED5530
:1042A000FE4FF182E0822F5F2093180117B818B8F3
:1042B00014B815B88EE20E94310C6796E2E10C94B6
:1042C000AC3C8D8984B915B89F8997B998B960E0DD
:1042D0008B8115D2812F0E9463070E94CB07FC01BE
:1042E00075019DCF28EC30E0A6CFB70144E076956C
:1042F00067954A95E1F7AACF612F8E8901D0D6CF75
:10430000B0E0A0E0E6E8F1E20C94923CC82FD62F92
:10431000A895862F90E0FC01EB5BFD4F54903396FF
:1043200024914C2F50E0FA01EB5BFD4F1491339632
:1043300004916091730130915101630F7727771FCA
:10434000672B09F065C0A89560912001709121014B
:10435000660F771F660F771F7093330160933201EA
:104360006091780170917901660F771F660F771F52
:1043700070933101609330013EEB30932E01309108
:104380001801E7E9F1E0DF01480F591F9A2F9E1B42
:10439000931708F118B827B914B915B9B8E1BB2EAD
:1043A000D12CC12C8D2F0E946307782E692E8C2F63
:1043B0000E9467077C018C199D0997FF03C09195A6
:1043C0008195910903970CF46BC1A895BA94670184
:1043D000B110E8CF0AC08D9115966C911597680FB2
:1043E0007727771F6417750789F6809120019091D0
:1043F0002101909333018093320180917801909153
:104400007901909331018093300189E180932E01ED
:10441000CDB7DEB7E0E10C94AE3C25E8C21621E052
:10442000D20618F7043AA2E01A0708F0B1C0B8E9BA
:10443000AB16B104D0F2C6010E94CB07AC019601C5
:10444000A8E9B7EB0E94E63B9A0150E040E00E94E9
:10445000A83B29013A01C5010E94CB079C01A8E9AC
:10446000B7EB0E94E63B950150E040E00E94A83B7C
:1044700088E7C8168FE0D80608F06EC0F2E0440C5A
:10448000551C661C771CFA95D1F7C301B201620F67
:10449000731F841F951F25E030E040E050E00E942C
:1044A000A83BA4E6B0E00E94FB3B6B017C01BCEAA8
:1044B000CB0EBDE0DB1EE11CF11C10911A01143083
:1044C00008F093CFC150DC0F8D2F90E0FC01E25A31
:1044D000FE4F2081880F991F880F991F8C549E4F83
:1044E000DC01222309F4C1C08D909D90AD90BC9059
:1044F000A7019601281939094A095B0957FF07C026
:1045000050954095309521953F4F4F4F5F4FAAE012
:10451000B0E00E94FB3BB4E68B0E911CA11CB11CC9
:10452000C80CD91CEA1CFB1C6C157D058E059F056B
:1045300008F05BCF133019F081E080931A0182E01C
:10454000808380917A01E82FF0E0EF59FE4FD0830D
:104550008F5F80937A0149CFA8E7AA16AFE0BA0629
:1045600070F4E2E0220F331F441F551FEA95D1F784
:10457000CA01B901640D751D861D971D8CCF240DD0
:10458000351D461D571D569547953795279589CF5B
:10459000C0901D01D0901E01672D762DE616F706FE
:1045A00008F4B701C7010E94D0079601DC010E9400
:1045B000E63B2B013C01C7010E94CB079C0150E068
:1045C00040E0C301B2010E94A83B29013A01A0903A
:1045D0001401B0901501892D982D8017910708F4CA
:1045E000C801B8010E94D0079501DC010E94E63B9A
:1045F000980150E040E00E94A83B88E7E8168FE071
:10460000F806B0F462E0440C551C661C771C6A95F1
:10461000D1F7C301B201620F731F841F951F25E0FC
:1046200030E040E050E00E94A83B69017A0145CFAC
:104630000837AFE01A0770F4CA01B90152E0660FFB
:10464000771F881F991F5A95D1F7640D751D861D18
:10465000971DE5CF73016201C20ED31EE41EF51E45
:10466000F694E794D794C79428CFCD92DD92ED923B
:10467000FC92139781E08083B8CE550C54B88D2FEF
:104680000E9463075C01B0ECEB16B4E4FB0608F48F
:10469000C4CE80EBC8168DE4D80608F0A6CEC2CEF4
:1046A000110F15B814B98C2F0E946307813591053D
:1046B00008F09BCE15B98C2F0E9463076C0107B9D7
:1046C00008B915B854B8A8E14A2EB12CA12C8C2FEA
:1046D0000E946307982E892E8D2F0E9467078C01F8
:1046E0008A199B0997FF03C09195819591090397BA
:1046F00024F2A8954A9458014110E9CF76CECF9381
:10470000C82FC09595B160FF0FC0982B95B994B193
:10471000982B94B90E942F0784B18C2384B985B15A
:104720008C2385B9CF9108959C23F0CFAF92BF928F
:10473000DF92EF92FF920F931F93CF93DF931AE0D4
:104740008FE3D82E09E017B818B815B8D4B880E0B0
:104750000E9463077C0181E00E946707EC0182E010
:104760000E9467079C0180911A018930C1F417B833
:1047700014B8F0925701E0925601D0935901C093BA
:10478000580130935B0120935A01DF91CF911F9123
:104790000F91FF90EF90DF90BF90AF90089584E06D
:1047A000E816F10450F4C430D10508F04EC02430AE
:1047B0003105E8F291E092600AC091E088EEE816D7
:1047C00083E0F80608F090E0C83ED340A0F3283E0E
:1047D000334008F4946097B9D0E0C0E0A89580E039
:1047E0000E945C075C0181E00E9467077C0182E017
:1047F0000E94670724E1A21625E0B20608F4389A61
:1048000024E1E21625E0F20608F4399A843125E025
:10481000920708F43A9A26E0A216B10430F426E092
:10482000E216F10410F4069738F02196C43F81E0B7
:10483000D807A1F600931A01F12CE12CEC16FD0625
:1048400031F4115009F07FCFA0CF91E0BDCF0E948D
:104850001E072FEFE21AF20AF1CFCF92DF92EF920A
:10486000FF92CF9320917F0130918001409181018F
:1048700050918201C09191018AE0C82ED12CE12C87
:10488000F12C8C2FCF5F213A96E8390791E0490748
:104890005105E0F480939101A0913201B091330170
:1048A0000E94FB3B28E833E140E050E00E94A83B37
:1048B00020937F01309380014093810150938201C6
:1048C000CF91FF90EF90DF90CF900895CA01B9018A
:1048D000A70196010E94A83BD4CF8F929F92BF92CE
:1048E000CF92DF92EF92FF920F931F93CF93DF93BC
:1048F000C82FB62E880F8C0F9FEF960F890F8093CD
:104900005301EC2FF0E0EB5BFD4FD491862F90E04C
:10491000FC01EB5BFD4F1491FC01E85BFD4FD49073
:1049200080911A019091180127E931E0D901813075
:10493000F9F4DF91CF911F910F91FF90EF90DF90ED
:10494000CF90BF909F908F90089516968C91169758
:104950008B110DC08C918C130AC0FD01EE0FFF1F4F
:10496000E759F140448555854C3D554010F311966B
:104970008A2F821B891748F310928C0110928B01A9
:1049800081EF8093910110927F011092800110922B
:10499000810110928201CADE18B8D7B814B915B9CE
:1049A0008C2F0E9467078C018B2D0E94670714B81B
:1049B00010925501109254014C01801A910A809175
:1049C000540190915501843F914028F017B818B8D0
:1049D00014B815B8AECFD5B9D4B90E94180714B819
:1049E00015B80E941F07A8958C2F0E9467077C01AD
:1049F000E80CF91C80915401909155018E37910576
:104A000020F02BE4E216F1040CF38DE2E81681E0CD
:104A1000F8060CF030C28091540190915501019636
:104A20009093550180935401CACF85E1E81685E043
:104A3000F8060CF4FBC17ADE15B887E087B918B820
:104A4000FD2EFF0CF4B880E480937B0084E580BFEA
:104A50008C2F806480937C0086E180937A000E9492
:104A6000220710925501109254011092800010926A
:104A700085001092840087E286BB81E280936F00FC
:104A800081E080937C01F5B890911A01953009F08E
:104A9000D2C18093810081E090E00C2E01C0880F8C
:104AA0000A94EAF78095877087B9F89483B7817F75
:104AB00083BF80917C01882389F083B7816083BFA5
:104AC0007894889583B78E7F83BFF894A89580915A
:104AD0005401909155018034964059F77894109282
:104AE0008100E0908600F090870010926F0086E9C8
:104AF00080937A0014B815B88C2F0E946707209114
:104B0000360130913701821B930B0C9690939401E0
:104B1000809393018091540190915501803293408C
:104B200008F054CF809154019091550190938A01DF
:104B300080938901F0928801E092870184EF80934D
:104B40009101809154019091550182349105C8F0F2
:104B500060918701709188018091890190918A010B
:104B600024E630E040E050E00E94A83B209387011B
:104B7000309388014093890150938A0186EF809396
:104B80009101A0917D01B0917E012091870130912A
:104B900088014091890150918A010E94FB3B20E2EB
:104BA00033E040E050E00E94A83B2093870130931F
:104BB00088014093890150938A0120937F013093AB
:104BC0008001409381015093820147DE80919101E1
:104BD000843F09F056C0C0907F01D0908001E090E2
:104BE0008101F090820180EAC8168FE0D806E104C6
:104BF000F104C0F4A70196012C543F4F4F4F5F4F73
:104C000060EA7FE080E090E00E94A83BC20ED31EE5
:104C1000E41EF51EC0927F01D0928001E0928101D6
:104C2000F0928201C0907F01D0908001E0908101DC
:104C3000F0908201C114D10421E0E206F10408F0F1
:104C4000FEC0D092C501C092C4018091530190E092
:104C5000805B9C4F0E94233D90E0B0E0A0E08C156B
:104C60009D05AE05BF0508F0F1C0C81AD90AEA0AC9
:104C7000FB0AC0927F01D0928001E0928101F09204
:104C80008201D4B980917F0190918001A09181012E
:104C9000B09182014997A105B10508F082C096CE76
:104CA0000E9419078C2F0E946707880D991DA895EF
:104CB0000F5F1F4F2091540130915501201731078C
:104CC00078F76701C81AD90A1C141D040CF0B0C08B
:104CD00029ECC216D1040CF079CE28EE33E0D601CF
:104CE0000E94F53B97010F2C000C440B550B0E94C2
:104CF000A83B890180915401909155010196B0E043
:104D0000A0E08093870190938801A0938901B093DC
:104D10008A01C7018C0D9D1D0E942C0820918701DE
:104D2000309188014091890150918A01DC010E94F3
:104D3000FB3B609387017093880180938901909376
:104D40008A0160937F017093800180938101909329
:104D5000820187EF8093910180DDC0907F01D09028
:104D60008001E0908101F090820183E393E00E9452
:104D7000233DA8EEB3E0A81BB10987FDB395A701B9
:104D800096010E94053C24E630E040E050E00E949D
:104D9000A83B20937F013093800140938101509381
:104DA000820180911801882329F080911A018530B1
:104DB00009F00CCE88E080931A01809191019091C6
:104DC00092019817C4F0891301CEC0907F01D09052
:104DD0008001E0908101F090820140918301509127
:104DE000840160918501709186014C155D056E0509
:104DF0007F0508F0EBCD40917F01509180016091DB
:104E000081017091820140938301509384016093EA
:104E10008501709386018093920110938E01009317
:104E20008D01B0928F01C0939001D0CDC70142CFC8
:104E300010E000E05FCF80938100D7B836CE81E0EC
:104E400090E09093C5018093C401FFCE24E1C20E8F
:104E5000D11CE11CF11CC816D906EA06FB0610F4A9
:104E60000E94291410927F011092800110928101FA
:104E70001092820106CF0091540110915501011545
:104E8000110509F4D2CDC70110E000E013CF1F9245
:104E90001FB61F9211248F939F93B59904C08091E0
:104EA0007C01811109C0B59B10C080918600909152
:104EB00087008A3F910548F48091540190915501F3
:104EC000019690935501809354019F918F911F906B
:104ED0001FBE1F9018951F921FB61F9211248F930B
:104EE0009F9310927C01B09B10C08091860090919E
:104EF00087008A3F910548F48091540190915501B3
:104F0000019690935501809354019F918F911F902A
:104F10001FBE1F901895B0E0A0E0E1E9F7E20C9405
:104F2000963C88E893E1909321018093200190932F
:104F30003301809332018EEB80932E0118B880E10B
:104F400087B90E94270717B884E00E946307AC0165
:104F50008B5C9840833F9140A0F481E080933D01B9
:104F60002091320130913301AFEBB9E00E94E63B72
:104F70009A0150E040E00E94A83B30932101209329
:104F80002001809120019091210190933301809321
:104F900032018EE00E9467078EE00E9463079093C3
:104FA0003701809336010E94D907C0DB18B8C1E0F1
:104FB000C7B985E185B9C4B980E00E9463078C0157
:104FC00082E0D82ED7B8D4E0D4B981E00E9463073C
:104FD000080F191FD7B990E1C92EC4B882E00E940A
:104FE0006307080F191F15B8C8B9C7B9C4B980E05D
:104FF0000E9463070E94CB077C01D8B8D7B8D4B908
:1050000081E00E9463070E94CB07E80EF91ED8B921
:10501000D7B9C4B882E00E9463070E94CB07E701BA
:10502000C80FD91F17B818B814B8809132019091E1
:1050300033016C01CC0CDD1CC80ED91EC8018C0FCD
:105040009D1FC81AD90AF12CE12C9801A0E9BAE1F8
:105050000E94E63BA70196010E94A83B49015A0124
:1050600030933C0120933B019E01A0E9BAE10E94EC
:10507000E63BA70196010E94A83B3093350120939F
:1050800034012057354E30931E0120931D0180E7D7
:10509000881A85EE980A909215018092140189E190
:1050A00080932E01CDB7DEB7ECE00C94B23CCF92EA
:1050B000DF92EF92FF920F93CF93DF93F82EC62FDC
:1050C000D42F0E94830C8DE191E00E949E0C00D2AF
:1050D0006C2F8F2D0E949B39C090C801D090C901C0
:1050E000E090CA01F090CB018091220187FD05C0BC
:1050F000C114D104E104F10421F089E191E00E949E
:105100009E0C8C2F0E94830CC114D104E104F10485
:1051100031F00E942206809161010E948606DD2303
:1051200009F459C080913E01813108F054C0865085
:10513000990B865A9C4F0E949E0C80E00E942D0B7A
:10514000CD28CE28CF2809F449C06091C8017091BC
:10515000C9018091CA019091CB0103E028E447EF97
:105160000E94E30C8CE291E00E949E0C89E693E0A1
:105170000E942B3D23E046E464EF0E94C30D809122
:10518000C0019091C101A091C201B091C301892BCE
:105190008A2B8B2BF1F180E00E942D0B6091C001D6
:1051A0007091C1018091C2019091C30104E028E493
:1051B00040E00E94E30C87E291E00E949E0C23E015
:1051C00040E26FEF8091C6019091C7010E94C30D2C
:1051D0000E940D0B25C00E940D0BAFCF8091610185
:1051E0000E948606809122018E3F4CF68AE491E06F
:1051F0000E949E0C6091AF017091B0018091B1014D
:105200009091B20103E028E4409122010E94E30C56
:10521000B6CF80E00E94130B809141018823C1F238
:10522000DF91CF910F91FF90EF90DF90CF90089595
:10523000EF92FF920F931F93CF93DF93182F0E944B
:105240004A0A80918F010E94830C86E691E00E94B9
:105250009E0C7AD360918F01809190010E948F08FB
:10526000EC0190938C0180938B01E0908D01F09084
:105270008E01CA3F8FEFD80720F48EE191E00E94A3
:105280009E0C809190010E94830C112309F445C06B
:1052900090913E0181E1891B0E94340A89E690E0E9
:1052A0000E949E0C0E94500A6091830170918401BB
:1052B000809185019091860104E026E4409192015D
:1052C0000E94E30CCA3FDF4F68F485E591E00E943D
:1052D0009E0C22E04DE16EEF80918B0190918C014C
:1052E0000E94C30D0E940D0B0E94570AE114F104A5
:1052F00069F08EE491E00E949E0C22E045E26FEF9F
:1053000080918D0190918E010E94C30D0E940D0B22
:10531000CDB7DEB7E6E00C94B83C0E940D0BC2CFCF
:105320008F7021F40E945E0A0C94101A08958F3039
:1053300021F490913801913011F08F5F089580E051
:105340000895CF9384E790E00E9468326AE080E09D
:105350000E943D0A8EE593E00E949E0CC0E00E94F0
:10536000041060E082E00E94802162E080E00E9400
:1053700080210E944A0A80917A018823C9F041E085
:1053800062E080E094DE8C2FCBDF88EE93E00E9419
:105390004A0F811109C080911301843028F48C2FA9
:1053A000C6DFC82F8A3FD8F20E94830ACF910895A2
:1053B00084E790E00E949E0C8EE593E00E949E0C94
:1053C0000E94500A8FE30E94310C80E00E94130B70
:1053D0000E940D0BD8CF0F931F93CF93DF93C0E0A4
:1053E000D8E012EF01E10E94041060E082E075DA7B
:1053F000D0931A0180919101843FE1F480917F0163
:1054000090918001A0918101B09182018436910533
:10541000A105B10578F440E060E082E00E943637F3
:1054200060937F017093800180938101909382014A
:105430001093910180919101823F6CF180939201D0
:1054400080917F0190918001A0918101B0918201B2
:105450008093830190938401A0938501B09386018A
:1054600081E0E6DE8C2F5CDF88EE93E00E944A0F3D
:1054700081110AC080911301843030F48C2F57DFE2
:10548000C82F8A3F08F4AFCF0E94830ADF91CF91E3
:105490001F910F9108950E944A0A8DE690E00E94A4
:1054A0009E0C80913E01902F981B892F0E94340AF8
:1054B00089E690E00E949E0C0E94500A8FE30E94B1
:1054C000310C0E940D0B0E94570A0E940D0BCACF8F
:1054D000A6E1B0E0EEE6FAE20C94903C82E0809324
:1054E000220180911A01813009F0D8C180917A019E
:1054F000813009F0D3C14090610124E0429EF00167
:105500001124EC54FE4F80819181A281B3818930B6
:1055100032E59307A105B10508F0C0C11C01712C4B
:1055200081E0871508F4BEC1842D0E947C06982E68
:10553000892EE92FF0E0E85BFD4F549090E0FC01EC
:10554000EB5BFD4FE49115B818B8272D2170622E42
:1055500030EF2316310408F0ACC12111AAC100912B
:1055600014011091150100591A4121E030E002C0E8
:10557000220F331F8A95E2F7C901852987B934E1E3
:10558000398B892D0E9460075C01882D0E94670776
:1055900024E0A216B10410F4049728F039893150A0
:1055A000398B3111EECF80E480937B0094E590BF7E
:1055B000892D806480937C0026E120937A00F12C71
:1055C000E12C10928000109285001092840037E246
:1055D00036BB0E942207872D90E09A8B898B611041
:1055E0006FC181E88093810058B886B385FF71C18F
:1055F00018B81092810020E226BB209186003091DD
:105600008700690140918400509185002417350777
:1056100008F46DC186E980937A00B4E15B2E892D90
:105620000E9460075C01882D0E94670724E0A21693
:10563000B10410F4049718F05A945110F0CF8090F0
:105640003B0190903C01820C931C800E911E209196
:1056500016013091170100398AE1180708F04FC18F
:1056600069E191EEC916D104E104F10430F4C601F8
:1056700065E070E00E94813B645128523109261B8D
:10568000310967FD339566E0862F90E0B0E0A0E039
:105690008C159D05AE05BF0508F03AC1C81AD90A98
:1056A000EA0AFB0A662029F082E2C80ED11CE11C3E
:1056B000F11C90E5E916F10418F0C12CD12C76010B
:1056C0008BE0C816D104E104F10428F091E0C91A76
:1056D000D108E108F108B12CA12CA8EEB3E00E949A
:1056E000E63B6B8B7C8B8D8B9E8BA0913201B091B6
:1056F000330198010E94E63BA50194010E94A83B5A
:10570000442755276B897C898D899E890E94A83BF7
:10571000C9010E946B08FC01A5019401C701B601F3
:105720000E94663B4B015C01BF0190E080E0E3E03A
:10573000660F771F881F991FEA95D1F76B5F7F4F20
:105740008F4F9F4F2AE030E040E050E00E94A83B9E
:10575000C501B4010E94A83BE989FA89EE0FFF1F39
:10576000EE0FFF1F81E090E08C0F9D1FE80FF91FE7
:105770002083318342835383611018C09CE0C91693
:10578000D104E104F10490F07394E989FA89319627
:10579000EE0FFF1FEE0FFF1F81E090E08C0F9D1FAB
:1057A000E80FF91F2083318342835383A8957394B4
:1057B00093E0971508F0B4CE18B884E00E94300743
:1057C00091E00D811E812F81388549815A816B813D
:1057D0007C81401751076207730708F090E00D8540
:1057E0001E852F85388949855A856B857C8583E0A0
:1057F000401751076207730708F082E024E0829F98
:10580000D001112421E030E02C0F3D1FA20FB31F67
:10581000E92FF0E0EE0FFF1FEE0FFF1FE20FF31F67
:105820000D911D912D913C91408151816281738137
:10583000041715072607370708F0892F34E0839FE0
:10584000F001112421E030E02C0F3D1FE20FF31F87
:1058500040815181628173814093AF015093B001C7
:105860006093B1017093B20180FD56C030EF2316F2
:10587000310408F051C08BEF809322018091AF0179
:105880009091B001A091B101B091B201892B8A2B06
:105890008B2B11F41092220117B814B86696E2E12E
:1058A0000C94AC3C842D0E947C069827892798276D
:1058B0003ECEE4B957B800911401109115015FCEA6
:1058C00058B80E942B0790E296BB81E88093810034
:1058D0008CCE80FF8ACE31E036BBA89597012F5F32
:1058E0003F4F79012035310509F07FCE81CE80FF11
:1058F00091CE81E086BB9FEFE91AF90A8BCEC401F5
:1059000060EB76E30E94813B695F285D3F4FBCCE30
:10591000C12CD12C7601C6CE8CEF80932201CB0115
:10592000BA016B5F7F4F8F4F9F4F2AE030E040E01E
:1059300050E00E94A83B2093AF013093B001409308
:10594000B1015093B2019ACFB0E0A0E0EAEAFCE2E4
:105950000C94923C00918D0110918E01011511055E
:1059600009F08FC0E0918F01F0E0E85BFD4FD4912A
:10597000E0919001F0E0EB5BFD4FC4910E94962313
:1059800018B815B8D7B9C4B9809190010E946707BB
:105990007C01D09192018CE08D0F843008F071C0B1
:1059A0008091830190918401A0918501B09186013D
:1059B000D15F2C013D0125E0420E511C611C711C80
:1059C000C301B2012AE030E040E050E00E94A83B71
:1059D00049015A01DA01C901DF5FD73051F72AE5E1
:1059E000421623EC52066104710408F04AC0059780
:1059F00008F447C0C5B9C4B9D0E0C0E0C815D9059E
:105A000008F444C014B815B8A89585E080932E0119
:105A1000809190010E946707EC01CE19DF09E8161A
:105A2000F90610F0D0E0C0E0D12CC12CC814D90484
:105A300088F1809190010E94670729E120932E014F
:105A4000A895E816F90618F48C010E191F090C1711
:105A50001D0788F49E01201B310B69F0A4EFB1E013
:105A60000E94E63B9E0150E040E00E94A83B30933C
:105A70008E0120938D010E94962317B818B814B890
:105A800015B8CDB7DEB7E0E10C94AE3C0E94290713
:105A90002296B4CF0E9429078FEFC81AD80AC6CF22
:105AA0008E3008F08E50811107C084E392E00E948E
:105AB0009E0C0C940D0B0895813019F489EC91E043
:105AC000F6CF823019F48BE092E0F1CF833019F4F5
:105AD00080E092E0ECCF843019F48FE790E0E7CFDC
