:1000000032C6000042C6000040C600003EC60000E6
:100010003CC600000C941C3438C600000C942D1013
:1000200034C6000032C600000C941C280C940B341B
:100030000C9410340C94F82728C6000026C6000043
:100040000C94EA3322C6000020C600001EC6000041
:100050001CC600000C942E1018C6000016C6000026
:1000600014C6000012C60000E62FF72F903009F4E6
:100070009395E5B8C4B8B6EFB0937A00A5E0A09325
:100080007B00A8E0A093810010928000AFEFA093C6
:100090008500A0938400A6E0A093360010928B0008
:1000A00010928A00B3E0AFE3A91B51E0392F33303F
:1000B0002AF0A05CBC4F53953350F9CFB093890020
:1000C000A0938800A0917A00A4FFFCCFB6EBB09378
:1000D0007A00A2E0A0936F00A9E0A093810062E003
:1000E000A0E0A0937B00A1E0A09353008895E5B821
:1000F000C4B884FF1AC0A8E10000AA95F1F7EF93F5
:10010000FF93E7B1F8B1A4E0C2FCA2E0C0FCA1E01B
:10011000BF2FBA2BAE2BB8B904B9A7B9E7B9F8B954
:10012000FF91EF910BC00C947300ACE10000000054
:10013000AA95F1F725B9E5B8000004B9A0918400AB
:10014000A0918500B0918900A395AB1760F7A091AD
:100150007A00A4FFF3CFB6EBB0937A006A9571F7FB
:100160006091780070917900308186FD630F619312
:10017000308186FD731F80FF7193652F4A9579F753
:1001800010926F0010928100B6E0B0937A0008954B
:10019000C801BF01B60118000720080808F80000D0
:1001A000002060A03FA06020020202FF02020210B5
:1001B00010101F0000000708FFDBBDB5B5CBFF071F
:1001C00008FFBB9DADADB3FF0708FFFFF7FB81FF45
:1001D000FF10100508F878385888091003081C3EED
:1001E0007F0D080710FF818181F1E1C1FF40404090
:1001F0004743410D080110FFFF11080310F1E1C151
:100200004743410E0008202121122060E0E0E0FE7B
:10021000FE0402010001037F7F21C2C4C4C04094D8
:10022000840007030102040E080210FEFE7F7F0017
:10023000000000110005202060E0E0E00201000164
:1002400003C2C4C4C0400703010204010410090A28
:100250000C4E6F742063616C696272617465642115
:1002600020466F72FF63616C6962726174696F6EC0
:1002700020636C616D70207468652033FF70696E57
:100280007320746F67657468657220616E64207393
:1002900074617274207769746820746865FF6B6597
:1002A000792E2041636B6E6F776C6564676520748F
:1002B00068652073656C662D746573742077697446
:1002C0006820746865206B65792077697468696E49
:1002D000FF32732E20446973636F6E6E6563742002
:1002E00070696E7320616674657220746865FF6D55
:1002F000657373616765202269736F6C617465FF54
:1003000050726F626521222069732073686F776E67
:100310002E20536F66747761726520616E6420646D
:100320006F63756D656E746174696F6E206973209B
:100330006174206769746875622E636F6D2FFE6B40
:10034000756269343800B903870358032E03070325
:10035000E402C302A40288020000140029003E0047
:100360005300690080009700AE00C600DF00F8006F
:1003700012012D01490165018201A001BE01DE01CA
:10038000FF012102440268028E02B502DE02090367
:10039000350364039403C803FE0337047304B404F1
:1003A000F90443059305EA054906B3062907AE0794
:1003B0004808FF08DE09FD0A930C480F991B00004E
:1003C00000000000000000000000000000001E21EE
:1003D00021211200807F0000007E4A4A4A3400003A
:1003E00000000000FC402010080402010000000191
:1003F0000101010101010101010101017F0488D016
:10040000E0F0F80000000000000000000000000024
:100410000000000000FC94948400000102FC000035
:10042000000000000000000000001E21212112E059
:10043000C0804020100F000000C02020204000009D
:1004400000FC00009E9E0403030303020000002042
:100450002023242525232020203F00007B7B2142D0
:10046000840480C0000000000000000000000000C4
:100470000000FC94948400040607070708F00000BD
:100480000000000000000000000000803F21211259
:100490000C00000000FF000000F0084848C8000001
:1004A000FE0000E7818181C1E1F1818181010020AD
:1004B00020202121212020203F0000F34040404106
:1004C000434740407FC000000000000000000000E3
:1004D00000000000489494946400000000FF0000B5
:1004E00000000000000000000000000000003F21AC
:1004F00021120C0000FF000000F0084848D0000066
:1005000000000000FEFE04040404040404070008C4
:10051000080809090908087F3E1C08087F7F202079
:100520002020202020E0000000000000000000004B
:1005300000000000000048949494640000FF000054
:10054000000000000000000000FF003C0A090A3C17
:10055000002231292926000082868E9EBEFEFEBE24
:10056000DEEFF6FAFEFEFAF2E2C2820000000808B0
:100570000804027984A4A46800FF000000000000C1
:10058000000000000000000000000000000000006B
:1005900000FF0000F0282428F0001008FC000000F4
:1005A0000000000000000000003C0A090A3C00FFB7
:1005B000000000000000000000000000000000003B
:1005C0000000040C1C3C7CFF7C3C1C0C0400000064
:1005D0000000009EA1A9A99A804323130B0703FFE3
:1005E00003030303030300000000000000000000F9
:1005F00000788484844800FF0000000000000000B0
:1006000000F00804E2110909090909090909091199
:1006100021C2040810E000000001020404070000E9
:1006200000000080402010884423100804030000CC
:10063000000000000000000000FE0100FC020100BC
:1006400000000000000000000000000000000000AA
:10065000007949497900000000000000000000F81E
:10066000FC0242BC18101F0F00040703F0F80C0C2A
:100670000CF8F00C0D0F000F0D0C00F0F00000F066
:10068000F0101F0F0204030700183C66663C1800B8
:10069000000000000000000000000000000000005A
:1006A0000000000000001EFFFF1E000000000C0CF8
:1006B000000000160E0000160E00000000000000F2
:1006C00010FCFC10FCFC1001070701070701387C37
:1006D00044FE448C18060E081F080F07181880C027
:1006E000603018060301000006068CDE7262D21E1E
:1006F0008C03070C0C0603020000002C1C000000F9
:100700000000000000000000E0F80C0600000001FE
:10071000070C18000000060CF8E0000000180C0799
:1007200001004050F0E0E0F0500001010000010144
:1007300000C0C0F0F0C0C0000000030300000000D3
:1007400000000000000000101E0E0000C0C0C0C06D
:10075000C0C0C00000000000000000000000000059
:10076000000000000C0C0000000080C06030180683
:10077000030100000000F8FC864226FCF803070C89
:10078000080C070330180CFEFE00000000000F0FDD
:1007900000000C0E82C2623E1C0E0F0908080C0CF1
:1007A0000406424242FEBC040C0808080F07C0E0E1
:1007B000B098FCFE80000000000F0F003E3E222299
:1007C00022E2C2040C0808080F07F8FC262222E2E5
:1007D000C0070F0808080F07060682C2623E1E0007
:1007E000000F0F000000DCFE222222FEDC070F08B3
:1007F00008080F073C7E424242FEFC000808080C35
:100800000703000000303000000000000606000072
:1008100000000030300000000010160E0000004004
:10082000E0B0180C04000000010306040090909052
:100830009090900000000000000000040C18B0E050
:100840004000040603010000000C0EC2E23E1C0042
:1008500000000D0D0000F80462929294F803040861
:1008600008080000F8FC848284FCF80F0F000000E8
:100870000F0FFEFE424242FEBC0F0F0808080F0792
:10088000F8FC060202060C03070C08080C06FEFE24
:10089000020206FCF80F0F08080C0703FEFE424296
:1008A0004202020F0F0808080808FEFE42424202F8
:1008B000020F0F0000000000F8FC060282868C0385
:1008C000070C0808070FFEFE404040FEFE0F0F0019
:1008D00000000F0F000002FEFE02000000080F0FD4
:1008E000080000000000FEFE00060E08080F0700CA
:1008F000FEFEB0180C06020F0F0103060C08FEFEE8
:1009000000000000000F0F0808080808FEFC30C0B7
:1009100030FCFE0F0F0001000F0FFEFE38E080FEDE
:10092000FE0F0F0000010F0FF8FC060206FCF80393
:10093000070C080C0703FEFE4242427E3C0F0F00EC
:1009400000000000F8FC060206FCF803070C090A88
:10095000050BFEFE828282FE7C0F0F0103060C084F
:100960001C3E226242C28406080808080F070006DF
:1009700006FEFE06060000000F0F0000FEFE00004F
:1009800000FEFE070F0808080F07FEFE000000FE2D
:10099000FE0103060C060301FEFE00C000FEFE037E
:1009A000070C030C0703061EF8E0F81E060C0F03E5
:1009B00000030F0C003E7EC0C07E3E0000000F0F03
:1009C00000000282C262321E0E0F0F0808080808DB
:1009D0000000FEFE02020000000F0F0808001C3895
:1009E00070E0C08000000000000103070000020268
:1009F000FEFE00000008080F0F00040603010306B6
:100A000004000000000000000000000000000010D2
:100A10001010101010100000001C2C00000000002E
:100A20000000000000909090B0E0C0070F0808049C
:100A30000F0FFEFE402020E0C00F0F0808080F0730
:100A4000C0E0301010302003070C08080C06C0E08E
:100A5000202040FEFE070F0808040F0FC0E0B090F2
:100A6000B0E0C003070C08080C0420FCFE22260C92
:100A700000000F0F00000000E0F0101020F0F0095F
:100A80001B12121A1F0FFEFE402020E0C00F0F00A5
:100A900000000F0F000010F6F600000000000F0F1E
:100AA00000000000000000F6F6000C1C10101F0FE4
:100AB000FEFEC0603010000F0F0103060C0800009E
:100AC00002FEFE00000000000F0F0800F0E010E042
:100AD00010F0E00F0F0007000F0FF0E0101010F003
:100AE000E00F0F0000000F0FC0E0301030E0C00337
:100AF000070C080C0703F0E0101010F0E01F1F04B3
:100B000004040703E0F0101010E0F00307040404ED
:100B10001F1FF0E030301070600F0F000000000069
:100B20002070D090107060060E0809090F06101092
:100B3000FCFE1000000000070F080C06F0F000009B
:100B400000F0F0070F080808070F00F0F00000F0B1
:100B5000F00003070C0C0703F0F0008000F0F00336
:100B6000070E030E07033070C080C070300C0E03F8
:100B700001030E0CF0F0000000F0F0091B1212123D
:100B80001F0F30301090D070300C0E0B09080C0C79
:100B9000004040FCBE0202000000070F08080000F1
:100BA00000FEFE00000000001F1F0000000202BE49
:100BB000FC40400008080F07000004060206040677
:100BC0000200000000000000E0F0180C18F0E00146
:100BD000010101010101C0F818181818F8C0000738
:100BE000060606060700FCF8F0E0C0FCFCC00F0794
:100BF0000301000F0F00C0FCFCC0E0F0F8FC000F88
:100C00000F000103070FC0FCFC0000FCFCC0000F3C
:100C10000F00000F0F00F8F8181818181818070719
:100C2000060606060606181818181818F8F8060614
:100C3000060606060707C0C0C0C0C0C0C0C000008E
:100C4000000000000000C0C0008060800080000341
:100C50000C0D020D0C0D60800080608000C0020D44
:100C60000C0D020D0C0311241FBECFEFD8E0DEBF28
:100C7000CDBF21E0A0E0B1E001C01D92A63CB207CB
:100C8000E1F70E94B6140C94263DBAC95D98559AB6
:100C900080FD599A80FF5998519A539A5A9867FD46
:100CA0005B9A67FF5B985A9A5A9866FD5B9A66FF53
:100CB0005B985A9A5A9865FD5B9A65FF5B985A9AB9
:100CC0005A9864FD5B9A64FF5B985A9A5A9863FD40
:100CD0005B9A63FF5B985A9A5A9862FD5B9A62FF2F
:100CE0005B985A9A5A9861FD5B9A61FF5B985A9A91
:100CF0005A9860FD5B9A60FF5B985A9A5D9A5A9881
:100D00005B98089597FF09C08F939F938DE2CDD58F
:100D10009F918F91909581959F4F62E271E04AE09B
:100D200050E00E94C53C34C6EDDF01C0EBDF80E23D
:100D3000BCC58DE2BAC58DE3B8C5EF92FF920F93A3
:100D40001F93182F062FF42E82E691E02CD6EE2466
:100D5000E0913D01F0913E018685E81611F4812F66
:100D600009C08485E81611F4802F04C08585E81633
:100D700011F48F2D9AD5E3948E2D833049F71F916E
:100D80000F91FF90EF900895EF92FF920F931F93B2
:100D9000182F062FF42E80E0AFD488E691E003D61A
:100DA000EE248E2DF2D5C7DFE0913D01F0913E019A
:100DB0008685E81611F4812F09C08485E81611F4A0
:100DC000802F04C08585E81611F48F2D6ED5AFDF16
:100DD000E3948E2D833029F71F910F91FF90EF90B0
:100DE0000895682F80E092E0662309F491E0623074
:100DF00009F481E008950F93082FEEEAF1E0880FDF
:100E0000880FE80FF11D60817181828193816436C2
:100E100071058105910568F42091200127FD09C025
:100E2000802FDFDF692F03D26EEF23E04DE1E0D6A4
:100E300004C04FEF04E02DE1FBD579DF0F91089559
:100E4000863058F4EDE9F1E0E80FF11DE80FF11DEF
:100E50008081918163E0D7D66ACF08951F93182FC0
:100E600080917601882319F062DF80E01ED50BD4D3
:100E700089E591E098D5812F82958F70E1DF812FF0
:100E80008F70DEDF1F9108958091060182958F702B
:100E900018D08091060183701AD080910601DECFB0
:100EA000E1E9F1E0E80FF11D0895CF93F9DF9081BA
:100EB000C681C91710F405D001C012D038DFCF9118
:100EC0000895EEDF8F93808160D58F9100C08F935E
:100ED00087E291E068D58F91E3DF868156C508955A
:100EE000DFDF8F93868151D58F9100C08F9383E28E
:100EF00091E059D58F91D4DF808147C508958F93B4
:100F00002F932AE080953B9A089410F4439802C0EE
:100F1000439A000020D027D086952A95B1F72F91CB
:100F20008F91089503D002D001D000D000D003D01B
:100F300002D001D000D000D003D002D001D000D028
:100F400000D0A89503D002D001D000D000D003D0AB
:100F500002D001D000D000D003D002D001D000D008
:100F600000D003D002D001D000D00000089582E06C
:100F700090E0893C28F0885C48EC849FC0011124F3
:100F8000009709F4089540918100477019F0D9DF66
:100F90000197F6CF8130910519F002975EE303C007
:100FA00057E180E090E04091B200450F4093B300DC
:100FB00042E04093700047E043BF889546E043BF5E
:100FC00010927000A895DCCF8F9384E0D1DF06C02B
:100FD0008F93CDDF03C08F9381E0CADF8F911F9382
:100FE000182F106410937C00E12FE07880912D0180
:100FF000E81759F0E0932D01AEDF8EE980937A0077
:1010000083E083BF889582E083BF20E030E0A901C0
:10101000E0E01FC08EE980937A0083E083BF88956B
:1010200082E083BF6091780070917900260F371FAE
:10103000411D511DE43061F480912F01803041F059
:1010400084E02030380720F417FD02C01068CACFB2
:10105000EF5F80912C01E817E8F260913001709108
:10106000310117FF04C060912E0170912F0180E0C3
:1010700090E00E94353B2FEF33E040E050E00E94CB
:10108000773BB901CA0120912C0130E040E050E0EB
:101090000E94773BC9011F9108959B01281B390BC2
:1010A00050F0C9010895BC01809130019091310147
:1010B0006817790718F4861B970B089580E090E075
:1010C000089582E493E00E94003D20913401309124
:1010D0003501280F391F209316013093170183E043
:1010E000283E380720F0C901885E934002C080E0A6
:1010F00090E062E370E00E94503B683008F067E0E7
:10110000E6E4F3E0E60FF11DE60FF11D4591559180
:101110002591359162E3681B421B530B649FC0010C
:10112000659F900D1124499662E370E00E94503B48
:10113000620F731F70937A016093790184E493E0E6
:101140000E94F83C992787FD909560913401709139
:101150003501860F971F90932F0180932E01909356
:1011600075018093740108950F9221E08C329207EB
:1011700010F48CE291E08C52914069E170E00E94A1
:10118000503B99E16B3210F0982F6BE2981BEFEB1C
:10119000F2E0E60FF11DE60FF11D9F93CF010E94D3
:1011A000F83C482F3196CF010E94F83C582F3196D9
:1011B000CF010E94F83C282F3196CF010E94F83CC5
:1011C000382F6F91421B530B649FC001659F900D98
:1011D00011240C9669E170E00E94503B620F731F6E
:1011E000CB010F900895CF93DF9324E130E0B90154
:1011F0000E94503BDC01E8E5F3E0E60FF71FE60F45
:10120000F71FC591D591459155914C1B5D0B4A9F98
:10121000C0014B9F900D5A9F900D1124B9010E945F
:10122000503B6C0F7D1FCB01DF91CF910895AEE154
:10123000B0E0EDE1F9E00C94653C662EB82E860F27
:10124000898320911A01283059F520917F0130912E
:101250008001409181015091820157FD15C010918C
:101260008E0109C0CA01B9012AE0312D412D512D4D
:101270000E94773B1F5F173FACF391F4243160E08D
:1012800036074105510518F48FEF9FEF42C1173F14
:1012900039F480E028178DE738074105410510F043
:1012A00020E03DE72C8B3D8B26EDA22EEEE4F2E014
:1012B000E60DF11D859188608E87EEE4F2E0EB0D7E
:1012C000F11D859188608F87EBE4F2E0E60DF11D5A
:1012D0007590EBE4F2E0EB0DF11DC59090EC692AFE
:1012E000B92A81E0E82EF12C012D112D8E831F8269
:1012F000188619861A861B861C861D86188E198EDE
:101300001B8E1A8E0E944B2488E088B960927C0064
:1013100022DE3F8537B975B874B852E05A95F1F7B7
:101320000000000014B815B8DD243E8537B975B843
:1013300074B860927C00A895A0927A0080917A009F
:1013400086FDFCCF2090780030907900B0927C0030
:101350004C2DE3D02091780030917900288B398B87
:101360003F8537B9C5B8C4B8A895B0927C00A092A3
:101370007A0080917A0086FDFCCF609178007091B0
:10138000790060927C00472DC8D040917800509140
:10139000790014B8CB01820D931DE80EF91E011DD2
:1013A000111DEA82FB820C831D8388899989840F31
:1013B000951F2E813F8168857985280F391F611D12
:1013C000711D2E833F836887798722E324171506D2
:1013D00048F075B874B8C9DD14B815B8888D839510
:1013E000888F07C0483E73E0570718F08A8D8395B1
:1013F0008A8F888999892817190658F03E8537B948
:10140000C5B8C4B8B2DD14B815B8898D8395898F75
:1014100007C0883E73E0970718F08B8D83958B8FFC
:10142000D3945D2D5F3F49F05F3731F45C2D550F4C
:10143000C50E572D550F750E78CF4090390150903D
:101440003A01440C551C9201E4E0240D351DEA9547
:10145000E1F72901570168016E807F8088849984B3
:1014600020911A012830C1F46C897D89812D912D3C
:1014700065507040804090409B01AC010E94353B1C
:101480009B01AC0160E779E786E190E00E94773B41
:10149000621A730A840A950AA614B704C804D90408
:1014A00028F46A187B088C089D0803C066247724FA
:1014B0004301B20180E090E09301A4010E94353B1A
:1014C0009501A6010E94773B8AE193E07981870F1D
:1014D000911D0E94F83C682EC90160E170E00E94F5
:1014E000503B260F371FC9016816190618F48619D4
:1014F00091090FC08C5E9F4F8615910540F48C8931
:101500009D89843981E1980710F00E945C14812D37
:10151000912D6E96E2E10C94813C10928100109224
:10152000800010926F0010928B0010928A0057E09A
:1015300056BB5FEF509385005093840055E0509365
:101540007B0056EB50937A0051E05093810058E2B3
:101550005A95F1F7000045B944B955E05A95F1F7AD
:10156000000014B815B81092810080917A0084FFB1
:10157000FCCF80937A000895CF93C82F1C1614F0E7
:10158000CF910895D4DBC150F9CF60933C01809393
:10159000030186958093AD01660F660F660F609319
:1015A0000401089580913C01809301018091AD0177
:1015B0008093020108958091020160910101880FDA
:1015C000E4CF0895682F80E061CB08958EEAFADFBA
:1015D00085EAF8CF08958DE092DC8AE090CC0895FA
:1015E0001092AD0160E080E0D0DFF5CF0895CF9399
:1015F000DF93C0E080E1E6DF80E0E4DF8C2F806BEA
:10160000E1DFD4E860E081E041DBD150D9F7CF5F82
:10161000C83081F7E5DFDF91CF91089558985A9847
:101620005B985D98509A529A539A559A99DC5D9AB4
:10163000559A5998519A84E19BDC589A84E198DC38
:101640008EEAC0DF82EEBEDF82EABCDF80EABADF6C
:1016500080ECB8DF8FE2B6DF84E2B4DF81E8B2DF8E
:1016600089E193E00E94F83C8F73ACDF80E4AADF4D
:1016700084EAA8DF86EAA6DFBADF8FEAA3DF60E0AC
:1016800080E083CF089581E08093AD0160E082E047
:101690007CDFA1CF089582E08093AD0160E084E01B
:1016A00074DF99CF089583E08093AD0160E086E018
:1016B0006CDF91CF089590913C0180E1891B5CCF54
:1016C0000895CF93C82FF7DF8091AD018F5F80938E
:1016D000AD01843070F083E08093AD0181E08093B0
:1016E0003F018091AD016C2F880F4FDF74DFCF91E8
:1016F000089510923F01F5CFE4DF61D48091AD01F0
:10170000833008F068CF08956BDFD5DF69CF089587
:10171000BADFD1DFB8CF0895582F28E030E090E845
:1017200041E080E0652F642309F0892B440F9695F2
:1017300021503109B9F70895B0E0A0E0E2EAFBE0FA
:101740000C94663C6C0110E0C801860F911D813835
:101750009105E4F5842F8E0D9927991FFC018134A2
:101760009105A4F5D42FD695D695D695319793E0CB
:10177000F595E7959A95E1F7922F9270492E21FF02
:101780000DC08E2F8D1B990BAC01409FC001419F56
:10179000900D509F900D1124C80ED91ECE2FE83009
:1017A00008F0C7E0862F82958F70582E689454F801
:1017B00087E0382E6F70762E2170622ECD1758F488
:1017C0009091030187E0891B806BFCDECDB7DEB70B
:1017D000E1E10C94823C832D8D1B806BF3DE852D23
:1017E000F1DE872DEFDE5601A00EB11E7501460118
:1017F000CE14DF0441F4442019F05601A01AB10AB6
:10180000DF5F6501DBCFF70131977F01662059F07B
:101810008491411001C080DF682F81E037DAFFEF4B
:101820008F1A9F0AE5CFF401F3CFEF920F93482F61
:101830008F7320E6829FC001112482549C4F28E0C0
:1018400046FF28E4209305011092000147FD08C0DF
:101850002091050130E2309300012D5E20930501B7
:1018600020E2E22E08E120E04091000160910501B4
:1018700063DF0F91EF900895EF920F93262FFC01F5
:10188000349131964491319604913196E490E091EF
:1018900000014E0F60910501630F04964DDF0F911B
:1018A000EF90089560E0E8CF0895EF920F93CF9303
:1018B000C82F80913C018F5F80933C018C2F90E07A
:1018C00040910301440F440F440F60910401CC3058
:1018D000D8F424E0880F991F2A95E1F730E1E32E30
:1018E00008E020E08A52944F27DF80910401885F4E
:1018F00080930401EFEFEC0FEE3108F044C0F0E00C
:10190000E85DF24C0C94B53B4C972EE0289FF0011B
:10191000299FF00D112480E1E82E07E020E0CF019F
:10192000825A994F09DF60910401695F6093040155
:1019300040910301440F440F440F01E020E086E989
:1019400096E0FADE809104018F5FD2CF8EE3D7DA82
:101950008CE703C08CE7D3DA8CE3D1DAA895CF917A
:101960000F91EF9008958CE7F2CF82E5F6CF8DE2EC
:10197000F4CF85E7F2CF8FE4C2DA88E6C0DA8DE6ED
:10198000ECCF8CE4EACF8C2FE8CF8F5C8ECF08951C
:10199000CF93DF93EC018991811103C0DF91CF9147
:1019A000089583DFF8CFCF93DF93EC01CE010E943F
:1019B000F83C882319F079DF2196F8CFDF91CF9199
:1019C0000895EF920F93FC0104913196E4900296F2
:1019D000B3DE0F91EF9008950F9380E891E0E3DF7D
:1019E00040918D014D3F6CF460917B0170917C01C1
:1019F00080917D0190917E0103E026E419D00F9142
:101A000008958FE352DFFBCF909119019F709230C0
:101A100071F472DE84E690E0C6DFE0913D01F09162
:101A20003E0122E04DE16FEF84819581E1C0089590
:101A3000AEE0B0E0EEE1FDE00C94653C142F322EF8
:101A4000202E6B017C010F7080E389838A838B8356
:101A50008C838D838E83F7FE3FC06BD9F094E09426
:101A6000D094C094C11CD11CE11CF11C58EE452E31
:101A700053E0552E612C712C033041F140E1442E8E
:101A800047E2542E612C712C043001F130EA432ED0
:101A900036E8532E66246394712C0530B9F020E4A7
:101AA000422E22E4522E2FE0622E712C063071F06D
:101AB00064E6462E512C612C712C073039F490E8E5
:101AC000492E96E9592E98E9692E712C8AE0882EC4
:101AD000912CA12CB12C12C025FEC8CF8BE2E5DEE3
:101AE000C5CFC701B6016B5F7F4F8F4F9F4FA501D9
:101AF00094010E94773B69017A011F5FC414D504E9
:101B0000E604F70470F781E1810F9BEA899F812D3C
:101B10001124782E769486E0811B899F112D112443
:101B20001695912F990F190F811B182F4E0187E0E1
:101B3000880E911C2AE0A401C701B6010E94A43CB2
:101B4000F40101900020E9F731977F01E818F908C6
:101B5000DE2C812F90E004968E159F0514F473946B
:101B60001D5F872D90E0845D9F4F0E94F83C982E6A
:101B7000822D807124FE05C0802F8E19D01608F0AA
:101B800080E00E2D011B080F101624F08EE28DDE72
:101B9000812F8E19111101C008EFA12CC82ED12C54
:101BA000EC0CFD1C002E000C110BEA2DF0E0EE15E4
:101BB000FF0564F0992011F0892D77DE332011F0B4
:101BC000832D73DE2E96E2E10C94813C3696EC195F
:101BD000FD0981E090E08C0F9D1FE80FF91F8081C7
:101BE00064DEA394A016110601F78EE25EDEDDCF5F
:101BF0000F93362FBC0190E080E0022F242F432F5B
:101C000017DF0F9108950F93062FBC0190E080E03D
:101C100026E54DEF0DDF0F9108950F93042F28E473
:101C200040E006DF8AE741DE82D80F910895E82F71
:101C3000F0E0EE0FFF1FE057FE4F85919491209149
:101C40000001420F20910501620F20E0BACE0895F5
:101C5000CF93DF93C82FD62FE0913D01F0913E0145
:101C600048E16EE18685E3DFE0913D01F0913E01C0
:101C70004D2F6C2F8485DBDFE0913D01F0913E011B
:101C800040E06EE18585D3DFDF91CF910895CF935A
:101C9000DF93ADDC80ECC9DD62E086E991E0ECDD4C
:101CA00080E8C3DD81ED91E0FDDD60E085E06DDC85
:101CB00085E791E078DE68E085E067DC8DE691E01D
:101CC00072DE88E99AE313D192DC83E4AEDD83E02F
:101CD000ACDD8AED91E0E6DD61E082E056DC8EE489
:101CE000E4DD27D88FE891E05EDE69E082E04DDC3C
:101CF00080E5DBDD1ED88FE891E055DE88E99AE3C8
:101D0000F6D075DC81EC91DD81E88FDD83E392E034
:101D1000C9DD60E085E039DC8EE4C7DD0AD885E402
:101D2000C4DD89E891E03FDE68E086E02EDC80E5F6
:101D3000BCDD0E94990685E4B8DD89E891E033DED8
:101D400088E99AE3D4D053DC81E46FDD87E292E046
:101D5000A9DD81E06ADD83E092E0A4DD60E081E05E
:101D600014DC8EE4A2DD0E94990684E49EDD89E8FD
:101D700091E019DE68E082E008DC80E596DD0E94F3
:101D8000990684E492DD89E891E00DDE88E99AE322
:101D9000AED02DDC82EC49DD82E847DD89EF91E0B1
:101DA00081DD60E085E0F1DB8EE47FDD0E94990655
:101DB00085E47BDD84E991E0F6DD68E086E0E5DB43
:101DC00080E573DD0E94990685E46FDD84E991E08A
:101DD000EADD88E99AE38BD00ADC82E426DD83EF32
:101DE00091E060DD82E021DD81EE91E05BDD61E08C
:101DF00081E0CBDB8EE459DD0E94990684E455DD59
:101E000084E991E0D0DD69E082E0BFDB80E54DDD73
:101E10000E94990684E449DD84E991E0C4DDC0E0D4
:101E20008C2F8F7061F4DC2FD295D37021F488E968
:101E30009AE35DD0DCDB60E08D2F880FA6DB8CE1C0
:101E40008C0F33DDCF5FC43659F788E99AE34FD062
:101E5000CEDBDF91CF91089599B193FB992790F94B
:101E60004999926080911101843050F08EE0809306
:101E70000D0190930E011092120181E080931101E7
:101E800080911101E82FF0E0E35FFE4F30813917B8
:101E9000C9F091110EC020911201E3E0E80FE37048
:101EA0003230C9F4F0E0E35FFE4F30812F5F333012
:101EB000D9F0E1E0E80FE370E0931101F0E0E35FB7
:101EC000FE4F90838091120187FD03C08093130120
:101ED00008958195FBCF313061F7F0E0E35FFE4F6D
:101EE0003081333031F7215020931201E2CFB0E03E
:101EF000A0E0EDE7FFE00C946E3CE82ED92E53985D
:101F0000519824D810921201E0911101F0E031961D
:101F1000E370FF27E35FFE4F80EF8083C5E6D9E1E2
:101F20009BDF4F9B24C0CE2DDD2DF12C15E500E06D
:101F3000BB24B394D7FD15C082E3C82E8DDF0AD829
:101F4000CA94C110FBCF110F4F9B1F5F1F731F332C
:101F5000A9F4011103C0CE2DDD2D04E00F5F083C74
:101F600088F0802FCDB7DEB7E9E00C948A3C0E9460
:101F7000AA07D150A9F6C15091F6D5CF111102C0D0
:101F80000111EFCFA8951C161D0624F42A9711F411
:101F9000CFEFDFEF80911301882339F0F394809124
:101FA0007701811102C0B092770184E18F1508F0AA
:101FB000C1CF809112018111D4CFF12CBBCFCF932F
:101FC000F1DAC82F80913F01882301F1813051F46B
:101FD000C33041F46FE086E0D8DA8BE266DC6FE074
:101FE00086E0D3DA80E49FE182DF811104C0809132
:101FF00013018111F7CFC33041F480913F0181304B
:1020000021F460E086E0C1DA56DBD5DACF9108959D
:1020100040911801A0913D01B0913E01E1E9F1E04C
:1020200030E020E0822F2417B0F451911C969C914F
:102030001C97591719F05581951303C02F5F3F4F17
:10204000F1CF220F331FF901E356FE4F208131817A
:10205000293E334008F084E10895189518951092B0
:102060001A011092180110926F0110924F011092F4
:10207000190110923B0110927601EAE5F1E010821D
:1020800011821282EBE7F1E0108A82E0818B1092DC
:10209000200117861686148215821682178281EF18
:1020A000838B08958FE40E947F0786E40E947F0758
:1020B00086E40E947F078FDA89DA5E980E9495078E
:1020C00090E080E014CF08951F93CF93DF93162FF5
:1020D00098E097B998B9E82FF0E0E55BFD4F94914F
:1020E00095B9262F281BE20FF11D27FDFA95E491E3
:1020F000E92BE4B90E94EF07EC01812F0E94EF0762
:10210000AC01209130013091310136952795C901FC
:102110000397BE01625E7F4F8617970778F4255EAE
:102120003F4FC217D30750F4BA01625E7F4F861744
:10213000970720F481E04217530708F080E014B8B5
:10214000DF91CF911F910895CF9361E080E0BCDFD4
:10215000C82F62E080E0B8DFC80F62E081E0B4DF42
:102160008C0FCF910895AFE0B0E0E9EBF0E10C9473
:10217000653CB82E10921A01807FB9F4E5DF8330F8
:1021800081F435DA81E592E00EDC7DDA8FE38DDBD8
:1021900080ED97E0ACDE8B30B0F429DA85EF90E08B
:1021A00002DC2F96E2E10C94813C06E910E01FDA94
:1021B00081EC91E0F8DBC8DF833009F065C01F5F78
:1021C000143008F462C05FDA0E943C2881EB90E092
:1021D000EADB60E08CE193E00E94053D60E08DE188
:1021E00093E00E94053D60E08BE193E00E94053D95
:1021F00060E082E01CD86C019A83898361E082E010
:1022000016D87C019C838B8360E081E010D88C0120
:102210009E838D8323E040E26EEFC601E9DC23E07C
:1022200040E26EEFC701E4DC23E04DE16EEFC80150
:10223000DFDC2AE5C216D10424F084E190E09A8321
:10224000898369818CE193E00E94053D8AE5E81667
:10225000F10424F084E190E09C838B836B818DE119
:1022600093E00E94053D0A35110524F084E190E0D9
:102270009E838D836D818BE193E00E94053D82E01A
:1022800080933F019CDE07C010E088E20E94B807FF
:10229000015009F08CCFEB2DEF70EF87E13009F0A2
:1022A0004FC0EE24E394F12C68EB862E62ED962E5F
:1022B00067E4A62EB12C72E0D72E08E0E0E23E2EB5
:1022C000C12C1E2D42E2242E23DA1EDA84E5EDDA3B
:1022D000C7010E948D060E949706113009F0C2C105
:1022E00084EE90E060DB64E08091340190913501F0
:1022F0008ADCC9D98FED90E056DB8091790190910D
:102300007A010E948D068EEB80932C0107B908B9E3
:1023100014B815B888EE93E0EADD143011F08B3074
:1023200020F4C39484E0C812CFCF88EE93E0DFDDC1
:10233000EFEFEE1AFE0AF8E0EF16F10409F0C0CF55
:1023400018E702DF811181C252D98AEA90E02BDBC3
:1023500023E04DE16FEF809132019091330148DC31
:1023600092D983EA90E01FDB23E04DE16FEF80918B
:10237000390190913A013CDC82E080933F011FDEFD
:1023800010921A0134D98FE990E00DDB60E082E011
:102390000E941A254090830150908401609085012D
:1023A000709086015C864B8661E082E00E941A256F
:1023B0008090830190908401A0908501B090860167
:1023C0009E868D8660E081E00E941A25009183013F
:1023D000109184011E830D8362E080E00E941A2523
:1023E00080918301909184019C838B8362E081E0E2
:1023F0000E941A2580918301909184019A87898790
:1024000061E080E00E941A25E0908301F090840151
:10241000FA82E982C2010E949606C4010E949606D1
:10242000B801110F880B990B03E026E444EF00DBA1
:102430002F85213009F015C282E0E80EF11CF886E4
:10244000EF828E010F5F1F4F6E01EFE0CE0ED11CA9
:10245000F801819191910A97853B9105C8F4EC159B
:10246000FD05B9F73BE3E32E33E0F32EF80160817D
:102470000E5F1F4F6E5EC7010E94053DFFEFEF1A12
:10248000FF0A0C151D0591F7FED885EA91E08BDA5D
:1024900082E080933F0193DD0E94DC372F8521305D
:1024A00029F080913801823009F0C6C0A0D880E0C0
:1024B0006CDA8BE491E077DA82E067DA84E290E02C
:1024C00072DA90E4F92E10E02AE0822E912CA12CF1
:1024D000B12CC5DD10921A0160E082E00E941A253D
:1024E00000918D0120917B0130917C0140917D0113
:1024F00050917E01073F0CF4BEC100938D012093E3
:102500007B0130937C0140937D0150937E01073F16
:1025100009F0B9C120563109410951092039354521
:102520004105510508F0AFC160918F017091900194
:10253000CB018B569F4F8B32914008F0A4C11F5F97
:10254000153008F4A1C182E493E00E94133D4FD8F6
:102550008DE190E028DA80918F01909190010E94A6
:1025600082060E94610888E088B989E087B980E224
:1025700084B982E00E94EF07853D9340D4F714B8F8
:1025800010922F0110922E0182E00E94EF077C0131
:10259000809174019091750190932F0180932E0189
:1025A00082E00E94EF076C01CC0CDD1C10922F0121
:1025B00010922E0182E00E94EF074C01A09074015E
:1025C000B0907501B0922F01A0922E015CD886E1E7
:1025D00090E0E9D984E493E00E94F83C182FD701F9
:1025E000A80DB91DAC19BD0995010E94CA3B960101
:1025F0000D2C000C440B550B0E94993B1D5F120FD4
:10260000612F84E493E00E94053D812F012E000C90
:10261000990B0E9482060E94610882E080933F012C
:10262000CEDC109238018BE393E00E94F83C682FD7
:102630008EE393E00E94053D89E180932C0180E0C8
:102640000E94EF3A0E94F70A85EF90E0ACD91BD8C0
:1026500088E392E0A8D910921A0182E080933F01AA
:10266000AEDC9FCD123091F52091300130913101D7
:10267000A8E5BBE10E94BB3B24EC36E340E050E020
:102680000E94993B290181E085B9F5E0F4B980E029
:102690000E94E407841995099A83898381E184B9AA
:1026A00080E00E94E407841995099C838B8384E071
:1026B00085B984E184B981E00E94E4078419950911
:1026C0009E838D8389EC90E06ED937C0133059F525
:1026D000D5B82AE024B980E00E94E40720913001B7
:1026E000309131013695279538872F83821B930BC4
:1026F0009A83898324B880E00E94E4072F8138857B
:10270000821B930B9C838B8305B988E284B981E09B
:102710000E94E4072F813885821B930B9E838D8353
:102720008BEB90E0D1CF1430D9F481E492E03BD927
:102730000BDD882311F0F2E0CF2E0E94430B89813C
:102740009A810E9482060E9497068B819C810E943A
:1027500082060E9497068D819E810E948206D6CDB8
:102760001530B1F415B8D4B880E00E94E4079A831C
:10277000898304B981E00E94E4079C838B8334B889
:1027800082E00E94E4079E838D838BED90E09CCFD6
:10279000163051F5D4B8D5B880E00E94E4072091F6
:1027A000300130913101821B930B9A83898304B9E4
:1027B00005B981E00E94E407209130013091310198
:1027C000821B930B9C838B8334B835B882E00E94C4
:1027D000E4072091300130913101821B930B9E83DD
:1027E0008D8387ED90E070CF173009F0A6CF209150
:1027F000300130913101A8E5BBE10E94BB3BA5014E
:1028000094010E94773B2901D5B8E3E0E4B980E068
:102810000E94E407841995099A83898305B9FCE02D
:10282000F4B981E00E94E407841995099C838B83A5
:1028300035B820E324B982E00E94E40784199509A1
:102840009E838D8385EB90E03FCF0E94880B81E4CF
:1028500092E0A9D884E60E94B807115009F071CD22
:1028600073CD80913801823009F4E6CDF886EF828D
:1028700010923801E6CD0F5FCA01B901A50194019C
:102880000E94773B37CE10E00E94430B60917B01A2
:1028900070917C0180917D0190917E0104E026E49D
:1028A00040918D01C5D80E945B0B88E20E94B80759
:1028B000FA94F1100ECEC0CE8091380181110DC076
:1028C0008BE393E00E94F83C61E0680F8EE393E0B5
:1028D0000E94053D81E0809338010895EF92FF92B8
:1028E0000F931F93CF93DF93D62FE82FF0E0E25B97
:1028F000FD4FE491E8B9E860E7B915B8E62FF0E0DC
:10290000E55BFD4FE491E4B9CE2FCC0F88E8E82ECB
:1029100083E1F82E8D2F0E94E4078C01C4B98E1537
:102920009F0510F1892BD9F00E94530B8BE291E0A7
:102930003AD8D80120EA36E841E050E00E94D03B86
:1029400028E937EB40E050E00E94773BC90122E0E4
:1029500041E467EF4DD988E087B988B914B8CDB79D
:10296000DEB7E6E00C948D3C7801D4CF80E48AB9E0
:102970008BB9D6E8D0937A001092C1000E949707D5
:10298000C4B7C87084B7877F84BF0FB6F894A89582
:1029900080916000886180936000109260000FBE9B
:1029A000D093640088E380937E001092B00087E0AB
:1029B0008093B10078940E940E0BC1119CC580E1F8
:1029C00085BF84E0809311014F9908C00E94B7072A
:1029D000CF5FCC33C9F780E69DE604C08FE59DE666
:1029E000CF31C8F790930C0180930B0110922D0109
:1029F0000E943C2888E19FE00FB6F894A895809348
:102A000060000FBE90936000CC3309F465C020E1F4
:102A1000722E38E1632E40E4842E41E0942E50E67D
:102A2000A52E51E0B52E6CE0362E7DE0572EE0EF5E
:102A30004E2E8FEA0E94E20A84EA0E94E20A0E9475
:102A4000F70A28E027B90BDB0E943C280E94F00A15
:102A500060D580913B01882379F00E94430B80E48C
:102A600091E00E94D30C63E080913001909131019C
:102A7000CAD888EC0E94B8070E94430B0E944B24DE
:102A800080911A01893069F50E94F70A85E491E086
:102A90000E94D30C0E94430B63E0809154019091FB
:102AA0005501B1D80E94970663E08091560190913C
:102AB0005701A9D80E94970663E080915801909130
:102AC0005901A1D88AEC0E94B80781E14CDBC09182
:102AD0000B01D0910C0197C10E94C8318111FCCF2C
:102AE00096CF8EE393E00E94F83CC82F8BE393E0EF
:102AF0000E94F83CC81BC093380180E034DB0E9480
:102B0000880B86EB92E00E94D30C83E00E947F0743
:102B10000E94EB0A42E061E080E06BD542E060E0B9
:102B200081E067D541E062E080E063D541E060E0AC
:102B300082E05FD540E062E081E05BD540E061E0AB
:102B400082E057D580911A0181110EC00E944B245A
:102B500060E082E00E941A2561E082E00E941A256E
:102B600060E081E00E941A250E94F70A90923E01DF
:102B700080923D0180911A018630F9F485EC0E9423
:102B8000150C60E188EF64D866E080E00E94C50A19
:102B90008DE892E00E94D30C66E082E00E94C50AB4
:102BA00089E591E00E94D30C62E08091440190910C
:102BB000450129D80E94EB0A8ACF873069F484EC5A
:102BC0000E94150C60E188EF43D866E080E00E9427
:102BD000C50A86E992E0DECF8830A9F480918B01A6
:102BE00090918C01890F9927991F029741F40E94B7
:102BF000A12A8091380181112BC454DA1ACF80E0C8
:102C00000E94CF2964CF833009F00EC18091180152
:102C1000813009F06AC080E00E94550760919101FF
:102C2000809197015BDE80E70E942E0740E0609173
:102C30009101809197010E94023760937B0170930C
:102C40007C0180937D0190937E0180E00E947C0B4B
:102C500060917B0170917C0180917D0190917E015A
:102C600002E026E442EF0E94180D0E94990641E01E
:102C700060919101809197010E94023760937B01DE
:102C800070937C0180937D0190937E0126E442EF56
:102C90000E94180D8DE191E00E94D30C0E94EB0A76
:102CA0000E94EB0A80917601882309F410CF67B85F
:102CB00038E037B980E00E947C0B20917601222316
:102CC00009F4AAC380915D01213009F040C30E943C
:102CD000F10620915D01213009F034C320911801E3
:102CE000211130C30E94582A84CF823079F582E3C3
:102CF0000E94550C8DE091E00E94D30C90919101BF
:102D000030919201931308C080E00E94700781E027
:102D10000E94670781E088CF2091970180919801F8
:102D2000281307C080E00E94610781E00E947607B7
:102D3000F1CF321306C081E0809306010E94440760
:102D4000AFCF98133FC070920601F8CF8330D1F512
:102D500083E38093060180919701909192018913FA
:102D600003C021E020930601409191013091980128
:102D7000431302C07092060120919301821303C095
:102D800082E08093060180919901481303C040E2DC
:102D900040930601321310C022E1209306019813DC
:102DA00003C081E28093060183E30E94550C8DE00D
:102DB00091E00E94D30CC2CF981799F3809106013D
:102DC000823290F38CE992E00E94D30C84E892E086
:102DD0000E94D30C0E94430B80911801805D0E94D9
:102DE000550C8AE20E94550C87E291E00E94D30CB8
:102DF0008AE692E00E94D30C0E94EB0A86E00E94D1
:102E0000150CC0E4DFE167B84F9BFECFCE016FD851
:102E1000823328F490911301933008F40AC30E947E
:102E2000C8318111FCCF05CE843009F057C18091A3
:102E30006F01882309F464C080914F01882309F44D
:102E40005FC060914C0180914E010E941A25C09094
:102E50007B01D0907C01E0907D01F0907E01C091DB
:102E60008D0160916E0180916C010E941A25809104
:102E7000400190914101A0914201B09143014091E4
:102E80006001509161016091620170916301843F22
:102E900031E09307A105B10538F4443FE1E05E0756
:102EA0006105710508F0C0EF443F514061057105AF
:102EB00038F4843F9140A105B10510F040928D0196
:102EC00080918D018C1310C080917B0190917C01C9
:102ED000A0917D01B0917E01C816D906EA06FB06D5
:102EE00028F03092190104C0C817DCF7509219017C
:102EF00080916F01882321F080914F018111CEC014
:102F000066E080E00E94C50A80EC0E94150C80916A
:102F100019018C3009F0CBC085E791E00E94D30CF9
:102F200080916F01882319F080E70E94550C70D8BA
:102F3000C82F853098F4A0913D01B0913E01E82F53
:102F4000F0E0EF56FE4F1D969C91808162E0981351
:102F500001C060E086E991E00E943C0C60E189EFED
:102F60000E94280E86E00E94610B84E891E00E9496
:102F7000D30CE0913D01F0913E016081718182812D
:102F8000938103E020E04EEF0E94180D87E00E943D
:102F9000610B89E40E94550CE0913D01F0913E01E6
:102FA000868197818031974208F494C085E60E941B
:102FB000550CE0913D01F0913E0186819781805151
:102FC0009742978386830E949B06E0913D01F09192
:102FD0003E0122E041E46AEF868197810E94F80D6C
:102FE00086E00E94610B8DE591E00E94D30CE09198
:102FF0003D01F0913E0163E0848195810E94030EC2
:1030000081E080933F01E0913D01F0913E01808598
:103010009185892B91F085E00E947C0B8FEE90E0EA
:103020000E94D30CE0913D01F0913E0122E041E489
:103030006AEF808591850E94F80DE0913D01F09145
:103040003E0182859385892B91F085E00E947C0B5F
:1030500089EE90E00E94D30CE0913D01F0913E0199
:1030600022E041E46AEF828593850E94F80DC53025
:1030700078F480E00E947C0B8C2F0E94550789E534
:1030800091E00E94D30C8C2F0E9420070E94EB0A33
:1030900043E462E485E40E94C4068CCD4F9930CFAE
:1030A0008091190191E089278093190129CFB0926D
:1030B0003E01A0923D0181ED91E00E94520C8DE60F
:1030C00091E00E94D30C80914F01882309F42FCF07
:1030D0008EE62BCF83E60E94550C75CF853009F024
:1030E000ECCD66E080E00E94C50A80911901C82FEE
:1030F000C07184FF63C080E50E94550CB0923E0110
:10310000A0923D01C2E00E94990680911901D82F3A
:10311000DF70D43009F056C08FE891E00E94D30CE4
:1031200083EC0E94150C8AED91E0C11167C00E94EA
:103130000810853098F4A0913D01B0913E01E82F30
:10314000F0E0EF56FE4F1D969C91808162E098134F
:1031500001C060E086E991E00E943C0C60E189EFEB
:103160000E94280E86E00E94610B8091190185FD66
:1031700061C085E591E00E94D30CE0913D01F091A2
:103180003E0162E0828593850E94030EE0913D013D
:10319000F0913E01668584850E941A2586E00E9492
:1031A000610B0E94EC0C85E00E94040D4FE367E484
:1031B0008FE3D43009F46FCFC0E0B7C08EE40E9433
:1031C000550CA1CF85FF1DC084E40E94550CCF5F34
:1031D000D330D9F489E891E00E94D30C81EC0E94AD
:1031E000150C87E292E0C13049F083E392E0C230EF
:1031F00029F083E092E0C33009F099CF0E94520C8D
:1032000096CF85E40E94550CE3CF84E991E00E94BB
:10321000D30C82EC0E94150C83EF91E0C13071F366
:1032200089EF91E0C23051F3C33009F080CF81EED5
:1032300091E0E4CFE0913D01F0913E018F70843048
:1032400009F44EC0668584850E941A250E94EC0C04
:1032500060E084E00E94C50A89E40E94550C0E9447
:103260009B06E0913D01F0913E0122E041E46AEFCE
:10327000868197810E94F80D8FE491E00E94D30C23
:10328000E0913D01F0913E0162E0828593850E94CC
:10329000030EE0913D01F0913E0180859185803CD7
:1032A0009241E0F480E00E947C0B89E40E94550C7E
:1032B0000E949B0622E041E46BEF90E080E00E94D8
:1032C000F80D8FE491E00E94D30CE0913D01F09164
:1032D0003E0162E0808591850E94030E80E064CF0C
:1032E00084819581892B09F4B3CF80E090E00E941E
:1032F000D30CE0913D01F0913E0122E041E46AEF00
:10330000848195810E94F80DA3CF80E00E947C0B00
:103310008C2F0E94550789E591E00E94D30C8C2FD9
:103320000E9420070E94EB0ACF5F80911801C81706
:1033300060F344E467E483E5D33009F0ACCE43E4C2
:1033400067E4A8CE40E0692F0E940E29C0CB90917F
:103350005E01F4E09F9FD0011124A255BE4F34E0DE
:10336000839FF0011124E255FE4FED90FD900D91E9
:103370001C914081518162817381C92F4E155F0577
:103380006007710708F0C82F223041F5980FC3E09D
:10339000C91B1C2F1695D2E0DC1B01E0C11102E015
:1033A000812F0E94C50C88E091E00E94D30C8D2FE4
:1033B0000E94C50C88E091E00E94D30C802F0E94EF
:1033C000C50C80E00E94610B81E0C11180E00E9489
:1033D000FB0682E0811B0E94FB0679CB80915F0196
:1033E00094E0899FD0011124A255BE4F24E0C29FD2
:1033F000F0011124E255FE4F0D911D912D913C914C
:1034000040815181628173814017510762077307C0
:1034100008F0BFCFC82FBDCF84E792E00E94D30C45
:103420000E94430B81EA92E00E94D30C8CE992E067
:10343000E1CC8111FECA9111E9CCDBCB80E29EE4A4
:103440000E94770F81114EC08091120187FF17C033
:10345000D4E010E000E098012F5A3D4F7901F901C6
:1034600080E090E1D92EC491C03211F0CE3F09F432
:10347000D82E8F5F31968131B1F7DD23F9F23D2FE0
:103480003370232E11F40E94F70A60E0822D880F1A
:103490000E94C50A0E94EB0AA895DF5FD370212C19
:1034A0002D100DC0CC23F1F0020D111DF801EF5AC3
:1034B000FD4FE491E03279F60F5F1F4FCCCFF7015B
:1034C000C491CC2379F0CF3F39F40E94970623941E
:1034D000FFEFEF1AFF0AE4CFCE3FC9F38C2F0E9413
:1034E000550CF5CF80E29EE40E94770F8091120187
:1034F00087FDAECF82CB0E94F00A81E692E00E9467
:10350000D30C8BEC0E94B8070E94521090E080E030
:1035100008950F931F93CF93DF9385E00E94EF07E9
:1035200085E00E94EB078C01EC01CC0FDD1FCC0F76
:10353000DD1FCA56DF4F10923601C43883E0D8072A
:1035400070F489E991E00E94D30C0E945B0B81E04A
:1035500080933601DF91CF911F910F91089588EAF2
:1035600091E00E94D30C62E0CE010E94030E0E9403
:1035700097060A3F86E01807B0F40333164060F45C
:103580008AEA92E00E94D30C0E945B0B8DEC0E94B1
:10359000B8070E945210DECF81EB92E00E94D30C5C
:1035A0000E945B0BD7CF85EA91E0F8CFFC019C012C
:1035B000261B370BCA0170E060E0A901460F511DC0
:1035C000452F5527620F240F351FAC01470F511DA2
:1035D000452F5527780FDA01AA0FBB1F8A0F9B1FB3
:1035E0004B3E20F4E217F30740F7089590E080E0A7
:1035F0000895A9E1B0E0EFEFFAE10C94653C582E94
:10360000462E342EA895E62FF0E0E55BFD4F249181
:103610002E87220F2F8B339634913A8BE42FF0E0D4
:10362000E55BFD4F44914983339684918F83E52D6B
:10363000F0E0E55BFD4F2490922D990F9F87339624
:1036400024912B8328602C8338603A8345B9EE841B
:10365000E42AE4B827B93B8138B9862F0E94EB07EA
:103660009D878C874E8544B9842D0E94EB073C01D1
:1036700014B80E94A00715B8E4B8842D0E94EB0787
:103680006C857D850E944D086C018A8187B988E030
:1036900088B9998192299D8395B994B9852D0E9405
:1036A000EB070E9453084C0115B80E94A00725B8EB
:1036B000852D0E94EB070E9453088C0124B8852DAC
:1036C0000E94EB070E945308B82E9987B801C401E5
:1036D0000E944D088032E1E09E0730F4F0E2CF1600
:1036E000F1E0DF0608F4CAC5C00ED11E2C853D8569
:1036F000820F931FC816D90620F41D870C876B2CE8
:10370000798420914F0180916F01820F9927991F31
:1037100002974CF0213009F0B1C590914C01809195
:103720006C019813ABC5D980DD0CFE84FD283D2DBE
:1037300032293B878C859D858437910508F4AAC181
:103740000A96880F991F6816790608F0A3C19C8114
:1037500097B9EB81E8B9F4B8842D0E94E8078C0191
:10376000832D0E94EF077C01D5B8842D0E94E807C5
:103770009801295A3D4F2817390708F0B9C088E049
:1037800088B9FA81F7B92B8524B925B9832D0E9410
:10379000E80788349F4008F470C085E080931A01E0
:1037A00082E2809319011093450100934401B7010F
:1037B000C8010E94580890934B0180934A019801D8
:1037C000A0E1B7E20E94BB3B2091140130911501AA
:1037D00050E040E00E94773B309347012093460140
:1037E0008F898D2984B915B84C8147B98B8188B9E7
:1037F000832D0E94EF078C01842D0E94E807B801F9
:103800000E9458089C01909349018093480190912F
:1038100019019F709430B1F188E088B99F81EA81E5
:103820009E2B97B924B8FD81F5B9852D0E94EB0731
:103830008C010E9453089E838D83842D0E94EF0784
:10384000E0901B01F0901C01BC01C8010E945808C7
:103850009701DC010E94BB3BED81FE819F0150E09E
:1038600040E00E94773B30934501209344018091D2
:103870004F018F5F80934F0189C385E080931A01C8
:1038800084E28FCF409146015091470160914A01F7
:1038900070914B01C9018ADE0097F9F0D4B8EA892A
:1038A000FC81EF2BE7B9842D0E94E8078C0188E0AA
:1038B00087B99801A0E1B7E20E94BB3B2091390192
:1038C00030913A0150E040E00E94773BA901B801F5
:1038D000809148019091490169DE90934501809360
:1038E0004401809119018F70843009F4C0CF94CFC6
:1038F00088E088B92A8127B93B8534B935B9852D47
:103900000E94E8078C01832D0E94EF077C0125B8F7
:10391000852D0E94E807895A9D4F8017910708F06E
:10392000ADC44B8148B98C8187B9832D0E94E807CB
:10393000813D934008F06EC085E080931A0182E3D8
:1039400080931901B801C7010E94580890936B0138
:1039500080936A01C8010E9453089C01A0E1B7E26C
:103960000E94BB3B20911B0130911C0150E040E0C4
:103970000E94773B3093670120936601F8E0F8B925
:103980002A8127B98F858D2984B985B9852D0E9413
:10399000EF078C01832D0E94E807B8010E945808A8
:1039A0009C019093690180936801909119019F7027
:1039B0009430A9F1EB813F81E32BE8B94C81342BA2
:1039C00037B915B88D8184B9852D0E94EB077C012C
:1039D000842D0E94EF079E838D8300911401109126
:1039E0001501BC01C7010E9458089801DC010E9422
:1039F000BB3BED81FE819F0150E040E00E94773BA0
:103A0000309365012093640180916F018F5F8093F3
:103A10006F0154C185E080931A0184E391CF4091F6
:103A200066015091670160916A0170916B01C90153
:103A3000BDDD009721F1D5B8D4B8FB81F8B9EC8190
:103A40002A81E22BE7B9852D0E94E8070E945308DE
:103A50008C0138E037B99C01A0E1B7E20E94BB3B82
:103A6000209132013091330150E040E00E94773BD9
:103A7000A901B801809168019091690197DD909347
:103A8000650180936401809119018F70843009F47D
:103A9000BBCF90CF88E088B94A8147B925B88B85DC
:103AA00084B9852D0E94EB07998B888B0E9453085F
:103AB00098878F83832D0E94EF079A8789878301D8
:103AC0000C591F4FEF81F885B3010E171F0708F03F
:103AD000F7C0CF010E9458089C8B8B8B20911B0153
:103AE00030911C0150E040E060E871EA83E09CE125
:103AF0000E94773BAB89BC890E94D03BE985FA855F
:103B00009F0150E040E00E94773B49015A0114B800
:103B100015B8FB81F8B92C8127B981E00E94B8075C
:103B2000E4B8842D0E94EB078F359D4008F474C1E2
:103B3000F4B8842D0E94E807998F888F832D0E9406
:103B4000EF079C8B8B8B852D0E94EF079E8B8D8BB7
:103B50008B899C89813D974008F4E6C084E080937E
:103B60001A018DE080931901288D398D890106197C
:103B700017096216730610F0088D198DC090140194
:103B8000D0901501F12CE12C60E871EA83E09CE112
:103B9000A70196010E94773BD8010E94D03BEB8998
:103BA000FC899F0150E040E00E94773B80916F01CB
:103BB000882371F08091600190916101A091620170
:103BC000B091630182179307A407B50708F099C065
:103BD000209360013093610140936201509363012F
:103BE000288D398DA0E1B7E20E94BB3BA701960169
:103BF0000E94773B30936701209366016B897C8933
:103C00008D899E890E945808909365018093640174
:103C100081E0409160015091610160916201709179
:103C20006301481559056A057B0508F06CC0809250
:103C3000600190926101A0926201B0926301698576
:103C40007A85888999890E945808909365018093A4
:103C500064012F813885A0E1B7E20E94BB3B20912F
:103C60001B0130911C0150E040E00E94773B205F37
:103C7000384D3093670120936601C0901401D090B5
:103C80001501F12CE12C9301A0E1B7E20E94BB3BAE
:103C9000A70196010E94773B309369012093680148
:103CA0002C853D85A0E1B7E20E94BB3BA7019601B0
:103CB0000E94773B30936B0120936A0181E025C01D
:103CC0008F8198850E9458089C8B8B8BFD81F4B95D
:103CD000852D0E94EB07998B888B0E94530898874B
:103CE0008F83832D0E94EF079A878987BC018B8978
:103CF0009C890E9458089C01A4E6B0E00E94BB3B4E
:103D0000FDCE80E086CF8111B8CF90916F019F5F8B
:103D100090936F01882309F478C330926C0140922C
:103D20006D0150926E0171C3F1E66F16710408F0D7
:103D300073C0288D398D213D47E0340708F46CC0ED
:103D400085E080931A0182E180931901C9018650B0
:103D50009F4FED89FE898E179F0708F043C083E1CE
:103D600080931901FA89F770DF2E832D8064809388
:103D70007C00EBE0EE2E21E030E03E832D830FEF60
:103D800013E0A89561E089816FD5F4B886B18D21E3
:103D9000E9F33E8534B980917A00806480937A009B
:103DA00080917A0086FDFCCF809178009091790017
:103DB000F801E81BF90B2D813E812E0F3F1F3E833A
:103DC0002D83EA94E110DDCFC901880F991F880F78
:103DD000991F69E070E00E94503B70936B01609303
:103DE0006A0112CE0091140110911501688D798D30
:103DF0008D899E890E9458089801DC010E94BB3B76
:103E0000E88DF98D9F0150E040E00E94773B3093B0
:103E1000650120936401A6CFF4B8D5B8842D0E9423
:103E2000EB076C01832D0E94EF0798878F830E9418
:103E300053089A8789870C151D0508F0A9C0B3019E
:103E4000C6010E9458088C0120911401309115017F
:103E500050E040E060E871EA83E09CE10E94773B3B
:103E6000D8010E94D03BE985FA859F0150E040E0EF
:103E70000E94773B49015A01FA81F7B988E088B975
:103E80002D8124B925B9852D0E94EB078C01832D46
:103E90000E94EF079A878987842D0E94EF077C0193
:103EA000003331E1130708F0E6C125B8852D0E94E3
:103EB000EB07998B888B24B8852D0E94EB079C8B90
:103EC0008B8B15B881E00E94B80725B8852D0E941C
:103ED000EB07EB89FC89E034F64008F079C08133C8
:103EE000914108F475C0C8018A569F4FE889F98945
:103EF000E817F90708F06CC086E080931A018091FA
:103F00004F018F5F80934F01B70189859A850E9489
:103F100058089093450180934401B701C8010E945D
:103F2000580890934B0180934A0114B815B8FA8948
:103F3000F8B981E00E94B80724B8852D0E94EB07EC
:103F4000853F910518F52D8124B9832D0E94EB073B
:103F5000813D9340D8F0852D0E94EF078D3D924022
:103F6000A8F024B8852D0E94EB078D3D924070F09B
:103F700025B881E00E94B80715B8852D0E94EB078F
:103F8000853F910518F487E080931A0181E0F8C01D
:103F9000E4B8F981F5B9842D0E94EB076C01832DFB
:103FA0000E94EF0798878F830E9453089A8789871A
:103FB000C6016C147D0410F48619970969857A8509
:103FC0000E9458089C01A4E6B0E00E94BB3B4BCF86
:103FD000FA81F7B9298124B925B981E00E94B8078F
:103FE0003B8534B935B9852D0E94EB078C010E94C1
:103FF0005308998B888B832D0E94EF079E838D83B6
:104000000E9453089A878987842D0E94EF077C01BC
:1040100089859A858E3F994008F4C1C084E08093D9
:104020001A018CE080931901B301888999890E9453
:1040300058088C0120911B0130911C0150E040E098
:1040400060E871EA83E09CE10E94773BD8010E941E
:10405000D03BE985FA859F0150E040E00E94773B24
:1040600080914F01882371F080914001909141012E
:10407000A0914201B091430182179307A407B507AD
:1040800008F07AC0209340013093410140934201EF
:1040900050934301B7018D819E810E9458089093EF
:1040A00045018093440128893989A0E1B7E20E9443
:1040B000BB3B20911B0130911C0150E040E00E946D
:1040C000773B309347012093460181E040914001C6
:1040D0005091410160914201709143014815590589
:1040E0006A057B0508F04AC0809240019092410128
:1040F000A0924201B0924301B6018F8198850E943F
:10410000580890934501809344019601A0E1B7E2DD
:104110000E94BB3B209114013091150150E040E01A
:104120000E94773B205F384D309347012093460132
:104130009301A0E1B7E20E94BB3B209114013091B2
:10414000150150E040E00E94773B309349012093F5
:1041500048012C853D85A0E1B7E20E94BB3B209140
:104160001B0130911C0150E040E00E94773B3093EE
:104170004B0120934A010ACF80E0A8CF8111D8CF0C
:1041800090914F019F5F90934F01882309F43DC1A7
:1041900030924C0150924D0140924E0136C1F1E6F1
:1041A0006F16710408F067C02889398929343D40A9
:1041B00008F461C085E080931A0182E080931901C0
:1041C000C70186509F4F8017910708F03CC083E0DD
:1041D000809319010B810770832D806480937C008C
:1041E0001BE021E030E03E832D83A89560E08981CB
:1041F0003BD33B8534B935B986B18023E9F724B880
:1042000080917A00806480937A0080917A0086FDA4
:10421000FCCF8091780090917900ED81FE81E80FCC
:10422000F91FFE83ED83115001F7CF01880F991F0D
:10423000880F991F69E070E00E94503B70934B011A
:1042400060934A0114CBC0901B01D0901C01B701B0
:10425000C8010E9458089601DC010E94BB3BE88916
:10426000F9899F0150E040E00E94773B309345017F
:1042700020934401AFCF88E087B988B914B815B846
:1042800088E087B9F7EC6F16F1E07F0608F4E5C027
:1042900088B92F8524B938EC3D834C818A81482B1D
:1042A0004F839F8197B981E00E94B807EA81E7B9FF
:1042B000852D0E94EF07429728F0FD81F150FD8384
:1042C000F111EFCF2F8524B925B961E08981CCD2D6
:1042D000852D0E94EB076C013F8934B915B84C81DC
:1042E00047B98B8188B960E08981BED2842D0E9454
:1042F000EB070E9453089E838D839E8594B9842D7D
:104300000E94EF078C01852D0E94EB07B8010E94E7
:1043100058088C01842D0E94EF077C01852D0E9496
:10432000EB07B7010E94580898012C5E3F4F2817F1
:10433000390708F46AC088E088B9EA81E7B924B887
:1043400025B861E0898190D2842D0E94EF077C011D
:10435000852D0E94EB07B7010E9458087C010817C1
:10436000190708F05EC0FF85F4B9F5B9852D0E94E4
:10437000EB07FC01CD82DE828D819E81883426E0B0
:10438000920708F060C09C0153E0369527955A9536
:10439000E1F748EEE41643E0F40608F057C0C70121
:1043A00064E670E00E94503BC70187599109893843
:1043B000914108F052C0EE15FF0508F04EC08D8106
:1043C0009E81280F391F2E153F0508F046C068173B
:1043D000790708F042C080911A01833018F483E015
:1043E00080931A0120911801822F90E0FC01EF5672
:1043F000FE4F50824682880F991FFC01E356FE4F04
:10440000F182E0822F5F2093180188E087B988B994
:1044100014B815B88EE20E94550C6996E2E10C942E
:10442000813C2F8924B915B83C8137B94B8148B9F3
:1044300060E0898119D2842D0E94EB070E94530805
:10444000FC01780199CF28EC30E0A3CFB70144E01C
:10445000769567954A95E1F7A7CF642D852D01D014
:10446000D4CFB0E0A0E0E7E3F2E20C94673CC82FC1
:10447000D62FA895862F90E0FC01E55BFD4F549068
:10448000339624914C2F50E0FA01E55BFD4F1491D7
:104490003396049160916F0130914F01630F77273C
:1044A000771F672B09F067C0A89560911E01709176
:1044B0001F01660F771F660F771F7093310160939E
:1044C00030016091740170917501660F771F660F5E
:1044D000771F70932F0160932E013EEB30932C01D8
:1044E00030911801E1E9F1E0DF01480F591F9A2FDF
:1044F0009E1B931718F188E088B9286027B914B972
:1045000015B9B8E1BB2ED12CC12C8D2F0E94EB0721
:10451000782E692E8C2F0E94EF077C018C199D0943
:1045200097FF03C091958195910903970CF46BC196
:10453000A895BA946701B110E8CF0AC08D9115967D
:104540006C911597680F7727771F6417750779F6B1
:1045500080911E0190911F01909331018093300151
:10456000809174019091750190932F0180932E0199
:1045700089E180932C01CDB7DEB7E0E10C94833C58
:1045800025E8C21621E0D20618F7043AA2E01A077D
:1045900008F0B1C0B8E9AB16B104D0F2C6010E9470
:1045A0005308AC019601A8E9B7EB0E94BB3B9A0106
:1045B00050E040E00E94773B29013A01C5010E948A
:1045C00053089C01A8E9B7EB0E94BB3B950150E062
:1045D00040E00E94773B88E7C8168FE0D80608F0D5
:1045E0006EC0F2E0440C551C661C771CFA95D1F79E
:1045F000C301B201620F731F841F951F25E030E0D5
:1046000040E050E00E94773BA4E6B0E00E94D03B3F
:104610006B017C01BCEACB0EBDE0DB1EE11CF11C92
:1046200010911A01143008F093CFC150DC0F8D2F78
:1046300090E0FC01E65AFE4F2081880F991F880FF9
:10464000991F82559E4FDC01222309F4C1C08D9031
:104650009D90AD90BC90A7019601281939094A098F
:104660005B0957FF07C050954095309521953F4F06
:104670004F4F5F4FAAE0B0E00E94D03BB4E68B0EF4
:10468000911CA11CB11CC80CD91CEA1CFB1C6C158C
:104690007D058E059F0508F05BCF133019F081E092
:1046A00080931A0182E0808380917601E82FF0E008
:1046B000E35AFE4FD0838F5F8093760149CFA8E7FE
:1046C000AA16AFE0BA0670F4E2E0220F331F441FCF
:1046D000551FEA95D1F7CA01B901640D751D861DF4
:1046E000971D8CCF240D351D461D571D569547959A
:1046F0003795279589CFC0901B01D0901C01672D5D
:10470000762DE616F70608F4B701C7010E9458088F
:104710009601DC010E94BB3B2B013C01C7010E94BA
:1047200053089C0150E040E0C301B2010E94773B76
:1047300029013A01A0901401B0901501892D982DFE
:104740008017910708F4C801B8010E945808950124
:10475000DC010E94BB3B980150E040E00E94773BA7
:1047600088E7E8168FE0F806B0F462E0440C551CC8
:10477000661C771C6A95D1F7C301B201620F731FE3
:10478000841F951F25E030E040E050E00E94773B19
:1047900069017A0145CF0837AFE01A0770F4CA0102
:1047A000B90152E0660F771F881F991F5A95D1F7FC
:1047B000640D751D861D971DE5CF73016201C20E44
:1047C000D31EE41EF51EF694E794D794C79428CF21
:1047D000CD92DD92ED92FC92139781E08083B8CE6A
:1047E000550C54B88D2F0E94EB075C01B0ECEB1612
:1047F000B4E4FB0608F4C4CE80EBC8168DE4D806FA
:1048000008F0A6CEC2CE110F15B814B98C2F0E9495
:10481000EB078135910508F09BCE15B98C2F0E94CE
:10482000EB076C01802F886087B908B915B854B8B8
:10483000A8E14A2EB12CA12C8C2F0E94EB07982EB8
:10484000892E8D2F0E94EF078C018A199B0997FFF3
:1048500003C0919581959109039714F2A8954A9404
:1048600058014110E9CF74CECF93C82FC09595B1B0
:1048700060FF0FC0982B95B994B1982B94B90E9402
:10488000B70784B18C2384B985B18C2385B9CF91C6
:1048900008959C23F0CFB0E0A0E0E1E5F4E20C94B1
:1048A0006D3C1AE008E08FE3C82E99E0D92E07B9D5
:1048B00008B915B8C4B880E00E94EB077C0181E01C
:1048C0000E94EF07EC0182E00E94EF079C018091BB
:1048D0001A018930A1F488E087B914B8F092550123
:1048E000E0925401D0935701C0935601309359017F
:1048F00020935801CDB7DEB7EAE00C94893C84E000
:10490000E816F10448F4C430D10560F424303105D0
:1049100010F399E092600AC098E088EEE81683E010
:10492000F80608F499E0C83ED340A0F3283E33408F
:1049300008F4946097B9D0E0C0E0A89580E00E94A8
:10494000E4075C0181E00E94EF077C0182E00E94A5
:10495000EF0724E1A21625E0B20608F4389A24E114
:10496000E21625E0F20608F4399A843125E0920730
:1049700008F43A9A26E0A216B10430F426E0E216D2
:10498000F10410F4069738F02196C43F81E0D8076F
:10499000A1F6D0921A01F12CE12CEC16FD0621F4BF
:1049A000115009F084CFA6CF0E94A6072FEFE21A7C
:1049B000F20AF3CFCF92DF92EF92FF92CF93209142
:1049C0007B0130917C0140917D0150917E01C0912D
:1049D0008D018AE0C82ED12CE12CF12C8C2FCF5FD9
:1049E000213A96E8390791E049075105E0F48093B0
:1049F0008D01A0913001B09131010E94D03B28E897
:104A000033E140E050E00E94773B20937B013093FC
:104A10007C0140937D0150937E01CF91FF90EF90F8
:104A2000DF90CF900895CA01B901A70196010E94B5
:104A3000773BD4CF8F929F92AF92BF92EF92FF922B
:104A40000F931F93CF93DF93C82FF62E880F8C0FF1
:104A50009FEF960F890F80935101EC2FF0E0E55BFB
:104A6000FD4FD491862F90E0FC01E55BFD4F149142
:104A7000FC01E25BFD4F649180911A0120911801C5
:104A800041E951E0DA018130F9F4DF91CF911F91D2
:104A90000F91FF90EF90BF90AF909F908F900895EF
:104AA00016968C9116978F110EC08C918C130BC09B
:104AB000CD01880F991F81599140FC01848595850E
:104AC0008C3D954010F311968A2F841B821740F37A
:104AD000E62E6894E3F8109288011092870181EF26
:104AE00080938D0110927B0110927C0110927D01C8
:104AF00010927E01D0DE88E088B9E7B814B915B904
:104B00008C2F0E94EF078C018F2D0E94EF0714B8A5
:104B100010925301109252014C01801A910A809117
:104B2000520190915301843F914030F088E087B961
:104B300088B914B815B8A9CFD5B9D4B90E94A007BF
:104B400014B815B80E94A707A8958C2F0E94EF07EC
:104B50005C01A80CB91C80915201909153018E37D1
:104B6000910520F02BE4A216B10404F33DE2A31654
:104B700031E0B3060CF030C28091520190915301A4
:104B800001969093530180935201C9CFC501F5E17D
:104B9000AF16F5E0BF060CF440C17DDE15B88FE01E
:104BA00087B988E088B9BD2EBB0CB4B880E4809387
:104BB0007B0084E580BF8C2F806480937C0086E13D
:104BC00080937A000E94AA0710925301109252011A
:104BD00010928000109285001092840087E286BBBC
:104BE00081E280936F0081E080937801B5B8909165
:104BF0001A01953009F0D0C18093810081E090E0E6
:104C00000C2E01C0880F0A94EAF780958F7087B93F
:104C1000F89483B7817F83BF80917801882389F0DE
:104C200083B7816083BF7894889583B78E7F83BF75
:104C3000F894A89580915201909153018034964048
:104C400059F7789410928100A0908600B090870068
:104C500010926F0086E980937A0014B815B88C2FF3
:104C60000E94EF072091340130913501821B930B94
:104C70000C969093900180938F01809152019091B6
:104C800053018032934008F051CF809152019091AE
:104C900053019093860180938501B0928401A09284
:104CA000830184EF80938D01809152019091530193
:104CB00082349105C8F060918301709184018091E4
:104CC00085019091860124E630E040E050E00E94AA
:104CD000773B209383013093840140938501509367
:104CE000860186EF80938D01A0917901B0917A01C0
:104CF000209183013091840140918501509186017A
:104D00000E94D03B20E233E040E050E00E94773B3D
:104D10002093830130938401409385015093860151
:104D200020937B0130937C0140937D0150937E0161
:104D300041DE80918D01843F09F056C080907B0157
:104D400090907C01A0907D01B0907E01F0EA8F16DA
:104D5000FFE09F06A104B104C0F4A50194012C5406
:104D60003F4F4F4F5F4F60EA7FE080E090E00E944E
:104D7000773B820E931EA41EB51E80927B019092FB
:104D80007C01A0927D01B0927E0180907B01909089
:104D90007C01A0907D01B0907E018114910421E0FE
:104DA000A206B10408F0FCC09092BF018092BE013F
:104DB0008091510190E0855C9C4F0E94F83C90E00E
:104DC000B0E0A0E088159905AA05BB0508F0EFC082
:104DD000881A990AAA0ABB0A80927B0190927C01E8
:104DE000A0927D01B0927E01D4B980917B01909117
:104DF0007C01A0917D01B0917E014997A105B1058B
:104E000008F082C093CE0E94A1078C2F0E94EF076A
:104E1000880D991DA8950F5F1F4F20915201309169
:104E200053012017310778F74501881A990A181499
:104E300019040CF0AEC029EC821691040CF076CE69
:104E400028EE33E0D4010E94CA3B95010B2C000CE4
:104E5000440B550B0E94773B890180915201909140
:104E600053010196B0E0A0E0809383019093840108
:104E7000A0938501B0938601C501880D991D0E94FC
:104E8000B4082091830130918401409185015091B3
:104E90008601DC010E94D03B609383017093840102
:104EA000809385019093860160937B0170937C01D0
:104EB00080937D0190937E0187EF80938D017ADD51
:104EC00080907B0190907C01A0907D01B0907E014C
:104ED0008EE193E00E94F83CA8EEB3E0A81BB10974
:104EE00087FDB395A50194010E94DA3B24E630E0EA
:104EF00040E050E00E94773B20937B0130937C019F
:104F000040937D0150937E0180911801882329F000
:104F100080911A01853009F009CE88E080931A014A
:104F200080918D0190918E019817C4F08913FECD68
:104F300080907B0190907C01A0907D01B0907E01DB
:104F400040917F01509180016091810170918201B7
:104F5000481559056A057B0508F0E8CD40917B01AD
:104F600050917C0160917D0170917E0140937F01A1
:104F700050938001609381017093820180938E0130
:104F800010938A0100938901F0928B01C0938C01E8
:104F9000CDCD10E000E061CF80938100E7B838CE3E
:104FA00081E090E09093BF018093BE0101CF34E196
:104FB000830E911CA11CB11C88169906AA06BB067B
:104FC00010F40E945C1410927B0110927C011092EC
:104FD0007D0110927E0108CF009152011091530182
:104FE0000115110509F4D2CDC50110E000E015CF7F
:104FF0001F921FB61F9211248F939F93B59904C0DF
:1050000080917801811109C0B59B10C08091860004
:10501000909187008A3F910548F4809152019091C8
:105020005301019690935301809352019F918F9168
:105030001F901FBE1F9018951F921FB61F9211241C
:105040008F939F9310927801B09B10C0809186003F
:10505000909187008A3F910548F480915201909188
:105060005301019690935301809352019F918F9128
:105070001F901FBE1F901895B0E0A0E0E2E4F8E298
:105080000C946B3C88E893E190931F0180931E0180
:1050900090933101809330018EEB80932C01C8E016
:1050A000C8B988E187B90E94AF07C7B984E00E94F8
:1050B000EB07AC018B5C9840833F9140A0F481E00A
:1050C00080933B012091300130913101AFEBB9E089
:1050D0000E94BB3B9A0150E040E00E94773B309336
:1050E0001F0120931E0180911E0190911F0190933A
:1050F0003101809330018EE00E94EF078EE00E9424
:10510000EB0790933501809334010E946108C3DB63
:1051100088E0F82EF8B8C9E0C7B985E185B9D1E0D3
:10512000D4B980E00E94EB078C019AE0D92ED7B861
:1051300024E0B22EB4B881E00E94EB07080F191FDB
:105140003CE0E32EE7B840E1C42EC4B882E00E9400
:10515000EB07080F191F15B8C8B9C7B9D4B980E053
:105160000E94EB070E945308EC01D8B8D7B8B4B836
:1051700081E00E94EB070E945308C80FD91FE8B8CE
:10518000E7B8C4B882E00E94EB070E945308C80F3A
:10519000D91FF7B8F8B814B8809130019091310157
:1051A0006C01CC0CDD1CC80ED91EC8018C0F9D1FD4
:1051B000C81AD90AF12CE12C9801A0E9BAE10E94A1
:1051C000BB3BA70196010E94773B49015A013093EE
:1051D0003A01209339019E01A0E9BAE10E94BB3B4C
:1051E000A70196010E94773B30933301209332014F
:1051F0002057354E30931C0120931B0180E7881AFD
:1052000085EE980A909215018092140189E18093AD
:105210002C01CDB7DEB7ECE00C94873CCF92DF9247
:10522000EF92FF920F93CF93DF93F82EC62FD42FD8
:105230000E94C50C88E091E00E94D30CFFD16C2F36
:105240008F2D0E946839C090C201D090C301E090B8
:10525000C401F090C5018091200187FD05C0C114F3
:10526000D104E104F10421F084E091E00E94D30C28
:105270008C2F0E94C50CC114D104E104F10431F05B
:105280000E94970680915D010E94FB06DD2309F4D0
:1052900059C080913C018D3008F054C08650990B64
:1052A0008B5B9C4F0E94D30C80E00E947C0BCD282E
:1052B000CE28CF2809F449C06091C2017091C30182
:1052C0008091C4019091C50103E028E447EF0E945A
:1052D000180D87E191E00E94D30C80E593E00E94D5
:1052E000003D23E046E464EF0E94F80D8091BA018E
:1052F0009091BB01A091BC01B091BD01892B8A2B7B
:105300008B2BF1F180E00E947C0B6091BA017091CF
:10531000BB018091BC019091BD0104E028E440E014
:105320000E94180D82E191E00E94D30C23E040E23C
:105330006FEF8091C0019091C1010E94F80D0E9411
:105340005B0B25C00E945B0BAFCF80915D010E947B
:10535000FB06809120018E3F4CF68FE291E00E9487
:10536000D30C6091A9017091AA018091AB01909139
:10537000AC0103E028E4409120010E94180DB6CF53
:1053800080E00E94610B80913F018823C1F2DF9190
:10539000CF910F91FF90EF90DF90CF900895EF9213
:1053A000FF920F931F93CF93DF93182F0E94F00A61
:1053B00080918B010E94C50C8BE491E00E94D30C7C
:1053C00080D360918B0180918C010E941709EC01C0
:1053D0009093880180938701E0908901F0908A0181
:1053E000CA3F8FEFD80720F489E091E00E94D30CE8
:1053F00080918C010E94C50C112309F445C0909145
:105400003C018DE0891B0E94BC0A89E690E00E9465
:10541000D30C0E94430B60917F01709180018091B9
:1054200081019091820104E026E440918E010E9466
:10543000180DCA3FDF4F68F48AE391E00E94D30C55
:1054400022E04DE16EEF80918701909188010E94EA
:10545000F80D0E945B0B0E944B0BE114F10469F004
:1054600083E391E00E94D30C22E045E26FEF80914C
:10547000890190918A010E94F80D0E945B0BCDB7C3
:10548000DEB7E6E00C948D3C0E945B0BC2CF8F70C0
:1054900021F40E94530B0C94891A08958F3021F443
:1054A00090913601913011F08F5F089580E008955A
:1054B000CF9384E790E0D3D76AE080E00E94C50AEA
:1054C00089E493E00E94D30CC0E00E942F1060E0BA
:1054D00082E00E94312262E080E00E9431220E943C
:1054E000F00A809176018823C9F041E062E080E013
:1054F00095DE8C2FCCDF88EE93E00E94770F811130
:1055000009C080911301843028F48C2FC7DFC82F85
:105510008A3FD8F20E94F70ACF91089584E790E07D
:105520000E94D30C89E493E00E94D30C0E94430BA9
:105530008FE30E94550C80E00E94610B0E945B0B80
:10554000D8CF0F931F93CF93DF93C0E0D8E012EF33
:105550000DE00E942F1060E082E06CDAD0931A0117
:1055600080918D01843FE1F480917B0190917C01D9
:10557000A0917D01B0917E0184369105A105B10510
:1055800078F440E060E082E00E94023760937B01A3
:1055900070937C0180937D0190937E0110938D0127
:1055A00080918D01823F6CF180938E0180917B010F
:1055B00090917C01A0917D01B0917E0180937F014B
:1055C00090938001A0938101B093820181E0E7DE96
:1055D0008C2F5DDF88EE93E00E94770F81110AC067
:1055E00080911301843030F48C2F58DFC82F8A3F0C
:1055F00008F4AFCF0E94F70ADF91CF911F910F916E
:1056000008950E94F00A8DE690E00E94D30C8091EC
:105610003C01902F981B892F0E94BC0A89E690E0DC
:105620000E94D30C0E94430B8FE30E94550C0E94F2
:105630005B0B0E944B0B0E945B0BCACFA6E1B0E054
:10564000E4E2FBE20C94653C82E0809320018091CF
:105650001A01813009F0DDC180917601813009F0B5
:10566000D8C140905D0124E0429EF0011124E25532
:10567000FE4F80819181A281B381893032E5930709
:10568000A105B10508F0C5C11C01712C81E0871589
:1056900008F4C3C1842D0E94F106982E892EE92FAB
:1056A000F0E0E25BFD4F549090E0FC01E55BFD4FC4
:1056B000E49115B828E028B9372D3170632E20EF1A
:1056C0002216310408F0B0C13111AEC100911401AD
:1056D0001091150100591A4121E030E002C0220F5B
:1056E000331F8A95E2F7C9018529886087B934E1BB
:1056F000398B892D0E94E8075C01882D0E94EF07F5
:1057000024E0A216B10410F4049728F0398931502E
:10571000398B3111EECF80E480937B0094E590BF0C
:10572000892D806480937C0026E120937A00F12CFF
:10573000E12C10928000109285001092840087E284
:1057400086BB0E94AA07872D90E09A8B898B6110F7
:1057500074C181E88093810058B886B385FF76C113
:1057600028E028B91092810030E236BB20918600F3
:105770003091870069014091840050918500241781
:10578000350708F471C186E980937A00B4E15B2E95
:10579000892D0E94E8075C01882D0E94EF0724E014
:1057A000A216B10410F4049718F05A945110F0CFD7
:1057B0008090390190903A01820C931C800E911ECA
:1057C000209116013091170100398AE1180708F07D
:1057D00053C169E191EEC916D104E104F10430F43A
:1057E000C60165E070E00E94503B645128523109C7
:1057F000261B310967FD339566E0862F90E0B0E007
:10580000A0E08C159D05AE05BF0508F03EC1C81A85
:10581000D90AEA0AFB0A662029F082E2C80ED11CE6
:10582000E11CF11C90E5E916F10418F0C12CD12C13
:1058300076018BE0C816D104E104F10428F091E070
:10584000C91AD108E108F108B12CA12CA8EEB3E0E7
:105850000E94BB3B6B8B7C8B8D8B9E8BA091300110
:10586000B091310198010E94BB3BA50194010E94B7
:10587000773B442755276B897C898D899E890E94B7
:10588000773BC9010E94F308FC01A5019401C701FF
:10589000B6010E94353B4B015C01BF0190E080E006
:1058A000E3E0660F771F881F991FEA95D1F76B5FBA
:1058B0007F4F8F4F9F4F2AE030E040E050E00E9442
:1058C000773BC501B4010E94773BE989FA89EE0F65
:1058D000FF1FEE0FFF1F81E090E08C0F9D1FE80F70
:1058E000F91F2083318342835383611018C09CE0E9
:1058F000C916D104E104F10490F07394E989FA899E
:105900003196EE0FFF1FEE0FFF1F81E090E08C0F2E
:105910009D1FE80FF91F2083318342835383A8958D
:10592000739493E0971508F0B1CE88E088B984E0CD
:105930000E94B80791E00D811E812F813885498131
:105940005A816B817C81401751076207730708F009
:1059500090E00D851E852F85388949855A856B8590
:105960007C8583E0401751076207730708F082E0E7
:1059700024E0829FD001112421E030E02C0F3D1F54
:10598000A20FB31FE92FF0E0EE0FFF1FEE0FFF1F76
:10599000E20FF31F0D911D912D913C91408151819A
:1059A00062817381041715072607370708F0892FCE
:1059B00034E0839FF001112421E030E02C0F3D1FE3
:1059C000E20FF31F40815181628173814093A901ED
:1059D0005093AA016093AB017093AC0180FD59C054
:1059E00030EF2316310408F054C08BEF8093200170
:1059F0008091A9019091AA01A091AB01B091AC0155
:105A0000892B8A2B8B2B11F41092200188E087B907
:105A100014B86696E2E10C94813C842D0E94F10654
:105A200098278927982739CEE4B9852D886087B9CA
:105A300000911401109115015ACE58B80E94B30775
:105A400090E296BB81E88093810087CE80FF85CE6F
:105A500091E096BBA89597012F5F3F4F79012035C4
:105A6000310509F07ACE7CCE80FF8DCE21E026BBB9
:105A70003FEFE31AF30A87CEC40160EB76E30E949E
:105A8000503B695F285D3F4FB8CEC12CD12C7601C9
:105A9000C2CE8CEF80932001CB01BA016B5F7F4FA8
:105AA0008F4F9F4F2AE030E040E050E00E94773B6C
:105AB0002093A9013093AA014093AB015093AC010C
:105AC00097CFB0E0A0E0E7E6FDE20C94673C0091E0
:105AD000890110918A010115110509F092C0E09128
