:10000000E2C20000F2C20000F0C20000EEC2000036
:10001000ECC200000C94AA2DE8C20000E6C2000069
:10002000E4C20000E2C20000E0C200000C94992D7E
:100030000C949E2DDAC20000D8C20000D6C2000087
:100040000C94782DD2C20000D0C20000CEC20000B5
:10005000CCC200000C943409C8C20000C6C2000023
:10006000C4C20000C2C20000E62FF72F903009F48E
:100070009395E5B8C4B8B7EFB0937A00A5E0A09324
:100080007B00A8E0A093810010928000AFEFA093C6
:100090008500A0938400A6E0A093360010928B0008
:1000A00010928A00B6E0AFE7A91B51E0392F363035
:1000B0002AF0A058B94F53953650F9CFB093890024
:1000C000A0938800A0917A00A4FFFCCFB7EBB09377
:1000D0007A00A2E0A0936F00A9E0A093810062E003
:1000E000A0E0A0937B00A1E0A09353008895E5B821
:1000F000C4B884FF19C0A3E4AA95F1F7EF93FF9366
:10010000E7B1F8B1A4E0C2FCA2E0C0FCA1E0BF2FBF
:10011000BA2BAE2BB8B904B9A7B9E7B9F8B9FF91B2
:10012000EF910AC00C947300A7E40000AA95F1F7C0
:1001300025B9E5B8000004B9A0918400A09185001C
:10014000B0918900A395AB1768F7A0917A00A4FF3E
:10015000F3CFB7EBB0937A006A9571F760917800AE
:1001600070917900308186FD630F6193308186FD47
:10017000731F80FF7193652F4A9579F710926F0076
:1001800010928100B7E0B0937A00089549647373C8
:100190003D00206574613D00554A5400505554009F
:1001A000312D032D3320342D33306E46284C290059
:1001B0005245465F523D005245465F433D00203E5A
:1001C0003130306E460066706EE46D006B4D010498
:1001D00010090A0C5244533D005B435D00312D036E
:1001E0002D332000312D04052D77772D332000434A
:1001F0002B455352405450313A3300433073616DB4
:100200007020004330200052695F4C6F3D005269FE
:100210005F48693D0052303D0052482F524C002B40
:1002200052482D203132203133203233002B524CB2
:100230002D2031322031332032330052482B0052EE
:10024000482D005248663D005265663D00494345D1
:10025000733D00494345303D0056657273696F6ECA
:1002600020312E31336B002D77772D002D04052D95
:10027000002A012020007A20513D002069662000DC
:100280002040302D3556002D022D002D012D004E21
:100290006F742063616C69627261746564212046C9
:1002A0006F72FF63616C6962726174696F6E206363
:1002B0006C616D70207468652033FF70696E732007
:1002C000746F67657468657220616E642073746111
:1002D0007274207769746820746865FF6B65792E85
:1002E0002041636B6E6F776C656467652074686529
:1002F0002073656C662D746573742077697468204B
:10030000746865206B65792077697468696EFF325F
:10031000732E20446973636F6E6E65637420706919
:100320006E7320616674657220746865FF6D657315
:1003300073616765202269736F6C617465FF507229
:100340006F626521222069732073686F776E2E209B
:10035000536F66747761726520616E6420646F63A9
:10036000756D656E746174696F6E20697320617458
:10037000206769746875622E636F6D2FFE6B7562FE
:100380006934380049723D004C3D0020566C6F7353
:10039000733D00204553523D005643433D004365A5
:1003A0006C6C21002D032D004056673D00205674D3
:1003B0003D0055663D005562653D00203132333DBC
:1003C00000504E50004E504E0043673D0068464579
:1003D0003D002D49474254004A464554002D4D4F9B
:1003E00053004F4B00462D5363616C65720046729B
:1003F000657175656E63790073686F7274205072F1
:100400006F626573210053656C6674657374004395
:1004100028E44629636F7272656374696F6E0031F8
:10042000302D6269742050574D00662D47656E650A
:100430007261746F720053686F7720646174610039
:100440005472616E736973746F720053656C656387
:1004500074696F6E3A005465737420456E64006968
:10046000736F6C6174652050726F62657321005305
:10047000656C6674657374206D6F64652E2E005410
:10048000696D656F757421002064657465637465BA
:1004900064004E6F2C20756E6B6E6F776E2C206F24
:1004A000720020756E6B6E6F776E0054687972699A
:1004B00073742E0054726961630070617274006419
:1004C000616D61676564200054657374696E672EA1
:1004D00000B903870358032E030703E402C302A4F1
:1004E0000288020000140029003E005300690080C9
:1004F000009700AE00C600DF00F80012012D014990
:100500000165018201A001BE01DE01FF012102445B
:100510000268028E02B502DE020903350364039409
:1005200003C803FE0337047304B404F904430593BA
:1005300005EA054906B3062907AE074808FF08DEA5
:1005400009FD0A930C480F991B705780508D4A661D
:1005500045E340E83C5E3933365A33C6306D2E49A8
:100560002C532A8428DA264E25DF2389224A21208B
:1005700020081F011E091D201C431B731AAD19F111
:10058000183F189517F4165A16C6153A15B31432B3
:1005900014B7134013CE126112F81193113111D315
:1005A0001078102020202020202020202020202013
:1005B000202020202020202020202020202020203B
:1005C000205B524C5D0011241FBECFEFD8E0DEBF90
:1005D000CDBF21E0A0E0B1E001C01D92A73BB20772
:1005E000E1F70E94A40D0C94ED360ACD97FF09C0E7
:1005F0008F939F938DE2D0D39F918F91909581950A
:100600009F4F67E171E04AE050E00E948C3645C49C
:10061000EDDF01C0EBDF80E2BFC38DE2BDC38DE340
:10062000BBC3EF92FF920F931F93182F062FF42E48
:100630008BEB93E034D4EE24E0913201F09133015E
:100640008685E81611F4812F09C08485E81611F417
:10065000802F04C08585E81611F48F2D9DD3E39477
:100660008E2D833049F71F910F91FF90EF900895E1
:10067000682F80E092E0662309F491E0623009F48B
:1006800081E008950F93082FEFE9F1E0880F880FBC
:10069000E80FF11D6081718182819381643671055B
:1006A0008105910568F42091150127FD09C0802F6F
:1006B000DFDF692FB1D16EEF23E044EF37D504C0FF
:1006C0004FEF04E024EF4ED4A6DF0F91089586305B
:1006D00058F4EEE8F1E0E80FF11DE80FF11D80811C
:1006E000918163E02ED597CF08951F93182F8091A5
:1006F0006901882319F08FDF80E04ED391D382EB1C
:1007000093E0CDD3812F82958F70E1DF812F8F70A1
:10071000DEDF1F9108958091020182958F7018D0BD
:100720008091020183701AD080910201DECFE2E84D
:10073000F1E0E80FF11D0895CF93F9DF9081C681B4
:10074000C91710F405D001C012D065DFCF9108950C
:10075000EEDF8F93808156D38F9100C08F938BE80B
:1007600092E09DD38F91E3DF86814CC30895DFDF54
:100770008F93868147D38F9100C08F9387E892E053
:100780008ED38F91D4DF80813DC308959091C000B6
:1007900095FFFCCF8093C600089503D002D001D00E
:1007A00000D000D003D002D001D000D000D003D0C0
:1007B00002D001D000D000D0A89503D002D001D043
:1007C00000D000D003D002D001D000D000D003D0A0
:1007D00002D001D000D000D003D002D001D000D090
:1007E00000D000000895E7DFE7DFE6DF1F93182F52
:1007F000106410937C00E12FE07880912201E817CB
:1008000051F0E0932201D7DF87ED80937A00809149
:100810007A0086FDFCCF20E030E0A901E0E01EC0B8
:1008200087ED80937A0080917A0086FDFCCF6091FD
:10083000780070917900260F371F411D511DE4305B
:1008400061F480912401803041F084E02030380749
:1008500020F417FD02C01068CCCFEF5F809121011A
:10086000E817F0F2609125017091260117FF04C08E
:10087000609123017091240180E090E00E94023594
:100880002FEF33E040E050E00E944435B901CA0147
:100890002091210130E040E050E00E944435C90140
:1008A0001F9108959B01281B390B50F0C901089531
:1008B000BC0180912501909126016817790718F4F1
:1008C000861B970B089580E090E0089589E290E000
:1008D0000E94C7362091290130912A01280F391F23
:1008E00020930B0130930C0183E0283E380720F061
:1008F000C901885E934002C080E090E062E370E04E
:100900000E941D35683008F067E0E1EDF4E0E60F85
:10091000F11DE60FF11D459155912591359162E349
:10092000681B421B530B649FC001659F900D1124EF
:10093000499662E370E00E941D35620F731F709349
:100940006B0160936A018BE290E00E94BF369927A9
:1009500087FD90956091290170912A01860F971F5C
:100960009093240180932301909368018093670101
:1009700008950F9221E08C32920710F48CE291E0FE
:100980008C52914069E170E00E941D3599E16B3213
:1009900010F0982F6BE2981BE9E4F5E0E60FF11DEB
:1009A000E60FF11D4591559125913591692F421B17
:1009B000530B649FC001659F900D11240C9669E153
:1009C00070E00E941D35620F731FCB010F900895D8
:1009D000CF93DF9324E130E0B9010E941D35DC01A3
:1009E000E3EEF4E0E60FF71FE60FF71FC591D59190
:1009F000459155914C1B5D0B4A9FC0014B9F900D3B
:100A00005A9F900D1124B9010E941D356C0F7D1F56
:100A1000CB01DF91CF910895AEE1B0E0E2E1F5E0E6
:100A20000C942C36662EB82E860F898320910F01E8
:100A3000283059F520917001309171014091720177
:100A40005091730157FD15C010917F0109C0CA0173
:100A5000B9012AE0312D412D512D0E9444351F5FEF
:100A6000173FACF391F4243160E03607410551059E
:100A700018F48FEF9FEF40C1173F39F480E028173B
:100A80008DE738074105410510F020E03DE72C8B4C
:100A90003D8B27EDA22EE1EDF1E0E60DF11D8591F4
:100AA00088608E87E1EDF1E0EB0DF11D85918860A6
:100AB0008F87EEECF1E0E60DF11D7590EEECF1E0C4
:100AC000EB0DF11DC59090EC692AB92A81E0E82E62
:100AD000F12C012D112D8E831F82188619861A86FE
:100AE0001B861C861D86188E198E1B8E1A8E0E94E0
:100AF000F11E88E088B960927C005DDE3F8537B9E1
:100B000075B874B855E05A95F1F7000014B815B8E7
:100B1000DD243E8537B975B874B860927C00A8951D
:100B2000A0927A0080917A0086FDFCCF2090780018
:100B300030907900B0927C004C2DE2D0209178006A
:100B400030917900288B398B3F8537B9C5B8C4B847
:100B5000A895B0927C00A0927A0080917A0086FDE0
:100B6000FCCF609178007091790060927C00472DF5
:100B7000C7D0409178005091790014B8CB01820D14
:100B8000931DE80EF91E011D111DEA82FB820C83E4
:100B90001D8388899989840F951F2E813F816885DF
:100BA0007985280F391F611D711D2E833F8368874A
:100BB000798722E32417150648F075B874B810DE5B
:100BC00014B815B8888D8395888F07C0483E73E0A8
:100BD000570718F08A8D83958A8F888999892817F5
:100BE000190658F03E8537B9C5B8C4B8F9DD14B850
:100BF00015B8898D8395898F07C0883E73E0970764
:100C000018F08B8D83958B8FD3945D2D5F3F49F0CA
:100C10005F3731F45C2D550FC50E572D550F750EEE
:100C200078CF40902E0150902F01440C551C92011A
:100C3000E4E0240D351DEA95E1F72901570168012B
:100C40006E807F808884998420910F012830C1F4C0
:100C50006C897D89812D912D655070408040904038
:100C60009B01AC010E9402359B01AC0160E779E772
:100C700086E190E00E944435621A730A840A950A5C
:100C8000A614B704C804D90428F46A187B088C0891
:100C90009D0803C0662477244301B20180E090E000
:100CA0009301A4010E9402359501A6010E944435DA
:100CB00080E090E07981870F911D0E94BF36682EF9
:100CC000C90160E170E00E941D35260F371FC90180
:100CD0006816190618F4861991090EC08C5E9F4F8C
:100CE0008615910538F48C899D89843981E19807AE
:100CF00008F0D1D6812D912D6E96E2E10C94483604
:100D0000109281001092800010926F0010928B0060
:100D100010928A0057E056BB5FEF509385005093C6
:100D2000840055E050937B0057EB50937A0051E0DC
:100D3000509381005FE45A95F1F70000000045B937
:100D400044B95BE05A95F1F714B815B810928100D8
:100D500080917A0084FFFCCF80937A000895CF932E
:100D6000DF93EC018991811103C0DF91CF91089548
:100D70000DDDF8CFCF93C82F1C1614F0CF91089536
:100D80004ADCC150F9CF80913101809300018091FC
:100D90009E01809301010895909131019F5F90938E
:100DA0003101863048F48430F8F4823089F0D0F490
:100DB000813051F0EBCC0895843EC1F0843FC1F006
:100DC0008D32C1F78DE2F6CF8EE3E0DC8CE703C015
:100DD0008CE7DCDC8CE3DADC809131018F5F80937F
:100DE000310108958CE7F1CF82E5E4CF85E7E2CFCA
:100DF0008FE4CCDC88E6CADC8DE6C8DC809131016A
:100E00008E5FEDCF8F5CC8CF08958DE0BFDC8AE0A8
:100E1000BDCC089510929E0110923101F6CF089535
:100E200081E080939E0110923101EFCF089582E01E
:100E300080939E0110923101E8CF089583E0809362
:100E40009E0110923101E1CF089580939E0160933D
:100E50003101611101C0D9CF0895609100018091E5
:100E60000101F3CF0895089582E08093C0001092AD
:100E7000C50080E18093C4008EE08093C20088E1C9
:100E80008093C1000895CF93C0DFC8E280E27EDC8A
:100E9000C150E1F7BFDFCF91089561CF0895CF939F
:100EA000DF93EC01FE018491982F9F7719F074DF96
:100EB0002196F8CFDF91CF9108959091310188E28A
:100EC000891B58CF0895CF93C82FF7DF80919E01DB
:100ED0008F5F80939E01803158F08FE080939E0158
:100EE00081E080933401C09331018FDFCF91089569
:100EF00010923401F8CFE7DF6FC108958BDFDDDF9B
:100F000089CF08958DDFD9DF8BCF08950F9389ECBA
:100F100093E0C5DF40917E014D3F6CF460916C0120
:100F200070916D0180916E0190916F0103E026E454
:100F300019D00F9108958FE32FDFFBCF90910E0111
:100F40009F70923071F4D7DF84ED91E0A8DFE091DB
:100F50003201F091330122E044EF6FEF84819581FB
:100F6000E5C00895AEE0B0E0E8EBF7E00C942E3673
:100F7000842E922EA02E6B017C01802F8F70B82EB4
:100F800080E389838A838B838C838D838E83F7FEB2
:100F900040C043DBF094E094D094C094C11CD11CB9
:100FA000E11CF11C93E068EE462E63E0562E612CA6
:100FB000712CB91609F441C084E050E1452E57E286
:100FC000552E612C712CB816C1F195E040EA442EE3
:100FD00046E8542E66246394712CB91671F186E0AC
:100FE00030E4432E32E4532E3FE0632E712CB816CA
:100FF00021F197E074E6472E512C612C712CB91227
:101000001CC020E8422E26E9522E28E9622E712CBF
:1010100014C005FFC7CF8BE2BFDEC4CFC701B60146
:101020006B5F7F4F8F4F9F4F2AE030E040E050E0F2
:101030000E94443569017A018394C414D504E604FE
:10104000F70460F7E1E1E80D0BEAE09FE12D1124E0
:101050001E2F169586E08819809F012D1124069574
:10106000902F990F090F801B082F3E0187E0680E13
:10107000711C2AE0A301C701B6010E946B36F3017F
:1010800001900020E9F731977F01E618F7082E2D2F
:10109000802F90E004968E159F0514F41F5F0D5F5E
:1010A000E12FF0E0EA53FE4F14918A2D8071A4FEE7
:1010B00005C08B2D8E192B1508F080E0AE2CA01AE0
:1010C000A80E1A1424F08EE267DE802F8E1901110B
:1010D00002C098EFA92E00E0C82ED12CEC0CFD1C0C
:1010E0000A2C000CBB08E02FF0E0EE15FF0564F0C1
:1010F000112311F0812F50DE992011F0892D4CDE43
:101100002E96E0E10C944A363696EC19FD0981E002
:1011100090E08C0F9D1FE80FF91F80813DDE0F5F6F
:101120000A151B0401F78EE237DEDDCF0F93362F51
:10113000BC0190E080E0022F242F432F13DF0F919A
:1011400008950F93062FBC0190E080E026E54DEF57
:1011500009DF0F9108950F93042F28E440E002DF88
:101160008AE71ADE58DA0F910895EF92FF920F93F3
:101170001F93CF93DF93F82EE92EC5E64F9B1BC03C
:10118000CF2DDE2D15E500E0D7FD0FC014DB110FCC
:101190004F9B1F5F1F731F3391F4011103C0CF2DAD
:1011A000DE2D04E00F5F083C70F0802FCDB7DEB776
:1011B000E6E00C94543600DBC15001F7E1CF111189
:1011C00002C00111F2CFA8951C161D06ECF62A9755
:1011D000D9F6CFEFDFEFD8CFCF93D5DDC82F8091F1
:1011E00034018823D1F0813051F4CF3041F467E2EB
:1011F0008FE02BDE8BE2D0DD67E28FE026DE80E43D
:101200009FE1B3DFCF3041F480913401813021F48C
:1012100060E08FE01ADE51DE20DECF91089540912C
:101220000D01A0913201B0913301E2E8F1E030E02C
:1012300020E0822F2417B0F451911C969C911C97AA
:10124000591719F05581951303C02F5F3F4FF1CF08
:10125000220F331FF901E257FE4F20813181293ED1
:10126000334008F084E10895189510920F01109210
:101270000D01109262011092440110920E01109221
:10128000300110926901EDE4F1E0108211821282C6
:10129000ECE6F1E0108A82E0818B1092150117864E
:1012A0001686148215821682178281EF838B089529
:1012B0008FE46CDA86E46ADA86E468DAA6DD5E98A2
:1012C0006FDA90E080E051CF08951F93CF93DF93C2
:1012D000162F98E097B998B9E82FF0E0E253FE4F47
:1012E000949195B9262F281BE20FF11D27FDFA9541
:1012F000E491E92BE4B97ADAEC01812F77DAAC01D9
:10130000209125013091260136952795C901039733
:10131000BE01625E7F4F8617970778F4255E3F4FC8
:10132000C217D30750F4BA01625E7F4F8617970742
:1013300020F481E04217530708F080E014B8DF91F1
:10134000CF911F910895CF9361E080E0BEDFC82F59
:1013500062E080E0BADFC80F62E081E0B6DF8C0FA8
:10136000CF910895AFE0B0E0E8EBF9E00C942C36B3
:10137000B82E10920F01807FB9F4E5DF833081F43D
:1013800082DD8FE694E08BDD4BDD8FE305DD80EDC4
:1013900097E0EBDE8B30B0F476DD89E592E07FDD1F
:1013A0002F96E2E10C94483606E910E06CDD88EFF8
:1013B00093E075DDC8DF833009F065C01F5F14302E
:1013C00008F462C02DDD0E94672285E192E067DDAE
:1013D00060E082E090E00E94CC3660E083E090E044
:1013E0000E94CC3660E081E090E00E94CC3660E064
:1013F00082E012DB6C019A83898361E082E00CDB7E
:101400007C019C838B8360E081E006DB8C019E8302
:101410008D8323E040E26EEFC60188DE23E040E2E8
:101420006EEFC70183DE23E044EF6EEFC8017EDE7E
:101430002AE5C216D10424F084E190E09A838983DE
:10144000698182E090E00E94CC368AE5E816F104DA
:1014500024F084E190E09C838B836B8183E090E0B7
:101460000E94CC360A35110524F084E190E09E8379
:101470008D836D8181E090E00E94CC3682E0809384
:101480003401AADE05C010E090D9015009F08ECFDA
:10149000EB2DEF70EF87E13009F04CC0EE24E394C0
:1014A000F12C68EB862E62ED962E67E4A62EB12C09
:1014B00072E0D72E08E0E0E23E2EC12C1E2D42E263
:1014C000242E20DD1BDD84E567DCC7019AD8A3D874
:1014D000113009F0BAC188E492E0E1DC64E0809167
:1014E000290190912A012DDE9BDC83E492E0D7DC78
:1014F00080916A0190916B0184D88EEB80932101D9
:1015000007B908B914B815B888EE93E02EDE143088
:1015100011F08B3020F4C39484E0C812D2CF88EE4F
:1015200093E023DEEFEFEE1AFE0AF8E0EF16F10487
:1015300009F0C3CF18E707DF811179C2A4DC8EE080
:1015400092E0ADDC23E044EF6FEF809127019091B2
:101550002801ECDD65DC87E092E0A1DC23E044EFCC
:101560006FEF80912E0190912F01E0DD82E080935A
:10157000340132DE10920F0186DC83E092E08FDCD2
:1015800060E082E00E94C01F40907401509075019D
:1015900060907601709077015C864B8661E082E016
:1015A0000E94C01F8090740190907501A0907601F8
:1015B000B09077019E868D8660E081E00E94C01F1A
:1015C00000917401109175011E830D8362E080E02B
:1015D0000E94C01F80917401909175019C838B8340
:1015E00062E081E00E94C01F8091740190917501BA
:1015F0009A87898761E080E00E94C01FE0907401B3
:10160000F0907501FA82E982C20104D8C40102D8BF
:10161000B801110F880B990B03E026E444EFA2DC1C
:101620002F85213009F00DC282E0E80EF11CF8860A
:10163000EF828E010F5F1F4F6E01EFE0CE0ED11CC7
:10164000F801819191910A97853B9105C8F4EC15B9
:10165000FD05B9F732E2E32E30E0F32EF8016081A8
:101660000E5F1F4F6E5EC7010E94CC36FFEFEF1A70
:10167000FF0A0C151D0591F7D3DB82EE93E00FDC1A
:1016800082E080933401A8DD0E94AB312F852130A8
:1016900029F080912D01823009F0C2C0F4DB80E096
:1016A000B1DB84EA93E0FBDB82E0ACDB8EEB91E024
:1016B000F6DB90E4F92E10E02AE0822E912CA12C8A
:1016C000B12CD3DD10920F0160E082E00E94C01FB8
:1016D00000917E0120916C0130916D0140916E016D
:1016E00050916F01073F0CF4B8C100937E01209325
:1016F0006C0130936D0140936E0150936F01073F71
:1017000009F0B3C120563109410951092039354545
:101710004105510508F0A9C16091800170918101D6
:10172000CB018B569F4F8B32914008F09EC11F5FBB
:10173000153008F49BC189E290E00E94DA36A3DB01
:1017400087EB91E0ACDB80918001909181010E9458
:10175000F602BCD888E088B989E087B980E284B90C
:1017600082E044D8853D9340DCF714B81092240100
:101770001092230182E03AD87C0180916701909118
:101780006801909324018093230182E02FD86C019B
:10179000CC0CDD1C109224011092230182E026D88B
:1017A0004C01A0906701B0906801B0922401A09212
:1017B000230136DB80EB91E072DB8BE290E00E944C
:1017C000BF36182FD701A80DB91DAC19BD09950159
:1017D0000E94913596010D2C000C440B550B0E9474
:1017E00066351D5F120F612F8BE290E00E94CC36B0
:1017F000812F012E000C990B0E94F60267D882E01F
:1018000080933401E9DC10922D018CE02CDB82E224
:1018100090E00E94BF36682F85E290E00E94CC36AF
:1018200089E18093210180E00E94BE342CDB89E5B0
:1018300092E035DBF5DA86E594E031DB10920F01BA
:1018400082E080933401C8DCABCD123091F5209159
:10185000250130912601A8E5BBE10E94823524ECE8
:1018600036E340E050E00E946635290181E085B909
:10187000F5E0F4B980E00E94F303841995099A8396
:10188000898381E184B980E00E94F303841995097A
:101890009C838B8384E085B984E184B981E00E94D4
:1018A000F303841995099E838D838DE292E0F7DA24
:1018B00037C0133059F5D5B82AE024B980E00E942A
:1018C000F30320912501309126013695279538871D
:1018D0002F83821B930B9A83898324B880E00E9414
:1018E000F3032F813885821B930B9C838B8305B96F
:1018F00088E284B981E00E94F3032F813885821B3E
:10190000930B9E838D838FE192E0D1CF1430D1F47D
:101910008FE594E0C4DA17DD882311F0F2E0CF2ED2
:101920007FDA89819A810E94F6020E940B038B81E3
:101930009C810E94F6020E940B038D819E810E9471
:10194000F602DECD1530B1F415B8D4B880E00E94AF
:10195000F3039A83898304B981E00E94F3039C8393
:101960008B8334B882E00E94F3039E838D838FE3E0
:1019700092E09DCF163051F5D4B8D5B880E00E94E2
:10198000F3032091250130912601821B930B9A834A
:10199000898304B905B981E00E94F30320912501F0
:1019A00030912601821B930B9C838B8334B835B80E
:1019B00082E00E94F3032091250130912601821BD1
:1019C000930B9E838D838BE392E071CF173009F0E8
:1019D000A7CF2091250130912601A8E5BBE10E9407
:1019E0008235A50194010E9444352901D5B8E3E070
:1019F000E4B980E00E94F303841995099A838983EE
:101A000005B9FCE0F4B981E00E94F303841995095B
:101A10009C838B8335B820E324B982E00E94F303D2
:101A2000841995099E838D8389E192E040CF6ADA1B
:101A30008FE594E034DA0E94D203115009F07BCD97
:101A40007DCD80912D01823009F4EECDF886EF82B4
:101A500010922D018CE007DAECCD0F5FCA01B901BD
:101A6000A50194010E9444353DCE10E0D9D9609182
:101A70006C0170916D0180916E0190916F0104E095
:101A800026E440917E016EDA18DA0E94D503FA94BA
:101A9000F11017CEC5CE80912D0181110DC082E2CB
:101AA00090E00E94BF3661E0680F85E290E00E94FE
:101AB000CC3681E080932D010895EF92FF920F9331
:101AC0001F93CF93DF93D62FE82FF0E0EF52FE4F16
:101AD000E491E8B9E860E7B915B8E62FF0E0E25321
:101AE000FE4FE491E4B9CE2FCC0F88E8E82E83E1D5
:101AF000F82E8D2F0E94F3038C01C4B98E159F051B
:101B000008F1892BD1F09AD984E893E0C8D9D8019B
:101B100020EA36E841E050E00E94973528E937EBAB
:101B200040E050E00E944435C90122E041E467EF03
:101B3000FDDA88E087B988B914B8CDB7DEB7E6E03A
:101B40000C9454367801D5CF80E48AB98BB987E8F4
:101B500080937A001092C1000E94D203C4B7C8706B
:101B600084B7877F84BF0FB6F894A89580916000F2
:101B7000886180936000109260000FBE789474D9E1
:101B8000C11167C580E185BF0E9492301092220189
:101B90000E94672238E0A32E40E1742E58E1652EA2
:101BA00065E3862E61E0962E73E5C72E71E0D72E91
:101BB0006AD9A7B85ADB0E9467222CD989E592E03E
:101BC0006ED980913001882361F02AD989E993E0A8
:101BD00066D963E08091250190912601B2DA0E94D6
:101BE000D1030E94F11E80910F01893021F54BD95C
:101BF0008EE993E054D914D963E080914701909124
:101C000048019FDA0E940B0363E0809149019091A3
:101C10004A0197DA0E940B0363E080914B01909197
:101C20004C018FDA0E94D00381E19CDB8091070197
:101C300090910801E4C18CE016D985E290E00E9401
:101C4000BF36C82F82E290E00E94BF36C81BC09307
:101C50002D01CC2311F08EE006D980E083DB52D930
:101C600088EC94E01CD983E00E94C603CED842E001
:101C700061E080E029D542E060E081E025D541E0E7
:101C800062E080E021D541E060E082E01DD540E0E7
:101C900062E081E019D540E061E082E015D58091F5
:101CA0000F01811116C083E477D80E94F11E60E015
:101CB00082E00E94C01F8BE46FD861E082E00E9446
:101CC000C01F8BE469D860E081E00E94C01F8BE4F4
:101CD00063D880910F01833061F480910D018230CF
:101CE00041F49091820180918301981302C00E9477
:101CF000E52E04D9909233018092320180910F0138
:101D00008630B1F48BEA94E0CAD841E467E483E416
:101D10000E94110385D882EB93E0C1D8E091320193
:101D2000F091330162E0848195810BDA6ED87ECF29
:101D3000873039F484EB94E0B2D842E367E481E37E
:101D4000E7CF8A3059F48CE991E0A9D8D0923301D9
:101D5000C092320143E467E481E4DACF823009F0D3
:101D60003BC088E991E09BD842E365E481E30E94AF
:101D7000110380E0A8D86091430180914201E62FD1
:101D8000F0E0E35BFE4FE80FF11D319710820E94F7
:101D9000D71CE091430180914201E80FFF27FF1F0C
:101DA000EE0FFF1FEE0FFF1FE556FE4F60817181A2
:101DB0008281938102E024EF4FEFD4D882E991E051
:101DC0006ED860913F017091400190E080E003E0A7
:101DD00025E240E0C7D82ACF8830D1F480917C0139
:101DE00090917D01890F9927991F029769F40E94AC
:101DF000AB248CE038D880912D01882309F4D8CE0B
:101E0000D0E110E000E0FEC380E00E9433240ECF5A
:101E1000833009F000C180910D01813009F064C068
:101E200080E00E949C03609182018091880145DEE0
:101E300080E70E94750340E06091820180918801F3
:101E40000E94F73060936C0170936D0180936E0176
:101E500090936F0180E04FD860916C0170916D019B
:101E600080916E0190916F0102E026E442EF7AD8F2
:101E70000E940D0341E060918201809188010E94DF
:101E8000F73060936C0170936D0180936E019093B5
:101E90006F0126E442EF66D880E892E000D80E9405
:101EA00005070E94050780916901882309F4BECEC9
:101EB00067B8A7B880E01FD8A0916901AA2309F4E8
:101EC00067C380915001A13009F0FCC20E94380321
:101ED00020915001213009F0F0C220910D01211113
:101EE000ECC20E94FA2385CF823079F582E30E940A
:101EF000CC0681E792E00E944F07909182013091D9
:101F00008301931308C080E00E94B70381E00E9420
:101F1000AE0381E08ECF2091880180918901281342
:101F200007C080E00E94A80381E00E94BD03F1CFBA
:101F3000321306C081E0809302010E948B03B1CF6F
:101F400098133FC070920201F8CF8330D1F523E39C
:101F5000209302018091880190918301891303C02D
:101F600021E02093020140918201309189014313C5
:101F700002C07092020120918401821303C082E0AA
:101F80008093020180918A01481303C040E240938C
:101F90000201321310C042E140930201981303C0C2
:101FA00081E28093020183E30E94CC0681E792E004
:101FB0000E944F07C2CF981799F380910201823295
:101FC00090F38AEB94E00E944F0782EA94E00E942B
:101FD0004F070E94100780910D01805D0E94CC0682
:101FE0008AE20E94CC068BE892E00E944F0788E8C4
:101FF00094E00E944F070E94050780E49FE167B8C4
:102000004F9BFECFB2D8823308F4CFC20E944A2B36
:102010008111FCCFCDCD843009F049C1809162019E
:10202000882309F467C080914401882309F462C0C1
:1020300060914101809143010E94C01F20906C017A
:1020400030906D0140906E0150906F01C0917E0103
:102050006091610180915F010E94C01F80913501F4
:1020600090913601A0913701B09138014091530110
:10207000509154016091550170915601843FE1E007
:102080009E07A105B10538F4443FF1E05F07610503
:10209000710508F0C0EF443F51406105710540F4FF
:1020A000843F9140A105B10518F080EF80937E0137
:1020B00080917E018C1311C080916C0190916D0113
:1020C000A0916E01B0916F01281639064A065B0691
:1020D00030F08CE080930E0105C0C817D4F79DE066
:1020E00090930E0180916201882321F08091440138
:1020F000811122C080910E018C3039F585EC93E07E
:102100000E944F0780916201882319F080E70E94A6
:10211000CC060E940B0383D8C82F853070F58091C0
:102120000E018C3001F59091420180914301891795
:1021300000F187E892E01FC04F99DCCF80910E013B
:1021400091E0892780930E01D5CFD0923301C092C0
:10215000320181EC93E00E944F0780914401882373
:10216000C1F28EE6D4CF9091600180916101981701
:1021700000F78BE892E00E944F0743E462E485E4B5
:102180000E9411030E9410078DEC93E00E944F07FC
:10219000E0913201F09133016081718182819381FC
:1021A00003E020E04EEF0E94B2070E940B0389E497
:1021B0000E94CC06E0913201F09133018681978133
:1021C0008031974208F46FC085E60E94CC06E0910A
:1021D0003201F09133018681978180519742978334
:1021E00086830E940F03E0913201F091330122E0D7
:1021F00041E46AEF868197810E94960880E00E9400
:102200007B0786EB93E00E944F07E0913201F0914B
:10221000330163E0848195810E94A108E09132013D
:10222000F091330180859185892B91F080E00E94A7
:102230007B0783E592E00E944F07E0913201F09125
:10224000330123E041E46AEF808591850E9496087E
:10225000E0913201F091330182859385892B91F0D1
:1022600080E00E947B078DE492E00E944F07E0919E
:102270003201F091330123E041E46AEF82859385D6
:102280000E949608C53008F0D1CC80E00E947B0700
:102290008C2F0E949C0382EB93E00E944F078C2FAF
:1022A0000E94670343CD83E60E94CC069ACF853017
:1022B00009F002CE80910E0184FF50C080E50E949B
:1022C000CC06D0923301C09232010E940D0380915E
:1022D0000E01C82FCF70C43009F044C088ED93E0E0
:1022E0000E944F074FE367E48FE30E941103809140
:1022F0000E0185FD50C00E941007E0913201F0915F
:102300003301668584850E94C01F0E9486078DEA7E
:1023100093E00E944F07E0913201F091330162E0B7
:10232000828593850E94A10880E00E949E070E94FA
:102330001E078EE30E94CC068CE70E94CC060E940A
:102340000B0380910D0123E040E260E090E00E94E9
:102350009608C43009F46ACCC0E0AAC08EE40E949A
:10236000CC06B3CF85FF0DC084E40E94CC06C330F9
:1023700051F482ED93E00E944F0743E467E485E463
:10238000B4CF85E4F2CF8DED93E00E944F0744E493
:1023900067E483E5AACF8F70843009F458C080E0E9
:1023A0000E946307E0913201F091330166858485D4
:1023B0000E94C01F0E94860780E00E947B0789E47C
:1023C0000E94CC0684E60E94CC060E940F03E09196
:1023D0003201F091330122E041E46AEF8681978176
:1023E0000E94960888EA93E00E944F07E09132012C
:1023F000F091330162E0828593850E94A108E0910B
:102400003201F091330180859185803C924108F042
:102410008BCF80E00E947B0789E40E94CC0684E693
:102420000E94CC060E940F0322E041E46BEF90E093
:1024300080E00E94960888EA93E00E944F07E091AE
:102440003201F091330162E0808591856BCFE0919C
:102450003201F091330184819581892B09F4ACCF4D
:1024600080E00E9463078CE891E00E944F07E091B2
:102470003201F091330122E041E46AEF84819581D9
:102480000E94960899CFC11103C080E00E946307A3
:1024900080E00E947B078C2F0E949C0382EB93E0DC
:1024A0000E944F078C2F0E9467030E940507CF5F91
:1024B00080910D01C81738F3B9CB40E0692F0E9415
:1024C0003923B4CB9091510124E0929FF001112463
:1024D000E156FE4F44E0849F9001112421563E4F67
:1024E0004081518162817381F901008111812281D2
:1024F0003381C92F041715072607370708F0C82F9F
:10250000A23041F5980FC3E0C91B1C2F1695D2E0ED
:10251000DC1B01E0C11102E0812F0E9402078CE662
:1025200092E00E944F078D2F0E9402078CE692E0F6
:102530000E944F07802F0E94020780E00E946307DD
:1025400081E0C11180E00E94420382E0811B0E9471
:1025500042036CCB80915201F4E08F9FD001112493
:10256000A156BE4F24E0C29FF0011124E156FE4F58
:102570000D911D912D913C9140815181628173811A
:10258000401751076207730708F0BFCFC82FBDCFB0
:1025900082E994E00E944F070E9410078FEB94E0BD
:1025A0000E944F078AEB94E024CD811101CB21CC0E
:1025B000C491C03211F0CE3F09F4B82E8F5F31962E
:1025C0008932B1F7DD2339F14D2F4F70242E11F4EC
:1025D0000E94430760E0822D0E9425070E940507A4
:1025E000A895DF5FDF70212C2B1020C0CC23C9F011
:1025F000020D111DF801E157FD4FE491E03211F495
:102600000F5F1F4FC80181579D4F7C01FC0180E087
:1026100098E2B92ECDCF80E09DE70E94B5088823CF
:1026200099F280E09DE70E94B508C2CAF701C49103
:10263000CC23B9F3CF3F39F40E940B032394FFEF6F
:10264000EF1AFF0AD1CFCE3FC9F38C2F0E94CC06E0
:10265000F5CF0E940A078FE794E00E944F070E947F
:10266000CF030E94580990E080E00895FC019C018E
:10267000261B370BCA0170E060E0A901460F511D0F
:10268000452F5527620F240F351FAC01470F511DF1
:10269000452F5527780FDA01AA0FBB1F8A0F9B1F02
:1026A0004B3E20F4E217F30740F7089590E080E0F6
:1026B00008950F93BC0190E080E003E020E24DEF2D
:1026C0000E94B2070F910895ADE1B0E0EAE6F3E1B0
:1026D0000C942C368C8F6D8F4983A8952D8DE22F0D
:1026E000F0E0E253FE4F34913B8B330F398F33963A
:1026F0004491488F8981E82FF0E0E253FE4F8490A7
:10270000A82CAA0C3396B4909C8DE92FF0E0E253EC
:10271000FE4F9490292D220F2C8B339634913F83BA
:102720003860388748604C8385B84B8948294F8B7F
:1027300044B937B98F8188B98D8D0E94F503988B84
:102740008F87882D8A2985B99B899A299B8794B977
:102750008D8D0E94F5039A878987EB89E4B98D8D69
:102760000E94F5031C0114B80E94DB0315B8FF8911
:10277000F4B98D8D0E94F5038C016F8578890E94D4
:1027800052049B838A832C8127B988E088B9382D2D
:1027900039293D8335B934B98C8D0E94F5030E94E7
:1027A00058043C0115B80E94DB0395B88C8D0E943B
:1027B000F5030E9458047C0194B88C8D0E94F503A7
:1027C0000E9458046C01B701C3010E9452042C01FD
:1027D0000E94820784E50E94CC0684E50E94CC0614
:1027E0008D8D0E9402078CE20E94CC068C8D0E9487
:1027F00002070E940B030E940D038F85988959DF01
:102800008FE60E94CC06C10154DF8BE20E94CC0609
:10281000C8014FDF8FE60E94CC0688E60E94CC06F6
:1028200089859A8546DF0E9417070E940D03C7011C
:1028300040DF8FE60E94CC06C6013BDF8BE20E94A0
:10284000CC06C30136DF40E2441641E0540630F4C2
:102850008A819B818032914008F477C72A813B812D
:102860002E0D3F1D8F859889840D951D28173907DA
:1028700048F483E60E94CC068EE40E94CC06F88AD7
:10288000EF8616010E948207209144018091620127
:10289000820F9927991F02974CF0213009F055C7F4
:1028A0009091410180915F0198134FC7FA2DF9294A
:1028B000F9872F8538892437310508F438C2C901D2
:1028C0000A96880F991F2816390608F030C23885F5
:1028D00037B94F8148B98B8584B98D8D0E94F40337
:1028E0008C0189810E94F6036C01A5B88D8D0E9430
:1028F000F4037C018D8D0E94020786E60E94CC06BF
:102900008C8D0E9402070E940B03C701D2DEC80112
:10291000D0DE0E9417078F859889CBDEC101C9DE02
:10292000C801895A9D4F8E159F0508F0EBC088E0BD
:1029300088B99C8197B9E985E4B9E5B989810E9494
:10294000F4037C018EE40E94CC0685E080930F01A5
:10295000F8E4EF16FFE0FF0608F47AC082E2809305
:102960000E0184E40E94CC060E940B0310933A01EE
:1029700000933901B601C8010E945D0490934001A3
:1029800080933F019801A0E1B7E20E948235209137
:10299000090130910A0150E040E00E944435309333
:1029A0003C0120933B01898D8A2984B915B828857B
:1029B00027B93F8138B989810E94F6038C018D8D3A
:1029C0000E94F403B8010E945D0490933E0180933D
:1029D0003D010E941E078EE40E94CC068AE60E94FA
:1029E000CC060E940B0380910E018F708430A9F1F8
:1029F00088E088B94C81B42AB7B894B88D8185B97C
:102A00008C8D0E94F5037C010E9458048C018D8DF1
:102A10000E94F603C0901001D0901101BC01C701C3
:102A20000E945D049601DC010E948235980150E00D
:102A300040E00E94443530933A012093390183E20B
:102A40000E94CC06809144018F5F80934401C1C4F1
:102A500084E280930E018AE485CF40913B0150913E
:102A60003C0160913F017091400180913D01909146
:102A70003E01FCDD7C01BC0190E080E003E020E24F
:102A80004AEF0E94B207E114F10489F1A4B8E88D7D
:102A90009885E92BE7B98D8D0E94F4037C0188E0CD
:102AA00087B99701A0E1B7E20E94823520912E01FB
:102AB00030912F0150E040E00E94443529013A0155
:102AC000CA01B9018827992720E24AEF0E94B2077C
:102AD000A201B70180913D0190913E01C7DD7C01CB
:102AE000BC0190E080E020E24AEF0E94B207F09241
:102AF0003A01E092390180910E018F70843009F41F
:102B00009ECF76CF88E088B9EC81E7B9F985F4B932
:102B1000F5B98C8D0E94F4038C0189810E94F60323
:102B20007C0195B88C8D0E94F403895A9D4F8017C3
:102B3000910708F00AC62F8128B9388537B98981ED
:102B40000E94F4036C0180E50E94CC0685E080932E
:102B50000F0141EDC41643E0D40608F08AC082E3B9
:102B600080930E0184E40E94CC060E940B03B801FE
:102B7000C7010E945D0490935E0180935D01C801CE
:102B80000E9458049C01A0E1B7E20E948235209186
:102B900010013091110150E040E00E944435309323
:102BA0005A0120935901B8E0DB2ED8B88C8187B93F
:102BB0008C898A2984B985B98C8D0E94F6038C0191
:102BC00089810E94F403B8010E945D0490935C0126
:102BD00080935B010E941E0780E50E94CC068AE478
:102BE0000E94CC0680910E018F70843009F446C09B
:102BF000EF81EB29E8B99885B92AB7B815B8ED8106
:102C0000E4B98C8D0E94F5036C018D8D0E94F60352
:102C10008C01E0900901F0900A01BC01C6010E94FC
:102C20005D049701DC010E948235980150E040E08C
:102C30000E944435309358012093570180916201DE
:102C40008F5F8093620111E080E50E94CC06809145
:102C500062018F5F80936201112309F4F3C5E9815A
:102C6000E0935F01FD8DF09360012C8D2093610155
:102C7000E9C584E380930E018AE475CF4091590140
:102C800050915A0160915D0170915E0180915B01EC
:102C900090915C01EBDC7C01BC0190E080E003E002
:102CA00020E24AEF0E94B207E114F104A9F1A5B8AD
:102CB000A4B8FF81F8B9E8852C81E22BE7B98C8DA7
:102CC0000E94F4030E9458047C01D7B89C01A0E143
:102CD000B7E20E948235209127013091280150E00F
:102CE00040E00E94443529013A01CA01B901882710
:102CF000992720E24AEF0E94B207A201B701809112
:102D00005B0190915C01B2DC7C01BC0190E080E051
:102D100020E24AEF0E94B207F0925801E092570178
:102D200080910E018F70843009F488CF61CF88E0E4
:102D300088B93C8137B995B8498544B98C8D0E94D2
:102D4000F5039E8B8D8B0E9458046C0189810E9433
:102D5000F6039B838A830E941E0780E50E94CC06AF
:102D6000C1018C599F4F9B8F8A8FB1018C159D0596
:102D700008F0A0C0C6010E945D048C0188E40E9496
:102D8000CC06209110013091110150E040E060E844
:102D900071EA83E09CE10E944435D8010E94973596
:102DA000EA81FB819F0150E040E00E944435290107
:102DB0003A0183E60E94CC0683E60E94CC060E947C
:102DC0000B0385E60E94CC06C60173DC8FE60E94E9
:102DD000CC06C1016EDC82E60E94CC068A819B8112
:102DE00068DC82E40E94CC068DE30E94CC0603E0FE
:102DF00020E24EEFC301B2010E94B20714B815B829
:102E0000FF81F8B9288527B90E94DC030E941E07BC
:102E10008D8D0E94020785E40E94CC068C8D0E9455
:102E200002070E940B033F8934B98D8D0E94F50380
:102E30008F359D4008F4CBC18B8584B98D8D0E9460
:102E4000F4037C0189810E94F6039E878D878C8D17
:102E50000E94F6039A8B898BED85FE85E13DF74054
:102E600008F42BC1A5B88D8D0E94F4038C01811547
:102E7000944008F440C080910F018430E0F580E573
:102E80000E94CC0685E50E94CC0684E50E94CC0613
:102E90000E940B03C8010DDC8AE080930F016D8551
:102EA0007E8589899A890E945D0490935801809358
:102EB0005701C9CEC6010E945D048C01FD81F4B9A1
:102EC0008C8D0E94F5039E8B8D8B0E9458046C01A3
:102ED00089810E94F6039B838A838CE40E94CC063E
:102EE0006A817B81C8010E945D049C01A4E6B0E078
:102EF0000E94823555CF84E080930F018DE080934E
:102F00000E010E941E0780E50E94CC0687012E1448
:102F10003F0410F40219130988E40E94CC062091A2
:102F2000090130910A0150E040E060E871EA83E075
:102F30009CE10E944435D8010E949735ED85FE85BD
:102F40009F0150E040E00E94443549015A0183E668
:102F50000E94CC0685E60E94CC060E940B0383E605
:102F60000E94CC06C701A5DB8FE60E94CC06C101FA
:102F7000A0DB82E60E94CC068D859E859ADB82E4EA
:102F80000E94CC068DE30E94CC0603E020E24EEFC7
:102F9000C501B4010E94B20780916201882371F0DB
:102FA0008091530190915401A0915501B091560127
:102FB00010E088159905AA05BB0520F580925301FC
:102FC00090925401A0925501B09256019701A0E150
:102FD000B7E20E9482352091090130910A0150E048
:102FE00040E00E94443530935A01209359016D8589
:102FF0007E8589899A890E945D0490935801809307
:10300000570111E08091530190915401A091550115
:10301000B091560184159505A605B70530F5409287
:1030200053015092540160925501709256016A8189
:103030007B818D899E890E945D04909358018093C5
:1030400057019601A0E1B7E20E948235209110015C
:103050003091110150E040E00E944435205F384D2E
:1030600030935A012093590111E082E40E94CC066A
:10307000112309F4E9CDC0900901D0900A01F12C87
:10308000E12C9101A0E1B7E20E948235A7019601EF
:103090000E94443530935C0120935B012F85388971
:1030A000A0E1B7E20E948235A70196010E94443553
:1030B00030935E0120935D01C7CDF1E62F163104F8
:1030C00008F085C021EDE21627E0F20608F47FC083
:1030D00085E080930F0182E180930E01C701865045
:1030E0009F4FE989FA898E179F0708F059C00E94FF
:1030F0001E0780E50E94CC0689E40E94CC0687E486
:103100000E94CC060E940B0389899A89D2DAC701F2
:10311000D0DA83E180930E01F88DF770BF2E89819C
:10312000806480937C00FBE0DF2EEE24E394F12C9E
:103130000FEF13E0A89561E0882D3CD62B8524B9CC
:1031400086B18B21E9F33B8934B980917A008064A0
:1031500080937A0080917A0086FDFCCF8091780080
:1031600090917900F801E81BF90BEE0EFF1EDA943E
:10317000D110E0CFC701880F991F880F991F69E010
:1031800070E00E941D3570935E0160935D01809137
:1031900062018F5F8093620186E40E94CC0653CD6A
:1031A0000091090110910A01B70189899A890E9449
:1031B0005D049801DC010E948235970150E040E0F7
:1031C0000E9444353093580120935701A5CF0E94A7
:1031D0001E078EE40E94CC06FB85F4B9A5B88D8D40
:1031E0000E94F5039B838A8389810E94F6039C8752
:1031F0008B870E9458048C012A8D3B8D8A819B818C
:103200002817390708F0E7C0B1010E945D047C016E
:1032100088E40E94CC062091090130910A0150E017
:1032200040E060E871EA83E09CE10E944435D70108
:103230000E949735980150E040E00E9444352901F2
:103240003A0183E60E94CC0683E60E94CC060E94E7
:103250000B0385E60E94CC068A819B812ADA8FE6E1
:103260000E94CC06C10125DA82E60E94CC06C80184
:1032700020DA82E40E94CC068DE30E94CC0603E0B3
:1032800020E24EEFC301B2010E94B207FC81F7B900
:1032900088E088B92D8124B925B98C8D0E94F50369
:1032A0006C0189810E94F6039E878D878D8D0E9417
:1032B000F6035C0130E3C31631E1D30608F042C2E5
:1032C00095B88C8D0E94F5039A8B898B94B88C8D60
:1032D0000E94F5037C0115B80E94DC0395B88C8D23
:1032E0000E94F5038C010E941E0789E70E94CC060C
:1032F0000E940B03C701DDD9C801DBD9C601D9D9AA
:1033000040E4E41646E0F40608F08BC0013381E1A6
:10331000180708F486C0C6018A569F4FE989FA89C2
:10332000E817F90708F07DC086E080930F010E943E
:103330001E078D8D0E94020789E50E94CC068C8DA8
:103340000E9402070E940B03809144018F5F8093CB
:103350004401B5018D859E850E945D0490933A01DC
:1033600080933901B501C6010E945D04909340012C
:1033700080933F0114B815B8F88DF8B90E94DC03AA
:1033800094B88C8D0E94F503853F910510F52D8131
:1033900024B989810E94F503813D9340D0F08C8D42
:1033A0000E94F6038D3D9240A0F094B88C8D0E944F
:1033B000F5038D3D924068F095B80E94DC0315B886
:1033C0008C8D0E94F503853F910518F487E080936A
:1033D0000F0111E036C19F8994B985B88D8D0E9487
:1033E000F5039B838A8389810E94F6039C878B87E0
:1033F0000E9458048C018CE40E94CC06EA81FB8177
:10340000CF01821993092E163F0610F08A819B8105
:10341000B8010E945D049C01A4E6B0E00E948235E0
:1034200009CFFC81F7B984B885B80E94DC032985EF
:1034300024B925B98C8D0E94F5037C010E945804A3
:103440006C0189810E94F6039E878D870E94580433
:103450008C018D8D0E94F6039E838D830E941E0732
:1034600082E70E94CC0684E70E94CC0680E70E9497
:10347000CC060E940B03C8011CD90E3F39E013078C
:1034800008F4F4C084E080930F018CE080930E0177
:103490000E941E078EE40E94CC06B101C6010E9464
:1034A0005D047C0188E40E94CC06209110013091DB
:1034B000110150E040E060E871EA83E09CE10E9485
:1034C0004435D7010E949735980150E040E00E94B2
:1034D000443549015A0183E60E94CC0685E60E94E4
:1034E000CC060E940B0383E60E94CC06C601E1D8FD
:1034F0008FE60E94CC06C101DCD882E60E94CC0691
:10350000C801D7D882E40E94CC068DE30E94CC0685
:1035100003E020E24EEFC501B4010E94B2078091A2
:103520004401882371F08091350190913601A0917A
:103530003701B091380110E088159905AA05BB053F
:1035400020F58092350190923601A0923701B09219
:1035500038016D817E818D859E850E945D049093EA
:103560003A01809339019601A0E1B7E20E948235C9
:10357000209110013091110150E040E00E9444354B
:1035800030933C0120933B0111E0809135019091F3
:103590003601A0913701B091380184159505A60533
:1035A000B70538F5409235015092360160923701E7
:1035B000709238016A817B818B859C850E945D04B5
:1035C00090933A01809339012A813B81A0E1B7E2CF
:1035D0000E9482352091090130910A0150E040E0BB
:1035E0000E944435205F384D30933C0120933B01CD
:1035F00011E082E40E94CC06112319F19101A0E1AF
:10360000B7E20E9482352091090130910A0150E011
:1036100040E00E94443530933E0120933D012F85C8
:103620003889A0E1B7E20E948235209110013091E3
:10363000110150E040E00E94443530934001209356
:103640003F018EE40E94CC06809144018F5F8093FD
:103650004401112309F4F6C03981309341014C8DA6
:10366000409342018D8D80934301ECC041E62416C6
:10367000310408F067C089E4C8168DE0D80608F464
:1036800061C085E080930F0182E080930E018D81FF
:103690009E8186509F4F8E159F0508F03CC083E0A9
:1036A00080930E0186E40E94CC069F819770E92EDC
:1036B0008981806480937C007BE0F72E01E010E03C
:1036C000A89560E0882D76D3E985E4B9E5B986B19F
:1036D0008E21E9F794B880917A00806480937A0013
:1036E00080917A0086FDFCCF8091780090917900DE
:1036F000080F191FFA94F110E3CFC801880F991F22
:10370000880F991F69E070E00E941D357093400199
:1037100060933F0197C900911001109111016D81D3
:103720007E81C7010E945D049801DC010E94823500
:10373000960150E040E00E94443530933A012093D6
:103740003901B0CF88E087B988B914B815B888E0D6
:1037500087B9F7EC2F16F1E03F06B8F40E9417077F
:103760008C8D0E94020784E40E94CC068D8D0E94FD
:1037700002070E940B03C1010E9459138CE30E94AF
:10378000CC066D8D8C8D13D15DC088B92C8924B980
:1037900018EC08853C81032B07B90E94DC034C819F
:1037A00047B98C8D0E94F603429710F01150A1F793
:1037B0008C8984B985B961E0882DFCD28C8D0E94FA
:1037C000F503782E692E998D94B915B8E885E7B977
:1037D000FF81F8B960E0882DEDD28D8D0E94F50350
:1037E0000E9458047C012B8924B98D8D0E94F60318
:1037F0008C018C8D0E94F503B8010E945D046C0160
:103800008D8D0E94F6038C018C8D0E94F503B8010A
:103810000E945D048C0183E40E94CC0683E60E9432
:10382000CC06C6010E945913C8010E945913C60153
:1038300044968017910790F48EE40E94CC0684E4AD
:103840000E94CC0688E087B988B914B815B88EE212
:103850000E94CC066D96E2E10C94483688E088B967
:103860003C8137B994B895B861E0882DA3D28D8D8D
:103870000E94F6038C018C8D0E94F503B8010E9412
:103880005D048C01C816D90608F076C04C8944B98D
:1038900045B98C8D0E94F5035C01E72CF62C0E9443
:1038A00017078C8D0E94020784E40E94CC068D8D40
:1038B0000E9402070E940B0388E60E94CC06C70103
:1038C0000E9459138CE40E94CC06C8010E9459132F
:1038D00088E40E94CC06C5010E94591328EC30E010
:1038E000F8E4EF16F6E0FF0630F4970153E0369562
:1038F00027955A95E1F7083E43E0140708F04EC0BB
:10390000C80164E670E00E941D35C801875991091D
:103910008938914108F035CFA016B10608F031CFB3
:103920002E0D3F1D2017310708F02BCF6E157F0598
:1039300008F027CF80910F018330B8F583E08093A2
:103940000F0184E40E94CC0680910D01282F30E005
:10395000F901EE57FE4F4C8D40839D8D9683220FCB
:10396000331FF901E257FE4F1183008391E0980F56
:1039700090930D018F5C64CF898D84B915B89885BB
:1039800097B9EF81E8B960E0882D14D28D8D0E943F
:10399000F5030E9458045C01860181CFB80144E020
:1039A000769567954A95E1F7B0CF84E6CBCFB0E046
:1039B000A0E0EDEDFCE10C942E36C82FD62FA89593
:1039C000862F90E0FC01E253FE4F549033962491F1
:1039D0004C2F50E0FA01E253FE4F149133960491BC
:1039E0006091620130914401630F7727771F672B45
:1039F00009F067C0A8956091130170911401660FDA
:103A0000771F660F771F70932601609325016091E1
:103A1000670170916801660F771F660F771F7093BB
:103A20002401609323013EEB3093210130910D017D
:103A3000E2E8F1E0DF01480F591F9A2F9E1B931710
:103A400018F188E088B9286027B914B915B9B8E128
:103A5000BB2ED12CC12C8D2F0E94F503782E692E00
:103A60008C2F0E94F6037C018C199D0997FF03C0DF
:103A700091958195910903970CF46BC1A895BA941F
:103A80006701B110E8CF0AC08D9115966C9115971A
:103A9000680F7727771F6417750779F680911301F0
:103AA00090911401909326018093250180916701E4
:103AB00090916801909324018093230189E1809380
:103AC0002101CDB7DEB7E0E10C944A3625E8C216F5
:103AD00021E0D20618F7043AA2E01A0708F0B1C0B4
:103AE000B8E9AB16B104D0F2C6010E945804AC018B
:103AF0009601A8E9B7EB0E9482359A0150E040E0B8
:103B00000E94443529013A01C5010E9458049C01D4
:103B1000A8E9B7EB0E948235950150E040E00E9491
:103B2000443588E7C8168FE0D80608F06EC0F2E08A
:103B3000440C551C661C771CFA95D1F7C301B201E1
:103B4000620F731F841F951F25E030E040E050E0B6
:103B50000E944435A4E6B0E00E9497356B017C01D9
:103B6000BCEACB0EBDE0DB1EE11CF11C10910F0185
:103B7000143008F093CFC150DC0F8D2F90E0FC0182
:103B8000E35BFE4F2081880F991F880F991F815694
:103B90009E4FDC01222309F4C1C08D909D90AD9011
:103BA000BC90A7019601281939094A095B0957FFFA
:103BB00007C050954095309521953F4F4F4F5F4F2F
:103BC000AAE0B0E00E949735B4E68B0E911CA11CD0
:103BD000B11CC80CD91CEA1CFB1C6C157D058E059C
:103BE0009F0508F05BCF133019F081E080930F013F
:103BF00082E0808380916901E82FF0E0E05BFE4F76
:103C0000D0838F5F8093690149CFA8E7AA16AFE000
:103C1000BA0670F4E2E0220F331F441F551FEA95E5
:103C2000D1F7CA01B901640D751D861D971D8CCF92
:103C3000240D351D461D571D5695479537952795DB
:103C400089CFC0901001D0901101672D762DE61616
:103C5000F70608F4B701C7010E945D049601DC0174
:103C60000E9482352B013C01C7010E9458049C012F
:103C700050E040E0C301B2010E94443529013A01FD
:103C8000A0900901B0900A01892D982D8017910705
:103C900008F4C801B8010E945D049501DC010E948E
:103CA0008235980150E040E00E94443588E7E816EC
:103CB0008FE0F806B0F462E0440C551C661C771CDB
:103CC0006A95D1F7C301B201620F731F841F951F5C
:103CD00025E030E040E050E00E94443569017A017F
:103CE00045CF0837AFE01A0770F4CA01B90152E0B6
:103CF000660F771F881F991F5A95D1F7640D751DA0
:103D0000861D971DE5CF73016201C20ED31EE41E0E
:103D1000F51EF694E794D794C79428CFCD92DD9200
:103D2000ED92FC92139781E08083B8CE550C54B885
:103D30008D2F0E94F5035C01B0ECEB16B4E4FB069A
:103D400008F4C4CE80EBC8168DE4D80608F0A6CEE1
:103D5000C2CE110F15B814B98C2F0E94F50381350E
:103D6000910508F09BCE15B98C2F0E94F5036C01CC
:103D7000802F886087B908B915B854B8A8E14A2ED1
:103D8000B12CA12C8C2F0E94F503982E892E8D2FFB
:103D90000E94F6038C018A199B0997FF03C0919535
:103DA00081959109039714F2A8954A9458014110FE
:103DB000E9CF74CECF93C82FC09595B160FF0FC0E7
:103DC000982B95B994B1982B94B90E94DB0384B1D8
:103DD0008C2384B985B18C2385B9CF9108959C2318
:103DE000F0CFB0E0A0E0E7EFFEE10C9434361AE04B
:103DF00008E08FE3C82E99E0D92E07B908B915B8A5
:103E0000C4B880E00E94F5037C0181E00E94F603C3
:103E1000EC0182E00E94F6039C0180910F01893041
:103E2000A1F488E087B914B8F0924801E092470104
:103E3000D0934A01C093490130934C0120934B0128
:103E4000CDB7DEB7EAE00C94503684E0E816F10412
:103E500048F4C430D10560F42430310510F399E002
:103E600092600AC098E088EEE81683E0F80608F44D
:103E700099E0C83ED340A0F3283E334008F4946054
:103E800097B9D0E0C0E0A89580E00E94F3035C0100
:103E900081E00E94F6037C0182E00E94F60324E1A7
:103EA000A21625E0B20608F4389A24E1E21625E0CD
:103EB000F20608F4399A843125E0920708F43A9A18
:103EC00026E0A216B10430F426E0E216F10410F464
:103ED000069738F02196C43F81E0D807A1F6D0922A
:103EE0000F01F12CE12CEC16FD0621F4115009F024
:103EF00084CFA6CF0E94E1032FEFE21AF20AF3CF9C
:103F0000CF92DF92EF92FF92CF9320916C0130918C
:103F10006D0140916E0150916F01C0917E018AE068
:103F2000C82ED12CE12CF12C8C2FCF5F213A96E8B2
:103F3000390791E049075105E0F480937E01A09193
:103F40002501B09126010E94973528E833E140E031
:103F500050E00E94443520936C0130936D014093F2
:103F60006E0150936F01CF91FF90EF90DF90CF9053
:103F70000895CA01B901A70196010E944435D4CF22
:103F8000B0E0A0E0E6ECFFE10C943236182FF62EFC
:103F9000880F810F9FEF960F890F80934601E12FC5
:103FA000F0E0E253FE4F0491862F90E0FC01E253D3
:103FB000FE4FC491FC01EF52FE4F649180910F01BE
:103FC00020910D0142E851E0DA018130C9F4CDB70A
:103FD000DEB7ECE00C944E3616968C9116978F1146
:103FE0000EC08C9181130BC0CD01880F991F825890
:103FF0009140FC01848595858C3D954040F3119658
:104000008A2F841B821740F3E62E6894E3F81092FF
:1040100079011092780181EF80937E0110926C01FA
:1040200010926D0110926E0110926F01DADE88E03D
:1040300088B9E7B8C4B9C5B9812F0E94F6036C01ED
:104040008F2D0E94F60314B8D0E0C0E05C01AC18DC
:10405000BD0805B904B90E94DB0314B815B80E9465
:10406000E203A895812F0E94F6036C014501880E9A
:10407000991ECE37D10520F02BE4821691045CF016
:104080003DE2831631E093060CF05DC12196C43FFA
:1040900081E0D807F1F688E087B988B914B815B877
:1040A00096CFE5E18E16E5E09E060CF44FC199DE51
:1040B00015B88FE087B988E088B9D02EDD0CD4B868
:1040C00080E480937B0084E580BF812F80648093AF
:1040D0007C0087E180937A000E94E50310928000C3
:1040E000109285001092840087E286BBD5B880913B
:1040F0000F01853009F006C181E08093810081E0E5
:1041000090E0012E01C0880F0A94EAF780958F7025
:1041100087B9D12CC12C91E086B385FD0CC080FFFE
:10412000FBCF96BBA8953FEFC31AD30AE0E8CE16A3
:10413000ECE0DE0689F71092810090E296BBA09039
:104140008600B09087002091840030918500A216EF
:10415000B30638F480FF05C081E086BBFFEFCF1ABD
:10416000DF0A87E980937A0014B815B8812F0E947E
:10417000F6032091290130912A01821B930B0C96A2
:10418000909381018093800120E4C21626E0D2063C
:1041900008F081CFD0927701C0927601B09275017C
:1041A000A092740184EF80937E0132E4C316D1049F
:1041B000C8F06091740170917501809176019091C1
:1041C000770124E630E040E050E00E94443520933F
:1041D000740130937501409376015093770186EF17
:1041E00080937E01A0916A01B0916B0120917401CE
:1041F0003091750140917601509177010E94973579
:1042000020E436E040E050E00E9444352093740101
:1042100030937501409376015093770120936C01A0
:1042200030936D0140936E0150936F0169DE809170
:104230007E01843F09F054C080906C0190906D0124
:10424000A0906E01B0906F0180EA88168FE098060A
:10425000A104B104C0F4A50194012C543F4F4F4F69
:104260005F4F60EA7FE080E090E00E944435820E7C
:10427000931EA41EB51E80926C0190926D01A092B7
:104280006E01B0926F0180906C0190906D01A090D2
:104290006E01B0906F0181149104E1E0AE06B104AB
:1042A000B0F59092B0018092AF018091460190E00C
:1042B0008E5D9F4F0E94BF3690E0B0E0A0E0881571
:1042C0009905AA05BB0550F5881A990AAA0ABB0ADE
:1042D00080926C0190926D01A0926E01B0926F017C
:1042E00004B980916C0190916D01A0916E01B09123
:1042F0006F014997A105B10508F0A4C0CCCEE12C0F
:1043000000E04AC081E080938100E7B802CF81E0FD
:1043100090E09093B0018093AF01C7CFF4E18F0E8E
:10432000911CA11CB11C88169906AA06BB0610F4A4
:104330000E944B0D10926C0110926D0110926E0153
:1043400010926F01CDCF209709F4ABCEB12CA12CE8
:104350000E94DC03812F0E94F603A895FFEFAF1A9D
:10436000BF0ACA15DB05A0F7C81AD90A1C141D0418
:1043700034F629ECC216D1040CF08DCE28EE33E0D1
:10438000D6010E9491359401092C000C440B550B69
:104390000E944435E22E032F2196CE01B0E0A0E02A
:1043A0008093740190937501A0937601B093770187
:1043B000C4018C0D9D1D0E94B9042091740130919F
:1043C00075014091760150917701DC010E9497358B
:1043D00060937401709375018093760190937701D7
:1043E00060936C0170936D0180936E0190936F01E7
:1043F00087EF80937E0184DD80906C0190906D0149
:10440000A0906E01B0906F0185E090E00E94BF36F1
:10441000A8EEB3E0A81BB10987FDB395A5019401EF
:104420000E94A13524E630E040E050E00E9444358F
:1044300020936C0130936D0140936E0150936F0196
:10444000CE2DD02F80910D01882329F080910F016E
:10445000853009F020CE88E080930F0180917E01A5
:1044600090917F019817C4F0891315CE80906C014C
:1044700090906D01A0906E01B0906F01409170011D
:104480005091710160917201709173014815590545
:104490006A057B0508F0FFCD40916C0150916D01DC
:1044A00060916E0170916F014093700150937101A2
:1044B000609372017093730180937F01D0937B01AD
:1044C000C0937A01F0927C0110937D01E4CDB0E0BD
:1044D000A0E0EDE6F2E20C94323688E893E19093A6
:1044E00014018093130190932601809325018EEB94
:1044F00080932101C8E0C8B988E187B90E94EA0326
:10450000C7B984E00E94F503AC018B5C9840833FFF
:104510009140A0F481E080933001209125013091F9
:104520002601AFEBB9E00E9482359A0150E040E0ED
:104530000E9444353093140120931301809113019C
:104540009091140190932601809325018EE00E94A2
:10455000F6038EE00E94F50390932A0180932901CF
:104560000E9466043EDC88E0F82EF8B8C9E0C7B9BE
:1045700085E185B9D1E0D4B980E00E94F5038C01D2
:104580009AE0D92ED7B824E0B22EB4B881E00E94C8
:10459000F503080F191F3CE0E32EE7B840E1C42EF5
:1045A000C4B882E00E94F503080F191F15B8C8B9F6
:1045B000C7B9D4B980E00E94F5030E945804EC0109
:1045C000D8B8D7B8B4B881E00E94F5030E94580467
:1045D000C80FD91FE8B8E7B8C4B882E00E94F50355
:1045E0000E945804C80FD91FF7B8F8B814B88091C2
:1045F0002501909126016C01CC0CDD1CC80ED91E42
:10460000C8018C0F9D1FC81AD90AF12CE12C980102
:10461000A0E9BAE10E948235A70196010E944435C3
:1046200049015A0130932F0120932E019E01A0E9E8
:10463000BAE10E948235A70196010E944435309369
:104640002801209327012057354E309311012093E4
:10465000100180E7881A85EE980A90920A018092EC
:10466000090189E180932101CDB7DEB7ECE00C941C
:104670004E36CF92DF92EF92FF920F93CF93DF935C
:10468000F82EC62FD42F0E9402078CE692E00E94DB
:104690004F07D0D16C2F8F2D0E943633C090B301BD
:1046A000D090B401E090B501F090B6018091150171
:1046B00087FD05C0C114D104E104F10421F088E6AE
:1046C00092E00E944F078C2F0E940207C114D10470
:1046D000E104F10431F00E940B03809150010E942B
:1046E0004203DD2309F459C080913101853208F07D
:1046F00054C08650990B8D559A4F0E944F0780E009
:104700000E947B07CD28CE28CF2809F449C06091AC
:10471000B3017091B4018091B5019091B60103E0AD
:1047200028E447EF0E94B2078BE792E00E944F0710
:104730008CE290E00E94C73623E046E464EF0E94DA
:1047400096088091AB019091AC01A091AD01B09120
:10475000AE01892B8A2B8B2BF1F180E00E947B0725
:104760006091AB017091AC018091AD019091AE016F
:1047700004E028E440E00E94B20786E792E00E944D
:104780004F0723E040E26FEF8091B1019091B201B9
:104790000E9496080E945D0725C00E945D07AFCF6A
:1047A000809150010E944203809115018E3F4CF68A
:1047B00088E893E00E944F0760919A0170919B01F5
:1047C00080919C0190919D0103E028E440911501A6
:1047D0000E94B207B6CF80E00E9463078091340147
:1047E0008823C1F2DF91CF910F91FF90EF90DF907E
:1047F000CF90089584EE91E095D76AE080E00E9422
:10480000250787EA95E00E944F070E94350960E07E
:1048100082E0CDD862E080E0CAD80E940A07809189
:104820006901882369F041E062E080E022DF88EEE0
:1048300093E00E94B508882341F30C944307089540
:1048400084EE91E00E944F0787EA95E00E944F07AF
:104850000E9410078FE30E94CC0680E00E9463074D
:104860000E945D07E4CFEF92FF920F931F93CF93C7
:10487000DF93182F0E940A0780917C010E94020793
:1048800084EA93E00E944F0719D360917C018091E4
:104890007D010E940C05EC019093790180937801D1
:1048A000E0907A01F0907B01CA3F8FEFD80720F4A7
:1048B0008DE692E00E944F0780917D010E940207E1
:1048C000112309F445C09091310185E2891B0E94B2
:1048D000BA0689ED91E00E944F070E94100760918F
:1048E000700170917101809172019091730104E0E7
:1048F00026E440917F010E94B207CA3FDF4F68F46F
:1049000083E993E00E944F0722E044EF6EEF80912D
:104910007801909179010E9496080E945D070E949B
:104920001707E114F10469F08CE893E00E944F0747
:1049300022E045E26FEF80917A0190917B010E9425
:1049400096080E945D07CDB7DEB7E6E00C945436BA
:104950000E945D07C2CF1F93CF93DF93C8E0D2EFD1
:1049600015E20E94350960E082E00ADBC0930F0186
:1049700080917E01843FE1F480916C0190916D0102
:10498000A0916E01B0916F0184369105A105B1052A
:1049900078F440E060E082E00E94F73060936C01C0
:1049A00070936D0180936E0190936F01D0937E019F
:1049B00080917E01823F0CF180937F0180916C0198
:1049C00090916D01A0916E01B0916F018093700183
:1049D00090937101A0937201B093730181E043DF62
:1049E00088EE93E00E94B508882309F4BACF0E94AC
:1049F0004307DF91CF911F9108950E940A078DED23
:104A000091E00E944F0780913101912F981B892FCF
:104A10000E94BA0689ED91E00E944F070E9410079C
:104A20008FE30E94CC060E945D070E9417070E9438
:104A30005D07D6CFA6E1B0E0E0E2F5E20C942C36BB
:104A400082E08093150180910F01813009F0DEC171
:104A500080916901813009F0D9C14090500124E072
:104A6000429EF0011124E156FE4F80819181A28186
:104A7000B381893032E59307A105B10508F0C6C1BD
:104A80001C01712C81E0871508F4C4C1842D0E949B
:104A90003803982E892EE92FF0E0EF52FE4F549004
:104AA00090E0FC01E253FE4FE49115B828E028B9EC
:104AB000372D3170632E20EF2216310408F0B1C17A
:104AC0003111AFC10091090110910A0100591A4139
:104AD00021E030E002C0220F331F8A95E2F7C901BE
:104AE0008529886087B934E1398B892D0E94F403C8
:104AF0005C01882D0E94F60324E0A216B10410F494
:104B0000049728F039893150398B3111EECF80E488
:104B100080937B0094E590BF892D806480937C0016
:104B200027E120937A00F12CE12C10928000109262
:104B300085001092840087E286BB0E94E503872DE2
:104B400090E09A8B898B611075C181E88093810018
:104B500058B886B385FF77C128E028B91092810044
:104B600030E236BB20918600309187006901409188
:104B70008400509185002417350708F472C187E935
:104B800080937A00B4E15B2E892D0E94F4035C01CE
:104B9000882D0E94F60324E0A216B10410F40497B5
:104BA00018F05A945110F0CF80902E0190902F0160
:104BB000820C931C800E911E20910B0130910C01F0
:104BC00000398AE1180708F054C169E191EEC9166D
:104BD000D104E104F10430F4C60165E070E00E9404
:104BE0001D35645128523109261B310967FD339563
:104BF00066E0862F90E0B0E0A0E08C159D05AE0544
:104C0000BF0508F03FC1C81AD90AEA0AFB0A6620A4
:104C100029F08AE3C80ED11CE11CF11C90EAE916C8
:104C2000F10418F0C12CD12C76018BE0C816D10408
:104C3000E104F10428F091E0C91AD108E108F10873
:104C4000B12CA12CA8EEB3E00E9482356B8B7C8B3B
:104C50008D8B9E8BA0912501B091260198010E9419
:104C60008235A50194010E944435442755276B895C
:104C70007C898D899E890E944435C9010E94E8047F
:104C8000FC01A5019401C701B6010E9402354B0148
:104C90005C01BF0190E080E0E4E0660F771F881FB1
:104CA000991FEA95D1F76B5F7F4F8F4F9F4F2AE097
:104CB00030E040E050E00E94443544275527C501CC
:104CC000B4010E944435E989FA89EE0FFF1FEE0F07
:104CD000FF1F81E090E08C0F9D1FE80FF91F2083DC
:104CE000318342835383611018C094E1C916D10403
:104CF000E104F10490F07394E989FA893196EE0F9A
:104D0000FF1FEE0FFF1F81E090E08C0F9D1FE80F4B
:104D1000F91F2083318342835383A895739493E0D2
:104D2000971508F0AFCE88E088B90E94DA0391E0C9
:104D30000D811E812F81388549815A816B817C814B
:104D4000401751076207730708F090E00D851E8534
:104D50002F85388949855A856B857C8583E0401786
:104D600051076207730708F082E024E0829FD001B8
:104D7000112421E030E02C0F3D1FA20FB31FE92FBB
:104D8000F0E0EE0FFF1FEE0FFF1FE20FF31F0D917C
:104D90001D912D913C914081518162817381041755
:104DA00015072607370708F0892F34E0839FF001A5
:104DB000112421E030E02C0F3D1FE20FF31F408152
:104DC00051816281738140939A0150939B0160935A
:104DD0009C0170939D0180FD59C030EF2316310472
:104DE00008F054C08BEF8093150180919A01909147
:104DF0009B01A0919C01B0919D01892B8A2B8B2B4B
:104E000011F41092150188E087B914B86696E2E1B2
:104E10000C944836842D0E943803982789279827B8
:104E200038CEE4B9852D886087B9009109011091C9
:104E30000A0159CE58B80E94EE0390E296BB81E871
:104E40008093810086CE80FF84CE91E096BBA895AA
:104E500097012F5F3F4F7901203A310509F079CE54
:104E60007BCE80FF8CCE21E026BB3FEFE31AF30A16
:104E700086CEC40168E57BE10E941D35695F285D2F
:104E80003F4FB7CEC12CD12C7601C1CE8CEF809391
:104E90001501CB01BA016B5F7F4F8F4F9F4F2AE007
:104EA00030E040E050E00E94443520939A01309376
:104EB0009B0140939C0150939D0197CFB0E0A0E0EF
:104EC000E4E6F7E20C942E3600917A0110917B0112
:104ED0000115110509F092C0E0917C01F0E0EF525C
:104EE000FE4FD491D860E0917D01F0E0E253FE4F97
:104EF000C4910E94F11E88E088B915B8D7B9C4B929
:104F000080917D010E94F6037C01D0917F018CE0AD
:104F10008D0F843008F072C0809170019091710102
:104F2000A0917201B0917301D15F2C013D0125E088
:104F3000420E511C611C711CC301B2012AE030E019
:104F400040E050E00E94443549015A01DA01C901AC
:104F5000DF5FD73051F72AE5421623EC5206610491
:104F6000710408F04BC0059708F448C0C5B9C4B92E
:104F7000D0E0C0E0C815D90508F445C014B815B88C
:104F8000A89585E08093210180917D010E94F60320
:104F9000EC01CE19DF09E816F90610F0D0E0C0E008
:104FA000D12CC12CC814D90490F180917D010E94AC
:104FB000F60329E120932101A895E816F90618F4D3
:104FC0008C010E191F090C171D0788F49E01201B68
:104FD000310B69F0A4EFB1E00E9482359E0150E0F0
:104FE00040E00E94443530937B0120937A010E9477
:104FF000F11E88E087B988B914B815B8CDB7DEB707
:10500000E0E10C944A360E94EC032296B3CF0E9452
:10501000EC038FEFC81AD80AC5CF8B3008F08B503D
:10502000811109C080E494E00E944F070E945D074F
:105030000C9405070895823019F48EEE93E0F4CFB6
:10504000813019F485EE93E0EFCF833019F48AE2D2
:1050500094E0EACF843019F48FE194E0E5CF853015
:1050600019F48FEE91E0E0CF863019F484EE91E0F0
:10507000DBCF873019F48DED91E0D6CF883019F46D
:105080008FE094E0D1CF893019F486E094E0CCCF62
:105090008A3061F686E394E0C7CF0F938FEE91E0FC
:1050A00041D310920F0160E082E086D580910F011C
:1050B000883009F043C00E94100783E40E94CC06A8
:1050C0000E940F03609170017091710180917201D3
:1050D0009091730103E026E440917F010E94B207A2
:1050E0000E945D0760917C0180917D010E940C050A
:1050F00090937901809378010E94170784E993E0E7
:105100000E944F0780917801909179018A3F2FEF9B
:10511000920780F422E044EF6EEF0E9496080E940E
:105120005D0788EE93E00E94B508882309F4B9CFA3
:105130000F9108958FE30E94CC06F1CF0E94820761
:105140000E941707ECCFA4E0B0E0E9EAF8E20C9483
:105150002C368AE294E0E6D280E1809380001092BF
:105160006F0081E090E09093890080938800109216
:105170008B0010928A0083E086BB1092820088E048
:105180008093810015B891E194B988B989E087B915
:10519000229A80938100BAE03B2E21E02C83812C5F
:1051A000912C5401839431E13B838C81632D0E94C7
:1051B0001135A92FB0E0A50194010E9497356B012C
:1051C0007C015B81523158F0652D762D872D912F12
:1051D000A5010E944435C60ED71EE81EF91E0E9486
:1051E00010078C81831104C011E09B81923108F477
:1051F00010E0212E8CE3111105C02B8182E52631B0
:1052000008F48EE30E94CC060E940B034B81C70179
:10521000B6010E94AB08C701B6017C5D8B409F4F71
:10522000A7019601220F331F441F551F0E944435CA
:10523000CA014F3F510509F008F497C08DE08093F3
:10524000810080E094E02C01712C612CCA01B9012D
:10525000A30192010E944435215031093093890005
:10526000209388008091880090918900892B31F4E7
:1052700041E050E050938900409388000E945D0710
:105280000E94170786E60E94CC060E940B038091BD
:105290008800909189009A83898360E072E18AE7AF
:1052A00090E0A30192010E944435A4E6B0E00E9480
:1052B000973529813A812F5F3F4F50E040E00E94AF
:1052C000443529013A01A4E6B0E0A70196010E9405
:1052D0009735A3019201261B370B480B590BCA01C6
:1052E000B90105E228E44EEF0E94B2078AE70E9466
:1052F000CC060E945D0780ED97E00E94B508883CCF
:1053000008F075C0813508F462C0112309F44DC05E
:105310003B8131503B83C501B4012AE030E040E0DD
:1053200050E00E94443549015A01C701B6010E946C
:105330004435CA01B9012AE030E040E050E00E9463
:105340004435262E9AE0392E0AC0FAE03F2E222458
:105350002394812C912C5401839441E14B832C8222
:105360005C2C6D2C7E2C1F2D20CF4034510530F04D
:105370008CE08093810080E091E065CF483051055A
:1053800030F08BE08093810080E490E05CCF892B4B
:1053900031F08AE08093810088E090E054CF89E08A
:1053A0008093810081E090E04ECF4B81463168F6DA
:1053B0004F5F4B83463111F485E1382EAAE0B0E00F
:1053C000A50194010E9497354B015C01C8CF8B3039
:1053D00018F05C815F5F5C832C81822F90E0632DED
:1053E00070E06F5F7F4F0E943135282EB8CF10924A
:1053F00081001092800088E087B914B82298249622
:10540000E2E10C9448364F925F926F927F928F92B6
:105410009F92AF92BF92CF92DF92EF92FF92CF9383
:10542000DF938FE194E07ED183E28093800010923D
:105430006F008FEF90E090938B0080938A0083E061
:1054400086BB1092820015B881E184B988E088B9E2
:1054500089E087B9229A21E030E0309389002093D7
:1054600088008093810090E0C2E3D0E084E6C82EFB
:10547000D12CE12CF12C88248A9423E0922EA12CAB
:10548000B12CC91799F1C43608F0C4562C2F30E05E
:10549000AFEFB3E00E9482356E5C7F4F8F4F9F4F1E
:1054A000A70196010E94443529013A0130938B00EF
:1054B00020938A000E941007A8EEB3E0A301920196
:1054C0000E94973561507E4F8F4F9F4FA5019401E9
:1054D0000E944435C90125E045E26FEF0E9496081D
:1054E0000E945D07D93210F00E94D40380E496E058
:1054F0000E94B508D82F833858F48AE0D33320F4BB
:105500008C2FDD2311F081E08C0F9C2FC82FB9CF99
:1055100088E087B9109281001092800014B8229818
:10552000DF91CF91FF90EF90DF90CF90BF90AF9041
:105530009F908F907F906F905F904F9008950F9302
:105540001F93CF938FE094E0EDD085E090E00E9430
:10555000BF36C82F0E9410070C2F0C2E000C110B09
:10556000C7FF1CC00E940D0323E045E26FEF8827B0
:105570009927801B910B0E9496080E945D0780E48A
:1055800096E00E94B5088238A0F4882319F0893289
:1055900050F0CF5FC1354CF0C556DCCF23E045E27B
:1055A0006FEFC801E8CFC150F5CFCC3E9CF6CB5988
:1055B000D1CF6C2F85E090E00E94CC36CF911F9127
:1055C0000F9108950F931F93CF9385EE93E0AAD088
:1055D00084E090E00E94BF36C82F01E010E00E94F6
:1055E000100723E040E260E0C8010C2E02C0880FE3
:1055F000991F0A94E2F70E9496080E945D0780E4D2
:1056000096E00E94B508823878F4882319F0893230
:1056100048F0CF5FC13820F4CA3008F3C0E0DFCFD4
:10562000C9E0DDCFC150F6CF6C2F84E090E00E943E
:10563000CC36CF911F910F910895813011F4C2CFD4
:105640000895823019F480E081C00895833011F408
:105650007ACD0895843011F4D6CE0895853011F4B2
:105660001CCD0895863011F4C5C80895873021F403
:105670000E94430770C90895883011F460CF0895DF
:10568000893021F481E10C94B20908958A3009F43B
:105690004DC408950F931F93CF93DF938BE494E051
:1056A00041D0C0E00E940507D8E28DE30E94C60306
:1056B000D150D9F78BE494E035D019E01C0F01E00C
:1056C0000D0F60E0802F0E942507D230F1F48EE3A9
:1056D0000E94CC0685EF810F1B3008F4812F9DDCE2
:1056E0001F5FD02F053059F790E080E00E94B50889
:1056F000823370F0CC2381F08C2F9FDF8BE494E019
:1057000011D0CB3078F2CB50CDCF0E940B03E2CF3B
:105710008823B9F3CF5FF5CF80E0DF91CF911F9160
:105720000F910895CF93DF93EC010E944307CE01C0
:105730000E944F07C4E60E94DB034F9902C0C1508C
:10574000D1F70E941007DF91CF910895A8E0B0E053
:10575000ECEAFBE20C942C368EEE93E0E3DF84E07F
:1057600090E00E94BF3621E030E002C0220F331FDC
:105770008A95E2F73D832C832130310559F06FE0A3
:1057800080E00E9425078FE20E94CC068C819D81DB
:105790000E94010330EF3B8354980E94E10314BC44
:1057A00016BC109203011092040110920501109290
:1057B000060161E065BB60936E001092800085E297
:1057C00094EF90938B0080938A00E1E0F0E0F093F7
:1057D0008900E0938800109285001092840083B5C0
:1057E000816083BDF6E0F6BBF0936F00789424E00F
:1057F0002093810032E339831A820E94DA03A8954C
:105800004F9902C061E06A8385B5882329F08981B8
:10581000815089838111F1CF15BC86B58093030136
:105820000E9417070E945D070E941E070E945D07E5
:105830000E94820786E60E94CC060E940F0384E045
:1058400090E00E94BF36E1E0F0E002C0EE0FFF1FE3
:105850008A95E2F7FF83EE832091030130910401E2
:105860004091050150910601DF010E94973547E004
:105870000E94AB08549880918100882319F08FE32F
:105880000E94CC061092810010926F0020910301BB
:10589000309104014091050150910601DA01C901DE
:1058A0000197A109B1098336934CA105B10508F010
:1058B0009BC0AAE0B0E00E949735605F7F4F8F4F9A
:1058C0009F4F24E096958795779567952A95D1F710
:1058D000660F771F709364016093630154980E9470
:1058E000E10316BC1092030110920401109205010D
:1058F0001092060121E025BB20936E0010926601F4
:105900001092650134E03BBB809168008460809315
:105910006800789480916D00806180936D00198299
:105920000E94DA03A8954F9902C061E06A838091D2
:105930006D0084FF05C089818F5F89838A3F81F76D
:1059400015BC80916D008F7E80936D008091680002
:105950008B7F8093680086B5809303010E941707B0
:1059600084E50E94CC060E940F03E0916301F09150
:105970006401FD83EC8360910301709104018091C7
:1059800005019091060124ED30E340E050E00E94D3
:10599000A735EC81FD815F01C12CD12CE12CF12CCC
:1059A00000E010E00E94D035EE81FF81612C712C67
:1059B00043015F010E94D035490148875E831B0186
:1059C0002C012C813D812038310500F107E023E7CF
:1059D00045EFB4018885952F0E94B20739813A3F7F
:1059E00069F58FE30E94CC0610926E0080ED97E07F
:1059F0000E94B5082A81820F29F43B8131503B83F4
:105A00003111CACE2896E2E10C94483684E6A82EDD
:105A1000B12CC12CD12CE12CF12C00E010E0940130
:105A200048855E81C2010E94D035F22FE42F07E045
:105A300023E747EF6F2F732F8E2FCDCF940148852B
:105A40005E81B101C201263E354B4105510561051C
:105A500071058105910541F238F20E941E0786E624
:105A60000E94CC060E940F03940148855E81B1011B
:105A7000C20154012115FAEC3F07FAE94F07FBE395
:105A80005F076105710581059105F1F0E8F06A0194
:105A90007101820120E030E04AE85DE568E775E4E5
:105AA00083E691E00E94D035F22FE42F07E028E44E
:105AB0004AEF6F2F732F8E2F952F0E94B2078AE720
:105AC0000E94CC06549890CFC884DE807101820178
:105AD00020E030E44AE750E163EF7AE580E090E0CF
