:10000000E2C20000F2C20000F0C20000EEC2000036
:10001000ECC200000C94C12DE8C20000E6C2000052
:10002000E4C20000E2C20000E0C200000C94A52D72
:100030000C94B32DDAC20000D8C20000D6C2000072
:100040000C947F2DD2C20000D0C20000CEC20000AE
:10005000CCC200000C940A09C8C20000C6C200004D
:10006000C4C20000C2C20000E62FF72F903009F48E
:100070009395E5B8C4B8B7EFB0937A00A5E0A09324
:100080007B00A8E0A093810010928000AFEFA093C6
:100090008500A0938400A6E0A093360010928B0008
:1000A00010928A00B6E0AFE7A91B51E0392F363035
:1000B0002AF0A058B94F53953650F9CFB093890024
:1000C000A0938800A0917A00A4FFFCCFB7EBB09377
:1000D0007A00A2E0A0936F00A9E0A093810062E003
:1000E000A0E0A0937B00A1E0A09353008895E5B821
:1000F000C4B884FF19C0A3E4AA95F1F7EF93FF9366
:10010000E7B1F8B1A4E0C2FCA2E0C0FCA1E0BF2FBF
:10011000BA2BAE2BB8B904B9A7B9E7B9F8B9FF91B2
:10012000EF910AC00C947300A7E40000AA95F1F7C0
:1001300025B9E5B8000004B9A0918400A09185001C
:10014000B0918900A395AB1768F7A0917A00A4FF3E
:10015000F3CFB7EBB0937A006A9571F760917800AE
:1001600070917900308186FD630F6193308186FD47
:10017000731F80FF7193652F4A9579F710926F0076
:1001800010928100B7E0B0937A00089549647373C8
:100190003D00206574613D00554A5400505554009F
:1001A000312D032D3320342D33306E46284C290059
:1001B0005245465F523D005245465F433D00203E5A
:1001C0003130306E460066706EE46D006B4D010498
:1001D00010090A0C5244533D005B435D00312D036E
:1001E0002D332000312D04052D77772D332000434A
:1001F0002B455352405450313A3300433073616DB4
:100200007020004330200052695F4C6F3D005269FE
:100210005F48693D0052303D0052482F524C002B40
:1002200052482D203132203133203233002B524CB2
:100230002D2031322031332032330052482B0052EE
:10024000482D005248663D005265663D00494345D1
:10025000733D00494345303D0056657273696F6ECA
:1002600020312E31336B002D77772D002D04052D95
:10027000002A012020007A20513D002069662000DC
:100280002040302D3556002D022D002D012D004E21
:100290006F742063616C69627261746564212046C9
:1002A0006F72FF63616C6962726174696F6E206363
:1002B0006C616D70207468652033FF70696E732007
:1002C000746F67657468657220616E642073746111
:1002D0007274207769746820746865FF6B65792E85
:1002E0002041636B6E6F776C656467652074686529
:1002F0002073656C662D746573742077697468204B
:10030000746865206B65792077697468696EFF325F
:10031000732E20446973636F6E6E65637420706919
:100320006E7320616674657220746865FF6D657315
:1003300073616765202269736F6C617465FF507229
:100340006F626521222069732073686F776E2E209B
:10035000536F66747761726520616E6420646F63A9
:10036000756D656E746174696F6E20697320617458
:10037000206769746875622E636F6D2FFE6B7562FE
:100380006934380049723D004C3D0020566C6F7353
:10039000733D00204553523D005643433D004365A5
:1003A0006C6C21002D032D004056673D00205674D3
:1003B0003D0055663D005562653D00203132333DBC
:1003C00000504E50004E504E0043673D0068464579
:1003D0003D002D49474254004A464554002D4D4F9B
:1003E00053004F4B00462D5363616C65720046729B
:1003F000657175656E63790073686F7274205072F1
:100400006F626573210053656C6674657374004395
:1004100028E44629636F7272656374696F6E0031F8
:10042000302D6269742050574D00662D47656E650A
:100430007261746F720053686F7720646174610039
:100440005472616E736973746F720053656C656387
:1004500074696F6E3A005465737420456E64006968
:10046000736F6C6174652050726F62657321005305
:10047000656C6674657374206D6F64652E2E005410
:10048000696D656F757421002064657465637465BA
:1004900064004E6F2C20756E6B6E6F776E2C206F24
:1004A000720020756E6B6E6F776E0054687972699A
:1004B00073742E0054726961630070617274006419
:1004C000616D61676564200054657374696E672EA1
:1004D00000B903870358032E030703E402C302A4F1
:1004E0000288020000140029003E005300690080C9
:1004F000009700AE00C600DF00F80012012D014990
:100500000165018201A001BE01DE01FF012102445B
:100510000268028E02B502DE020903350364039409
:1005200003C803FE0337047304B404F904430593BA
:1005300005EA054906B3062907AE074808FF08DEA5
:1005400009FD0A930C480F991B705780508D4A661D
:1005500045E340E83C5E3933365A33C6306D2E49A8
:100560002C532A8428DA264E25DF2389224A21208B
:1005700020081F011E091D201C431B731AAD19F111
:10058000183F189517F4165A16C6153A15B31432B3
:1005900014B7134013CE126112F81193113111D315
:1005A0001078102020202020202020202020202013
:1005B000202020202020202020202020202020203B
:1005C000205B524C5D0011241FBECFEFD8E0DEBF90
:1005D000CDBF21E0A0E0B1E001C01D92A73BB20772
:1005E000E1F70E949D0D0C9409370ACD97FF09C0D1
:1005F0008F939F938DE2D0D39F918F91909581950A
:100600009F4F67E171E04AE050E00E94A83645C480
:10061000EDDF01C0EBDF80E2BFC38DE2BDC38DE340
:10062000BBC3EF92FF920F931F93182F062FF42E48
:100630008BEB93E034D4EE24E0913201F09133015E
:100640008685E81611F4812F09C08485E81611F417
:10065000802F04C08585E81611F48F2D9DD3E39477
:100660008E2D833049F71F910F91FF90EF900895E1
:10067000682F80E092E0662309F491E0623009F48B
:1006800081E008950F93082FEFE9F1E0880F880FBC
:10069000E80FF11D6081718182819381643671055B
:1006A0008105910568F42091150127FD09C0802F6F
:1006B000DFDF692FB1D16EEF23E044EF32D504C004
:1006C0004FEF04E024EF4ED4A6DF0F91089586305B
:1006D00058F4EEE8F1E0E80FF11DE80FF11D80811C
:1006E000918163E029D597CF08951F93182F8091AA
:1006F0006901882319F08FDF80E04ED391D382EB1C
:1007000093E0CDD3812F82958F70E1DF812F8F70A1
:10071000DEDF1F9108958091020182958F7018D0BD
:100720008091020183701AD080910201DECFE2E84D
:10073000F1E0E80FF11D0895CF93F9DF9081C681B4
:10074000C91710F405D001C012D065DFCF9108950C
:10075000EEDF8F93808156D38F9100C08F938BE80B
:1007600092E09DD38F91E3DF86814CC30895DFDF54
:100770008F93868147D38F9100C08F9387E892E053
:100780008ED38F91D4DF80813DC308959091C000B6
:1007900095FFFCCF8093C600089503D002D001D00E
:1007A00000D000D003D002D001D000D000D003D0C0
:1007B00002D001D000D000D0A89503D002D001D043
:1007C00000D000D003D002D001D000D000D003D0A0
:1007D00002D001D000D000D003D002D001D000D090
:1007E00000D000000895E7DFE7DFE6DF1F93182F52
:1007F000106410937C00E12FE07880912201E817CB
:1008000051F0E0932201D7DF87ED80937A00809149
:100810007A0086FDFCCF20E030E0A901E0E01EC0B8
:1008200087ED80937A0080917A0086FDFCCF6091FD
:10083000780070917900260F371F411D511DE4305B
:1008400061F480912401803041F084E02030380749
:1008500020F417FD02C01068CCCFEF5F809121011A
:10086000E817F0F2609125017091260117FF04C08E
:10087000609123017091240180E090E00E941E3578
:100880002FEF33E040E050E00E946035B901CA012B
:100890002091210130E040E050E00E946035C90124
:1008A0001F9108959B01281B390B50F0C901089531
:1008B000BC0180912501909126016817790718F4F1
:1008C000861B970B089580E090E0089589E290E000
:1008D0000E94E3362091290130912A01280F391F07
:1008E00020930B0130930C0183E0283E380720F061
:1008F000C901885E934002C080E090E062E370E04E
:100900000E943935683008F067E0E1EDF4E0E60F69
:10091000F11DE60FF11D459155912591359162E349
:10092000681B421B530B649FC001659F900D1124EF
:10093000499662E370E00E943935620F731F70932D
:100940006B0160936A018BE290E00E94DB3699278D
:1009500087FD90956091290170912A01860F971F5C
:100960009093240180932301909368018093670101
:1009700008950F9221E08C32920710F48CE291E0FE
:100980008C52914069E170E00E94393599E16B32F7
:1009900010F0982F6BE2981BE9E4F5E0E60FF11DEB
:1009A000E60FF11D4591559125913591692F421B17
:1009B000530B649FC001659F900D11240C9669E153
:1009C00070E00E943935620F731FCB010F900895BC
:1009D000CF93DF9324E130E0B9010E943935DC0187
:1009E000E3EEF4E0E60FF71FE60FF71FC591D59190
:1009F000459155914C1B5D0B4A9FC0014B9F900D3B
:100A00005A9F900D1124B9010E9439356C0F7D1F3A
:100A1000CB01DF91CF910895AEE1B0E0E2E1F5E0E6
:100A20000C944836662EB82E860F898320910F01CC
:100A3000283059F520917001309171014091720177
:100A40005091730157FD15C010917F0109C0CA0173
:100A5000B9012AE0312D412D512D0E9460351F5FD3
:100A6000173FACF391F4243160E03607410551059E
:100A700018F48FEF9FEF40C1173F39F480E028173B
:100A80008DE738074105410510F020E03DE72C8B4C
:100A90003D8B27EDA22EE1EDF1E0E60DF11D8591F4
:100AA00088608E87E1EDF1E0EB0DF11D85918860A6
:100AB0008F87EEECF1E0E60DF11D7590EEECF1E0C4
:100AC000EB0DF11DC59090EC692AB92A81E0E82E62
:100AD000F12C012D112D8E831F82188619861A86FE
:100AE0001B861C861D86188E198E1B8E1A8E0E94E0
:100AF000F91E88E088B960927C005DDE3F8537B9D9
:100B000075B874B855E05A95F1F7000014B815B8E7
:100B1000DD243E8537B975B874B860927C00A8951D
:100B2000A0927A0080917A0086FDFCCF2090780018
:100B300030907900B0927C004C2DE2D0209178006A
:100B400030917900288B398B3F8537B9C5B8C4B847
:100B5000A895B0927C00A0927A0080917A0086FDE0
:100B6000FCCF609178007091790060927C00472DF5
:100B7000C7D0409178005091790014B8CB01820D14
:100B8000931DE80EF91E011D111DEA82FB820C83E4
:100B90001D8388899989840F951F2E813F816885DF
:100BA0007985280F391F611D711D2E833F8368874A
:100BB000798722E32417150648F075B874B810DE5B
:100BC00014B815B8888D8395888F07C0483E73E0A8
:100BD000570718F08A8D83958A8F888999892817F5
:100BE000190658F03E8537B9C5B8C4B8F9DD14B850
:100BF00015B8898D8395898F07C0883E73E0970764
:100C000018F08B8D83958B8FD3945D2D5F3F49F0CA
:100C10005F3731F45C2D550FC50E572D550F750EEE
:100C200078CF40902E0150902F01440C551C92011A
:100C3000E4E0240D351DEA95E1F72901570168012B
:100C40006E807F808884998420910F012830C1F4C0
:100C50006C897D89812D912D655070408040904038
:100C60009B01AC010E941E359B01AC0160E779E756
:100C700086E190E00E946035621A730A840A950A40
:100C8000A614B704C804D90428F46A187B088C0891
:100C90009D0803C0662477244301B20180E090E000
:100CA0009301A4010E941E359501A6010E946035A2
:100CB00080E090E07981870F911D0E94DB36682EDD
:100CC000C90160E170E00E943935260F371FC90164
:100CD0006816190618F4861991090EC08C5E9F4F8C
:100CE0008615910538F48C899D89843981E19807AE
:100CF00008F0CAD6812D912D6E96E2E10C946436EF
:100D0000109281001092800010926F0010928B0060
:100D100010928A0057E056BB5FEF509385005093C6
:100D2000840055E050937B0057EB50937A0051E0DC
:100D3000509381005FE45A95F1F70000000045B937
:100D400044B95BE05A95F1F714B815B810928100D8
:100D500080917A0084FFFCCF80937A000895CF932E
:100D6000DF93EC018991811103C0DF91CF91089548
:100D70000DDDF8CFCF93C82F1C1614F0CF91089536
:100D80004ADCC150F9CF80913101809300018091FC
:100D90009E01809301010895909131019F5F90938E
:100DA0003101863048F48430F8F4823089F0D0F490
:100DB000813051F0EBCC0895843EC1F0843FC1F006
:100DC0008D32C1F78DE2F6CF8EE3E0DC8CE703C015
:100DD0008CE7DCDC8CE3DADC809131018F5F80937F
:100DE000310108958CE7F1CF82E5E4CF85E7E2CFCA
:100DF0008FE4CCDC88E6CADC8DE6C8DC809131016A
:100E00008E5FEDCF8F5CC8CF08958DE0BFDC8AE0A8
:100E1000BDCC089510929E0110923101F6CF089535
:100E200081E080939E0110923101EFCF089582E01E
:100E300080939E0110923101E8CF089583E0809362
:100E40009E0110923101E1CF089580939E0160933D
:100E50003101611101C0D9CF0895609100018091E5
:100E60000101F3CF0895089582E08093C0001092AD
:100E7000C50080E18093C4008EE08093C20088E1C9
:100E80008093C1000895CF93C0DFC8E280E27EDC8A
:100E9000C150E1F7BFDFCF91089561CF0895CF939F
:100EA000DF93EC01FE018491982F9F7719F074DF96
:100EB0002196F8CFDF91CF9108959091310188E28A
:100EC000891B58CF0895CF93C82FF7DF80919E01DB
:100ED0008F5F80939E01803158F08FE080939E0158
:100EE00081E080933401C09331018FDFCF91089569
:100EF00010923401F8CFE7DF6AC108958BDFDDDFA0
:100F000089CF08958DDFD9DF8BCF08950F9389ECBA
:100F100093E0C5DF40917E014D3F6CF460916C0120
:100F200070916D0180916E0190916F0103E026E454
:100F300019D00F9108958FE32FDFFBCF90910E0111
:100F40009F70923071F4D7DF84ED91E0A8DFE091DB
:100F50003201F091330122E044EF6FEF84819581FB
:100F6000E0C00895AEE0B0E0E8EBF7E00C9448365E
:100F7000142F322E202E6B017C010F7080E38983A9
:100F80008A838B838C838D838E83F7FE3FC045DB02
:100F9000F094E094D094C094C11CD11CE11CF11CCD
:100FA00068EE462E63E0562E612C712C033041F121
:100FB00050E1452E57E2552E612C712C043001F181
:100FC00040EA442E46E8542E66246394712C053082
:100FD000B9F030E4432E32E4532E3FE0632E712CFF
:100FE000063071F074E6472E512C612C712C0730BD
:100FF00039F420E8422E26E9522E28E9622E712C7F
:101000009AE0892E912CA12CB12C12C025FEC8CFBC
:101010008BE2C2DEC5CFC701B6016B5F7F4F8F4F3A
:101020009F4FA50194010E94603569017A011F5FFD
:10103000C414D504E604F70470F7E1E1E10F9BEA7C
:10104000E99FE12D11247E2E769486E0811B899FF5
:10105000112D11241695912F990F190F811B182FFF
:101060005E0187E0A80EB11C2AE0A501C701B60108
:101070000E948736F50101900020E9F731976F0152
:10108000CA18DB082C2D5601BB24812F90E0049652
:101090008A159B0514F473941D5FE72DF0E0EA5365
:1010A000FE4FF49024FE29C0201738F50C198C2C23
:1010B000811A800E181424F08EE26EDE012F0C19B6
:1010C000111102C088EF882EE12C10E0A00EB11E95
:1010D000C82C082C000CDD08EE2DF0E0EA15FB050D
:1010E00074F0FF2011F08F2D57DE332011F0832D87
:1010F00053DE2E96E2E10C94643600E0D8CF3696AB
:10110000E01BF10B81E090E08C0F9D1FE80FF91FB1
:10111000808142DEE394EC141D04F1F68EE23CDEA5
:10112000DBCF0F93362FBC0190E080E0022F242FFD
:10113000432F18DF0F9108950F93062FBC0190E005
:1011400080E026E54DEF0EDF0F9108950F93042FF9
:1011500028E440E007DF8AE71FDE5DDA0F9108959B
:10116000EF92FF920F931F93CF93DF93F82EE92E08
:10117000C5E64F9B1BC0CF2DDE2D15E500E0D7FD4A
:101180000FC019DB110F4F9B1F5F1F731F3391F4AB
:10119000011103C0CF2DDE2D04E00F5F083C70F07D
:1011A000802FCDB7DEB7E6E00C94703605DBC1507A
:1011B00001F7E1CF111102C00111F2CFA8951C1661
:1011C0001D06ECF62A97D9F6CFEFDFEFD8CFCF93F5
:1011D000DADDC82F809134018823D1F0813051F4B9
:1011E000CF3041F467E28FE030DE8BE2D5DD67E29D
:1011F0008FE02BDE80E49FE1B3DFCF3041F48091BC
:101200003401813021F460E08FE01FDE56DE25DE00
:10121000CF910895189540910D01A0913201B091A0
:101220003301E2E8F1E030E020E0822F2417B0F44F
:1012300051911C969C911C97591719F05581951343
:1012400003C02F5F3F4FF1CF220F331FF901E25749
:10125000FE4F20813181293E334008F084E108951A
:1012600010920F0110920D01109262011092440130
:1012700010920E011092300110926901EDE4F1E03C
:10128000108211821282ECE6F1E0108A82E0818BFA
:1012900010921501178616861482158216821782FF
:1012A00081EF838B08958FE471DA86E46FDA86E448
:1012B0006DDAABDD5E9874DA90E080E051CF08958E
:1012C0001F93CF93DF93162F98E097B998B9E82F23
:1012D000F0E0E253FE4F949195B9262F281BE20FC0
:1012E000F11D27FDFA95E491E92BE4B97FDAEC01D1
:1012F000812F7CDAAC0120912501309126013695B1
:101300002795C9010397BE01625E7F4F8617970735
:1013100078F4255E3F4FC217D30750F4BA01625EDE
:101320007F4F8617970720F481E04217530708F094
:1013300080E014B8DF91CF911F910895CF9361E0C1
:1013400080E0BEDFC82F62E080E0BADFC80F62E055
:1013500081E0B6DF8C0FCF910895AFE0B0E0E3EB12
:10136000F9E00C944836B82E10920F01807FB9F442
:10137000E5DF833081F487DD8FE694E090DD50DD9A
:101380008FE30ADD80ED97E0EBDE8B30B0F47BDDA0
:1013900089E592E084DD2F96E2E10C94643606E95B
:1013A00010E071DD88EF93E07ADDC8DF833009F06B
:1013B00065C01F5F143008F462C032DD0E947422E1
:1013C00085E192E06CDD60E082E090E00E94E8362A
:1013D00060E083E090E00E94E83660E081E090E029
:1013E0000E94E83660E082E017DB6C019A83898313
:1013F00061E082E011DB7C019C838B8360E081E013
:101400000BDB8C019E838D8323E040E26EEFC601EF
:1014100088DE23E040E26EEFC70183DE23E044EF85
:101420006EEFC8017EDE2AE5C216D10424F084E105
:1014300090E09A838983698182E090E00E94E83697
:101440008AE5E816F10424F084E190E09C838B8324
:101450006B8183E090E00E94E8360A35110524F0A4
:1014600084E190E09E838D836D8181E090E00E9415
:10147000E83682E080933401AADE05C010E095D9F9
:10148000015009F08ECFEB2DEF70EF87E13009F0BE
:101490004CC0EE24E394F12C78EB872E72ED972E5E
:1014A00077E4A72EB12CE2E0DE2E08E0F0E23F2E3A
:1014B000C12C1E2D50E3252E25DD20DD84E56CDCBE
:1014C000C7019FD8A8D8113009F0C6C188E492E0BE
:1014D000E6DC64E08091290190912A012DDEA0DCF8
:1014E00083E492E0DCDC80916A0190916B0189D801
:1014F0008EEB8093210107B908B914B815B888EEAE
:1015000093E02EDE143011F08B3020F4C39484E08D
:10151000C812D2CF88EE93E023DEEFEFEE1AFE0A78
:10152000F8E0EF16F10409F0C3CF18E707DF8823CE
:1015300039F0E8DC8FE594E0B2DC34D91150B1F732
:10154000A2DC8EE092E0ABDC23E044EF6FEF809111
:10155000270190912801E5DD63DC87E092E09FDCC4
:1015600023E044EF6FEF80912E0190912F01D9DDA0
:1015700082E0809334012BDE10920F0184DC83E043
:1015800092E08DDC60E082E00E94C81F4090740110
:101590005090750160907601709077015C864B8663
:1015A00061E082E00E94C81F8090740190907501F4
:1015B000A0907601B09077019E868D8660E081E0F4
:1015C0000E94C81F00917401109175011E830D8344
:1015D00062E080E00E94C81F8091740190917501C3
:1015E0009C838B8362E081E00E94C81F809174011C
:1015F000909175019A87898761E080E00E94C81FF9
:10160000E0907401F0907501FA82E982C20102D87B
:10161000C40100D8B801110F880B990B03E026E430
:1016200044EFA0DC2F85213029F080912D018230FC
:1016300009F002C282E0E80EF11CF886EF828E010A
:101640000F5F1F4F9E01215F3F4F7801F70181918E
:1016500091917F010A97853B9105C8F42E173F07AA
:10166000A9F742E2C42E40E0D42EF80160810E5F5B
:101670001F4F6E5EC6010E94E836FFEFCF1ADF0AE9
:101680000E151F0591F7CCDB82EE93E008DC82E0BB
:10169000809334019CDD0E94C2312F85213029F0D6
:1016A00080912D01823009F0C2C0EDDB80E0AADB21
:1016B00084EA93E0F4DB82E0A5DB8EEB91E0EFDBE4
:1016C00020E4F22E10E03AE0832E912CA12CB12CD4
:1016D000C7DD10920F0160E082E00E94C81F0091F8
:1016E0007E0120916C0130916D0140916E0150910D
:1016F0006F01073F0CF4A7C100937E0120936C019A
:1017000030936D0140936E0150936F01073F09F0D4
:10171000A2C12056310941095109203935454105F9
:10172000510508F098C16091800170918101CB0151
:101730008B569F4F8B32914008F08DC11F5F153043
:1017400008F48AC189E290E00E94F6369CDB87EBC0
:1017500091E0A5DB80918001909181010E94F602C9
:10176000B5D888E088B989E087B980E284B982E099
:101770003DD8853D9340DCF714B8109224011092B7
:10178000230182E033D87C01809167019091680148
:10179000909324018093230182E028D86C01CC0C23
:1017A000DD1C109224011092230182E01FD84C010D
:1017B000A0906701B0906801B0922401A09223012B
:1017C0002FDB80EB91E06BDB8BE290E00E94DB365D
:1017D000182FD701A80DB91DAC19BD0995010E949C
:1017E000AD3596010D2C000C440B550B0E94823533
:1017F0001D5F120F612F8BE290E00E94E836812F6F
:10180000012E000C990B0E94F60260D882E08093B2
:101810003401DDDC10922D018CE025DB82E290E0CA
:101820000E94DB36682F85E290E00E94E83689E16D
:101830008093210180E00E94DA3425DB89E592E083
:101840002EDBEEDA86E594E02ADB10920F0182E0CF
:1018500080933401BCDC9FCD123091F5209125019D
:1018600030912601A8E5BBE10E949E3524EC36E3C9
:1018700040E050E00E948235290181E085B9F5E021
:10188000F4B980E00E94F303841995099A8389834F
:1018900081E184B980E00E94F303841995099C8357
:1018A0008B8384E085B984E184B981E00E94F303ED
:1018B000841995099E838D838DE292E0F0DA36C01B
:1018C000133061F5D5B82AE024B980E00E94F30313
:1018D00020912501309126013695279538872F8351
:1018E000821B930B9A83898382E284B980E00E94F1
:1018F000F3032F813885821B930B9C838B8305B95F
:10190000E8E2E4B981E00E94F3032F813885821B6D
:10191000930B9E838D838FE192E0D0CF1430C1F47E
:101920008FE594E0BCDA0ADD8111ABC079DA8981F8
:101930009A810E94F6020E940B038B819C810E9477
:10194000F6020E940B038D819E810E94F602D3CD88
:101950001530B1F415B8D4B880E00E94F3039A832F
:10196000898304B981E00E94F3039C838B8334B89C
:1019700082E00E94F3039E838D838FE392E09ECFEB
:10198000163051F5D4B8D5B880E00E94F303209109
:10199000250130912601821B930B9A83898304B918
:1019A00005B981E00E94F3032091250130912601C1
:1019B000821B930B9C838B8334B835B882E00E94E2
:1019C000F3032091250130912601821B930B9E8306
:1019D0008D838BE392E072CF173009F0A7CF20916F
:1019E000250130912601A8E5BBE10E949E35A501A5
:1019F00094010E9460352901D5B8F3E0F4B980E084
:101A00000E94F303841995099A83898305B92CE010
:101A100024B981E00E94F303841995099C838B8388
:101A200035B824B882E00E94F303841995099E8397
:101A30008D8389E192E042CFF886EF8210922D01EA
:101A40008CE011DAFCCD0F5FCA01B901A501940148
:101A50000E9460354ECE10E0E3D960916C01709128
:101A60006D0180916E0190916F0104E026E4409138
:101A70007E0178DA22DA0E94D503FA94F11028CE9A
:101A8000D6CE82E0C82E52CF80912D0181110DC09B
:101A900082E290E00E94DB3661E0680F85E290E030
:101AA0000E94E83681E080932D010895EF92FF9225
:101AB0000F931F93CF93DF93D62FE82FF0E0EF52D1
:101AC000FE4FE491E8B9E860E7B915B8E62FF0E019
:101AD000E253FE4FE491E4B9CE2FCC0F88E8E82E14
:101AE00083E1F82E8D2F0E94F3038C01C4B98E156B
:101AF0009F0508F1892BD1F0A1D984E893E0CFD9D3
:101B0000D80120EA36E841E050E00E94B33528E9E8
:101B100037EB40E050E00E946035C90122E041E42B
:101B200067EFFFDA88E087B988B914B8CDB7DEB7B8
:101B3000E6E00C9470367801D5CFB0E0A0E0E3EA9F
:101B4000FDE00C94483680E48AB98BB987E880932D
:101B50007A001092C1000E94D203C4B7C87084B743
:101B6000877F84BF0FB6F894A89580916000886144
:101B700080936000109260000FBE789475D9C111F7
:101B800070C580E185BF0E94AC30109222010E9496
:101B9000742298E0692E20E1422E38E1532E43E56D
:101BA000C42E41E0D42E53E3252E61E2362E6BD9AC
:101BB00067B856DB0E9474222DD989E592E06FD96F
:101BC00080913001882361F02BD989E993E067D9AE
:101BD00063E08091250190912601AEDA0E94D10345
:101BE0000E94F91E80910F01893021F54CD98EE9B0
:101BF00093E055D915D963E0809147019091480150
:101C00009BDA0E940B0363E08091490190914A01A5
:101C100093DA0E940B0363E080914B0190914C0199
:101C20008BDA0E94D00381E198DB809107019091CB
:101C30000801E5C18CE017D985E290E00E94DB360F
:101C4000C82F82E290E00E94DB36C81BC0932D01B2
:101C5000CC2311F08EE007D980E07FDB53D988ECEC
:101C600094E01DD983E00E94C603CFD842E061E032
:101C700080E036D542E060E081E032D541E062E0CC
:101C800080E02ED541E060E082E02AD540E062E0CD
:101C900081E026D540E061E082E022D580910F010D
:101CA000811116C083E478D80E94F91E60E082E0BA
:101CB0000E94C81F8BE470D861E082E00E94C81FB8
:101CC0008BE46AD860E081E00E94C81F8BE464D88E
:101CD00080910F01833061F480910D01823041F4D5
:101CE0009091820180918301981302C00E94FD2E81
:101CF00005D945E351E0509333014093320180917F
:101D00000F018630B1F48BEA94E0C9D841E467E46E
:101D100083E40E94110384D882EB93E0C0D8E09161
:101D20003201F091330162E08481958105DA6DD84A
:101D30007CCF873039F484EB94E0B1D842E367E498
:101D400081E3E7CF8A3059F48CE991E0A8D8D092AA
:101D50003301C092320143E467E481E4DACF823098
:101D600009F03BC088E991E09AD842E365E481E359
:101D70000E94110380E0A7D8609143018091420145
:101D8000E62FF0E0E35BFE4FE80FF11D3197108284
:101D90000E94DF1CE091430180914201E80FFF2780
:101DA000FF1FEE0FFF1FEE0FFF1FE556FE4F608176
:101DB00071818281938102E024EF4FEFD3D882E9D1
:101DC00091E06DD860913F017091400190E080E01A
:101DD00003E025E240E0C6D828CF8830D1F48091D6
:101DE0007C0190917D01890F9927991F029769F4D1
:101DF0000E94B7248CE037D880912D01882309F404
:101E0000D6CED0E110E000E005C480E00E943F247F
:101E10000CCF833009F0FFC080910D01813009F0B3
:101E200065C080E00E949C036091820180918801DE
:101E30003DDE80E70E94750340E060918201809161
:101E400088010E94113160936C0170936D01809341
:101E50006E0190936F0180E04ED860916C0170919B
:101E60006D0180916E0190916F0102E026E442EFD6
:101E700079D80E940D0341E0609182018091880130
:101E80000E94113160936C0170936D0180936E011B
:101E900090936F0126E442EF65D880E892E00E94BB
:101EA0004F070E9405070E9405078091690188235A
:101EB00009F4BBCE57B867B880E01DD830916901EE
:101EC000332309F467C380915001313009F0FEC219
:101ED0000E94380320915001213009F0F2C2209174
:101EE0000D012111EEC20E94062484CF823079F5C3
:101EF00082E30E94CC0681E792E00E944F07909116
:101F0000820130918301931308C080E00E94B703DF
:101F100081E00E94AE0381E08DCF20918801809105
:101F20008901281307C080E00E94A80381E00E9475
:101F3000BD03F1CF321306C081E0809302010E94FD
:101F40008B03B1CF98133DC040920201F8CF83308C
:101F5000C1F520920201809188019091830189133B
:101F600003C021E020930201409182013091890158
:101F7000431302C04092020120918401821303C0E6
:101F800082E08093020180918A01481303C040E2FD
:101F90004093020132130DC022E1209302019817F1
:101FA00051F083E30E94CC0681E792E00E944F0744
:101FB000C6CF981302C03092020180910201823292
:101FC00080F38AEB94E00E944F0782EA94E00E943B
:101FD0004F070E94100780910D01805D0E94CC0682
:101FE0008AE20E94CC068BE892E00E944F0788E8C4
:101FF00094E00E944F070E94050780E49FE157B8D4
:102000004F9BFECFADD8823308F4D1C20E94502B33
:102010008111FCCFCCCD843009F04DC1809162019B
:10202000882309F45DC080914401882309F458C0D5
:1020300060914101809143010E94C81F80906C0112
:1020400090906D01A0906E01B0906F01C0917E01E3
:102050006091610180915F010E94C81F80913501EC
:1020600090913601A0913701B09138014091530110
:10207000509154016091550170915601843F21E0C7
:102080009207A105B10538F4443F21E052076105EC
:10209000710508F0C0EF443F51406105710540F4FF
:1020A000843F9140A105B10518F050EF50937E0197
:1020B00080917E018C130FC080916C0190916D0115
:1020C000A0916E01B0916F0188169906AA06BB0611
:1020D00020F08CE003C0C817E4F78DE080930E0178
:1020E00080916201882361F080914401882341F04E
:1020F0004F9906C080910E0191E0892780930E01CF
:1021000080910E018C30F1F485EC93E00E944F0732
:1021100080916201882319F080E70E94CC060E941A
:102120000B0379D8C82F853048F580910E018C308B
:10213000B9F481E020914201909143019217B8F0E7
:1021400080E015C0D0923301C092320181EC93E05F
:102150000E944F0780914401882309F38EE6DDCF6A
:1021600081E02091600190916101291748F788234F
:1021700009F49AC08BE892E00E944F0743E462E4BE
:1021800085E40E9411030E9410078DEC93E00E94E9
:102190004F07E0913201F0913301608171818281BA
:1021A000938103E020E04EEF0E94B2070E940B03F0
:1021B00089E40E94CC06E0913201F09133018681DE
:1021C00097818031974208F472C085E60E94CC0660
:1021D000E0913201F09133018681978180519742DD
:1021E000978386830E940F03E0913201F0913301BF
:1021F00022E041E46AEF868197810E94910880E0A5
:102200000E947B0786EB93E00E944F07E09132012A
:10221000F091330163E0848195810E949C08E091F4
:102220003201F091330180859185892B91F080E016
:102230000E947B0783E592E00E944F07E091320104
:10224000F091330123E041E46AEF808591850E949B
:102250009108E0913201F091330182859385892BB9
:1022600091F080E00E947B078DE492E00E944F078E
:10227000E0913201F091330123E041E46AEF82857D
:1022800093850E949108C53008F0CFCC80E00E9471
:102290007B078C2F0E949C0382EB93E00E944F07E8
:1022A0008C2F0E94670343CD87E892E065CF83E6D9
:1022B0000E94CC0697CF853009F000CE80910E01A8
:1022C00084FF50C080E50E94CC06D0923301C092BA
:1022D00032010E940D0380910E01C82FCF70C430CF
:1022E00009F044C088ED93E00E944F074FE367E494
:1022F0008FE30E94110380910E0185FD50C00E9462
:102300001007E0913201F0913301668584850E94C7
:10231000C81F0E9486078DEA93E00E944F07E09154
:102320003201F091330162E0828593850E949C081E
:1023300080E00E949E070E941E078EE30E94CC064A
:102340008CE70E94CC060E940B0380910D0123E0D4
:1023500040E260E090E00E949108C43009F465CC4E
:10236000C0E0AAC08EE40E94CC06B3CF85FF0DC0AA
:1023700084E40E94CC06C33051F482ED93E00E94C5
:102380004F0743E467E485E4B4CF85E4F2CF8DEDF5
:1023900093E00E944F0744E467E483E5AACF8F707F
:1023A000843009F458C080E00E946307E091320154
:1023B000F0913301668584850E94C81F0E948607BC
:1023C00080E00E947B0789E40E94CC0684E60E949C
:1023D000CC060E940F03E0913201F091330122E01C
:1023E00041E46AEF868197810E94910888EA93E030
:1023F0000E944F07E0913201F091330162E0828543
:1024000093850E949C08E0913201F0913301808510
:102410009185803C924108F08BCF80E00E947B0741
:1024200089E40E94CC0684E60E94CC060E940F0339
:1024300022E041E46BEF90E080E00E94910888EA9E
:1024400093E00E944F07E0913201F091330162E086
:10245000808591856BCFE0913201F09133018481C9
:102460009581892B09F4ACCF80E00E9463078CE84A
:1024700091E00E944F07E0913201F091330122E098
:1024800041E46AEF848195810E94910899CFC1113E
:1024900003C080E00E94630780E00E947B078C2FCE
:1024A0000E949C0382EB93E00E944F078C2F0E94B6
:1024B00067030E940507CF5F80910D01C81738F3AD
:1024C000B4CB40E0692F0E944523AFCB90915101DE
:1024D00054E0959FD0011124A156BE4F24E0829F65
:1024E000F0011124E156FE4FED90FD900D911C91ED
:1024F0004081518162817381282F4E155F056007ED
:10250000710708F4292F980FC3E0C91B3230E1F09E
:10251000C091520144E0C49FD0011124A156BE4F86
:1025200054E0259FF0011124E156FE4F4D915D913D
:102530006D917C9180819181A281B38184179507EF
:10254000A607B70708F0C22F1C2F1695D2E0DC1B98
:1025500002E0C11101C001E0812F0E9402078CE658
:1025600092E00E944F078D2F0E9402078CE692E0B6
:102570000E944F07802F0E94020780E00E9463079D
:1025800081E0C11180E00E94420382E0811B0E9431
:1025900042034BCB82E994E00E944F070E94100750
:1025A0008FEB94E00E944F078AEB94E022CD8111DB
:1025B000FECA20CC272D782EF501E80FF91FC49113
:1025C000C03219F0CE3F09F0722E01968932910582
:1025D00089F7DD2339F18D2F8F70F82E11F40E94C9
:1025E000430760E08F2D0E9425070E940507A895EC
:1025F000DF5FDF70F12CE12CE714F8F0CC23C1F0A1
:10260000070D111DF801E157FD4FE491E03211F47F
:102610000F5F1F4F90E080E028E2A80141575D4F17
:102620005A01C9CF80E09DE70E94B008882399F243
:1026300080E09DE70E94B008BACAF501EE0DFF1DCB
:10264000C491CC23A9F3CF3F31F40E940B039FEF39
:10265000E91AF90AD1CFCE3FD1F38C2F0E94CC06D4
:10266000F6CF0E940A078FE794E00E944F070E946E
:10267000CF030E94530990E080E0CDB7DEB7E2E1DE
:102680000C946436FC019C01261B370BCA0170E0D8
:1026900060E0A901460F511D452F5527620F240FF9
:1026A000351FAC01470F511D452F5527780FDA0113
:1026B000AA0FBB1F8A0F9B1F4B3E20F4E217F307A4
:1026C00040F7089590E080E008950F93BC0190E0FA
:1026D00080E003E020E24DEF0E94B2070F910895E1
:1026E000ADE1B0E0E6E7F3E10C9448368C8F6D8FF6
:1026F0004983A8952D8DE22FF0E0E253FE4F3491EF
:102700003B8B330F398F33968491888F9981E92FD2
:10271000F0E0E253FE4F8490A82CAA0C3396B490BC
:102720002C8DE22FF0E0E253FE4F9490392D330FC1
:102730003C8B339684918F8388608887988D9860CE
:102740009C8385B8EB89E829EF8BE4B987B9FF81D1
:10275000F8B98D8D0E94F503988B8F87882D8A2973
:1027600085B92B892A292B8724B98D8D0E94F503E1
:102770009A8789873B8934B98D8D0E94F5031C01A6
:1027800014B80E94DB0315B88F8984B98D8D0E941F
:10279000F5038C016F8578890E9452049B838A839C
:1027A0009C8197B988E088B9E82DE929ED83E5B9DE
:1027B000E4B98C8D0E94F5030E9458043C0115B8C1
:1027C0000E94DB0395B88C8D0E94F5030E9458048B
:1027D0007C0194B88C8D0E94F5030E9458046C0112
:1027E000B701C3010E9452042C010E94820784E5B4
:1027F0000E94CC0684E50E94CC068D8D0E940207C3
:102800008CE20E94CC068C8D0E9402070E940B0372
:102810000E940D038F85988958DF8FE60E94CC06B1
:10282000C10153DF8BE20E94CC06C8014EDF8FE668
:102830000E94CC0688E60E94CC0689859A8545DFF1
:102840000E9417070E940D03C7013FDF8FE60E9419
:10285000CC06C6013ADF8BE20E94CC06C30135DF0D
:10286000F0E24F16F1E05F0630F42A813B8120321E
:10287000314008F474C72A813B812E0D3F1D8F859E
:102880009889840D951D2817390748F483E60E941E
:10289000CC068EE40E94CC06F88AEF8616010E94D0
:1028A00082072091440180916201820F9927991F2C
:1028B00002974CF0213009F052C79091410180916C
:1028C0005F0198134CC79A2D99299987EF85F8894C
:1028D000E437F10508F435C2CF010A96880F991F35
:1028E0002816390608F02DC2F885F7B92F8128B9C6
:1028F0003B8534B98D8D0E94F4038C0189810E943F
:10290000F6036C01A5B88D8D0E94F4037C018D8DBA
:102910000E94020786E60E94CC068C8D0E94020768
:102920000E940B03C701D1DEC801CFDE0E9417074A
:102930008F859889CADEC101C8DEC801895A9D4FBA
:102940008E159F0508F0EAC088E088B98C8187B9A8
:10295000998594B995B989810E94F4037C018EE42C
:102960000E94CC0685E080930F01E8E4EE16EFE0CC
:10297000FE0608F4CEC082E280930E0184E40E9439
:10298000CC060E940B0310933A0100933901B60163
:10299000C8010E945D049093400180933F0198011B
:1029A000A0E1B7E20E949E352091090130910A0111
:1029B00050E040E00E94603530933C0120933B01A1
:1029C000898D8A2984B915B8F885F7B92F8128B976
:1029D00089810E94F6038C018D8D0E94F403B80159
:1029E0000E945D0490933E0180933D010E941E076A
:1029F0008EE40E94CC068AE60E94CC060E940B035D
:102A000080910E018F70843009F04EC040913B01DF
:102A100050913C0160913F017091400180913D01D6
:102A200090913E012FDE7C01BC0190E080E003E04C
:102A300020E24AEF0E94B207E114F10489F1A4B840
:102A4000E88D3885E32BE7B98D8D0E94F4037C0176
:102A500088E087B99701A0E1B7E20E949E352091F6
:102A60002E0130912F0150E040E00E946035290195
:102A70003A01CA01B9018827992720E24AEF0E944A
:102A8000B207A201B70180913D0190913E01FADDAC
:102A90007C01BC0190E080E020E24AEF0E94B20796
:102AA000F0923A01E092390180910E018F708430EA
:102AB00039F188E088B98C81B82AB7B894B89D817B
:102AC00095B98C8D0E94F5037C010E9458048C01FD
:102AD0008D8D0E94F603C0901001D0901101BC01B1
:102AE000C7010E945D049601DC010E949E35980199
:102AF00050E040E00E94603530933A012093390164
:102B000083E20E94CC06809144018F5F8093440150
:102B10006AC484E280930E018AE431CF88E088B9E8
:102B2000EC81E7B9F985F4B9F5B98C8D0E94F4030D
:102B30008C0189810E94F6037C0195B88C8D0E94DE
:102B4000F403895A9D4F8017910708F008C62F811A
:102B500028B9388537B989810E94F4036C0180E572
:102B60000E94CC0685E080930F0181EDC81683E0BA
:102B7000D80608F0E1C082E380930E0184E40E944D
:102B8000CC060E940B03B801C7010E945D0490931C
:102B90005E0180935D01C8010E9458049C01A0E180
:102BA000B7E20E949E35209110013091110150E052
:102BB00040E00E94603530935A0120935901F8E0BB
:102BC000DF2ED8B89C8197B98C898A2984B985B9B8
:102BD0008C8D0E94F6038C0189810E94F403B80158
:102BE0000E945D0490935C0180935B010E941E072C
:102BF00080E50E94CC068AE40E94CC0680910E01FA
:102C00008F70843009F052C04091590150915A019F
:102C100060915D0170915E0180915B0190915C011A
:102C200031DD7C01BC0190E080E003E020E24AEF6E
:102C30000E94B207E114F104A9F1A5B8A4B8EF818C
:102C4000E8B9E885FC81EF2BE7B98C8D0E94F4038D
:102C50000E9458047C01D7B89C01A0E1B7E20E9411
:102C60009E35209127013091280150E040E00E94DC
:102C7000603529013A01CA01B9018827992720E264
:102C80004AEF0E94B207A201B70180915B019091C7
:102C90005C01F8DC7C01BC0190E080E020E24AEFBE
:102CA0000E94B207F0925801E092570180910E0104
:102CB0008F70843031F1EF81EB29E8B92885B22A91
:102CC000B7B815B83D8134B98C8D0E94F5036C01FD
:102CD0008D8D0E94F6038C01E0900901F0900A01AD
:102CE000BC01C6010E945D049701DC010E949E3573
:102CF000980150E040E00E946035309358012093E5
:102D00005701809162018F5F8093620111E080E53D
:102D10000E94CC06809162018F5F80936201112333
:102D200009F49AC5E981E0935F01FD8DF09360019C
:102D30002C8D2093610190C584E380930E018AE479
:102D40001ECF88E088B98C8187B995B8998594B9E8
:102D50008C8D0E94F5039E8B8D8B0E9458046C0114
:102D600089810E94F6039B838A830E941E0780E567
:102D70000E94CC06F101EC59FF4FFB8FEA8FB101A5
:102D8000C601EC15FD0508F0A0C00E945D048C0191
:102D900088E40E94CC06209110013091110150E08E
:102DA00040E060E871EA83E09CE10E946035D80170
:102DB0000E94B335EA81FB819F0150E040E00E9410
:102DC000603529013A0183E60E94CC0683E60E9421
:102DD000CC060E940B0385E60E94CC06C60175DC7A
:102DE0008FE60E94CC06C10170DC82E60E94CC0610
:102DF0008A819B816ADC82E40E94CC068DE30E947A
:102E0000CC0603E020E24EEFC301B2010E94B207FC
:102E100014B815B8FF81F8B9288527B90E94DC03DA
:102E20000E941E078D8D0E94020785E40E94CC0639
:102E30008C8D0E9402070E940B033F8934B98D8D4F
:102E40000E94F5038F359D4008F4CBC1FB85F4B992
:102E50008D8D0E94F4037C0189810E94F6039E8778
:102E60008D878C8D0E94F6039A8B898B2D853E85EC
:102E7000213D374008F42BC1A5B88D8D0E94F40385
:102E80008C01011594E0190708F43FC080910F01EF
:102E90008430D8F580E50E94CC0685E50E94CC06FA
:102EA00084E50E94CC060E940B03C8010EDC8AE078
:102EB00080930F016D857E8589899A890E945D04C2
:102EC000909358018093570121CF0E945D048C019B
:102ED000FD81F4B98C8D0E94F5039E8B8D8B0E9431
:102EE00058046C0189810E94F6039B838A838CE4D9
:102EF0000E94CC066A817B81C8010E945D049C010E
:102F0000A4E6B0E00E949E3555CF84E080930F0187
:102F10008DE080930E010E941E0780E50E94CC0682
:102F200087012E143F0410F40219130988E40E944B
:102F3000CC062091090130910A0150E040E060E8A0
:102F400071EA83E09CE10E946035D8010E94B335AC
:102F5000ED85FE859F0150E040E00E94603549010B
:102F60005A0183E60E94CC0685E60E94CC060E94A8
:102F70000B0383E60E94CC06C701A7DB8FE60E9405
:102F8000CC06C101A2DB82E60E94CC068D859E851F
:102F90009CDB82E40E94CC068DE30E94CC0603E019
:102FA00020E24EEFC501B4010E94B2078091620198
:102FB000882371F08091530190915401A0915501A3
:102FC000B091560110E088159905AA05BB0520F5BA
:102FD0008092530190925401A0925501B0925601F3
:102FE0009701A0E1B7E20E949E352091090130913E
:102FF0000A0150E040E00E94603530935A0120936E
:1030000059016D857E8589899A890E945D04909316
:1030100058018093570111E0809153019091540120
:10302000A0915501B091560184159505A605B705E7
:1030300030F54092530150925401609255017092C4
:1030400056016A817B818D899E890E945D049093DF
:103050005801809357019601A0E1B7E20E949E3586
:10306000209110013091110150E040E00E94603544
:10307000205F384D30935A012093590111E082E4CA
:103080000E94CC06112309F442CEC0900901D090D1
:103090000A01F12CE12C9101A0E1B7E20E949E35DA
:1030A000A70196010E94603530935C0120935B017B
:1030B0002F853889A0E1B7E20E949E35A7019601CD
:1030C0000E94603530935E0120935D0120CEF1E6D1
:1030D0002F16310408F085C021EDE21627E0F20634
:1030E00008F47FC085E080930F0182E180930E0198
:1030F000C70186509F4FE989FA898E179F0708F00C
:1031000059C00E941E0780E50E94CC0689E40E94F7
:10311000CC0687E40E94CC060E940B0389899A8919
:10312000D4DAC701D2DA83E180930E01F88DF7700B
:10313000BF2E8981806480937C007BE0D72EEE24B3
:10314000E394F12C0FEF13E0A89561E0882D3AD6B7
:103150002B8524B986B18B21E9F33B8934B9809161
:103160007A00806480937A0080917A0086FDFCCF9B
:103170008091780090917900F801E81BF90BEE0E30
:10318000FF1EDA94D110E0CFC701880F991F880F76
:10319000991F69E070E00E94393570935E01609379
:1031A0005D01809162018F5F8093620186E40E94DD
:1031B000CC06ACCD0091090110910A01B7018989B3
:1031C0009A890E945D049801DC010E949E35970156
:1031D00050E040E00E946035309358012093570141
:1031E000A5CF0E941E078EE40E94CC06FB85F4B991
:1031F000A5B88D8D0E94F5039B838A8389810E94E7
:10320000F6039C878B870E9458048C012A8D3B8D86
:103210008A819B812817390708F0E7C0B1010E9415
:103220005D047C0188E40E94CC0620910901309164
:103230000A0150E040E060E871EA83E09CE10E940E
:103240006035D7010E94B335980150E040E00E94FC
:10325000603529013A0183E60E94CC0683E60E948C
:10326000CC060E940B0385E60E94CC068A819B81D6
:103270002CDA8FE60E94CC06C10127DA82E60E9492
:10328000CC06C80122DA82E40E94CC068DE30E94BB
:10329000CC0603E020E24EEFC301B2010E94B20768
:1032A000FC81F7B988E088B92D8124B925B98C8DC6
:1032B0000E94F5036C0189810E94F6039E878D8729
:1032C0008D8D0E94F6035C0130E3C31631E1D30615
:1032D00008F042C295B88C8D0E94F5039A8B898BB9
:1032E00094B88C8D0E94F5037C0115B80E94DC0314
:1032F00095B88C8D0E94F5038C010E941E0789E70A
:103300000E94CC060E940B03C701DFD9C801DDD99A
:10331000C601DBD980E4E81686E0F80608F08BC029
:10332000013391E1190708F486C0C6018A569F4F00
:10333000E989FA89E817F90708F07DC086E08093EB
:103340000F010E941E078D8D0E94020789E50E94D1
:10335000CC068C8D0E9402070E940B0380914401D1
:103360008F5F80934401B5018D859E850E945D0429
:1033700090933A0180933901B501C6010E945D0422
:103380009093400180933F0114B815B8F88DF8B9B7
:103390000E94DC0394B88C8D0E94F503853F910553
:1033A00010F52D8124B989810E94F503813D934058
:1033B000D0F08C8D0E94F6038D3D9240A0F094B821
:1033C0008C8D0E94F5038D3D924068F095B80E9467
:1033D000DC0315B88C8D0E94F503853F910518F428
:1033E00087E080930F0111E036C19F8994B985B8B9
:1033F0008D8D0E94F5039B838A8389810E94F60349
:103400009C878B870E9458048C018CE40E94CC0618
:10341000EA81FB81CF01821993092E163F0610F035
:103420008A819B81B8010E945D049C01A4E6B0E002
:103430000E949E3509CF2C8127B984B885B80E9497
:10344000DC03398534B935B98C8D0E94F5037C01D4
:103450000E9458046C0189810E94F6039E878D8723
:103460000E9458048C018D8D0E94F6039E838D83EB
:103470000E941E0782E70E94CC0684E70E94CC06C9
:1034800080E70E94CC060E940B03C8011ED90E3FA4
:1034900089E0180708F4F4C084E080930F018CE001
:1034A00080930E010E941E078EE40E94CC06B1019B
:1034B000C6010E945D047C0188E40E94CC06209134
:1034C00010013091110150E040E060E871EA83E0C2
:1034D0009CE10E946035D7010E94B335980150E00D
:1034E00040E00E94603549015A0183E60E94CC0603
:1034F00085E60E94CC060E940B0383E60E94CC0660
:10350000C601E3D88FE60E94CC06C101DED882E670
:103510000E94CC06C801D9D882E40E94CC068DE373
:103520000E94CC0603E020E24EEFC501B4010E94E8
:10353000B20780914401882371F080913501909108
:103540003601A0913701B091380110E08815990536
:10355000AA05BB0520F58092350190923601A09214
:103560003701B09238016D817E818D859E850E94E4
:103570005D0490933A01809339019601A0E1B7E28E
:103580000E949E35209110013091110150E040E0E1
:103590000E94603530933C0120933B0111E0809103
:1035A000350190913601A0913701B0913801841511
:1035B0009505A605B70538F54092350150923601BC
:1035C00060923701709238016A817B818B859C857E
:1035D0000E945D0490933A01809339012A813B81D6
:1035E000A0E1B7E20E949E352091090130910A01C5
:1035F00050E040E00E946035205F384D30933C0140
:1036000020933B0111E082E40E94CC06112319F1C2
:103610009101A0E1B7E20E949E352091090130910D
:103620000A0150E040E00E94603530933E01209353
:103630003D012F853889A0E1B7E20E949E35209197
:1036400010013091110150E040E00E94603530934C
:10365000400120933F018EE40E94CC0680914401FA
:103660008F5F80934401112309F4F6C039813093B0
:1036700041018C8D809342019D8D90934301ECC05C
:1036800091E62916310408F067C0E9E4CE16EDE0B2
:10369000DE0608F461C085E080930F0182E080932C
:1036A0000E018D819E8186509F4F8E159F0508F0DB
:1036B0003CC083E080930E0186E40E94CC06FF812B
:1036C000F770EF2E8981806480937C005BE0F52E9B
:1036D00001E010E0A89560E0882D74D3298524B915
:1036E00025B986B18E21E9F794B880917A0080647B
:1036F00080937A0080917A0086FDFCCF80917800DB
:1037000090917900080F191FFA94F110E3CFC801C6
:10371000880F991F880F991F69E070E00E94393562
:103720007093400160933F01EEC900911001109128
:1037300011016D817E81C7010E945D049801DC0149
:103740000E949E35960150E040E00E946035309323
:103750003A0120933901B0CF88E087B988B914B80D
:1037600015B888E087B937EC231631E03306B8F492
:103770000E9417078C8D0E94020784E40E94CC06E9
:103780008D8D0E9402070E940B03C1010E946513E8
:103790008CE30E94CC066D8D8C8D11D15DC088B9F3
:1037A0008C8984B918EC08859C81092B07B90E9483
:1037B000DC03EC81E7B98C8D0E94F603429710F090
:1037C0001150A1F7FC89F4B9F5B961E0882DFAD25E
:1037D0008C8D0E94F503782E692E298D24B915B899
:1037E000388537B98F8188B960E0882DEBD28D8D0F
:1037F0000E94F5030E9458047C019B8994B98D8D29
:103800000E94F6038C018C8D0E94F503B8010E9482
:103810005D046C018D8D0E94F6038C018C8D0E94DD
:10382000F503B8010E945D048C0183E40E94CC067C
:1038300083E60E94CC06C6010E946513C8010E945F
:103840006513C60144968017910790F48EE40E9498
:10385000CC0684E40E94CC0688E087B988B914B805
:1038600015B88EE20E94CC066D96E2E10C946436A7
:1038700088E088B9EC81E7B994B895B861E0882D03
:10388000A1D28D8D0E94F6038C018C8D0E94F503D0
:10389000B8010E945D048C01C816D90608F074C0F6
:1038A000FC89F4B9F5B98C8D0E94F5035C01E72C15
:1038B000F62C0E9417078C8D0E94020784E40E9458
:1038C000CC068D8D0E9402070E940B0388E60E94A1
:1038D000CC06C7010E9465138CE40E94CC06C80187
:1038E0000E94651388E40E94CC06C5010E946513FE
:1038F000083E93E0190708F059C0C80164E670E07B
:103900000E943935C801875991098938914108F0D9
:1039100042CFA016B10608F03ECFC70123E096952E
:1039200087952A95E1F7893C910510F088EC90E0A5
:103930008E0D9F1D8017910708F02DCF6E157F0506
:1039400008F029CF80910F018330B8F583E0809390
:103950000F0184E40E94CC0680910D01282F30E0F5
:10396000F901EE57FE4F9C8D90839D8D9683220F1B
:10397000331FF901E257FE4F1183008391E0980F46
:1039800090930D018F5C66CF298D24B915B83885C9
:1039900037B98F8188B960E0882D14D28D8D0E944F
:1039A000F5030E9458045C01860183CFB80134E01E
:1039B000769567953A95E1F7A5CF84E6CBCFB0E051
:1039C000A0E0E5EEFCE10C944A36A895262F30E005
:1039D000F901E253FE4F549033969491A82FB0E032
:1039E000FD01E253FE4F1491339604914091620120
:1039F00050914401450F5527551F452B09F05CC0D8
:103A0000A8954091130150911401440F551F440F84
:103A1000551F509326014093250140916701509115
:103A20006801440F551F440F551F509324014093C4
:103A300023014EEB4093210150910D01E2E8F1E0AA
:103A400040E02A0F3B1F54133CC0D62FC82F88E0FC
:103A500088B9986097B914B915B9B8E1BB2ED12CC3
:103A6000C12C8D2F0E94F503782E692E8C2F0E9479
:103A7000F6037C018C199D0997FF03C091958195F0
:103A8000910903970CF45AC1A895BA946701B11033
:103A9000E8CF8091130190911401909326018093B7
:103AA0002501809167019091680190932401809392
:103AB000230189E180932101CDB7DEB7E0E10C94C9
:103AC00066367191A581A70FBB27BB1FA217B3074D
:103AD00001F34F5FB8CF25E8C21621E0D206C8F641
:103AE000043AE2E01E0708F0B5C0F8E9AF16B104E9
:103AF00080F2C6010E945804AC019601A8E9B7EB18
:103B00000E949E359A0150E040E00E9460352901F4
:103B10003A01C5010E9458049C01A8E9B7EB0E9434
:103B20009E35950150E040E00E94603588E7C81658
:103B30008FE0D80608F072C0F2E0440C551C661CF9
:103B4000771CFA95D1F7C301B201620F731F841F6E
:103B5000951F25E030E040E050E00E946035A4E68B
:103B6000B0E00E94B3356B017C01FCEACF0EFDE0B2
:103B7000DF1EE11CF11C10910F01143008F089CFF9
:103B8000C1500C2F0D0F202F30E0E901C35BDE4F39
:103B90008881220F331F220F331F21563E4FF90118
:103BA000882309F4C4C080809180A280B380A701DB
:103BB0009601281939094A095B0957FF07C0509532
:103BC0004095309521953F4F4F4F5F4FAAE0B0E0B1
:103BD0000E94B335F4E68F0E911CA11CB11CA50107
:103BE00094012C0D3D1D4E1D5F1D0E946035232B41
:103BF000242B252B09F04DCF133019F081E0809351
:103C00000F0182E0888380916901E82FF0E0E05B9A
:103C1000FE4F00838F5F809369013BCFE8E7AE16CC
:103C2000EFE0BE0670F4E2E0220F331F441F551F81
:103C3000EA95D1F7CA01B901640D751D861D971D5E
:103C400088CF240D351D461D571D56954795379530
:103C5000279585CFC0901001D0901101672D762D4A
:103C6000E616F70608F4B701C7010E945D04960145
:103C7000DC010E949E352B013C01C7010E945804C3
:103C80009C0150E040E0C301B2010E94603529016F
:103C90003A01A0900901B0900A01892D982D801752
:103CA000910708F4C801B8010E945D049501DC0188
:103CB0000E949E35980150E040E00E94603588E700
:103CC000E8168FE0F806B0F462E0440C551C661C60
:103CD000771C6A95D1F7C301B201620F731F841F6D
:103CE000951F25E030E040E050E00E94603569011A
:103CF0007A0141CF0837EFE01E0770F4CA01B9011D
:103D000032E0660F771F881F991F3A95D1F7640D2F
:103D1000751D861D971DE5CF73016201C20ED31E6E
:103D2000E41EF51EF694E794D794C79424CFC0827E
:103D3000D182E282F38281E08883ABCE110F15B885
:103D400014B98C2F0E94F5038135910508F0A1CE9E
:103D500015B98C2F0E94F5036C01802F886087B9FC
:103D600008B915B854B8A8E14A2EB12CA12C8C2F53
:103D70000E94F503982E892E8D2F0E94F6038C0148
:103D80008A199B0997FF03C0919581959109039723
:103D900034F0A8954A9458014110E9CF7ACE550CD9
:103DA00054B88D2F0E94F5035C01F0ECEF16F4E49B
:103DB000FF0608F490CE80EBC8168DE4D80608F014
:103DC00068CE8ECECF93C82FC09595B160FF0FC03F
:103DD000982B95B994B1892B84B90E94DB0384B1E7
:103DE0008C2384B985B18C2385B9CF9108959C2308
:103DF000F0CFB0E0A0E0EFEFFEE10C9450361AE017
:103E000008E08FE3C82E99E0D92E07B908B915B894
:103E1000C4B880E00E94F5037C0181E00E94F603B3
:103E2000EC0182E00E94F6039C0180910F01893031
:103E3000A1F488E087B914B8F0924801E0924701F4
:103E4000D0934A01C093490130934C0120934B0118
:103E5000CDB7DEB7EAE00C946C3684E0E816F104E6
:103E600048F4C430D10560F42430310510F399E0F2
:103E700092600AC098E088EEE81683E0F80608F43D
:103E800099E0C83ED340A0F3283E334008F4946044
:103E900097B9D0E0C0E0A89580E00E94F3035C01F0
:103EA00081E00E94F6037C0182E00E94F60324E197
:103EB000A21625E0B20608F4389A24E1E21625E0BD
:103EC000F20608F4399A843125E0920708F43A9A08
:103ED00026E0A216B10430F426E0E216F10410F454
:103EE000069738F02196C43F81E0D807A1F6D0921A
:103EF0000F01F12CE12CEC16FD0621F4115009F014
:103F000084CFA6CF0E94E1032FEFE21AF20AF3CF8B
:103F1000CF92DF92EF92FF92CF9320916C0130917C
:103F20006D0140916E0150916F01C0917E018AE058
:103F3000C82ED12CE12CF12C8C2FCF5F213A96E8A2
:103F4000390791E049075105E0F480937E01A09183
:103F50002501B09126010E94B33528E833E140E005
:103F600050E00E94603520936C0130936D014093C6
:103F70006E0150936F01CF91FF90EF90DF90CF9043
:103F80000895CA01B901A70196010E946035D4CFF6
:103F9000B0E0A0E0EEECFFE10C944E36982F990FC4
:103FA000980F2FEF260F920F90934601E82FF0E025
:103FB000E253FE4F0491262F30E0F901E253FE4F09
:103FC000C491F901EF52FE4FD49190910F019130BD
:103FD00009F455C090910D01A2E8B1E030E020E075
:103FE000291708F451C0E62E182FFD2E6894F3F817
:103FF000109279011092780181EF80937E011092E6
:104000006C0110926D0110926E0110926F01F1DE41
:1040100088E088B9F7B8C4B9C5B9812F0E94F60302
:104020004C018E2D0E94F603881A990A14B8D0E02C
:10403000C0E005B904B90E94DB0314B815B80E94AA
:10404000E203A895812F0E94F6035C01A818B90825
:10405000CE37D10520F02BE4A216B1045CF07DE24E
:10406000A71671E0B7060CF072C12196C43F81E03B
:10407000D807F9F688E087B988B914B815B8CDB76C
:10408000DEB7ECE00C946A3616964C911697461300
:104090000EC04C9148130BC0A901440F551F4E5739
:1040A0005E4FFA01448555854C3D554040F32F5FE6
:1040B0003F4F119695CFF12C00E07BC19ADE15B8E9
:1040C0008FE087B988E088B9D02EDD0CD4B880E4C1
:1040D00080937B0084E580BF812F806480937C0087
:1040E00087E180937A000E94E5031092800010928D
:1040F00085001092840087E286BBD5B880910F01BD
:10410000853009F003C181E08093810081E090E077
:10411000012E01C0880F0A94EAF780958F7087B945
:10412000B12CA12C91E086B385FD0CC080FFFBCFA4
:1041300096BBA8957FEFA71AB70AE0E8AE16ECE0A9
:10414000BE0689F71092810090E296BBC09086006F
:10415000D09087002091840030918500C216D3064C
:1041600038F480FF05C081E086BBFFEFAF1ABF0ABD
:1041700087E980937A0014B815B8812F0E94F6035E
:104180002091290130912A01821B930B0C96909368
:1041900081018093800120E4A21626E0B20608F097
:1041A00069CFB0927701A0927601D0927501C0924A
:1041B000740184EF80937E0172E4A716B104C8F005
:1041C00060917401709175018091760190917701F1
:1041D00024E630E040E050E00E9460352093740116
:1041E00030937501409376015093770186EF809369
:1041F0007E01A0916A01B0916B0120917401309110
:10420000750140917601509177010E94B33520E409
:1042100036E040E050E00E94603520937401309316
:104220007501409376015093770120936C01309390
:104230006D0140936E0150936F016ADE80917E01A3
:10424000843F09F054C080906C0190906D01A09063
:104250006E01B0906F0180EA88168FE09806A10485
:10426000B104C0F4A50194012C543F4F4F4F5F4F50
:1042700060EA7FE080E090E00E946035820E931E4D
:10428000A41EB51E80926C0190926D01A0926E01E9
:10429000B0926F0180906C0190906D01A0906E01C2
:1042A000B0906F0181149104E1E0AE06B10498F57D
:1042B0009092B0018092AF018091460190E08E5DB6
:1042C0009F4F0E94DB3690E0B0E0A0E08815990592
:1042D000AA05BB0538F5881A990AAA0ABB0A809272
:1042E0006C0190926D01A0926E01B0926F0104B9C1
:1042F00080916C0190916D01A0916E01B0916F0160
:104300004997A105B10508F4B5CEA9C081E0809315
:104310008100F7B805CF81E090E09093B0018093E1
:10432000AF01CACFF4E18F0E911CA11CB11C8816FD
:104330009906AA06BB0610F40E94440D10926C0167
:1043400010926D0110926E0110926F01D0CF2097E4
:1043500031F4E5E1AE16E5E0BE060CF0AFCED12CAF
:10436000C12C0E94DC03812F0E94F603A895FFEF69
:10437000CF1ADF0ACC15DD05A0F788199909650168
:10438000C81AD90A1C141D040CF095CE29ECC216CB
:10439000D1040CF06FCE28EE33E0D6010E94AD358B
:1043A00095010B2C000C440B550B0E946035F22E2E
:1043B000032F2196CE01B0E0A0E08093740190938A
:1043C0007501A0937601B0937701C5018C0D9D1DF9
:1043D0000E94B904209174013091750140917601D9
:1043E00050917701DC010E94B335609374017093A2
:1043F0007501809376019093770160936C017093BF
:104400006D0180936E0190936F0187EF80937E0121
:104410007FDD80906C0190906D01A0906E01B09056
:104420006F0185E090E00E94DB36A8EEB3E0A81BA8
:10443000B10987FDB395A50194010E94BD3524E61D
:1044400030E040E050E00E94603520936C013093F2
:104450006D0140936E0150936F01CF2DD02F80914D
:104460000D01882329F080910F01853009F002CEDB
:1044700088E080930F0180917E0190917F019817D1
:10448000C4F08913F7CD80906C0190906D01A090DD
:104490006E01B0906F014091700150917101609177
:1044A000720170917301481559056A057B0508F082
:1044B000E1CD40916C0150916D0160916E01709160
:1044C0006F0140937001509371016093720170937A
:1044D000730180937F01D0937B01C0937A01E092B6
:1044E0007C0110937D01C6CDB0E0A0E0EAE7F2E2E6
:1044F0000C944E3688E893E1909314018093130155
:1045000090932601809325018EEB80932101C8E0D2
:10451000C8B988E187B90E94EA03C7B984E00E945C
:10452000F503AC018B5C9840833F9140A0F481E09F
:10453000809330012091250130912601AFEBB9E045
:104540000E949E359A0150E040E00E946035309311
:104550001401209313018091130190911401909301
:104560002601809325018EE00E94F6038EE00E94D2
:10457000F50390932A01809329010E94660439DC97
:1045800088E0F82EF8B8C9E0C7B985E185B9D1E06F
:10459000D4B980E00E94F5038C019AE0D92ED7B8F7
:1045A00024E0B22EB4B881E00E94F503080F191F71
:1045B0003CE0E32EE7B840E1C42EC4B882E00E949C
:1045C000F503080F191F15B8C8B9C7B9D4B980E0E9
:1045D0000E94F5030E945804EC01D8B8D7B8B4B8CB
:1045E00081E00E94F5030E945804C80FD91FE8B863
:1045F000E7B8C4B882E00E94F5030E945804C80FCF
:10460000D91FF7B8F8B814B8809125019091260108
:104610006C01CC0CDD1CC80ED91EC01AD10ACC1AF4
:10462000DD0AF12CE12C9801A0E9BAE10E949E3547
:10463000A70196010E94603549015A0130932F016C
:1046400020932E019E01A0E9BAE10E949E35A701A8
:1046500096010E946035309328012093270120574E
:10466000354E309311012093100180E7881A85EEB2
:10467000980A90920A018092090189E180932101B0
:10468000CDB7DEB7ECE00C946A36CF92DF92EF92B2
:10469000FF920F93CF93DF93F82EC62FD42F0E9453
:1046A00002078CE692E00E944F07D0D16C2F8F2D2D
:1046B0000E945033C090B301D090B401E090B50196
:1046C000F090B6018091150187FD05C0C114D10499
:1046D000E104F10421F088E692E00E944F078C2F5C
:1046E0000E940207C114D104E104F10431F00E94D8
:1046F0000B03809150010E944203DD2309F459C04D
:1047000080913101853208F054C08650990B8D5547
:104710009A4F0E944F0780E00E947B07CD28CE2849
:10472000CF2809F449C06091B3017091B401809120
:10473000B5019091B60103E028E447EF0E94B2076B
:104740008BE792E00E944F078CE290E00E94E336F4
:1047500023E046E464EF0E9491088091AB019091C0
:10476000AC01A091AD01B091AE01892B8A2B8B2BAE
:10477000F1F180E00E947B076091AB017091AC0188
:104780008091AD019091AE0104E028E440E00E94E8
:10479000B20786E792E00E944F0723E040E26FEF06
:1047A0008091B1019091B2010E9491080E945D0731
:1047B00025C00E945D07AFCF809150010E94420347
:1047C000809115018E3F4CF688E893E00E944F07D8
:1047D00060919A0170919B0180919C0190919D0143
:1047E00003E028E4409115010E94B207B6CF80E0B3
:1047F0000E946307809134018823C1F2DF91CF9139
:104800000F91FF90EF90DF90CF90089584EE91E0AC
:1048100090D76AE080E00E94250787EA95E00E9431
:104820004F070E94300960E082E0C9D862E080E072
:10483000C6D80E940A0780916901882369F041E087
:1048400062E080E022DF88EE93E00E94B0088823D7
:1048500041F30C944307089584EE91E00E944F07C2
:1048600087EA95E00E944F070E9410078FE30E949D
:10487000CC0680E00E9463070E945D07E4CFEF92C0
:10488000FF920F931F93CF93DF93182F0E940A0775
:1048900080917C010E94020784EA93E00E944F0706
:1048A00014D360917C0180917D010E940C05EC0184
:1048B0009093790180937801E0907A01F0907B01E8
:1048C000CA3F8FEFD80720F48DE692E00E944F0791
:1048D00080917D010E940207112309F445C0909147
:1048E000310185E2891B0E94BA0689ED91E00E94A0
:1048F0004F070E94100760917001709171018091C3
:1049000072019091730104E026E440917F010E94BE
:10491000B207CA3FDF4F68F483E993E00E944F0774
:1049200022E044EF6EEF80917801909179010E942E
:1049300091080E945D070E941707E114F10469F0D5
:104940008CE893E00E944F0722E045E26FEF8091F0
:104950007A0190917B010E9491080E945D07CDB77A
:10496000DEB7E6E00C9470360E945D07C2CF1F935D
:10497000CF93DF93C8E0D2EF15E20E94300960E0E8
:1049800082E006DBC0930F0180917E01843FE1F459
:1049900080916C0190916D01A0916E01B0916F01B9
:1049A00084369105A105B10578F440E060E082E02D
:1049B0000E94113160936C0170936D0180936E01C0
:1049C00090936F01D0937E0180917E01823F0CF124
:1049D00080937F0180916C0190916D01A0916E0197
:1049E000B0916F018093700190937101A093720157
:1049F000B093730181E043DF88EE93E00E94B0083A
:104A0000882309F4BACF0E944307DF91CF911F9109
:104A100008950E940A078DED91E00E944F07809152
:104A20003101912F981B892F0E94BA0689ED91E0E0
:104A30000E944F070E9410078FE30E94CC060E943D
:104A40005D070E9417070E945D07D6CFA6E1B0E080
:104A5000ECE2F5E20C94483682E0809315018091F7
:104A60000F01813009F0F1C180916901813009F0B5
:104A7000ECC14090500124E0429EF0011124E15627
:104A8000FE4F80819181A281B381893032E5930705
:104A9000A105B10508F0D9C11C01712C81E0871571
:104AA00008F4D7C1842D0E943803982E892EE82D52
:104AB000F0E0EF52FE4F5490892D90E0FC01E2535C
:104AC000FE4FE49115B828E028B9372D3170632ED8
:104AD00020EF2216310408F0C1C13111BFC100918D
:104AE000090110910A0100591A4121E030E0092C16
:104AF00002C0220F331F0A94E2F7C901886085299A
:104B000087B934E1398B892D0E94F4035C01882D2B
:104B10000E94F60324E0A216B10410F4049728F0D2
:104B200039893150398B3111EECF80E480937B008D
:104B300094E590BF892D806480937C0027E12093C9
:104B40007A00F12CE12C10928000109285001092D6
:104B5000840087E286BB0E94E503872D90E09A8B54
:104B6000898B611084C181E88093810058B886B335
:104B700085FD0CC080FFFBCF21E026BBA8959701E7
:104B80002F5F3F4F7901203A310589F738E038B976
:104B90001092810090E296BB2091860030918700B0
:104BA000690140918400509185002417350738F43D
:104BB00080FF05C021E026BB3FEFE31AF30A87E937
:104BC00080937A00B4E15B2E892D0E94F4035C018E
:104BD000882D0E94F60324E0A216B10410F4049775
:104BE00018F05A945110F0CF80902E0190902F0120
:104BF000820C931C800E911E20910B0130910C01B0
:104C000000398AE1180708F03BC169E191EEC91645
:104C1000D104E104F10430F4C60165E070E00E94C3
:104C20003935645128523109261B310967FD339506
:104C300066E0862F90E0B0E0A0E08C159D05AE0503
:104C4000BF0508F026C1C81AD90AEA0AFB0A66207D
:104C500029F08AE3C80ED11CE11CF11C90EAE91688
:104C6000F10418F0C12CD12C76018BE0C816D104C8
:104C7000E104F10428F091E0C91AD108E108F10833
:104C8000B12CA12CA8EEB3E00E949E356B8B7C8BDF
:104C90008D8B9E8BA0912501B091260198010E94D9
:104CA0009E35A50194010E946035442755276B89E4
:104CB0007C898D899E890E946035C9010E94E80423
:104CC000FC01A5019401C701B6010E941E354B01EC
:104CD0005C01BF0190E080E0E4E0660F771F881F71
:104CE000991FEA95D1F76B5F7F4F8F4F9F4F2AE057
:104CF00030E040E050E00E94603544275527C50170
:104D0000B4010E946035E989FA89EE0FFF1FEE0FAA
:104D1000FF1F81E090E08C0F9D1FE80FF91F20839B
:104D2000318342835383611018C094E1C916D104C2
:104D3000E104F10490F07394E989FA893196EE0F59
:104D4000FF1FEE0FFF1F81E090E08C0F9D1FE80F0B
:104D5000F91F2083318342835383A895739493E092
:104D6000971508F09BCE88E088B90E94DA0391E09D
:104D70000D811E812F81388549815A816B817C810B
:104D8000401751076207730708F090E00D851E85F4
:104D90002F85388949855A856B857C8582E0401747
:104DA00051076207730708F483E024E0829FD00173
:104DB000112421E030E02C0F3D1FA20FB31FE92F7B
:104DC000F0E0EE0FFF1FEE0FFF1FE20FF31F0D913C
:104DD0001D912D913C914081518162817381041715
:104DE00015072607370708F0892F34E0839FF00165
:104DF000112421E030E02C0F3D1FE20FF31F408112
:104E000051816281738140939A0150939B01609319
:104E10009C0170939D0180FD40C030EF231631044A
:104E2000E0F58BEF8093150180919A0190919B01A1
:104E3000A0919C01B0919D01892B8A2B8B2B11F4A1
:104E40001092150188E087B914B86696E2E10C94D7
:104E50006436842D0E9438034C0129CEE4B9852D97
:104E6000886087B90091090110910A014ACE58B8AB
:104E70000E94EE0390E296BB81E88093810077CE9A
:104E8000C40168E57BE10E943935695F285D3F4FC9
:104E9000D0CEC12CD12C7601DACE8CEF80931501C7
:104EA000CB01BA016B5F7F4F8F4F9F4F2AE030E0FD
:104EB00040E050E00E94603520939A0130939B01BE
:104EC00040939C0150939D01AFCFB0E0A0E0EBE692
:104ED000F7E20C944A3600917A0110917B0101159A
:104EE000110509F091C0E0917C01F0E0EF52FE4F16
:104EF000D491D860E0917D01F0E0E253FE4FC4917F
:104F00000E94F91E88E088B915B8D7B9C4B9809154
:104F10007D010E94F6037C01D0917F018CE08D0F12
:104F2000843008F071C08091700190917101A0915E
:104F30007201B0917301D15F2AE0422E512C612C95
:104F4000712CBC01CD016B5F7F4F8F4F9F4FA30131
:104F500092010E94603549015A01DA01C901DF5FFF
:104F6000D73079F7893823E19207A105B10508F018
:104F70004BC0059708F448C0C5B9C4B9D0E0C0E03B
:104F8000C815D90508F445C014B815B8A89585E02A
:104F90008093210180917D010E94F603EC01CE19DE
:104FA000DF09E816F90610F0D0E0C0E0D12CC12CE2
:104FB000C814D90490F180917D010E94F60329E183
:104FC00020932101A895E816F90618F48C010E1912
:104FD0001F090C171D0788F49E01201B310B69F077
:104FE000A4EFB1E00E949E359E0150E040E00E9497
:104FF000603530937B0120937A010E94F91E88E08E
:1050000087B988B914B815B8CDB7DEB7E0E10C940C
:1050100066360E94EC032296B3CF0E94EC038FEF1A
:10502000C81AD80AC5CF8B3008F08B50811109C03F
:1050300080E494E00E944F070E945D070C940507EE
:105040000895823019F48EEE93E0F4CF813019F494
:1050500085EE93E0EFCF833019F48AE294E0EACF53
:10506000843019F48FE194E0E5CF853019F48FEEA8
:1050700091E0E0CF863019F484EE91E0DBCF873009
:1050800019F48DED91E0D6CF883019F48FE094E0DB
:10509000D1CF893019F486E094E0CCCF8A3061F624
:1050A00086E394E0C7CF0F938FEE91E042D3109246
:1050B0000F0160E082E099D580910F01883009F0FE
:1050C00043C00E94100783E40E94CC060E940F0395
:1050D00060917001709171018091720190917301E2
:1050E00003E026E440917F010E94B2070E945D0721
:1050F00060917C0180917D010E940C059093790163
:10510000809378010E94170784E993E00E944F077B
:1051100080917801909179018A3F2FEF920780F476
:1051200022E044EF6EEF0E9491080E945D0788EE36
:1051300093E00E94B008882309F4B9CF0F91089535
:105140008FE30E94CC06F1CF0E9482070E941707CE
:10515000ECCFA4E0B0E0EFEAF8E20C9448368AE243
:1051600094E0E7D280E18093800010926F0081E0AC
:1051700090E0909389008093880010928B001092A9
:105180008A0083E086BB1092820088E080938100D1
:1051900015B891E194B988B989E087B9229A8093CA
:1051A0008100BAE03B2E21E02C83812C912C54010C
:1051B000839431E13B838C81632D0E942D35A92F8F
:1051C000B0E0A50194010E94B3356B017C015B81C5
:1051D000523158F0652D762D872D912FA5010E9413
:1051E0006035C60ED71EE81EF91E0E9410078C817E
:1051F000831104C011E09B81923108F410E0212E4C
:105200008CE3111105C02B818EE3263108F082E575
:105210000E94CC060E940B034B81C701B6010E947D
:10522000A608C701B6017C5D8B409F4FA701960180
:10523000220F331F441F551F0E946035CA014F3F84
:10524000510509F008F497C08DE08093810080E05B
:1052500094E02C01712C612CCA01B901A3019201C7
:105260000E946035215031093093890020938800D5
:105270008091880090918900892B31F441E050E0C1
:1052800050938900409388000E945D070E94170791
:1052900086E60E94CC060E940B03809188009091C4
:1052A00089009A83898360E072E18AE790E0A30134
:1052B00092010E946035A4E6B0E00E94B3352981D6
:1052C0003A812F5F3F4F50E040E00E946035290156
:1052D0003A01A4E6B0E0A70196010E94B335A3010C
:1052E0009201261B370B480B590BCA01B90105E285
:1052F00028E44EEF0E94B2078AE70E94CC060E9483
:105300005D0780ED97E00E94B008883C08F075C00A
:10531000813508F462C0112309F44DC03B8131503E
:105320003B83C501B4012AE030E040E050E00E9438
:10533000603549015A01C701B6010E946035CA01B2
:10534000B9012AE030E040E050E00E946035262EAE
:105350009AE0392E0AC0FAE03F2E22242394812CB1
:10536000912C5401839441E14B832C825C2C6D2C55
:105370007E2C1F2D20CF4034510530F08CE08093DF
:10538000810080E091E065CF4830510530F08BE03E
:105390008093810080E490E05CCF892B31F08AE03B
:1053A0008093810088E090E054CF89E08093810071
:1053B00081E090E04ECF4B81463168F64F5F4B83E2
:1053C000463111F485E1382EAAE0B0E0A501940140
:1053D0000E94B3354B015C01C8CF8B3018F05C8163
:1053E0005F5F5C832C81822F90E0632D70E06F5FA4
:1053F0007F4F0E944D35282EB8CF10928100109219
:10540000800088E087B914B822982496E2E10C94D1
:1054100064364F925F926F927F928F929F92AF927B
:10542000BF92CF92DF92EF92FF92CF93DF938FE103
:1054300094E07FD183E28093800010926F008FEF21
:1054400090E090938B0080938A0083E086BB10925B
:10545000820015B881E184B988E088B989E087B90C
:10546000229A21E030E030938900209388008093D5
:10547000810090E0C2E3D0E084E6C82ED12CE12C7C
:10548000F12C88248A9423E0922EA12CB12CC917E8
:1054900099F1C43608F0C4562C2F30E0AFEFB3E0DA
:1054A0000E949E356E5C7F4F8F4F9F4FA7019601E4
:1054B0000E94603529013A0130938B0020938A00C5
:1054C0000E941007A8EEB3E0A30192010E94B33539
:1054D00061507E4F8F4F9F4FA50194010E94603510
:1054E000C90125E045E26FEF0E9491080E945D0727
:1054F000D93210F00E94D40380E496E00E94B008F4
:10550000D82F833858F48AE0D33320F48C2FDD234E
:1055100011F081E08C0F9C2FC82FB9CF88E087B99C
:10552000109281001092800014B82298DF91CF91E0
:10553000FF90EF90DF90CF90BF90AF909F908F90B3
:105540007F906F905F904F9008950F931F93CF932C
:105550008FE094E0EED085E090E00E94DB36C82F2B
:105560000E9410070C2F0C2E000C110BC7FF1CC043
:105570000E940D0323E045E26FEF88279927801BE7
:10558000910B0E9491080E945D0780E496E00E94C2
:10559000B0088238A0F4882319F0893250F0CF5F28
:1055A000C1354CF0C556DCCF23E045E26FEFC801B2
:1055B000E8CFC150F5CFCC3E9CF6CB59D1CF6C2F64
:1055C00085E090E00E94E836CF911F910F910895F9
:1055D0000F931F93CF9385EE93E0ABD084E090E0E0
:1055E0000E94DB36C82F01E010E00E94100723E084
:1055F00040E260E0C8010C2E02C0880F991F0A9497
:10560000E2F70E9491080E945D0780E496E00E9404
:10561000B008823878F4882319F0893248F0CF5FD7
:10562000C13820F4CA3008F3C0E0DFCFC9E0DDCFD5
:10563000C150F6CF6C2F84E090E00E94E836CF9105
:105640001F910F910895813011F4C2CF08958230D7
:1056500019F480E082C00895833011F47ACD089562
:10566000843011F4D6CE0895853011F41CCD089500
:10567000863011F4CBC80895873021F40E94430787
:1056800076C90895883011F460CF0895893021F4E7
:1056900081E10C94AD0908958A3009F461C408953C
:1056A0000F931F93CF93DF938BE494E042D0C0E03D
:1056B0000E940507D8E28DE30E94C603D150D9F7B6
:1056C0008BE494E036D0D9E0DC0F10E001E0010F6C
:1056D00060E0802F0E9425071230F1F48EE30E94D3
:1056E000CC0685EF8D0FDB3008F48D2F9CDCDF5F5F
:1056F000102F053059F790E080E00E94B008823307
:1057000070F0CC2381F08C2F9EDF8BE494E011D0DD
:10571000CB3070F2CB50CCCF0E940B03E2CF88236A
:10572000B9F3CF5FF5CF80E0DF91CF911F910F915B
:105730000895CF93DF93EC010E944307CE010E94AE
:105740004F07C4E60E94DB034F9902C0C150D1F756
:105750000E941007DF91CF910895A8E0B0E0E3EB3D
:10576000FBE20C9448368EEE93E0E3DF84E090E0B9
:105770000E94DB3621E030E002C0220F331F8A9501
:10578000E2F73D832C832130310559F06FE080E052
:105790000E9425078FE20E94CC068C819D810E9489
:1057A000010330EF3B8354980E94E10314BC16BC04
:1057B000109203011092040110920501109206014B
:1057C00061E065BB60936E001092800085E294EF0B
:1057D00090938B0080938A00E1E0F0E0F0938900E1
:1057E000E0938800109285001092840083B5816058
:1057F00083BDF6E0F6BBF0936F00789424E020932D
:10580000810032E339831A820E94DA03A8954F9906
:1058100002C061E06A8385B5882329F089818150BF
:1058200089838111F1CF15BC86B5809303010E9455
:1058300017070E945D070E941E070E945D070E94D5
:10584000820786E60E94CC060E940F0384E090E067
:105850000E94DB36E1E0F0E002C0EE0FFF1F8A9508
:10586000E2F7FF83EE832091030130910401409120
:10587000050150910601DF010E94B33547E00E9407
:10588000A608549880918100882319F08FE30E9424
:10589000CC061092810010926F002091030130918C
:1058A00004014091050150910601DA01C9010197F7
:1058B000A109B1098336934CA105B10508F09BC03D
:1058C000AAE0B0E00E94B335605F7F4F8F4F9F4FDB
:1058D00024E096958795779567952A95D1F7660F79
:1058E000771F709364016093630154980E94E103F1
:1058F00016BC10920301109204011092050110923F
:10590000060121E025BB20936E00109266011092E3
:10591000650134E03BBB809168008460809368003F
:10592000789480916D00806180936D0019820E944F
:10593000DA03A8954F9902C061E06A8380916D00F7
:1059400084FF05C089818F5F89838A3F81F715BCF9
:1059500080916D008F7E80936D00809168008B7FB9
:105960008093680086B5809303010E94170784E541
:105970000E94CC060E940F03E0916301F091640144
:10598000FD83EC8360910301709104018091050116
:105990009091060124ED30E340E050E00E94C335D1
:1059A000EC81FD815F01C12CD12CE12CF12C00E0B8
:1059B00010E00E94EC35EE81FF81612C712C4301D7
:1059C0005F010E94EC35490148875E831B012C0171
:1059D0002C813D812038310500F107E023E745EFB8
:1059E000B4018885952F0E94B20739813A3F69F545
:1059F0008FE30E94CC0610926E0080ED97E00E942B
:105A0000B0082A81820F29F43B8131503B83311148
:105A1000CACE2896E2E10C94643684E6A82EB12C16
:105A2000C12CD12CE12CF12C00E010E09401488530
:105A30005E81C2010E94EC35F22FE42F07E023E7DC
:105A400047EF6F2F732F8E2FCDCF940148855E8146
:105A5000B101C201263E354B410551056105710575
:105A60008105910541F238F20E941E0786E60E94E8
:105A7000CC060E940F03940148855E81B101C201EA
:105A800054012115FAEC3F07FAE94F07FBE35F07E2
:105A90006105710581059105F1F0E8F06A01710178
:105AA000820120E030E04AE85DE568E775E483E6DE
:105AB00091E00E94EC35F22FE42F07E028E44AEF52
:105AC0006F2F732F8E2F952F0E94B2078AE70E94A7
:105AD000CC06549890CFC884DE807101820120E00A
