:1000000015C024C023C022C021C020C01FC01EC0F4
:100010001DC01CC01BC01AC019C018C017C016C014
:1000200015C014C013C001041001020411241FBE26
:10003000CFE5D4E0DEBFCDBF20E0A0E6B0E001C058
:100040001D92AD3EB207E1F780D337CFD9CF80FD07
:10005000949A80FF94988C9A0000959A8D9A909823
:1000600091989298939864FD909A889A65FD919AD8
:10007000899A66FD929A8A9A67FD939A8B9A0000F4
:100080009598DAD087FD10C0959A9098919892989B
:10009000939860FD909A61FD919A62FD929A63FD3A
:1000A000939A00009598C8C0089580E2AAC18DE295
:1000B000A8C18DE3A6C1EF92FF920F931F93182F53
:1000C000062FF42E82E790E0CDD1EE24E09181005E
:1000D000F09182008685E81611F4812F09C084858D
:1000E000E81611F4802F04C08585E81611F48F2DD1
:1000F00088D1E3948E2D833049F71F910F91FF90A3
:10010000EF900895682F80E092E0662309F491E073
:10011000623009F481E008950F93082FE1EEF0E0DA
:10012000880F880FE80FF11D6081718182819381B2
:100130004FEF04E024EF15D2B8DF0F910895863019
:1001400058F4E4EDF0E0E80FF11DE80FF11D8081B7
:10015000918163E0A6D2A9CF08951F93182F8091B3
:10016000B300882319F0A1DF82E54BD164D189E681
:1001700090E078D1812F82958F70E1DF812F8F7091
:10018000DEDF1F9108958091600082958F7011D0FD
:1001900080916000837014D080916000DECF08955C
:1001A000E8ECF0E0E80FF11D089503D07EDFCF9179
:1001B0000895F6DF8F9380812FD18F9101C008952C
:1001C0008F938CE490E04ED18F91EADF868124C139
:1001D0000895E6DF8F9386811FD18F9101C0089526
:1001E0008F9388E490E03ED18F91DADF808114C153
:1001F000089503D002D001D000D000D003D002D0A7
:1002000001D000D000D003D002D001D000D000D067
:10021000A89503D002D001D000D000D003D002D0E6
:1002200001D000D000D003D002D001D000D000D047
:1002300003D002D001D000D000000895E8DFE8DF4D
:10024000E7DF1F93182F106417B920E030E0A901F1
:10025000E0E010C086ED809326008091260086FDA8
:10026000FCCF6091240070912500260F371F411D9F
:10027000511DEF5F80917600E81760F360917A007E
:1002800070917B0080E090E049DD2FEF33E040E0AB
:1002900050E073DDB901CA012091760030E040E002
:1002A00050E06BDDC9011F9108959B01281B390B9C
:1002B00050F0C9010895BC0180917A0090917B00B3
:1002C0006817790718F4861B970B089580E090E073
:1002D0000895EF92FF920F931F93CF93DF937C01CA
:1002E000C5E6879903C094DFC150D9F7E70105E55A
:1002F00010E0D7FD1BC08BDF000F879B0F5F0F73D4
:100300000F3341F4111102C0E70114E01F5F1639E9
:1003100028F00CC0011102C0111108C0A895209747
:1003200041F32A9731F7CFEFDFEFE3CF812FDF9152
:10033000CF911F910F91FF90EF90089520917C0035
:1003400030917D002C5F311D209363003093640059
:1003500064EE72E06093B4007093B50060E070E00A
:1003600080917C0090917D00860F971F909379007B
:10037000809378009093B2008093B10008950F921B
:1003800021E08C32920710F48CE291E08C52914083
:1003900069E170E0DEDC99E16B3210F0982F6BE2DE
:1003A000981BE0E0F1E0E60FF11DE60FF11D9F93D1
:1003B000CF017BDD482F3196CF0177DD582F319665
:1003C000CF0173DD282F3196CF016FDD382F6F916C
:1003D000421B530B649FC001659F900D11240C9626
:1003E00069E170E0B6DC620F731FCB010F900895D6
:1003F000CF93C82F1C1614F0CF91089556DEC1502C
:10040000F9CF909180009F5F90938000682F81E0EA
:100410001EDE09DFA89508958F5CF3CF0895682F3D
:1004200080E015DE00CF08951092E00080E8F7DF4D
:1004300010928000089581E08093E00080ECEFDF6F
:1004400010928000089560938000813021F480EC48
:10045000860FE5CF089580E8FBCF81E0E0DFD7DEAF
:10046000E3CF0895CF93DF93EC01CE011EDD882307
:1004700019F0C7DF2196F9CFDF91CF9108950F933F
:100480001F93CF93DF93EC0128968C010F5F1F4FD2
:100490000CDDB7DFC8010C171D07B9F7DF91CF914D
:1004A0001F910F910895AEDE83E3B9DF82E3B7DFDA
:1004B000AEDE80E2B4DF80E2B2DF8AE2B0DF88E065
:1004C000AEDF86E0ACDF82E0AADFC7DFA1DE8CE032
:1004D000A6DF88E4A4DF80E290E0D1DF80E59FDF43
:1004E00088E190E0CCDF88E59ADF88E290E0C7DF22
:1004F00080E695DF80E190E0C2DF88E690DF88E06B
:1005000090E0BDCF08959091800080E1891B70CF6D
:100510000895CF93C82FF7DF8091E0008F5F80931D
:10052000E000823058F081E08093E0008093830007
:100530006C2F8091E00087DFCF91089510928300A7
:10054000F7CF0F9383E890E08DDFE6EBF0E060817A
:1005500071818281938103E026E4468502D00F9168
:100560000895AEE0B0E0E6EBF2E03FCC142F622E4F
:10057000702E6B017C010F7080E389838A838B83EB
:100580008C838D838E8388EE93E0033031F080E19D
:1005900097E2043011F084E690E01C01512C412CCC
:1005A0002AE0822E912CA12CB12C0CC0C701B601DF
:1005B0006B5F7F4F8F4F9F4FA5019401DEDB690179
:1005C0007A011F5FC214D304E404F50478F786E0CF
:1005D000811B93E0592E652DB0DBA92E4E0187E0DB
:1005E000880E911C4AE0B401C60136DCF40101908A
:1005F0000020E9F731977F01E818F90881E1810FC0
:10060000652D9BDB90E0805090404FDC982E872D2D
:10061000807174FE05C0802F8E19E01608F080E00E
:100620000E2D0A19080F101624F08EE2EADE8A2D2C
:100630008E19A11001C008EFA12CC82ED12CEC0CF2
:10064000FD1C002E000C110BEA2DF0E0EE15FF054D
:100650005CF0992011F0892DD4DE662011F0862DF2
:10066000D0DE2E96E2E1DDCB3696EC19FD0981E075
:1006700090E08C0F9D1FE80FF91F8081C2DEA394CC
:10068000A016110609F78EE2BCDEDECF0F93362FDF
:10069000BC0190E080E0022F242F432F62DF0F91F6
:1006A00008950F93062FBC0190E080E026E54DEF02
:1006B00058DF0F91089540916500A0918100B0919D
:1006C0008200E8ECF0E030E020E0822F2417B0F464
:1006D00051911C969C911C97591719F055819513AF
:1006E00003C02F5F3F4FF1CF220F331FF901EC52B0
:1006F000FF4F20813181293E334008F084E1089585
:1007000010926700109265001092B0001092930052
:100710001092660010927F001092B300EBE9F0E0B7
:10072000108211821282E6EBF0E0148682E0858767
:10073000148215821682178281EF87870895969812
:100740005BDD90E080E0C5CD089580E481BB82BB95
:1007500086E886B953DDC4B7C87084B7877F84BF85
:100760000FB6F894A89581B5886181BD11BC0FBE04
:10077000789499DEC111A0C284E080BF879907C038
:1007800046DDCF5FCC33D1F780E69DE604C08FE530
:100790009DE6CF31C8F7909362008093610010927C
:1007A000770085DA88E19FE00FB6F894A89581BDBF
:1007B0000FBE91BD33E0B32ED0E141E2A42E54E848
:1007C000C52E50E0D52E61EAE62E60E0F62E10E14F
:1007D00073E3772E92E1992E20E2822E3EDE14BA48
:1007E0008FDF65DA21DE80E390E03CDE24DE9AD7FD
:1007F00080916700893049F430DE85E590E032DE93
:10080000809161009091620018C115DE87EF90E041
:1008100029DE42E061E080E058D242E060E081E021
:1008200054D241E062E080E050D241E060E082E0FA
:100830004CD240E062E081E048D240E061E082E0FA
:1008400044D28091670081110AC06CD760E082E0D9
:1008500021D861E082E01ED860E081E01BD8FDDD98
:10086000D0928200C092810080916700863091F41E
:100870008EEC90E0F7DD41E467E483E41CDCDBDD33
:1008800089E690E0EFDD62E0809188009091890038
:1008900008DFB6CF873039F487ED90E0E3DD42E33F
:1008A00067E481E3EBCF883011F41CDAA9CF833001
:1008B00009F0CBC080916500813009F048C080E02C
:1008C00074DC80E74ADC6091C8008091CE00E2D7FA
:1008D0008091C4008D3F84F480E890E0C3DD609196
:1008E000B6007091B7008091B8009091B90002E015
:1008F00026E44091C40035DE8091B300882309F4DA
:100900007FCFD4BB8091610090916200E2DC14BA89
:10091000A4DD80916500805D74DD83E490E0A2DD5C
:100920002091B300222309F4BDC180919E002130A3
:1009300009F05AC1E7DBC92F6FDD8EE390E092DD4D
:100940008C2F6ADD78DD80919E00E6DB59CF823006
:1009500049F582E356DD83E490E084DD9091C800A0
:100960003091C900931307C080E033DC81E028DCBC
:1009700081E0F3DBC1CF2091CE008091CF0028131E
:1009800005C080E016DC81E02BDCF2CF321305C01D
:1009900081E080936000F7DBAFCF981339C01093EC
:1009A0006000F9CF8330A1F5709260008091CE0095
:1009B0009091C900891303C021E020936000409109
:1009C000C8003091CF00431302C010936000209103
:1009D000CA00821303C082E0809360008091D0003F
:1009E000481302C08092600032130CC090926000E5
:1009F000981302C0A092600083E303DD83E490E0DB
:100A000031DDC9CF9817B1F3809160008232A0F335
:100A10008DED90E027DD85EC90E024DD0CDD80910C
:100A20006500805DEEDC8AE2ECDC8CE490E01ADDAF
:100A30008BEA90E017DD80E49FE1D4BB879BFECF7B
:100A400048DC8111CBCE7BDEC5CE843009F059C0A5
:100A50008091B000882361F080919300882341F059
:100A6000879906C08091660091E08927809366008F
:100A7000809166008C3079F58CE790E0F3DC809112
:100A8000B000882311F080E7BCDC0FDB14DE85307A
:100A900068F4809166008C3059F5909191008091B6
:100AA0009200891758F188E490E0DCDC43E462E4CA
:100AB00085E401DBC0DC86E890E0D4DCE0918100D5
:100AC000F0918200608171818281938103E020E056
:100AD0004EEF47DD95CEF0928200E092810088E7EC
:100AE00090E0C0DC80919300882379F28EE6CCCF31
:100AF0009091AE008091AF009817A8F68CE490E03A
:100B0000D4CF853009F00CCF8091660084FF23C0DC
:100B100080E577DCF0928200E0928100C8DA809173
:100B20006600C82FCF70C430C9F48FE890E09ADC1B
:100B30004FE367E48FE3BFDABEDD853068F580916F
:100B4000660084FF21C09091AE008091AF0098179D
:100B500008F182E020C08EE454DCE0CF85FF0BC0BA
:100B600084E44FDCC33049F489E890E07BDC43E463
:100B700067E485E4E0CF85E4F4CF84E990E072DCBB
:100B800044E467E483E5D7CF90919100809192008F
:100B90008917F8F681E035DC8091660085FD14C088
:100BA0004ADCE0918100F09182006685848572D6EE
:100BB000C8DC84E690E056DCE0918100F091820090
:100BC00062E08285938564CE89E41BDC72DAE09171
:100BD0008100F091820022E041E46AEF86819781F2
:100BE00055DD8FE590E0E7CF90919F0034E0939F33
:100BF000D0011124AF51BF4F34E0839FF001112485
:100C0000EF51FF4F2D903D904D905C904081518170
:100C100062817381C92F421553056405750508F07B
:100C2000C82F223011F5980FCB2DC91B6C2E66945E
:100C300002E00C1B55245394CC2311F082E0582E73
:100C4000862DEADB8EE390E00DDC802FE5DB8EE382
:100C500090E008DC852DE0DB80E05BDC81E0C11109
:100C600080E05ADA82E0861970CE8091A00094E08C
:100C7000899FD0011124AF51BF4F34E0C39FF001D1
:100C80001124EF51FF4F2D903D904D905C9040818D
:100C9000518162817381421553056405750530F6F3
:100CA000C82FC4CF85EB90E0DDDBC5DB82EE90E0A2
:100CB000D9DB8DED90E0BECEB7DB82EA90E0D2DBEF
:100CC0009ADA3DDD90E080E00895AEE0B0E0EAE63B
:100CD000F6E08BC88D876E87142FA8952E85E22F9E
:100CE000F0E0EA5DFF4FB49033968490E42FF0E09B
:100CF000EA5DFF4F0491E82FF0E0EA5DFF4F94902A
:100D0000339634913D8318BAB7BA34BB35BB4B2DFB
:100D1000402B4B8347BB8E8593DA6C01B7BA8E8527
:100D20008FDA9A83898317BA73DA08BB8B8187BB02
:100D30008E8586DA7C01B7BA18BA8C159D0508F045
:100D4000A9C08E857DDA9A838983C701805E9E4F14
:100D5000C816D90608F0A6C017BA18BA14BA29815D
:100D60003A81273C314008F47EC3B92CBB0C15BA3C
:100D7000B7BA68ECF62E1D81182914BB49DA84BA7B
:100D80008D855FDA429718F0FA94F110F6CFB7BA72
:100D9000B8BA61E0802FB0D48D8552DA6C0160E082
:100DA000802FAAD48D854CDAA82E192F97BA98BA1D
:100DB0008E8547DA7C018D8543DAB70181DA4C01F3
:100DC00061E0802F99D48E853CDA7C018D8538DAFC
:100DD000B70176DA7C01B7BAB8BA8816990630F04E
:100DE00060E0802F89D4CA2CD12E74018D8528DA39
:100DF000FC0128EC30E088E4C81686E0D80630F420
:100E0000960153E0369527955A95E1F798EEE91645
:100E100093E0F90608F020C3C70164E670E099D7B3
:100E2000C701875991098938914108F01CC3EE1513
:100E3000FF0508F018C32C0D3D1D2E153F0508F0C9
:100E400012C36C157D0508F00EC3809167008330D6
:100E500018F483E08093670020916500822F90E072
:100E6000FC01E853FF4F3D8530834E854683880F54
:100E7000991FFC01EC52FF4FF182E0822F5F20931B
:100E8000650014BA15BA17BA18BA8EE2BADA2E96F5
:100E9000E2E1C7C7C601805E9E4FE816F90608F476
:100EA0005BCF7601209193008091B000820F99274B
:100EB000991F02974CF0213009F04ECF909190008D
:100EC0008091AD00981348CF902F990F9F83A92E42
:100ED000AB2899299E8324E7E216F10408F4B3C0F5
:100EE0003AE0E30EF11CEE0CFF1C89819A818E150D
:100EF0009F0508F0A8C0A7BA8E85A1D97C01812FD3
:100F0000A0D96C019F8198BB8E8599D99701295AE8
:100F10003D4F15BA84BA2817390708F042C02E8110
:100F200027BB28BB812F8BD988349F40A8F185E04F
:100F30008093670082E280936600F0928900E092DD
:100F40008800B601C701BCD990938F0080938E00B2
:100F50009701A0E1B7E233D724E53BE140E050E060
:100F60000CD730938B0020938A00809193008F5F81
:100F70008093930081E0909193009F5F9093930002
:100F8000882309F47ECF109390002D852093910043
:100F90003E853093920075CF85E08093670084E2B0
:100FA000CACF4E8147BB48BB8D8549D97C01812F73
:100FB00048D96C0198BA8D8542D9895A9D4F8E15B2
:100FC0009F0508F0C9CE8D8185BB84BB812F37D9A1
:100FD000813D934098F585E08093670082E380939C
:100FE0006600B701C6016CD99093AC008093AB004A
:100FF000C70161D99C01A0E1B7E2E1D620E83BE15D
:1010000040E050E0BAD63093A8002093A70080912A
:10101000B0008F5F8093B00081E09091B0009F5F3F
:101020009093B000882309F42CCF1093AD008E85E7
:101030008093AE009D859093AF0023CF85E0809391
:10104000670084E3CCCF15BA84BA98BA3E8137BB27
:101050008D85F6D81C012FD97C01812FF2D86C0127
:1010600089819A818C599F4F9A87898769817A8172
:101070008E159F0508F053C0C70122D9DC0129EC69
:1010800034E041E050E0A7D6960150E040E075D64C
:1010900029013A0117BA18BA9D8195BB94BBB8D8FB
:1010A0002B8127BB8E85CCD88F359D4008F498C006
:1010B000A7BA8E85C4D87C01812FC3D89C878B8723
:1010C0008D85BFD82B853C85213D3740E8F184E0F4
:1010D000809367008DE0809366008091B000882344
:1010E00071F08091A1009091A200A091A300B09115
:1010F000A40084159505A605B70508F0B8C140926F
:10110000A1005092A2006092A3007092A400B601C8
:10111000C101D6D89093A6008093A5007DCFC701CA
:10112000CFD87C01802F892987BB8D8589D81C0168
:10113000C2D8812F86D86C01BC01C701C1D89C01DF
:10114000A4E6B0E03CD6A0CF29813A812136310512
:1011500008F046C031EDE31637E0F30608F440C06E
:1011600025E0209367004AEFE40EF11CE816F9062B
:10117000A8F182E180936600882D8770882E812FE8
:10118000806487B9BBE09B2ECC24C394D12CEE2481
:10119000EA9493E0F92EA89561E0802FADD2A7BA2A
:1011A00083B38821E9F3B7BA369A3699FECF84B172
:1011B00095B19701281B390BC20ED31E9A9491103A
:1011C000EACFC601880F991F880F991F69E070E068
:1011D000C0D57093AC006093AB0019CF83E1CACF48
:1011E000A7BA3F8138BB8E852BD81C01812F29D807
:1011F0006C0161D87C0189859A858215930508F078
:101200008DC069817A81C1015BD8DC012DE636E0B1
:1012100041E050E0E0D5970150E040E0AED5290133
:101220003A0184BA15BA302F39293B8337BB38BB12
:101230008D8506D85C01812F04D898878F838E8591
:1012400000D87C0140E3A41641E1B40608F001C1D6
:1012500098BA8D85F5D79A87898797BA8D85F0D703
:101260009C878B8718BAD4D798BA8D85E9D72B85F8
:101270003C852034364008F06BC08133914108F43E
:1012800067C0C5018A569F4F29853A8528173907B7
:1012900008F05EC086E080936700809193008F5FC6
:1012A00080939300B7018F8198850AD89093890025
:1012B00080938800B701C50103D890938F00809375
:1012C0008E0017BA18BA85BAA3D797BA8D85B8D742
:1012D000853F910508F04ECE3B8137BB812FB0D7BB
:1012E000813D934008F446CE8D85ABD78D3D92402D
:1012F00008F440CE97BA8D85A3D78D3D924008F46F
:1013000039CE98BA85D718BA8D859AD7853F910579
:1013100008F030CE87E0809367002CCE9B8197BB8E
:1013200008BB8E858DD71C01812F8BD76C01C3D74D
:101330007C0129813A81C1012215330510F4821BF9
:10134000930BB701BDD79C01A4E6B0E038D563CFBD
:1013500084BA4E8148BB8D8571D77C01ACD79C8304
:101360008B83812F6ED7A7D75C018E856AD72EEF2E
:10137000A21629E0B20640F184E0809367008CE079
:101380008093660080919300882371F0809184009F
:1013900090918500A0918600B091870084159505F5
:1013A000A605B70508F065C04092840050928500FC
:1013B0006092860070928700B101C60181D7909338
:1013C000890080938800D6CD29813A812136310564
:1013D00008F03FC02B813C8129343D40D0F125E00D
:1013E0002093670086509F4F8E159F0580F182E005
:1013F000809366008D818770C82E812F806487B9A5
:10140000EBE0DE2EEE24E394F12CA89560E0802F33
:1014100073D19E8197BB98BB83B38C21E9F797BAB0
:10142000369A3699FECF84B195B1E80EF91EDA945A
:10143000D110EBCFC701880F991F880F991F69E062
:1014400070E087D470938F0060938E008ECD83E020
:10145000CFCF14BA15BA80CCB70144E07695679522
:101460004A95E1F7DDCC6E858D8505D00ACD80E00B
:10147000D4CD80E080CDB0E0A0E0E0E4FAE0B9C4F3
:10148000C82FD62FA895E62FF0E0EA5DFF4FD49045
:1014900033968491EC2FF0E0EA5DFF4F9491339600
:1014A00014912091B00030919300230F3327331F04
:1014B000232B09F05FC0092F000FA8952091690028
:1014C00030916A00220F331F220F331F30937B00AD
:1014D00020937A002091B1003091B200220F331F87
:1014E000220F331F30937900209378002EEB209346
:1014F000760015BA84BB97BB98BB862FA1D63C015A
:101500008C2F9FD65C0118BA07BB8C2F99D68135DA
:101510009105E8F408BB8C2F93D64C0114BB15BB86
:1015200018BAD7BA8C2F8CD68C018D2F8AD67C0115
:10153000DD0CD7BA8D2F84D66C0120ECA21624E4E2
:10154000B206E0F485E8881681E09806E0F0809124
:10155000690090916A0090937B0080937A0080915B
:10156000B1009091B20090937900809378008CE262
:1015700080937600CDB7DEB7EEE057C4A0EB8A16B5
:10158000ADE49A0620F7B4EAEB16B2E0FB0608F0E9
:101590007CC028E9C216D104D0F2C4018CD6AC01BB
:1015A0009401A8E9B7EB0BD49A0150E040E0E5D3F1
:1015B00049015A01C6017FD69C01A8E9B7EBFFD3C8
:1015C000960150E040E0D9D3280D391D4A1D5B1D1E
:1015D0005695479537952795A4E6B0E0FCD36B0167
:1015E0007C01ACEACA0EADE0DA1EE11CF11C1091E0
:1015F0006700143008F0ABCFC150CD0F4C2F50E036
:10160000FA01E556FF4F8081440F551F440F551FC7
:101610004F515F4FDA01882309F466C08D909D9089
:10162000AD90BC90A7019601281939094A095B09B8
:1016300057FF07C050954095309521953F4F4F4F2C
:101640005F4FAAE0B0E0C7D3B4E68B0E911CA11C9B
:10165000B11CC80CD91CEA1CFB1C6C157D058E0541
:101660009F0508F074CF133019F081E08093670074
:1016700082E080838091B300E82FF0E0E256FF4FD4
:10168000C0838F5F8093B30062CFB301A614B70409
:1016900008F4B501C50114D66C01C5010CD6AC0126
:1016A0009601A0E8BBE18BD39A0150E040E065D3FE
:1016B00049015A01C8010E151F0508F4C701B701F9
:1016C000FFD59C01A4E5BBE17AD3970150E040E04F
:1016D00054D369017A01C80CD91CEA1CFB1CF6948E
:1016E000E794D794C79483CFCD92DD92ED92FC928C
:1016F000139781E080832BCFCF93C82FC09598B3E9
:1017000060FF0EC0982B98BB97B3982B97BB7FD5E3
:1017100087B38C2387BB88B38C2388BBCF91089574
:101720009C23F1CFB0E0A0E0E7E9FBE067C31AE05B
:101730008FE3B82E09E014BA15BA18BAB7BA80E028
:101740007FD57C0181E07DD5EC0182E07AD59C01DA
:1017500080916700893061F084E0E816F10470F44C
:10176000C430D10508F050C02430310508F04EC017
:1017700014BA17BACDB7DEB7E9E05CC391E088EEE2
:10178000E81683E0F80608F090E0C83ED34008F47D
:101790009260283E334008F4946094BBD0E0C0E0EF
:1017A000A89580E04BD56C0181E04BD57C0182E0AF
:1017B00048D524E1C21625E0D20608F4A09A24E117
:1017C000E21625E0F20608F4A19A843125E092079A
:1017D00008F4A29A26E0C216D10430F426E0E216FC
:1017E000F10410F4069738F02196C43F81E0D80741
:1017F000B9F600936700F12CE12CEC16FD0641F4DC
:10180000115009F098CFB6CF91E0BFCF91E0C0CF93
:1018100004D52FEFE21AF20AF0CFCF92DF92EF92C7
:10182000FF92CF932091B6003091B7004091B8005D
:101830005091B900C091C4008AE0C82ED12CE12C8F
:10184000F12C8C2FCF5F213A96E8390791E04907B8
:101850005105D0F48093C400A0917A00B0917B0030
:10186000BAD228E833E140E050E087D22093B600B6
:101870003093B7004093B8005093B900CF91FF90D8
:10188000EF90DF90CF900895CA01B901A7019601AA
:1018900074D2D7CFB0E0A0E0EFE4FCE0ACC2182FE8
:1018A000D62EE82FF0E0EA5DFF4F0491862F90E0FE
:1018B000FC01EA5DFF4FC491FC01E75DFF4FC4905E
:1018C000809167009091650028EC30E0D90181306B
:1018D000B9F4CDB7DEB7ECE0AAC216968C91169794
:1018E0008D110DC08C9181130AC0FD01EE0FFF1FF9
:1018F000E85CF040448555854C3D554050F31196C9
:101900008A2F821B891748F381EF8093C4001092BD
:10191000B6001092B7001092B8001092B90002DF22
:1019200015BAC4BAC7BBC8BB812F8BD47C018D2D1F
:1019300088D417BAD0E0C0E05C01AE18BF0808BB7D
:1019400007BB65D417BA18BA69D4A895812F79D482
:101950007C014501880E991ECE37D10520F02BE47D
:10196000821691045CF03DE2831631E093060CF0A0
:1019700001C12196C43F81E0D80709F714BA15BA0E
:1019800017BA18BAA6CF25E1821625E092060CF404
:10199000F4C0C8DE18BA87E084BB15BAF02EFF0C7D
:1019A000F7BA88E080BF84E588B9812F806487B961
:1019B00086E186B936D41FBC1DBC1CBC8CE388BF35
:1019C000F8BA80916700853009F0C7C081E08EBD0C
:1019D00081E090E0012E01C0880F0A94EAF780951B
:1019E000877084BB94E088B785FD09C082FFFBCF78
:1019F00098BFA8952196C03436E0D307A1F71EBC46
:101A000090E298BFE6B4F7B42CB53DB5E216F30604
:101A100028F482FF03C084E088BF219686E986B956
:101A200017BA18BA812F0DD420917C0030917D0017
:101A3000821B930B04969093C7008093C600C0321C
:101A400083E0D80708F09ACFD093C100C093C000BC
:101A5000F092BF00E092BE0084EF8093C400C234D5
:101A6000D105C0F06091BE007091BF008091C000B0
:101A70009091C10024E630E040E050E07ED1209318
:101A8000BE003093BF004093C0005093C10086EF6A
:101A90008093C400A091B400B091B5002091BE0025
:101AA0003091BF004091C0005091C10094D120E21C
:101AB00033E040E050E061D12093BE003093BF009E
:101AC0004093C0005093C1002093B6003093B700FC
:101AD0004093B8005093B900A0DE8091C400843FC9
:101AE00069F5113099F48091B6009091B700A091FA
:101AF000B800B091B9000296A11DB11D8093B60047
:101B00009093B700A093B800B093B9008091B6004D
:101B10009091B700A091B800B091B9008F319105B4
:101B2000A105B105F0F04E97A109B1098093B60067
:101B30009093B700A093B800B093B90007BB809111
:101B4000B6009091B700A091B800B091B900499744
:101B5000A105B10508F06AC011CF81E08EBDC4BAFD
:101B600041CF1092B6001092B7001092B8001092B8
:101B7000B900E4CF209709F406CFB12CA12C48D3AB
:101B8000812F5FD3A8953FEFA31AB30ACA15DB05CF
:101B9000B0F79701281B390BC901293C31050CF01E
:101BA000EDCE2196AE0170E060E04093BE00509310
:101BB000BF006093C0007093C100880D991DDFD3F2
:101BC0002091BE003091BF004091C0005091C100F3
:101BD000DC0101D16093BE007093BF008093C00010
:101BE0009093C1006093B6007093B7008093B800E3
:101BF0009093B90087EF8093C4000FDE2091B60068
:101C00003091B7004091B8005091B900A3EEB3E015
:101C1000E2D024E630E040E050E0AFD02093B600C0
:101C20003093B7004093B8005093B900809165009D
:101C3000882329F080916700853009F09FCE88E0E5
:101C4000809367008091C4009091C5009817C4F0FC
:101C5000891394CE8090B6009090B700A090B80001
:101C6000B090B9004091BA005091BB006091BC00A7
:101C70007091BD00481559056A057B0508F07ECEB8
:101C80004091B6005091B7006091B8007091B900D2
:101C90004093BA005093BB006093BC007093BD00AA
:101CA0008093C500D092C2001093C30067CECF933B
:101CB000DF9388E893E190936A0080936900C6E718
:101CC000D0E09D838C838EEB888382E195E09093B6
:101CD0007D0080937C0032D325DD8CE28883DF9108
:101CE000CF9108950F93CF93DF939ED3C6EBD0E0AF
:101CF0008C8592D38BE590E0B5D38D858DD303D4BD
:101D00009AD36C817D818E819F8104E026E44F858A
:101D100028D4F9D3DF91CF910F910895DB018F93F0
:101D20009F9359D0BF91AF91A29F800D911DA39F0A
:101D3000900DB29F900D11240895991B79E004C075
:101D4000991F961708F0961B881F7A95C9F78095FA
:101D50000895AA1BBB1B51E107C0AA1FBB1FA617F2
:101D6000B70710F0A61BB70B881F991F5A95A9F744
:101D700080959095BC01CD010895A1E21A2EAA1B71
:101D8000BB1BFD010DC0AA1FBB1FEE1FFF1FA2172B
:101D9000B307E407F50720F0A21BB30BE40BF50B28
:101DA000661F771F881F991F1A9469F760957095B1
:101DB000809590959B01AC01BD01CF010895A29F34
:101DC000B001B39FC001A39F01D0B29F700D811DD0
:101DD0001124911D0895F3DFA59F900DB49F900DE0
:101DE000A49F800D911D112408952F923F924F9230
:101DF0005F926F927F928F929F92AF92BF92CF929B
:101E0000DF92EF92FF920F931F93CF93DF93CDB7A3
:101E1000DEB7CA1BDB0B0FB6F894DEBF0FBECDBF1B
:101E200009942A88398848885F846E847D848C84EC
:101E30009B84AA84B984C884DF80EE80FD800C81F5
:101E40001B81AA81B981CE0FD11D0FB6F894DEBFD8
:101E50000FBECDBFED010895BB27FB015527AA2773
:101E6000880F991FAA1FA41710F0A41B8395505127
:101E7000B9F7A05DAA3308F0A95DA193009779F79F
:101E8000B111B1931192CB0100C0DC01FC01672FAD
:101E900071917723E1F7329704C07C916D93708341
:101EA0006291AE17BF07C8F30895E199FECF9FBBBB
:0E1EB0008EBBE09A99278DB30895F894FFCF6A
:00000001FF
