:100000007BC700008BC7000089C7000087C70000BE
:1000100085C700000C94E53481C700000C94501192
:100020007DC700007BC700000C9438290C94D434A1
:100030000C94D9340C94142971C700006FC70000C8
:100040000C94B3346BC7000069C7000067C7000099
:1000500065C700000C94511161C700005FC7000024
:100060005DC700005BC70000E62FF72F903009F452
:100070009395E5B8C4B8B6EFB0937A00A5E0A09325
:100080007B00A8E0A093810010928000AFEFA093C6
:100090008500A0938400A6E0A093360010928B0008
:1000A00010928A00B3E0AFE3A91B51E0392F33303F
:1000B0002AF0A05CBC4F53953350F9CFB093890020
:1000C000A0938800A0917A00A4FFFCCFB6EBB09378
:1000D0007A00A2E0A0936F00A9E0A093810062E003
:1000E000A0E0A0937B00A1E0A09353008895E5B821
:1000F000C4B884FF1AC0A8E10000AA95F1F7EF93F5
:10010000FF93E7B1F8B1A4E0C2FCA2E0C0FCA1E01B
:10011000BF2FBA2BAE2BB8B904B9A7B9E7B9F8B954
:10012000FF91EF910BC00C947300ACE10000000054
:10013000AA95F1F725B9E5B8000004B9A0918400AB
:10014000A0918500B0918900A395AB1760F7A091AD
:100150007A00A4FFF3CFB6EBB0937A006A9571F7FB
:100160006091780070917900308186FD630F619312
:10017000308186FD731F80FF7193652F4A9579F753
:1001800010926F0010928100B6E0B0937A0008954B
:10019000C801BF01B60118000720080808F80000D0
:1001A000002060A03FA06020020202FF02020210B5
:1001B00010101F0000000708FFDBBDB5B5CBFF071F
:1001C00008FFBB9DADADB3FF0708FFFFF7FB81FF45
:1001D000FF10100508F878385888091003081C3EED
:1001E0007F0D080710FF818181F1E1C1FF40404090
:1001F0004743410D080110FFFF11080310F1E1C151
:100200004743410E0008202121122060E0E0E0FE7B
:10021000FE0402010001037F7F21C2C4C4C04094D8
:10022000840007030102040E080210FEFE7F7F0017
:10023000000000110005202060E0E0E00201000164
:1002400003C2C4C4C0400703010204010410090A28
:100250000C4E6F742063616C696272617465642115
:1002600020466F72FF63616C6962726174696F6EC0
:1002700020636C616D70207468652033FF70696E57
:100280007320746F67657468657220616E64207393
:1002900074617274207769746820746865FF6B6597
:1002A000792E2041636B6E6F776C6564676520748F
:1002B00068652073656C662D746573742077697446
:1002C0006820746865206B65792077697468696E49
:1002D000FF32732E20446973636F6E6E6563742002
:1002E00070696E7320616674657220746865FF6D55
:1002F000657373616765202269736F6C617465FF54
:1003000050726F626521222069732073686F776E67
:100310002E20536F66747761726520616E6420646D
:100320006F63756D656E746174696F6E206973209B
:100330006174206769746875622E636F6D2FFE6B40
:10034000756269343800B903870358032E03070325
:10035000E402C302A40288020000140029003E0047
:100360005300690080009700AE00C600DF00F8006F
:1003700012012D01490165018201A001BE01DE01CA
:10038000FF012102440268028E02B502DE02090367
:10039000350364039403C803FE0337047304B404F1
:1003A000F90443059305EA054906B3062907AE0794
:1003B0004808FF08DE09FD0A930C480F991B00004E
:1003C00000000000000000000000000000001E21EE
:1003D00021211200807F0000007E4A4A4A3400003A
:1003E00000000000FC402010080402010000000191
:1003F0000101010101010101010101017F0488D016
:10040000E0F0F80000000000000000000000000024
:100410000000000000FC94948400000102FC000035
:10042000000000000000000000001E21212112E059
:10043000C0804020100F000000C02020204000009D
:1004400000FC00009E9E0403030303020000002042
:100450002023242525232020203F00007B7B2142D0
:10046000840480C0000000000000000000000000C4
:100470000000FC94948400040607070708F00000BD
:100480000000000000000000000000803F21211259
:100490000C00000000FF000000F0084848C8000001
:1004A000FE0000E7818181C1E1F1818181010020AD
:1004B00020202121212020203F0000F34040404106
:1004C000434740407FC000000000000000000000E3
:1004D00000000000489494946400000000FF0000B5
:1004E00000000000000000000000000000003F21AC
:1004F00021120C0000FF000000F0084848D0000066
:1005000000000000FEFE04040404040404070008C4
:10051000080809090908087F3E1C08087F7F202079
:100520002020202020E0000000000000000000004B
:1005300000000000000048949494640000FF000054
:10054000000000000000000000FF003C0A090A3C17
:10055000002231292926000082868E9EBEFEFEBE24
:10056000DEEFF6FAFEFEFAF2E2C2820000000808B0
:100570000804027984A4A46800FF000000000000C1
:10058000000000000000000000000000000000006B
:1005900000FF0000F0282428F0001008FC000000F4
:1005A0000000000000000000003C0A090A3C00FFB7
:1005B000000000000000000000000000000000003B
:1005C0000000040C1C3C7CFF7C3C1C0C0400000064
:1005D0000000009EA1A9A99A804323130B0703FFE3
:1005E00003030303030300000000000000000000F9
:1005F00000788484844800FF0000000000000000B0
:1006000000F00804E2110909090909090909091199
:1006100021C2040810E000000001020404070000E9
:1006200000000080402010884423100804030000CC
:10063000000000000000000000FE0100FC020100BC
:1006400000000000000000000000000000000000AA
:10065000007949497900000000000000000000F81E
:10066000040222548804030002020100788402027A
:100670000284780604070007040600FC00000080DE
:10068000FC0007010101000100000C12120C000027
:10069000000000000000000000000000000000005A
:1006A00000000000003CFE3C0000000000060000CE
:1006B000000000160E00160E0000000000000000F2
:1006C0000010FC1010FC10000107010107010018C8
:1006D00024FE4488000003040F0403000C12924C13
:1006E00020100802010006090906885422548800D7
:1006F000800102040402010200160E000000000046
:100700000000000000000000F008040200000001EA
:10071000020408000000020408F0000000080402BF
:1007200001004850E0FCE0504802010007000102CF
:10073000404040F84040000000000300000000007E
:100740000000000000000B05000000004040404099
:1007500040404000000000000000000000000000D9
:100760000000060600000000000000C0300C03007E
:100770000C0300000000F8844222120CF80102046D
:100780000404020100080402FE000000000000074B
:10079000000018844242422418070404040404049C
:1007A0000C02022222548803040404040201605053
:1007B000484442FE40000000000007003E221212A2
:1007C0001222C201020404040201F82412121222AD
:1007D000C4010204040402010202824222120E0039
:1007E00007000000000088542222225488010204DD
:1007F00004040201384482828244F802040404049E
:1008000002010018180000000000060600000000A9
:1008100000181800000000000B0700000000004056
:10082000A01008040200000001020408002020209B
:10083000202020000101010101010002040810A094
:10084000400008040201000018040282422418003B
:1008500000000D000000FC0262929292FC0304046E
:1008600004040400F08884828488F00700000000FB
:100870000007FE2222222222DC07040404040403CF
:10088000FC02020202020C03040404040403FE023C
:1008900002020202FC07040404040403FE222222D2
:1008A00022220207040404040404FE22222222025B
:1008B0000207000000000000FC0202024242CC03DA
:1008C000040404040207FE2020202020FE0700006C
:1008D00000000007000002FE020000000004070400
:1008E00000000000000000FE0000020404040300F9
:1008F000FE20508804020007000000010204FE00F0
:10090000000000000007040404040404FE040810AE
:100910000804FE07000000000007FE0618608000C3
:10092000FE07000000010607FC0202020202FC03AF
:10093000040404040403FE42424242423C07000015
:1009400000000000FC0202020202FC030404040591
:100950000205FE4242C242423C070000000102047E
:100960000C12222222428C03040404040403020217
:1009700002FE02020200000007000000FE0000006C
:100980000000FE030404040404030E708000807061
:100990000E000003040300007E8000E000807E0063
:1009A000000700070000020C9060900C0204030096
:1009B000000003041E20408040201E0000000700AD
:1009C000000002824222120A0607040404040404FE
:1009D00000FE0202000000000704040000000810EE
:1009E0002040800000000000000001020000000222
:1009F00002FE0000000004040700100804020408BE
:100A000010000000000000000000000000000004D2
:100A10000404040404040000000E1600000000009A
:100A200000000000804848484848F00304040404DB
:100A30000207FE2010101010E00704040404040351
:100A4000F008080808081003040404040402E01075
:100A500010101020FE03040404040407F0888888A2
:100A6000888870030404040404040020FC22220289
:100A70000400000700000000708888888888F00063
:100A8000040404040403FE4020101010E0070000DA
:100A900000000007000008FA000000000000070046
:100AA000000000000000FA0000020404040300003B
:100AB000FE4040A0100800070000000102040000F2
:100AC00002FE00000000000003040000F81008F01F
:100AD0000808F007000007000007F82010080808C1
:100AE000F007000000000007F00808080808F003FD
:100AF000040404040403F89008080808F00700013F
:100B000001010100F00808080890F8000101010146
:100B10000007F82010080808300700000000000057
:100B20003048488888881002040404040403001034
:100B3000FE1010000000000304040402F80000008E
:100B40000000F803040404040207186080008060B9
:100B50001800000106010000F80000C00000F801C4
:100B6000020403040201081020C02010080402013E
:100B700000010204788080808040F80204040404AC
:100B8000040308088848281808020504040404041B
:100B900040A01C020200000000070808000000003E
:100BA00000FF0000000000000F0000000000020233
:100BB0001CA040000008080700000402010204080D
:100BC0000400000000000000E01008040408100108
:100BD00001010101010102FE2222224E80040704CC
:100BE0000404020102FE020202020E0407040000D5
:100BF000000005FD44F4051D000407040504040677
:100C000002DE60FE60DE02040700070007040E0437
:100C100002222254880102040404020102FE8070B0
:100C200008FE020407040004070404FC01E211FCAE
:100C3000040407050004070400F0080402FE02048F
:100C400007000004070402FE020202FE0204070479
:100C500000040704027E828042FE020002040404B3
:100C60000300F0080AFE0A08F0000105070501006C
:100C7000027E828042FE020000000004070402FEA1
:100C800002F002FE02040704070407040E02FE122B
:100C90000808F00404070404020102FE1208F00030
:100CA000FE040704040300078E0402722224F801E4
:100CB00002040404020102FE20FC0202FC040700FC
:100CC00003040403182442C242FE02040601000485
:100CD0000704F04824242242800102040404020193
:100CE00004FC444444A8100407040404020104FC66
:100CF0000404041C0004070400000000F0494544FB
:100D00004549700102040404020108B8C0F8C0B8E3
:100D100008040700070007041C08044444A8100145
:100D200002040404020108F808C028F808040705B2
:100D30000004070408F902C422F9080407050004A6
:100D4000070404FC40A018040C040700000106047A
:100D500000E0100808F8080407000004070404FC79
:100D600074C074FC040407040004070404FC444039
:100D700044FC040407040004070404FC040404FC09
:100D800004040704000407041C0404FC04041C00FD
:100D900000040704000008F8080088F808000001B3
:100DA0000104070408F808C008F808040704070449
:100DB00007043808F8482020C00004070404020192
:100DC00008F84820C000F80407040403000708F8E6
:100DD000482020408004070404040201381008E879
:100DE0004850E00102040404020108F840F0080839
:100DF000F0040700030404036090080808F80800E2
:100E00000405030507040000F80402FE020C0605B1
:100E10000404070C02FE020002FE020203020202A8
:100E20000B0602FE02F002FE0202030203020B06A0
:100E30000000E01008F80806030202020306C020C2
:100E400014FC1420C000010A0F0A010004FC040075
:100E500004FC0402030202020B0604FC04E004FC8E
:100E60000402030203020B0640F010101010F040C1
:100E7000000101010101010040FCF8F0E040FC40EC
:100E8000000703010000070040FC40E0F0F8FC40D0
:100E9000000700000103070040FCFC0000FCFC40D0
:100EA0000007070000070700F808080808080808F6
:100EB000030202020202020208080808080808F8F1
:100EC0000202020202020203404040404040404011
:100ED000000000000000000040C000C020C000C0B2
:100EE000000102020102020220C000C020C000C0B6
:100EF000010202020102020111241FBECFEFD8E05D
:100F0000DEBFCDBF21E0A0E0B1E001C01D92A63C54
:100F1000B207E1F70E94D8150C94EF3D71C85A98BA
:100F2000529A5898509A5D98559A5C98549A67FDD1
:100F30005C9A20D066FD5C9A1DD065FD5C9A1AD043
:100F400064FD5C9A17D063FD5C9A14D062FD5C9AD4
:100F500011D061FD5C9A0ED060FD5C9A0BD0589A5E
:100F600058985C98549A80FD5C9A47D15D9A45D117
:100F70005D983EC15A9A5A9A5A985C98089580FD95
:100F80005B9880FF5B9A81FD599881FF599A539A2B
:100F9000519A089597FF09C08F939F938DE2ABD527
:100FA0009F918F91909581959F4F62E271E04AE009
:100FB00050E00E948E3D12C6EDDF01C0EBDF80E203
:100FC0009AC58DE298C58DE396C5EF92FF920F9377
:100FD0001F93182F062FF42E82E691E00AD6EE24F6
:100FE000E0913D01F0913E018685E81611F4812FD4
:100FF00009C08485E81611F4802F04C08585E816A1
:1010000011F48F2D78D5E3948E2D833049F71F91FD
:101010000F91FF90EF900895EF92FF920F931F931F
:10102000182F062FF42E80E081D488E691E0E1D5D8
:10103000EE248E2DD0D5C7DFE0913D01F0913E0129
:101040008685E81611F4812F09C08485E81611F40D
:10105000802F04C08585E81611F48F2D4CD5AFDFA5
:10106000E3948E2D833029F71F910F91FF90EF901D
:101070000895682F80E092E0662309F491E06230E1
:1010800009F481E008950F93082FEEEAF1E0880F4C
:10109000880FE80FF11D6081718182819381643630
:1010A00071058105910568F42091200127FD09C093
:1010B000802FDFDF692F03D26EEF23E04DE1BED634
:1010C00004C04FEF04E02DE1D9D579DF0F910895E9
:1010D000863058F4EDE9F1E0E80FF11DE80FF11D5D
:1010E0008081918163E0B5D66ACF08951F93182F50
:1010F00080917601882319F062DF80E0FCD4DDD393
:1011000089E591E076D5812F82958F70E1DF812F7F
:101110008F70DEDF1F9108958091060182958F7098
:1011200018D08091060183701AD080910601DECF1D
:10113000E1E9F1E0E80FF11D0895CF93F9DF908127
:10114000C681C91710F405D001C012D038DFCF9185
:101150000895EEDF8F9380813ED58F9100C08F93ED
:1011600087E291E046D58F91E3DF868134C508950B
:10117000DFDF8F9386812FD58F9100C08F9383E21D
:1011800091E037D58F91D4DF808125C508958F9365
:101190002F932AE080953B9A089410F4439802C05C
:1011A000439A000020D027D086952A95B1F72F9139
:1011B0008F91089503D002D001D000D000D003D089
:1011C00002D001D000D000D003D002D001D000D096
:1011D00000D0A89503D002D001D000D000D003D019
:1011E00002D001D000D000D003D002D001D000D076
:1011F00000D003D002D001D000D00000089582E0DA
:1012000090E0893C28F0885C48EC849FC001112460
:10121000009709F4089540918100477019F0D9DFD3
:101220000197F6CF8130910519F002975EE303C074
:1012300057E180E090E04091B200450F4093B30049
:1012400042E04093700047E043BF889546E043BFCB
:1012500010927000A895DCCF8F9384E0D1DF06C098
:101260008F93CDDF03C08F9381E0CADF8F911F93EF
:10127000182F106410937C00E12FE07880912D01ED
:10128000E81759F0E0932D01AEDF8EE980937A00E4
:1012900083E083BF889582E083BF20E030E0A9012E
:1012A000E0E01FC08EE980937A0083E083BF8895D9
:1012B00082E083BF6091780070917900260F371F1C
:1012C000411D511DE43061F480912F01803041F0C7
:1012D00084E02030380720F417FD02C01068CACF20
:1012E000EF5F80912C01E817E8F260913001709176
:1012F000310117FF04C060912E0170912F0180E031
:1013000090E00E94FE3B2FEF33E040E050E00E946F
:10131000403CB901CA0120912C0130E040E050E08E
:101320000E94403CC9011F9108959B01281B390B65
:1013300050F0C9010895BC018091300190913101B4
:101340006817790718F4861B970B089580E090E0E2
:10135000089588E393E00E94C93D209134013091C3
:101360003501280F391F209316013093170183E0B0
:10137000283E380720F0C901885E934002C080E013
:1013800090E062E370E00E94193C683008F067E08A
:10139000E6E4F3E0E60FF11DE60FF11D45915591EE
:1013A0002591359162E3681B421B530B649FC0017A
:1013B000659F900D1124499662E370E00E94193CEC
:1013C000620F731F70937A01609379018AE393E04F
:1013D0000E94C13D992787FD9095609134017091DD
:1013E0003501860F971F90932F0180932E019093C4
:1013F00075018093740108950F9221E08C32920759
:1014000010F48CE291E08C52914069E170E00E940E
:10141000193C99E16B3210F0982F6BE2981BE6EBC8
:10142000F2E0E60FF11DE60FF11D9F93CF010E9440
:10143000C13D482F3196CF010E94C13D582F3196B2
:10144000CF010E94C13D282F3196CF010E94C13D9E
:10145000382F6F91421B530B649FC001659F900D05
:1014600011240C9669E170E00E94193C620F731F11
:10147000CB010F900895CF93DF9324E130E0B901C1
:101480000E94193CDC01E8E5F3E0E60FF71FE60FE8
:10149000F71FC591D591459155914C1B5D0B4A9F06
:1014A000C0014B9F900D5A9F900D1124B9010E94CD
:1014B000193C6C0F7D1FCB01DF91CF910895AEE1F8
:1014C000B0E0E5E6FAE00C942E3D662EB82E860FCD
:1014D000898320911A01283059F520917F0130919C
:1014E0008001409181015091820157FD15C01091FA
:1014F0008E0109C0CA01B9012AE0312D412D512DBB
:101500000E94403C1F5F173FACF391F4243160E030
:1015100036074105510518F48FEF9FEF42C1173F81
:1015200039F480E028178DE738074105410510F0B0
:1015300020E03DE72C8B3D8B26EDA22EEEE4F2E081
:10154000E60DF11D859188608E87EEE4F2E0EB0DEB
:10155000F11D859188608F87EBE4F2E0E60DF11DC7
:101560007590EBE4F2E0EB0DF11DC59090EC692A6B
:10157000B92A81E0E82EF12C012D112D8E831F82D6
:10158000188619861A861B861C861D86188E198E4B
:101590001B8E1A8E0E94672588E088B960927C00B5
:1015A00022DE3F8537B975B874B852E05A95F1F725
:1015B0000000000014B815B8DD243E8537B975B8B1
:1015C00074B860927C00A895A0927A0080917A000D
:1015D00086FDFCCF2090780030907900B0927C009E
:1015E0004C2DE3D02091780030917900288B398BF5
:1015F0003F8537B9C5B8C4B8A895B0927C00A09211
:101600007A0080917A0086FDFCCF6091780070911D
:10161000790060927C00472DC8D0409178005091AD
:10162000790014B8CB01820D931DE80EF91E011D3F
:10163000111DEA82FB820C831D8388899989840F9E
:10164000951F2E813F8168857985280F391F611D7F
:10165000711D2E833F836887798722E3241715063F
:1016600048F075B874B8C9DD14B815B8888D83957D
:10167000888F07C0483E73E0570718F08A8D83951E
:101680008A8F888999892817190658F03E8537B9B5
:10169000C5B8C4B8B2DD14B815B8898D8395898FE3
:1016A00007C0883E73E0970718F08B8D83958B8F6A
:1016B000D3945D2D5F3F49F05F3731F45C2D550FBA
:1016C000C50E572D550F750E78CF409039015090AB
:1016D0003A01440C551C9201E4E0240D351DEA95B5
:1016E000E1F72901570168016E807F808884998421
:1016F00020911A012830C1F46C897D89812D912DAA
:1017000065507040804090409B01AC010E94FE3BC0
:101710009B01AC0160E779E786E190E00E94403CE4
:10172000621A730A840A950AA614B704C804D90475
:1017300028F46A187B088C089D0803C06624772467
:101740004301B20180E090E09301A4010E94FE3BBE
:101750009501A6010E94403C80E193E07981870FCA
:10176000911D0E94C13D682EC90160E170E00E9498
:10177000193C260F371FC9016816190618F4861977
:1017800091090FC08C5E9F4F8615910540F48C899E
:101790009D89843981E1980710F00E947E15812D82
:1017A000912D6E96E2E10C944A3D109281001092C8
:1017B000800010926F0010928B0010928A0057E008
:1017C00056BB5FEF509385005093840055E05093D3
:1017D0007B0056EB50937A0051E05093810058E221
:1017E0005A95F1F7000045B944B955E05A95F1F71B
:1017F000000014B815B81092810080917A0084FF1F
:10180000FCCF80937A000895CF93C82F1C1614F054
:10181000CF910895D4DBC150F9CF60933C01809300
:10182000030186958093AD01660F660F660F609386
:101830000401089580913C01809301018091AD01E4
:101840008093020108958091020160910101880F47
:10185000E4CF0895682F80E062CB08958DE097DC97
:101860008AE095CC08951092AD0160E080E0D5DF6C
:10187000F5CF0895CF93DF9383E081DBC0E080E470
:10188000E9DF8C2F886BE6DFD0E460E081E047DBA6
:10189000D150D9F7CF5FC83091F7E5DFDF91CF9115
:1018A00008958AE0ADDC83E06ADB80ECD3DFE2DF21
:1018B0008FE3D0DF8AE0A4CC089581E08093AD016E
:1018C00060E082E0AADFCACF089582E08093AD0194
:1018D00060E084E0A2DFC2CF089583E08093AD0191
:1018E00060E086E09ADFBACF089590913C0180E1F4
:1018F000891B8ACF0895CF93C82FF7DF8091AD0160
:101900008F5F8093AD01843070F083E08093AD01F0
:1019100081E080933F018091AD016C2F880F7DDFC6
:101920009DDFCF91089510923F01F5CFE4DF6AD497
:101930008091AD01833008F091CF089594DFD5DF19
:1019400092CF0895BADFD1DFB8CF0895582F28E09D
:1019500030E090E841E080E0652F642309F0892BB6
:10196000440F969521503109B9F70895B0E0A0E0F1
:10197000ECEBFCE00C94303DEC01D62E10E0C801FD
:10198000860F911D81389105BCF5642F6E0D772768
:10199000771FCB01613471057CF5C42EC694C694C3
:1019A000C694019733E0959587953A95E1F7722FA4
:1019B0007270672E21FF0CC0E82FEC19FF0BE09F1F
:1019C000A001E19F500DF09F500D1124C40FD51FB1
:1019D000782EF7E0F81710F487E0782E8D2D8F73AE
:1019E000482E689446F82170522E7C1450F4809151
:1019F00003018770886B2EDFCDB7DEB7E0E10C9472
:101A00004C3D83E0BCDA8C2D886B24DF3FE381E022
:101A10003D1508F482E0B3DA842D1CDF4E01800E00
:101A2000911E7401B12CA12CCE15DF0541F4662066
:101A300019F04E01801A910AC394E401D6CF8D2D7E
:101A40008A0D803421F482E09ADA80E403DFA70172
:101A5000415051097A01FA01511003C0FE01EA0D0B
:101A6000FB1D8491611072DF682F81E058DAFFEF6F
:101A7000AF1ABF0AD9CFEF920F93482F8F7320E68A
:101A8000829FC001112482549C4F28E046FF28E425
:101A9000209305011092000147FD08C02091050127
:101AA00030E2309300012D5E2093050120E2E22E0A
:101AB00008E120E0409100016091050157DF0F919E
:101AC000EF900895EF920F93262FFC0134913196F9
:101AD0004491319604913196E490E09100014E0FCB
:101AE00060910501630F049641DF0F91EF90089517
:101AF00060E0E8CF0895EF920F93CF93C82F8091C5
:101B00003C018F5F80933C018C2F90E0409103015A
:101B1000440F440F440F60910401CC30D8F424E00A
:101B2000880F991F2A95E1F730E1E32E08E020E0C5
:101B30008859914F1BDF80910401885F80930401D5
:101B4000EFEFEC0FEE3108F044C0F0E0EF50F24C54
:101B50000C947E3C4C972EE0289FF001299FF00DBD
:101B6000112480E1E82E07E020E0CF01825A994F4E
:101B7000FDDE60910401695F6093040140910301FF
:101B8000440F440F440F01E020E086E996E0EEDECA
:101B9000809104018F5FD2CF8EE3F9DA8CE703C026
:101BA0008CE7F5DA8CE3F3DAA895CF910F91EF90FB
:101BB00008958CE7F2CF82E5F6CF8DE2F4CF85E78A
:101BC000F2CF8FE4E4DA88E6E2DA8DE6ECCF8CE45B
:101BD000EACF8C2FE8CF8F5C8ECF0895CF93DF9321
:101BE000EC018991811103C0DF91CF91089583DFCA
:101BF000F8CFCF93DF93EC01CE010E94C13D882343
:101C000019F079DF2196F8CFDF91CF910895EF9207
:101C10000F93FC0104913196E4900296A7DE0F9198
:101C2000EF9008950F9380E891E0E3DF40918D01FC
:101C30004D3F6CF460917B0170917C0180917D013E
:101C400090917E0103E026E419D00F9108958FE36F
:101C500052DFFBCF909119019F70923071F466DED4
:101C600084E690E0C6DFE0913D01F0913E0122E084
:101C70004DE16FEF84819581E1C00895AEE0B0E061
:101C8000E4E4FEE00C942E3D142F322E202E6B0146
:101C90007C010F7080E389838A838B838C838D839F
:101CA0008E83F7FE3FC08DD9F094E094D094C09419
:101CB000C11CD11CE11CF11C58EE452E53E0552EE1
:101CC000612C712C033041F140E1442E47E2542E47
:101CD000612C712C043001F130EA432E36E8532E8A
:101CE00066246394712C0530B9F020E4422E22E47E
:101CF000522E2FE0622E712C063071F064E6462ED3
:101D0000512C612C712C073039F490E8492E96E95A
:101D1000592E98E9692E712C8AE0882E912CA12CDD
:101D2000B12C12C025FEC8CF8BE2E5DEC5CFC701BE
:101D3000B6016B5F7F4F8F4F9F4FA50194010E94AB
:101D4000403C69017A011F5FC414D504E604F7041E
:101D500070F781E1810F9BEA899F812D1124782EF4
:101D6000769486E0811B899F112D11241695912F61
:101D7000990F190F811B182F4E0187E0880E911CB7
:101D80002AE0A401C701B6010E946D3DF401019053
:101D90000020E9F731977F01E818F908DE2C812F40
:101DA00090E004968E159F0514F473941D5F872DA3
:101DB00090E0845D9F4F0E94C13D982E822D8071DE
:101DC00024FE05C0802F8E19D01608F080E00E2D5D
:101DD000011B080F101624F08EE28DDE812F8E1964
:101DE000111101C008EFA12CC82ED12CEC0CFD1C48
:101DF000002E000C110BEA2DF0E0EE15FF0564F04B
:101E0000992011F0892D77DE332011F0832D73DEB8
:101E10002E96E2E10C944A3D3696EC19FD0981E0DC
:101E200090E08C0F9D1FE80FF91F808164DEA39462
:101E3000A016110601F78EE25EDEDDCF0F93362F7E
:101E4000BC0190E080E0022F242F432F17DF0F9179
:101E500008950F93062FBC0190E080E026E54DEF3A
:101E60000DDF0F9108950F93042F28E440E006DF63
:101E70008AE741DEA4D80F910895E82FF0E0EE0F35
:101E8000FF1FE057FE4F8591949120910001420F72
:101E900020910501620F20E0BACE0895CF93DF9321
:101EA000C82FD62FE0913D01F0913E0148E16EE14F
:101EB0008685E3DFE0913D01F0913E014D2F6C2FCF
:101EC0008485DBDFE0913D01F0913E0140E06EE171
:101ED0008585D3DFDF91CF910895CF93DF93CADC5F
:101EE00080ECC9DD62E086E991E0ECDD80E8C3DDED
:101EF00081ED91E0FDDD60E085E08FDC85E791E03C
:101F000078DE68E085E089DC8DE691E072DE88E9C4
:101F10009AE311D1AFDC83E4AEDD83E0ACDD8AED82
:101F200091E0E6DD61E082E078DC8EE4E4DD49D832
:101F30008FE891E05EDE69E082E06FDC80E5DBDD6A
:101F400040D88FE891E055DE88E99AE3F4D092DC3E
:101F500081EC91DD81E88FDD83E392E0C9DD60E013
:101F600085E05BDC8EE4C7DD2CD885E4C4DD89E840
:101F700091E03FDE68E086E050DC80E5BCDD21D802
:101F800085E4B9DD89E891E034DE88E99AE3D3D0CD
:101F900071DC81E470DD87E292E0AADD81E06BDD37
:101FA00083E092E0A5DD60E081E037DC8EE4A3DD34
:101FB00008D884E4A0DD89E891E01BDE68E082E0D7
:101FC0002CDC80E598DD0E94E10784E494DD89E85B
:101FD00091E00FDE88E99AE3AED04CDC82EC4BDD79
:101FE00082E849DD89EF91E083DD60E085E015DC82
:101FF0008EE481DD0E94E10785E47DDD84E991E0E6
:10200000F8DD68E086E009DC80E575DD0E94E10727
:1020100085E471DD84E991E0ECDD88E99AE38BD019
:1020200029DC82E428DD83EF91E062DD82E023DDBC
:1020300081EE91E05DDD61E081E0EFDB8EE45BDD70
:102040000E94E10784E457DD84E991E0D2DD69E094
:1020500082E0E3DB80E54FDD0E94E10784E44BDDB5
:1020600084E991E0C6DDC0E08C2F8F7061F4DC2F35
:10207000D295D37021F488E99AE35DD0FBDB60E070
:102080008D2F880FCADB8CE18C0F35DDCF5FC33914
:1020900059F788E99AE34FD0EDDBDF91CF910895AE
:1020A00099B193FB992790F9499992608091110118
:1020B000843050F08EE080930D0190930E011092C9
:1020C000120181E08093110180911101E82FF0E06D
:1020D000E35FFE4F30813917C9F091110EC0209196
:1020E0001201E3E0E80FE3703230C9F4F0E0E35F9F
:1020F000FE4F30812F5F3330D9F0E1E0E80FE3701D
:10210000E0931101F0E0E35FFE4F908380911201B4
:1021100087FD03C08093130108958195FBCF313073
:1021200061F7F0E0E35FFE4F3081333031F721504B
:1021300020931201E2CFB0E0A0E0E1EAF0E10C94DC
:10214000373DE82ED92E5398519848D81092120155
:10215000E0911101F0E03196E370FF27E35FFE4F5D
:1021600080EF8083C5E6D9E19BDF4F9B24C0CE2D55
:10217000DD2DF12C15E500E0BB24B394D7FD15C08F
:1021800082E3C82E8DDF2ED8CA94C110FBCF110F69
:102190004F9B1F5F1F731F33A1F4011103C0CE2D8E
:1021A000DD2D04E00F5F083C80F0802FCDB7DEB757
:1021B000E9E00C94533D16D8D150B1F6C15099F6D0
:1021C000D6CF111102C00111F0CFA8951C161D0623
:1021D00024F42A9711F4CFEFDFEF809113018823C5
:1021E00039F0F39480917701811102C0B0927701A8
:1021F00084E18F1508F0C2CF809112018111D5CFF3
:10220000F12CBCCFCF9316DBC82F80913F018823E0
:1022100001F1813051F4C33041F46FE086E0FDDA22
:102220008BE269DC6FE086E0F8DA80E49FE183DF2F
:10223000811104C0809113018111F7CFC33041F4A3
:1022400080913F01813021F460E086E0E6DA4DDBE9
:10225000FADACF91089540911801A0913D01B09113
:102260003E01E1E9F1E030E020E0822F2417B0F4F4
:1022700051911C969C911C97591719F055819513F3
:1022800003C02F5F3F4FF1CF220F331FF901E356F9
:10229000FE4F20813181293E334008F084E10895CA
:1022A0001895189510921A011092180110926F014A
:1022B00010924F011092190110923B011092760179
:1022C000EAE5F1E0108211821282EBE7F1E0108A78
:1022D00082E0818B10922001178616861482158267
:1022E0001682178281EF838B08958FE40E94C708BE
:1022F00086E40E94C70886E40E94C708AFDA5E98A9
:102300000E94DD0890E080E016CF08951F93CF93E0
:10231000DF93162F98E097B998B9E82FF0E0E55BC6
:10232000FD4F949195B9262F281BE20FF11D27FD33
:10233000FA95E491E92BE4B90E943709EC01812F69
:102340000E943709AC01209130013091310136955E
:102350002795C9010397BE01625E7F4F86179707D5
:1023600078F4255E3F4FC217D30750F4BA01625E7E
:102370007F4F8617970720F481E04217530708F034
:1023800080E014B8DF91CF911F910895CF9361E061
:1023900080E0BCDFC82F62E080E0B8DFC80F62E0F9
:1023A00081E0B4DF8C0FCF910895AFE0B0E0EBEDAA
:1023B000F1E10C942E3DB82E10921A01807FB9F4F1
:1023C000E5DF833081F456DA88E492E012DC75DAD6
:1023D0008FE391DB80ED97E0AEDE8B30B0F44ADA2C
:1023E00085EF90E006DC2F96E2E10C944A3D06E989
:1023F00010E040DA88EB91E0FCDBC8DF833009F0C5
:1024000065C01F5F143008F462C057DA0E94582973
:1024100081EB90E0EEDB60E082E193E00E94CE3D54
:1024200060E083E193E00E94CE3D60E081E193E0D3
:102430000E94CE3D60E082E042D86C019A8389839D
:1024400061E082E03CD87C019C838B8360E081E08A
:1024500036D88C019E838D8323E040E26EEFC60167
:10246000EDDC23E040E26EEFC701E8DC23E04DE164
:102470006EEFC801E3DC2AE5C216D10424F084E142
:1024800090E09A838983698182E193E00E94CE3D46
:102490008AE5E816F10424F084E190E09C838B83C4
:1024A0006B8183E193E00E94CE3D0A35110524F053
:1024B00084E190E09E838D836D8181E193E00E94B1
:1024C000CE3D82E080933F019DDE07C010E088E2B0
:1024D0000E940009015009F08CCFEB2DEF70EF87BF
:1024E000E13009F04FC0EE24E394F12C68EB862E26
:1024F00062ED962E67E4A62EB12C72E0D72E08E08E
:10250000E0E23E2EC12C1E2D42E2242E1BDA16DA0A
:1025100084E5F1DAC7010E94D5070E94DF07113078
:1025200009F0C2C184EE90E064DB64E08091340184
:10253000909135018EDCC1D98FED90E05ADB80910E
:10254000790190917A010E94D5078EEB80932C013E
:1025500007B908B914B815B888EE93E0ECDD14306B
:1025600011F08B3020F4C39484E0C812CFCF88EEF2
:1025700093E0E1DDEFEFEE1AFE0AF8E0EF16F1046A
:1025800009F0C0CF18E702DF811181C273D98AEA4E
:1025900090E02FDB23E04DE16FEF809132019091CD
:1025A00033014CDC8AD983EA90E023DB23E04DE160
:1025B0006FEF8091390190913A0140DC82E0809385
:1025C0003F0120DE10921A0155D98FE990E011DB0E
:1025D00060E082E00E9436264090830150908401A2
:1025E00060908501709086015C864B8661E082E098
:1025F0000E9436268090830190908401A0908501EE
:10260000B09086019E868D8660E081E00E9436262D
:1026100000918301109184011E830D8362E080E0AC
:102620000E94362680918301909184019C838B8344
:1026300062E081E00E9436268091830190918401BE
:102640009A87898761E080E00E943626E0908301C6
:10265000F0908401FA82E982C2010E94DE07C4017F
:102660000E94DE07B801110F880B990B03E026E4E6
:1026700044EF04DB2F85213009F015C282E0E80E1B
:10268000F11CF886EF828E010F5F1F4F6E01EFE0A5
:10269000CE0ED11CF801819191910A97853B91054D
:1026A000C8F4EC15FD05B9F731E3E32E33E0F32E62
:1026B000F80160810E5F1F4F6E5EC7010E94CE3D24
:1026C000FFEFEF1AFF0A0C151D0591F7F6D885EA02
:1026D00091E08FDA82E080933F0194DD0E94A5387B
:1026E0002F85213029F080913801823009F0C6C051
:1026F000C1D880E070DA8BE491E07BDA82E06BDABB
:1027000084E290E076DA90E4F92E10E02AE0822E5E
:10271000912CA12CB12CC6DD10921A0160E082E050
:102720000E94362600918D0120917B0130917C0121
:1027300040917D0150917E01073F0CF4BEC1009392
:102740008D0120937B0130937C0140937D01509358
:102750007E01073F09F0B9C12056310941095109ED
:10276000203935454105510508F0AFC160918F0111
:1027700070919001CB018B569F4F8B32914008F0A6
:10278000A4C11F5F153008F4A1C188E393E00E9443
:10279000DC3D70D88DE190E02CDA80918F01909132
:1027A00090010E94CA070E94A90988E088B989E0BF
:1027B00087B980E284B982E00E943709853D934061
:1027C000D4F714B810922F0110922E0182E00E94CB
:1027D00037097C01809174019091750190932F01CC
:1027E00080932E0182E00E9437096C01CC0CDD1C25
:1027F00010922F0110922E0182E00E9437094C01A5
:10280000A0907401B0907501B0922F01A0922E019A
:1028100054D886E190E0EDD98AE393E00E94C13D6F
:10282000182FD701A80DB91DAC19BD0995010E943B
:10283000933C96010D2C000C440B550B0E94623CFE
:102840001D5F120F612F8AE393E00E94CE3D812F1E
:10285000012E000C990B0E94CA070E94A90982E070
:1028600080933F01CFDC1092380181E393E00E9416
:10287000C13D682F84E393E00E94CE3D89E18093BF
:102880002C0180E00E94B83B0E943A0C85EF90E05A
:10289000B0D913D88FE292E0ACD910921A0182E03D
:1028A00080933F01AFDC9FCD123091F52091300134
:1028B00030913101A8E5BBE10E94843C24EC36E371
:1028C00040E050E00E94623C290181E085B9F5E0DA
:1028D000F4B980E00E942C09841995099A838983B0
:1028E00081E184B980E00E942C09841995099C83B8
:1028F0008B8384E085B984E184B981E00E942C094E
:10290000841995099E838D8389EC90E072D937C034
:10291000133059F5D5B82AE024B980E00E942C097B
:1029200020913001309131013695279538872F83DA
:10293000821B930B9A83898324B880E00E942C0920
:102940002F813885821B930B9C838B8305B988E28A
:1029500084B981E00E942C092F813885821B930B5A
:102960009E838D838BEB90E0D1CF1430D9F488E334
:1029700092E03FD90BDD882311F0F2E0CF2E0E94C8
:102980005D0C89819A810E94CA070E94DF078B81B2
:102990009C810E94CA070E94DF078D819E810E9450
:1029A000CA07D6CD1530B1F415B8D4B880E00E946E
:1029B0002C099A83898304B981E00E942C099C83A5
:1029C0008B8334B882E00E942C099E838D838BED2B
:1029D00090E09CCF163051F5D4B8D5B880E00E9475
:1029E0002C092091300130913101821B930B9A8385
:1029F000898304B905B981E00E942C092091300136
:102A000030913101821B930B9C838B8334B835B892
:102A100082E00E942C092091300130913101821B0B
:102A2000930B9E838D8387ED90E070CF173009F074
:102A3000A6CF2091300130913101A8E5BBE10E9481
:102A4000843CA50194010E94403C2901D5B8E3E0F3
:102A5000E4B980E00E942C09841995099A8389833E
:102A600005B9FCE0F4B981E00E942C0984199509AC
:102A70009C838B8335B820E324B982E00E942C0923
:102A8000841995099E838D8385EB90E03FCF0E944A
:102A9000A20C88E392E0ADD884E60E9400091150B0
:102AA00009F071CD73CD80913801823009F4E6CD03
:102AB000F886EF8210923801E6CD0F5FCA01B901A6
:102AC000A50194010E94403C37CE10E00E945D0CAD
:102AD00060917B0170917C0180917D0190917E01DC
:102AE00004E026E440918D01C9D80E94750C88E26B
:102AF0000E940009FA94F1100ECEC0CE80913801E8
:102B000081110DC081E393E00E94C13D61E0680F37
:102B100084E393E00E94CE3D81E0809338010895E4
:102B2000EF92FF920F931F93CF93DF93D62FE82F4F
:102B3000F0E0E25BFD4FE491E8B9E860E7B915B871
:102B4000E62FF0E0E55BFD4FE491E4B9CE2FCC0F2A
:102B500088E8E82E83E1F82E8D2F0E942C098C0145
:102B6000C4B98E159F0510F1892BD9F00E946D0C08
:102B70008BE291E03ED8D80120EA36E841E050E00F
:102B80000E94993C28E937EB40E050E00E94403C2D
:102B9000C90122E041E467EF51D988E087B988B9DB
:102BA00014B8CDB7DEB7E6E00C94563D7801D4CF2B
:102BB00080E48AB98BB9D6E8D0937A001092C1002C
:102BC0000E94DF08C4B7C87084B7877F84BF0FB680
:102BD000F894A895809160008861809360001092BD
:102BE00060000FBED093640088E380937E00109253
:102BF000B00087E08093B10078940E94510CC1111D
:102C000096C580E185BF84E0809311014F9908C08B
:102C10000E94FF08CF5FCC33C9F780E69DE604C071
:102C20008FE59DE6CF31C8F790930C0180930B019F
:102C300010922D010E94582988E19FE00FB6F89468
:102C4000A895809360000FBE90936000CC3309F488
:102C50005FC020E1722E38E1632E40E4842E41E013
:102C6000942E50E6A52E51E0B52E6CE0362E7DE078
:102C7000572EE0EF4E2E0E943A0C28E027B912DBC7
:102C80000E9458290E94330C60D580913B01882313
:102C900079F00E945D0C80E491E00E94F90D63E000
:102CA0008091300190913101D4D888EC0E940009C4
:102CB0000E945D0C0E94672580911A01893069F598
:102CC0000E943A0C85E491E00E94F90D0E945D0C8F
:102CD00063E08091540190915501BBD80E94DF07B9
:102CE00063E08091560190915701B3D80E94DF07AD
:102CF00063E08091580190915901ABD88AEC0E9411
:102D0000000981E152DBC0910B01D0910C0197C108
:102D10000E9491328111FCCF9CCF84E393E00E940A
:102D2000C13DC82F81E393E00E94C13DC81BC09301
:102D3000380180E03ADB0E94A20C8DEA92E00E940A
:102D4000F90D83E00E94C7080E942E0C42E061E06A
:102D500080E06BD542E060E081E067D541E062E071
:102D600080E063D541E060E082E05FD540E062E072
:102D700081E05BD540E061E082E057D580911A01A7
:102D800081110EC00E94672560E082E00E94362615
:102D900061E082E00E94362660E081E00E943626F3
:102DA0000E943A0C90923E0180923D0180911A015E
:102DB0008630F9F485EC0E943B0D60E188EF6ED817
:102DC00066E080E00E940D0C84E892E00E94F90D1C
:102DD00066E082E00E940D0C89E591E00E94F90D09
:102DE00062E0809144019091450133D80E942E0CFD
:102DF0008ACF873069F484EC0E943B0D60E188EF54
:102E00004DD866E080E00E940D0C8DE892E0DECFA8
:102E10008830A9F480918B0190918C01890F9927BA
:102E2000991F029741F40E94BD2B809138018111B6
:102E30002BC45BDA20CF80E00E94EB2A64CF833082
:102E400009F00EC180911801813009F06AC080E05C
:102E50000E949D08609191018091970161DE80E759
:102E60000E94760840E060919101809197010E9454
:102E7000CB3760937B0170937C0180937D019093AD
:102E80007E0180E00E94960C60917B0170917C0134
:102E900080917D0190917E0102E026E442EF0E9444
:102EA0003E0E0E94E10741E06091910180919701FF
:102EB0000E94CB3760937B0170937C0180937D01EE
:102EC00090937E0126E442EF0E943E0E8DE191E058
:102ED0000E94F90D0E942E0C0E942E0C809176010A
:102EE000882309F410CF67B838E037B980E00E9432
:102EF000960C20917601222309F4AAC380915D01EA
:102F0000213009F040C30E94390820915D01213031
:102F100009F034C320911801211130C30E94742B91
:102F200084CF823079F582E30E947B0D8DE091E0C1
:102F30000E94F90D9091910130919201931308C074
:102F400080E00E94B80881E00E94AF0881E088CF4D
:102F50002091970180919801281307C080E00E947A
:102F6000A90881E00E94BE08F1CF321306C081E0BB
:102F7000809306010E948C08AFCF98133FC07092D7
:102F80000601F8CF8330D1F583E380930601809169
:102F9000970190919201891303C021E020930601CB
:102FA0004091910130919801431302C07092060143
:102FB00020919301821303C082E0809306018091E7
:102FC0009901481303C040E240930601321310C038
:102FD00022E120930601981303C081E28093060149
:102FE00083E30E947B0D8DE091E00E94F90DC2CF3A
:102FF000981799F380910601823290F383E992E069
:103000000E94F90D8BE792E00E94F90D0E945D0C81
:1030100080911801805D0E947B0D8AE20E947B0DE9
:1030200087E291E00E94F90D81E692E00E94F90D9D
:103030000E942E0C86E00E943B0DC0E4DFE167B8E1
:103040004F9BFECFCE0177D8823328F490911301A5
:10305000933008F40AC30E9491328111FCCF0BCE49
:10306000843009F057C180916F01882309F464C04E
:1030700080914F01882309F45FC060914C018091D9
:103080004E010E943626C0907B01D0907C01E090DA
:103090007D01F0907E01C0918D0160916E01809163
:1030A0006C010E9436268091400190914101A091CF
:1030B0004201B091430140916001509161016091E2
:1030C000620170916301843F31E09307A105B1056E
:1030D00038F4443FE1E05E076105710508F0C0EF98
:1030E000443F51406105710538F4843F9140A1058A
:1030F000B10510F040928D0180918D018C1310C0AC
:1031000080917B0190917C01A0917D01B0917E0125
:10311000C816D906EA06FB0628F03092190104C049
:10312000C817DCF75092190180916F01882321F0B4
:1031300080914F018111CEC066E080E00E940D0CAD
:1031400080EC0E943B0D809119018C3009F0CBC0BE
:1031500085E791E00E94F90D80916F01882319F0B5
:1031600080E70E947B0D77D8C82F853098F4A09116
:103170003D01B0913E01E82FF0E0EF56FE4F1D9665
:103180009C91808162E0981301C060E086E991E043
:103190000E94620D60E189EF0E944E0F86E00E945E
:1031A0007B0C84E891E00E94F90DE0913D01F091E3
:1031B0003E01608171818281938103E020E04EEFC6
:1031C0000E943E0E87E00E947B0C89E40E947B0DEA
:1031D000E0913D01F0913E018681978180319742D7
:1031E00008F494C085E60E947B0DE0913D01F091CA
:1031F0003E018681978180519742978386830E9402
:10320000E307E0913D01F0913E0122E041E46AEFE5
:10321000868197810E941E0F86E00E947B0C8DE5BF
:1032200091E00E94F90DE0913D01F0913E0163E0D3
:10323000848195810E94290F81E080933F01E09174
:103240003D01F0913E0180859185892B91F085E0CB
:103250000E94960C8FEE90E00E94F90DE0913D01E6
:10326000F0913E0122E041E46AEF808591850E9461
:103270001E0FE0913D01F0913E0182859385892BDF
:1032800091F085E00E94960C89EE90E00E94F90D85
:10329000E0913D01F0913E0122E041E46AEF828538
:1032A00093850E941E0FC53078F480E00E94960C32
:1032B0008C2F0E949D0889E591E00E94F90D8C2FCA
:1032C0000E9468080E942E0C43E462E485E40E9498
:1032D0000C088CCD4F9930CF8091190191E089274E
:1032E0008093190129CFB0923E01A0923D0181ED5A
:1032F00091E00E94780D8DE691E00E94F90D809199
:103300004F01882309F42FCF8EE62BCF83E60E944E
:103310007B0D75CF853009F0ECCD66E080E00E9432
:103320000D0C80911901C82FC07184FF63C080E526
:103330000E947B0DB0923E01A0923D01C2E00E942E
:10334000E10780911901D82FDF70D43009F056C001
:103350008FE891E00E94F90D83EC0E943B0D8AED0D
:1033600091E0C11167C00E942B11853098F4A091A3
:103370003D01B0913E01E82FF0E0EF56FE4F1D9663
:103380009C91808162E0981301C060E086E991E041
:103390000E94620D60E189EF0E944E0F86E00E945C
:1033A0007B0C8091190185FD61C085E591E00E944B
:1033B000F90DE0913D01F0913E0162E08285938537
:1033C0000E94290FE0913D01F0913E0166858485C0
:1033D0000E94362686E00E947B0C0E94120E85E039
:1033E0000E942A0E4FE367E48FE3D43009F46FCFD5
:1033F000C0E0B7C08EE40E947B0DA1CF85FF1DC049
:1034000084E40E947B0DCF5FD330D9F489E891E04A
:103410000E94F90D81EC0E943B0D87E292E0C130E1
:1034200049F083E392E0C23029F083E092E0C330B8
:1034300009F099CF0E94780D96CF85E40E947B0D0C
:10344000E3CF84E991E00E94F90D82EC0E943B0DEC
:1034500083EF91E0C13071F389EF91E0C23051F315
:10346000C33009F080CF81EE91E0E4CFE0913D01DF
:10347000F0913E018F70843009F44EC066858485DA
:103480000E9436260E94120E60E084E00E940D0C1D
:1034900089E40E947B0D0E94E307E0913D01F091D9
:1034A0003E0122E041E46AEF868197810E941E0F6F
:1034B0008FE491E00E94F90DE0913D01F0913E0111
:1034C00062E0828593850E94290FE0913D01F09191
:1034D0003E0180859185803C9241E0F480E00E942D
:1034E000960C89E40E947B0D0E94E30722E041E4F0
:1034F0006BEF90E080E00E941E0F8FE491E00E944D
:10350000F90DE0913D01F0913E0162E080859185E9
:103510000E94290F80E064CF84819581892B09F472
:10352000B3CF80E090E00E94F90DE0913D01F09171
:103530003E0122E041E46AEF848195810E941E0FE2
:10354000A3CF80E00E94960C8C2F0E949D0889E5F5
:1035500091E00E94F90D8C2F0E9468080E942E0CA9
:10356000CF5F80911801C81760F344E467E483E5F6
:10357000D33009F0ACCE43E467E4A8CE40E0692F35
:103580000E942A2AC0CB90915E01F4E09F9FD00157
:103590001124A255BE4F34E0839FF0011124E2555F
:1035A000FE4FED90FD900D911C9140815181628103
:1035B0007381C92F4E155F056007710708F0C82F8A
:1035C000223041F5980FC3E0C91B1C2F1695D2E09D
:1035D000DC1B01E0C11102E0812F0E94EB0D88E0AD
:1035E00091E00E94F90D8D2F0E94EB0D88E091E093
:1035F0000E94F90D802F0E94EB0D80E00E947B0C51
:1036000081E0C11180E00E94430882E0811B0E949A
:10361000430879CB80915F0194E0899FD001112408
:10362000A255BE4F24E0C29FF0011124E255FE4F87
:103630000D911D912D913C91408151816281738149
:10364000401751076207730708F0BFCFC82FBDCFDF
:103650008BE692E00E94F90D0E945D0C88E992E0F1
:103660000E94F90D83E992E0E1CC811104CB911124
:10367000E9CCDBCB80E29EE40E949B1081114EC01E
:103680008091120187FF17C0D4E010E000E098019C
:103690002F5A3D4F7901F90180E090E1D92EC49174
:1036A000C03211F0CE3F09F4D82E8F5F31968131B0
:1036B000B1F7DD23F9F23D2F3370232E11F40E9470
:1036C0003A0C60E0822D880F0E940D0C0E942E0C97
:1036D000A895DF5FD370212C2D100DC0CC23F1F005
:1036E000020D111DF801EF5AFD4FE491E03279F619
:1036F0000F5F1F4FCCCFF701C491CC2379F0CF3FA0
:1037000039F40E94DF072394FFEFEF1AFF0AE4CF9A
:10371000CE3FC9F38C2F0E947B0DF5CF80E29EE453
:103720000E949B108091120187FDAECF82CB0E9438
:10373000330C88E592E00E94F90D8BEC0E940009A1
:103740000E94751190E080E008950F931F93CF932E
:10375000DF9385E00E94370985E00E9433098C01E0
:10376000EC01CC0FDD1FCC0FDD1FCA56DF4F1092CE
:103770003601C43883E0D80770F489E991E00E94EB
:10378000F90D0E94750C81E080933601DF91CF9195
:103790001F910F91089588EA91E00E94F90D62E06F
:1037A000CE010E94290F0E94DF070A3F86E018071A
:1037B000B0F40333164060F481EA92E00E94F90D00
:1037C0000E94750C8DEC0E9400090E947511DECFDD
:1037D00088EA92E00E94F90D0E94750CD7CF85EA25
:1037E00091E0F8CFFC019C01261B370BCA0170E069
:1037F00060E0A901460F511D452F5527620F240F88
:10380000351FAC01470F511D452F5527780FDA01A1
:10381000AA0FBB1F8A0F9B1F4B3E20F4E217F30732
:1038200040F7089590E080E00895A9E1B0E0EBE171
:10383000FCE10C942E3D582E462E342EA895E62FF2
:10384000F0E0E55BFD4F24912E87220F2F8B3396FE
:1038500034913A8BE42FF0E0E55BFD4F44914983CE
:10386000339684918F83E52DF0E0E55BFD4F249046
:10387000922D990F9F87339624912B8328602C8358
:1038800038603A8345B9EE84E42AE4B827B93B812D
:1038900038B9862F0E9433099D878C874E8544B99D
:1038A000842D0E9433093C0114B80E94E80815B821
:1038B000E4B8842D0E9433096C857D850E949509AA
:1038C0006C018A8187B988E088B9998192299D83A2
:1038D00095B994B9852D0E9433090E949B094C012A
:1038E00015B80E94E80825B8852D0E9433090E946A
:1038F0009B098C0124B8852D0E9433090E949B09E5
:10390000B82E9987B801C4010E9495098032E1E080
:103910009E0730F4F0E2CF16F1E0DF0608F4CAC5E6
:10392000C00ED11E2C853D85820F931FC816D90667
:1039300020F41D870C876B2C798420914F01809196
:103940006F01820F9927991F02974CF0213009F0DF
:10395000B1C590914C0180916C019813ABC5D98091
:10396000DD0CFE84FD283D2D32293B878C859D850D
:103970008437910508F4AAC10A96880F991F681622
:10398000790608F0A3C19C8197B9EB81E8B9F4B836
:10399000842D0E9430098C01832D0E9437097C01FF
:1039A000D5B8842D0E9430099801295A3D4F281717
:1039B000390708F0B9C088E088B9FA81F7B92B85D2
:1039C00024B925B9832D0E94300988349F4008F41A
:1039D00070C085E080931A0182E2809319011093F0
:1039E000450100934401B701C8010E94A0099093CA
:1039F0004B0180934A019801A0E1B7E20E94843C08
:103A0000209114013091150150E040E00E94403CAB
:103A100030934701209346018F898D2984B915B8C9
:103A20004C8147B98B8188B9832D0E9437098C015D
:103A3000842D0E943009B8010E94A0099C01909336
:103A4000490180934801909119019F709430B1F120
:103A500088E088B99F81EA819E2B97B924B8FD81BF
:103A6000F5B9852D0E9433098C010E949B099E8324
:103A70008D83842D0E943709E0901B01F0901C017A
:103A8000BC01C8010E94A0099701DC010E94843C8E
:103A9000ED81FE819F0150E040E00E94403C309368
:103AA00045012093440180914F018F5F80934F0126
:103AB00089C385E080931A0184E28FCF409146014B
:103AC0005091470160914A0170914B01C9018ADE12
:103AD0000097F9F0D4B8EA89FC81EF2BE7B9842D7F
:103AE0000E9430098C0188E087B99801A0E1B7E213
:103AF0000E94843C2091390130913A0150E040E02D
:103B00000E94403CA901B80180914801909149016F
:103B100069DE9093450180934401809119018F7073
:103B2000843009F4C0CF94CF88E088B92A8127B9BE
:103B30003B8534B935B9852D0E9430098C01832D20
:103B40000E9437097C0125B8852D0E943009895AC9
:103B50009D4F8017910708F0ADC44B8148B98C8107
:103B600087B9832D0E943009813D934008F06EC0D3
:103B700085E080931A0182E380931901B801C7019F
:103B80000E94A00990936B0180936A01C8010E9472
:103B90009B099C01A0E1B7E20E94843C20911B019B
:103BA00030911C0150E040E00E94403C309367019E
:103BB00020936601F8E0F8B92A8127B98F858D290D
:103BC00084B985B9852D0E9437098C01832D0E9407
:103BD0003009B8010E94A0099C019093690180936B
:103BE0006801909119019F709430A9F1EB813F8198
:103BF000E32BE8B94C81342B37B915B88D8184B9E2
:103C0000852D0E9433097C01842D0E9437099E83F3
:103C10008D830091140110911501BC01C7010E9410
:103C2000A0099801DC010E94843CED81FE819F0186
:103C300050E040E00E94403C3093650120936401D5
:103C400080916F018F5F80936F0154C185E08093F5
:103C50001A0184E391CF4091660150916701609110
:103C60006A0170916B01C901BDDD009721F1D5B8E2
:103C7000D4B8FB81F8B9EC812A81E22BE7B9852D14
:103C80000E9430090E949B098C0138E037B99C01E1
:103C9000A0E1B7E20E94843C2091320130913301CF
:103CA00050E040E00E94403CA901B80180916801C9
:103CB0009091690197DD90936501809364018091F3
:103CC00019018F70843009F4BBCF90CF88E088B998
:103CD0004A8147B925B88B8584B9852D0E9433095F
:103CE000998B888B0E949B0998878F83832D0E94D4
:103CF00037099A87898783010C591F4FEF81F8850F
:103D0000B3010E171F0708F0F7C0CF010E94A009EA
:103D10009C8B8B8B20911B0130911C0150E040E06B
:103D200060E871EA83E09CE10E94403CAB89BC8979
:103D30000E94993CE985FA859F0150E040E00E948D
:103D4000403C49015A0114B815B8FB81F8B92C81DF
:103D500027B981E00E940009E4B8842D0E9433094C
:103D60008F359D4008F474C1F4B8842D0E94300949
:103D7000998F888F832D0E9437099C8B8B8B852D83
:103D80000E9437099E8B8D8B8B899C89813D974042
:103D900008F4E6C084E080931A018DE08093190155
:103DA000288D398D8901061917096216730610F0DE
:103DB000088D198DC0901401D0901501F12CE12CC3
:103DC00060E871EA83E09CE1A70196010E94403C13
:103DD000D8010E94993CEB89FC899F0150E040E0AA
:103DE0000E94403C80916F01882371F080916001B6
:103DF00090916101A0916201B091630182179307D4
:103E0000A407B50708F099C02093600130936101C1
:103E10004093620150936301288D398DA0E1B7E290
:103E20000E94843CA70196010E94403C30936701A8
:103E3000209366016B897C898D899E890E94A009E7
:103E4000909365018093640181E0409160015091FD
:103E500061016091620170916301481559056A051D
:103E60007B0508F06CC08092600190926101A09285
:103E70006201B092630169857A85888999890E9477
:103E8000A00990936501809364012F813885A0E19A
:103E9000B7E20E94843C20911B0130911C0150E04C
:103EA00040E00E94403C205F384D309367012093F2
:103EB0006601C0901401D0901501F12CE12C930102
:103EC000A0E1B7E20E94843CA70196010E94403C19
:103ED00030936901209368012C853D85A0E1B7E20C
:103EE0000E94843CA70196010E94403C30936B01E4
:103EF00020936A0181E025C08F8198850E94A009E6
:103F00009C8B8B8BFD81F4B9852D0E943309998B95
:103F1000888B0E949B0998878F83832D0E94370985
:103F20009A878987BC018B899C890E94A0099C0182
:103F3000A4E6B0E00E94843CFDCE80E086CF8111F3
:103F4000B8CF90916F019F5F90936F01882309F420
:103F500078C330926C0140926D0150926E0171C332
:103F6000F1E66F16710408F073C0288D398D213D7C
:103F700047E0340708F46CC085E080931A0182E1C1
:103F800080931901C90186509F4FED89FE898E17D4
:103F90009F0708F043C083E180931901FA89F77005
:103FA000DF2E832D806480937C00EBE0EE2E21E0F9
:103FB00030E03E832D830FEF13E0A89561E0898107
:103FC0006FD5F4B886B18D21E9F33E8534B980917F
:103FD0007A00806480937A0080917A0086FDFCCF1D
:103FE0008091780090917900F801E81BF90B2D8100
:103FF0003E812E0F3F1F3E832D83EA94E110DDCFDB
:10400000C901880F991F880F991F69E070E00E940D
:10401000193C70936B0160936A0112CE00911401F8
:1040200010911501688D798D8D899E890E94A00956
:104030009801DC010E94843CE88DF98D9F0150E0DD
:1040400040E00E94403C3093650120936401A6CF7C
:10405000F4B8D5B8842D0E9433096C01832D0E94D9
:10406000370998878F830E949B099A8789870C1547
:104070001D0508F0A9C0B301C6010E94A0098C016A
:10408000209114013091150150E040E060E871EAA0
:1040900083E09CE10E94403CD8010E94993CE98564
:1040A000FA859F0150E040E00E94403C49015A01DE
:1040B000FA81F7B988E088B92D8124B925B9852D11
:1040C0000E9433098C01832D0E9437099A878987C2
:1040D000842D0E9437097C01003331E1130708F079
:1040E000E6C125B8852D0E943309998B888B24B8A9
:1040F000852D0E9433099C8B8B8B15B881E00E9423
:10410000000925B8852D0E943309EB89FC89E0342C
:10411000F64008F079C08133914108F475C0C801B8
:104120008A569F4FE889F989E817F90708F06CC0AB
:1041300086E080931A0180914F018F5F80934F0139
:10414000B70189859A850E94A009909345018093C3
:104150004401B701C8010E94A00990934B018093CC
:104160004A0114B815B8FA89F8B981E00E9400092B
:1041700024B8852D0E943309853F910518F52D81BE
:1041800024B9832D0E943309813D9340D8F0852DB9
:104190000E9437098D3D9240A8F024B8852D0E94D9
:1041A00033098D3D924070F025B881E00E940009EE
:1041B00015B8852D0E943309853F910518F487E0D5
:1041C00080931A0181E0F8C0E4B8F981F5B9842D33
:1041D0000E9433096C01832D0E94370998878F83D1
:1041E0000E949B099A878987C6016C147D0410F48C
:1041F0008619970969857A850E94A0099C01A4E621
:10420000B0E00E94843C4BCFFA81F7B9298124B9F0
:1042100025B981E00E9400093B8534B935B9852D67
:104220000E9433098C010E949B09998B888B832DF6
:104230000E9437099E838D830E949B099A878987F4
:10424000842D0E9437097C0189859A858E3F99408B
:1042500008F4C1C084E080931A018CE080931901B6
:10426000B301888999890E94A0098C0120911B01C2
:1042700030911C0150E040E060E871EA83E09CE18D
:104280000E94403CD8010E94993CE985FA859F0133
:1042900050E040E00E94403C80914F01882371F043
:1042A0008091400190914101A0914201B091430160
:1042B00082179307A407B50708F07AC0209340013E
:1042C000309341014093420150934301B7018D81E6
:1042D0009E810E94A0099093450180934401288902
:1042E0003989A0E1B7E20E94843C20911B01309102
:1042F0001C0150E040E00E94403C30934701209375
:10430000460181E04091400150914101609142019C
:1043100070914301481559056A057B0508F04AC0AC
:104320008092400190924101A0924201B0924301DB
:10433000B6018F8198850E94A009909345018093D2
:1043400044019601A0E1B7E20E94843C209114014F
:104350003091150150E040E00E94403C205F384D14
:1043600030934701209346019301A0E1B7E20E94F8
:10437000843C209114013091150150E040E00E94EE
:10438000403C30934901209348012C853D85A0E1B4
:10439000B7E20E94843C20911B0130911C0150E047
:1043A00040E00E94403C30934B0120934A010ACFE9
:1043B00080E0A8CF8111D8CF90914F019F5F90935B
:1043C0004F01882309F43DC130924C0150924D01B8
:1043D00040924E0136C1F1E66F16710408F067C0D5
:1043E0002889398929343D4008F461C085E08093EB
:1043F0001A0182E080931901C70186509F4F8017F0
:10440000910708F03CC083E0809319010B8107708D
:10441000832D806480937C001BE021E030E03E83AC
:104420002D83A89560E089813BD33B8534B935B9AC
:1044300086B18023E9F724B880917A008064809364
:104440007A0080917A0086FDFCCF8091780090916F
:104450007900ED81FE81E80FF91FFE83ED83115095
:1044600001F7CF01880F991F880F991F69E070E04D
:104470000E94193C70934B0160934A0114CBC09089
:104480001B01D0901C01B701C8010E94A009960130
:10449000DC010E94843CE889F9899F0150E040E0FA
:1044A0000E94403C3093450120934401AFCF88E007
:1044B00087B988B914B815B888E087B9F7EC6F16D2
:1044C000F1E07F0608F4E5C088B92F8524B938ECFF
:1044D0003D834C818A81482B4F839F8197B981E02E
:1044E0000E940009EA81E7B9852D0E9437094297A9
:1044F00028F0FD81F150FD83F111EFCF2F8524B914
:1045000025B961E08981CCD2852D0E9433096C01E7
:104510003F8934B915B84C8147B98B8188B960E0BF
:104520008981BED2842D0E9433090E949B099E83FB
:104530008D839E8594B9842D0E9437098C01852D29
:104540000E943309B8010E94A0098C01842D0E94A9
:1045500037097C01852D0E943309B7010E94A0090B
:1045600098012C5E3F4F2817390708F46AC088E08D
:1045700088B9EA81E7B924B825B861E0898190D289
:10458000842D0E9437097C01852D0E943309B701D3
:104590000E94A0097C010817190708F05EC0FF857A
:1045A000F4B9F5B9852D0E943309FC01CD82DE8274
:1045B0008D819E81883426E0920708F060C09C01BE
:1045C00053E0369527955A95E1F748EEE41643E017
:1045D000F40608F057C0C70164E670E00E94193C79
:1045E000C701875991098938914108F052C0EE15E9
:1045F000FF0508F04EC08D819E81280F391F2E15B2
:104600003F0508F046C06817790708F042C080915E
:104610001A01833018F483E080931A012091180165
:10462000822F90E0FC01EF56FE4F50824682880FA9
:10463000991FFC01E356FE4FF182E0822F5F209329
:10464000180188E087B988B914B815B88EE20E94BD
:104650007B0D6996E2E10C944A3D2F8924B915B887
:104660003C8137B94B8148B960E0898119D2842DEA
:104670000E9433090E949B09FC01780199CF28EC24
:1046800030E0A3CFB70144E0769567954A95E1F70E
:10469000A7CF642D852D01D0D4CFB0E0A0E0E3E515
:1046A000F3E20C94303DC82FD62FA895862F90E0CA
:1046B000FC01E55BFD4F5490339624914C2F50E064
:1046C000FA01E55BFD4F14913396049160916F01FF
:1046D00030914F01630F7727771F672B09F067C071
:1046E000A89560911E0170911F01660F771F660FDC
:1046F000771F709331016093300160917401709164
:104700007501660F771F660F771F70932F016093F7
:104710002E013EEB30932C0130911801E1E9F1E0DC
:10472000DF01480F591F9A2F9E1B931718F188E03D
:1047300088B9286027B914B915B9B8E1BB2ED12CB6
:10474000C12C8D2F0E943309782E692E8C2F0E9448
:1047500037097C018C199D0997FF03C091958195BC
:10476000910903970CF46BC1A895BA946701B11035
:10477000E8CF0AC08D9115966C911597680F772731
:10478000771F6417750779F680911E0190911F01BC
:104790009093310180933001809174019091750163
:1047A00090932F0180932E0189E180932C01CDB746
:1047B000DEB7E0E10C944C3D25E8C21621E0D206BC
:1047C00018F7043AA2E01A0708F0B1C0B8E9AB162E
:1047D000B104D0F2C6010E949B09AC019601A8E980
:1047E000B7EB0E94843C9A0150E040E00E94403CBC
:1047F00029013A01C5010E949B099C01A8E9B7EB78
:104800000E94843C950150E040E00E94403C88E7D3
:10481000C8168FE0D80608F06EC0F2E0440C551CB4
:10482000661C771CFA95D1F7C301B201620F731FA2
:10483000841F951F25E030E040E050E00E94403C9E
:10484000A4E6B0E00E94993C6B017C01BCEACB0E6F
:10485000BDE0DB1EE11CF11C10911A01143008F0C0
:1048600093CFC150DC0F8D2F90E0FC01E65AFE4F34
:104870002081880F991F880F991F82559E4FDC0158
:10488000222309F4C1C08D909D90AD90BC90A701EA
:104890009601281939094A095B0957FF07C0509545
:1048A0004095309521953F4F4F4F5F4FAAE0B0E0C4
:1048B0000E94993CB4E68B0E911CA11CB11CC80C43
:1048C000D91CEA1CFB1C6C157D058E059F0508F0A4
:1048D0005BCF133019F081E080931A0182E080836E
:1048E00080917601E82FF0E0E35AFE4FD0838F5F8E
:1048F0008093760149CFA8E7AA16AFE0BA0670F414
:10490000E2E0220F331F441F551FEA95D1F7CA0179
:10491000B901640D751D861D971D8CCF240D351DA5
:10492000461D571D569547953795279589CFC090B9
:104930001B01D0901C01672D762DE616F70608F4B2
:10494000B701C7010E94A0099601DC010E94843CC6
:104950002B013C01C7010E949B099C0150E040E0F3
:10496000C301B2010E94403C29013A01A090140108
:10497000B0901501892D982D8017910708F4C80172
:10498000B8010E94A0099501DC010E94843C9801B5
:1049900050E040E00E94403C88E7E8168FE0F806CF
:1049A000B0F462E0440C551C661C771C6A95D1F784
:1049B000C301B201620F731F841F951F25E030E011
:1049C00040E050E00E94403C69017A0145CF083741
:1049D000AFE01A0770F4CA01B90152E0660F771F01
:1049E000881F991F5A95D1F7640D751D861D971D57
:1049F000E5CF73016201C20ED31EE41EF51EF694CC
:104A0000E794D794C79428CFCD92DD92ED92FC9293
:104A1000139781E08083B8CE550C54B88D2F0E9437
:104A200033095C01B0ECEB16B4E4FB0608F4C4CE29
:104A300080EBC8168DE4D80608F0A6CEC2CE110FC2
:104A400015B814B98C2F0E9433098135910508F0EF
:104A50009BCE15B98C2F0E9433096C01802F886082
:104A600087B908B915B854B8A8E14A2EB12CA12CC1
:104A70008C2F0E943309982E892E8D2F0E94370982
:104A80008C018A199B0997FF03C091958195910923
:104A9000039714F2A8954A9458014110E9CF74CEB7
:104AA000CF93C82FC09595B160FF0FC0982B95B9D3
:104AB00094B1982B94B90E94FF0884B18C2384B9D7
:104AC00085B18C2385B9CF9108959C23F0CFB0E0B8
:104AD000A0E0EDE6F5E20C94363D1AE008E08FE345
:104AE000C82E99E0D92E07B908B915B8C4B880E026
:104AF0000E9433097C0181E00E943709EC0182E0C9
:104B00000E9437099C0180911A018930A1F488E044
:104B100087B914B8F0925501E0925401D09357012F
:104B2000C09356013093590120935801CDB7DEB799
:104B3000EAE00C94523D84E0E816F10448F4C430F5
:104B4000D10560F42430310510F399E092600AC079
:104B500098E088EEE81683E0F80608F499E0C83E8D
:104B6000D340A0F3283E334008F4946097B9D0E0D6
:104B7000C0E0A89580E00E942C095C0181E00E94C1
:104B800037097C0182E00E94370924E1A21625E062
:104B9000B20608F4389A24E1E21625E0F20608F499
:104BA000399A843125E0920708F43A9A26E0A21651
:104BB000B10430F426E0E216F10410F4069738F060
:104BC0002196C43F81E0D807A1F6D0921A01F12CBA
:104BD000E12CEC16FD0621F4115009F084CFA6CF8C
:104BE0000E94EE082FEFE21AF20AF3CFCF92DF9283
:104BF000EF92FF92CF9320917B0130917C01409105
:104C00007D0150917E01C0918D018AE0C82ED12C8A
:104C1000E12CF12C8C2FCF5F213A96E8390791E0F7
:104C200049075105E0F480938D01A0913001B091C6
:104C300031010E94993C28E833E140E050E00E94B5
:104C4000403C20937B0130937C0140937D01509345
:104C50007E01CF91FF90EF90DF90CF900895CA0131
:104C6000B901A70196010E94403CD4CF8F929F9238
:104C7000AF92BF92EF92FF920F931F93CF93DF9368
:104C8000C82FF62E880F8C0F9FEF960F890F8093F9
:104C90005101EC2FF0E0E55BFD4FD491862F90E0C1
:104CA000FC01E55BFD4F1491FC01E25BFD4F64915B
:104CB00080911A012091180141E951E0DA01813017
:104CC000F9F4DF91CF911F910F91FF90EF90BF907A
:104CD000AF909F908F90089516968C9116978F1194
:104CE0000EC08C918C130BC0CD01880F991F815978
:104CF0009140FC01848595858C3D954010F311967B
:104D00008A2F841B821740F3E62E6894E3F81092F2
:104D100088011092870181EF80938D0110927B01B1
:104D200010927C0110927D0110927E01D0DE88E00D
:104D300088B9E7B814B915B98C2F0E9437098C01CE
:104D40008F2D0E94370914B810925301109252010E
:104D50004C01801A910A8091520190915301843F35
:104D6000914030F088E087B988B914B815B8A9CF58
:104D7000D5B9D4B90E94E80814B815B80E94EF0854
:104D8000A8958C2F0E9437095C01A80CB91C809152
:104D90005201909153018E37910520F02BE4A21619
:104DA000B10404F33DE2A31631E0B3060CF030C2C7
:104DB00080915201909153010196909353018093F9
:104DC0005201C9CFC501F5E1AF16F5E0BF060CF4FD
:104DD00040C17DDE15B88FE087B988E088B9BD2E67
:104DE000BB0CB4B880E480937B0084E580BF8C2F3B
:104DF000806480937C0086E180937A000E94F208B0
:104E0000109253011092520110928000109285006E
:104E10001092840087E286BB81E280936F0081E07C
:104E200080937801B5B890911A01953009F0D0C1FE
:104E30008093810081E090E00C2E01C0880F0A94DD
:104E4000EAF780958F7087B9F89483B7817F83BF25
:104E500080917801882389F083B7816083BF78943B
:104E6000889583B78E7F83BFF894A895809152016F
:104E7000909153018034964059F7789410928100B4
:104E8000A0908600B090870010926F0086E9809312
:104E90007A0014B815B88C2F0E943709209134017C
:104EA00030913501821B930B0C9690939001809367
:104EB0008F0180915201909153018032934008F00C
:104EC00051CF80915201909153019093860180932C
:104ED0008501B0928401A092830184EF80938D01BB
:104EE000809152019091530182349105C8F06091F4
:104EF000830170918401809185019091860124E65F
:104F000030E040E050E00E94403C20938301309329
:104F10008401409385015093860186EF80938D0133
:104F2000A0917901B0917A0120918301309184019F
:104F300040918501509186010E94993C20E233E026
:104F400040E050E00E94403C209383013093840174
:104F5000409385015093860120937B0130937C011F
:104F600040937D0150937E0141DE80918D01843F0D
:104F700009F056C080907B0190907C01A0907D014B
:104F8000B0907E01F0EA8F16FFE09F06A104B10405
:104F9000C0F4A50194012C543F4F4F4F5F4F60EA7E
:104FA0007FE080E090E00E94403C820E931EA41EB1
:104FB000B51E80927B0190927C01A0927D01B092FF
:104FC0007E0180907B0190907C01A0907D01B0904B
:104FD0007E018114910421E0A206B10408F0FCC016
:104FE0009092BF018092BE018091510190E08F5C50
:104FF0009C4F0E94C13D90E0B0E0A0E0881599056B
:10500000AA05BB0508F0EFC0881A990AAA0ABB0ACC
:1050100080927B0190927C01A0927D01B0927E01F2
:10502000D4B980917B0190917C01A0917D01B091D8
:105030007E014997A105B10508F082C093CE0E9478
:10504000E9088C2F0E943709880D991DA8950F5FDC
:105050001F4F20915201309153012017310778F7EB
:105060004501881A990A181419040CF0AEC029ECED
:10507000821691040CF076CE28EE33E0D4010E9423
:10508000933C95010B2C000C440B550B0E94403CAB
:10509000890180915201909153010196B0E0A0E006
:1050A0008093830190938401A0938501B09386013E
:1050B000C501880D991D0E94FC0920918301309142
:1050C00084014091850150918601DC010E94993C48
:1050D000609383017093840180938501909386018E
:1050E00060937B0170937C0180937D0190937E019E
:1050F00087EF80938D017ADD80907B0190907C0119
:10510000A0907D01B0907E0184E193E00E94C13DBA
:10511000A8EEB3E0A81BB10987FDB395A5019401E2
:105120000E94A33C24E630E040E050E00E94403C76
:1051300020937B0130937C0140937D0150937E014D
:1051400080911801882329F080911A01853009F097
:1051500009CE88E080931A0180918D0190918E0193
:105160009817C4F08913FECD80907B0190907C014C
:10517000A0907D01B0907E0140917F01509180010F
:105180006091810170918201481559056A057B057E
:1051900008F0E8CD40917B0150917C0160917D0148
:1051A00070917E0140937F01509380016093810153
:1051B0007093820180938E0110938A01009389017C
:1051C000F0928B01C0938C01CDCD10E000E061CF57
:1051D00080938100E7B838CE81E090E09093BF01E2
:1051E0008093BE0101CF34E1830E911CA11CB11C40
:1051F00088169906AA06BB0610F40E947E15109226
:105200007B0110927C0110927D0110927E0108CFEB
:1052100000915201109153010115110509F4D2CDED
:10522000C50110E000E015CF1F921FB61F92112498
:105230008F939F93B59904C080917801811109C023
:10524000B59B10C080918600909187008A3F9105A0
:1052500048F480915201909153010196909353012B
:10526000809352019F918F911F901FBE1F901895A0
:105270001F921FB61F9211248F939F931092780153
:10528000B09B10C080918600909187008A3F910565
:1052900048F48091520190915301019690935301EB
:1052A000809352019F918F911F901FBE1F90189560
:1052B000B0E0A0E0EEE5F9E20C94343D88E893E13B
:1052C00090931F0180931E019093310180933001D0
:1052D0008EEB80932C01C8E0C8B988E187B90E94A1
:1052E000F708C7B984E00E943309AC018B5C984091
:1052F000833F9140A0F481E080933B0120913001F5
:1053000030913101AFEBB9E00E94843C9A0150E04A
:1053100040E00E94403C30931F0120931E01809189
:105320001E0190911F0190933101809330018EE016
:105330000E9437098EE00E943309909335018093D3
:1053400034010E94A909C3DB88E0F82EF8B8C9E04F
:10535000C7B985E185B9D1E0D4B980E00E943309AD
:105360008C019AE0D92ED7B824E0B22EB4B881E0EF
:105370000E943309080F191F3CE0E32EE7B840E113
:10538000C42EC4B882E00E943309080F191F15B853
:10539000C8B9C7B9D4B980E00E9433090E949B09FB
:1053A000EC01D8B8D7B8B4B881E00E9433090E94A4
:1053B0009B09C80FD91FE8B8E7B8C4B882E00E94BB
:1053C00033090E949B09C80FD91FF7B8F8B814B861
:1053D00080913001909131016C01CC0CDD1CC80E24
:1053E000D91EC8018C0F9D1FC81AD90AF12CE12CB7
:1053F0009801A0E9BAE10E94843CA70196010E94AD
:10540000403C49015A0130933A01209339019E01F1
:10541000A0E9BAE10E94843CA70196010E94403CA9
:1054200030933301209332012057354E30931C01C5
:1054300020931B0180E7881A85EE980A9092150147
:105440008092140189E180932C01CDB7DEB7ECE0A6
:105450000C94503DCF92DF92EF92FF920F93CF9337
:10546000DF93F82EC62FD42F0E94EB0D88E091E039
:105470000E94F90DFFD16C2F8F2D0E94313AC09000
:10548000C201D090C301E090C401F090C5018091A9
:10549000200187FD05C0C114D104E104F10421F00D
:1054A00084E091E00E94F90D8C2F0E94EB0DC11455
:1054B000D104E104F10431F00E94DF0780915D0125
:1054C0000E944308DD2309F459C080913C018D30CE
:1054D00008F054C08650990B855C9C4F0E94F90DD2
:1054E00080E00E94960CCD28CE28CF2809F449C030
:1054F0006091C2017091C3018091C4019091C50176
:1055000003E028E447EF0E943E0E87E191E00E940D
:10551000F90D86E493E00E94C93D23E046E464EF80
:105520000E941E0F8091BA019091BB01A091BC0115
:10553000B091BD01892B8A2B8B2BF1F180E00E9469
:10554000960C6091BA017091BB018091BC01909161
:10555000BD0104E028E440E00E943E0E82E191E0BB
:105560000E94F90D23E040E26FEF8091C00190911D
:10557000C1010E941E0F0E94750C25C00E94750C6F
:10558000AFCF80915D010E944308809120018E3F42
:105590004CF68FE291E00E94F90D6091A9017091A3
:1055A000AA018091AB019091AC0103E028E4409105
:1055B00020010E943E0EB6CF80E00E947B0C8091BD
:1055C0003F018823C1F2DF91CF910F91FF90EF90BF
:1055D000DF90CF900895EF92FF920F931F93CF9398
:1055E000DF93182F0E94330C80918B010E94EB0DEA
:1055F0008BE491E00E94F90D80D360918B01809142
:105600008C010E945F0AEC019093880180938701CE
:10561000E0908901F0908A01CA3F8FEFD80720F40B
:1056200089E091E00E94F90D80918C010E94EB0DC0
:10563000112309F445C090913C018DE0891B0E9423
:10564000040C89E690E00E94F90D0E945D0C6091C7
:105650007F0170918001809181019091820104E02D
:1056600026E440918E010E943E0ECA3FDF4F68F44F
:105670008AE391E00E94F90D22E04DE16EEF809106
:105680008701909188010E941E0F0E94750C0E9454
:10569000650CE114F10469F083E391E00E94F90DD7
:1056A00022E045E26FEF8091890190918A010E948A
:1056B0001E0F0E94750CCDB7DEB7E6E00C94563D88
:1056C0000E94750CC2CF8F7021F40E946D0C0C9457
:1056D000A51B08958F3021F490913601913011F07F
:1056E0008F5F089580E00895CF9384E790E080D79E
:1056F0006AE080E00E940D0C8FE393E00E94F90DB8
:10570000C0E00E94521160E082E00E944D2362E0FE
:1057100080E00E944D230E94330C80917601882303
:10572000C9F041E062E080E095DE8C2FCCDF88EEAE
:1057300093E00E949B10811109C080911301843075
:1057400028F48C2FC7DFC82F8A3FD8F20E943A0C6A
:10575000CF91089584E790E00E94F90D8FE393E0E4
:105760000E94F90D0E945D0C8FE30E947B0D80E08A
:105770000E947B0C0E94750CD8CF0F931F93CF9380
:10578000DF93C0E0D8E012EF0DE00E94521160E01C
:1057900082E06CDAD0931A0180918D01843FE1F4AC
:1057A00080917B0190917C01A0917D01B0917E015F
:1057B00084369105A105B10578F440E060E082E00F
:1057C0000E94CB3760937B0170937C0180937D01B5
:1057D00090937E0110938D0180918D01823F6CF139
:1057E00080938E0180917B0190917C01A0917D013D
:1057F000B0917E0180937F0190938001A0938101FD
:10580000B093820181E0E7DE8C2F5DDF88EE93E0CC
:105810000E949B1081110AC080911301843030F4E2
:105820008C2F58DFC82F8A3F08F4AFCF0E943A0C64
:10583000DF91CF911F910F9108950E94330C8DE657
:1058400090E00E94F90D80913C01902F981B892FC8
:105850000E94040C89E690E00E94F90D0E945D0C04
:105860008FE30E947B0D0E94750C0E94650C0E94C4
:10587000750CCACFA6E1B0E0E0E4FCE20C942E3D4A
:1058800082E08093200180911A01813009F0DDC10E
:1058900080917601813009F0D8C140905D0124E00B
:1058A000429EF0011124E255FE4F80819181A28138
:1058B000B381893032E59307A105B10508F0C5C170
:1058C0001C01712C81E0871508F4C3C1842D0E944E
:1058D0003908982E892EE92FF0E0E25BFD4F5490B5
:1058E00090E0FC01E55BFD4FE49115B828E028B994
:1058F000372D3170632E20EF2216310408F0B0C12D
:105900003111AEC1009114011091150100591A41D5
:1059100021E030E002C0220F331F8A95E2F7C9016F
:105920008529886087B934E1398B892D0E94300937
:105930005C01882D0E94370924E0A216B10410F4FE
:10594000049728F039893150398B3111EECF80E43A
:1059500080937B0094E590BF892D806480937C00C8
:1059600026E120937A00F12CE12C10928000109215
:1059700085001092840087E286BB0E94F208872D82
:1059800090E09A8B898B611074C181E880938100CB
:1059900058B886B385FF76C128E028B910928100F7
:1059A00030E236BB2091860030918700690140913A
:1059B0008400509185002417350708F471C186E9E9
:1059C00080937A00B4E15B2E892D0E9430095C013E
:1059D000882D0E94370924E0A216B10410F4049720
:1059E00018F05A945110F0CF8090390190903A01FC
:1059F000820C931C800E911E20911601309117018C
:105A000000398AE1180708F053C169E191EEC9161F
:105A1000D104E104F10430F4C60165E070E00E94B5
:105A2000193C645128523109261B310967FD339511
:105A300066E0862F90E0B0E0A0E08C159D05AE05F5
:105A4000BF0508F03EC1C81AD90AEA0AFB0A662057
:105A500029F082E2C80ED11CE11CF11C90E5E91688
:105A6000F10418F0C12CD12C76018BE0C816D104BA
:105A7000E104F10428F091E0C91AD108E108F10825
:105A8000B12CA12CA8EEB3E00E94843C6B8B7C8BE4
:105A90008D8B9E8BA0913001B091310198010E94B5
:105AA000843CA50194010E94403C442755276B8902
:105AB0007C898D899E890E94403CC9010E943B0AD5
:105AC000FC01A5019401C701B6010E94FE3B4B01F8
:105AD0005C01BF0190E080E0E3E0660F771F881F64
