:1000000081C1000091C100008FC100008DC10000BE
:100010008BC100000C94342B87C100000C945F0846
:1000200083C1000081C100000C94D81F0C94182BD0
:100030000C94262B0C94B21F77C1000075C10000F0
:100040000C94F22A71C100006FC100006DC1000064
:100050006BC100000C94600867C1000065C100001E
:1000600063C1000061C10000E62FF72F903009F452
:100070009395E5B8C4B8B6EFB0937A00A5E0A09325
:100080007B00A8E0A093810010928000AFEFA093C6
:100090008500A0938400A6E0A093360010928B0008
:1000A00010928A00B3E0AFE3A91B51E0392F33303F
:1000B0002AF0A05CBC4F53953350F9CFB093890020
:1000C000A0938800A0917A00A4FFFCCFB6EBB09378
:1000D0007A00A2E0A0936F00A9E0A093810062E003
:1000E000A0E0A0937B00A1E0A09353008895E5B821
:1000F000C4B884FF1AC0A8E10000AA95F1F7EF93F5
:10010000FF93E7B1F8B1A4E0C2FCA2E0C0FCA1E01B
:10011000BF2FBA2BAE2BB8B904B9A7B9E7B9F8B954
:10012000FF91EF910BC00C947300ACE10000000054
:10013000AA95F1F725B9E5B8000004B9A0918400AB
:10014000A0918500B0918900A395AB1760F7A091AD
:100150007A00A4FFF3CFB6EBB0937A006A9571F7FB
:100160006091780070917900308186FD630F619312
:10017000308186FD731F80FF7193652F4A9579F753
:1001800010926F0010928100B6E0B0937A0008954B
:10019000010410090A0C4E6F742063616C6962726D
:1001A000617465642120466F72FF63616C696272DD
:1001B0006174696F6E20636C616D70207468652076
:1001C00033FF70696E7320746F67657468657220A1
:1001D000616E64207374617274207769746820742E
:1001E0006865FF6B65792E2041636B6E6F776C6578
:1001F000646765207468652073656C662D7465732B
:1002000074207769746820746865206B657920773D
:10021000697468696EFF32732E20446973636F6E70
:100220006E6563742070696E7320616674657220F8
:10023000746865FF6D657373616765202269736F0C
:100240006C617465FF50726F6265212220697320B2
:1002500073686F776E2E20536F66747761726520B6
:10026000616E6420646F63756D656E746174696F2F
:100270006E206973206174206769746875622E63EB
:100280006F6D2FFE6B756269343800B903870358B0
:10029000032E030703E402C302A402880200001431
:1002A0000029003E005300690080009700AE00C6A0
:1002B00000DF00F80012012D01490165018201A053
:1002C00001BE01DE01FF012102440268028E02B577
:1002D00002DE020903350364039403C803FE0337F7
:1002E000047304B404F90443059305EA054906B30D
:1002F000062907AE074808FF08DE09FD0A930C48E7
:100300000F991B0011241FBECFEFD8E0DEBFCDBF79
:1003100021E0A0E0B1E001C01D92AA3BB207E1F7E5
:100320000E94FC0C0C942A346BCE80FD5C9A80FFFA
:100330005C98549A00005D9A559A589859985A9822
:100340005B9864FD589A509A65FD599A519A66FDDA
:100350005A9A529A67FD5B9A539A00005D9819D198
:1003600087FD10C05D9A589859985A985B9860FD1F
:10037000589A61FD599A62FD5A9A63FD5B9A000092
:100380005D9807C1089597FF09C08F939F938DE2F1
:1003900018D49F918F91909581959F4F67E171E05F
:1003A0004AE050E00E94C93371C4EDDF01C0EBDFC9
:1003B00080E207C48DE205C48DE303C4EF92FF928F
:1003C0000F931F93182F062FF42E84E691E069D423
:1003D000EE24E0913201F09133018685E81611F4A4
:1003E000812F09C08485E81611F4802F04C085850B
:1003F000E81611F48F2DE5D3E3948E2D833049F761
:100400001F910F91FF90EF900895682F80E092E088
:10041000662309F491E0623009F481E008950F93B6
:10042000082FE2EAF1E0880F880FE80FF11D6081E4
:10043000718182819381643671058105910568F42B
:100440002091150127FD09C0802FDFDF692F03D21E
:100450006EEF23E044EFBBD504C04FEF04E024EF80
:10046000D5D4A6DF0F910895863058F4E1E9F1E084
:10047000E80FF11DE80FF11D8081918163E0B2D595
:1004800097CF08951F93182F80916B01882319F03F
:100490008FDF80E096D3F1D38BE591E002D4812FFA
:1004A00082958F70E1DF812F8F70DEDF1F910895BD
:1004B0008091020182958F7018D080910201837023
:1004C0001AD080910201DECFE5E8F1E0E80FF11DDE
:1004D0000895CF93F9DF9081C681C91710F405D034
:1004E00001C012D065DFCF910895EEDF8F93808138
:1004F0009AD38F9100C08F9387E291E0D2D38F91EE
:10050000E3DF868190C30895DFDF8F9386818BD3ED
:100510008F9100C08F9383E291E0C3D38F91D4DF9A
:10052000808181C308958F932F932AE080953B9A11
:10053000089410F4439802C0439A000020D027D0BA
:1005400086952A95B1F72F918F91089503D002D007
:1005500001D000D000D003D002D001D000D000D014
:1005600003D002D001D000D000D0A89503D002D093
:1005700001D000D000D003D002D001D000D000D0F4
:1005800003D002D001D000D000D003D002D001D0DF
:1005900000D00000089582E090E0893C28F0885C5B
:1005A00048EC849FC0011124009709F408954091FC
:1005B0008100477019F0D9DF0197F6CF813091059E
:1005C00019F002975EE303C057E180E090E04091AC
:1005D000B200450F4093B30042E04093700047E003
:1005E00043BF889546E043BF10927000A895DCCFCA
:1005F0008F9384E0D1DF06C08F93CDDF03C08F934C
:1006000081E0CADF8F911F93182F106410937C0034
:10061000E12FE07880912201E81759F0E093220160
:10062000AEDF8EE980937A0083E083BF889582E015
:1006300083BF20E030E0A901E0E01FC08EE9809395
:100640007A0083E083BF889582E083BF6091780061
:1006500070917900260F371F411D511DE43061F460
:1006600080912401803041F084E02030380720F46C
:1006700017FD02C01068CACFEF5F80912101E81713
:10068000E8F2609125017091260117FF04C0609186
:1006900023017091240180E090E00E943F322FEF0F
:1006A00033E040E050E00E948132B901CA0120915C
:1006B000210130E040E050E00E948132C9011F91E9
:1006C00008959B01281B390B50F0C9010895BC0106
:1006D00080912501909126016817790718F4861BEF
:1006E000970B089580E090E008958AE293E00E94DD
:1006F00004342091290130912A01280F391F2093B9
:100700000B0130930C0183E0283E380720F0C9012B
:10071000885E934002C080E090E062E370E00E9457
:100720005A32683008F067E0EBE8F2E0E60FF11DBE
:10073000E60FF11D459155912591359162E3681BB6
:10074000421B530B649FC001659F900D1124499675
:1007500062E370E00E945A32620F731F70936E0161
:1007600060936D018CE293E00E94FC33992787FD32
:1007700090956091290170912A01860F971F90939F
:1007800024018093230190936A0180936901089565
:100790000F9221E08C32920710F48CE291E08C529F
:1007A000914069E170E00E945A3299E16B3210F099
:1007B000982F6BE2981BE8EAF2E0E60FF11DE60FD6
:1007C000F11D9F93CF010E94FC33482F3196CF013A
:1007D0000E94FC33582F3196CF010E94FC33282F02
:1007E0003196CF010E94FC33382F6F91421B530B7F
:1007F000649FC001659F900D11240C9669E170E023
:100800000E945A32620F731FCB010F900895CF934D
:10081000DF9324E130E0B9010E945A32DC01EDE9B6
:10082000F2E0E60FF71FE60FF71FC591D59145914E
:1008300055914C1B5D0B4A9FC0014B9F900D5A9FD9
:10084000900D1124B9010E945A326C0F7D1FCB010B
:10085000DF91CF910895AEE1B0E0E1E3F4E00C94D4
:100860006933662EB82E860F898320910F012830B8
:1008700059F52091730130917401409175015091A7
:10088000760157FD15C01091820109C0CA01B90156
:100890002AE0312D412D512D0E9481321F5F173FDB
:1008A000ACF391F4243160E036074105510518F4AA
:1008B0008FEF9FEF41C1173F39F480E028178DE794
:1008C00038074105410510F020E03DE72C8B3D8BBA
:1008D00026EDA22EE3E9F1E0E60DF11D8591886099
:1008E0008E87E3E9F1E0EB0DF11D859188608F873C
:1008F000E0E9F1E0E60DF11D7590E0E9F1E0EB0DC6
:10090000F11DC59090EC692AB92A81E0E82EF12CFE
:10091000012D112D8E831F82188619861A861B863B
:100920001C861D86188E198E1B8E1A8E0E941A1C0C
:1009300088E088B960927C0022DE3F8537B975B8BF
:1009400074B852E05A95F1F70000000014B815B8D9
:10095000DD243E8537B975B874B860927C00A895DF
:10096000A0927A0080917A0086FDFCCF20907800DA
:1009700030907900B0927C004C2DE2D0209178002C
:1009800030917900288B398B3F8537B9C5B8C4B809
:10099000A895B0927C00A0927A0080917A0086FDA2
:1009A000FCCF609178007091790060927C00472DB7
:1009B000C7D0409178005091790014B8CB01820DD6
:1009C000931DE80EF91E011D111DEA82FB820C83A6
:1009D0001D8388899989840F951F2E813F816885A1
:1009E0007985280F391F611D711D2E833F8368870C
:1009F000798722E32417150648F075B874B8C9DD65
:100A000014B815B8888D8395888F07C0483E73E069
:100A1000570718F08A8D83958A8F888999892817B6
:100A2000190658F03E8537B9C5B8C4B8B2DD14B858
:100A300015B8898D8395898F07C0883E73E0970725
:100A400018F08B8D83958B8FD3945D2D5F3F49F08C
:100A50005F3731F45C2D550FC50E572D550F750EB0
:100A600078CF40902E0150902F01440C551C9201DC
:100A7000E4E0240D351DEA95E1F7290157016801ED
:100A80006E807F808884998420910F012830C1F482
:100A90006C897D89812D912D6550704080409040FA
:100AA0009B01AC010E943F329B01AC0160E779E7FA
:100AB00086E190E00E948132621A730A840A950AE4
:100AC000A614B704C804D90428F46A187B088C0853
:100AD0009D0803C0662477244301B20180E090E0C2
:100AE0009301A4010E943F329501A6010E94813228
:100AF00082E093E07981870F911D0E94FC33682E7C
:100B0000C90160E170E00E945A32260F371FC90107
:100B10006816190618F4861991090EC08C5E9F4F4D
:100B20008615910538F48C899D89843981E198076F
:100B300008F00AD7812D912D6E96E2E10C94853351
:100B4000109281001092800010926F0010928B0022
:100B500010928A0057E056BB5FEF50938500509388
:100B6000840055E050937B0056EB50937A0051E09F
:100B70005093810058E25A95F1F7000045B944B905
:100B800055E05A95F1F7000014B815B8109281009D
:100B900080917A0084FFFCCF80937A000895CF93F0
:100BA000C82F1C1614F0CF91089502DCC150F9CF64
:100BB00080913101809300018091A1018093010116
:100BC0000895CF93C82F809131018F5F80933101B9
:100BD0006C2F81E0AADBD4DCC63058F482E5C43047
:100BE000A0F4C23079F0A8F48EE3C13099F08C2FD4
:100BF0000CC085E7C43E49F0C43F79F0CD32B9F767
:100C00008DE203C08CE78FDC8CE38DDCA895CF915F
:100C100008958CE788DC8CE7F8CF8FE484DC88E6E5
:100C200082DC8DE6F2CF8F5CCCCF0895682F80E018
:100C30007CDBA6CC089560933101813021F480ECF7
:100C4000860FF4CF089580E8FBCF6091000180917A
:100C50000101F1CF08958DE066DC8AE064CC08954F
:100C60001092A10180E8E2DF10923101F4CF0895E3
:100C700081E0DCDF90DCF4CF089581E08093A10176
:100C800080ECD4DF10923101E6CF0895CF93DF934B
:100C9000EC018991811103C0DF91CF91089591DF1B
:100CA000F8CFCF93DF93EC01CE010E94FC33882371
:100CB00019F087DF2196F8CFDF91CF9108950F9338
:100CC0001F93CF93DF93EC0128968C010F5F1F4F8A
:100CD0000E94FC3376DFC8010C171D07B1F7DF91C6
:100CE000CF911F910F91089584E156DC83E39EDF3D
:100CF00082E39CDF50DC80E299DF80E297DF8AE2CA
:100D000095DF88E093DF86E091DF82E08FDFB0DF60
:100D100081E042DC8CE08ADF88E488DF84E590E0D3
:100D2000CEDF80E583DF8CE490E0C9DF88E57EDFFD
:100D30008CE590E0C4DF80E679DF84E490E0BFDFFB
:100D400088E674DF8CE390E0BADF80E46FDF84E351
:100D500090E0B5CF08959091310180E1891B1FCFBC
:100D60000895CF93C82FF7DF8091A1018F5F809303
:100D7000A101823060F081E08093A1018093340171
:100D80006C2F8091A10157DF66DFCF9108951092FB
:100D90003401F6CFE6DF72D18091A101833008F0F3
:100DA0005ACF08955DDFD7DF5BCF089566DFD3DFCD
:100DB00064CF08950F9385E791E073DF409181013F
:100DC0004D3F6CF460916F017091700180917101E1
:100DD0009091720103E026E419D00F9108958FE3FA
:100DE000F0DEFBCF90910E019F70923071F4D2DF54
:100DF00084E690E056DFE0913201F091330122E089
:100E000044EF6FEF84819581E2C00895AEE0B0E0D9
:100E1000ECE0F7E00C946933142F622E702E6B0116
:100E20007C010F7080E389838A838B838C838D831D
:100E30008E83F7FE3FC0BEDAF094E094D094C09465
:100E4000C11CD11CE11CF11C68EE862E63E0962EBD
:100E5000A12CB12C033041F150E1852E57E2952EA3
:100E6000A12CB12C043001F140EA842E46E8942EE6
:100E7000AA24A394B12C0530B9F030E4832E32E4D7
:100E8000932E3FE0A32EB12C063071F074E6872E2E
:100E9000912CA12CB12C073039F420E8822E26E9C0
:100EA000922E28E9A22EB12C9AE0292E312C412C29
:100EB000512C12C075FEC8CF8BE283DEC5CFC701AF
:100EC000B6016B5F7F4F8F4F9F4FA20191010E9430
:100ED000813269017A011F5FC814D904EA04FB0456
:100EE00070F781E1810F9BEA899F812D1124A82E43
:100EF000A69486E0811B899F112D11241695912FB0
:100F0000990F190F811B182F4E0187E0880E911C35
:100F10002AE0A401C701B6010E94A833F4010190A0
:100F20000020E9F731977F01E818F9089E2C670146
:100F3000DD24812F90E004968C159D0514F4A39474
:100F40001D5F8A2D90E0845D9F4F0E94FC33A82E88
:100F500074FE29C0901638F50E198E2C811A800E59
:100F6000181424F08EE22DDE012F0E19111102C08B
:100F700088EF882E912C10E0C00ED11EE82C082C92
:100F8000000CFF08E92DF0E0EC15FD0574F0AA2037
:100F900011F08A2D16DE662011F0862D12DE2E96B7
:100FA000E2E10C94853300E0D8CF3696E01BF10BDC
:100FB00081E090E08C0F9D1FE80FF91F808101DE1A
:100FC00093949E141F04F1F68EE2FBDDDBCF0F93AA
:100FD000362FBC0190E080E0022F242F432F16DF34
:100FE0000F9108950F93062FBC0190E080E026E555
:100FF0004DEF0CDF0F9108950F93042F28E440E08C
:1010000005DF8AE7DEDDD4D90F910895EF92FF92D4
:101010000F931F93CF93DF93F82EE92EC5E64F9BD6
:101020001BC0CF2DDE2D15E500E0D7FD0FC0B3DAD4
:10103000110F4F9B1F5F1F731F3399F4011103C0E2
:10104000CF2DDE2D04E00F5F083C78F0802FCDB768
:10105000DEB7E6E00C94913381E09EDAC150F9F6F8
:10106000E0CF111102C00111F1CFA8951C161D0689
:10107000E4F62A97D1F6CFEFDFEFD7CFCF9398DD05
:10108000C82F809134018823C1F0813049F4C130E8
:1010900039F46FE0D0DD8BE294DD6FE081E0CBDDF1
:1010A00080E49FE1B3DFC13039F4809134018130B5
:1010B00019F460E0C0DD4FDEC8DDCF9108951895CA
:1010C000189540910D01A0913201B0913301E5E8EE
:1010D000F1E030E020E0822F2417B0F451911C960B
:1010E0009C911C97591719F05581951303C02F5FD8
:1010F0003F4FF1CF220F331FF901EF56FE4F2081F2
:101100003181293E334008F084E1089510920F01A7
:1011100010920D01109264011092440110920E0180
:101120001092300110926B01EFE4F1E01082118215
:101130001282EFE6F1E0108A82E0818B10921501B5
:1011400017861686148215821682178281EF838B8A
:1011500008958FE4E8D986E4E6D986E4E4D97BDD16
:101160005E98F7D990E080E051CF08951F93CF9318
:10117000DF93162F98E097B998B9E82FF0E0E05781
:10118000FE4F949195B9262F281BE20FF11D27FDE4
:10119000FA95E491E92BE4B936DAEC01812F33DAE0
:1011A000AC01209125013091260136952795C90182
:1011B0000397BE01625E7F4F8617970778F4255E1E
:1011C0003F4FC217D30750F4BA01625E7F4F8617B4
:1011D000970720F481E04217530708F080E014B825
:1011E000DF91CF911F910895CF9361E080E0BEDF42
:1011F000C82F62E080E0BADFC80F62E081E0B6DFAE
:101200008C0FCF910895AFE0B0E0E9E0F9E00C94E5
:101210006933B82E10920F01807FB9F4E5DF833077
:1012200081F426DD8AE392E03CDD27DD8FE3C9DC33
:1012300080ED97E0EBDE8B30B0F41ADD85EF90E0C7
:1012400030DD2F96E2E10C94853306E910E010DDE5
:101250008AEA91E026DDC8DF833009F065C01F5FB0
:10126000143008F462C009DD0E94FA1F81EB90E09F
:1012700018DD60E084E093E00E94093460E085E0DE
:1012800093E00E94093460E083E093E00E94093417
:1012900060E082E0E0DA6C019A83898361E082E0B9
:1012A000DADA7C019C838B8360E081E0D4DA8C0104
:1012B0009E838D8323E040E26EEFC60188DE23E04B
:1012C00040E26EEFC70183DE23E044EF6EEFC8011A
:1012D0007EDE2AE5C216D10424F084E190E09A83F0
:1012E0008983698184E093E00E9409348AE5E816E5
:1012F000F10424F084E190E09C838B836B8185E092
:1013000093E00E9409340A35110524F084E190E04D
:101310009E838D836D8183E093E00E94093482E097
:1013200080933401ABDE06C010E088E235D901506D
:1013300009F08DCFEB2DEF70EF87E13009F04DC054
:10134000EE24E394F12C78EB872E72ED972E77E460
:10135000A72EB12CE2E0DE2E08E0F0E23F2EC12CF9
:101360001E2D50E3252E22DD1DDD84E52ADCC7017C
:1013700015D81ED8113009F0CEC184EE90E091DC72
:1013800064E08091290190912A012CDE76DC8FEDBA
:1013900090E087DC80916D0190916E010E94CE01FA
:1013A0008EEB8093210107B908B914B815B888EEFF
:1013B00093E02CDE143011F08B3020F4C39484E0E1
:1013C000C812D1CF88EE93E021DEEFEFEE1AFE0ACD
:1013D000F8E0EF16F10409F0C2CF18E705DF882323
:1013E00041F0E4DC8AE292E05CDC84E6D5D811507E
:1013F000A9F73EDC8AEA90E054DC23E044EF6FEF8B
:101400008091270190912801E2DD37DC83EA90E0AA
:1014100048DC23E044EF6FEF80912E0190912F0183
:10142000D6DD82E08093340129DE10920F0120DCAA
:101430008FE990E036DC60E082E00E94E91C409099
:101440007701509078016090790170907A015C8604
:101450004B8661E082E00E94E91C809077019090C9
:101460007801A0907901B0907A019E868D8660E027
:1014700081E00E94E91C00917701109178011E83A0
:101480000D8362E080E00E94E91C809177019091D9
:1014900078019C838B8362E081E00E94E91C80914B
:1014A0007701909178019A87898761E080E00E94B6
:1014B000E91CE0907701F0907801FA82E982C2019C
:1014C0000E94D701C4010E94D701B801110F880BF7
:1014D000990B03E026E444EF99DC2F85213029F0B5
:1014E00080912D01823009F006C282E0E80EF11CE5
:1014F000F886EF828E010F5F1F4F9E01215F3F4FE5
:101500007801F701819191917F010A97853B9105BF
:10151000C8F42E173F07A9F743E2C42E43E0D42EA8
:10152000F80160810E5F1F4F6E5EC6010E94093494
:10153000FFEFCF1ADF0A0E151F0591F79EDB87E933
:1015400091E0AFDB82E08093340198DD0E94E12ED0
:101550002F85213029F080912D01823009F0C6C0FD
:1015600087DB80E060DB8DE491E09BDB82E05BDB8E
:1015700084E290E096DB20E4F22E10E03AE0832E45
:10158000912CA12CB12CC2DD10920F0160E082E001
:101590000E94E91C0091810120916F01309170013E
:1015A0004091710150917201073F0CF4ABC100935F
:1015B000810120936F01309370014093710150932A
:1015C0007201073F09F0A6C12056310941095109AE
:1015D000203935454105510508F09CC160918301D2
:1015E00070918401CB018B569F4F8B32914008F054
:1015F00091C11F5F153008F48EC18AE293E00E940A
:10160000173436DB8DE190E04CDB809183019091C3
:1016100084010E94C30169D888E088B989E087B94C
:1016200080E284B982E00E940303853D9340D4F7B1
:1016300014B8109224011092230182E00E94030347
:101640007C018091690190916A01909324018093BB
:10165000230182E00E9403036C01CC0CDD1C10927C
:1016600024011092230182E00E9403034C01A09008
:101670006901B0906A01B0922401A0922301FDDAC1
:1016800086E190E00EDB8CE293E00E94FC33182FA1
:10169000D701A80DB91DAC19BD0995010E94CE3224
:1016A00096010D2C000C440B550B0E94A3321D5FBC
:1016B000120F612F8CE293E00E940934812F012EDA
:1016C000000C990B0E94C30110D882E08093340172
:1016D000D5DC10922D018CE0A9DA83E293E00E9420
:1016E000FC33682F86E293E00E94093489E18093FD
:1016F000210180E00E94F931BBDA85EF90E0D1DA78
:10170000BCDA81E292E0CDDA10920F0182E08093A0
:101710003401B4DC96CD123091F520912501309141
:101720002601A8E5BBE10E94BF3224EC36E340E08D
:1017300050E00E94A332290181E085B9F5E0F4B9B7
:1017400080E00E94F802841995099A83898381E1D7
:1017500084B980E00E94F802841995099C838B83E8
:1017600084E085B984E184B981E00E94F80284199B
:1017700095099E838D8389EC90E093DA36C013300F
:1017800061F5D5B82AE024B980E00E94F8022091E2
:101790002501309126013695279538872F83821BA6
:1017A000930B9A83898382E284B980E00E94F802D5
:1017B0002F813885821B930B9C838B8305B9E8E2CC
:1017C000E4B981E00E94F8022F813885821B930BD7
:1017D0009E838D838BEB90E0D0CF1430C1F48AE2EE
:1017E00092E05FDA01DD8111ACC047DA89819A812C
:1017F0000E94C3010E94D8018B819C810E94C30179
:101800000E94D8018D819E810E94C301CCCD1530EC
:10181000B1F415B8D4B880E00E94F8029A838983A5
:1018200004B981E00E94F8029C838B8334B882E083
:101830000E94F8029E838D838BED90E09ECF163040
:1018400051F5D4B8D5B880E00E94F8022091250166
:1018500030912601821B930B9A83898304B905B9C1
:1018600081E00E94F8022091250130912601821B1F
:10187000930B9C838B8334B835B882E00E94F802C6
:101880002091250130912601821B930B9E838D832D
:1018900087ED90E072CF173009F0A7CF2091250196
:1018A00030912601A8E5BBE10E94BF32A501940159
:1018B0000E9481322901D5B8F3E0F4B980E00E949A
:1018C000F802841995099A83898305B92CE024B913
:1018D00081E00E94F802841995099C838B8335B8B6
:1018E00024B882E00E94F802841995099E838D83B2
:1018F00085EB90E042CFF886EF8210922D018CE0CC
:1019000095D9F8CD0F5FCA01B901A50194010E94D4
:1019100081324ACE10E0B1D960916F0170917001AF
:10192000809171019091720104E026E4409181015F
:101930006DDA11DA88E20E94CC02FA94F11023CE1B
:10194000D5CE82E0C82E51CF80912D0181110DC0DE
:1019500083E293E00E94FC3361E0680F86E293E04B
:101960000E94093481E080932D010895EF92FF9247
:101970000F931F93CF93DF93D62FE82FF0E0ED5610
:10198000FE4FE491E8B9E860E7B915B8E62FF0E05A
:10199000E057FE4FE491E4B9CE2FCC0F88E8E82E53
:1019A00083E1F82E8D2F0E94F8028C01C4B98E15A8
:1019B0009F0500F1892BC9F08BE291E072D9D80123
:1019C00020EA36E841E050E00E94D43228E937EBC3
:1019D00040E050E00E948132C90122E041E467EF1B
:1019E000F6DA88E087B988B914B8CDB7DEB7E6E093
:1019F0000C9491337801D6CFB0E0A0E0E2E0FDE0B6
:101A00000C94693380E48AB98BB9D6E8D0937A0014
:101A10001092C1000E94AB02C4B7C87084B7877F20
:101A200084BF0FB6F894A895809160008861809378
:101A30006000109260000FBED093640088E3809332
:101A40007E001092B00087E08093B10078944CD96A
:101A5000C11122C580E185BF4F9905C00E94CB020C
:101A6000CF5FCC33C9F78FE59DE690930801809353
:101A70000701CF3130F080E69DE690930801809316
:101A80000701109222010E94FA1F88E19FE00FB621
:101A9000F894A895809360000FBE90936000CC33BB
:101AA00021F40E9415298111FCCF88E0582E92E084
:101AB000692E20E1322E38E1432E45E5C42E41E067
:101AC000D42E51E2252ED4D857B820DB0E94FA1F1D
:101AD000C7D8F4D480913001882369F0CED882E44D
:101AE00091E0DFD863E080912501909126017ADAB8
:101AF00088EC0E94CC02C1D80E941A1C80910F0170
:101B0000893029F5B5D887E491E0CBD8B6D863E021
:101B10008091490190914A0165DA0E94D80163E001
:101B200080914B0190914C015DDA0E94D80163E0F5
:101B300080914D0190914E0155DA8AEC0E94CC02C1
:101B400081E161DB80910701909108018FC18CE0F8
:101B50006DD886E293E00E94FC33C82F83E293E0C5
:101B60000E94FC33C81BC0932D01CC2311F08EE0E2
:101B70005DD880E048DB1AD98FE992E092D883E003
:101B80000E94930268D842E061E080E007D542E01D
:101B900060E081E003D541E062E080E0FFD441E015
:101BA00060E082E0FBD440E062E081E0F7D440E016
:101BB00061E082E0F3D480910F0181110EC00E9498
:101BC0001A1C60E082E00E94E91C61E082E00E9451
:101BD000E91C60E081E00E94E91C4AD845E351E03D
:101BE000509333014093320180910F018630A1F46C
:101BF00086E792E056D841E467E483E40E94DE0180
:101C00003CD88BE591E04DD862E08091390190910C
:101C10003A01E8D920D896CF873039F48FE792E09F
:101C200040D842E367E481E3E9CF8830D9F480917A
:101C30007F0190918001890F9927991F029771F474
:101C40000E9482228CE00E94160680912D0188233A
:101C500009F40BC4D2E010E000E0F5C380E00E947C
:101C60008C2170CF833009F00DC180910D0181303E
:101C700009F073C080E00E94690260918501809143
:101C80008B0174DE80E70E94420240E06091850192
:101C900080918B010E94072E60936F0170937001F9
:101CA000809371019093720180E074D860916F010C
:101CB00070917001809171019091720102E026E4AF
:101CC00042EFA4D80E94DA0141E060918501809141
:101CD0008B010E94072E60936F01709370018093B7
:101CE00071019093720126E442EF90D88DE191E06A
:101CF0000E9451060E942B060E942B0680916B01C8
:101D0000882309F41FCF47B88091070190910801FB
:101D10007DD957B80E94380680910D01805D0E94E0
:101D2000E1058DE091E00E94510630916B01332373
:101D300009F449C380915201313009F0E0C20E9498
:101D4000050220915201213009F0D4C220910D01E9
:101D50002111D0C20E94402275CF823079F582E3F2
:101D60000E94E1058DE091E00E945106909185016D
:101D700030918601931308C080E00E94840281E0C4
:101D80000E947B0281E07FCF20918B0180918C01AA
:101D9000281307C080E00E94750281E00E948A0239
:101DA000F1CF321306C081E0809302010E945802F5
:101DB000A3CF98133DC030920201F8CF8330C1F514
:101DC00053E35093020180918B0190918601891316
:101DD00003C021E0209302014091850130918C01E4
:101DE000431302C03092020120918701821302C086
:101DF0006092020180918D01481303C040E240933C
:101E0000020132130DC022E120930201981751F014
:101E100083E30E94E1058DE091E00E945106C6CF68
:101E2000981302C02092020180910201823280F355
:101E300085E892E00E9451068DE692E00E945106EC
:101E40000E943D0680910D01805D0E94E1058AE2BD
:101E50000E94E10587E291E00E94510683E592E04D
:101E60000E9451060E942B0680E49FE147B84F9BD9
:101E7000FECFCCD8823308F4B3C20E941529811159
:101E8000FCCF21CE843009F04DC1809164018823BC
:101E900009F45DC080914401882309F458C0609121
:101EA0004101809143010E94E91C80906F01909054
:101EB0007001A0907101B0907201C0918101609198
:101EC0006301809161010E94E91C8091350190912C
:101ED0003601A0913701B0913801409155015091E0
:101EE00056016091570170915801843F21E092079B
:101EF000A105B10538F4443F21E0520761057105A1
:101F000008F0C0EF443F51406105710540F4843F43
:101F10009140A105B10518F050EF509381018091D7
:101F200081018C130FC080916F0190917001A0917D
:101F30007101B091720188169906AA06BB0620F0BD
:101F40008CE003C0C817E4F78DE080930E01809108
:101F50006401882361F080914401882341F04F9906
:101F600006C080910E0191E0892780930E01809137
:101F70000E018C30F1F48EE691E00E9451068091C2
:101F80006401882319F080E70E94E1050E94D801CE
:101F900098D8C82F853048F580910E018C30B9F45F
:101FA00081E020914201909143019217B8F080E0C6
:101FB00015C0D0923301C09232018AE691E00E94AE
:101FC000510680914401882309F38EE6DDCF81E03C
:101FD0002091620190916301291748F7882309F441
:101FE0009AC087E291E00E94510643E462E485E4EE
:101FF0000E94DE010E943D0688E791E00E945106A2
:10200000E0913201F091330160817181828193818D
:1020100003E020E04EEF0E9406070E94D80189E409
:102020000E94E105E0913201F091330186819781B0
:102030008031974208F472C085E60E94E105E09184
:102040003201F091330186819781805197429783C5
:1020500086830E94DC01E0913201F091330122E09D
:1020600041E46AEF868197810E94E70780E00E9441
:10207000CA068FE591E00E945106E0913201F0918D
:10208000330163E0848195810E94F207E09132017F
:10209000F091330180859185892B91F080E00E9439
:1020A000CA068FEE90E00E945106E0913201F09155
:1020B000330123E041E46AEF808591850E94E707C0
:1020C000E0913201F091330182859385892B91F063
:1020D00080E00E94CA0689EE90E00E945106E091DD
:1020E0003201F091330123E041E46AEF8285938568
:1020F0000E94E707C53008F025CD80E00E94CA069F
:102100008C2F0E9469028BE591E00E9451068C2F72
:102110000E9434027FCD83E291E065CF83E60E9486
:10212000E10597CF853009F000CE80910E0184FF44
:102130003DC080E50E94E105D0923301C09232019A
:102140000E94DA0180910E01C82FCF70C43091F542
:1021500081E891E00E9451064FE367E48FE30E941B
:10216000DE0180910E0185FD3EC00E943D06E0919A
:102170003201F0913301668584850E94E91C0E943A
:10218000DA0686E591E00E945106E0913201F09175
:10219000330162E0828593850E94F20780E00E940D
:1021A000F206C43009F4CECCC0E09FC08EE40E9499
:1021B000E105C6CF85FF0DC084E40E94E105C33070
:1021C00051F48BE791E00E94510643E467E485E413
:1021D000C6CF85E4F2CF86E891E00E94510644E440
:1021E00067E483E5BCCF8F70843009F452C080E08F
:1021F0000E94B106E0913201F09133016685848539
:102200000E94E91C0E94DA0680E00E94CA0689E466
:102210000E94E1050E94DC01E0913201F09133015E
:1022200022E041E46AEF868197810E94E70781E519
:1022300091E00E945106E0913201F091330162E099
:10224000828593850E94F207E0913201F09133017B
:1022500080859185803C924108F0A0CF80E00E946B
:10226000CA0689E40E94E1050E94DC0122E041E403
:102270006BEF90E080E00E94E70781E591E00E942B
:102280005106E0913201F091330162E08085918541
:1022900083CFE0913201F091330184819581892BC4
:1022A00009F4B2CF80E00E94B10680E090E00E9485
:1022B0005106E0913201F091330122E041E46AEFEE
:1022C000848195810E94E7079FCF80E00E94CA0623
:1022D0008C2F0E9469028BE591E00E9451068C2FA1
:1022E0000E9434020E942B06CF5F80910D01C81717
:1022F00060F328CC40E0692F0E94CB2023CC909142
:10230000530154E0959FD0011124AE55BE4F24E0F7
:10231000829FF0011124EE55FE4FED90FD900D913E
:102320001C914081518162817381282F4E155F0578
:102330006007710708F4292F980FC3E0C91B3230DA
:10234000E1F0C091540144E0C49FD0011124AE5586
:10235000BE4F54E0259FF0011124EE55FE4F4D91E4
:102360005D916D917C9180819181A281B38184176F
:102370009507A607B70708F0C22FDC2FD695062DC4
:102380000C1B12E0C11101C011E08D2F0E94130639
:1023900088E091E00E945106802F0E94130688E099
:1023A00091E00E945106812F0E94130680E00E9456
:1023B000B10681E0C11180E00E940F02862D8D1BC5
:1023C0000E940F02BFCB8DE592E00E9451060E9451
:1023D0003D068AE892E00E94510685E892E040CDF1
:1023E000811171CB2FCC272D782EF501E80FF91F25
:1023F000C491C03219F0CE3F09F0722E019681319E
:10240000910589F7DD2339F18D2F8170F82ED0FFEA
:102410000E94380660E08F2D0E941B060E942B064A
:10242000A895DF5FD170F12CE12CE71408F1CC23E3
:10243000C1F0070D111DF801EA56FE4FE491E0329C
:1024400011F40F5F1F4F90E080E020E1A8014A5691
:102450005E4F5A01C9CF80E197E20E9406088823A7
:1024600099F280E197E20E9406080E94A9082BCB0E
:10247000F501EE0DFF1DC491CC2399F3CF3F31F44C
:102480000E94D8019FEFE91AF90ACFCFCE3FD1F3CE
:102490008C2F0E94E105F6CF0E9430068AE492E07C
:1024A0000E9451068BEC0E94CC020E94A90890E089
:1024B00080E0CDB7DEB7E2E10C9485330F931F9334
:1024C000CF93DF9385E00E94030385E00E94FF0223
:1024D0008C01EC01CC0FDD1FCC0FDD1FCA56DF4F86
:1024E00010922B01C43883E0D80770F48BE891E098
:1024F0000E9451060E94AB0681E080932B01DF9180
:10250000CF911F910F9108958AE991E00E945106A1
:1025100062E0CE010E94F2070E94D8010A3F86E0E5
:102520001807B0F40333164060F483E992E00E9488
:1025300051060E94AB068DEC0E94CC020E94A908B5
:10254000DECF8AE992E00E9451060E94AB06D7CF07
:1025500087E991E0F8CFFC019C01261B370BCA01EB
:1025600070E060E0A901460F511D452F5527620F0D
:10257000240F351FAC01470F511D452F5527780FEC
:10258000DA01AA0FBB1F8A0F9B1F4B3E20F4E217F4
:10259000F30740F7089590E080E00895A9E1B0E0E6
:1025A000E4EDF2E10C946933582E462E342EA895B2
:1025B000E62FF0E0E057FE4F24912E87220F2F8B5D
:1025C000339634913A8BE42FF0E0E057FE4F44917C
:1025D0004983339684918F83E52DF0E0E057FE4FD9
:1025E0002490922D990F9F87339624912B832860F6
:1025F0002C8338603A8345B9EE84E42AE4B827B9DD
:102600003B8138B9862F0E94FF028C014E8544B968
:10261000842D0E94FF02B82E998714B80E94B4023C
:1026200015B8E4B8842D0E94FF02B8010E9461032E
:102630006C018A8187B988E088B9998192299D8344
:1026400095B994B9852D0E94FF020E9467034C0141
:1026500015B80E94B40225B8852D0E94FF020E9481
:1026600067039D878C8724B8852D0E94FF020E94F6
:1026700067033C016C857D85C4010E946103803243
:10268000E1E09E0730F4F0E2CF16F1E0DF0608F457
:1026900097C62C853D85C20ED31E800F911FC8168C
:1026A000D90620F01D870C876B2C7984209144017A
:1026B00080916401820F9927991F02974CF0213075
:1026C00009F0ACC590914101809161019813A6C5B4
:1026D000D980DD0CFE84FD283D2D32293B878C8579
:1026E0009D858437910508F4A6C10A96880F991F25
:1026F0006816790608F09FC19C8197B9EB81E8B90B
:10270000F4B8842D0E94FC028C01832D0E940303E7
:102710007C01D5B8842D0E94FC029801295A3D4FB6
:102720002817390708F0B7C088E088B9FA81F7B9E7
:102730002B8524B925B9832D0E94FC0288349F4043
:1027400008F4A4C085E080930F0182E280930E011B
:1027500010933A0100933901B701C8010E946C033C
:102760009093400180933F019801A0E1B7E20E945D
:10277000BF322091090130910A0150E040E00E94EF
:10278000813230933C0120933B018F898D2984B99C
:1027900015B84C8147B98B8188B9832D0E940303FA
:1027A0008C01842D0E94FC02B8010E946C039C01E4
:1027B00090933E0180933D0190910E019F70943063
:1027C00079F540913B0150913C0160913F0170913E
:1027D0004001C901C0DE0097F9F0D4B8EA899C81B4
:1027E000E92BE7B9842D0E94FC028C0188E087B9AF
:1027F0009801A0E1B7E20E94BF3220912E013091F2
:102800002F0150E040E00E948132A901B80180917F
:102810003D0190913E019FDE90933A0180933901F2
:1028200080910E018F70843059F188E088B9EF8172
:10283000FA81EF2BE7B924B82D8125B9852D0E94A7
:10284000FF028C010E9467039E838D83842D0E946A
:102850000303E0901001F0901101BC01C8010E9437
:102860006C039701DC010E94BF32ED81FE819F0164
:1028700050E040E00E94813230933A0120933901C8
:10288000809144018F5F8093440150C385E0809321
:102890000F0184E25BCF88E088B9FA81F7B92B8514
:1028A00024B925B9852D0E94FC028C01832D0E943C
:1028B00003037C0125B8852D0E94FC02895A9D4F97
:1028C0008017910708F0AAC43B8138B94C8147B9F9
:1028D000832D0E94FC02813D934008F0A7C085E053
:1028E00080930F0182E380930E01B801C7010E941B
:1028F0006C039093600180935F01C8010E9467039D
:102900009C01A0E1B7E20E94BF32209110013091FA
:10291000110150E040E00E94813230935C0120932D
:102920005B01F8E0F8B92A8127B98F858D2984B930
:1029300085B9852D0E9403038C01832D0E94FC0222
:10294000B8010E946C039C0190935E0180935D012D
:1029500090910E019F709430A1F540915B015091D0
:102960005C0160915F0170916001C901F4DD009725
:1029700021F1D5B8D4B83B8138B9EC814A81E42B38
:10298000E7B9852D0E94FC020E9467038C0188E054
:1029900087B99801A0E1B7E20E94BF3220912701D8
:1029A0003091280150E040E00E948132A901B80135
:1029B00080915D0190915E01CEDD90935A018093EC
:1029C000590180910E018F70843051F1EB819F810C
:1029D000E92BE8B9EC819E2B97B915B8FD81F4B9C4
:1029E000852D0E94FF027C01842D0E9403039E839B
:1029F0008D830091090110910A01BC01C7010E9459
:102A00006C039801DC010E94BF32ED81FE819F01C1
:102A100050E040E00E94813230935A0120935901E6
:102A2000809164018F5F8093640118C185E0809379
:102A30000F0184E358CF88E088B9FA81F7B925B847
:102A40002B8524B9852D0E94FF02998B888B0E94CB
:102A5000670398878F83832D0E9403039A87898752
:102A600083010C591F4F8F819885B30108171907EF
:102A700008F0F6C00E946C039C8B8B8B2091100198
:102A80003091110150E040E060E871EA83E09CE1A0
:102A90000E948132AB89BC890E94D432E985FA85D3
:102AA0009F0150E040E00E94813249015A0114B870
:102AB00015B8FB81F8B92C8127B981E00E94CC02BE
:102AC000E4B8842D0E94FF028F359D4008F474C144
:102AD000F4B8842D0E94FC02998F888F832D0E9468
:102AE00003039C8B8B8B852D0E9403039E8B8D8B08
:102AF0008B899C89813D974008F4E6C084E08093EF
:102B00000F018DE080930E01288D398D8901061902
:102B100017096216730610F0088D198DC09009010F
:102B2000D0900A01F12CE12C60E871EA83E09CE18D
:102B3000A70196010E948132D8010E94D432EB890C
:102B4000FC899F0150E040E00E9481328091640145
:102B5000882371F08091550190915601A091570101
:102B6000B091580182179307A407B50708F099C0E0
:102B700020935501309356014093570150935801CB
:102B8000288D398DA0E1B7E20E94BF32A7019601DE
:102B90000E94813230935C0120935B016B897C89B8
:102BA0008D899E890E946C0390935A0180935901EC
:102BB00081E040915501509156016091570170910B
:102BC0005801481559056A057B0508F06CC08092CC
:102BD000550190925601A0925701B0925801698513
:102BE0007A85888999890E946C0390935A01809311
:102BF00059012F813885A0E1B7E20E94BF322091B0
:102C000010013091110150E040E00E948132205FBC
:102C1000384D30935C0120935B01C0900901D09046
:102C20000A01F12CE12C9301A0E1B7E20E94BF322E
:102C3000A70196010E94813230935E0120935D01CD
:102C40002C853D85A0E1B7E20E94BF32A701960125
:102C50000E9481323093600120935F0181E025C0A2
:102C60008F8198850E946C039C8B8B8BFD81F4B9BE
:102C7000852D0E94FF02998B888B0E94670398879D
:102C80008F83832D0E9403039A878987BC018B89D8
:102C90009C890E946C039C01A4E6B0E00E94BF32B4
:102CA000FDCE80E086CF8111B8CF909164019F5F07
:102CB00090936401882309F477C3309261014092B4
:102CC00062015092630170C3F1E66F16710408F05F
:102CD00073C0288D398D213D47E0340708F46CC05E
:102CE00085E080930F0182E180930E01C901865037
:102CF0009F4FED89FE898E179F0708F043C083E13F
:102D000080930E01FA89F770DF2E832D8064809303
:102D10007C00EBE0EE2E21E030E03E832D830FEFD0
:102D200013E0A89561E089816ED5F4B886B18D2154
:102D3000E9F33E8534B980917A00806480937A000B
:102D400080917A0086FDFCCF809178009091790087
:102D5000F801E81BF90B2D813E812E0F3F1F3E83AA
:102D60002D83EA94E110DDCFC901880F991F880FE8
:102D7000991F69E070E00E945A327093600160937D
:102D80005F014ECE0091090110910A01688D798D85
:102D90008D899E890E946C039801DC010E94BF32DC
:102DA000E88DF98D9F0150E040E00E948132309320
:102DB0005A0120935901A6CFF4B8D5B8842D0E94AA
:102DC000FF026C01832D0E94030398878F830E946A
:102DD00067039A8789870C151D0508F0A9C0B30100
:102DE000C6010E946C038C012091090130910A01F7
:102DF00050E040E060E871EA83E09CE10E948132AB
:102E0000D8010E94D432E985FA859F0150E040E064
:102E10000E94813249015A01FA81F7B988E088B9E4
:102E20002D8124B925B9852D0E94FF028C01832DA7
:102E30000E9403039A878987842D0E9403037C01E3
:102E4000003331E1130708F0E6C125B8852D0E9453
:102E5000FF02998B888B24B8852D0E94FF029C8BE2
:102E60008B8B15B881E00E94CC0225B8852D0E947D
:102E7000FF02EB89FC89E034F64008F079C0813329
:102E8000914108F475C0C8018A569F4FE889F989B5
:102E9000E817F90708F06CC086E080930F01809175
:102EA00044018F5F80934401B70189859A850E9410
:102EB0006C0390933A0180933901B701C8010E94D5
:102EC0006C039093400180933F0114B815B8FA89C0
:102ED000F8B981E00E94CC0224B8852D0E94FF023F
:102EE000853F910518F52D8124B9832D0E94FF029D
:102EF000813D9340D8F0852D0E9403038D3D924083
:102F0000A8F024B8852D0E94FF028D3D924070F0FC
:102F100025B881E00E94CC0215B8852D0E94FF02E1
:102F2000853F910518F487E080930F0181E0F8C098
:102F3000E4B8F981F5B9842D0E94FF026C01832D5C
:102F40000E94030398878F830E9467039A8789876B
:102F5000C6016C147D0410F48619970969857A8579
:102F60000E946C039C01A4E6B0E00E94BF324BCFEC
:102F7000FA81F7B9298124B925B981E00E94CC02F0
:102F80003B8534B935B9852D0E94FF028C010E9422
:102F90006703998B888B832D0E9403039E838D8307
:102FA0000E9467039A878987842D0E9403037C010E
:102FB00089859A858E3F994008F4C1C084E080934A
:102FC0000F018CE080930E01B301888999890E94DA
:102FD0006C038C01209110013091110150E040E010
:102FE00060E871EA83E09CE10E948132D8010E948E
:102FF000D432E985FA859F0150E040E00E94813299
:1030000080914401882371F08091350190913601BF
:10301000A0913701B091380182179307A407B50733
:1030200008F07AC020933501309336014093370180
:1030300050933801B7018D819E810E946C0390935B
:103040003A018093390128893989A0E1B7E20E94C9
:10305000BF32209110013091110150E040E00E94F8
:10306000813230933C0120933B0181E04091350156
:10307000509136016091370170913801481559051A
:103080006A057B0508F04AC08092350190923601AE
:10309000A0923701B0923801B6018F8198850E94C5
:1030A0006C0390933A01809339019601A0E1B7E255
:1030B0000E94BF322091090130910A0150E040E0A6
:1030C0000E948132205F384D30933C0120933B01B8
:1030D0009301A0E1B7E20E94BF3220910901309133
:1030E0000A0150E040E00E94813230933E0120937B
:1030F0003D012C853D85A0E1B7E20E94BF322091C1
:1031000010013091110150E040E00E948132309373
:10311000400120933F010ACF80E0A8CF8111D8CF92
:10312000909144019F5F90934401882309F43CC12E
:1031300030924101509242014092430135C1F1E683
:103140006F16710408F067C02889398929343D4019
:1031500008F461C085E080930F0182E080930E0146
:10316000C70186509F4F8017910708F03CC083E04D
:1031700080930E010B810770832D806480937C0007
:103180001BE021E030E03E832D83A89560E089813B
:103190003AD33B8534B935B986B18023E9F724B8F1
:1031A00080917A00806480937A0080917A0086FD15
:1031B000FCCF8091780090917900ED81FE81E80F3D
:1031C000F91FFE83ED83115001F7CF01880F991F7E
:1031D000880F991F69E070E00E945A327093400195
:1031E00060933F014DCBC0901001D0901101B70109
:1031F000C8010E946C039601DC010E94BF32E8897D
:10320000F9899F0150E040E00E94813230933A01F9
:1032100020933901AFCF88E087B988B914B815B8C1
:1032200088E087B9F7EC6F16F1E07F0608F4E4C098
:1032300088B92F8524B938EC3D834C818A81482B8D
:103240004F839F8197B981E00E94CC02EA81E7B960
:10325000852D0E940303429728F0FD81F150FD83E4
:10326000F111EFCF2F8524B925B961E08981CBD247
:10327000852D0E94FF026C013F8934B915B84C813D
:1032800047B98B8188B960E08981BDD2842D0E94C5
:10329000FF020E9467039E838D839E8594B9842DCF
:1032A0000E9403038C01852D0E94FF02B8010E9439
:1032B0006C038C01842D0E9403037C01852D0E94E8
:1032C000FF02B7010E946C0398012C5E3F4F281744
:1032D000390708F469C088E088B9EA81E7B924B8F9
:1032E00025B861E089818FD2842D0E9403037C017F
:1032F000852D0E94FF02B7010E946C037C01081714
:10330000190708F060C0FF85F4B9F5B9852D0E9452
:10331000FF029C01CD82DE8288EEE81683E0F8068B
:1033200008F063C0C70164E670E00E945A32C7012A
:10333000875991098938914108F05EC02E153F05E3
:1033400008F05AC08D819E8143E0969587954A95F5
:10335000E1F7893C910510F088EC90E02D813E81E9
:10336000820F931F8E159F0508F046C062177307E2
:1033700008F042C080910F01833018F483E08093FD
:103380000F0120910D01822F90E0FC01EB57FE4FC1
:1033900050824682880F991FFC01EF56FE4FF18242
:1033A000E0822F5F20930D0188E087B988B914B8B7
:1033B00015B88EE20E94E1056996E2E10C9485332E
:1033C0006B2C79842BCF2F8924B915B83C8137B960
:1033D0004B8148B960E0898116D2842D0E94FF029A
:1033E0000E9467039C01780197CFB70154E076955E
:1033F00067955A95E1F79BCF642D852D01D0D4CFE9
:10340000B0E0A0E0E6E0FAE10C946B33A895262F3B
:1034100030E0F901E057FE4F549033969491A82F75
:10342000B0E0FD01E057FE4F1491339604914091B6
:10343000640150914401450F5527551F452B09F054
:103440005CC0A8954091130150911401440F551F81
:10345000440F551F50932601409325014091690167
:1034600050916A01440F551F440F551F509324017A
:10347000409323014EEB4093210150910D01E5E86B
:10348000F1E040E02A0F3B1F54133CC0D62FC82F59
:1034900088E088B9986097B914B915B9B8E1BB2E1E
:1034A000D12CC12C8D2F0E94FF02782E692E8C2FDB
:1034B0000E9403037C018C199D0997FF03C091951D
:1034C0008195910903970CF45AC1A895BA946701A4
:1034D000B110E8CF809113019091140190932601CF
:1034E000809325018091690190916A019093240154
:1034F0008093230189E180932101CDB7DEB7E0E11C
:103500000C9487337191A581A70FBB27BB1FA2170E
:10351000B30701F34F5FB8CF25E8C21621E0D2060A
:10352000C8F6043AE2E01E0708F0B5C0F8E9AF16A5
:10353000B10480F2C6010E946703AC019601A8E9BC
:10354000B7EB0E94BF329A0150E040E00E94813206
:1035500029013A01C5010E9467039C01A8E9B7EB64
:103560000E94BF32950150E040E00E94813288E71E
:10357000C8168FE0D80608F072C0F2E0440C551C63
:10358000661C771CFA95D1F7C301B201620F731F55
:10359000841F951F25E030E040E050E00E9481321A
:1035A000A4E6B0E00E94D4326B017C01FCEACF0EAD
:1035B000FDE0DF1EE11CF11C10910F01143008F03A
:1035C00089CFC1500C2F0D0F202F30E0E901C15BD6
:1035D000DE4F8881220F331F220F331F2E553E4F9F
:1035E000F901882309F4C4C080809180A280B3804F
:1035F000A7019601281939094A095B0957FF07C035
:1036000050954095309521953F4F4F4F5F4FAAE021
:10361000B0E00E94D432F4E68F0E911CA11CB11CC4
:10362000A50194012C0D3D1D4E1D5F1D0E94813290
:10363000232B242B252B09F04DCF133019F081E0DB
:1036400080930F0182E0888380916B01E82FF0E086
:10365000EE5AFE4F00838F5F80936B013BCFE8E70C
:10366000AE16EFE0BE0670F4E2E0220F331F441FF7
:10367000551FEA95D1F7CA01B901640D751D861D64
:10368000971D88CF240D351D461D571D569547950E
:103690003795279585CFC0901001D0901101672DE7
:1036A000762DE616F70608F4B701C7010E946C03F1
:1036B0009601DC010E94BF322B013C01C7010E9430
:1036C00067039C0150E040E0C301B2010E948132D7
:1036D00029013A01A0900901B0900A01892D982D85
:1036E0008017910708F4C801B8010E946C03950186
:1036F000DC010E94BF32980150E040E00E9481321C
:1037000088E7E8168FE0F806B0F462E0440C551C38
:10371000661C771C6A95D1F7C301B201620F731F53
:10372000841F951F25E030E040E050E00E94813288
:1037300069017A0141CF0837EFE01E0770F4CA0132
:10374000B90132E0660F771F881F991F3A95D1F7AC
:10375000640D751D861D971DE5CF73016201C20EB4
:10376000D31EE41EF51EF694E794D794C79424CF95
:10377000C082D182E282F38281E08883ABCE110FD6
:1037800015B814B98C2F0E94FF028135910508F0FD
:10379000A1CE15B98C2F0E94FF026C01802F88608A
:1037A00087B908B915B854B8A8E14A2EB12CA12C94
:1037B0008C2F0E94FF02982E892E8D2F0E940303CA
:1037C0008C018A199B0997FF03C0919581959109F6
:1037D000039734F0A8954A9458014110E9CF7ACE66
:1037E000550C54B88D2F0E94FF025C01F0ECEF16CF
:1037F000F4E4FF0608F490CE80EBC8168DE4D806FA
:1038000008F068CE8ECECF93C82FC09595B160FFDB
:103810000FC0982B95B994B1892B84B90E94CB0223
:1038200084B18C2384B985B18C2385B9CF91089557
:103830009C23F0CFB0E0A0E0E0E2FCE10C94713317
:103840001AE008E08FE3C82E99E0D92E07B908B92D
:1038500015B8C4B880E00E94FF027C0181E00E949C
:103860000303EC0182E00E9403039C0180910F019D
:103870008930A1F488E087B914B8F0924A01E09247
:103880004901D0934C01C0934B0130934E012093DA
:103890004D01CDB7DEB7EAE00C948D3384E0E81635
:1038A000F10448F4C430D10560F42430310510F33C
:1038B00099E092600AC098E088EEE81683E0F80686
:1038C00008F499E0C83ED340A0F3283E334008F402
:1038D000946097B9D0E0C0E0A89580E00E94F8021B
:1038E0005C0181E00E9403037C0182E00E940303EB
:1038F00024E1A21625E0B20608F4389A24E1E21683
:1039000025E0F20608F4399A843125E0920708F49C
:103910003A9A26E0A216B10430F426E0E216F10449
:1039200010F4069738F02196C43F81E0D807A1F63D
:10393000D0920F01F12CE12CEC16FD0621F4115070
:1039400009F084CFA6CF0E94BA022FEFE21AF20A42
:10395000F3CFCF92DF92EF92FF92CF9320916F013E
:10396000309170014091710150917201C0918101BB
:103970008AE0C82ED12CE12CF12C8C2FCF5F213A7C
:1039800096E8390791E049075105E0F480938101F9
:10399000A0912501B09126010E94D43228E833E19C
:1039A00040E050E00E94813220936F01309370011B
:1039B0004093710150937201CF91FF90EF90DF908F
:1039C000CF900895CA01B901A70196010E948132E2
:1039D000D4CFB0E0A0E0EFEEFCE10C946F33982F71
:1039E000990F980F2FEF260F920F90934601E82F13
:1039F000F0E0E057FE4F1491262F30E0F901E05738
:103A0000FE4FF490F901ED56FE4FD49190910F01C5
:103A10009130D1F190910D01E5E8F1E030E020E046
:103A20002917B8F1062FC82FD86010927C01109288
:103A30007B0181EF8093810110926F0110927001E0
:103A40001092710110927201F5DE88E088B9D7B941
:103A5000F4B8F5B88C2F0E9403035C01802F0E94FC
:103A60000303A81AB90A14B810924801109247012A
:103A70008091470190914801843F9140F8F088E09F
:103A800087B988B914B815B8CDB7DEB7ECE00C9497
:103A90008B33468146130EC0408148130BC0D901B9
:103AA000AA0FBB1FAB57BE4F1C964D915C914C3D6E
:103AB000554050F32F5F3F4F3196B2CF15B914B92F
:103AC0000E94B40214B815B80E94BB02A8958C2FAE
:103AD0000E9403037C01EA18FB0880914701909142
:103AE00048018E37910520F08BE4E816F1043CF292
:103AF00080914701909148012DE2E21621E0F20603
:103B00000CF024C201969093480180934701B0CFF6
:103B10000E94B5028C2F0E9403038A199B09A89565
:103B20002FEFC21AD20A20914701309148012C157B
:103B30003D0570F75701A81AB90A1A141B040CF0B6
:103B4000AEC079ECA716B1040CF099CF28EE33E0A3
:103B5000D5010E94CE3297010F2C000C440B550B5F
:103B60000E9481326901809147019091480101963C
:103B7000B0E0A0E08093770190937801A093790161
:103B8000B0937A01C7018A0D9B1D0E94C803209142
:103B90007701309178014091790150917A01DC01EF
:103BA0000E94D432609377017093780180937901F9
:103BB00090937A0160936F0170937001809371010B
:103BC0009093720187EF80938101C3DE80906F0133
:103BD00090907001A0907101B090720186E093E026
:103BE0000E94FC33A8EEB3E0A81BB10987FDB39592
:103BF000A50194010E94DE3224E630E040E050E06E
:103C00000E94813220936F013093700140937101C3
:103C10005093720180910D01882329F080910F014A
:103C2000853009F02CCF88E080930F0180918101CD
:103C3000909182019817C4F0891321CF80906F0171
:103C400090907001A0907101B09072014091730149
:103C50005091740160917501709176014815590574
:103C60006A057B0508F00BCF40916F015091700100
:103C700060917101709172014093730150937401CE
:103C8000609375017093760180938201D0927E01DA
:103C9000C0927D0100937F01C0938001F0CED12CB2
:103CA000C12C61CFC7DD15B88FE087B988E088B92E
:103CB000F12EFF0CF4B880E480937B0084E580BF94
:103CC0008C2F806480937C0086E180937A000E9430
:103CD000BE0210924801109247011092800010928B
:103CE00085001092840087E286BB81E280936F009A
:103CF00081E080936C01F5B890910F018093810071
:103D0000953009F005C181E090E00C2E01C0880FCC
:103D10000A94EAF780958F7087B9F89483B7817F0A
:103D200083BF80916C01882389F083B7816083BF52
:103D30007894889583B78E7F83BFF894A8958091F7
:103D40004701909148018034964059F77894109239
:103D50008100E0908600F090870010926F0086E965
:103D600080937A0014B815B88C2F0E940303209119
:103D7000290130912A01821B930B0C9690938401A8
:103D80008093830180914701909148018032934054
:103D900008F075CE809147019091480190937A0187
:103DA00080937901F0927801E092770184EF80931B
:103DB0008101809147019091480182349105C8F0BA
:103DC00060917701709178018091790190917A01E9
:103DD00024E630E040E050E00E94813220937701F9
:103DE000309378014093790150937A0186EF809364
:103DF0008101A0916D01B0916E0120917701309108
:103E000078014091790150917A010E94D43220E2E8
:103E100033E040E050E00E948132209377013093FC
:103E200078014093790150937A0120936F01309388
:103E3000700140937101509372018BDD809181017B
:103E4000843F09F054C0C0906F01D0907001E090A1
:103E50007101F090720180EAC8168FE0D806E10483
:103E6000F104C0F4A70196012C543F4F4F4F5F4F10
:103E700060EA7FE080E090E00E948132C20ED31EB3
:103E8000E41EF51EC0926F01D0927001E0927101A4
:103E9000F0927201C0906F01D0907001E0907101BA
:103EA000F0907201C114D10421E0E206F10490F512
:103EB000D092B301C092B2018091460190E08D5D35
:103EC0009C4F0E94FC3390E0B0E0A0E08C159D0573
:103ED000AE05BF0530F5C81AD90AEA0AFB0AC09236
:103EE0006F01D0927001E0927101F092720114B9E9
:103EF00080916F0190917001A0917101B091720158
:103F00004997A105B10508F4BACDD12CC12C82CEB8
:103F1000D7B903CF81E090E09093B3018093B201D1
:103F2000CBCF74E1C70ED11CE11CF11CC816D90619
:103F3000EA06FB0610F40E94A40C10926F01109286
:103F400070011092710110927201D1CF892B31F45E
:103F500085E1E81685E0F8060CF0A4CEC701D12C67
:103F6000C12CE1CD1F920F920FB60F9211248F93A7
:103F70009F93B59904C080916C01811109C0B59BD4
:103F800010C080918600909187008A3F910548F487
:103F90008091470190914801019690934801809348
:103FA00047019F918F910F900FBE0F901F90189512
:103FB0001F920F920FB60F9211248F939F9310921E
:103FC0006C01B09B10C080918600909187008A3F61
:103FD000910548F480914701909148010196909392
:103FE0004801809347019F918F910F900FBE0F90D2
:103FF0001F901895B0E0A0E0E0E0F0E20C946F3381
:1040000088E893E190931401809313019093260123
:10401000809325018EEB80932101C8E0C8B988E127
:1040200087B90E94C302C7B984E00E94FF02AC01B5
:104030008B5C9840833F9140A0F481E080933001F5
:104040002091250130912601AFEBB9E00E94BF32EB
:104050009A0150E040E00E94813230931401209395
:104060001301809113019091140190932601809384
:1040700025018EE00E9403038EE00E94FF029093D0
:104080002A01809329010E947503D4DB88E0F82E71
:10409000F8B8C9E0C7B985E185B9D1E0D4B980E005
:1040A0000E94FF028C019AE0D92ED7B824E0B22EEC
:1040B000B4B881E00E94FF02080F191F3CE0E32E14
:1040C000E7B840E1C42EC4B882E00E94FF02080FA6
:1040D000191F15B8C8B9C7B9D4B980E00E94FF024A
:1040E0000E946703EC01D8B8D7B8B4B881E00E9449
:1040F000FF020E946703C80FD91FE8B8E7B8C4B829
:1041000082E00E94FF020E946703C80FD91FF7B820
:10411000F8B814B880912501909126016C01CC0C5F
:10412000DD1CC80ED91EC01AD10ACC1ADD0AF12C2A
:10413000E12C9801A0E9BAE10E94BF32A7019601E3
:104140000E94813249015A0130932F0120932E01A0
:104150009E01A0E9BAE10E94BF32A70196010E9428
:10416000813230932801209327012057354E309318
:1041700011012093100180E7881A85EE980A909229
:104180000A018092090189E180932101CDB7DEB750
:10419000ECE00C948B33CF92DF92EF92FF920F936F
:1041A000CF93DF93F82EC62FD42F0E94130688E0FA
:1041B00091E00E9451061BD26C2F8F2D0E9470300F
:1041C000C090B601D090B701E090B801F090B9016D
:1041D0008091150187FD05C0C114D104E104F104EB
:1041E00021F084E091E00E9451068C2F0E9413067A
:1041F000C114D104E104F10431F00E94D80180918E
:1042000052010E940F02DD2309F459C0809131014F
:104210008D3008F054C08650990B835D9C4F0E94EE
:10422000510680E00E94CA06CD28CE28CF2809F486
:1042300049C06091B6017091B7018091B801909129
:10424000B90103E028E447EF0E94060787E191E007
:104250000E94510688E393E00E94043422E046E481
:1042600064EF0E94E7078091AE019091AF01A091A9
:10427000B001B091B101892B8A2B8B2BF1F180E039
:104280000E94CA066091AE017091AF018091B001A9
:104290009091B10104E028E440E00E94060782E129
:1042A00091E00E94510623E040E26FEF8091B4015B
:1042B0009091B5010E94E7070E94AB0625C00E94BD
:1042C000AB06AFCF809152010E940F028091150181
:1042D0008E3F4CF681E391E00E94510660919D0172
:1042E00070919E0180919F019091A00103E028E4CC
:1042F000409115010E940607B6CF80E00E94B106EA
:10430000809134018823C1F2DF91CF910F91FF900A
:10431000EF90DF90CF900895CF92DF92EF92FF92CF
:104320000F93CF93C82F0E94300680917F010E9487
:1043300013068DE491E00E94510697D360917F01AE
:10434000809180010E942B047C0190937C018093DA
:104350007B01C0907D01D0907E018AEFE8168FEF3F
:10436000F80678F4C114D10441F081E090E0C11165
:1043700002C090E080E0892B21F089E091E00E946A
:104380005106809180010E941306CC2309F44BC092
:10439000909131018DE0891B0E94CF0589E690E064
:1043A0000E9451060E943D06609173017091740154
:1043B000809175019091760104E026E4409182019C
:1043C0000E9406078AEFE8168FEFF80668F48CE380
:1043D00091E00E94510622E044EF6EEF80917B0154
:1043E00090917C010E94E7070E94AB06CC2391F0DC
:1043F000CD2881F080E00E94CA0685E391E00E940A
:10440000510622E045E26FEF80917D0190917E019F
:104410000E94E7070E94AB06CF910F91FF90EF90AB
:10442000DF90CF90089580917D0190917E01892B3E
:1044300069F084E391E00E94510622E045E26FEFCB
:1044400080917D0190917E010E94E7070E94AB065A
:10445000A9CF8F7051F488EC0E94CC020E943D06D7
:104460000E945E1288EC0C94CC0208958F3021F4E7
:1044700090912B01913011F08F5F089580E00895A5
:10448000CF9384E790E0FFD66AE080E00E941B06AD
:1044900081E393E00E945106C0E00E94860860E03C
:1044A00082E00E94001A62E080E00E94001A0E94EE
:1044B000300680916B018823A9F041E062E080E042
:1044C0006ADE8C2FC6DF88EE93E00E940608811119
:1044D00005C08C2FCBDFC82F8A3FF8F20E94380628
:1044E000CF91089584E790E00E94510681E393E024
:1044F0000E9451060E943D068FE30E94E1050E9442
:10450000AB06DFCF0F931F93CF93DF93C0E0D8E0CC
:1045100012EF0DE00E94860860E082E05ADAD09344
:104520000F0180918101843FE1F480916F019091AE
:104530007001A0917101B091720184369105A105BD
:10454000B10578F440E060E082E00E94072E6093BD
:104550006F017093700180937101909372011093B9
:10456000810180918101823F4CF180938201809191
:104570006F0190917001A0917101B09172018093CF
:10458000730190937401A0937501B093760181E05B
:10459000C3DE8C2F5EDF80ED97E00E94060881115C
:1045A00006C08C2F63DFC82F8A3F08F4B3CF0E9468
:1045B0003806DF91CF911F910F9108950E94300628
:1045C0008DE690E00E94510680913101902F981B5A
:1045D000892F0E94CF0589E690E00E9451060E9433
:1045E0003D068FE30E94E1050E94AB06D2CFA6E113
:1045F000B0E0EDEFF2E20C94693382E080931501B4
:1046000080910F01813009F0F0C180916B01813000
:1046100009F0EBC14090520124E0429EF0011124C8
:10462000EE55FE4F80819181A281B381893032E5C0
:104630009307A105B10508F0D8C11C01712C81E0D8
:10464000871508F4D6C1842D0E940502982E892E64
:10465000E82DF0E0ED56FE4F5490892D90E0FC01DE
:10466000E057FE4FE49115B828E028B9372D317096
:10467000632E20EF2216310408F0C0C13111BEC1F3
:104680000091090110910A0100591A4121E030E01E
:10469000092C02C0220F331F0A94E2F7C901886077
:1046A000852987B934E1398B892D0E94FC025C0190
:1046B000882D0E94030324E0A216B10410F404978D
:1046C00028F039893150398B3111EECF80E4809355
:1046D0007B0094E590BF892D806480937C0026E167
:1046E00020937A00F12CE12C10928000109285002A
:1046F0001092840087E286BB0E94BE02872D90E064
:104700009A8B898B611083C181E88093810058B8AE
:1047100086B385FD0CC080FFFBCF21E026BBA895AA
:1047200097012F5F3F4F79012035310589F738E038
:1047300038B91092810090E296BB209186003091AA
:104740008700690140918400509185002417350746
:1047500038F480FF05C021E026BB3FEFE31AF30ADF
:1047600086E980937A00B4E15B2E892D0E94FC02D9
:104770005C01882D0E94030324E0A216B10410F40A
:10478000049718F05A945110F0CF80902E01909019
:104790002F01820C931C800E911E20910B013091F1
:1047A0000C0100398AE1180708F03AC169E191EE7D
:1047B000C916D104E104F10430F4C60165E070E0EB
:1047C0000E945A32645128523109261B310967FD73
:1047D000339566E0862F90E0B0E0A0E08C159D0553
:1047E000AE05BF0508F025C1C81AD90AEA0AFB0AB6
:1047F000662029F082E2C80ED11CE11CF11C90E574
:10480000E916F10418F0C12CD12C76018BE0C81602
:10481000D104E104F10428F091E0C91AD108E108BB
:10482000F108B12CA12CA8EEB3E00E94BF326B8B33
:104830007C8B8D8B9E8BA0912501B09126019801D8
:104840000E94BF32A50194010E948132442755275E
:104850006B897C898D899E890E948132C9010E9461
:104860000704FC01A5019401C701B6010E943F3273
:104870004B015C01BF0190E080E0E3E0660F771F31
:10488000881F991FEA95D1F76B5F7F4F8F4F9F4F1E
:104890002AE030E040E050E00E948132C501B401DE
:1048A0000E948132E989FA89EE0FFF1FEE0FFF1F88
:1048B00081E090E08C0F9D1FE80FF91F208331836A
:1048C00042835383611018C09CE0C916D104E104EF
:1048D000F10490F07394E989FA893196EE0FFF1F85
:1048E000EE0FFF1F81E090E08C0F9D1FE80FF91F76
:1048F0002083318342835383A895739493E0971563
:1049000008F09DCE88E088B984E00E94CC0291E056
:104910000D811E812F81388549815A816B817C816F
:10492000401751076207730708F090E00D851E8558
:104930002F85388949855A856B857C8582E04017AB
:1049400051076207730708F483E024E0829FD001D7
:10495000112421E030E02C0F3D1FA20FB31FE92FDF
:10496000F0E0EE0FFF1FEE0FFF1FE20FF31F0D91A0
:104970001D912D913C914081518162817381041779
:1049800015072607370708F0892F34E0839FF001C9
:10499000112421E030E02C0F3D1FE20FF31F408176
:1049A00051816281738140939D0150939E01609378
:1049B0009F017093A00180FD40C030EF23163104A9
:1049C000E0F58BEF8093150180919D0190919E0100
:1049D000A0919F01B091A001892B8A2B8B2B11F400
:1049E0001092150188E087B914B86696E2E10C943C
:1049F0008533842D0E9405024C012ACEE4B9852D11
:104A0000886087B90091090110910A014BCE58B80E
:104A10000E94C70290E296BB81E88093810078CE25
:104A2000C40160EB76E30E945A32695F285D3F4F14
:104A3000D1CEC12CD12C7601DBCE8CEF8093150129
:104A4000CB01BA016B5F7F4F8F4F9F4F2AE030E061
:104A500040E050E00E94813220939D0130939E01FE
:104A600040939F015093A001AFCFB0E0A0E0EBE3F3
:104A7000F5E20C946B3300917D0110917E010115DC
:104A8000110509F091C0E0917F01F0E0ED56FE4F75
:104A9000D491D860E0918001F0E0E057FE4FC491DE
:104AA0000E941A1C88E088B915B8D7B9C4B980919A
:104AB00080010E9403037C01D09182018CE08D0F64
:104AC000843008F071C08091730190917401A091BD
:104AD0007501B0917601D15F2AE0422E512C612CF4
:104AE000712CBC01CD016B5F7F4F8F4F9F4FA30196
:104AF00092010E94813249015A01DA01C901DF5F46
:104B0000D73079F7893823E19207A105B10508F07C
:104B10004BC0059708F448C0C5B9C4B9D0E0C0E09F
:104B2000C815D90508F445C014B815B8A89585E08E
:104B300080932101809180010E940303EC01CE1932
:104B4000DF09E816F90610F0D0E0C0E0D12CC12C46
:104B5000C814D90490F1809180010E94030329E1D7
:104B600020932101A895E816F90618F48C010E1976
:104B70001F090C171D0788F49E01201B310B69F0DB
:104B8000A4EFB1E00E94BF329E0150E040E00E94DD
:104B9000813230937E0120937D010E941A1C88E0AF
:104BA00087B988B914B815B8CDB7DEB7E0E10C9471
:104BB00087330E94C5022296B3CF0E94C5028FEFB1
:104BC000C81AD80AC5CF8B3008F08B50811109C0A4
:104BD0008BE092E00E9451060E94AB060C942B06DB
:104BE0000895813019F480EA91E0F4CF823019F40D
:104BF00082EE91E0EFCF833019F487ED91E0EACFB8
:104C0000843019F48FE790E0E5CF853019F484E71C
:104C100090E0E0CF863019F48DE690E0DBCF87306E
:104C200019F487EC91E0D6CF883019F488EB91E045
:104C3000D1CF893019F489EF91E0CCCF8A3061F679
:104C40008EEE91E0C7CF0F93CF938FE790E01BD309
:104C5000C0E010920F0160E082E03AD580910F0130
:104C6000883009F04BC00E94300683E40E94E105C1
:104C70000E94DC0160917301709174018091750153
:104C80009091760103E026E4409182010E9406079C
:104C90000E94AB0660917F01809180010E942B04ED
:104CA00090937C0180937B010E943D068DE391E00F
:104CB0000E94510680917B0190917C018A3F2FEFE9
:104CC0009207C0F422E044EF6EEF0E94E7070E94D3
:104CD000AB068C2FBEDB88EE93E00E9406088111A4
:104CE00006C08C2FC3DBC82F8A3F08F4B2CFCF9108
:104CF0000F9108958FE30E94E105E9CF0E943006ED
:104D00008FE790E00E9451060E94AB060E94D606F3
:104D1000E0CFA5E0B0E0EFE8F6E20C94693382EE74
:104D200091E0B1D280E18093800010926F0081E029
:104D300090E0909389008093880010928B001092ED
:104D40008A0083E086BB1092820088E08093810015
:104D500015B891E194B988B989E087B9229A80930E
:104D60008100312C20E03AE0398341E04C83812CF2
:104D7000912C5401839451E15D83832D90E00A9638
:104D80006EE170E00E946E326B83F62E621761F066
:104D90000E94300682EE91E00E94510610E01F153D
:104DA00008F4D1C00E94AB068C8169810E944E320A
:104DB000A92FB0E0A50194010E94D4326B017C01BF
:104DC0008D81823150F0652D762D872D902F0E9498
:104DD0008132C60ED71EE81EF91E0E943D069C8138
:104DE0002981212C921306C081E03D81323108F4E3
:104DF00080E0282E2A828CE3211005C04D818EE3AD
:104E0000463108F082E50E94E1054D81C701B601F7
:104E10000E94FC07C701B6017E5E85489F4FA7012F
:104E20009601220F331F441F551F0E948132CA0171
:104E30004F3F510509F008F48BC08DE0809381004D
:104E400080E094E02C01712C612CCA01B901A3010E
:104E500092010E94813221503109309389002093C0
:104E600088008091880090918900892B31F481E03D
:104E700090E09093890080938800009188001091C1
:104E8000890060E079E08DE390E0A30192010E9447
:104E90008132A4E6B0E00E94D4320F5F1F4F980128
:104EA00050E040E00E94813229013A01A4E6B0E0DE
:104EB000A70196010E94D432A3019201261B370B51
:104EC000480B590BCA01B90102E228E44EEF0E94D7
:104ED00006078AE70E94E1050E94AB0680ED97E095
:104EE0000E940608882309F46BC0883C08F07AC049
:104EF000813508F45FC0222009F44AC03D81315059
:104F00003D83C501B4012AE030E040E050E00E945A
:104F1000813249015A01C701B6010E948132CA019A
:104F2000B9012AE030E040E050E00E9481326A831B
:104F30004AE049832A812C83312C2B815C2C6D2CF7
:104F40007E2C0F2D1ACF8EE20E94E1051F5F27CF26
:104F50004034510530F08CE08093810080E091E096
:104F600071CF4830510530F08BE08093810080E4B0
:104F700090E068CF892B31F08AE08093810088E04F
:104F800090E060CF89E08093810081E090E05ACF8B
:104F90005D81563198F55F5F5D83563111F485E18F
:104FA0008983AAE0B0E0A50194010E94D4324B01AC
:104FB0005C01C0CF8B3018F09C819F5F9C83312CAB
:104FC0002C81822F90E03981632F70E06F5F7F4FDB
:104FD0000E946E328C83832D49DA382E4FEE4817AB
:104FE00008F0ABCF109281001092800088E087B962
:104FF00014B822982596E2E10C9485335AE059833F
:1050000081E08A83812C912C5401839491E19D83CA
:1050100091CFB0E0A0E0EFE0F8E20C946B3387EDC5
:1050200091E031D183E28093800010926F008FEF86
:1050300090E090938B0080938A0083E086BB10926F
:10504000820015B881E184B988E088B989E087B920
:10505000229A21E030E030938900209388008093E9
:105060008100D0E080E0C2E310E094E6C92ED12CAC
:10507000E12CF12C88248A9423E0922EA12CB12CCF
:10508000C817A1F1C43608F0C4562C2F30E0AFEF9A
:10509000B3E00E94BF326E5C7F4F8F4F9F4FA701DE
:1050A00096010E94813229013A0130938B002093AE
:1050B0008A000E943D06A8EEB3E0A30192010E947F
:1050C000D43261507E4F8F4F9F4FA50194010E94B3
:1050D0008132C90125E045E26FEF0E94E7070E9497
:1050E000AB06193218F08CE30E94CC0280E496E003
:1050F0000E940608182F833878F40AE0833320F4DE
:105100000C2F882319F001E00C0FD0E08D2FAED9C1
:10511000D82F8C2FD03F68F088E087B9109281009B
:105120001092800014B82298CDB7DEB7E0E10C945D
:105130008733C02FA5CF0F931F93CF93DF9387ECB7
:1051400091E0A1D086E093E00E94FC33C82FD0E02C
:105150000E943D060C2F0C2E000C110BC7FF25C022
:105160000E94DA0123E045E26FEF88279927801B30
:10517000910B0E94E7070E94AB0680E496E00E9434
:10518000060881111DC0C135BCF0C5568D2F6ED9E2
:10519000D82F803FE8F26C2F86E093E00E9409341C
:1051A000DF91CF911F910F91089523E045E26FEFBA
:1051B000C801DFCFC15009C0CC3E44F7CB59E6CF80
:1051C000823848F78932B0F3CF5FD0E0DCCF81304E
:1051D00019F480E06CC00895823011F49ACD0895DE
:1051E000833011F416CF0895843011F42CCD089536
:1051F000853011F445C90895863021F40E9438069F
:1052000081C90895873011F496CF0895883021F42C
:1052100081E10C9403090895893011F490C3089535
:105220008A3011F40C94A9080895CF93DF9386E196
:1052300092E029D0D0E0C0E00E943D068C2FC3DC74
:1052400080E49FE10E9406088111D0E090912B013B
:10525000913009F4D0E0823390F0CC2341F08C2FD0
:10526000B6DF86E192E00FD0DF5FDE3621F480E02A
:10527000DF91CF910895CB30F8F2CB50DDCF88236A
:1052800099F3CF5FF1CFCF93DF93EC010E94380603
:10529000CE010E945106C4E60E94CB024F9902C083
:1052A000C150D1F70E943D06DF91CF910895A7E04C
:1052B000B0E0EDE5F9E20C94693380EA91E0E3DFD8
:1052C00060EF6B8354980E94BA0214BC16BC109213
:1052D000030110920401109205011092060181E071
:1052E00085BB80936E0010928000E3E1FAE7F093B3
:1052F0008B00E0938A0081E090E090938900809396
:105300008800109285001092840083B5816083BD6F
:1053100096E096BB90936F007894E4E0E093810070
:10532000F2E3F9831A820E94B302A8954F9902C052
:1053300061E06A8385B5882329F08981815089835A
:105340008111F1CF15BC86B5809303010E94380608
:1053500086E60E94E1050E94DC01609103017091E4
:105360000401809105019091060147E00E94FC072D
:10537000549880918100882319F08FE30E94E10501
:105380001092810010926F0020910301309104016E
:105390004091050150910601DA01C9010197A10967
:1053A000B109813F9048A105B10508F096C0AAE077
:1053B000B0E00E94D432685F7F4F8F4F9F4F23E051
:1053C00096958795779567952A95D1F7660F771FFC
:1053D000709366016093650154980E94BA0216BCEE
:1053E000109203011092040110920501109206011F
:1053F000F1E0F5BBF0936E00109268011092670126
:1054000064E06BBB8091680084608093680078944E
:1054100080916D00806180936D0019820E94B302BB
:10542000A8954F9902C081E08A8380916D0084FF26
:1054300005C099819F5F99839A3F81F715BC809140
:105440006D008F7E80936D00809168008B7F8093CC
:10545000680086B5809303010E943D0684E50E94A2
:10546000E1050E94DC01E0916501F0916601FD8398
:10547000EC8360910301709104018091050190918A
:10548000060128EA31E640E050E00E94E432EC8177
:10549000FD81612C712C43015F01C12CD12CE12CC9
:1054A000F12C00E010E00E940D3349014F835E8330
:1054B0001B012C018C819D818038910500F107E052
:1054C00023E745EFB4018F81952F0E94060799814C
:1054D0009A3F71F58FE30E94E10510926E0080ED16
:1054E00097E00E9406086A81860F29F48B8181501B
:1054F0008B838111E7CE2796E2E10C94853384E615
:10550000A82EB12CC12CD12CE12CF12C00E010E004
:1055100094014F815E81B101C2010E940D33F22FCF
:10552000E42F07E023E747EF6F2F732F8E2FCCCFA9
:1055300094014F815E81B101C201263E354B410588
:105540005105610571058105910539F230F20E941E
:10555000300686E60E94E1050E94DC0194014F813D
:105560005E81B101C20154012115FAEC3F07FAE94D
:105570004F07FBE35F076105710581059105F1F0B8
:10558000E8F06A017101820120E030E04AE85DE55F
:1055900068E775E483E691E00E940D33F22FE42F73
:1055A00007E028E44AEF6F2F732F8E2F952F0E946C
:1055B00006078AE70E94E10554988FCFCF80DE80EE
:1055C0007101820120E030E44AE750E163EF7AE5BF
:1055D00080E090E00E940D33F22FE42F07E028E4F2
:1055E0004DEFE1CF1F920F920FB60F9211248F93C0
:1055F0009F93AF93BF93789480910301909104019E
:10560000A0910501B09106019F5FAF4FBF4F8093FE
:10561000030190930401A0930501B0930601BF918B
:10562000AF919F918F910F900FBE0F901F90189583
:105630001F920F920FB60F9211248F9386E085BDB3
:105640008F910F900FBE0F901F9018951F920F9281
:105650000FB60F921124A8951092810015BC0F90DF
:105660000FBE0F901F9018951F920F920FB60F92BA
:1056700011242F933F938F939F9380916701909173
:105680006801892B11F481E085BD2091670130917B
:10569000680180916501909166012817390730F003
:1056A00015BC80916D008F7E80936D0080916701A5
:1056B00090916801019690936801809367019F9192
:1056C0008F913F912F910F900FBE0F901F901895C3
:1056D000B0E0A0E0EEE6FBE20C947233182F062F48
:1056E000862F90E0FC01ED56FE4FE491FE2E68946B
:1056F000F3F8E12FF0E0E057FE4FC491FC01E057D2
:10570000FE4FD49110927C0110927B0110926F0198
:1057100010927001109271011092720187EF8093C4
:1057200081010E941A1C88E088B9F7B8D4B9D5B9AC
:10573000812F0E9403037C01802F0E940303E81A3B
:10574000F90A14B8109248011092470130E020E0A5
:105750005CE2C52EDD24D394DAE064E6B62E8091B7
:10576000470190914801843D904348F088E087B913
:1057700088B914B815B8CDB7DEB7E9E0CFC7C5B959
:105780008091470190914801892B89F0F601E21B35
:10579000F30B6091470170914801D29FC001D39FE4
:1057A000900D112487D6E617F70708F0A0C0C4B9FA
:1057B0000E94BE0214B88091470190914801019661
:1057C000909348018093470115B80E94C002A895A4
:1057D000812F0E9403039C012E193F0980914701EC
:1057E000909148018B31964020F0253231050CF420
:1057F000BDCF2D3281E038070CF4B1CF8091470145
:1058000090914801019729F4253185E038070CF083
:10581000ADCF8091470190914801880F991FB0E06A
:10582000A0E08093770190937801A0937901B093E1
:105830007A01C90168E270E051D6CB01820F931F53
:105840000E94C8032091770130917801409179013D
:1058500050917A01DC01A8D66093770170937801AA
:105860008093790190937A0160936F017093700136
:1058700080937101909372010E94A91CC0906F01E6
:10588000D0907001E0907101F090720186E093E099
:10589000B3D7A8EEB3E0A81BB10987FDB395A70164
:1058A00096018CD620E137E240E050E02AD62093E2
:1058B0006F0130937001409371015093720188E041
:1058C00080930F012093730130937401409375010D
:1058D00050937601809181018093820110927E0124
:1058E00010927D0100937F01109380013FCF809142
:1058F0004701909148010B97C0F06091470170916A
:105900004801B29EC001B39E900D1124D3D56E17ED
:105910007F0758F4C4B90E94B30214B880914701BC
:10592000909148018C599F4F4BCFC4B90E94B90246
:1059300014B880914701909148010A9641CFCF92C7
:10594000DF92FF920F931F93CF93DF930E9438064D
:1059500085EF90E00E9451060E943D0681EB90E0A9
:105960000E94510684E093E047D723E040E26EEFC7
:1059700090E00E94E70785E093E03ED723E040E215
:105980006EEF90E00E94E70783E093E035D723E0D5
:1059900044EF6EEF90E00E94E70788E99AE30E94E7
:1059A00006080E9438068AEA90E00E94510623E029
:1059B00044EF6FEF80912701909128010E94E70743
:1059C0000E943D0683EA90E00E94510623E044EFE6
:1059D0006FEF80912E0190912F010E94E70788E9D7
:1059E0009AE30E9406080E9438068FE990E00E9420
:1059F000510688E293E000D78251990B0E94D701AB
:105A000089E293E0F9D68251990B0E94D70185E291
:105A100093E0F2D623E046E464EF8251990B0E94B2
:105A2000E7070E943D0683E00E94CF0584E293E0F1
:105A3000E3D68251990B0E94D70187E293E0DCD62E
:105A40008251990B0E94D70183E293E0D5D623E0DF
:105A500046E464EF8251990B0E94E70788E99AE3D4
:105A60000E9406080E9438068DE190E00E945106CF
:105A70008AE293E0C9D60E94C3010E943D0686E1F6
:105A800090E00E9451068CE293E0B6D6082E000CFE
:105A9000990B0E94C30160E081E00E941B06C0E0F8
:105AA000FC2EFF0CFC0ED0E0FA94CD17A9F10F2DBF
:105AB0000D0F10E0000F111FC8018B5E9C4FA4D684
:105AC0006C01C801895F9C4F9FD68C018091A10118
:105AD0008823A9F188E99AE30E9406080E94380603
