:100000002DC600003DC600003BC6000039C60000FA
:1000100037C600000C944F3433C600000C94AF0F69
:100020002FC600002DC600000C949A270C943E3475
:100030000C9443340C94762723C6000021C600009C
:100040000C941D341DC600001BC6000019C600001C
:1000500017C600000C94B00F13C6000011C60000B4
:100060000FC600000DC60000E62FF72F903009F4F0
:100070009395E5B8C4B8B7EFB0937A00A5E0A09324
:100080007B00A8E0A093810010928000AFEFA093C6
:100090008500A0938400A6E0A093360010928B0008
:1000A00010928A00B6E0AFE7A91B51E0392F363035
:1000B0002AF0A058B94F53953650F9CFB093890024
:1000C000A0938800A0917A00A4FFFCCFB7EBB09377
:1000D0007A00A2E0A0936F00A9E0A093810062E003
:1000E000A0E0A0937B00A1E0A09353008895E5B821
:1000F000C4B884FF19C0A3E4AA95F1F7EF93FF9366
:10010000E7B1F8B1A4E0C2FCA2E0C0FCA1E0BF2FBF
:10011000BA2BAE2BB8B904B9A7B9E7B9F8B9FF91B2
:10012000EF910AC00C947300A7E40000AA95F1F7C0
:1001300025B9E5B8000004B9A0918400A09185001C
:10014000B0918900A395AB1768F7A0917A00A4FF3E
:10015000F3CFB7EBB0937A006A9571F760917800AE
:1001600070917900308186FD630F6193308186FD47
:10017000731F80FF7193652F4A9579F710926F0076
:1001800010928100B7E0B0937A000895C001B901E0
:10019000B20118000720080808F80000002060A03D
:1001A0003FA06020020202FF0202021010101F0096
:1001B0000000050842818989760508C2A1918986D7
:1001C0000508000402FF0010100508F87838588868
:1001D000091003081C3E7F0D080710FF818181F183
:1001E000E1C1FF4040404743410D080110FFFF11AE
:1001F000080310F1E1C14743410E000820212112FC
:100200002060E0E0E0FEFE0402010001037F7F21A8
:10021000C2C4C4C04094840007030102040E080253
:1002200010FEFE7F7F00000000110005202060E02E
:10023000E0E00201000103C2C4C4C04007030102A0
:1002400004010410090A0C4E6F742063616C69622A
:1002500072617465642120466F72FF63616C69622C
:10026000726174696F6E20636C616D702074686573
:100270002033FF70696E7320746F676574686572F0
:1002800020616E64207374617274207769746820D1
:10029000746865FF6B65792E2041636B6E6F776CB8
:1002A00065646765207468652073656C662D746588
:1002B0007374207769746820746865206B65792091
:1002C00077697468696EFF32732E20446973636FB7
:1002D0006E6E6563742070696E73206166746572FA
:1002E00020746865FF6D65737361676520226973AB
:1002F0006F6C617465FF50726F62652122206973B3
:100300002073686F776E2E20536F66747761726505
:1003100020616E6420646F63756D656E74617469CD
:100320006F6E206973206174206769746875622E2E
:10033000636F6D2FFE6B756269343800B9038703F4
:1003400058032E030703E402C302A402880200003C
:10035000140029003E005300690080009700AE00A1
:10036000C600DF00F80012012D014901650182017C
:10037000A001BE01DE01FF012102440268028E02DB
:10038000B502DE020903350364039403C803FE03C8
:1003900037047304B404F90443059305EA054906D8
:1003A000B3062907AE074808FF08DE09FD0A930CCB
:1003B000480F991B00000000000000000000000032
:1003C000000000001E2121211200807F0000007E1D
:1003D0004A4A4A34000000000000FC402010080493
:1003E00002010000000101010101010101010101FF
:1003F00001017F0488D0E0F0F80000000000000058
:100400000000000000000000000000FC9494840044
:10041000000102FC000000000000000000000000DD
:100420001E21212112E0C0804020100F000000C0DA
:1004300020202040000000FC00009E9E04030303D7
:100440000302000000202023242525232020203F14
:1004500000007B7B2142840480C00000000000007B
:100460000000000000000000FC94948400040607D3
:10047000070708F000000000000000000000000076
:1004800000803F2121120C00000000FF000000F05E
:10049000084848C80000FE0000E7818181C1E1F101
:1004A00081818101002020202121212020203F0066
:1004B00000F340404041434740407FC000000000FF
:1004C00000000000000000000000489494946400C4
:1004D000000000FF0000000000000000000000001D
:1004E000000000003F2121120C0000FF000000F07E
:1004F000084848D0000000000000FEFE0404040488
:10050000040404070008080809090908087F3E1CBC
:1005100008087F7F20202020202020E0000000000D
:1005200000000000000000000000000048949494C7
:10053000640000FF0000000000000000000000FF59
:10054000003C0A090A3C0022312929260000828643
:100550008E9EBEFEFEBEDEEFF6FAFEFEFAF2E2C2AE
:100560008200000008080804027984A4A46800FF3F
:10057000000000000000000000000000000000007B
:1005800000000000000000FF0000F0282428F00018
:100590001008FC0000000000000000000000003C0B
:1005A0000A090A3C00FF00000000000000000000F3
:1005B0000000000000000000040C1C3C7CFF7C3CA0
:1005C0001C0C040000000000009EA1A9A99A804311
:1005D00023130B0703FF03030303030300000000BF
:1005E00000000000000000788484844800FF0000C0
:1005F00000000000000000F00804E21109090909E8
:1006000009090909091121C2040810E000000001CC
:1006100002040407000000000080402010884423EA
:10062000100804030000000000000000000000FEAD
:100630000100FC02010000000000000000000000BA
:100640000000000000000079494979000000000026
:100650000000000000F80402225488040300020293
:100660000100788402020284780604070007040669
:1006700000FC00000080FC000701010100010000F7
:100680000C12120C0000000000000000000000002E
:1006900000000000000000000000003CFE3C0000E4
:1006A000000000060000000000160E00160E0000FC
:1006B0000000000000000010FC1010FC10000107FA
:1006C00001010701001824FE4488000003040F0400
:1006D00003000C12924C20100802010006090906C2
:1006E000885422548800800102040402010200168A
:1006F0000E00000000000000000000000000F008F4
:10070000040200000001020408000000020408F0D6
:1007100000000008040201004850E0FCE0504802DC
:10072000010007000102404040F840400000000086
:100730000300000000000000000000000B050000A6
:1007400000004040404040404000000000000000E9
:10075000000000000000000006060000000000008D
:1007600000C0300C03000C0300000000F88442229B
:10077000120CF80102040404020100080402FE0045
:1007800000000000000700001884424242241807BD
:100790000404040404040C02022222548803040406
:1007A000040402016050484442FE40000000000082
:1007B00007003E2212121222C201020404040201A6
:1007C000F82412121222C4010204040402010202DB
:1007D000824222120E0007000000000088542222EC
:1007E00022548801020404040201384482828244B3
:1007F000F8020404040402010018180000000000BC
:1008000006060000000000181800000000000B079A
:10081000000000000040A0100804020000000102D7
:1008200004080020202020202000010101010101F6
:100830000002040810A0400008040201000018048F
:1008400002824224180000000D000000FC026292A7
:100850009292FC03040404040400F08884828488D7
:10086000F007000000000007FE2222222222DC07FF
:10087000040404040403FC02020202020C03040444
:1008800004040403FE0202020202FC07040404043E
:100890000403FE2222222222020704040404040488
:1008A000FE22222222020207000000000000FC02B9
:1008B00002024242CC03040404040207FE2020206A
:1008C0002020FE07000000000007000002FE0200DA
:1008D00000000004070400000000000000FE00000B
:1008E000020404040300FE205088040200070000F4
:1008F00000010204FE0000000000000704040404DC
:100900000404FE0408100804FE07000000000007AD
:10091000FE0618608000FE07000000010607FC02CA
:1009200002020202FC03040404040403FE424242E5
:1009300042423C07000000000000FC0202020202EA
:10094000FC03040404050205FE4242C242423C0785
:100950000000000102040C12222222428C03040433
:1009600004040403020202FE020202000000070067
:100970000000FE0000000000FE0304040404040361
:100980000E70800080700E000003040300007E8063
:1009900000E000807E00000700070000020C90606D
:1009A000900C02040300000003041E20408040203D
:1009B0001E0000000700000002824222120A060701
:1009C00004040404040400FE020200000000070402
:1009D000040000000810204080000000000000001B
:1009E00001020000000202FE0000000004040700F3
:1009F00010080402040810000000000000000000BD
:100A00000000000000040404040404040000000EBC
:100A100016000000000000000000804848484848D8
:100A2000F003040404040207FE2010101010E00775
:100A3000040404040403F00808080808100304046C
:100A400004040402E01010101020FE030404040447
:100A50000407F08888888888700304040404040468
:100A60000020FC2222020400000700000000708821
:100A700088888888F000040404040403FE402010E1
:100A80001010E007000000000007000008FA000056
:100A9000000000000700000000000000FA00000253
:100AA000040404030000FE4040A0100800070000FA
:100AB00000010204000002FE000000000000030428
:100AC0000000F81008F00808F00700000700000711
:100AD000F82010080808F007000000000007F008E0
:100AE00008080808F003040404040403F890080844
:100AF0000808F007000101010100F008080808904B
:100B0000F800010101010007F8201008080830076B
:100B10000000000000003048488888881002040463
:100B2000040404030010FE1010000000000304047D
:100B30000402F80000000000F803040404040207A3
:100B40001860800080601800000106010000F800B5
:100B500000C00000F801020403040201081020C0D4
:100B60002010080402010001020478808080804087
:100B7000F80204040404040308088848281808023A
:100B800005040404040440A01C0202000000000745
:100B900008080000000000FF0000000000000F0037
:100BA0000000000002021CA040000008080700002E
:100BB0000402010204080400000000000000E0102C
:100BC00008040408100101010101010140F01010A6
:100BD0001010F040000101010101010040FCF8F09B
:100BE000E040FC40000703010000070040FC40E03B
:100BF000F0F8FC40000700000103070040FCFC0087
:100C000000FCFC400007070000070700F808080880
:100C10000808080803020202020202020808080883
:100C2000080808F8020202020202020340404040A3
:100C300040404040000000000000000040C000C0F4
:100C400020C000C0000102020102020220C000C058
:100C500020C000C0010202020102020111241FBED5
:100C6000CFEFD8E0DEBFCDBF21E0A0E0B1E001C012
:100C70001D92AA3CB207E1F70E9434140C94313D56
:100C8000BFC95D98559A80FD599A80FF5998519A2D
:100C9000539A5A9867FD5B9A67FF5B985A9A5A98DD
:100CA00066FD5B9A66FF5B985A9A5A9865FD5B9A57
:100CB00065FF5B985A9A5A9864FD5B9A64FF5B984B
:100CC0005A9A5A9863FD5B9A63FF5B985A9A5A98AE
:100CD00062FD5B9A62FF5B985A9A5A9861FD5B9A33
:100CE00061FF5B985A9A5A9860FD5B9A60FF5B9827
:100CF0005A9A5D9A5A985B98089597FF09C08F9306
:100D00009F938DE23AD69F918F91909581959F4FB9
:100D100064E271E04AE050E00E94D03CA1C6EDDF01
:100D200001C0EBDF80E229C68DE227C68DE325C630
:100D3000EF92FF920F931F93182F062FF42E87E741
:100D400091E099D6EE24E0913F01F0914001868533
:100D5000E81611F4812F09C08485E81611F4802F5C
:100D600004C08585E81611F48F2D07D6E3948E2DE7
:100D7000833049F71F910F91FF90EF900895EF9204
:100D8000FF920F931F93182F062FF42E80E0F2D4BA
:100D90008DE791E070D6EE248E2D5FD6C7DFE0910F
:100DA0003F01F09140018685E81611F4812F09C0BA
:100DB0008485E81611F4802F04C08585E81611F4A7
:100DC0008F2DDBD5AFDFE3948E2D833029F71F9174
:100DD0000F91FF90EF900895682F80E092E06623D6
:100DE00009F491E0623009F481E008950F93082F2F
:100DF000E2EBF1E0880F880FE80FF11D608171814F
:100E000082819381643671058105910568F4209192
:100E1000220127FD09C0802FDFDF692F04D26EEF8A
:100E200023E04DE14DD704C04FEF04E02DE168D63B
:100E300079DF0F910895863058F4E1EAF1E0E80F88
:100E4000F11DE80FF11D8081918163E044D76ACFE5
:100E500008951F93182F80917A01882319F062DF7B
:100E600080E08BD54ED48EE691E005D6812F829519
:100E70008F70E1DF812F8F70DEDF1F9108958091E9
:100E8000060182958F7018D08091060183701AD068
:100E900080910601DECFE5E9F1E0E80FF11D08954C
:100EA000CF93F9DF9081C681C91710F405D001C036
:100EB00012D038DFCF910895EEDF8F938081CDD5AA
:100EC0008F9100C08F938CE391E0D5D58F91E3DFB4
:100ED0008681C3C50895DFDF8F938681BED58F914C
:100EE00000C08F9388E391E0C6D58F91D4DF8081D5
:100EF000B4C508958F932F932AE080953B9A089468
:100F000010F4439802C0439A000020D027D0869561
:100F10002A95B1F72F918F91089503D002D001D077
:100F200000D000D003D002D001D000D000D003D038
:100F300002D001D000D000D0A89503D002D001D0BB
:100F400000D000D003D002D001D000D000D003D018
:100F500002D001D000D000D003D002D001D000D008
:100F600000D00000089582E090E0893C28F0885C81
:100F700048EC849FC0011124009709F40895409122
:100F80008100477019F0D8DF0197F6CF81309105C5
:100F900019F002975CE803C05EE380E090E04091C6
:100FA000B200450F4093B30042E04093700047E029
:100FB00043BF889546E043BF10927000A895DCCFF0
:100FC0008F9384E0D1DF06C08F93CDDF03C08F9372
:100FD00081E0CADF8F911F93182F106410937C005B
:100FE000E12FE07880912F01E81759F0E0932F016D
:100FF000ADDF8FE980937A0083E083BF889582E03C
:1010000083BF20E030E0A901E0E01FC08FE98093BA
:101010007A0083E083BF889582E083BF6091780087
:1010200070917900260F371F411D511DE43061F486
:1010300080913101803041F084E02030380720F485
:1010400017FD02C01068CACFEF5F80912E01E8172C
:10105000E8F2609132017091330117FF04C0609192
:1010600030017091310180E090E00E94403B2FEF11
:1010700033E040E050E00E94823BB901CA01209178
:101080002E0130E040E050E00E94823BC9011F91F8
:1010900008959B01281B390B50F0C9010895BC012C
:1010A00080913201909133016817790718F4861BFB
:1010B000970B089580E090E0089581E593E00E9409
:1010C0000B3D2091360130913701280F391F2093B5
:1010D00016013093170183E0283E380720F0C9013C
:1010E000885E934002C080E090E062E370E00E947E
:1010F0005B3B683008F067E0ECE3F3E0E60FF11DDE
:10110000E60FF11D459155912591359162E3681BDC
:10111000421B530B649FC001659F900D112449969B
:1011200062E370E00E945B3B620F731F70937E016D
:1011300060937D0183E593E00E94033D992787FD3D
:1011400090956091360170913701860F971F9093AB
:101150003101809330019093790180937801089553
:101160000F9221E08C32920710F48CE291E08C52C5
:10117000914069E170E00E945B3B99E16B3210F0B5
:10118000982F6BE2981BEBECF2E0E60FF11DE60FF7
:10119000F11D9F93CF010E94033D482F3196CF014F
:1011A0000E94033D582F3196CF010E94033D282F06
:1011B0003196CF010E94033D382F6F91421B530B94
:1011C000649FC001659F900D11240C9669E170E049
:1011D0000E945B3B620F731FCB010F900895CF936A
:1011E000DF9324E130E0B9010E945B3BDC01EEE4D7
:1011F000F3E0E60FF71FE60FF71FC591D591459174
:1012000055914C1B5D0B4A9FC0014B9F900D5A9FFF
:10121000900D1124B9010E945B3B6C0F7D1FCB0127
:10122000DF91CF910895AEE1B0E0E9E1F9E00C94EF
:10123000703C662EB82E860F898320911A012830C3
:1012400059F520918301309184014091850150919D
:10125000860157FD15C01091920109C0CA01B9015C
:101260002AE0312D412D512D0E94823B1F5F173FF7
:10127000ACF391F4243160E036074105510518F4D0
:101280008FEF9FEF41C1173F39F480E028178DE7BA
:1012900038074105410510F020E03DE72C8B3D8BE0
:1012A00027EDA22EE4E4F2E0E60DF11D85918860C1
:1012B0008E87E4E4F2E0EB0DF11D859188608F8765
:1012C000E1E4F2E0E60DF11D7590E1E4F2E0EB0DF2
:1012D000F11DC59090EC692AB92A81E0E82EF12C25
:1012E000012D112D8E831F82188619861A861B8662
:1012F0001C861D86188E198E1B8E1A8E0E94C9237D
:1013000088E088B960927C0021DE3F8537B975B8E6
:1013100074B855E05A95F1F7000014B815B8DD24FB
:101320003E8537B975B874B860927C00A895A092D4
:101330007A0080917A0086FDFCCF20907800309072
:101340007900B0927C004C2DE3D020917800309150
:101350007900288B398B3F8537B9C5B8C4B8A895B3
:10136000B0927C00A0927A0080917A0086FDFCCF3A
:10137000609178007091790060927C00472DC8D010
:10138000409178005091790014B8CB01820D931DE3
:10139000E80EF91E011D111DEA82FB820C831D83DC
:1013A00088899989840F951F2E813F816885798569
:1013B000280F391F611D711D2E833F836887798730
:1013C00022E32417150648F075B874B8C9DD14B8BF
:1013D00015B8888D8395888F07C0483E73E05707FE
:1013E00018F08A8D83958A8F88899989281719061C
:1013F00058F03E8537B9C5B8C4B8B2DD14B815B8D1
:10140000898D8395898F07C0883E73E0970718F010
:101410008B8D83958B8FD3945D2D5F3F49F05F3724
:1014200031F45C2D550FC50E572D550F750E78CF25
:1014300040903B0150903C01440C551C9201E4E06B
:10144000240D351DEA95E1F72901570168016E80E9
:101450007F808884998420911A012830C1F46C8996
:101460007D89812D912D65507040804090409B0179
:10147000AC010E94403B9B01AC0160E779E786E14B
:1014800090E00E94823B621A730A840A950AA614AD
:10149000B704C804D90428F46A187B088C089D088E
:1014A00003C0662477244301B20180E090E09301F9
:1014B000A4010E94403B9501A6010E94823B89E263
:1014C00093E07981870F911D0E94033D682EC90129
:1014D00060E170E00E945B3B260F371FC901681670
:1014E000190618F4861991090FC08C5E9F4F861556
:1014F000910540F48C899D89843981E1980710F029
:101500000E94DA13812D912D6E96E2E10C948C3CB1
:10151000109281001092800010926F0010928B0048
:1015200010928A0057E056BB5FEF509385005093AE
:10153000840055E050937B0057EB50937A0051E0C4
:10154000509381005FE45A95F1F70000000045B91F
:1015500044B95BE05A95F1F714B815B810928100C0
:1015600080917A0084FFFCCF80937A000895CF9316
:10157000C82F1C1614F0CF910895D4DBC150F9CFB9
:1015800060933E018093030186958093B101660FBD
:10159000660F660F60930401089580913E01809369
:1015A00001018091B10180930201089580910201AF
:1015B00060910101880FE4CF0895CF93C82F692F60
:1015C00081E05FDB6C2F81E05CDBCF910895682FB9
:1015D00080E057CB08958DE08DDC8AE08BCC0895B8
:1015E0001092B10160E080E0CBDFF5CF0895CF939A
:1015F000DF938AE2ECDF90E080E0DFDF80E890E0DC
:10160000DCDF8BE2E4DF90E080E0D7DF80EA90E08F
:10161000D4DF8CE2DCDFC0EAA895D0E080911B012A
:1016200090911C01CADFDF5FD038C1F7C150A1F72C
:10163000D7DFDF91CF910895CF93DF9358985A98D1
:101640005B985D98509A529A539A559A84DC5D9AA9
:10165000559A5998519A84E187DC589A84E184DC40
:101660008AE082DC81E1B3DF84E07EDC86E2AFDF0A
:1016700064E081E006DB81EBAADF61E181E001DB70
:1016800064E181E0FEDA80ECA2DF80E09EE095DF9D
:1016900081EC9DDF65E081E0F4DA85EC98DF80E4A1
:1016A00098E38BDF8AE393DF65E081E0EADA86E3A3
:1016B0008EDF88E293E00E94033DCBE1D1E0888396
:1016C00087E293E00E94033D898386E293E00E94D3
:1016D000033DCCE5D1E0888385E293E00E94033DA1
:1016E00089836CE181E0CDDA84EB71DF60E081E039
:1016F000C8DA7DDF89E26BDF8AE036DCDF91CF91EB
:10170000089581E08093B10160E082E039DF63CF2A
:10171000089582E08093B10160E084E031DF5BCF27
:10172000089583E08093B10160E086E029DF53CF24
:10173000089590913E0180E1891B19CF0895CF93C0
:10174000C82FF7DF8091B1018F5F8093B10188309E
:1017500070F087E08093B10181E080934101809136
:10176000B1016C2F880F0CDF36DFCF9108951092F6
:101770004101F5CFE4DFA5D38091B101833008F0BA
:101780002ACF08952DDFD5DF2BCF0895BADFD1DF23
:10179000B8CF0895582F28E030E090E841E080E08D
:1017A000652F642309F0892B440F96952150310948
:1017B000B9F70895A6E0B0E0E0EEFBE00C94703CD1
:1017C0009E838D83542EC02ED12CC601860F911D71
:1017D0008138910594F58E2D90E0AC01450D511D99
:1017E0004138510554F5EA944E2C450C47FE02C091
:1017F0005FE7452E322F3270398321FF13C00197E6
:1018000043E0959587954A95E1F78C9DA0018D9DC4
:10181000500D9C9D500D11248D819E81840F951F2C
:101820009E838D8380E8801B861B482F50E05B835E
:101830004A8321702C83451420F42696E2E10C940F
:101840008C3CAD80BE80AC0CBD1C8501F12CE12C24
:10185000852D90E027E9222E312C281A390A3EE9FD
:10186000632E712C681A790A4D815E810417150761
:1018700059F45981552319F05801AC18BD0888E076
:10188000580EBE82AD82D7CF8BE2A1DEC10195DEBC
:10189000C30193DE8AE29BDE8A809B808E0C9F1CB4
:1018A000C4018BDEC40189DE8CE291DE5C81F8012B
:1018B0003197552321F0ED81FE81EE0DFF1D9490AF
:1018C0008981882319F0892D65DF982E88E0882E7C
:1018D00080915C0190915D0197FC04C080911B0197
:1018E00090911C016ADE990C8A948110F1CF9FEFD0
:1018F000E91AF90A01501109B7CFEF920F93482F57
:101900008F7320E6829FC00111248C549C4F28E0E5
:1019100046FF28E4209305011092000147FD08C00E
:101920002091050130E2309300012D5E20930501E6
:1019300020E2E22E08E120E04091000160910501E3
:1019400039DF0F91EF900895EF920F93262FFC014E
:10195000349131964491319604913196E490E0911E
:1019600000014E0F60910501630F049623DF0F9174
:10197000EF90089560E0E8CF0895EF920F93CF9332
:10198000C82F80913E018F5F80933E018C2F90E0A5
:1019900040910301440F440F440F60910401CC3087
:1019A000D8F424E0880F991F2A95E1F730E1E32E5F
:1019B00008E020E08453944FFDDE80910401885FAD
:1019C00080930401EFEFEC0FEE3108F044C0F0E03B
:1019D000ED5CF24C0C94C03B4C972EE0289FF0013C
:1019E000299FF00D112480E1E82E07E020E0CF01CF
:1019F0008C5A994FDFDE60910401695F60930401A6
:101A000040910301440F440F440F01E020E08CE8B3
:101A100096E0D0DE809104018F5FD2CF8EE36ADA48
:101A20008CE703C08CE766DA8CE364DAA895CF9183
:101A30000F91EF9008958CE7F2CF82E5F6CF8DE21B
:101A4000F4CF85E7F2CF8FE455DA88E653DA8DE6F6
:101A5000ECCF8CE4EACF8C2FE8CF8F5C8ECF08954B
:101A6000CF93DF93EC018991811103C0DF91CF9176
:101A7000089583DFF8CFCF93DF93EC01CE010E946E
:101A8000033D882319F079DF2196F8CFDF91CF91BC
:101A90000895EF920F93FC0104913196E490029621
:101AA00089DE0F91EF9008950F9385E991E0E3DFD0
:101AB000409191014D3F6CF460917F0170918001E4
:101AC000809181019091820103E026E419D00F9169
:101AD00008958FE352DFFBCF909119019F709230F0
:101AE00071F448DE84E690E0C6DFE0913F01F091BA
:101AF000400122E04DE16FEF84819581E1C00895BE
:101B0000AEE0B0E0E6E8FDE00C94703C142F322E1D
:101B1000202E6B017C010F7080E389838A838B8385
:101B20008C838D838E83F7FE3FC0FED8F094E094C3
:101B3000D094C094C11CD11CE11CF11C58EE452E60
:101B400053E0552E612C712C033041F140E1442EBD
:101B500047E2542E612C712C043001F130EA432EFF
:101B600036E8532E66246394712C0530B9F020E4D6
:101B7000422E22E4522E2FE0622E712C063071F09C
:101B800064E6462E512C612C712C073039F490E814
:101B9000492E96E9592E98E9692E712C8AE0882EF3
:101BA000912CA12CB12C12C025FEC8CF8BE2E5DE12
:101BB000C5CFC701B6016B5F7F4F8F4F9F4FA50108
:101BC00094010E94823B69017A011F5FC414D5040D
:101BD000E604F70470F781E1810F9BEA899F812D6C
:101BE0001124782E769486E0811B899F112D112473
:101BF0001695912F990F190F811B182F4E0187E011
:101C0000880E911C2AE0A401C701B6010E94AF3CD6
:101C1000F40101900020E9F731977F01E818F908F5
:101C2000DE2C812F90E004968E159F0514F473949A
:101C30001D5F872D90E0845D9F4F0E94033D982E8D
:101C4000822D807124FE05C0802F8E19D01608F0D9
:101C500080E00E2D011B080F101624F08EE28DDEA1
:101C6000812F8E19111101C008EFA12CC82ED12C83
:101C7000EC0CFD1C002E000C110BEA2DF0E0EE1513
:101C8000FF0564F0992011F0892D77DE332011F0E3
:101C9000832D73DE2E96E2E10C948C3C3696EC1983
:101CA000FD0981E090E08C0F9D1FE80FF91F8081F6
:101CB00064DEA394A016110601F78EE25EDEDDCF8E
:101CC0000F93362FBC0190E080E0022F242F432F8A
:101CD00017DF0F9108950F93062FBC0190E080E06D
:101CE00026E54DEF0DDF0F9108950F93042F28E4A3
:101CF00040E006DF8AE741DE15D80F910895E82F0E
:101D0000F0E0EE0FFF1FE457FE4F85919491209174
:101D10000001420F20910501620F20E0BACE089524
:101D2000CF93DF93C82FD62FE0913F01F091400170
:101D300048E16EE18685E3DFE0913F01F0914001EB
:101D40004D2F6C2F8485DBDFE0913F01F091400146
:101D500040E06EE18585D3DFDF91CF91089599B1A1
:101D600093FB992790F949999260809111018430F1
:101D700050F08EE080930D0190930E0110921201AD
:101D800081E08093110180911101E82FF0E0E35F81
:101D9000FE4F30813917C9F091110EC02091120108
:101DA000E3E0E80FE3703230C9F4F0E0E35FFE4FA8
:101DB00030812F5F3330D9F0E1E0E80FE370E0933A
:101DC0001101F0E0E35FFE4F90838091120187FDE7
:101DD00003C08093130108958195FBCF313061F7E3
:101DE000F0E0E35FFE4F3081333031F72150209334
:101DF0001201E2CFB0E0A0E0E0E0FFE00C94793C1B
:101E0000E82ED92E539851989CD810921201E09147
:101E10001101F0E03196E370FF27E35FFE4F80EFA2
:101E20008083C5E6D9E19BDF4F9B24C0CE2DDD2DFD
:101E3000F12C15E500E0BB24B394D7FD15C082E377
:101E4000C82E8DDF82D8CA94C110FBCF110F4F9BD3
:101E50001F5F1F731F33A1F4011103C0CE2DDD2DB1
:101E600004E00F5F083C80F0802FCDB7DEB7E9E0DB
:101E70000C94953C6AD8D150B1F6C15099F6D6CFA2
:101E8000111102C00111F0CFA8951C161D0624F4F3
:101E90002A9711F4CFEFDFEF80911301882339F0F7
:101EA000F39480917B01811102C0B0927B0184E1A7
:101EB0008F1508F0C2CF809112018111D5CFF12C7E
:101EC000BCCFCF936ADBC82F80914101882301F1F9
:101ED000813051F4C73041F46FE08EE051DB8BE28A
:101EE0004CDD6FE08EE04CDB80E49FE183DF81110D
:101EF00004C0809113018111F7CFC73041F4809164
:101F00004101813021F460E08EE03ADB12DC4EDBEF
:101F1000CF91089540911801A0913F01B0914001E7
:101F2000E5E9F1E030E020E0822F2417B0F4519190
:101F30001C969C911C97591719F05581951303C055
:101F40002F5F3F4FF1CF220F331FF901EF55FE4FA7
:101F500020813181293E334008F084E108951895AD
:101F6000189510921A011092180110927301109294
:101F700051011092190110923D0110927A01EEE583
:101F8000F1E0108211821282EFE7F1E0108A82E024
:101F9000818B109222011786168614821582168272
:101FA000178281EF838B08958FE40E947A0786E47D
:101FB0000E947A0786E40E947A070DDB5E980E94F1
:101FC000900790E080E016CF08951F93CF93DF93A2
:101FD000162F98E097B998B9E82FF0E0EF5BFD4F26
:101FE000949195B9262F281BE20FF11D27FDFA9534
:101FF000E491E92BE4B90E94EB07EC01812F0E94E8
:10200000EB07AC01209132013091330136952795D1
:10201000C9010397BE01625E7F4F8617970778F468
:10202000255E3F4FC217D30750F4BA01625E7F4F5F
:102030008617970720F481E04217530708F080E0E5
:1020400014B8DF91CF911F910895CF9361E080E0A4
:10205000BCDFC82F62E080E0B8DFC80F62E081E03B
:10206000B4DF8C0FCF910895AFE0B0E0EAE3F0E188
:102070000C94703CB82E10921A01807FB9F4E5DF01
:10208000833081F4B4DA8DE592E0F5DC3ADB8FE35E
:1020900074DC80ED97E0AEDE8B30B0F4A8DA8AE035
:1020A00091E0E9DC2F96E2E10C948C3C06E910E02B
:1020B0009EDA8DEC91E0DFDCC8DF833009F065C08B
:1020C0001F5F143008F462C01CDB0E94BA2781EB4A
:1020D00090E0D1DC60E08BE293E00E94103D60E094
:1020E0008CE293E00E94103D60E08AE293E00E945F
:1020F000103D60E082E097D86C019A83898361E0AB
:1021000082E091D87C019C838B8360E081E08BD856
:102110008C019E838D8323E040E26EEFC601D0DD0B
:1021200023E040E26EEFC701CBDD23E04DE16EEF2F
:10213000C801C6DD2AE5C216D10424F084E190E08E
:102140009A83898369818BE293E00E94103D8AE53E
:10215000E816F10424F084E190E09C838B836B818A
:102160008CE293E00E94103D0A35110524F084E1D1
:1021700090E09E838D836D818AE293E00E94103D02
:1021800082E0809341019DDE07C010E088E20E945A
:10219000B407015009F08CCFEB2DEF70EF87E130E1
:1021A00009F04FC0EE24E394F12C68EB862E62ED2B
:1021B000962E67E4A62EB12C72E0D72E08E0E0E25E
:1021C0003E2EC12C1E2D42E2242EE0DADBDA84E51D
:1021D000D4DBC7010E9488060E949206113009F0E4
:1021E000C1C184EE90E047DC64E0809136019091BB
:1021F000370171DD86DA8FED90E03DDC80917D0165
:1022000090917E010E9488068EEB80932E0107B983
:1022100008B914B815B888EE93E0ECDD143011F06D
:102220008B3020F4C39484E0C812CFCF88EE93E0C3
:10223000E1DDEFEFEE1AFE0AF8E0EF16F10409F027
:10224000C0CF18E702DF81117FC2D1D98AEA90E0BE
:1022500012DC23E04DE16FEF809134019091350164
:102260002FDD4FDA83EA90E006DC23E04DE16FEFEB
:1022700080913B0190913C0123DD82E080934101FC
:1022800020DE10921A01B3D98FE990E0F4DB60E010
:1022900082E00E94982440908701509088016090CD
:1022A000890170908A015C864B8661E082E00E9421
:1022B00098248090870190908801A0908901B09027
:1022C0008A019E868D8660E081E00E9498240091BC
:1022D0008701109188011E830D8362E080E00E94D7
:1022E000982480918701909188019C838B8362E080
:1022F00081E00E94982480918701909188019A87BB
:10230000898761E080E00E949824E0908701F09046
:102310008801FA82E982C2010E949106C4010E94EA
:102320009106B801110F880B990B03E026E444EFE6
:10233000E7DB2F85213009F012C282E0E80EF11CA4
:10234000F886EF828E010F5F1F4F6E01EFE0CE0E19
:10235000D11CF801819191910A97853B9105C8F4B0
:10236000EC15FD05B9F73AE4E32E33E0F32EF8015E
:1023700060810E5F1F4F6E5EC7010E94103DFFEF30
:10238000EF1AFF0A0C151D0591F7BBD98AEB91E0F6
:1023900072DB82E08093410194DD0E94E6372F8555
:1023A000213029F080913A01823009F0C6C01FD94E
:1023B00080E053DB80E691E05EDB82E04EDB84E28E
:1023C00090E059DB90E4F92E10E02AE0822E912C67
:1023D000A12CB12CC6DD10921A0160E082E00E94AF
:1023E00098240091910120917F01309180014091CA
:1023F000810150918201073F0CF4BBC10093910110
:1024000020937F013093800140938101509382019A
:10241000073F09F0B6C12056310941095109203959
:1024200035454105510508F0ACC1609193017091AB
:102430009401CB018B569F4F8B32914008F0A1C184
:102440001F5F153008F49EC181E593E00E941E3D98
:10245000CED88DE190E00FDB8091930190919401B3
:102460000E947D060E945D0888E088B989E087B9EE
:1024700080E284B982E00E94EB07853D9340D4F767
:1024800014B8109231011092300182E00E94EB07E3
:102490007C01809178019091790190933101809332
:1024A000300182E00E94EB076C01CC0CDD1C109225
:1024B00031011092300182E00E94EB074C01A090A4
:1024C0007801B0907901B0923101A092300119D910
:1024D00086E190E0D0DA83E593E00E94033D182F77
:1024E000D701A80DB91DAC19BD0995010E94D53BB6
:1024F00096010D2C000C440B550B0E94A43B1D5F54
:10250000120F612F83E593E00E94103D812F012E71
:10251000000C990B0E947D060E945D0882E080936A
:102520004101CFDC10923A018AE493E00E94033D1E
:10253000682F8DE493E00E94103D89E180932E0185
:1025400080E00E94FA3A53D88AE091E094DAD9D830
:1025500084E492E090DA10921A0182E080934101C3
:10256000B0DCA0CD123091F52091320130913301D1
:10257000A8E5BBE10E94C63B24EC36E340E050E016
:102580000E94A43B290181E085B9F5E0F4B980E01F
:102590000E94E007841995099A83898381E184B9AF
:1025A00080E00E94E007841995099C838B8384E076
:1025B00085B984E184B981E00E94E0078419950916
:1025C0009E838D8389EC90E056DA37C0133059F53D
:1025D000D5B82AE024B980E00E94E00720913201BA
:1025E000309133013695279538872F83821B930BC3
:1025F0009A83898324B880E00E94E0072F81388580
:10260000821B930B9C838B8305B988E284B981E09C
:102610000E94E0072F813885821B930B9E838D8358
:102620008BEB90E0D1CF1430D1F48DE492E023DA3B
:102630000CDD882311F0F2E0CF2E63D889819A81D6
:102640000E947D060E9492068B819C810E947D06DD
:102650000E9492068D819E810E947D06D8CD153004
:10266000B1F415B8D4B880E00E94E0079A8389835A
:1026700004B981E00E94E0079C838B8334B882E038
:102680000E94E0079E838D838BED90E09DCF1630F6
:1026900051F5D4B8D5B880E00E94E007209132010E
:1026A00030913301821B930B9A83898304B905B956
:1026B00081E00E94E0072091320130913301821BBA
:1026C000930B9C838B8334B835B882E00E94E0077B
:1026D0002091320130913301821B930B9E838D83B5
:1026E00087ED90E071CF173009F0A7CF209132012C
:1026F00030913301A8E5BBE10E94C63BA5019401DE
:102700000E94823B2901D5B8E3E0E4B980E00E9451
:10271000E007841995099A83898305B9FCE0F4B927
:1027200081E00E94E007841995099C838B8335B86A
:1027300020E324B982E00E94E007841995099E8372
:102740008D8385EB90E040CF21D88DE492E093D942
:1027500084E60E94B407115009F074CD76CD8091C3
:102760003A01823009F4E9CDF886EF8210923A01FD
:10277000E9CD0F5FCA01B901A50194010E94823B16
:102780003ACE10E00E94810B60917F017091800130
:10279000809181019091820104E026E440919101B1
:1027A000AFD90E94990B88E20E94B407FA94F11005
:1027B00011CEC3CE80913A0181110DC08AE493E01D
:1027C0000E94033D61E0680F8DE493E00E94103D9C
:1027D00081E080933A010895EF92FF920F931F9347
:1027E000CF93DF93D62FE82FF0E0EC5BFD4FE49121
:1027F000E8B9E860E7B915B8E62FF0E0EF5BFD4F08
:10280000E491E4B9CE2FCC0F88E8E82E83E1F82ECE
:102810008D2F0E94E0078C01C4B98E159F0510F121
:10282000892BD9F00E94910B80E491E024D9D80142
:1028300020EA36E841E050E00E94DB3B28E937EB34
:1028400040E050E00E94823BC90122E041E467EF92
:1028500037DA88E087B988B914B8CDB7DEB7E6E0D3
:102860000C94983C7801D4CF80E48AB98BB987E87E
:1028700080937A001092C1000E949207C4B7C8707A
:1028800084B7877F84BF0FB6F894A89580916000C5
:10289000886180936000109260000FBE86E880938C
:1028A000640088E380937E001092B00087E08093FC
:1028B000B10078940E941C0BC1119BC580E185BFBB
:1028C00084E0809311014F9908C00E94B307CF5F45
:1028D000CC33C9F780E69DE604C08FE59DE6CF3195
:1028E000C8F790930C0180930B0110922F010E9466
:1028F000BA2788E19FE00FB6F894A895809360000E
:102900000FBE90936000CC3309F45DC020E1722EBD
:1029100038E1632E42E4842E41E0942E54E6A52E45
:1029200051E0B52E6DE0362E70EF572EE3E34E2EBC
:102930000E94F70A28E027B914DB0E94BA270E94F8
:10294000F00A65D580913D01882371F00E94810BCA
:1029500085E591E090D863E0809132019091330158
:10296000BAD988EC0E94B4070E94810B0E94C92347
:1029700080911A01893061F50E94F70A8AE591E099
:102980007AD80E94810B63E08091560190915701A3
:10299000A2D90E94920663E080915801909159015A
:1029A0009AD90E94920663E080915A0190915B014E
:1029B00092D98AEC0E94B40781E156DBC0910B01E9
:1029C000D0910C0195C10E94FC318111FCCF9ECFAA
:1029D0008DE493E00E94033DC82F8AE493E00E94B7
:1029E000033DC81BC0933A0180E03EDB0E94C60B4A
:1029F00082EC92E040D883E00E947A070E94EB0AC2
:102A000042E061E080E073D542E060E081E06FD5B4
:102A100041E062E080E06BD541E060E082E067D5B4
:102A200040E062E081E063D540E061E082E05FD5B4
:102A300080911A0181110EC00E94C92360E082E0DA
:102A40000E94982461E082E00E94982460E081E086
:102A50000E9498240E94F70A9092400180923F01C0
:102A600080911A018630F9F485EC0E947D0C60E1BA
:102A700088EF56D966E080E00E94C00A89E992E0BA
:102A80000E943B0D66E082E00E94C00A8EE691E063
:102A90000E943B0D62E080914601909147011BD955
:102AA0000E94EB0A8BCF873069F484EC0E947D0C86
:102AB00060E188EF35D966E080E00E94C00A82EAD2
:102AC00092E0DECF8830A9F480918F01909190013F
:102AD000890F9927991F029741F40E94202A80911B
:102AE0003A01811133C460DA23CF80E00E944D297E
:102AF00065CF833009F00DC180911801813009F054
:102B00006AC080E00E9450076091950180919B010E
:102B100063DE80E70E94290740E060919501809183
:102B20009B010E94323760937F01709380018093F4
:102B300081019093820180E00E94BA0B60917F0135
:102B400070918001809181019091820102E026E4E0
:102B500042EF0E94800D0E94940641E06091950131
:102B600080919B010E94323760937F0170938001B6
:102B7000809381019093820126E442EF0E94800DB0
:102B800082E391E00E943B0D0E94EB0A0E94EB0A57
:102B900080917A01882309F411CF67B838E037B9FA
:102BA00080E00E94BA0B20917A01222309F4B2C37B
:102BB00080916101213009F048C30E94EC06209108
:102BC0006101213009F03CC320911801211138C363
:102BD0000E94D62984CF823079F582E30E94BD0C11
:102BE00082E291E00E943B0D909195013091960117
:102BF000931308C080E00E946B0781E00E94620787
:102C000081E088CF20919B0180919C01281307C00F
:102C100080E00E945C0781E00E947107F1CF3213CF
:102C200006C081E0809306010E943F07AFCF981352
:102C30003EC070920601F8CF8330C9F5409206017C
:102C400080919B0190919601891303C021E020930C
:102C500006014091950130919C01431302C070928E
:102C6000060120919701821303C082E08093060140
:102C700080919D01481303C040E240930601321346
:102C800010C022E120930601981303C081E28093D3
:102C9000060183E30E94BD0C82E291E00E943B0D9D
:102CA000C3CF981799F380910601823290F388EA96
:102CB00092E00E943B0D80E992E00E943B0D0E9451
:102CC000810B80911801805D0E94BD0C8AE20E94F8
:102CD000BD0C8CE391E00E943B0D86E792E00E94E0
:102CE0003B0D0E94EB0A86E00E947D0CC0E4DFE110
:102CF00067B84F9BFECFCE017DD8823328F49091E8
:102D00001301933008F413C30E94FC318111FCCFEE
:102D10000FCE843009F058C180917301882309F4E3
:102D200065C080915101882309F460C060914E0113
:102D3000809150010E949824C0907F01D090800122
:102D4000E0908101F0908201C09191016091720147
:102D5000809170010E9498248091420190914301DA
:102D6000A0914401B09145014091640150916501E9
:102D70006091660170916701843F31E09307A1057E
:102D8000B10538F4443FE1E05E076105710508F0E4
:102D9000C0EF443F51406105710538F4843F9140D4
:102DA000A105B10510F050929101809191018C1311
:102DB00011C080917F0190918001A0918101B0911B
:102DC0008201C816D906EA06FB0630F03CE03093D3
:102DD000190104C0C817D4F730921901809173010A
:102DE000882321F0809151018111CEC066E080E0FE
:102DF0000E94C00A80EC0E947D0C809119018C30E9
:102E000009F0CBC08AE891E00E943B0D80917301EC
:102E1000882319F080E70E94BD0C7CD8C82F85302C
:102E200098F4A0913F01B0914001E82FF0E0EB56FB
:102E3000FE4F1D969C91808162E0981301C060E076
:102E400082E991E00E94A40C60E189EF0E94900E5B
:102E500086E00E949F0B89E991E00E943B0DE09182
:102E60003F01F0914001608171818281938103E093
:102E700020E04EEF0E94800D87E00E949F0B89E4C6
:102E80000E94BD0CE0913F01F09140018681978145
:102E90008031974208F494C085E60E94BD0CE09111
:102EA0003F01F0914001868197818051974297833D
:102EB00086830E949606E0913F01F091400122E056
:102EC00041E46AEF868197810E94600E86E00E944D
:102ED0009F0B82E791E00E943B0DE0913F01F09152
:102EE000400163E0848195810E946B0E81E08093B4
:102EF0004101E0913F01F091400180859185892B4E
:102F000091F085E00E94BA0B84E091E00E943B0DB5
:102F1000E0913F01F091400122E041E46AEF8085B9
:102F200091850E94600EE0913F01F0914001828501
:102F30009385892B91F085E00E94BA0B8EEF90E08B
:102F40000E943B0DE0913F01F091400122E041E4FD
:102F50006AEF828593850E94600EC53078F480E028
:102F60000E94BA0B8C2F0E9450078EE691E00E94BF
:102F70003B0D8C2F0E941B070E94EB0A43E462E486
:102F800085E40E94BF068CCD4F9930CF8091190106
:102F900091E089278093190129CFB0924001A09236
:102FA0003F0187EC91E00E94BA0C82E891E00E9418
:102FB0003B0D80915101882309F42FCF8EE62BCF52
:102FC00083E60E94BD0C75CF853009F0ECCD66E03C
:102FD00080E00E94C00A80911901C82FC07184FF4F
:102FE00066C080E50E94BD0CB0924001A0923F01F6
:102FF000C2E00E94940680911901D82FDF70D4306E
:1030000009F059C084EA91E00E943B0D83EC0E94D4
:103010007D0C80ED91E0C1116AC00E948A0F85305D
:1030200098F4A0913F01B0914001E82FF0E0EB56F9
:10303000FE4F1D969C91808162E0981301C060E074
:1030400082E991E00E94A40C60E189EF0E94900E59
:1030500086E00E949F0B86E00E949F0B80911901E1
:1030600085FD61C08AE691E00E943B0DE0913F0141
:10307000F091400162E0828593850E946B0EE091A1
:103080003F01F0914001668584850E94982486E086
:103090000E949F0B0E94540D85E00E946C0D4FE32F
:1030A00067E48FE3D43009F46CCFC0E0BCC08EE499
:1030B0000E94BD0C9ECF85FF1DC084E40E94BD0C04
:1030C000CF5FD330D9F48EE991E00E943B0D81ECC3
:1030D0000E947D0C8DE192E0C13049F089E292E0DE
:1030E000C23029F089EF91E0C33009F096CF0E94F9
:1030F000BA0C93CF85E40E94BD0CE3CF89EA91E03E
:103100000E943B0D82EC0E947D0C89EE91E0C13063
:1031100071F38FEE91E0C23051F3C33009F07DCFEF
:1031200087ED91E0E4CFE0913F01F09140018F7095
:10313000843009F44EC0668584850E9498240E94DC
:10314000540D60E086E00E94C00A89E40E94BD0C34
:103150000E949606E0913F01F091400122E041E497
:103160006AEF868197810E94600E84E691E00E945A
:103170003B0DE0913F01F091400162E08285938533
:103180000E946B0EE0913F01F09140018085918596
:10319000803C9241E0F480E00E94BA0B89E40E94F6
:1031A000BD0C0E94960622E041E46BEF90E080E0C7
:1031B0000E94600E84E691E00E943B0DE0913F0189
:1031C000F091400162E0808591850E946B0E80E065
:1031D00064CF84819581892B09F4B3CF80E090E09E
:1031E0000E943B0DE0913F01F091400122E041E45B
:1031F0006AEF848195810E94600EA3CFC11103C044
:1032000080E00E949F0B80E00E94BA0B8C2F0E94EE
:1032100050078EE691E00E943B0D8C2F0E941B0709
:103220000E94EB0ACF5F80911801C81738F344E47D
:1032300067E483E5D33009F0A4CE43E467E4A0CE8D
:1032400040E0692F0E948C28B9CB9091620134E054
:10325000939FD0011124AE54BE4F34E0839FF00100
:103260001124EE54FE4FED90FD900D911C91408184
:10327000518162817381C92F4E155F056007710707
:1032800008F0C82F223041F5980FC3E0C91B1C2F4E
:103290001695D2E0DC1B01E0C11102E0812F0E94F3
:1032A0002D0D8DE191E00E943B0D8D2F0E942D0D83
:1032B0008DE191E00E943B0D802F0E942D0D80E05A
:1032C0000E949F0B81E0C11180E00E94F60682E01F
:1032D000811B0E94F60672CB8091630194E0899F66
:1032E000D0011124AE54BE4F24E0C29FF00111243E
:1032F000EE54FE4F0D911D912D913C9140815181D5
:1033000062817381401751076207730708F0BFCFCE
:10331000C82FBDCF80E892E00E943B0D0E94810B38
:103320008DEA92E00E943B0D88EA92E0D8CC8111B0
:10333000FFCA9111E0CCD3CB80E09DE70E94FA0E4A
:1033400081114EC08091120187FF17C0D8E010E0B4
:1033500000E09801295B3D4F7901F90180E090E19F
:10336000D92EC491C03211F0CE3F09F4D82E8F5F10
:1033700031968131B1F7DD23F9F23D2F3770232EDD
:1033800011F40E94F70A60E0822D880F0E94C00AA3
:103390000E94EB0AA895DF5FD770212C2D100DC07D
:1033A000CC23F1F0020D111DF801E95BFD4FE49112
:1033B000E03279F60F5F1F4FCCCFF701C491CC23D9
:1033C00079F0CF3F39F40E9492062394FFEFEF1A71
:1033D000FF0AE4CFCE3FC9F38C2F0E94BD0CF5CF7E
:1033E00080E09DE70E94FA0E8091120187FDAECF2A
:1033F0007ACB0E94F00A8DE692E00E943B0D8BECA6
:103400000E94B4070E94D40F90E080E008950F93CB
:103410001F93CF93DF9385E00E94EB0785E00E9426
:10342000E7078C01EC01CC0FDD1FCC0FDD1FCA5666
:10343000DF4F10923801C43883E0D80770F48EEA69
:1034400091E00E943B0D0E94990B81E0809338012E
:10345000DF91CF911F910F9108958DEB91E00E9424
:103460003B0D62E0CE010E946B0E0E9492060A3F65
:1034700086E01807B0F40333164060F486EB92E060
:103480000E943B0D0E94990B8DEC0E94B4070E9494
:10349000D40FDECF8DEB92E00E943B0D0E94990B82
:1034A000D7CF8AEB91E0F8CFFC019C01261B370BAC
:1034B000CA0170E060E0A901460F511D452F552754
:1034C000620F240F351FAC01470F511D452F5527A3
:1034D000780FDA01AA0FBB1F8A0F9B1F4B3E20F407
:1034E000E217F30740F7089590E080E00895A9E11E
:1034F000B0E0EDE7FAE10C94703C582E462E342EE5
:10350000A895E62FF0E0EF5BFD4F24912E87220F68
:103510002F8B339634913A8BE42FF0E0EF5BFD4F25
:1035200044914983339684918F83E52DF0E0EF5BDE
:10353000FD4F2490922D990F9F87339624912B83D2
:1035400028602C8338603A8345B9EE84E42AE4B8D5
:1035500027B93B8138B9862F0E94E7079D878C8762
:103560004E8544B9842D0E94E7073C0114B80E949F
:103570009B0715B8E4B8842D0E94E7076C857D850C
:103580000E9449086C018A8187B988E088B99981CD
:1035900092299D8395B994B9852D0E94E7070E94D1
:1035A0004F084C0115B80E949B0725B8852D0E9435
:1035B000E7070E944F088C0124B8852D0E94E70779
:1035C0000E944F08B82E9987B801C4010E9449088B
:1035D0008032E1E09E0730F4F0E2CF16F1E0DF0642
:1035E00008F4CAC5C00ED11E2C853D85820F931FDD
:1035F000C816D90620F41D870C876B2C798420917E
:10360000510180917301820F9927991F02974CF005
:10361000213009F0B1C590914E018091700198134D
:10362000ABC5D980DD0CFE84FD283D2D32293B87BA
:103630008C859D858437910508F4AAC10A96880F68
:10364000991F6816790608F0A3C19C8197B9EB8190
:10365000E8B9F4B8842D0E94E4078C01832D0E9400
:10366000EB077C01D5B8842D0E94E4079801295A04
:103670003D4F2817390708F0B9C088E088B9FA81AA
:10368000F7B92B8524B925B9832D0E94E407883426
:103690009F4008F470C085E080931A0182E2809315
:1036A00019011093470100934601B701C8010E9418
:1036B000540890934D0180934C019801A0E1B7E22A
:1036C0000E94C63B209114013091150150E040E06A
:1036D0000E94823B30934901209348018F898D29B4
:1036E00084B915B84C8147B98B8188B9832D0E9464
:1036F000EB078C01842D0E94E407B8010E94540856
:103700009C0190934B0180934A01909119019F7005
:103710009430B1F188E088B99F81EA819E2B97B9F6
:1037200024B8FD81F5B9852D0E94E7078C010E9420
:103730004F089E838D83842D0E94EB07E0901D012E
:10374000F0901E01BC01C8010E9454089701DC01E1
:103750000E94C63BED81FE819F0150E040E00E9447
:10376000823B3093470120934601809151018F5F46
:103770008093510189C385E080931A0184E28FCF41
:10378000409148015091490160914C0170914D0167
:10379000C9018ADE0097F9F0D4B8EA89FC81EF2BE1
:1037A000E7B9842D0E94E4078C0188E087B998016D
:1037B000A0E1B7E20E94C63B20913B0130913C0161
:1037C00050E040E00E94823BA901B80180914A018B
:1037D00090914B0169DE909347018093460180915F
:1037E00019018F70843009F4C0CF94CF88E088B974
:1037F0002A8127B93B8534B935B9852D0E94E40764
:103800008C01832D0E94EB077C0125B8852D0E9439
:10381000E407895A9D4F8017910708F0ADC44B818A
:1038200048B98C8187B9832D0E94E407813D93407C
:1038300008F06EC085E080931A0182E3809319013D
:10384000B801C7010E94540890936F0180936E01E4
:10385000C8010E944F089C01A0E1B7E20E94C63B4C
:1038600020911D0130911E0150E040E00E94823BFA
:1038700030936B0120936A01F8E0F8B92A8127B9E7
:103880008F858D2984B985B9852D0E94EB078C0120
:10389000832D0E94E407B8010E9454089C01909374
:1038A0006D0180936C01909119019F709430A9F182
:1038B000EB813F81E32BE8B94C81342B37B915B844
:1038C0008D8184B9852D0E94E7077C01842D0E949B
:1038D000EB079E838D830091140110911501BC01AB
:1038E000C7010E9454089801DC010E94C63BED818B
:1038F000FE819F0150E040E00E94823B30936901CD
:1039000020936801809173018F5F8093730154C18C
:1039100085E080931A0184E391CF40916A01509130
:103920006B0160916E0170916F01C901BDDD00975F
:1039300021F1D5B8D4B8FB81F8B9EC812A81E22B0A
:10394000E7B9852D0E94E4070E944F088C0138E0FA
:1039500037B99C01A0E1B7E20E94C63B2091340137
:103960003091350150E040E00E94823BA901B8014E
:1039700080916C0190916D0197DD90936901809326
:103980006801809119018F70843009F4BBCF90CF0A
:1039900088E088B94A8147B925B88B8584B9852DD7
:1039A0000E94E707998B888B0E944F0898878F8326
:1039B000832D0E94EB079A87898783010C591F4F3B
:1039C000EF81F885B3010E171F0708F0F7C0CF018C
:1039D0000E9454089C8B8B8B20911D0130911E01FD
:1039E00050E040E060E871EA83E09CE10E94823BA5
:1039F000AB89BC890E94DB3BE985FA859F0150E0D9
:103A000040E00E94823B49015A0114B815B8FB817D
:103A1000F8B92C8127B981E00E94B407E4B8842D5D
:103A20000E94E7078F359D4008F474C1F4B8842DD7
:103A30000E94E407998F888F832D0E94EB079C8B4F
:103A40008B8B852D0E94EB079E8B8D8B8B899C89A0
:103A5000813D974008F4E6C084E080931A018DE030
:103A600080931901288D398D89010619170962166D
:103A7000730610F0088D198DC0901401D0901501B7
:103A8000F12CE12C60E871EA83E09CE1A70196014A
:103A90000E94823BD8010E94DB3BEB89FC899F019D
:103AA00050E040E00E94823B80917301882371F0D6
:103AB0008091640190916501A0916601B0916701C8
:103AC00082179307A407B50708F099C020936401F3
:103AD000309365014093660150936701288D398DBD
:103AE000A0E1B7E20E94C63BA70196010E94823B7B
:103AF00030936B0120936A016B897C898D899E8943
:103B00000E945408909369018093680181E040917C
:103B100064015091650160916601709167014815DB
:103B200059056A057B0508F06CC08092640190928B
:103B30006501A0926601B092670169857A858889DE
:103B400099890E94540890936901809368012F819C
:103B50003885A0E1B7E20E94C63B20911D0130915B
:103B60001E0150E040E00E94823B205F384D3093C0
:103B70006B0120936A01C0901401D0901501F12CC3
:103B8000E12C9301A0E1B7E20E94C63BA701960198
:103B90000E94823B30936D0120936C012C853D8502
:103BA000A0E1B7E20E94C63BA70196010E94823BBA
:103BB00030936F0120936E0181E025C08F8198853D
:103BC0000E9454089C8B8B8BFD81F4B9852D0E943B
:103BD000E707998B888B0E944F0898878F83832DE6
:103BE0000E94EB079A878987BC018B899C890E9478
:103BF00054089C01A4E6B0E00E94C63BFDCE80E0E4
:103C000086CF8111B8CF909173019F5F909373011C
:103C1000882309F478C33092700140927101509268
:103C2000720171C3F1E66F16710408F073C0288D3C
:103C3000398D213D47E0340708F46CC085E080935E
:103C40001A0182E180931901C90186509F4FED89C5
:103C5000FE898E179F0708F043C083E18093190106
:103C6000FA89F770DF2E832D806480937C00EBE06F
:103C7000EE2E21E030E03E832D830FEF13E0A89578
:103C800061E089816FD5F4B886B18D21E9F33E8575
:103C900034B980917A00806480937A0080917A00B0
:103CA00086FDFCCF8091780090917900F801E81BA7
:103CB000F90B2D813E812E0F3F1F3E832D83EA9409
:103CC000E110DDCFC901880F991F880F991F69E0A6
:103CD00070E00E945B3B70936F0160936E0112CEA7
:103CE0000091140110911501688D798D8D899E893F
:103CF0000E9454089801DC010E94C63BE88DF98DB2
:103D00009F0150E040E00E94823B30936901209384
:103D10006801A6CFF4B8D5B8842D0E94E7076C01DE
:103D2000832D0E94EB0798878F830E944F089A8704
:103D300089870C151D0508F0A9C0B301C6010E94B2
:103D400054088C01209114013091150150E040E09D
:103D500060E871EA83E09CE10E94823BD8010E9406
:103D6000DB3BE985FA859F0150E040E00E94823B01
:103D700049015A01FA81F7B988E088B92D8124B93F
:103D800025B9852D0E94E7078C01832D0E94EB0742
:103D90009A878987842D0E94EB077C01003331E1EB
:103DA000130708F0E6C125B8852D0E94E707998B17
:103DB000888B24B8852D0E94E7079C8B8B8B15B8C8
:103DC00081E00E94B40725B8852D0E94E707EB89A2
:103DD000FC89E034F64008F079C08133914108F461
:103DE00075C0C8018A569F4FE889F989E817F90715
:103DF00008F06CC086E080931A01809151018F5FBA
:103E000080935101B70189859A850E945408909347
:103E1000470180934601B701C8010E94540890935E
:103E20004D0180934C0114B815B8FA89F8B981E0B6
:103E30000E94B40724B8852D0E94E707853F9105AD
:103E400018F52D8124B9832D0E94E707813D934009
:103E5000D8F0852D0E94EB078D3D9240A8F024B844
:103E6000852D0E94E7078D3D924070F025B881E0D6
:103E70000E94B40715B8852D0E94E707853F91057C
:103E800018F487E080931A0181E0F8C0E4B8F98162
:103E9000F5B9842D0E94E7076C01832D0E94EB0782
:103EA00098878F830E944F089A878987C6016C1470
:103EB0007D0410F48619970969857A850E94540853
:103EC0009C01A4E6B0E00E94C63B4BCFFA81F7B953
:103ED000298124B925B981E00E94B4073B8534B912
:103EE00035B9852D0E94E7078C010E944F08998BF8
:103EF000888B832D0E94EB079E838D830E944F0841
:103F00009A878987842D0E94EB077C0189859A8591
:103F10008E3F994008F4C1C084E080931A018CE080
:103F200080931901B301888999890E9454088C01F2
:103F300020911D0130911E0150E040E060E871EADF
:103F400083E09CE10E94823BD8010E94DB3BE98533
:103F5000FA859F0150E040E00E94823B8091510130
:103F6000882371F08091420190914301A091440116
:103F7000B091450182179307A407B50708F07AC0EE
:103F800020934201309343014093440150934501F3
:103F9000B7018D819E810E945408909347018093C0
:103FA000460128893989A0E1B7E20E94C63B2091E9
:103FB0001D0130911E0150E040E00E94823B309391
:103FC00049012093480181E0409142015091430111
:103FD0006091440170914501481559056A057B05BA
:103FE00008F04AC08092420190924301A09244019D
:103FF000B0924501B6018F8198850E945408909334
:104000004701809346019601A0E1B7E20E94C63BBA
:10401000209114013091150150E040E00E94823B54
:10402000205F384D30934901209348019301A0E16E
:10403000B7E20E94C63B209114013091150150E077
:1040400040E00E94823B30934B0120934A012C8533
:104050003D85A0E1B7E20E94C63B20911D01309151
:104060001E0150E040E00E94823B30934D012093BE
:104070004C010ACF80E0A8CF8111D8CF9091510197
:104080009F5F90935101882309F43DC130924E0106
:1040900050924F014092500136C1F1E66F16710403
:1040A00008F067C02889398929343D4008F461C087
:1040B00085E080931A0182E080931901C701865040
:1040C0009F4F8017910708F03CC083E0809319014F
:1040D0000B810770832D806480937C001BE021E0BE
:1040E00030E03E832D83A89560E089813BD33B85FA
:1040F00034B935B986B18023E9F724B880917A00C4
:10410000806480937A0080917A0086FDFCCF809154
:10411000780090917900ED81FE81E80FF91FFE8310
:10412000ED83115001F7CF01880F991F880F991F58
:1041300069E070E00E945B3B70934D0160934C011D
:1041400014CBC0901D01D0901E01B701C8010E9480
:1041500054089601DC010E94C63BE889F9899F0159
:1041600050E040E00E94823B30934701209346019B
:10417000AFCF88E087B988B914B815B888E087B997
:10418000F7EC6F16F1E07F0608F4E5C088B92F85DB
:1041900024B938EC3D834C818A81482B4F839F8121
:1041A00097B981E00E94B407EA81E7B9852D0E94A2
:1041B000EB07429728F0FD81F150FD83F111EFCF1D
:1041C0002F8524B925B961E08981CCD2852D0E9443
:1041D000E7076C013F8934B915B84C8147B98B8129
:1041E00088B960E08981BED2842D0E94E7070E94D1
:1041F0004F089E838D839E8594B9842D0E94EB0782
:104200008C01852D0E94E707B8010E9454088C019B
:10421000842D0E94EB077C01852D0E94E707B701E2
:104220000E94540898012C5E3F4F2817390708F464
:104230006AC088E088B9EA81E7B924B825B861E0A6
:10424000898190D2842D0E94EB077C01852D0E94EC
:10425000E707B7010E9454087C010817190708F006
:104260005EC0FF85F4B9F5B9852D0E94E707FC0112
:10427000CD82DE828D819E81883426E0920708F00F
:1042800060C09C0153E0369527955A95E1F748EEBA
:10429000E41643E0F40608F057C0C70164E670E096
:1042A0000E945B3BC701875991098938914108F009
:1042B00052C0EE15FF0508F04EC08D819E81280F7B
:1042C000391F2E153F0508F046C06817790708F01A
:1042D00042C080911A01833018F483E080931A0160
:1042E00020911801822F90E0FC01EB56FE4F508286
:1042F0004682880F991FFC01EF55FE4FF182E08244
:104300002F5F2093180188E087B988B914B815B8D1
:104310008EE20E94BD0C6996E2E10C948C3C2F89E0
:1043200024B915B83C8137B94B8148B960E089811F
:1043300019D2842D0E94E7070E944F08FC017801E2
:1043400099CF28EC30E0A3CFB70144E0769567958C
:104350004A95E1F7A7CF642D852D01D0D4CFB0E0E9
:10436000A0E0E5EBF1E20C94723CC82FD62FA895A3
:10437000862F90E0FC01EF5BFD4F54903396249123
:104380004C2F50E0FA01EF5BFD4F149133960491EE
:104390006091730130915101630F7727771F672B6D
:1043A00009F067C0A8956091200170912101660F06
:1043B000771F660F771F709333016093320160910E
:1043C000780170917901660F771F660F771F7093E0
:1043D0003101609330013EEB30932E013091180192
:1043E000E5E9F1E0DF01480F591F9A2F9E1B931753
:1043F00018F188E088B9286027B914B915B9B8E16F
:10440000BB2ED12CC12C8D2F0E94E707782E692E50
:104410008C2F0E94EB077C018C199D0997FF03C02C
:1044200091958195910903970CF46BC1A895BA9465
:104430006701B110E8CF0AC08D9115966C91159760
:10444000680F7727771F6417750779F68091200129
:1044500090912101909333018093320180917801F2
:1044600090917901909331018093300189E180939B
:104470002E01CDB7DEB7E0E10C948E3C25E8C216E4
:1044800021E0D20618F7043AA2E01A0708F0B1C0FA
:10449000B8E9AB16B104D0F2C6010E944F08AC01D6
:1044A0009601A8E9B7EB0E94C63B9A0150E040E0B4
:1044B0000E94823B29013A01C5010E944F089C01DC
:1044C000A8E9B7EB0E94C63B950150E040E00E948E
:1044D000823B88E7C8168FE0D80608F06EC0F2E08D
:1044E000440C551C661C771CFA95D1F7C301B20128
:1044F000620F731F841F951F25E030E040E050E0FD
:104500000E94823BA4E6B0E00E94DB3B6B017C0191
:10451000BCEACB0EBDE0DB1EE11CF11C10911A01C0
:10452000143008F093CFC150DC0F8D2F90E0FC01C8
:10453000E25AFE4F2081880F991F880F991F8E54D1
:104540009E4FDC01222309F4C1C08D909D90AD9057
:10455000BC90A7019601281939094A095B0957FF40
:1045600007C050954095309521953F4F4F4F5F4F75
:10457000AAE0B0E00E94DB3BB4E68B0E911CA11CCC
:10458000B11CC80CD91CEA1CFB1C6C157D058E05E2
:104590009F0508F05BCF133019F081E080931A017A
:1045A00082E0808380917A01E82FF0E0EF59FE4F9E
:1045B000D0838F5F80937A0149CFA8E7AA16AFE036
:1045C000BA0670F4E2E0220F331F441F551FEA952C
:1045D000D1F7CA01B901640D751D861D971D8CCFD9
:1045E000240D351D461D571D569547953795279522
:1045F00089CFC0901D01D0901E01672D762DE61643
:10460000F70608F4B701C7010E9454089601DC01BF
:104610000E94C63B2B013C01C7010E944F089C0130
:1046200050E040E0C301B2010E94823B29013A01FF
:10463000A0901401B0901501892D982D8017910735
:1046400008F4C801B8010E9454089501DC010E94D9
:10465000C63B980150E040E00E94823B88E7E816A4
:104660008FE0F806B0F462E0440C551C661C771C21
:104670006A95D1F7C301B201620F731F841F951FA2
:1046800025E030E040E050E00E94823B69017A0181
:1046900045CF0837AFE01A0770F4CA01B90152E0FC
:1046A000660F771F881F991F5A95D1F7640D751DE6
:1046B000861D971DE5CF73016201C20ED31EE41E55
:1046C000F51EF694E794D794C79428CFCD92DD9247
:1046D000ED92FC92139781E08083B8CE550C54B8CC
:1046E0008D2F0E94E7075C01B0ECEB16B4E4FB06EB
:1046F00008F4C4CE80EBC8168DE4D80608F0A6CE28
:10470000C2CE110F15B814B98C2F0E94E70781355E
:10471000910508F09BCE15B98C2F0E94E7076C011C
:10472000802F886087B908B915B854B8A8E14A2E17
:10473000B12CA12C8C2F0E94E707982E892E8D2F4B
:104740000E94EB078C018A199B0997FF03C0919582
:1047500081959109039714F2A8954A945801411044
:10476000E9CF74CECF93C82FC09595B160FF0FC02D
:10477000982B95B994B1982B94B90E94B30784B142
:104780008C2384B985B18C2385B9CF9108959C235E
:10479000F0CFB0E0A0E0EFECF3E20C94783C1AE04C
:1047A00008E08FE3C82E99E0D92E07B908B915B8EB
:1047B000C4B880E00E94E7077C0181E00E94EB071B
:1047C000EC0182E00E94EB079C0180911A01893084
:1047D000A1F488E087B914B8F0925701E09256012D
:1047E000D0935901C093580130935B0120935A0133
:1047F000CDB7DEB7EAE00C94943C84E0E816F1040F
:1048000048F4C430D10560F42430310510F399E048
:1048100092600AC098E088EEE81683E0F80608F493
:1048200099E0C83ED340A0F3283E334008F494609A
:1048300097B9D0E0C0E0A89580E00E94E0075C0155
:1048400081E00E94EB077C0182E00E94EB0724E1FB
:10485000A21625E0B20608F4389A24E1E21625E013
:10486000F20608F4399A843125E0920708F43A9A5E
:1048700026E0A216B10430F426E0E216F10410F4AA
:10488000069738F02196C43F81E0D807A1F6D09270
:104890001A01F12CE12CEC16FD0621F4115009F05F
:1048A00084CFA6CF0E94A1072FEFE21AF20AF3CF1E
:1048B000CF92DF92EF92FF92CF9320917F013091C0
:1048C00080014091810150918201C09191018AE063
:1048D000C82ED12CE12CF12C8C2FCF5F213A96E8F9
:1048E000390791E049075105E0F480939101A091C7
:1048F0003201B09133010E94DB3B28E833E140E014
:1049000050E00E94823B20937F01309380014093CE
:10491000810150938201CF91FF90EF90DF90CF9073
:104920000895CA01B901A70196010E94823BD4CF24
:104930008F929F92AF92BF92EF92FF920F931F932D
:10494000CF93DF93C82FF62E880F8C0F9FEF960F13
:10495000890F80935301EC2FF0E0EF5BFD4FD49172
:10496000862F90E0FC01EF5BFD4F1491FC01EC5BA6
:10497000FD4F649180911A012091180145E951E0A1
:10498000DA018130F9F4DF91CF911F910F91FF90FF
:10499000EF90BF90AF909F908F90089516968C9156
:1049A00016978F110EC08C918C130BC0CD01880F00
:1049B000991F85599140FC01848595858C3D9540D2
:1049C00010F311968A2F841B821740F3E62E689409
:1049D000E3F810928C0110928B0181EF809391018A
:1049E00010927F0110928001109281011092820139
:1049F000D0DE88E088B9E7B814B915B98C2F0E94C9
:104A0000EB078C018F2D0E94EB0714B81092550113
:104A1000109254014C01801A910A80915401909196
:104A20005501843F914030F088E087B988B914B8C7
:104A300015B8A9CFD5B9D4B90E949B0714B815B839
:104A40000E94A207A8958C2F0E94EB075C01A80C7E
:104A5000B91C80915401909155018E37910520F039
:104A60002BE4A216B10404F33DE2A31631E0B30631
:104A70000CF030C2809154019091550101969093B1
:104A8000550180935401C9CFC501F5E1AF16F5E09A
:104A9000BF060CF440C17DDE15B88FE087B988E011
:104AA00088B9BD2EBB0CB4B880E480937B0084E54C
:104AB00080BF8C2F806480937C0087E180937A0094
:104AC0000E94A50710925501109254011092800087
:104AD000109285001092840087E286BB81E2809369
:104AE0006F0081E080937C01B5B890911A019530F8
:104AF00009F0D0C18093810081E090E00C2E01C0CC
:104B0000880F0A94EAF780958F7087B9F89483B775
:104B1000817F83BF80917C01882389F083B7816086
:104B200083BF7894889583B78E7F83BFF894A895C8
:104B3000809154019091550180389C4059F77894A8
:104B400010928100A0908600B090870010926F00B4
:104B500087E980937A0014B815B88C2F0E94EB0770
:104B60002091360130913701821B930B0C96909364
:104B70009401809393018091540190915501803468
:104B8000964008F051CF8091540190915501909337
:104B90008A0180938901B0928801A092870184EFF5
:104BA0008093910180915401909155018234910537
:104BB000C8F060918701709188018091890190917E
:104BC0008A0124E630E040E050E00E94823B2093DE
:104BD0008701309388014093890150938A0186EFC1
:104BE00080939101A0917D01B0917E012091870178
:104BF000309188014091890150918A010E94DB3BEC
:104C000020E436E040E050E00E94823B20938701A0
:104C1000309388014093890150938A0120937F014A
:104C200030938001409381015093820141DE809155
:104C30009101843F09F056C080907F0190908001DF
:104C4000A0908101B0908201F0EA8F16FFE09F06EC
:104C5000A104B104C0F4A50194012C543F4F4F4F5F
:104C60005F4F60EA7FE080E090E00E94823B820E2E
:104C7000931EA41EB51E80927F0190928001A09287
:104C80008101B092820180907F0190908001A0907C
:104C90008101B09082018114910421E0A206B10447
:104CA00008F0FCC09092C3018092C2018091530130
:104CB00090E0865B9C4F0E94033D90E0B0E0A0E056
:104CC00088159905AA05BB0508F0EFC0881A990A4E
:104CD000AA0ABB0A80927F0190928001A092810172
:104CE000B0928201D4B980917F0190918001A0910E
:104CF0008101B09182014997A105B10508F082C0F8
:104D000093CE0E949C078C2F0E94EB07880D991D63
:104D1000A8950F5F1F4F2091540130915501201726
:104D2000310778F74501881A990A181419040CF00C
:104D3000AEC029EC821691040CF076CE28EE33E05A
:104D4000D4010E94D53B95010B2C000C440B550B54
:104D50000E94823B890180915401909155010196F6
:104D6000B0E0A0E08093870190938801A09389012F
:104D7000B0938A01C501880D991D0E94B008209149
:104D80008701309188014091890150918A01DC01AD
:104D90000E94DB3B609387017093880180938901B7
:104DA00090938A0160937F017093800180938101C9
:104DB0009093820187EF809391017ADD80907F014B
:104DC00090908001A0908101B09082018DE293E0EB
:104DD0000E94033DA8EEB3E0A81BB10987FDB3957F
:104DE000A50194010E94E53B24E630E040E050E05C
:104DF0000E94823B20937F01309380014093810188
:104E00005093820180911801882329F080911A0122
:104E1000853009F009CE88E080931A0180919101D4
:104E2000909192019817C4F08913FECD80907F0174
:104E300090908001A0908101B09082014091830107
:104E40005091840160918501709186014815590542
:104E50006A057B0508F0E8CD40917F015091800103
:104E6000609181017091820140938301509384018C
:104E700060938501709386018093920110938E0157
:104E800000938D01F0928F01C0939001CDCD10E081
:104E900000E061CF80938100E7B838CE81E090E0F8
:104EA0009093C3018093C20101CF34E1830E911C22
:104EB000A11CB11C88169906AA06BB0610F40E9414
:104EC000DA1310927F0110928001109281011092EA
:104ED000820108CF0091540110915501011511056F
:104EE00009F4D2CDC50110E000E015CF1F921FB626
:104EF0001F9211248F939F93B59904C080917C01D8
:104F0000811109C0B59B10C08091860090918700E7
:104F10008A3F910548F48091540190915501019682
:104F200090935501809354019F918F911F901FBEC4
:104F30001F9018951F921FB61F9211248F939F9355
:104F400010927C01B09B10C08091860090918700E8
:104F50008A3F910548F48091540190915501019642
:104F600090935501809354019F918F911F901FBE84
:104F70001F901895B0E0A0E0E0ECF7E20C94763CCE
:104F800088E893E19093210180932001909333016D
:104F9000809332018EEB80932E01C8E0C8B988E17E
:104FA00087B90E94AA07C7B984E00E94E707AC014D
:104FB0008B5C9840833F9140A0F481E080933D0159
:104FC0002091320130913301AFEBB9E00E94C63B32
:104FD0009A0150E040E00E94823B309321012093EF
:104FE00020018091200190912101909333018093C1
:104FF00032018EE00E94EB078EE00E94E70790935B
:105000003701809336010E945D08C3DB88E0F82EEB
:10501000F8B8C9E0C7B985E185B9D1E0D4B980E075
:105020000E94E7078C019AE0D92ED7B824E0B22E6F
:10503000B4B881E00E94E707080F191F3CE0E32E97
:10504000E7B840E1C42EC4B882E00E94E707080F29
:10505000191F15B8C8B9C7B9D4B980E00E94E707CD
:105060000E944F08EC01D8B8D7B8B4B881E00E94CC
:10507000E7070E944F08C80FD91FE8B8E7B8C4B8BF
:1050800082E00E94E7070E944F08C80FD91FF7B8B7
:10509000F8B814B880913201909133016C01CC0CB6
:1050A000DD1CC80ED91EC8018C0F9D1FC81AD90A55
:1050B000F12CE12C9801A0E9BAE10E94C63BA701BE
:1050C00096010E94823B49015A0130933C01209392
:1050D0003B019E01A0E9BAE10E94C63BA7019601EF
:1050E0000E94823B30933501209334012057354E86
:1050F00030931E0120931D0180E7881A85EE980ADF
:10510000909215018092140189E180932E01CDB710
:10511000DEB7ECE00C94923CCF92DF92EF92FF92DC
:105120000F93CF93DF93F82EC62FD42F0E942D0D0F
:105130008DE191E00E943B0D00D26C2F8F2D0E94DB
:105140007239C090C601D090C701E090C801F090BC
:10515000C9018091220187FD05C0C114D104E10479
:10516000F10421F089E191E00E943B0D8C2F0E9417
:105170002D0DC114D104E104F10431F00E94920616
:10518000809161010E94F606DD2309F459C08091E7
:105190003E018D3008F054C08650990B8C5A9C4FBC
:1051A0000E943B0D80E00E94BA0BCD28CE28CF286C
:1051B00009F449C06091C6017091C7018091C8018E
:1051C0009091C90103E028E447EF0E94800D8CE232
:1051D00091E00E943B0D8FE593E00E940B3D23E0A0
:1051E00046E464EF0E94600E8091BE019091BF0181
:1051F000A091C001B091C101892B8A2B8B2BF1F1B9
:1052000080E00E94BA0B6091BE017091BF01809155
:10521000C0019091C10104E028E440E00E94800DAB
:1052200087E291E00E943B0D23E040E26FEF809126
:10523000C4019091C5010E94600E0E94990B25C087
:105240000E94990BAFCF809161010E94F606809178
:1052500022018E3F4CF684E491E00E943B0D609168
:10526000AD017091AE018091AF019091B00103E06A
:1052700028E4409122010E94800DB6CF80E00E9478
:105280009F0B809141018823C1F2DF91CF910F9153
:10529000FF90EF90DF90CF900895EF92FF920F93E1
:1052A0001F93CF93DF93182F0E94F00A80918F01F4
:1052B0000E942D0D80E691E00E943B0D83D360910A
:1052C0008F01809190010E941309EC0190938C0151
:1052D00080938B01E0908D01F0908E01CA3F8FEF9B
:1052E000D80720F48EE191E00E943B0D809190015F
:1052F0000E942D0D112309F445C090913E018DE0CF
:10530000891B0E94B70A89E690E00E943B0D0E942B
:10531000810B60918301709184018091850190914E
:10532000860104E026E4409192010E94800DCA3F6C
:10533000DF4F68F48FE491E00E943B0D22E04DE1E5
:105340006EEF80918B0190918C010E94600E0E9403
:10535000990B0E94890BE114F10469F088E491E053
:105360000E943B0D22E045E26FEF80918D0190910C
:105370008E010E94600E0E94990BCDB7DEB7E6E069
:105380000C94983C0E94990BC2CF8F7021F40E941C
:10539000910B0C94071A08958F3021F490913801E5
:1053A000913011F08F5F089580E00895CF9384E7E6
:1053B00090E00E9463326AE080E00E94C00A88E5C3
:1053C00093E00E943B0DC0E00E94B10F60E082E0DC
:1053D0000E94AF2162E080E00E94AF210E94F00AAB
:1053E00080917A018823C9F041E062E080E094DE98
:1053F0008C2FCBDF88EE93E00E94FA0E811109C05A
:1054000080911301843028F48C2FC6DFC82F8A3F87
:10541000D8F20E94F70ACF91089584E790E00E94A5
:105420003B0D88E593E00E943B0D0E94810B8FE3CA
:105430000E94BD0C80E00E949F0B0E94990BD8CF68
:105440000F931F93CF93DF93C0E0D8E012EF0DE0EE
:105450000E94B10F60E082E06BDAD0931A01809174
:105460009101843FE1F480917F0190918001A091AE
:105470008101B091820184369105A105B10578F4CE
:1054800040E060E082E00E94323760937F017093D9
:10549000800180938101909382011093910180910A
:1054A0009101823F6CF18093920180917F019091F4
:1054B0008001A0918101B09182018093830190933A
:1054C0008401A0938501B093860181E0E6DE8C2FF4
:1054D0005CDF88EE93E00E94FA0E81110AC0809191
:1054E0001301843030F48C2F57DFC82F8A3F08F423
:1054F000AFCF0E94F70ADF91CF911F910F910895CE
:105500000E94F00A8DE690E00E943B0D80913E01E2
:10551000902F981B892F0E94B70A89E690E00E947D
:105520003B0D0E94810B8FE30E94BD0C0E94990BE2
:105530000E94890B0E94990BCACFA6E1B0E0E3EA72
:10554000FAE20C94703C82E08093220180911A016F
:10555000813009F0DFC180917A01813009F0DAC130
:105560004090610124E0429EF0011124EE54FE4F70
:1055700080819181A281B381893032E59307A105B1
:10558000B10508F0C7C11C01712C81E0871508F432
:10559000C5C1842D0E94EC06982E892EE92FF0E0DB
:1055A000EC5BFD4F549090E0FC01EF5BFD4FE4910C
:1055B00015B828E028B9372D3170632E20EF221658
:1055C000310408F0B2C13111B0C100911401109141
:1055D000150100591A4121E030E002C0220F331FAB
:1055E0008A95E2F7C9018529886087B934E1398B4A
:1055F000892D0E94E4075C01882D0E94EB0724E0BE
:10560000A216B10410F4049728F039893150398B6F
:105610003111EECF80E480937B0094E590BF892D1B
:10562000806480937C0027E120937A00F12CE12CA8
:1056300010928000109285001092840087E286BB51
:105640000E94A507872D90E09A8B898B611076C107
:1056500081E88093810058B886B385FF78C128E03F
:1056600028B91092810030E236BB2091860030913B
:105670008700690140918400509185002417350707
:1056800008F473C187E980937A00B4E15B2E892D19
:105690000E94E4075C01882D0E94EB0724E0A2161B
:1056A000B10410F4049718F05A945110F0CF809080
:1056B0003B0190903C01820C931C800E911E209126
:1056C00016013091170100398AE1180708F055C119
:1056D00069E191EEC916D104E104F10430F4C60188
:1056E00065E070E00E945B3B645128523109261B43
:1056F000310967FD339566E0862F90E0B0E0A0E0C9
:105700008C159D05AE05BF0508F040C1C81AD90A21
:10571000EA0AFB0A662029F08AE3C80ED11CE11CC4
:10572000F11C90EAE916F10418F0C12CD12C760195
:105730008BE0C816D104E104F10428F091E0C91A05
:10574000D108E108F108B12CA12CA8EEB3E00E9429
:10575000C63B6B8B7C8B8D8B9E8BA0913201B09165
:10576000330198010E94C63BA50194010E94823B2F
:10577000442755276B897C898D899E890E94823BAD
:10578000C9010E94EF08FC01A5019401C701B601FF
:105790000E94403B4B015C01BF0190E080E0E4E0EF
:1057A000660F771F881F991FEA95D1F76B5F7F4FB0
:1057B0008F4F9F4F2AE030E040E050E00E94823B54
:1057C00044275527C501B4010E94823BE989FA8923
:1057D000EE0FFF1FEE0FFF1F81E090E08C0F9D1F6B
:1057E000E80FF91F2083318342835383611018C06F
:1057F00094E1C916D104E104F10490F07394E989AD
:10580000FA893196EE0FFF1FEE0FFF1F81E090E047
:105810008C0F9D1FE80FF91F208331834283538330
:10582000A895739493E0971508F0AFCE88E088B9F7
:1058300084E00E94B40791E00D811E812F8138859C
:1058400049815A816B817C81401751076207730738
:1058500008F090E00D851E852F85388949855A8589
:105860006B857C8583E0401751076207730708F05A
:1058700082E024E0829FD001112421E030E02C0F4F
:105880003D1FA20FB31FE92FF0E0EE0FFF1FEE0F39
:10589000FF1FE20FF31F0D911D912D913C9140814F
:1058A000518162817381041715072607370708F0B5
:1058B000892F34E0839FF001112421E030E02C0F88
:1058C0003D1FE20FF31F408151816281738140933C
:1058D000AD015093AE016093AF017093B00180FDB4
:1058E00059C030EF2316310408F054C08BEF809379
:1058F00022018091AD019091AE01A091AF01B091D4
:10590000B001892B8A2B8B2B11F41092220188E095
:1059100087B914B86696E2E10C948C3C842D0E9401
:10592000EC0698278927982737CEE4B9852D88601B
:1059300087B9009114011091150158CE58B80E94F2
:10594000AE0790E296BB81E88093810085CE80FF10
:1059500083CE91E096BBA89597012F5F3F4F7901C9
:10596000203A310509F078CE7ACE80FF8BCE21E047
:1059700026BB3FEFE31AF30A85CEC40168E57BE15D
:105980000E945B3B695F285D3F4FB6CEC12CD12C96
:105990007601C0CE8CEF80932201CB01BA016B5F00
:1059A0007F4F8F4F9F4F2AE030E040E050E00E9451
:1059B000823B2093AD013093AE014093AF015093F1
:1059C000B00197CFB0E0A0E0E8EEFCE20C94723CAE
:1059D00000918D0110918E010115110509F092C001
:1059E000E0918F01F0E0EC5BFD4FD491D860E09145
:1059F0009001F0E0EF5BFD4FC4910E94C92388E065
:105A000088B915B8D7B9C4B9809190010E94EB0745
:105A10007C01D09192018CE08D0F843008F072C02F
:105A20008091830190918401A0918501B0918601BC
:105A3000D15F2C013D0125E0420E511C611C711CFF
:105A4000C301B2012AE030E040E050E00E94823B16
:105A500049015A01DA01C901DF5FD73051F72AE560
:105A6000421623EC52066104710408F04BC00597FE
:105A700008F448C0C5B9C4B9D0E0C0E0C815D9051C
:105A800008F445C014B815B8A89585E080932E0198
:105A9000809190010E94EB07EC01CE19DF09E81616
:105AA000F90610F0D0E0C0E0D12CC12CC814D90404
:105AB00090F1809190010E94EB0729E120932E0143
:105AC000A895E816F90618F48C010E191F090C1791
:105AD0001D0788F49E01201B310B69F0A4EFB1E093
