:1000000001C3000011C300000FC300000DC30000B6
:100010000BC300000C94FC2C07C300000C94080ACE
:1000200003C3000001C300000C9467210C94EB2C67
:100030000C94F02C0C944321F7C20000F5C2000090
:100040000C94CA2CF1C20000EFC20000EDC2000007
:10005000EBC200000C94090AE7C20000E5C20000F0
:10006000E3C20000E1C20000E62FF72F903009F450
:100070009395E5B8C4B8B6EFB0937A00A5E0A09325
:100080007B00A8E0A093810010928000AFEFA093C6
:100090008500A0938400A6E0A093360010928B0008
:1000A00010928A00B3E0AFE3A91B51E0392F33303F
:1000B0002AF0A05CBC4F53953350F9CFB093890020
:1000C000A0938800A0917A00A4FFFCCFB6EBB09378
:1000D0007A00A2E0A0936F00A9E0A093810062E003
:1000E000A0E0A0937B00A1E0A09353008895E5B821
:1000F000C4B884FF1AC0A8E10000AA95F1F7EF93F5
:10010000FF93E7B1F8B1A4E0C2FCA2E0C0FCA1E01B
:10011000BF2FBA2BAE2BB8B904B9A7B9E7B9F8B954
:10012000FF91EF910BC00C947300ACE10000000054
:10013000AA95F1F725B9E5B8000004B9A0918400AB
:10014000A0918500B0918900A395AB1760F7A091AD
:100150007A00A4FFF3CFB6EBB0937A006A9571F7FB
:100160006091780070917900308186FD630F619312
:10017000308186FD731F80FF7193652F4A9579F753
:1001800010926F0010928100B6E0B0937A0008954B
:10019000496473733D00312D032D3320342D3330EA
:1001A0006E46284C29005245465F523D0052454656
:1001B0005F433D00203E3130306E460066706E0673
:1001C0006D006B4D010410090A0C00111111131D73
:1001D0001010041F111111111F04001E0203021E32
:1001E0000000000F0818080F00001113171F171345
:1001F000110011191D1F1D1911001B1B1B1B1B1B9F
:100200001B005244533D005B435D00312D032D33F1
:100210002000312D04052D77772D332000432B4509
:100220005352405450313A3300433073616D702063
:10023000004330200052695F4C6F3D0052695F48B7
:10024000693D0052303D0052482F524C002B52481D
:100250002D203132203133203233002B524C2D20CF
:1002600031322031332032330052482B0052482D96
:10027000005248663D005265663D00494345733D66
:1002800000494345303D0056657273696F6E2031F9
:100290002E31336B002D77772D002D04052D002A8C
:1002A000012020007A20513D002069662000204076
:1002B000302D3556002D022D002D012D004E6F746E
:1002C0002063616C696272617465642120466F729B
:1002D000FF63616C6962726174696F6E20636C6147
:1002E0006D70207468652033FF70696E7320746FC1
:1002F00067657468657220616E64207374617274DE
:10030000207769746820746865FF6B65792E2041D9
:10031000636B6E6F776C65646765207468652073C6
:10032000656C662D746573742077697468207468D1
:1003300065206B65792077697468696EFF32732E6A
:1003400020446973636F6E6E6563742070696E73A9
:1003500020616674657220746865FF6D65737361F2
:100360006765202269736F6C617465FF50726F62FC
:100370006521222069732073686F776E2E20536F7A
:1003800066747761726520616E6420646F63756D59
:10039000656E746174696F6E206973206174206783
:1003A00069746875622E636F6D2FFE6B75626934B8
:1003B0003800202049723D004C3D0020566C6F7380
:1003C000733D00204553523D005643433D00436575
:1003D0006C6C21002D032D004056673D00205674A3
:1003E0003D0055663D005562653D00203132333D8C
:1003F00000504E50004E504E00433D00423D002DF7
:1004000049474254004A464554002D4D4F5300443D
:100410004320507772204D6F6465004F4B0042615E
:10042000742E2000436F6E7472617374004672659F
:100430007175656E63790073686F72742050726FA6
:10044000626573210053656C66746573740043289C
:10045000064629636F7272656374696F6E0031308E
:100460002D6269742050574D00662D47656E657288
:1004700061746F7200537769746368206F666600F9
:1004800053686F772064617461005472616E7369A0
:1004900073746F720053656C656374696F6E3A00B4
:1004A0005465737420456E640069736F6C61746584
:1004B0002050726F626573210053656C66746573BA
:1004C00074206D6F64652E2E0054696D656F7574B0
:1004D0002100206465746563746564004E6F2C2090
:1004E000756E6B6E6F776E2C206F720020756E6B61
:1004F0006E6F776E00546879726973742E0054724F
:1005000069616300706172740064616D6167656444
:100510002000656D70747921007765616B0054650A
:100520007374696E672E00B903870358032E03079F
:1005300003E402C302A40288020000140029003E62
:10054000005300690080009700AE00C600DF00F88D
:100550000012012D01490165018201A001BE01DEE9
:1005600001FF012102440268028E02B502DE020987
:1005700003350364039403C803FE0337047304B410
:1005800004F90443059305EA054906B3062907AEB5
:10059000074808FF08DE09FD0A930C480F991B70F5
:1005A0005780508D4A6645E340E83C5E3933365A01
:1005B00033C6306D2E492C532A8428DA264E25DF87
:1005C0002389224A212020081F011E091D201C43C7
:1005D0001B731AAD19F1183F189517F4165A16C661
:1005E000153A15B3143214B7134013CE126112F832
:1005F0001193113111D31078102020202020205B7E
:10060000524C5D0011241FBECFEFD8E0DEBFCDBF3E
:1006100021E0A0E0B1E001C01D92AA3BB207E1F7E2
:100620000E94820E0C94ED35EBCC80FD5C9A80FF2D
:100630005C98549A00005D9A559A589859985A981F
:100640005B9864FD589A509A65FD599A519A66FDD7
:100650005A9A529A67FD5B9A539A00005D9819D195
:1006600087FD10C05D9A589859985A985B9860FD1C
:10067000589A61FD599A62FD5A9A63FD5B9A00008F
:100680005D9807C1089597FF09C08F939F938DE2EE
:1006900008D49F918F91909581959F4F67E171E06C
:1006A0004AE050E00E948C3561C4EDDF01C0EBDF11
:1006B00080E2F7C38DE2F5C38DE3F3C3EF92FF92BF
:1006C0000F931F93182F062FF42E8BEE93E059D41F
:1006D000EE24E0913201F09133018685E81611F4A1
:1006E000812F09C08485E81611F4802F04C0858508
:1006F000E81611F48F2DD5D3E3948E2D833049F76E
:100700001F910F91FF90EF900895682F80E092E085
:10071000662309F491E0623009F481E008950F93B3
:10072000082FE2EAF1E0880F880FE80FF11D6081E1
:10073000718182819381643671058105910568F428
:100740002091150127FD09C0802FDFDF692FF3D12C
:100750006EEF23E04EE1BFD504C04FEF04E02EE181
:10076000D6D4A6DF0F910895863058F4E1E9F1E080
:10077000E80FF11DE80FF11D8081918163E0B6D58E
:1007800097CF08951F93182F80916B01882319F03C
:100790008FDF80E086D3E1D382EE93E0F2D3812F26
:1007A00082958F70E1DF812F8F70DEDF1F910895BA
:1007B0008091020182958F7018D080910201837020
:1007C0001AD080910201DECFE5E8F1E0E80FF11DDB
:1007D0000895CF93F9DF9081C681C91710F405D031
:1007E00001C012D065DFCF910895EEDF8F93808135
:1007F0008AD38F9100C08F9389EB92E0C2D38F91FF
:10080000E3DF868180C30895DFDF8F9386817BD30A
:100810008F9100C08F9385EB92E0B3D38F91D4DF9B
:10082000808171C308958F932F932AE080953B9A1E
:10083000089410F4439802C0439A000020D027D0B7
:1008400086952A95B1F72F918F91089503D002D004
:1008500001D000D000D003D002D001D000D000D011
:1008600003D002D001D000D000D0A89503D002D090
:1008700001D000D000D003D002D001D000D000D0F1
:1008800003D002D001D000D000D003D002D001D0DC
:1008900000D00000089582E090E0893C28F0885C58
:1008A00048EC849FC0011124009709F408954091F9
:1008B0008100477019F0D9DF0197F6CF813091059B
:1008C00019F002975EE303C057E180E090E04091A9
:1008D000B200450F4093B30042E04093700047E000
:1008E00043BF889546E043BF10927000A895DCCFC7
:1008F0008F9384E0D1DF06C08F93CDDF03C08F9349
:1009000081E0CADF8F911F93182F106410937C0031
:10091000E12FE07880912201E81759F0E09322015D
:10092000AEDF8EE980937A0083E083BF889582E012
:1009300083BF20E030E0A901E0E01FC08EE9809392
:100940007A0083E083BF889582E083BF609178005E
:1009500070917900260F371F411D511DE43061F45D
:1009600080912401803041F084E02030380720F469
:1009700017FD02C01068CACFEF5F80912101E81710
:10098000E8F2609125017091260117FF04C0609183
:1009900023017091240180E090E00E9402342FEF47
:1009A00033E040E050E00E944434B901CA01209194
:1009B000210130E040E050E00E944434C9011F9121
:1009C00008959B01281B390B50F0C9010895BC0103
:1009D00080912501909126016817790718F4861BEC
:1009E000970B089580E090E0089589E290E00E94DE
:1009F000C7352091290130912A01280F391F2093F2
:100A00000B0130930C0183E0283E380720F0C90128
:100A1000885E934002C080E090E062E370E00E9454
:100A20001D34683008F067E0E7E2F5E0E60FF11DFD
:100A3000E60FF11D459155912591359162E3681BB3
:100A4000421B530B649FC001659F900D1124499672
:100A500062E370E00E941D34620F731F70936E0199
:100A600060936D018BE290E00E94BF35992787FD6E
:100A700090956091290170912A01860F971F90939C
:100A800024018093230190936A0180936901089562
:100A90000F9221E08C32920710F48CE291E08C529C
:100AA000914069E170E00E941D3499E16B3210F0D1
:100AB000982F6BE2981BEFE9F5E0E60FF11DE60FCA
:100AC000F11D4591559125913591692F421B530B8D
:100AD000649FC001659F900D11240C9669E170E040
:100AE0000E941D34620F731FCB010F900895CF93A6
:100AF000DF9324E130E0B9010E941D34DC01E9E319
:100B0000F5E0E60FF71FE60FF71FC591D591459168
:100B100055914C1B5D0B4A9FC0014B9F900D5A9FF6
:100B2000900D1124B9010E941D346C0F7D1FCB0163
:100B3000DF91CF910895AEE1B0E0E1EAF5E00C94E9
:100B40002C35662EB82E860F898320910F01283010
:100B500059F52091730130917401409175015091C4
:100B6000760157FD15C01091820109C0CA01B90173
:100B70002AE0312D412D512D0E9444341F5F173F33
:100B8000ACF391F4243160E036074105510518F4C7
:100B90008FEF9FEF41C1173F39F480E028178DE7B1
:100BA00038074105410510F020E03DE72C8B3D8BD7
:100BB00026EDA22EE7ECF1E0E60DF11D85918860AF
:100BC0008E87E7ECF1E0EB0DF11D859188608F8752
:100BD000E4ECF1E0E60DF11D7590E4ECF1E0EB0DD5
:100BE000F11DC59090EC692AB92A81E0E82EF12C1C
:100BF000012D112D8E831F82188619861A861B8659
:100C00001C861D86188E198E1B8E1A8E0E94961DAC
:100C100088E088B960927C0032DE3F8537B975B8CC
:100C200074B852E05A95F1F70000000014B815B8F6
:100C3000DD243E8537B975B874B860927C00A895FC
:100C4000A0927A0080917A0086FDFCCF20907800F7
:100C500030907900B0927C004C2DE2D02091780049
:100C600030917900288B398B3F8537B9C5B8C4B826
:100C7000A895B0927C00A0927A0080917A0086FDBF
:100C8000FCCF609178007091790060927C00472DD4
:100C9000C7D0409178005091790014B8CB01820DF3
:100CA000931DE80EF91E011D111DEA82FB820C83C3
:100CB0001D8388899989840F951F2E813F816885BE
:100CC0007985280F391F611D711D2E833F83688729
:100CD000798722E32417150648F075B874B8D9DD72
:100CE00014B815B8888D8395888F07C0483E73E087
:100CF000570718F08A8D83958A8F888999892817D4
:100D0000190658F03E8537B9C5B8C4B8C2DD14B865
:100D100015B8898D8395898F07C0883E73E0970742
:100D200018F08B8D83958B8FD3945D2D5F3F49F0A9
:100D30005F3731F45C2D550FC50E572D550F750ECD
:100D400078CF40902E0150902F01440C551C9201F9
:100D5000E4E0240D351DEA95E1F72901570168010A
:100D60006E807F808884998420910F012830C1F49F
:100D70006C897D89812D912D655070408040904017
:100D80009B01AC010E9402349B01AC0160E779E752
:100D900086E190E00E944434621A730A840A950A3C
:100DA000A614B704C804D90428F46A187B088C0870
:100DB0009D0803C0662477244301B20180E090E0DF
:100DC0009301A4010E9402349501A6010E944434BB
:100DD00081E090E07981870F911D0E94BF35682ED8
:100DE000C90160E170E00E941D34260F371FC90160
:100DF0006816190618F4861991090EC08C5E9F4F6B
:100E00008615910538F48C899D89843981E198078C
:100E100008F020D7812D912D6E96E2E10C94483593
:100E2000109281001092800010926F0010928B003F
:100E300010928A0057E056BB5FEF509385005093A5
:100E4000840055E050937B0056EB50937A0051E0BC
:100E50005093810058E25A95F1F7000045B944B922
:100E600055E05A95F1F7000014B815B810928100BA
:100E700080917A0084FFFCCF80937A000895CF930D
:100E8000C82F1C1614F0CF91089512DCC150F9CF71
:100E900080913101809300018091A1018093010133
:100EA0000895CF93C82F809131018F5F80933101D6
:100EB0006C2F81E0BADBE4DCC63058F482E5C43044
:100EC000A0F4C23079F0A8F48EE3C13099F08C2FF1
:100ED0000CC0CE3191F08DE2CD3239F0C630B9F789
:100EE00085E703C08CE79FDC8CE39DDCA895CF9160
:100EF00008958CE798DC8CE7F8CF8FE494DC88E6E3
:100F000092DC8DE6F2CF8F5CCCCF0895682F80E025
:100F10008CDBB6CC089560933101813021F480ECF4
:100F2000860FF4CF089580E8FBCF60910001809197
:100F30000101F1CF08958DE076DC8AE074CC08954C
:100F40001092A10180E8E2DF10923101F4CF089500
:100F500081E0DCDFA0DCF4CF089581E08093A10183
:100F600080ECD4DF10923101E6CF0895CF93DF9368
:100F7000EC018991811103C0DF91CF91089591DF38
:100F8000F8CFCF93DF93EC01FE018491882319F011
:100F900088DF2196F9CFDF91CF9108950F931F93AA
:100FA000CF93DF93EC018C01085F1F4FFE0184910A
:100FB00078DF21960C171D07C9F7DF91CF911F919C
:100FC0000F910895CF9384E167DC83E39FDF82E391
:100FD0009DDF61DC80E090E00E94BF35C82F89E290
:100FE00095DF89E293DF8CE191DF8C2F829587700A
:100FF00080658CDF8EE68ADF8C2F8F70806786DFBE
:1010000088E284DFA5DF8CE081DF86E07FDF88E493
:101010007DDF82EF91E0C2DF80E578DF8AEE91E04C
:10102000BDDF88E573DF8AEF91E0B8DF80E66EDF31
:1010300082EE91E0B3DF88E669DF8AED91E0AEDF12
:1010400080E764DF8AEC91E0A9DF80E45FDF82ED76
:1010500091E0A4DFCF9108959091310180E1891B47
:101060000ECF0895CF93C82FF7DF8091A1018F5F36
:101070008093A101823060F081E08093A101809390
:1010800034016C2F8091A10146DF55DFCF91089587
:1010900010923401F6CFE6DF75D18091A101833043
:1010A00008F049CF08954CDFD7DF4ACF089555DFC8
:1010B000D3DF53CF08950F9389EF93E062DF409120
:1010C00081014D3F6CF460916F01709170018091CE
:1010D00071019091720103E026E419D00F910895F7
:1010E0008FE3DFDEFBCF90910E019F70923071F4A1
:1010F000D2DF82E092E045DFE0913201F0913301EE
:1011000022E04EE16FEF84819581E5C00895AEE065
:10111000B0E0EDE8F8E00C942E35842E922EA02E4F
:101120006B017C01802F8F70B82E80E389838A83C6
:101130008B838C838D838E83F7FE40C0BBDAF09463
:10114000E094D094C094C11CD11CE11CF11C93E02C
:1011500068EE462E63E0562E612C712CB91609F408
:1011600041C084E050E1452E57E2552E612C712C90
:10117000B816C1F195E040EA442E46E8542E6624A4
:101180006394712CB91671F186E030E4432E32E499
:10119000532E3FE0632E712CB81621F197E074E6D0
:1011A000472E512C612C712CB9121CC020E8422E04
:1011B00026E9522E28E9622E712C14C005FFC7CFF4
:1011C0008BE26FDEC4CFC701B6016B5F7F4F8F4FDD
:1011D0009F4F2AE030E040E050E00E944434690133
:1011E0007A018394C414D504E604F70460F7E1E1BE
:1011F000E80D0BEAE09FE12D11241E2F169586E0E5
:101200008819809F012D11240695902F990F090FA1
:10121000801B082F3E0187E0680E711C2AE0A301A5
:10122000C701B6010E946B35F30101900020E9F778
:1012300031977F01E618F7082E2D802F90E0049655
:101240008E159F0514F41F5F0D5FE12FF0E0E4544D
:10125000FE4F14918A2D8071A4FE05C08B2D8E192E
:101260002B1508F080E0AE2CA01AA80E1A1424F05A
:101270008EE217DE802F8E19011102C098EFA92E81
:1012800000E0C82ED12CEC0CFD1C0A2C000CBB0875
:10129000E02FF0E0EE15FF0564F0112311F0812F2F
:1012A00000DE992011F0892DFCDD2E96E0E10C94F2
:1012B0004A353696EC19FD0981E090E08C0F9D1FB0
:1012C000E80FF91F8081EDDD0F5F0A151B0401F7A0
:1012D0008EE2E7DDDDCF0F93362FBC0190E080E09A
:1012E000022F242F432F13DF0F9108950F93062F02
:1012F000BC0190E080E026E54DEF09DF0F910895F5
:101300000F93042F28E440E002DF8AE7CADDD0D93A
:101310000F910895EF92FF920F931F93CF93DF9356
:10132000F82EE92EC5E64F9B1BC0CF2DDE2D15E50F
:1013300000E0D7FD0FC0AFDA110F4F9B1F5F1F7387
:101340001F3399F4011103C0CF2DDE2D04E00F5F90
:10135000083C78F0802FCDB7DEB7E6E00C9454352A
:1013600081E09ADAC150F9F6E0CF111102C0011103
:10137000F1CFA8951C161D06E4F62A97D1F6CFEFFB
:10138000DFEFD7CFCF9384DDC82F8091340188233E
:10139000C1F0813049F4C13039F46FE0BCDD8BE23B
:1013A00080DD6FE081E0B7DD80E49FE1B3DFC13035
:1013B00039F480913401813019F460E0ACDD4CDE09
:1013C000B4DDCF91089540910D01A0913201B0910B
:1013D0003301E5E8F1E030E020E0822F2417B0F49B
:1013E00051911C969C911C97591719F05581951392
:1013F00003C02F5F3F4FF1CF220F331FF901EF568C
:10140000FE4F20813181293E334008F084E1089568
:101410001895189510920F0110920D011092640109
:101420001092440110920E011092300110926B0143
:10143000EFE4F1E0108211821282EFE6F1E0108A0F
:1014400082E0818B10921501178616861482158210
:101450001682178281EF838B08958FE4E4D986E4A6
:10146000E2D986E4E0D967DD5E98F3D990E080E0C8
:1014700051CF08951F93CF93DF93162F98E097B91C
:1014800098B9E82FF0E0EC53FE4F949195B9262FD0
:10149000281BE20FF11D27FDFA95E491E92BE4B931
:1014A00032DAEC01812F2FDAAC0120912501309145
:1014B000260136952795C9010397BE01625E7F4FCD
:1014C0008617970778F4255E3F4FC217D30750F46D
:1014D000BA01625E7F4F8617970720F481E04217BA
:1014E000530708F080E014B8DF91CF911F91089561
:1014F000CF9361E080E0BEDFC82F62E080E0BADF1A
:10150000C80F62E081E0B6DF8C0FCF910895AFE0A5
:10151000B0E0EDE8FAE00C942C35B82E10920F01F3
:10152000807FB9F4E5DF833081F412DD89EB94E04C
:1015300028DD13DD8FE3B5DC80ED97E0EBDE8B304B
:10154000B0F406DD87E892E01CDD2F96E2E10C9412
:10155000483506E910E0FCDC87E394E012DDC8DFE3
:10156000833009F065C01F5F143008F462C0F5DCF9
:101570000E94872183E492E004DD60E083E090E054
:101580000E94CC3560E084E090E00E94CC3560E0C1
:1015900082E090E00E94CC3560E082E0CCDA6C0121
:1015A0009A83898361E082E0C6DA7C019C838B8325
:1015B00060E081E0C0DA8C019E838D8323E040E20D
:1015C0006EEFC60188DE23E040E26EEFC70183DEE6
:1015D00023E04EE16EEFC8017EDE2AE5C216D1049B
:1015E00024F084E190E09A838983698183E090E02C
:1015F0000E94CC358AE5E816F10424F084E190E0FD
:101600009C838B836B8184E090E00E94CC350A350B
:10161000110524F084E190E09E838D836D8182E04A
:1016200090E00E94CC3582E080933401ABDE06C0AE
:1016300010E088E231D9015009F08DCFEB2DEF7029
:10164000EF87E13009F04DC0EE24E394F12C68EB14
:10165000862E62ED962E67E4A62EB12C72E0D72E70
:1016600008E0E0E23E2EC12C1E2D42E2242E1FDDBA
:101670001ADD84E516DCC70111D81AD8113009F03B
:10168000C1C186E792E07DDC64E080912901909100
:101690002A012CDE62DC81E792E073DC80916D012F
:1016A00090916E010E944E038EEB8093210107B949
:1016B00008B914B815B888EE93E02CDE143011F098
:1016C0008B3020F4C39484E0C812D1CF88EE93E02D
:1016D00021DEEFEFEE1AFE0AF8E0EF16F10409F052
:1016E000C2CF18E705DF81117FC232DC8CE392E0C4
:1016F00048DC23E04EE16FEF8091270190912801B3
:10170000EADD2BDC85E392E03CDC23E04EE16FEF89
:1017100080912E0190912F01DEDD82E080933401D3
:1017200031DE10920F0114DC81E392E02ADC60E0EC
:1017300082E00E94651E4090770150907801609091
:10174000790170907A015C864B8661E082E00E94AC
:10175000651E8090770190907801A0907901B090FB
:101760007A019E868D8660E081E00E94651E009170
:101770007701109178011E830D8362E080E00E9462
:10178000651E80917701909178019C838B8362E044
:1017900081E00E94651E80917701909178019A877F
:1017A000898761E080E00E94651EE0907701F090FB
:1017B0007801FA82E982C2010E945703C4010E94A3
:1017C0005703B801110F880B990B03E026E444EF8F
:1017D0009EDC2F85213009F012C282E0E80EF11C58
:1017E000F886EF828E010F5F1F4F6E01EFE0CE0E85
:1017F000D11CF801819191910A97853B9105C8F41C
:10180000EC15FD05B9F732E2E32E30E0F32EF801D6
:1018100060810E5F1F4F6E5EC7010E94CC35FFEFE7
:10182000EF1AFF0A0C151D0591F797DB8BE194E089
:10183000A8DB82E080933401A5DD0E94A9302F85CA
:10184000213029F080912D01823009F0C6C080DB63
:1018500080E059DB84ED93E094DB82E054DB84EBA1
:1018600091E08FDB90E4F92E10E02AE0822E912C9B
:10187000A12CB12CCFDD10920F0160E082E00E941C
:10188000651E0091810120916F013091700140919E
:10189000710150917201073F0CF4BDC100938101A9
:1018A00020936F0130937001409371015093720146
:1018B000073F09F0B8C120563109410951092039C3
:1018C00035454105510508F0AEC160918301709125
:1018D0008401CB018B569F4F8B32914008F0A3C1FE
:1018E0001F5F153008F4A0C189E290E00E94DA354C
:1018F0002FDB8DEA91E045DB80918301909184019B
:101900000E94430372D888E088B989E087B980E2F1
:1019100084B982E00E948304853D9340D4F714B8D3
:10192000109224011092230182E00E9483047C0122
:101930008091690190916A01909324018093230121
:1019400082E00E9483046C01CC0CDD1C1092240107
:101950001092230182E00E9483044C01A09069014F
:10196000B0906A01B0922401A0922301F6DA86EACF
:1019700091E007DB8BE290E00E94BF35182FD70182
:10198000A80DB91DAC19BD0995010E9491349601AD
:101990000D2C000C440B550B0E9466341D5F120F7A
:1019A000612F8BE290E00E94CC35812F012E000C3C
:1019B000990B0E94430319D882E080933401E2DC42
:1019C00010922D018CE0A2DA82E290E00E94BF35F5
:1019D000682F85E290E00E94CC3589E18093210157
:1019E00080E00E94BC33B4DA87E892E0CADAB5DA64
:1019F00080EA94E0C6DA10920F0182E0809334010D
:101A0000C1DCA3CD123091F5209125013091260142
:101A1000A8E5BBE10E94823424EC36E340E050E0CC
:101A20000E946634290181E085B9F5E0F4B980E0CF
:101A30000E947804841995099A83898381E184B985
:101A400080E00E947804841995099C838B8384E04C
:101A500085B984E184B981E00E94780484199509EC
:101A60009E838D838BE592E08CDA37C0133059F575
:101A7000D5B82AE024B980E00E947804209125019D
:101A8000309126013695279538872F83821B930B3B
:101A90009A83898324B880E00E9478042F81388556
:101AA000821B930B9C838B8305B988E284B981E008
:101AB0000E9478042F813885821B930B9E838D832F
:101AC0008DE492E0D1CF1430D1F489EA94E059DA70
:101AD0000FDD882311F0F2E0CF2E3FDA89819A8161
:101AE0000E9443030E9458038B819C810E94430300
:101AF0000E9458038D819E810E944303D8CD1530EA
:101B0000B1F415B8D4B880E00E9478049A83898330
:101B100004B981E00E9478049C838B8334B882E00E
:101B20000E9478049E838D838DE692E09DCF1630CF
:101B300051F5D4B8D5B880E00E94780420912501F1
:101B400030912601821B930B9A83898304B905B9CE
:101B500081E00E9478042091250130912601821BAA
:101B6000930B9C838B8334B835B882E00E94780451
:101B70002091250130912601821B930B9E838D833A
:101B800089E692E071CF173009F0A7CF20912501A7
:101B900030912601A8E5BBE10E948234A5019401A1
:101BA0000E9444342901D5B8E3E0E4B980E00E9402
:101BB0007804841995099A83898305B9FCE0F4B9FE
:101BC00081E00E947804841995099C838B8335B841
:101BD00020E324B982E00E947804841995099E8349
:101BE0008D8387E492E040CF62DA89EA94E0C9D934
:101BF00084E60E944C04115009F074CD76CD80919A
:101C00002D01823009F4E9CDF886EF8210922D0182
:101C10008CE07CD9E7CD0F5FCA01B901A501940121
:101C20000E94443438CE10E098D960916F017091D1
:101C30007001809171019091720104E026E440915D
:101C4000810165DA09DA88E20E944C04FA94F11005
:101C500011CEC3CE80912D0181110DC082E290E0A2
:101C60000E94BF3561E0680F85E290E00E94CC35AC
:101C700081E080932D010895EF92FF920F931F93BF
:101C8000CF93DF93D62FE82FF0E0E953FE4FE49196
:101C9000E8B9E860E7B915B8E62FF0E0EC53FE4F7D
:101CA000E491E4B9CE2FCC0F88E8E82E83E1F82E3A
:101CB0008D2F0E9478048C01C4B98E159F0500F108
:101CC000892BC9F082EB93E05CD9D80120EA36E891
:101CD00041E050E00E94973428E937EB40E050E0C3
:101CE0000E944434C90122E041E467EFF4DA88E05D
:101CF00087B988B914B8CDB7DEB7E6E00C9454358F
:101D00007801D6CF80E48AB98BB9D6E8D0937A002F
:101D10001092C1000E942B04C4B7C87084B7877F9B
:101D200084BF0FB6F894A895809160008861809375
:101D30006000109260000FBED093640088E380932F
:101D40007E001092B00087E08093B10078943AD979
:101D5000C1111CC580E185BF0E946A2F4F9908C040
:101D60000E944B04CF5FCC33C9F780E69DE604C0E8
:101D70008FE59DE6CF31C8F7909308018093070166
:101D8000109222010E94872188E19FE00FB6F8940B
:101D9000A895809360000FBE90936000CC3309F447
:101DA00056C028E0722E30E1632E48E1542E55E3F0
:101DB000852E51E0952E65E5A62E61E0B62E71E2E6
:101DC000372EE2E14E2EC4D877B824DB0E9487215B
:101DD000B7D8EAD480913001882369F0BED889EC65
:101DE00093E0CFD863E080912501909126017EDABF
:101DF00088EC0E944C04B1D80E94961D80910F017E
:101E0000893051F5A5D88EEC93E0BBD8A6D863E015
:101E10008091490190914A0169DA0E94580363E078
:101E200080914B0190914C0161DA0E94580363E06C
:101E300080914D0190914E0159DA8AEC0E944C0438
:101E400081E165DB809107019091080192C10E94B8
:101E5000ED2A8111FCCFA5CF8CE058D885E290E027
:101E60000E94BF35C82F82E290E00E94BF35C81B98
:101E7000C0932D01CC2311F08EE048D880E047DBE1
:101E800016D98EE195E07DD883E00E94130453D8E3
:101E900042E061E080E0F8D442E060E081E0F4D428
:101EA00041E062E080E0F0D441E060E082E0ECD428
:101EB00040E062E081E0E8D440E061E082E0E4D428
:101EC00080910F0181110EC00E94961D60E082E09A
:101ED0000E94651E61E082E00E94651E60E081E074
:101EE0000E94651E35D89092330180923201809114
:101EF0000F018630A1F485EF94E043D841E467E414
:101F000083E40E945E0329D882EE93E03AD862E02F
:101F10008091390190913A01E9D90DD893CF87305A
:101F200039F48EEF94E02DD842E367E481E3E9CF02
:101F30008830D9F480917F0190918001890F992791
:101F4000991F029771F40E9408248CE00E94860772
:101F500080912D01882309F403C4D2E010E000E051
:101F6000ECC380E00E941A236DCF833009F00DC1CD
:101F700080910D01813009F073C080E00E94E90377
:101F80006091850180918B0177DE80E70E94C2031A
:101F900040E06091850180918B010E94CF2F60937A
:101FA0006F0170937001809371019093720180E0D2
:101FB00072D860916F017091700180917101909160
:101FC000720102E026E442EFA2D80E945A0341E0E7
:101FD0006091850180918B010E94CF2F60936F01EA
:101FE00070937001809371019093720126E442EF27
:101FF0008ED88FEA92E00E94C1070E949B070E9440
:102000009B0780916B01882309F41CCF57B88091FE
:102010000701909108017ED977B80E94A8078091A6
:102020000D01805D0E9451078FE992E00E94C10777
:1020300020916B01222309F446C380915201213083
:1020400009F0DCC20E94850320915201213009F081
:10205000D0C220910D012111CCC20E94C62375CFA0
:10206000823079F582E30E9451078FE992E00E9465
:10207000C1079091850130918601931308C080E0DB
:102080000E94040481E00E94FB0381E07FCF209145
:102090008B0180918C01281307C080E00E94F5031A
:1020A00081E00E940A04F1CF321306C081E08093E0
:1020B00002010E94D803A3CF98133DC06092020191
:1020C000F8CF8330C1F523E32093020180918B0187
:1020D00090918601891303C021E020930201409171
:1020E000850130918C01431302C06092020120915E
:1020F0008701821303C082E08093020180918D01E9
:10210000481303C040E24093020132130EC04092D4
:102110000201981302C03092020183E30E9451072A
:102120008FE992E00E94C107C4CF9817A1F3809174
:102130000201823290F384E095E00E94C1078CEEA8
:1021400094E00E94C1070E94AD0780910D01805D5F
:102150000E9451078AE20E94510789EB92E00E9497
:10216000C10782ED94E00E94C1070E949B0780E4B2
:102170009FE157B84F9BFECFCDD8823308F4B0C251
:102180000E94ED2A8111FCCF1ECE843009F049C196
:1021900080916401882309F467C0809144018823F9
:1021A00009F462C060914101809143010E94651E63
:1021B000C0906F01D0907001E0907101F0907201B9
:1021C000C091810160916301809161010E94651E4F
:1021D0008091350190913601A0913701B09138017D
:1021E00040915501509156016091570170915801ED
:1021F000843FE1E09E07A105B10538F4443FF1E0DA
:102200005F076105710508F0C0EF443F514061056B
:10221000710540F4843F9140A105B10518F080EFAD
:1022200080938101809181018C1311C080916F0195
:1022300090917001A0917101B0917201C816D906F8
:10224000EA06FB0630F08CE080930E0105C0C8174B
:10225000D4F79DE090930E0180916401882321F0D2
:1022600080914401811122C080910E018C3039F59A
:1022700085EF93E00E94C10780916401882319F0E3
:1022800080E70E9451070E9458039DD8C82F8530CF
:1022900070F580910E018C3001F590914201809192
:1022A0004301891700F185EB92E01FC04F99DCCF05
:1022B00080910E0191E0892780930E01D5CFB092D5
:1022C0003301A092320181EF93E00E94C107809117
:1022D00044018823C1F28EE6D4CF909162018091AF
:1022E0006301981700F789EB92E00E94C10743E46D
:1022F00062E485E40E945E030E94AD078CEF93E0E8
:102300000E94C107E0913201F09133016081718137
:102310008281938103E020E04EEF0E9487080E94B3
:10232000580389E40E945107E0913201F091330192
:10233000868197818031974208F46FC085E60E94BC
:102340005107E0913201F0913301868197818051EC
:102350009742978386830E945C03E0913201F0915B
:10236000330122E041E46AEF868197810E946B0984
:1023700080E00E944B0886EE93E00E94C107E09146
:102380003201F091330163E0848195810E947609E6
:10239000E0913201F091330180859185892B91F094
:1023A00080E00E944B0881E892E00E94C107E09122
:1023B0003201F091330123E041E46AEF8085918599
:1023C0000E946B09E0913201F0913301828593857F
:1023D000892B91F080E00E944B088BE792E00E94ED
:1023E000C107E0913201F091330123E041E46AEF4B
:1023F000828593850E946B09C53008F023CD80E06B
:102400000E944B088C2F0E94E90382EE93E00E9409
:10241000C1078C2F0E94B40380CD83E60E94510730
:102420009ACF853009F004CE80910E0184FF3DC023
:1024300080E50E945107B0923301A09232010E94C0
:102440005A0380910E01C82FCF70C43091F585E0FA
:1024500094E00E94C1074FE367E48FE30E945E03AC
:1024600080910E0185FD3EC00E94AD07E0913201D2
:10247000F0913301668584850E94651E0E945B0889
:102480008DED93E00E94C107E0913201F09133019C
:1024900062E0828593850E94760980E00E9473083D
:1024A000C43009F4CFCCC0E09FC08EE40E94510735
:1024B000C6CF85FF0DC084E40E945107C33051F49C
:1024C0008FEF93E00E94C10743E467E485E4C6CF41
:1024D00085E4F2CF8AE094E00E94C10744E467E417
:1024E00083E5BCCF8F70843009F452C080E00E9435
:1024F0003208E0913201F0913301668584850E94B3
:10250000651E0E945B0880E00E944B0889E40E94DF
:1025100051070E945C03E0913201F091330122E007
:1025200041E46AEF868197810E946B0988ED93E010
:102530000E94C107E0913201F091330162E082858F
:1025400093850E947609E0913201F09133018085F4
:102550009185803C924108F0A0CF80E00E944B081A
:1025600089E40E9451070E945C0322E041E46BEF82
:1025700090E080E00E946B0988ED93E00E94C10723
:10258000E0913201F091330162E08085918583CF43
:10259000E0913201F091330184819581892B09F416
:1025A000B2CF80E00E94320880E991E00E94C1072A
:1025B000E0913201F091330122E041E46AEF84813D
:1025C00095810E946B099FCF80E00E944B088C2F61
:1025D0000E94E90382EE93E00E94C1078C2F0E94C3
:1025E000B4030E949B07CF5F80910D01C81760F371
:1025F00029CC40E0692F0E94592224CC90915301AC
:1026000034E0939FD0011124AE55BE4F34E0839F38
:10261000F0011124EE55FE4FED90FD900D911C91AF
:102620004081518162817381C92F4E155F0560071A
:10263000710708F0C82F223041F5980FC3E0C91B7D
:10264000DC2FD69502E00C1B11E0C11112E08D2F9A
:102650000E9483078AE992E00E94C107802F0E94AE
:1026600083078AE992E00E94C107812F0E948307B5
:1026700080E00E94320881E0C11180E00E948F0357
:1026800082E08D1B0E948F03DDCB8091540194E08A
:10269000899FD0011124AE55BE4F24E0C29FF001A6
:1026A0001124EE55FE4F0D911D912D913C914081CD
:1026B000518162817381401751076207730708F0E7
:1026C000BFCFC82FBDCF8CED94E00E94C1070E9400
:1026D000AD0789E095E00E94C10784E095E043CD15
:1026E000811171CB32CCC491C03211F0CE3F09F4CC
:1026F000C82E8F5F31968131B1F7DD2339F13D2F3F
:102700003170232ED0FF0E94A80760E0822D0E9426
:102710008B070E949B07A895DF5FD170212C2C109E
:1027200022C0CC23C9F0020D111DF801E354FD4F66
:10273000E491E03211F40F5F1F4F980123543D4F95
:102740007901F90180E090E1C92ECDCF80E197E2D7
:102750000E948A09882399F280E197E20E948A09FF
:102760000E942D0A30CBF701C491CC23A9F3CF3FAF
:1027700039F40E9458032394FFEFEF1AFF0ACFCFDA
:10278000CE3FC9F38C2F0E945107F5CF0E94A007BE
:1027900089EC94E00E94C1078BEC0E944C040E94DB
:1027A0002D0A90E080E008950F931F93CF93DF935D
:1027B00085E00E94830485E00E947F048C01EC0187
:1027C000CC0FDD1FCC0FDD1FCA56DF4F10922B013F
:1027D000C43883E0D80770F48FE094E00E94C1070A
:1027E0000E942C0881E080932B01DF91CF911F91F3
:1027F0000F9108958EE194E00E94C10762E0CE013E
:102800000E9476090E9458030A3F86E01807B0F438
:102810000333164060F482E195E00E94C1070E94F4
:102820002C088DEC0E944C040E942D0ADECF89E119
:1028300095E00E94C1070E942C08D7CF8BE194E05D
:10284000F8CFFC019C01261B370BCA0170E060E049
:10285000A901460F511D452F5527620F240F351F23
:10286000AC01470F511D452F5527780FDA01AA0FEC
:10287000BB1F8A0F9B1F4B3E20F4E217F30740F764
:10288000089590E080E00895A9E1B0E0EAE4F4E181
:102890000C942C35582E462E342EA895E62FF0E0B9
:1028A000EC53FE4F24912E87220F2F8B33963491B9
:1028B0003A8BE42FF0E0EC53FE4F4491498333967A
:1028C00084918F83E52DF0E0EC53FE4F2490922D00
:1028D000990F9F87339624912B8328602C8338602F
:1028E0003A8345B9EE84E42AE4B827B93B8138B984
:1028F000862F0E947F049D878C874E8544B9842D46
:102900000E947F043C0114B80E94340415B8E4B856
:10291000842D0E947F046C857D850E94E1046C01FA
:102920008A8187B988E088B9998192299D8395B970
:1029300094B9852D0E947F040E94E7044C0115B8CC
:102940000E94340425B8852D0E947F040E94E7046C
:102950008C0124B8852D0E947F040E94E704B82EC4
:102960009987B801C4010E94E1048032E1E09E072A
:1029700030F4F0E2CF16F1E0DF0608F4CAC5C00E6D
:10298000D11E2C853D85820F931FC816D90620F4D1
:102990001D870C876B2C7984209144018091640100
:1029A000820F9927991F02974CF0213009F0B1C589
:1029B00090914101809161019813ABC5D980DD0CE4
:1029C000FE84FD283D2D32293B878C859D858437EB
:1029D000910508F4AAC10A96880F991F681679060E
:1029E00008F0A3C19C8197B9EB81E8B9F4B8842DB4
:1029F0000E947C048C01832D0E9483047C01D5B845
:102A0000842D0E947C049801295A3D4F28173907CC
:102A100008F0B9C088E088B9FA81F7B92B8524B9E4
:102A200025B9832D0E947C0488349F4008F470C02F
:102A300085E080930F0182E280930E0110933A01AA
:102A400000933901B701C8010E94EC049093400142
:102A500080933F019801A0E1B7E20E948234209167
:102A6000090130910A0150E040E00E944434309363
:102A70003C0120933B018F898D2984B915B84C8185
:102A800047B98B8188B9832D0E9483048C01842DE2
:102A90000E947C04B8010E94EC049C0190933E01CA
:102AA00080933D0190910E019F709430B1F188E0C8
:102AB00088B99F81EA819E2B97B924B8FD81F5B929
:102AC000852D0E947F048C010E94E7049E838D83E4
:102AD000842D0E948304E0901001F0901101BC014C
:102AE000C8010E94EC049701DC010E948234ED8150
:102AF000FE819F0150E040E00E94443430933A014F
:102B000020933901809144018F5F8093440189C3F0
:102B100085E080930F0184E28FCF40913B0150917B
:102B20003C0160913F0170914001C9018ADE00972C
:102B3000F9F0D4B8EA89FC81EF2BE7B9842D0E9423
:102B40007C048C0188E087B99801A0E1B7E20E947B
:102B5000823420912E0130912F0150E040E00E94FC
:102B60004434A901B80180913D0190913E0169DE94
:102B700090933A018093390180910E018F708430D7
:102B800009F4C0CF94CF88E088B92A8127B93B8562
:102B900034B935B9852D0E947C048C01832D0E94A7
:102BA00083047C0125B8852D0E947C04895A9D4FA1
:102BB0008017910708F0ADC44B8148B98C8187B963
:102BC000832D0E947C04813D934008F06EC085E017
:102BD00080930F0182E380930E01B801C7010E9428
:102BE000EC049093600180935F01C8010E94E704A8
:102BF0009C01A0E1B7E20E94823420911001309143
:102C0000110150E040E00E94443430935C01209375
:102C10005B01F8E0F8B92A8127B98F858D2984B93D
:102C200085B9852D0E9483048C01832D0E947C042C
:102C3000B8010E94EC049C0190935E0180935D01B9
:102C400090910E019F709430A9F1EB813F81E32BAD
:102C5000E8B94C81342B37B915B88D8184B9852DED
:102C60000E947F047C01842D0E9483049E838D83B7
:102C70000091090110910A01BC01C7010E94EC04F6
:102C80009801DC010E948234ED81FE819F0150E0B9
:102C900040E00E94443430935A01209359018091BE
:102CA00064018F5F8093640154C185E080930F01BC
:102CB00084E391CF40915B0150915C0160915F0191
:102CC00070916001C901BDDD009721F1D5B8D4B87C
:102CD000FB81F8B9EC812A81E22BE7B9852D0E94AE
:102CE0007C040E94E7048C0138E037B99C01A0E124
:102CF000B7E20E948234209127013091280150E0F0
:102D000040E00E944434A901B80180915D01909196
:102D10005E0197DD90935A018093590180910E01D5
:102D20008F70843009F4BBCF90CF88E088B94A8196
:102D300047B925B88B8584B9852D0E947F04998B6E
:102D4000888B0E94E70498878F83832D0E948304D9
:102D50009A87898783010C591F4FEF81F885B3014A
:102D60000E171F0708F0F7C0CF010E94EC049C8BE0
:102D70008B8B209110013091110150E040E060E810
:102D800071EA83E09CE10E944434AB89BC890E94D3
:102D90009734E985FA859F0150E040E00E94443471
:102DA00049015A0114B815B8FB81F8B92C8127B92B
:102DB00081E00E944C04E4B8842D0E947F048F358A
:102DC0009D4008F474C1F4B8842D0E947C04998F4E
:102DD000888F832D0E9483049C8B8B8B852D0E9472
:102DE00083049E8B8D8B8B899C89813D974008F451
:102DF000E6C084E080930F018DE080930E01288D62
:102E0000398D8901061917096216730610F0088DAD
:102E1000198DC0900901D0900A01F12CE12C60E8D5
:102E200071EA83E09CE1A70196010E944434D80135
:102E30000E949734EB89FC899F0150E040E00E949A
:102E4000443480916401882371F080915501909100
:102E50005601A0915701B091580182179307A4071A
:102E6000B50708F099C0209355013093560140935F
:102E7000570150935801288D398DA0E1B7E20E9487
:102E80008234A70196010E94443430935C01209360
:102E90005B016B897C898D899E890E94EC049093EB
:102EA0005A018093590181E040915501509156019A
:102EB0006091570170915801481559056A057B05C5
:102EC00008F06CC08092550190925601A092570173
:102ED000B092580169857A85888999890E94EC04A5
:102EE00090935A01809359012F813885A0E1B7E270
:102EF0000E948234209110013091110150E040E095
:102F00000E944434205F384D30935C0120935B0174
:102F1000C0900901D0900A01F12CE12C9301A0E1AD
:102F2000B7E20E948234A70196010E944434309394
:102F30005E0120935D012C853D85A0E1B7E20E94F2
:102F40008234A70196010E9444343093600120939B
:102F50005F0181E025C08F8198850E94EC049C8BE5
:102F60008B8BFD81F4B9852D0E947F04998B888B12
:102F70000E94E70498878F83832D0E9483049A8799
:102F80008987BC018B899C890E94EC049C01A4E682
:102F9000B0E00E948234FDCE80E086CF8111B8CFB0
:102FA000909164019F5F90936401882309F478C332
:102FB00030926101409262015092630171C3F1E667
:102FC0006F16710408F073C0288D398D213D47E0DC
:102FD000340708F46CC085E080930F0182E1809390
:102FE0000E01C90186509F4FED89FE898E179F07FC
:102FF00008F043C083E180930E01FA89F770DF2E59
:10300000832D806480937C00EBE0EE2E21E030E0A5
:103010003E832D830FEF13E0A89561E089816FD582
:10302000F4B886B18D21E9F33E8534B980917A00F8
:10303000806480937A0080917A0086FDFCCF809135
:10304000780090917900F801E81BF90B2D813E8101
:103050002E0F3F1F3E832D83EA94E110DDCFC9017F
:10306000880F991F880F991F69E070E00E941D3436
:103070007093600160935F0112CE0091090110917D
:103080000A01688D798D8D899E890E94EC049801D2
:10309000DC010E948234E88DF98D9F0150E040E010
:1030A0000E94443430935A0120935901A6CFF4B8BA
:1030B000D5B8842D0E947F046C01832D0E94830467
:1030C00098878F830E94E7049A8789870C151D05CE
:1030D00008F0A9C0B301C6010E94EC048C01209144
:1030E000090130910A0150E040E060E871EA83E0B4
:1030F0009CE10E944434D8010E949734E985FA8506
:103100009F0150E040E00E94443449015A01FA8195
:10311000F7B988E088B92D8124B925B9852D0E9499
:103120007F048C01832D0E9483049A878987842DD4
:103130000E9483047C01003331E1130708F0E6C1EB
:1031400025B8852D0E947F04998B888B24B8852D06
:103150000E947F049C8B8B8B15B881E00E944C04ED
:1031600025B8852D0E947F04EB89FC89E034F64068
:1031700008F079C08133914108F475C0C8018A56BE
:103180009F4FE889F989E817F90708F06CC086E0D5
:1031900080930F01809144018F5F80934401B701B8
:1031A00089859A850E94EC0490933A0180933901B5
:1031B000B701C8010E94EC049093400180933F0145
:1031C00014B815B8FA89F8B981E00E944C0424B803
:1031D000852D0E947F04853F910518F52D8124B926
:1031E000832D0E947F04813D9340D8F0852D0E945D
:1031F00083048D3D9240A8F024B8852D0E947F0461
:103200008D3D924070F025B881E00E944C0415B8C5
:10321000852D0E947F04853F910518F487E08093F7
:103220000F0181E0F8C0E4B8F981F5B9842D0E945E
:103230007F046C01832D0E94830498878F830E94F2
:10324000E7049A878987C6016C147D0410F48619F7
:10325000970969857A850E94EC049C01A4E6B0E098
:103260000E9482344BCFFA81F7B9298124B925B95C
:1032700081E00E944C043B8534B935B9852D0E940C
:103280007F048C010E94E704998B888B832D0E9418
:1032900083049E838D830E94E7049A878987842D07
:1032A0000E9483047C0189859A858E3F994008F4A9
:1032B000C1C084E080930F018CE080930E01B301C4
:1032C000888999890E94EC048C0120911001309129
:1032D000110150E040E060E871EA83E09CE10E9467
:1032E0004434D8010E949734E985FA859F0150E063
:1032F00040E00E94443480914401882371F0809121
:10330000350190913601A0913701B09138018217B3
:103310009307A407B50708F07AC0209335013093CE
:1033200036014093370150933801B7018D819E815A
:103330000E94EC0490933A018093390128893989DD
:10334000A0E1B7E20E948234209110013091110176
:1033500050E040E00E94443430933C0120933B0114
:1033600081E04091350150913601609137017091B3
:103370003801481559056A057B0508F04AC0809256
:10338000350190923601A0923701B0923801B60112
:103390008F8198850E94EC0490933A0180933901C3
:1033A0009601A0E1B7E20E94823420910901309198
:1033B0000A0150E040E00E944434205F384D3093D1
:1033C0003C0120933B019301A0E1B7E20E948234CB
:1033D0002091090130910A0150E040E00E944434FC
:1033E00030933E0120933D012C853D85A0E1B7E25D
:1033F0000E948234209110013091110150E040E090
:103400000E9444343093400120933F010ACF80E072
:10341000A8CF8111D8CF909144019F5F9093440130
:10342000882309F43DC130924101509242014092FB
:10343000430136C1F1E66F16710408F067C02889B0
:10344000398929343D4008F461C085E080930F013B
:1034500082E080930E01C70186509F4F801791072D
:1034600008F03CC083E080930E010B810770832D30
:10347000806480937C001BE021E030E03E832D835C
:10348000A89560E089813BD33B8534B935B986B1D5
:103490008023E9F724B880917A00806480937A00D1
:1034A00080917A0086FDFCCF809178009091790020
:1034B000ED81FE81E80FF91FFE83ED83115001F7C6
:1034C000CF01880F991F880F991F69E070E00E9453
:1034D0001D347093400160933F0114CBC0901001E4
:1034E000D0901101B701C8010E94EC049601DC01E3
:1034F0000E948234E889F9899F0150E040E00E94EF
:10350000443430933A0120933901AFCF88E087B932
:1035100088B914B815B888E087B9F7EC6F16F1E0F0
:103520007F0608F4E5C088B92F8524B938EC3D83BF
:103530004C818A81482B4F839F8197B981E00E94FB
:103540004C04EA81E7B9852D0E948304429728F054
:10355000FD81F150FD83F111EFCF2F8524B925B9FD
:1035600061E08981CCD2852D0E947F046C013F8966
:1035700034B915B84C8147B98B8188B960E089812D
:10358000BED2842D0E947F040E94E7049E838D8317
:103590009E8594B9842D0E9483048C01852D0E9400
:1035A0007F04B8010E94EC048C01842D0E948304E6
:1035B0007C01852D0E947F04B7010E94EC049801D4
:1035C0002C5E3F4F2817390708F46AC088E088B995
:1035D000EA81E7B924B825B861E0898190D2842DC9
:1035E0000E9483047C01852D0E947F04B7010E9404
:1035F000EC047C010817190708F05EC0FF85F4B9D8
:10360000F5B9852D0E947F04FC01CD82DE828D817B
:103610009E81883426E0920708F060C09C0153E048
:10362000369527955A95E1F748EEE41643E0F406FF
:1036300008F057C0C70164E670E00E941D34C7015E
:10364000875991098938914108F052C0EE15FF055C
:1036500008F04EC08D819E81280F391F2E153F0521
:1036600008F046C06817790708F042C080910F0142
:10367000833018F483E080930F0120910D01822F95
:1036800090E0FC01EB57FE4F50824682880F991F55
:10369000FC01EF56FE4FF182E0822F5F20930D0177
:1036A00088E087B988B914B815B88EE20E9451072E
:1036B0006996E2E10C9448352F8924B915B83C810C
:1036C00037B94B8148B960E0898119D2842D0E94B5
:1036D0007F040E94E704FC01780199CF28EC30E0D8
:1036E000A3CFB70144E0769567954A95E1F7A7CF58
:1036F000642D852D01D0D4CFB0E0A0E0E2E8FBE15D
:103700000C942E35C82FD62FA895862F90E0FC015B
:10371000EC53FE4F5490339624914C2F50E0FA0115
:10372000EC53FE4F149133960491609164013091F3
:103730004401630F7727771F672B09F067C0A895AF
:103740006091130170911401660F771F660F771F48
:1037500070932601609325016091690170916A015F
:10376000660F771F660F771F709324016093230104
:103770003EEB3093210130910D01E5E8F1E0DF01EE
:10378000480F591F9A2F9E1B931718F188E088B98C
:10379000286027B914B915B9B8E1BB2ED12CC12CBA
:1037A0008D2F0E947F04782E692E8C2F0E94830417
:1037B0007C018C199D0997FF03C091958195910912
:1037C00003970CF46BC1A895BA946701B110E8CFC8
:1037D0000AC08D9115966C911597680F7727771F02
:1037E0006417750779F680911301909114019093F5
:1037F0002601809325018091690190916A0190933F
:1038000024018093230189E180932101CDB7DEB7A4
:10381000E0E10C944A3525E8C21621E0D20618F7FB
:10382000043AA2E01A0708F0B1C0B8E9AB16B10437
:10383000D0F2C6010E94E704AC019601A8E9B7EBFB
:103840000E9482349A0150E040E00E9444342901F1
:103850003A01C5010E94E7049C01A8E9B7EB0E9468
:103860008234950150E040E00E94443488E7C81655
:103870008FE0D80608F06EC0F2E0440C551C661CC0
:10388000771CFA95D1F7C301B201620F731F841F31
:10389000951F25E030E040E050E00E944434A4E66B
:1038A000B0E00E9497346B017C01BCEACB0EBDE016
:1038B000DB1EE11CF11C10910F01143008F093CFB6
:1038C000C150DC0F8D2F90E0FC01E15BFE4F2081A9
:1038D000880F991F880F991F8E559E4FDC01222358
:1038E00009F4C1C08D909D90AD90BC90A701960148
:1038F000281939094A095B0957FF07C050954095B7
:10390000309521953F4F4F4F5F4FAAE0B0E00E94A6
:103910009734B4E68B0E911CA11CB11CC80CD91CA9
:10392000EA1CFB1C6C157D058E059F0508F05BCF1E
:10393000133019F081E080930F0182E08083809141
:103940006B01E82FF0E0EE5AFE4FD0838F5F80933B
:103950006B0149CFA8E7AA16AFE0BA0670F4E2E01F
:10396000220F331F441F551FEA95D1F7CA01B90131
:10397000640D751D861D971D8CCF240D351D461DAC
:10398000571D569547953795279589CFC0901001BB
:10399000D0901101672D762DE616F70608F4B701D1
:1039A000C7010E94EC049601DC010E9482342B01C5
:1039B0003C01C7010E94E7049C0150E040E0C301C4
:1039C000B2010E94443429013A01A0900901B0904B
:1039D0000A01892D982D8017910708F4C801B801B4
:1039E0000E94EC049501DC010E948234980150E0B1
:1039F00040E00E94443488E7E8168FE0F806B0F40F
:103A000062E0440C551C661C771C6A95D1F7C30113
:103A1000B201620F731F841F951F25E030E040E064
:103A200050E00E94443469017A0145CF0837AFE085
:103A30001A0770F4CA01B90152E0660F771F881F98
:103A4000991F5A95D1F7640D751D861D971DE5CFF9
:103A500073016201C20ED31EE41EF51EF694E794B4
:103A6000D794C79428CFCD92DD92ED92FC92139714
:103A700081E08083B8CE550C54B88D2F0E947F040E
:103A80005C01B0ECEB16B4E4FB0608F4C4CE80EBAA
:103A9000C8168DE4D80608F0A6CEC2CE110F15B810
:103AA00014B98C2F0E947F048135910508F09BCEBC
:103AB00015B98C2F0E947F046C01802F886087B914
:103AC00008B915B854B8A8E14A2EB12CA12C8C2FF6
:103AD0000E947F04982E892E8D2F0E9483048C01D2
:103AE0008A199B0997FF03C09195819591090397C6
:103AF00014F2A8954A9458014110E9CF74CECF939F
:103B0000C82FC09595B160FF0FC0982B95B994B19F
:103B1000982B94B90E944B0484B18C2384B985B14D
:103B20008C2385B9CF9108959C23F0CFB0E0A0E01D
:103B3000ECE9FDE10C9434351AE008E08FE3C82E7F
:103B400099E0D92E07B908B915B8C4B880E00E9429
:103B50007F047C0181E00E948304EC0182E00E94EA
:103B600083049C0180910F018930A1F488E087B91A
:103B700014B8F0924A01E0924901D0934C01C093ED
:103B80004B0130934E0120934D01CDB7DEB7EAE0F3
:103B90000C94503584E0E816F10448F4C430D105A3
:103BA00060F42430310510F399E092600AC098E087
:103BB00088EEE81683E0F80608F499E0C83ED340A2
:103BC000A0F3283E334008F4946097B9D0E0C0E0F9
:103BD000A89580E00E9478045C0181E00E94830443
:103BE0007C0182E00E94830424E1A21625E0B20653
:103BF00008F4389A24E1E21625E0F20608F4399A2E
:103C0000843125E0920708F43A9A26E0A216B1041E
:103C100030F426E0E216F10410F4069738F021960D
:103C2000C43F81E0D807A1F6D0920F01F12CE12C1E
:103C3000EC16FD0621F4115009F084CFA6CF0E94A6
:103C40003A042FEFE21AF20AF3CFCF92DF92EF920B
:103C5000FF92CF9320916F013091700140917101DB
:103C600050917201C09181018AE0C82ED12CE12CC3
:103C7000F12C8C2FCF5F213A96E8390791E0490764
:103C80005105E0F480938101A0912501B0912601B6
:103C90000E94973428E833E140E050E00E94443429
:103CA00020936F0130937001409371015093720122
:103CB000CF91FF90EF90DF90CF900895CA01B901A6
:103CC000A70196010E944434D4CF8F929F92AF9265
:103CD000BF92EF92FF920F931F93CF93DF93C82F62
:103CE000F62E880F8C0F9FEF960F890F8093460159
:103CF000EC2FF0E0EC53FE4FD491862F90E0FC01C6
:103D0000EC53FE4F1491FC01E953FE4F64918091F6
:103D10000F0120910D0145E851E0DA018130F9F4FD
:103D2000DF91CF911F910F91FF90EF90BF90AF90D7
:103D30009F908F90089516968C9116978F110EC0B4
:103D40008C918C130BC0CD01880F991F8558914021
:103D5000FC01848595858C3D954010F311968A2F42
:103D6000841B821740F3E62E6894E3F810927C01DE
:103D700010927B0181EF8093810110926F0110926C
:103D800070011092710110927201D0DE88E088B942
:103D9000E7B814B915B98C2F0E9483048C018F2DBC
:103DA0000E94830414B810924801109247014C01FC
:103DB000801A910A8091470190914801843F914077
:103DC00030F088E087B988B914B815B8A9CFD5B94B
:103DD000D4B90E94340414B815B80E943B04A895C5
:103DE0008C2F0E9483045C01A80CB91C80914701B0
:103DF000909148018E37910520F02BE4A216B10472
:103E000004F33DE2A31631E0B3060CF030C280911A
:103E10004701909148010196909348018093470192
:103E2000C9CFC501F5E1AF16F5E0BF060CF440C1FE
:103E30007DDE15B88FE087B988E088B9BD2EBB0C50
:103E4000B4B880E480937B0084E580BF8C2F8064CD
:103E500080937C0086E180937A000E943E04109259
:103E60004801109247011092800010928500109234
:103E7000840087E286BB81E280936F0081E08093BB
:103E80006C01B5B890910F01953009F0D0C18093C5
:103E9000810081E090E00C2E01C0880F0A94EAF7BF
:103EA00080958F7087B9F89483B7817F83BF8091A5
:103EB0006C01882389F083B7816083BF78948895EB
:103EC00083B78E7F83BFF894A89580914701909126
:103ED00048018034964059F7789410928100A09060
:103EE0008600B090870010926F0086E980937A0078
:103EF00014B815B88C2F0E948304209129013091A9
:103F00002A01821B930B0C9690938401809383016A
:103F100080914701909148018032934008F051CF41
:103F2000809147019091480190937A0180937901A3
:103F3000B0927801A092770184EF80938101809103
:103F400047019091480182349105C8F06091770152
:103F5000709178018091790190917A0124E630E0A6
:103F600040E050E00E944434209377013093780180
:103F70004093790150937A0186EF80938101A0915B
:103F80006D01B0916E0120917701309178014091DF
:103F9000790150917A010E94973420E233E040E0A9
:103FA00050E00E944434209377013093780140938D
:103FB000790150937A0120936F01309370014093FF
:103FC00071015093720141DE80918101843F09F0BB
:103FD00056C080906F0190907001A0907101B090D8
:103FE0007201F0EA8F16FFE09F06A104B104C0F44D
:103FF000A50194012C543F4F4F4F5F4F60EA7FE083
:1040000080E090E00E944434820E931EA41EB51EF0
:1040100080926F0190927001A0927101B092720132
:1040200080906F0190907001A0907101B09072012A
:104030008114910421E0A206B10408F0FCC0909222
:10404000B3018092B2018091460190E08E5D9F4F56
:104050000E94BF3590E0B0E0A0E088159905AA0560
:10406000BB0508F0EFC0881A990AAA0ABB0A809219
:104070006F0190927001A0927101B0927201D4B957
:1040800080916F0190917001A0917101B0917201C6
:104090004997A105B10508F082C093CE0E9435046E
:1040A0008C2F0E948304880D991DA8950F5F1F4FC8
:1040B00020914701309148012017310778F74501D9
:1040C000881A990A181419040CF0AEC029EC82164B
:1040D00091040CF076CE28EE33E0D4010E949134A6
:1040E00095010B2C000C440B550B0E9444348901A4
:1040F00080914701909148010196B0E0A0E0809343
:10410000770190937801A0937901B0937A01C5016A
:10411000880D991D0E944805209177013091780102
:104120004091790150917A01DC010E9497346093AB
:104130007701709378018093790190937A0160936D
:104140006F0170937001809371019093720187EFFA
:10415000809381017ADD80906F0190907001A09032
:104160007101B090720185E090E00E94BF35A8EE29
:10417000B3E0A81BB10987FDB395A50194010E9486
:10418000A13424E630E040E050E00E944434209323
:104190006F013093700140937101509372018091CF
:1041A0000D01882329F080910F01853009F009CE97
:1041B00088E080930F01809181019091820198178E
:1041C000C4F08913FECD80906F0190907001A09093
:1041D0007101B0907201409173015091740160912E
:1041E000750170917601481559056A057B0508F03F
:1041F000E8CD40916F015091700160917101709113
:104200007201409373015093740160937501709330
:1042100076018093820110937E0100937D01F092DC
:104220007F01C0938001CDCD10E000E061CF80938D
:104230008100E7B838CE81E090E09093B30180939D
:10424000B20101CF34E1830E911CA11CB11C881670
:104250009906AA06BB0610F40E942A0E10926F015E
:1042600010927001109271011092720108CF0091AA
:104270004701109148010115110509F4D2CDC5017E
:1042800010E000E015CF1F921FB61F9211248F93EC
:104290009F93B59904C080916C01811109C0B59BB1
:1042A00010C080918600909187008A3F910548F464
:1042B0008091470190914801019690934801809325
:1042C00047019F918F911F901FBE1F9018951F92BD
:1042D0001FB61F9211248F939F9310926C01B09B75
:1042E00010C080918600909187008A3F910548F424
:1042F00080914701909148010196909348018093E5
:1043000047019F918F911F901FBE1F901895B0E09D
:10431000A0E0EDE8F1E20C94323588E893E1909367
:1043200014018093130190932601809325018EEB55
:1043300080932101C8E0C8B988E187B90E9443048D
:10434000C7B984E00E947F04AC018B5C9840833F36
:104350009140A0F481E080933001209125013091BB
:104360002601AFEBB9E00E9482349A0150E040E0B0
:104370000E9444343093140120931301809113015F
:104380009091140190932601809325018EE00E9464
:1043900083048EE00E947F0490932A018093290178
:1043A0000E94F504C3DB88E0F82EF8B8C9E0C7B96D
:1043B00085E185B9D1E0D4B980E00E947F048C0109
:1043C0009AE0D92ED7B824E0B22EB4B881E00E948A
:1043D0007F04080F191F3CE0E32EE7B840E1C42E2C
:1043E000C4B882E00E947F04080F191F15B8C8B92D
:1043F000C7B9D4B980E00E947F040E94E704EC01B1
:10440000D8B8D7B8B4B881E00E947F040E94E7040E
:10441000C80FD91FE8B8E7B8C4B882E00E947F048B
:104420000E94E704C80FD91FF7B8F8B814B88091F4
:104430002501909126016C01CC0CDD1CC80ED91E03
:10444000C8018C0F9D1FC81AD90AF12CE12C9801C4
:10445000A0E9BAE10E948234A70196010E94443487
:1044600049015A0130932F0120932E019E01A0E9AA
:10447000BAE10E948234A70196010E94443430932D
:104480002801209327012057354E309311012093A6
:10449000100180E7881A85EE980A90920A018092AE
:1044A000090189E180932101CDB7DEB7ECE00C94DE
:1044B0004E35CF92DF92EF92FF920F93CF93DF931F
:1044C000F82EC62FD42F0E9483078AE992E00E941B
:1044D000C10713D26C2F8F2D0E943532C090B601C8
:1044E000D090B701E090B801F090B901809115012A
:1044F00087FD05C0C114D104E104F10421F086E96F
:1045000092E00E94C1078C2F0E948307C114D1043E
:10451000E104F10431F00E945803809152010E949D
:104520008F03DD2309F459C0809131018D3008F0EB
:1045300054C08650990B87509A4F0E94C10780E063
:104540000E944B08CD28CE28CF2809F449C060919D
:10455000B6017091B7018091B8019091B90103E063
:1045600028E447EF0E94870889EA92E00E94C10789
:104570008CE290E00E94C73522E046E464EF0E949E
:104580006B098091AE019091AF01A091B001B09103
:10459000B101892B8A2B8B2BF1F180E00E944B0813
:1045A0006091AE017091AF018091B0019091B10125
:1045B00004E028E440E00E94870884EA92E00E9438
:1045C000C10723E040E26FEF8091B4019091B50103
:1045D0000E946B090E942C0825C00E942C08AFCFB6
:1045E000809152010E948F03809115018E3F4CF6FD
:1045F00088EB93E00E94C10760919D0170919E013C
:1046000080919F019091A00103E028E44091150161
:104610000E948708B6CF80E00E9432088091340162
:104620008823C1F2DF91CF910F91FF90EF90DF903F
:10463000CF900895EF92FF920F931F93CF93DF9344
:10464000182F0E94A00780917F010E94830784EDAC
:1046500093E00E94C10794D360917F018091800113
:104660000E949B05EC0190937C0180937B01E0907C
:104670007D01F0907E01CA3F8FEFD80730F4E1143E
:10468000F10409F467C0111165C0809180010E9496
:104690008307112309F448C0909131018DE0891BF3
:1046A0000E943F0787E092E00E94C1070E94AD0789
:1046B0006091730170917401809175019091760100
:1046C00004E026E4409182010E948708CA3FDF4F40
:1046D00068F483EC93E00E94C10722E04EE16EEFA4
:1046E00080917B0190917C010E946B090E942C08B3
:1046F000112399F0E114F10481F080E00E944B084D
:104700008CEB93E00E94C10722E045E26FEF8091BD
:104710007D0190917E010E946B090E942C08CDB70B
:10472000DEB7E6E00C94543580917D0190917E01D6
:10473000892B69F08BEB93E00E94C10722E045E2F0
:104740006FEF80917D0190917E010E946B090E9424
:104750002C08ACCF8BE992E00E94C10796CF8F70F6
:1047600051F488EC0E944C040E94AD070E94D413BF
:1047700088EC0C944C0408958F3021F490912B0117
:10478000913011F08F5F089580E00895CF9382E11A
:1047900092E051D76AE080E00E948B078DEF95E0B0
:1047A0000E94C107C0E00E940A0A60E082E00E9405
:1047B0007C1B62E080E00E947C1B0E94A00780912D
:1047C0006B018823A9F041E062E080E072DE8C2F6B
:1047D000C6DF88EE93E00E948A09811105C08C2F04
:1047E000CBDFC82F8A3FF8F20E94A807CF91089527
:1047F00082E192E00E94C1078DEF95E00E94C1071F
:104800000E94AD078FE30E9451070E942C08DFCF62
:104810000F931F93CF93DF93C0E0D8E012EF0DE02A
:104820000E940A0A60E082E050DAD0930F01809182
:104830008101843FE1F480916F0190917001A0911A
:104840007101B091720184369105A105B10578F42A
:1048500040E060E082E00E94CF2F60936F01709390
:104860007001809371019093720110938101809186
:104870008101823F4CF18093820180916F01909180
:104880007001A0917101B0917201809373019093B6
:104890007401A0937501B093760181E0CBDE8C2F7B
:1048A0005EDF80ED97E00E948A09811106C08C2F9F
:1048B00063DFC82F8A3F08F4B3CF0E94A807DF91B7
:1048C000CF911F910F9108950E94A0078BE092E075
:1048D0000E94C10780913101902F981B892F0E945F
:1048E0003F0787E092E00E94C1070E94AD078FE377
:1048F0000E9451070E942C08D2CFA6E1B0E0E3E865
:10490000F4E20C942C3582E08093150180910F0124
:10491000813009F0DDC180916B01813009F0D8C18F
:104920004090520124E0429EF0011124EE55FE4FCA
:1049300080819181A281B381893032E59307A105FD
:10494000B10508F0C5C11C01712C81E0871508F480
:10495000C3C1842D0E948503982E892EE92FF0E093
:10496000E953FE4F549090E0FC01EC53FE4FE4916C
:1049700015B828E028B9372D3170632E20EF2216A4
:10498000310408F0B0C13111AEC10091090110919C
:104990000A0100591A4121E030E002C0220F331F02
:1049A0008A95E2F7C9018529886087B934E1398B96
:1049B000892D0E947C045C01882D0E94830424E0E0
:1049C000A216B10410F4049728F039893150398BBC
:1049D0003111EECF80E480937B0094E590BF892D68
:1049E000806480937C0026E120937A00F12CE12CF6
:1049F00010928000109285001092840087E286BB9E
:104A00000E943E04872D90E09A8B898B611074C1BF
:104A100081E88093810058B886B385FF76C128E08D
:104A200028B91092810030E236BB20918600309187
:104A30008700690140918400509185002417350753
:104A400008F471C186E980937A00B4E15B2E892D68
:104A50000E947C045C01882D0E94830424E0A2163D
:104A6000B10410F4049718F05A945110F0CF8090CC
:104A70002E0190902F01820C931C800E911E20918C
:104A80000B0130910C0100398AE1180708F053C17D
:104A900069E191EEC916D104E104F10430F4C601D4
:104AA00065E070E00E941D34645128523109261BD4
:104AB000310967FD339566E0862F90E0B0E0A0E015
:104AC0008C159D05AE05BF0508F03EC1C81AD90A70
:104AD000EA0AFB0A662029F082E2C80ED11CE11C1A
:104AE000F11C90E5E916F10418F0C12CD12C7601E7
:104AF0008BE0C816D104E104F10428F091E0C91A52
:104B0000D108E108F108B12CA12CA8EEB3E00E9475
:104B100082346B8B7C8B8D8B9E8BA0912501B09109
:104B2000260198010E948234A50194010E94443418
:104B3000442755276B897C898D899E890E9444343E
:104B4000C9010E947705FC01A5019401C701B601C6
:104B50000E9402344B015C01BF0190E080E0E3E081
:104B6000660F771F881F991FEA95D1F76B5F7F4FFC
:104B70008F4F9F4F2AE030E040E050E00E944434E5
:104B8000C501B4010E944434E989FA89EE0FFF1F80
:104B9000EE0FFF1F81E090E08C0F9D1FE80FF91FC3
:104BA0002083318342835383611018C09CE0C9166F
:104BB000D104E104F10490F07394E989FA89319603
:104BC000EE0FFF1FEE0FFF1F81E090E08C0F9D1F87
:104BD000E80FF91F2083318342835383A895739490
:104BE00093E0971508F0B1CE88E088B984E00E9480
:104BF0004C0491E00D811E812F81388549815A81B5
:104C00006B817C81401751076207730708F090E0C1
:104C10000D851E852F85388949855A856B857C854C
:104C200083E0401751076207730708F082E024E031
:104C3000829FD001112421E030E02C0F3D1FA20FF4
:104C4000B31FE92FF0E0EE0FFF1FEE0FFF1FE20F83
:104C5000F31F0D911D912D913C91408151816281F5
:104C60007381041715072607370708F0892F34E0EA
:104C7000839FF001112421E030E02C0F3D1FE20F53
:104C8000F31F408151816281738140939D01509354
:104C90009E0160939F017093A00180FD59C030EF89
:104CA0002316310408F054C08BEF809315018091D6
:104CB0009D0190919E01A0919F01B091A001892B2F
:104CC0008A2B8B2B11F41092150188E087B914B848
:104CD0006696E2E10C944835842D0E94850398275E
:104CE0008927982739CEE4B9852D886087B9009146
:104CF000090110910A015ACE58B80E94470490E267
:104D000096BB81E88093810087CE80FF85CE91E0BD
:104D100096BBA89597012F5F3F4F7901203531054C
:104D200009F07ACE7CCE80FF8DCE21E026BB3FEF0E
:104D3000E31AF30A87CEC40160EB76E30E941D34C8
:104D4000695F285D3F4FB8CEC12CD12C7601C2CE11
:104D50008CEF80931501CB01BA016B5F7F4F8F4FB2
:104D60009F4F2AE030E040E050E00E94443420931E
:104D70009D0130939E0140939F015093A00197CFD6
:104D8000B0E0A0E0E6ECF6E20C942E3500917D0157
:104D900010917E010115110509F092C0E0917F018B
:104DA000F0E0E953FE4FD491D860E0918001F0E04B
:104DB000EC53FE4FC4910E94961D88E088B915B847
:104DC000D7B9C4B9809180010E9483047C01D0913D
:104DD00082018CE08D0F843008F072C080917301E5
:104DE00090917401A0917501B0917601D15F2C0171
:104DF0003D0125E0420E511C611C711CC301B20132
:104E00002AE030E040E050E00E94443449015A0179
:104E1000DA01C901DF5FD73051F72AE5421623ECEA
:104E200052066104710408F04BC0059708F448C0AD
:104E3000C5B9C4B9D0E0C0E0C815D90508F445C06B
:104E400014B815B8A89585E0809321018091800160
:104E50000E948304EC01CE19DF09E816F90610F070
:104E6000D0E0C0E0D12CC12CC814D90490F18091BD
:104E700080010E94830429E120932101A895E8166E
:104E8000F90618F48C010E191F090C171D0788F478
:104E90009E01201B310B69F0A4EFB1E00E94823427
:104EA0009E0150E040E00E94443430937E01209304
:104EB0007D010E94961D88E087B988B914B815B89D
:104EC000CDB7DEB7E0E10C944A350E944504229646
:104ED000B3CF0E9445048FEFC81AD80AC5CF8C30D3
:104EE00008F08C50811109C08AE894E00E94C10743
:104EF0000E942C080C949B070895813019F48DE2D0
:104F000094E0F4CF823019F489E694E0EFCF833057
:104F100019F48EE594E0EACF843019F48DE192E043
:104F2000E5CF853019F482E192E0E0CF863019F4C4
:104F30008BE092E0DBCF873019F48EE494E0D6CF9B
:104F4000883019F485E494E0D1CF893019F484E2F3
:104F500094E0CCCF8A3019F480E894E0C7CF8B304E
:104F600039F685E794E0C2CF0F93CF938DE192E0BD
:104F700062D3C0E010920F0160E082E06FD58091B3
:104F80000F01883009F04BC00E94A00783E40E9403
:104F900051070E945C0360917301709174018091CC
:104FA00075019091760103E026E4409182010E9410
:104FB00087080E942C0860917F01809180010E94E7
:104FC0009B0590937C0180937B010E94AD0784EC4C
:104FD00093E00E94C10780917B0190917C018A3F00
:104FE0002FEF9207C0F422E04EE16EEF0E946B09B2
:104FF0000E942C088C2FB3DB88EE93E00E948A0974
:10500000811106C08C2FB8DBC82F8A3F08F4B2CFBD
:10501000CF910F9108958FE30E945107E9CF0E942D
:10502000A0078DE192E00E94C1070E942C080E9417
:105030005708E0CFA5E0B0E0E0E2F8E20C942C35B0
:1050400089E694E0F8D280E18093800010926F00AE
:1050500081E090E0909389008093880010928B000B
:1050600010928A0083E086BB1092820088E08093D1
:10507000810015B891E194B988B989E087B9229A7D
:1050800080938100312C20E03AE0398341E04C8369
:10509000812C912C5401839451E15D83832D90E008
:1050A0000A966EE170E00E9431346B83F62E62172F
:1050B00059F00E94A00789E694E00E94C10710E021
:1050C0001F11D1C00E942C088C8169810E9411346B
:1050D000A92FB0E0A50194010E9497346B017C01D7
:1050E0008D81823150F0652D762D872D902F0E9475
:1050F0004434C60ED71EE81EF91E0E94AD079C81DF
:105100002981212C921306C081E03D81323108F4BF
:1051100080E0282E2A828CE3211005C04D8182E593
:10512000463108F48EE30E9451074D81C701B60154
:105130000E948009C701B6017E5E85489F4FA70186
:105140009601220F331F441F551F0E944434CA0189
:105150004F3F510509F008F48BC08DE0809381002A
:1051600080E094E02C01712C612CCA01B901A301EB
:1051700092010E94443421503109309389002093D8
:1051800088008091880090918900892B31F481E01A
:1051900090E090938900809388000091880010919E
:1051A000890060E079E08DE390E0A30192010E9424
:1051B0004434A4E6B0E00E9497340F5F1F4F98017B
:1051C00050E040E00E94443429013A01A4E6B0E0F6
:1051D000A70196010E949734A3019201261B370B69
:1051E000480B590BCA01B90102E228E44EEF0E94B4
:1051F00087088AE70E9451070E942C0880ED97E0FB
:105200000E948A09882309F46BC0883C08F07AC0A0
:10521000813508F45FC0222009F44AC03D81315035
:105220003D83C501B4012AE030E040E050E00E9437
:10523000443449015A01C701B6010E944434CA01ED
:10524000B9012AE030E040E050E00E9444346A8333
:105250004AE049832A812C83312C2B815C2C6D2CD4
:105260007E2C0F2D1BCF8EE20E9451071F5F28CF8F
:105270004034510530F08CE08093810080E091E073
:1052800071CF4830510530F08BE08093810080E48D
:1052900090E068CF892B31F08AE08093810088E02C
:1052A00090E060CF89E08093810081E090E05ACF68
:1052B0005D81563198F55F5F5D83563111F485E16C
:1052C0008983AAE0B0E0A50194010E9497344B01C4
:1052D0005C01C0CF8B3018F09C819F5F9C83312C88
:1052E0002C81822F90E03981632F70E06F5F7F4FB8
:1052F0000E9431348C83832D3FDA382E4FEE4817CD
:1053000008F0ABCF109281001092800088E087B93E
:1053100014B822982596E2E10C9448355AE0598356
:1053200081E08A83812C912C5401839491E19D83A7
:1053300091CFB0E0A0E0EFE9F9E20C942E358EE5D4
:1053400094E079D183E28093800010926F008FEF18
:1053500090E090938B0080938A0083E086BB10924C
:10536000820015B881E184B988E088B989E087B9FD
:10537000229A21E030E030938900209388008093C6
:10538000810010E080E0C2E3D0E094E6C92ED12C89
:10539000E12CF12C88248A9423E0922EA12CB12CAC
:1053A000C817A1F1C43608F0C4562C2F30E0AFEF77
:1053B000B3E00E9482346E5C7F4F8F4F9F4FA701F6
:1053C00096010E94443429013A0130938B002093C6
:1053D0008A000E94AD07A8EEB3E0A30192010E94EB
:1053E000973461507E4F8F4F9F4FA50194010E94CB
:1053F0004434C90125E045E26FEF0E946B090E9429
:105400002C08D93218F08CE30E944C0480E496E01A
:105410000E948A09D82F833878F40AE0833320F475
:105420000C2F882319F001E00C0F10E0812FA4D974
:10543000182F8C2F103F68F088E087B910928100F8
:105440001092800014B82298CDB7DEB7E0E10C943A
:105450004A35C02FA5CFCF93DF9384E294E0EBD001
:1054600080E090E00E94BF35C82FD0E089E20E9422
:1054700086078C2F8295877080650E9486078C2F07
:105480008F7080670E94860788E20E9486070E94CC
:10549000AD0724E040E260E08C2F90E00E946B09B1
:1054A0000E942C0880E496E00E948A09811110C0B5
:1054B000CF778D2F61D9D82F803FC0F26C2F80E03D
:1054C00090E00E94CC35DF91CF910895C15805C07E
:1054D0008238A0F78932D0F3CF5FD0E0E9CF0F93C5
:1054E0001F93CF93DF938EE494E0A5D085E090E006
:1054F0000E94BF35C82FD0E00E94AD070C2F0C2EA4
:10550000000C110BC7FF25C00E945A0323E045E29F
:105510006FEF88279927801B910B0E946B090E94CF
:105520002C0880E496E00E948A0981111DC0C135D3
:10553000BCF0C5568D2F20D9D82F803FE8F26C2FB4
:1055400085E090E00E94CC35DF91CF911F910F91C3
:10555000089523E045E26FEFC801DFCFC15009C0D5
:10556000CC3E44F7CB59E6CF823848F78932B0F3C6
:10557000CF5FD0E0DCCF813019F480E070C00895B7
:10558000823011F457CD0895833011F4D2CE0895AE
:10559000843011F4E9CC0895853011F4F7C80895EA
:1055A000863021F40E94A80733C90895873011F48A
:1055B00096CF0895883021F481E10C94870A0895EC
:1055C000893011F448CF08958A3011F47FC30895CB
:1055D0008B3011F40C942D0A0895CF93DF9385E955
:1055E00094E029D0D0E0C0E00E94AD078C2F77DC9A
:1055F00080E49FE10E948A098111D0E090912B0103
:10560000913009F4D0E0823390F0CC2341F08C2F1C
:10561000B2DF85E994E00FD0DF5FD83721F480E076
:10562000DF91CF910895CC30F8F2CC50DDCF8823B4
:1056300099F3CF5FF1CFCF93DF93EC010E94A807DE
:10564000CE010E94C107C4E60E944B044F9902C0DC
:10565000C150D1F70E94AD07DF91CF910895A7E027
:10566000B0E0E5E3FBE20C942C358DE294E0E3DF5F
:1056700060EF6B8354980E943A0414BC16BC1092DD
:10568000030110920401109205011092060181E0BD
:1056900085BB80936E0010928000E3E1FAE7F093FF
:1056A0008B00E0938A0081E090E0909389008093E2
:1056B0008800109285001092840083B5816083BDBC
:1056C00096E096BB90936F007894E4E0E0938100BD
:1056D000F2E3F9831A820E943304A8954F9902C01D
:1056E00061E06A8385B5882329F0898181508983A7
:1056F0008111F1CF15BC86B5809303010E94A807E4
:1057000086E60E9451070E945C036091030170913C
:105710000401809105019091060147E00E948009F3
:10572000549880918100882319F08FE30E945107DB
:105730001092810010926F002091030130910401BA
:105740004091050150910601DA01C9010197A109B3
:10575000B109813F9048A105B10508F096C0AAE0C3
:10576000B0E00E949734685F7F4F8F4F9F4F23E0D8
:1057700096958795779567952A95D1F7660F771F48
:10578000709366016093650154980E943A0416BCB8
:10579000109203011092040110920501109206016B
:1057A000F1E0F5BBF0936E00109268011092670172
:1057B00064E06BBB8091680084608093680078949B
:1057C00080916D00806180936D0019820E94330486
:1057D000A8954F9902C081E08A8380916D0084FF73
:1057E00005C099819F5F99839A3F81F715BC80918D
:1057F0006D008F7E80936D00809168008B7F809319
:10580000680086B5809303010E94AD0784E50E947D
:1058100051070E945C03E0916501F0916601FD83F0
:10582000EC836091030170910401809105019091D6
:10583000060128EA31E640E050E00E94A734EC81FE
:10584000FD81612C712C43015F01C12CD12CE12C15
:10585000F12C00E010E00E94D03449014F835E83B8
:105860001B012C018C819D818038910500F107E09E
:1058700023E745EFB4018F81952F0E948708998116
:105880009A3F71F58FE30E94510710926E0080EDF0
:1058900097E00E948A096A81860F29F48B818150E2
:1058A0008B838111E7CE2796E2E10C94483584E69C
:1058B000A82EB12CC12CD12CE12CF12C00E010E051
:1058C00094014F815E81B101C2010E94D034F22F58
:1058D000E42F07E023E747EF6F2F732F8E2FCCCFF6
:1058E00094014F815E81B101C201263E354B4105D5
:1058F0005105610571058105910539F230F20E946B
:10590000A00786E60E9451070E945C0394014F8124
:105910005E81B101C20154012115FAEC3F07FAE999
:105920004F07FBE35F076105710581059105F1F004
:10593000E8F06A017101820120E030E04AE85DE5AB
:1059400068E775E483E691E00E94D034F22FE42FFB
:1059500007E028E44AEF6F2F732F8E2F952F0E94B8
:1059600087088AE70E94510754988FCFCF80DE8046
:105970007101820120E030E44AE750E163EF7AE50B
:1059800080E090E00E94D034F22FE42F07E028E47A
:105990004DEFE1CF8F938FB78F939F93AF93BF93CB
:1059A00078948091030190910401A0910501B09138
:1059B00006019F5FAF4FBF4F809303019093040197
:1059C000A0930501B0930601BF91AF919F918F9174
:1059D0008FBF8F9118958F9386E085BD8F91189515
:1059E0001F921FB61F921124A8951092810015BC1A
:1059F0001F901FBE1F9018951F921FB61F92112453
:105A00002F933F938F939F938091670190916801AB
:105A1000892B11F481E085BD2091670130916801E7
:105A200080916501909166012817390730F015BC07
:105A300080916D008F7E80936D00809167019091C1
:105A40006801019690936801809367019F918F91FF
:105A50003F912F911F901FBE1F901895B0E0A0E0BE
:105A6000E4E3FDE20C943535182F062F862F90E0E5
:105A7000FC01E953FE4FE491FE2E6894F3F8E12F08
:105A8000F0E0EC53FE4FC491FC01EC53FE4FD49177
:105A900010927C0110927B0110926F0110927001A4
:105AA000109271011092720187EF809381010E9420
:105AB000961D88E088B9F7B8D4B9D5B9812F0E946E
:105AC00083046C01802F0E94830414B81092480153
:105AD0001092470130E020E05CE2E52EFF24F394D1
