:1000000032C6000042C6000040C600003EC60000E6
:100010003CC600000C94A63038C600000C94FA0EC2
:1000200034C6000032C600000C9469260C9495304A
:100030000C949A300C94452628C6000026C6000071
:100040000C94743022C6000020C600001EC60000BA
:100050001CC600000C94FB0E18C6000016C600005B
:1000600014C6000012C60000E62FF72F903009F4E6
:100070009395E5B8C4B8B6EFB0937A00A5E0A09325
:100080007B00A8E0A093810010928000AFEFA093C6
:100090008500A0938400A6E0A093360010928B0008
:1000A00010928A00B3E0AFE3A91B51E0392F33303F
:1000B0002AF0A05CBC4F53953350F9CFB093890020
:1000C000A0938800A0917A00A4FFFCCFB6EBB09378
:1000D0007A00A2E0A0936F00A9E0A093810062E003
:1000E000A0E0A0937B00A1E0A09353008895E5B821
:1000F000C4B884FF1AC0A8E10000AA95F1F7EF93F5
:10010000FF93E7B1F8B1A4E0C2FCA2E0C0FCA1E01B
:10011000BF2FBA2BAE2BB8B904B9A7B9E7B9F8B954
:10012000FF91EF910BC00C947300ACE10000000054
:10013000AA95F1F725B9E5B8000004B9A0918400AB
:10014000A0918500B0918900A395AB1760F7A091AD
:100150007A00A4FFF3CFB6EBB0937A006A9571F7FB
:100160006091780070917900308186FD630F619312
:10017000308186FD731F80FF7193652F4A9579F753
:1001800010926F0010928100B6E0B0937A0008954B
:10019000C801BF01B60118000720080808F80000D0
:1001A000002060A03FA06020020202FF02020210B5
:1001B00010101F0000000708FFDBBDB5B5CBFF071F
:1001C00008FFBB9DADADB3FF0708FFFFF7FB81FF45
:1001D000FF10100508F878385888091003081C3EED
:1001E0007F0D080710FF818181F1E1C1FF40404090
:1001F0004743410D080110FFFF11080310F1E1C151
:100200004743410E0008202121122060E0E0E0FE7B
:10021000FE0402010001037F7F21C2C4C4C04094D8
:10022000840007030102040E080210FEFE7F7F0017
:10023000000000110005202060E0E0E00201000164
:1002400003C2C4C4C0400703010204010410010238
:10025000044E6F742063616C69627261746564211D
:1002600020466F72FF63616C6962726174696F6EC0
:1002700020636C616D70207468652033FF70696E57
:100280007320746F67657468657220616E64207393
:1002900074617274207769746820746865FF6B6597
:1002A000792E2041636B6E6F776C6564676520748F
:1002B00068652073656C662D746573742077697446
:1002C0006820746865206B65792077697468696E49
:1002D000FF32732E20446973636F6E6E6563742002
:1002E00070696E7320616674657220746865FF6D55
:1002F000657373616765202269736F6C617465FF54
:1003000050726F626521222069732073686F776E67
:100310002E20536F66747761726520616E6420646D
:100320006F63756D656E746174696F6E206973209B
:100330006174206769746875622E636F6D2FFE6B40
:10034000756269343800B903870358032E03070325
:10035000E402C302A40288020000140029003E0047
:100360005300690080009700AE00C600DF00F8006F
:1003700012012D01490165018201A001BE01DE01CA
:10038000FF012102440268028E02B502DE02090367
:10039000350364039403C803FE0337047304B404F1
:1003A000F90443059305EA054906B3062907AE0794
:1003B0004808FF08DE09FD0A930C480F991B00004E
:1003C00000000000000000000000000000001E21EE
:1003D00021211200807F0000007E4A4A4A3400003A
:1003E00000000000FC402010080402010000000191
:1003F0000101010101010101010101017F0488D016
:10040000E0F0F80000000000000000000000000024
:100410000000000000FC94948400000102FC000035
:10042000000000000000000000001E21212112E059
:10043000C0804020100F000000C02020204000009D
:1004400000FC00009E9E0403030303020000002042
:100450002023242525232020203F00007B7B2142D0
:10046000840480C0000000000000000000000000C4
:100470000000FC94948400040607070708F00000BD
:100480000000000000000000000000803F21211259
:100490000C00000000FF000000F0084848C8000001
:1004A000FE0000E7818181C1E1F1818181010020AD
:1004B00020202121212020203F0000F34040404106
:1004C000434740407FC000000000000000000000E3
:1004D00000000000489494946400000000FF0000B5
:1004E00000000000000000000000000000003F21AC
:1004F00021120C0000FF000000F0084848D0000066
:1005000000000000FEFE04040404040404070008C4
:10051000080809090908087F3E1C08087F7F202079
:100520002020202020E0000000000000000000004B
:1005300000000000000048949494640000FF000054
:10054000000000000000000000FF003C0A090A3C17
:10055000002231292926000082868E9EBEFEFEBE24
:10056000DEEFF6FAFEFEFAF2E2C2820000000808B0
:100570000804027984A4A46800FF000000000000C1
:10058000000000000000000000000000000000006B
:1005900000FF0000F0282428F0001008FC000000F4
:1005A0000000000000000000003C0A090A3C00FFB7
:1005B000000000000000000000000000000000003B
:1005C0000000040C1C3C7CFF7C3C1C0C0400000064
:1005D0000000009EA1A9A99A804323130B0703FFE3
:1005E00003030303030300000000000000000000F9
:1005F00000788484844800FF0000000000000000B0
:1006000000F00804E2110909090909090909091199
:1006100021C2040810E000000001020404070000E9
:1006200000000080402010884423100804030000CC
:10063000000000000000000000FE0100FC020100BC
:1006400000000000000000000000000000000000AA
:10065000007949497900000000000000000000F81E
:10066000FC0242BC18101F0F00040703F0F80C0C2A
:100670000CF8F00C0D0F000F0D0C00F0F00000F066
:10068000F0101F0F0204030700183C66663C1800B8
:10069000000000000000000000000000000000005A
:1006A0000000000000001EFFFF1E000000000C0CF8
:1006B000000000160E0000160E00000000000000F2
:1006C00010FCFC10FCFC1001070701070701387C37
:1006D00044FE448C18060E081F080F07181880C027
:1006E000603018060301000006068CDE7262D21E1E
:1006F0008C03070C0C0603020000002C1C000000F9
:100700000000000000000000E0F80C0600000001FE
:10071000070C18000000060CF8E0000000180C0799
:1007200001004050F0E0E0F0500001010000010144
:1007300000C0C0F0F0C0C0000000030300000000D3
:1007400000000000000000101E0E0000C0C0C0C06D
:10075000C0C0C00000000000000000000000000059
:10076000000000000C0C0000000080C06030180683
:10077000030100000000F8FC864226FCF803070C89
:10078000080C070330180CFEFE00000000000F0FDD
:1007900000000C0E82C2623E1C0E0F0908080C0CF1
:1007A0000406424242FEBC040C0808080F07C0E0E1
:1007B000B098FCFE80000000000F0F003E3E222299
:1007C00022E2C2040C0808080F07F8FC262222E2E5
:1007D000C0070F0808080F07060682C2623E1E0007
:1007E000000F0F000000DCFE222222FEDC070F08B3
:1007F00008080F073C7E424242FEFC000808080C35
:100800000703000000303000000000000606000072
:1008100000000030300000000010160E0000004004
:10082000E0B0180C04000000010306040090909052
:100830009090900000000000000000040C18B0E050
:100840004000040603010000000C0EC2E23E1C0042
:1008500000000D0D0000F80462929294F803040861
:1008600008080000F8FC848284FCF80F0F000000E8
:100870000F0FFEFE424242FEBC0F0F0808080F0792
:10088000F8FC060202060C03070C08080C06FEFE24
:10089000020206FCF80F0F08080C0703FEFE424296
:1008A0004202020F0F0808080808FEFE42424202F8
:1008B000020F0F0000000000F8FC060282868C0385
:1008C000070C0808070FFEFE404040FEFE0F0F0019
:1008D00000000F0F000002FEFE02000000080F0FD4
:1008E000080000000000FEFE00060E08080F0700CA
:1008F000FEFEB0180C06020F0F0103060C08FEFEE8
:1009000000000000000F0F0808080808FEFC30C0B7
:1009100030FCFE0F0F0001000F0FFEFE38E080FEDE
:10092000FE0F0F0000010F0FF8FC060206FCF80393
:10093000070C080C0703FEFE4242427E3C0F0F00EC
:1009400000000000F8FC060206FCF803070C090A88
:10095000050BFEFE828282FE7C0F0F0103060C084F
:100960001C3E226242C28406080808080F070006DF
:1009700006FEFE06060000000F0F0000FEFE00004F
:1009800000FEFE070F0808080F07FEFE000000FE2D
:10099000FE0103060C060301FEFE00C000FEFE037E
:1009A000070C030C0703061EF8E0F81E060C0F03E5
:1009B00000030F0C003E7EC0C07E3E0000000F0F03
:1009C00000000282C262321E0E0F0F0808080808DB
:1009D0000000FEFE02020000000F0F0808001C3895
:1009E00070E0C08000000000000103070000020268
:1009F000FEFE00000008080F0F00040603010306B6
:100A000004000000000000000000000000000010D2
:100A10001010101010100000001C2C00000000002E
:100A20000000000000909090B0E0C0070F0808049C
:100A30000F0FFEFE402020E0C00F0F0808080F0730
:100A4000C0E0301010302003070C08080C06C0E08E
:100A5000202040FEFE070F0808040F0FC0E0B090F2
:100A6000B0E0C003070C08080C0420FCFE22260C92
:100A700000000F0F00000000E0F0101020F0F0095F
:100A80001B12121A1F0FFEFE402020E0C00F0F00A5
:100A900000000F0F000010F6F600000000000F0F1E
:100AA00000000000000000F6F6000C1C10101F0FE4
:100AB000FEFEC0603010000F0F0103060C0800009E
:100AC00002FEFE00000000000F0F0800F0E010E042
:100AD00010F0E00F0F0007000F0FF0E0101010F003
:100AE000E00F0F0000000F0FC0E0301030E0C00337
:100AF000070C080C0703F0E0101010F0E01F1F04B3
:100B000004040703E0F0101010E0F00307040404ED
:100B10001F1FF0E030301070600F0F000000000069
:100B20002070D090107060060E0809090F06101092
:100B3000FCFE1000000000070F080C06F0F000009B
:100B400000F0F0070F080808070F00F0F00000F0B1
:100B5000F00003070C0C0703F0F0008000F0F00336
:100B6000070E030E07033070C080C070300C0E03F8
:100B700001030E0CF0F0000000F0F0091B1212123D
:100B80001F0F30301090D070300C0E0B09080C0C79
:100B9000004040FCBE0202000000070F08080000F1
:100BA00000FEFE00000000001F1F0000000202BE49
:100BB000FC40400008080F07000004060206040677
:100BC0000200000000000000E0F0180C18F0E00146
:100BD000010101010101C0F818181818F8C0000738
:100BE000060606060700FCF8F0E0C0FCFCC00F0794
:100BF0000301000F0F00C0FCFCC0E0F0F8FC000F88
:100C00000F000103070FC0FCFC0000FCFCC0000F3C
:100C10000F00000F0F00F8F8181818181818070719
:100C2000060606060606181818181818F8F8060614
:100C3000060606060707C0C0C0C0C0C0C0C000008E
:100C4000000000000000C0C0008060800080000341
:100C50000C0D020D0C0D60800080608000C0020D44
:100C60000C0D020D0C0311241FBECFEFD8E0DEBF28
:100C7000CDBF21E0A0E0B1E001C01D92A63CB207CB
:100C8000E1F70E946E130C94FD38BAC95D98559A2D
:100C900080FD599A80FF5998519A539A5A9867FD46
:100CA0005B9A67FF5B985A9A5A9866FD5B9A66FF53
:100CB0005B985A9A5A9865FD5B9A65FF5B985A9AB9
:100CC0005A9864FD5B9A64FF5B985A9A5A9863FD40
:100CD0005B9A63FF5B985A9A5A9862FD5B9A62FF2F
:100CE0005B985A9A5A9861FD5B9A61FF5B985A9A91
:100CF0005A9860FD5B9A60FF5B985A9A5D9A5A9881
:100D00005B98089597FF09C08F939F938DE2A6D5B6
:100D10009F918F91909581959F4F62E271E04AE09B
:100D200050E00E949C38E7C5EDDF01C0EBDF80E2B8
:100D300095C58DE293C58DE391C5EF92FF920F9318
:100D40001F93182F062FF42E82E691E0DFD5EE24B4
:100D5000E0913D01F0913E018685E81611F4812F66
:100D600009C08485E81611F4802F04C08585E81633
:100D700011F48F2D73D5E3948E2D833049F71F9195
:100D80000F91FF90EF900895EF92FF920F931F93B2
:100D9000182F062FF42E80E092D488E691E0B6D585
:100DA000EE248E2DA5D5C7DFE0913D01F0913E01E7
:100DB0008685E81611F4812F09C08485E81611F4A0
:100DC000802F04C08585E81611F48F2D47D5AFDF3D
:100DD000E3948E2D833029F71F910F91FF90EF90B0
:100DE0000895682F80E092E0662309F491E0623074
:100DF00009F481E008950F93082FEEEAF1E0880FDF
:100E0000880FE80FF11D60817181828193816436C2
:100E100071058105910568F42091200127FD09C025
:100E2000802FDFDF692FF0D16EEF23E04DE193D605
:100E300004C04FEF04E02DE1AED579DF0F910895A6
:100E4000863058F4EDE9F1E0E80FF11DE80FF11DEF
:100E50008081918163E08AD66ACF08951F93182F0D
:100E600080917601882319F062DF80E0F7D48DD37A
:100E700089E591E04BD5812F82958F70E1DF812F3D
:100E80008F70DEDF1F9108958091060182958F702B
:100E900018D08091060183701AD080910601DECFB0
:100EA000E1E9F1E0E80FF11D0895CF93F9DF9081BA
:100EB000C681C91710F405D001C012D038DFCF9118
:100EC0000895EEDF8F93808113D58F9100C08F93AB
:100ED00087E291E01BD58F91E3DF868109C50895F4
:100EE000DFDF8F93868104D58F9100C08F9383E2DB
:100EF00091E00CD58F91D4DF8081FAC4089503D09E
:100F000002D001D000D000D003D002D001D000D058
:100F100000D003D002D001D000D000D0A89503D0DB
:100F200002D001D000D000D003D002D001D000D038
:100F300000D003D002D001D000D000D003D002D026
:100F400001D000D00000089582E090E0893C28F0B4
:100F5000885C48EC849FC0011124009709F408952F
:100F600040918100477019F0D9DF0197F6CF8130A9
:100F7000910519F002975EE303C057E180E090E02D
:100F80004091B200450F4093B30042E0409370009F
:100F900047E043BF889546E043BF10927000A89594
:100FA000DCCF8F9384E0D1DF06C08F93CDDF03C009
:100FB0008F9381E0CADF8F911F93182F10641093D5
:100FC0007C00E12FE07880912D01E81759F0E09343
:100FD0002D01AEDF8EE980937A0083E083BF889590
:100FE00082E083BF20E030E0A901E0E01FC08EE98D
:100FF00080937A0083E083BF889582E083BF60910D
:10100000780070917900260F371F411D511DE43083
:1010100061F480912F01803041F084E02030380766
:1010200020F417FD02C01068CACFEF5F80912C0139
:10103000E817E8F2609130017091310117FF04C0A8
:1010400060912E0170912F0180E090E00E949F3707
:101050002FEF33E040E050E00E94E137B901CA01D0
:1010600020912C0130E040E050E00E94E137C901BE
:101070001F9108959B01281B390B50F0C901089559
:10108000BC0180913001909131016817790718F403
:10109000861B970B089580E090E0089588E393E025
:1010A0000E94D7382091340130913501280F391F23
:1010B000209316013093170183E0283E380720F073
:1010C000C901885E934002C080E090E062E370E076
:1010D0000E94BA37683008F067E0E6E4F3E0E60F14
:1010E000F11DE60FF11D459155912591359162E372
:1010F000681B421B530B649FC001659F900D112418
:10110000499662E370E00E94BA37620F731F7093D2
:101110007A01609379018AE393E00E94CF3899279E
:1011200087FD90956091340170913501860F971F6E
:1011300090932F0180932E019093750180937401F9
:1011400008950F9221E08C32920710F48CE291E026
:101150008C52914069E170E00E94BA3799E16B329C
:1011600010F0982F6BE2981BE5EBF2E0E60FF11D13
:10117000E60FF11D9F93CF010E94CF38482F319683
:10118000CF010E94CF38582F3196CF010E94CF381F
:10119000282F3196CF010E94CF38382F6F91421BF4
:1011A000530B649FC001659F900D11240C9669E15B
:1011B00070E00E94BA37620F731FCB010F90089541
:1011C000CF93DF9324E130E0B9010E94BA37DC010C
:1011D000E8E5F3E0E60FF71FE60FF71FC591D5919D
:1011E000459155914C1B5D0B4A9FC0014B9F900D43
:1011F0005A9F900D1124B9010E94BA376C0F7D1FC0
:10120000CB01DF91CF910895AEE1B0E0EAE0F9E0E3
:101210000C944438662EB82E860F898320911A01CB
:10122000283059F520917F01309180014091810152
:101230005091820157FD15C010918E0109C0CA015D
:10124000B9012AE0312D412D512D0E94E1371F5F58
:10125000173FACF391F4243160E0360741055105A6
:1012600018F48FEF9FEF42C1173F39F480E0281741
:101270008DE738074105410510F020E03DE72C8B54
:101280003D8B26EDA22EEEE4F2E0E60DF11D8591F8
:1012900080608E87EEE4F2E0EB0DF11D85918060B9
:1012A0008F87EBE4F2E0E60DF11D7590EBE4F2E0E0
:1012B000EB0DF11DC59090EC692AB92A81E0E82E6A
:1012C000F12C012D112D8E831F82188619861A8606
:1012D0001B861C861D86188E198E1B8E1A8E0E94E8
:1012E000942280E088B960927C0022DE3F8537B985
:1012F00075B874B852E05A95F1F70000000014B8C0
:1013000015B8DD243E8537B975B874B860927C0095
:10131000A895A0927A0080917A0086FDFCCF20905B
:10132000780030907900B0927C004C2DE3D0209171
:10133000780030917900288B398B3F8537B9C5B853
:10134000C4B8A895B0927C00A0927A0080917A00EF
:1013500086FDFCCF609178007091790060927C00EE
:10136000472DC8D0409178005091790014B8CB0136
:10137000820D931DE80EF91E011D111DEA82FB82EC
:101380000C831D8388899989840F951F2E813F8145
:1013900068857985280F391F611D711D2E833F8354
:1013A0006887798722E32417150648F075B874B862
:1013B000C9DD14B815B8888D8395888F07C0483E5D
:1013C00073E0570718F08A8D83958A8F88899989E9
:1013D0002817190658F03E8537B9C5B8C4B8B2DD2C
:1013E00014B815B8898D8395898F07C0883E73E03E
:1013F000970718F08B8D83958B8FD3945D2D5F3F6E
:1014000049F05F3731F45C2D550FC50E572D550F40
:10141000750E78CF4090390150903A01440C551C1C
:101420009201E4E0240D351DEA95E1F72901570109
:1014300068016E807F808884998420911A01283009
:10144000C1F46C897D89812D912D6550704080405B
:1014500090409B01AC010E949F379B01AC0160E76B
:1014600079E786E190E00E94E137621A730A840A04
:10147000950AA614B704C804D90428F46A187B088E
:101480008C089D0803C0662477244301B20180E0E4
:1014900090E09301A4010E949F379501A6010E944C
:1014A000E13780E193E07981870F911D0E94CF3869
:1014B000682EC90160E170E00E94BA37260F371F1D
:1014C000C9016816190618F4861991090FC08C5EB7
:1014D0009F4F8615910540F48C899D89843981E15F
:1014E000980710F00E941613812D912D6E96E2E15F
:1014F0000C946038109281001092800010926F005E
:1015000010928B0010928A0057E056BB5FEF509309
:1015100085005093840055E050937B0056EB509328
:101520007A0051E05093810058E25A95F1F700009B
:1015300045B944B955E05A95F1F7000014B815B80B
:101540001092810080917A0084FFFCCF80937A0012
:101550000895CF93C82F1C1614F0CF910895E7DBA0
:10156000C150F9CF60933C0180930301869580932D
:10157000AD01660F660F660F609304010895109227
:10158000AD0160E080E0EECF089581E08093AD0191
:1015900060E082E0E7CF089582E08093AD0160E0F3
:1015A00084E0E0CF089583E08093AD0160E086E0C1
:1015B000D9CF089580913C01809301018091AD01C4
:1015C0008093020108958091020160910101880FCA
:1015D000C9CF0895682F80E059CB08958EEAFADFCD
:1015E00085EAF8CF0895CF93DF93C0E080E1F2DF82
:1015F00080E0F0DF8C2F806BEDDFD4E860E081E0ED
:1016000045DBD150D9F7CF5FC83081F7B8DFDF9124
:10161000CF91089558985A985B985D98509A529A2D
:10162000539A559A8ADC5D9A559A5998519A84E151
:101630008CDC589A84E189DC8EEACCDF82EECADF4A
:1016400082EAC8DF80EAC6DF80ECC4DF8FE2C2DF57
:1016500084E2C0DF81E8BEDF8FE093E00E94CF38F4
:101660008F73B8DF80E4B6DF84EAB4DF86EAB2DFE6
:10167000BADF8FEAAFDF60E080E074CF0895909129
:101680003C0180E1891B65CF0895CF93C82FF7DF18
:101690008091AD018F5F8093AD01843068F083E06D
:1016A0008093AD0181E080933F018091AD016C2F6B
:1016B000880F58DFCF91089510923F01F6CFE5DFF4
:1016C0004BC308955CDFDBDF5ACF08955EDFD7DFC1
:1016D0005CCF0895582F28E030E090E841E080E0AA
:1016E000652F642309F0892B440F96952150310909
:1016F000B9F70895B0E0A0E0E0E8FBE00C944638CC
:101700006C0110E0C801860F911D81389105CCF560
:10171000842F8E0D9927991FFC01813491058CF53A
:10172000D42FD695D695D695319783E0F595E79544
:101730008A95E1F7922F9270692E21FF0DC08E2FAE
:101740008D1B990BAC01409FC001419F900D509F94
:10175000900D1124C80ED91ECE2FE83008F0C7E036
:10176000862F82958F70482E689444F86F70762E7D
:101770002170522ECD1750F4809103018F70806B31
:1017800029DFCDB7DEB7E0E10C9462388D2F806B96
:1017900021DF842D1FDF872D1DDF5601A00EB11E16
:1017A00075014601CE14DF0441F4662019F056019C
:1017B000A01AB10ADF5F6501DDCFF70131977F0124
:1017C000552051F08491611085DF682F81E05EDA49
:1017D000FFEF8F1A9F0AE6CFF401F4CFEF920F9339
:1017E000482F8F7320E6829FC001112482549C4FA2
:1017F00028E046FF28E4209305011092000147FDF0
:1018000008C02091050130E2309300012D5E209345
:10181000050120E2E22E08E120E040910001609104
:10182000050168DF0F91EF900895EF920F93262F37
:10183000FC01349131964491319604913196E490B3
:10184000E09100014E0F60910501630F049652DF95
:101850000F91EF90089560E0E8CF0895EF920F9315
:1018600090913C019F5F90933C01282F30E0409184
:101870000301440F440F440F609104018C30B0F415
:10188000C90134E0880F991F3A95E1F750E1E52E40
:1018900008E020E08A52944F2DDF80910401885F98
:1018A00080930401A8950F91EF9008952C51310970
:1018B0005EE0529FC001539F900D112420E1E22E63
:1018C00007E020E0825A994F15DF60910401695FBB
:1018D0006093040140910301440F440F440F01E061
:1018E00020E086E996E006DF809104018F5FD8CF83
:1018F0008F5CB4CF0895CF93DF93EC018991811170
:1019000003C0DF91CF910895A9DFF8CFCF93DF9384
:10191000EC01CE010E94CF38882319F09FDF219679
:10192000F8CFDF91CF910895EF920F93FC010491CE
:101930003196E4900296DEDE0F91EF9008950F93BA
:1019400080E891E0E3DF40918D014D3F6CF46091C0
:101950007B0170917C0180917D0190917E0103E07B
:1019600026E419D00F9108958FE378DFFBCF909193
:1019700019019F70923071F4A2DE84E690E0C6DF18
:10198000E0913D01F0913E0122E04DE16FEF848155
:101990009581E1C00895AEE0B0E0E1EDFCE00C948B
:1019A0004438142F322E202E6B017C010F7080E3FF
:1019B00089838A838B838C838D838E83F7FE3FC0DC
:1019C000B8D9F094E094D094C094C11CD11CE11C0F
:1019D000F11C58EE452E53E0552E612C712C03302E
:1019E00041F140E1442E47E2542E612C712C043029
:1019F00001F130EA432E36E8532E66246394712CAD
:101A00000530B9F020E4422E22E4522E2FE0622E5F
:101A1000712C063071F064E6462E512C612C712C2D
:101A2000073039F490E8492E96E9592E98E9692E45
:101A3000712C8AE0882E912CA12CB12C12C025FE8D
:101A4000C8CF8BE20BDFC5CFC701B6016B5F7F4FFD
:101A50008F4F9F4FA50194010E94E13769017A01E0
:101A60001F5FC414D504E604F70470F781E1810F09
:101A70009BEA899F812D1124782E769486E0811B24
:101A8000899F112D11241695912F990F190F811BE4
:101A9000182F4E0187E0880E911C2AE0A401C7018F
:101AA000B6010E947B38F40101900020E9F73197DC
:101AB0007F01E818F908DE2C812F90E004968E153E
:101AC0009F0514F473941D5F872D90E0845D9F4FF4
:101AD0000E94CF38982E822D807124FE05C0802F61
:101AE0008E19D01608F080E00E2D011B080F10167D
:101AF00024F08EE2B3DE812F8E19111101C008EFA0
:101B0000A12CC82ED12CEC0CFD1C002E000C110BAE
:101B1000EA2DF0E0EE15FF0564F0992011F0892D13
:101B20009DDE332011F0832D99DE2E96E2E10C9498
:101B300060383696EC19FD0981E090E08C0F9D1F0E
:101B4000E80FF91F80818ADEA394A016110601F721
:101B50008EE284DEDDCF0F93362FBC0190E080E073
:101B6000022F242F432F17DF0F9108950F93062F75
:101B7000BC0190E080E026E54DEF0DDF0F91089568
:101B80000F93042F28E440E006DF8AE767DECFD812
:101B90000F910895E82FF0E0EE0FFF1FE057FE4F82
:101BA0008591949120910001420F20910501620FCF
:101BB00020E0BACE0895CF93DF93C82FD62FE091BF
:101BC0003D01F0913E0148E16EE18685E3DFE09161
:101BD0003D01F0913E014D2F6C2F8485DBDFE091BC
:101BE0003D01F0913E0140E06EE18585D3DFDF915C
:101BF000CF91089599B193FB992790F949999260F3
:101C000080911101843050F08EE080930D0190930B
:101C10000E011092120181E0809311018091110157
:101C2000E82FF0E0E35FFE4F30813917C9F09111E2
:101C30000EC020911201E3E0E80FE3703230C9F4E6
:101C4000F0E0E35FFE4F30812F5F3330D9F0E1E009
:101C5000E80FE370E0931101F0E0E35FFE4F908343
:101C60008091120187FD03C080931301089581952F
:101C7000FBCF313061F7F0E0E35FFE4F308133306E
:101C800031F7215020931201E2CFB0E0A0E0EBE465
:101C9000FEE00C944D38E82ED92E5398519843D934
:101CA00010921201E0911101F0E03196E370FF27EC
:101CB000E35FFE4F80EF8083C5E6D9E19BDF4F9B5A
:101CC00024C0CE2DDD2DF12C15E500E0BB24B3940E
:101CD000D7FD15C082E3C82E8DDF29D9CA94C11063
:101CE000FBCF110F4F9B1F5F1F731F33A1F4011117
:101CF00003C0CE2DDD2D04E00F5F083C80F0802F67
:101D0000CDB7DEB7E9E00C94693811D9D150B1F6FE
:101D1000C15099F6D6CF111102C00111F0CFA8958C
:101D20001C161D0624F42A9711F4CFEFDFEF8091E3
:101D30001301882339F0F39480917701811102C057
:101D4000B092770184E18F1508F0C2CF8091120123
:101D50008111D5CFF12CBCCFCF932CDCC82F809133
:101D60003F01882301F1813051F4C33041F46FE029
:101D700086E0F8DB8BE272DD6FE086E0F3DB80E487
:101D80009FE183DF811104C0809113018111F7CF9E
:101D9000C33041F480913F01813021F460E086E05E
:101DA000E1DB6DDC10DCCF91089540911801A0912A
:101DB0003D01B0913E01E1E9F1E030E020E0822F09
:101DC0002417B0F451911C969C911C97591719F047
:101DD0005581951303C02F5F3F4FF1CF220F331F63
:101DE000F901E356FE4F20813181293E334008F04E
:101DF00084E108951895189510921A01109218010F
:101E000010926F0110924F011092190110923B0134
:101E100010927601EAE5F1E0108211821282EBE77E
:101E2000F1E0108A82E0818B1092200117861686DD
:101E3000148215821682178281EF838B0895CEDB80
:101E40005E9860D890E080E020CF08951F93CF93F4
:101E5000DF93162F17B818B8E82FF0E0E55BFD4FB9
:101E6000949195B9262F281BE20FF11D27FDFA95B5
:101E7000E491E92BE4B9A0D8EC01812F9DD8AC0105
:101E8000209130013091310136952795C901039792
:101E9000BE01625E7F4F8617970778F4255E3F4F3D
:101EA000C217D30750F4BA01625E7F4F86179707B7
:101EB00020F481E04217530708F080E014B8DF9166
:101EC000CF911F910895CF9361E080E0BFDFC82FCD
:101ED00062E080E0BBDFC80F62E081E0B7DF8C0F1B
:101EE000CF910895AFE0B0E0E8E7FFE00C9444380C
:101EF000B82E10921A01807FB9F4E5DF833081F4A7
:101F000072DB87E492E002DD40DB8FE3A7DC80ED4B
:101F100097E0BBDE8B30B0F466DB85EF90E0F6DC5B
:101F20002F96E2E10C94603806E910E05CDB87EB69
:101F300091E0ECDCC8DF833009F065C01F5F14302E
:101F400008F462C022DB0E94892681EB90E0DEDC8F
:101F500060E082E193E00E94DC3860E083E193E09E
:101F60000E94DC3860E081E193E00E94DC3860E0B0
:101F700082E04AD96C019A83898361E082E044D986
:101F80007C019C838B8360E081E03ED98C019E8341
:101F90008D8323E040E26EEFC601DDDD23E040E209
:101FA0006EEFC701D8DD23E04DE16EEFC801D3DD50
:101FB0002AE5C216D10424F084E190E09A83898353
:101FC000698182E193E00E94DC388AE5E816F10439
:101FD00024F084E190E09C838B836B8183E193E028
:101FE0000E94DC380A35110524F084E190E09E83DC
:101FF0008D836D8181E193E00E94DC3882E08093E3
:102000003F01AADE07C010E088E20E94A507015048
:1020100009F08CCFEB2DEF70EF87E13009F04FC066
:10202000EE24E394F12C68EB862E62ED962E67E4A5
:10203000A62EB12C02E078E0D72EE0E23E2EC12C95
:102040001E2D42E2242E42DB3DDB84E507DCC70186
:102050000E948D060E949706113009F0C0C184EEDF
:1020600090E054DC64E080913401909135017EDD94
:102070008CDA8FED90E04ADC8091790190917A01C1
:102080000E948D068EEB80932C0117B818B814B8F7
:1020900015B888EE93E0F9DD143011F08B3020F4A0
:1020A000C39484E0C812CFCF88EE93E0EEDDEFEF6B
:1020B000EE1AFE0AF8E0EF16F10409F0C0CF18E7B7
:1020C00002DF81117EC28FDA8AEA90E01FDC23E012
:1020D0004DE16FEF80913201909133013CDD55DA93
:1020E00083EA90E013DC23E04DE16FEF809139014A
:1020F00090913A0130DD82E080933F012DDE109215
:102100001A0171DA8FE990E001DC60E082E00E9460
:102110006B23409083015090840160908501709002
:1021200086015C864B8661E082E00E946B23809092
:10213000830190908401A0908501B09086019E86D5
:102140008D8660E081E00E946B23009183011091F5
:1021500084011E830D8362E080E00E946B238091E6
:102160008301909184019C838B8362E081E00E94D3
:102170006B2380918301909184019A87898761E024
:1021800080E00E946B23E0908301F0908401FA824A
:10219000E982C2010E949606C4010E949606B80117
:1021A000110F880B990B03E026E444EFF4DB2F8535
:1021B000213009F011C282E0E80EF11CF886EF82AE
:1021C0008E010F5F1F4F6E01EFE0CE0ED11CF801A4
:1021D000819191910A97853B9105C8F4EC15FD0515
:1021E000B9F731E3E32E33E0F32EF80160810E5F9F
:1021F0001F4F6E5EC7010E94DC38FFEFEF1AFF0A27
:102200000C151D0591F7C1D985EA91E07FDB82E0CD
:1022100080933F01A1DD0E945D342F85213029F09C
:1022200080913801823009F0C5C0DDD980E060DBE3
:102230008BE491E06BDB82E05BDB84E290E066DBC9
:1022400090E4F92E10E02AE0822E912CA12CB12CE2
:10225000D3DD10921A0160E082E00E946B230091AE
:102260008D0120917B0130917C0140917D01509145
:102270007E01073F0CF4BAC100938D0120937B01CE
:1022800030937C0140937D0150937E01073F09F01C
:10229000B5C120563109410951092039354541055B
:1022A000510508F0ABC160918F0170919001CB0195
:1022B0008B569F4F8B32914008F0A0C11F5F1530A5
:1022C00008F49DC188E393E00E94EA388CD98DE13F
:1022D00090E01CDB80918F01909190010E9482061A
:1022E0000E944E0818B881E087B980E284B982E084
:1022F0000E94DC07853D9340D4F714B810922F015B
:1023000010922E0182E00E94DC077C018091740112
:102310009091750190932F0180932E0182E00E948D
:10232000DC076C01CC0CDD1C10922F0110922E01E9
:1023300082E00E94DC074C01A0907401B09075010E
:10234000B0922F01A0922E0120D986E190E0DEDA32
:102350008AE393E00E94CF38182FD701A80DB91D4A
:10236000AC19BD0995010E942E3896010D2C000C68
:10237000440B550B0E9403381D5F120F612F8AE337
:1023800093E00E94DC38812F012E000C990B0E94F3
:1023900082060E944E0882E080933F01DDDC1092AD
:1023A000380181E393E00E94CF38682F84E393E003
:1023B0000E94DC3889E180932C0180E00E9459372B
:1023C00012D985EF90E0A2DAE0D88EE292E09EDAB0
:1023D00010921A0182E080933F01BEDCA1CD123041
:1023E00091F52091300130913101A8E5BBE10E94C7
:1023F0001F3824EC36E340E050E00E940338290106
:1024000081E085B9F5E0F4B980E00E94D107841934
:1024100095099A83898381E184B980E00E94D1077C
:10242000841995099C838B8384E085B984E184B900
:1024300081E00E94D107841995099E838D8389ECE0
:1024400090E064DA37C0133059F505B92AE024B9B1
:1024500080E00E94D1072091300130913101369502
:10246000279538872F83821B930B9A83898324B8FF
:1024700080E00E94D1072F813885821B930B9C83BB
:102480008B83D5B888E284B981E00E94D1072F817F
:102490003885821B930B9E838D838BEB90E0D1CF8D
:1024A0001430D1F487E392E031DA0DDD882311F0A6
:1024B000F2E0CF2E6AD889819A810E9482060E941A
:1024C00097068B819C810E9482060E9497068D81CF
:1024D0009E810E948206D9CD1530B1F415B804B999
:1024E00080E00E94D1079A838983D4B881E00E945A
:1024F000D1079C838B8334B882E00E94D1079E83EE
:102500008D838BED90E09DCF163051F504B905B960
:1025100080E00E94D1072091300130913101821B6F
:10252000930B9A838983D4B8D5B881E00E94D107F0
:102530002091300130913101821B930B9C838B835E
:1025400034B835B882E00E94D10720913001309133
:102550003101821B930B9E838D8387ED90E071CFB9
:10256000173009F0A7CF2091300130913101A8E553
:10257000BBE10E941F38A50194010E94E1372901A7
:1025800005B9E3E0E4B980E00E94D1078419950918
:102590009A838983D5B8FCE0F4B981E00E94D10721
:1025A000841995099C838B8335B820E324B982E094
:1025B0000E94D107841995099E838D8385EB90E055
:1025C00040CF84D887E392E0A1D984E60E94A50792
:1025D000115009F075CD77CD80913801823009F422
:1025E000EACDF886EF8210923801EACD0F5FCA017A
:1025F000B901A50194010E94E1373BCE10E00E9491
:10260000C50A60917B0170917C0180917D01909160
:102610007E0104E026E440918D01BDD930D888E2E6
:102620000E94A507FA94F11013CEC4CE8091380110
:1026300081110DC081E393E00E94CF3861E0680F03
:1026400084E393E00E94DC3881E0809338010895B0
:10265000EF92FF920F931F93CF93DF93D62FE82F24
:10266000F0E0E25BFD4FE491E8B9E7B915B8E62F79
:10267000F0E0E55BFD4FE491E4B9CE2FCC0F88E8A4
:10268000E82E83E1F82E8D2F0E94D1078C01C4B96A
:102690008E159F0508F1892BD1F00E94D30A8BE299
:1026A00091E034D9D80120EA36E841E050E00E94B8
:1026B000343828E937EB40E050E00E94E137C901A7
:1026C00022E041E467EF47DA17B818B814B8CDB77D
:1026D000DEB7E6E00C946C387801D5CF80E48AB997
:1026E0008BB95F9AD6E8D0937A001092C1000E940D
:1026F0008407C4B7C87084B7877F84BF0FB6F894C7
:10270000A8958091600088618093600010926000BD
:102710000FBED093640088E380937E001092B000D7
:1027200087E08093B10078940E940A0BC11168C5BC
:1027300084E0809311014F9908C00E94A407CF5FE5
:10274000CC33C9F780E69DE604C08FE59DE6CF3126
:10275000C8F790930C0180930B0110922D010E94F9
:10276000892688E19FE00FB6F894A89580936000D1
:102770000FBE90936000CC3309F462C020E1722E4A
:1027800030E4832E31E0932E40E6A42E41E0B42EB7
:102790005DE0352E60EF662E73E3572EE1E24E2E9C
:1027A0008FEA0E94EA0A84EA0E94EA0A0E94F30A77
:1027B00017B822DB0E9489260E94BF0A2FD580917C
:1027C0003B01882371F00E94C50A80E491E09ED805
:1027D00063E08091300190913101C8D988EC0E946A
:1027E000A5070E94C50A0E94942280911A0189308F
:1027F00061F50E94F30A85E491E088D80E94C50A39
:1028000063E08091540190915501B0D90E949706E0
:1028100063E08091560190915701A8D90E949706D4
:1028200063E08091580190915901A0D98AEC0E94EF
:10283000A50781E157DBC0910B01D0910C016CC160
:102840000E94F92F8111FCCF99CF84E393E00E947D
:10285000CF38C82F81E393E00E94CF38C81BC093C4
:10286000380180E03FDB0E94660B8CEA92E04ED894
:1028700042E061E080E042D542E060E081E03ED5A8
:1028800041E062E080E03AD541E060E082E036D5A8
:1028900040E062E081E032D540E061E082E02ED5A8
:1028A00080911A0181110EC00E94942260E082E0A2
:1028B0000E946B2361E082E00E946B2360E081E074
:1028C0000E946B230E94F30A90923E0180923D0188
:1028D00080911A018630D9F485EC0E94EE0B60E1FC
:1028E00088EF69D966E080E00E94B20A83E892E04E
:1028F0000DD866E082E00E94B20A89E591E006D830
:1029000062E0809144019091450130D994CF8730A5
:1029100069F484EC0E94EE0B60E188EF4CD966E02C
:1029200080E00E94B20A8CE892E0E2CF8830A9F4FD
:1029300080918B0190918C01890F9927991F0297A3
:1029400041F40E94E92880913801811108C477DAA6
:1029500027CF80E00E9417286ECF833009F0EEC0A9
:1029600080911801813009F04DC080E00E94550728
:1029700060919101809197016BDE80E70E942E07A4
:1029800040E060919101809197010E9484336093AF
:102990007B0170937C0180937D0190937E0180E0A8
:1029A0000E945F0B60917B0170917C0180917D01A1
:1029B00090917E0102E026E442EF0E94CB0C8091D0
:1029C0007601882309F437CF30E137B917B880E0B2
:1029D0000E945F0B20917601222309F4A4C3809109
:1029E0005D01213009F03AC30E94F10620915D019A
:1029F000213009F02EC32091180121112AC30E9411
:102A0000A028A1CF823079F582E30E942E0C8DE0C0
:102A100091E00E94860C9091910130919201931364
:102A200008C080E00E94700781E00E94670781E093
:102A3000A5CF2091970180919801281307C080E0CD
:102A40000E94610781E00E947607F1CF321306C031
:102A500081E0809306010E944407B1CF98133DC0E6
:102A600070920601F8CF8330C1F550920601809133
:102A7000970190919201891303C021E020930601F0
:102A80004091910130919801431302C07092060168
:102A900020919301821303C082E08093060180910C
:102AA0009901481303C040E24093060132130FC05E
:102AB00022E120930601981302C04092060183E3AD
:102AC0000E942E0C8DE091E00E94860CC4CF9817D6
:102AD000A1F380910601823290F382E992E00E9494
:102AE000860C8AE792E00E94860C0E94C50A8091BB
:102AF0001801805D0E942E0C8AE20E942E0C87E253
:102B000091E00E94860C80E692E00E94860C86E0AE
:102B10000E94EE0BC0E4DFE130E137B94F9BFECFFE
:102B2000CE01B3D8823328F490911301933008F486
:102B300007C30E94F92F8111FCCF32CE843009F0F7
:102B400056C180916F01882309F465C080914F01BF
:102B5000882309F460C060914C0180914E010E946D
:102B60006B23C0907B01D0907C01E0907D01F090C0
:102B70007E01C0918D0160916E0180916C010E9477
:102B80006B238091400190914101A0914201B0914D
:102B90004301409160015091610160916201709127
:102BA0006301843F21E09207A105B10538F4443F59
:102BB00031E053076105710508F0C0EF443F514013
:102BC0006105710538F4843F9140A105B10510F00D
:102BD00060928D0180918D018C1311C080917B01D9
:102BE00090917C01A0917D01B0917E01C816D9061B
:102BF000EA06FB0630F02CE02093190104C0C81748
:102C0000D4F73092190180916F01882321F08091CF
:102C10004F018111CCC066E080E00E94B20A80ECD6
:102C20000E94EE0B809119018C3009F0C9C085E734
:102C300091E00E94860C80916F01882319F080E753
:102C40000E942E0CB2D8C82F853098F4A0913D0177
:102C5000B0913E01E82FF0E0EF56FE4F1D969C919B
:102C6000808162E0981301C060E086E991E00E94F3
:102C7000150C60E189EF0E94DB0D86E00E94450B98
:102C800084E891E00E94860CE0913D01F0913E01C4
:102C9000608171818281938103E020E04EEF0E9488
:102CA000CB0C87E00E94450B89E40E942E0CE0913A
:102CB0003D01F0913E01868197818031974208F471
:102CC00092C085E60E942E0CE0913D01F0913E01FC
:102CD0008681978180519742978386830E949B06C5
:102CE000E0913D01F0913E0122E041E46AEF8681EE
:102CF00097810E94AB0D86E00E94450B8DE591E027
:102D00000E94860CE0913D01F0913E0163E08481D8
:102D100095810E94B60D81E080933F01E0913D01D5
:102D2000F0913E0180859185892B91F085E00E948C
:102D30005F0B8FEE90E00E94860CE0913D01F091D8
:102D40003E0122E041E46AEF808591850E94AB0D4F
:102D5000E0913D01F0913E0182859385892B91F0B0
:102D600085E00E945F0B89EE90E00E94860CE09166
:102D70003D01F0913E0122E041E46AEF82859385B6
:102D80000E94AB0DC53068F480E00E945F0B8C2F71
:102D90000E94550789E591E00E94860C8C2F0E94C5
:102DA000200743E462E485E40E94C40644CD4F99C1
:102DB00032CF8091190191E08927809319012BCF9F
:102DC000B0923E01A0923D0181ED91E00E942B0C5A
:102DD0008DE691E00E94860C80914F01882309F4D2
:102DE00031CF8EE62DCF83E60E942E0C77CF853033
:102DF00009F0F0CD66E080E00E94B20A80911901EE
:102E0000C82FC07184FF63C080E50E942E0CB09271
:102E10003E01A0923D01C2E00E94990680911901F5
:102E2000D82FDF70D43009F056C08FE891E00E94AF
:102E3000860C83EC0E94EE0B8AED91E0C11167C015
:102E40000E94D50E853098F4A0913D01B0913E01CD
:102E5000E82FF0E0EF56FE4F1D969C91808162E0D6
:102E6000981301C060E086E991E00E94150C60E1D2
:102E700089EF0E94DB0D86E00E94450B80911901CD
:102E800085FD61C085E591E00E94860CE0913D01E1
:102E9000F0913E0162E0828593850E94B60DE0913B
:102EA0003D01F0913E01668584850E946B2386E09A
:102EB0000E94450B0E949F0C85E00E94B70C4FE3D7
:102EC00067E48FE3D43009F46FCFC0E0B5C08EE47F
:102ED0000E942E0CA1CF85FF1DC084E40E942E0C01
:102EE000CF5FD330D9F489E891E00E94860C81EC61
:102EF0000E94EE0B87E292E0C13049F083E392E05A
:102F0000C23029F083E092E0C33009F099CF0E94EB
:102F10002B0C96CF85E40E942E0CE3CF84E991E040
:102F20000E94860C82EC0E94EE0B83EF91E0C13090
:102F300071F389EF91E0C23051F3C33009F080CFD3
:102F400081EE91E0E4CFE0913D01F0913E018F7080
:102F5000843009F44EC0668584850E946B230E94EC
:102F60009F0C60E084E00E94B20A89E40E942E0C6B
:102F70000E949B06E0913D01F0913E0122E041E478
:102F80006AEF868197810E94AB0D8FE491E00E94E9
:102F9000860CE0913D01F0913E0162E082859385CF
:102FA0000E94B60DE0913D01F0913E018085918532
:102FB000803C9241E0F480E00E945F0B89E40E9433
:102FC0002E0C0E949B0622E041E46BEF90E080E033
:102FD0000E94AB0D8FE491E00E94860CE0913D01D0
:102FE000F0913E0162E0808591850E94B60D80E0FF
:102FF00064CF84819581892B09F4B3CF80E090E080
:103000000E94860CE0913D01F0913E0122E041E4F6
:103010006AEF848195810E94AB0DA3CF80E00E946E
:103020005F0B8C2F0E94550789E591E00E94860C6A
:103030008C2F0E942007CF5F80911801C81770F372
:1030400044E467E483E5D33009F0AECE43E467E4BB
:10305000AACE40E0692F0E945627EDCB90915E01E9
:10306000F4E09F9FD0011124A255BE4F34E0839F0E
:10307000F0011124E255FE4FED90FD900D911C9151
:103080004081518162817381C92F4E155F056007B0
:10309000710708F0C82F223041F5980FC3E0C91B13
:1030A0001C2F1695D2E0DC1B01E0C11102E0812F3C
:1030B0000E94780C88E091E00E94860C8D2F0E947F
:1030C000780C88E091E00E94860C802F0E94780C9A
:1030D00080E00E94450B81E0C11180E00E94FB0668
:1030E00082E0811B0E94FB06A6CB80915F0194E0E9
:1030F000899FD0011124A255BE4F24E0C29FF00148
:103100001124E255FE4F0D911D912D913C9140816E
:10311000518162817381401751076207730708F07C
:10312000BFCFC82FBDCF8AE692E00E94860C0E94D6
:10313000C50A87E992E00E94860C82E992E0E5CC1C
:1031400081112ECB9111ECCCFECB80E29EE40E944B
:10315000450E81114CC08091120187FF17C0D4E049
:1031600010E000E098012F5A3D4F7901F90180E00D
:1031700090E1D92EC491C03211F0CE3F09F4D82E7F
:103180008F5F31968131B1F7DD23F9F28D2F837096
:10319000282E11F40E94F30A60E0822D880F0E940D
:1031A000B20AA895DF5FD370212C2D100DC0CC235F
:1031B000F1F0020D111DF801EF5AFD4FE491E032DC
:1031C00089F60F5F1F4FCECFF701C491CC2379F062
:1031D000CF3F39F40E9497062394FFEFEF1AFF0ABE
:1031E000E4CFCE3FC9F38C2F0E942E0CF5CF80E2A6
:1031F0009EE40E94450E8091120187FDB0CFA7CBBF
:103200000E94BF0A87E592E00E94860C8BEC0E9428
:10321000A5070E941F0F90E080E008950F931F9371
:10322000CF93DF9385E00E94DC0785E00E94D807FA
:103230008C01EC01CC0FDD1FCC0FDD1FCA56DF4F18
:1032400010923601C43883E0D80770F489E991E020
:103250000E94860C0E943F0B81E080933601DF9133
:10326000CF911F910F91089588EA91E00E94860CFA
:1032700062E0CE010E94B60D0E9497060A3F86E0EA
:103280001807B0F40333164060F480EA92E00E941D
:10329000860C0E943F0B8DEC0E94A5070E941F0F19
:1032A000DECF87EA92E00E94860C0E943F0BD7CFC8
:1032B00085EA91E0F8CFFC019C01261B370BCA017F
:1032C00070E060E0A901460F511D452F5527620FA0
:1032D000240F351FAC01470F511D452F5527780F7F
:1032E000DA01AA0FBB1F8A0F9B1F4B3E20F4E21787
:1032F000F30740F7089590E080E00895A7E1B0E07B
:10330000E4E8F9E10C9444388E8B162F042FA8952D
:10331000E62FF0E0E55BFD4F24912D87220F2D8BEA
:10332000339634913A83E42FF0E0E55BFD4F44910E
:103330004B833396F490E82FF0E0E55BFD4F8491EA
:103340008983880F8E87339694919F8B45B96D84BE
:10335000642A64B897B998B9862F0E94D8079C87C9
:103360008B87ED85E4B9812F0E94D8071C0114B822
:103370000E948D0715B864B8812F0E94D8076B850D
:103380007C850E943A084C01FA81F7B918B82B8164
:103390003981232B2C8325B924B98E890E94D80723
:1033A0000E9440085C0115B80E948D07498145B90B
:1033B0008E890E94D8070E9440086C01898184B9D7
:1033C0008E890E94D8070E944008782EE92EB60107
:1033D000C5010E943A088032E1E09E0730F4F0E235
:1033E0008F16F1E09F0608F4A4C58C0C9D1C2B855C
:1033F0003C85820F931F8816990620F4DC86CB86C5
:10340000272C3E2C20914F0180916F01820F99272C
:10341000991F02974CF0213009F08BC590914C0117
:1034200080916C01981385C5EB80EE0C7D847E281D
:1034300039813E293A878B859C858437910508F42C
:1034400097C10A96880F991F2816390608F090C16F
:103450009F8997B998B974B8812F0E94D5076C01DC
:10346000802F0E94DC075C01E5B8812F0E94D50700
:103470009601295A3D4F18B82817390708F0B1C0EE
:10348000EA81E7B9FA85F4B9F5B9802F0E94D5072A
:1034900088349F4008F46BC085E080931A0182E273
:1034A00080931901D0924501C0924401B501C60133
:1034B0000E94450890934B0180934A019601A0E138
:1034C000B7E20E941F38209114013091150150E09D
:1034D00040E00E94E13730934701209346018D89F7
:1034E0008E2984B915B83F8937B938B9802F0E9421
:1034F000DC076C01812F0E94D507B6010E944508A8
:103500009C019093490180934801909119019F700B
:10351000943091F118B84A81F42AF7B8898184B9B6
:103520009C8195B98E890E94D8076C010E94400841
:103530007C01812F0E94DC07A0901B01B0901C0130
:10354000BC01C6010E9445089501DC010E941F389C
:10355000970150E040E00E94E1373093450120930D
:10356000440180914F018F5F80934F0170C385E0CC
:1035700080931A0184E294CF409146015091470113
:1035800060914A0170914B01C90195DE0097F1F0FD
:10359000E4B8EF89FA81EF2BE7B9812F0E94D507B4
:1035A0006C0117B89C01A0E1B7E20E941F3820917E
:1035B000390130913A0150E040E00E94E137A90121
:1035C000B601809148019091490175DE90934501C3
:1035D00080934401809119018F70843009F4C1CF28
:1035E00099CF2A8127B93A8534B935B98E890E9495
:1035F000D5076C01802F0E94DC075C01498145B929
:103600008E890E94D507895A9D4F8C159D0508F01B
:1036100090C48F8988B987B9802F0E94D507813DD2
:10362000934008F067C085E080931A0182E380939D
:103630001901B601C5010E94450890936B01809362
:103640006A01C6010E9440089C01A0E1B7E20E9405
:103650001F3820911B0130911C0150E040E00E9476
:10366000E137309367012093660118B8FA81F7B902
:103670008E858E2984B985B98E890E94DC076C01FC
:10368000802F0E94D507B6010E9445089C019093A7
:10369000690180936801909119019F70943079F1CC
:1036A0002F892F2928B927B915B83C8134B98E89BB
:1036B0000E94D8075C01812F0E94DC077C01C0902A
:1036C0001401D0901501BC01C5010E944508960166
:1036D000DC010E941F38970150E040E00E94E13772
:1036E000309365012093640180916F018F5F809317
:1036F0006F014AC185E080931A0184E398CF40911D
:1037000066015091670160916A0170916B01C90176
:10371000D2DD009711F1E5B8E4B84F8948B9EA81E4
:10372000E42BE7B98E890E94D5070E9440086C01FE
:1037300017B89C01A0E1B7E20E941F382091320126
:103740003091330150E040E00E94E137A901B60119
:103750008091680190916901AEDD9093650180933D
:103760006401809119018F70843009F4BDCF98CF26
:1037700018B88A8187B9998195B9EA85E4B98E89A3
:103780000E94D807988B8F870E9440089F838E8362
:10379000802F0E94DC07998788872101F4E64F0E6D
:1037A000511C2E813F81B1014216530608F0EEC034
:1037B000C9010E9445086C0120911B0130911C0138
:1037C00050E040E060E871EA83E09CE10E94E1376C
:1037D000D6010E943438E885F9859F0150E040E029
:1037E0000E94E13749015A0114B815B8FF89F8B9A8
:1037F000F7B981E00E94A50764B8812F0E94D8071D
:103800008F359D4008F468C174B8812F0E94D50798
:103810006C01802F0E94DC079A8B898B8E890E9415
:10382000DC079C8B8B8B89899A89813D974008F4B2
:10383000E0C084E080931A018DE080931901760145
:103840002C143D0410F4E218F30840901401509039
:103850001501712C612C60E871EA83E09CE1A30101
:1038600092010E94E137D7010E943438E989FA8930
:103870009F0150E040E00E94E13780916F01882372
:1038800071F08091600190916101A0916201B0910D
:10389000630182179307A407B50708F096C0209329
:1038A000600130936101409362015093630196017E
:1038B000A0E1B7E20E941F38A30192010E94E13704
:1038C000309367012093660169897A898B899C8985
:1038D0000E944508909365018093640181E04091C6
:1038E000600150916101609162017091630148151E
:1038F00059056A057B0508F06AC0809260019092C4
:103900006101A0926201B0926301688579858F851B
:1039100098890E94450890936501809364012E81E7
:103920003F81A0E1B7E20E941F3820911B01309136
:103930001C0150E040E00E94E137205F384D309399
:10394000670120936601C0901401D0901501F12CFD
:10395000E12C9101A0E1B7E20E941F38A701960176
:103960000E94E13730936901209368012B853C85E3
:10397000A0E1B7E20E941F38A70196010E94E1373B
:1039800030936B0120936A0181E023C08E819F8177
:103990000E9445086C01FC81F4B98E890E94D80709
:1039A000988B8F870E9440089F838E83802F0E9470
:1039B000DC0799878887BC01C6010E9445089C01E5
:1039C000A4E6B0E00E941F3806CF80E088CF8111C6
:1039D000BACF90916F019F5F90936F01882309F494
:1039E00063C300936C0110936D014E8940936E0187
:1039F0005BC3F1E62F16310408F06EC021EDC2164C
:103A000027E0D20608F468C085E080931A0182E1BD
:103A100080931901C60186509F4FEB89FC898E1750
:103A20009F0708F042C083E180931901FA81F77083
:103A3000BF2E802F806480937C002BE02983CC24D0
:103A4000C394D12CEE24EA94A3E0FA2EA89561E069
:103A50008B8153D574B886B18B21E9F33D8534B998
:103A600080917A00806480937A0080917A0086FD4C
:103A7000FCCF8091780090917900F701E81BF90B59
:103A8000CE0EDF1EF981F150F983F111DFCFC601AF
:103A9000880F991F880F991F69E070E00E94BA375C
:103AA00070936B0160936A011FCEE0901401F09057
:103AB0001501B6018B899C890E9445089701DC019C
:103AC0000E941F38960150E040E00E94E137309399
:103AD000650120936401AACF74B8E5B8812F0E94D4
:103AE000D8075C01802F0E94DC079F838E830E9491
:103AF00040087C014A145B0408F0ABC0B101C50169
:103B00000E9445086C01209114013091150150E08C
:103B100040E060E871EA83E09CE10E94E137D60171
:103B20000E943438970150E040E00E94E1372901BB
:103B30003A013A8137B918B84C8144B945B98E89F0
:103B40000E94D8076C01802F0E94DC074C01812F56
:103B50000E94DC077C0180E3C81681E1D80608F0EA
:103B6000E6C1998195B98E890E94D807998788877F
:103B7000E981E4B98E890E94D807988B8F8715B8A0
:103B800081E00E94A507F981F5B98E890E94D807C6
:103B90002F8538892034364008F079C0813391412F
:103BA00008F475C0C6018A569F4F288539852817A5
:103BB000390708F06CC086E080931A0180914F01AC
:103BC0008F5F80934F01B701C4010E944508909315
:103BD000450180934401B701C6010E9445089093B6
:103BE0004B0180934A0114B815B83A8138B981E085
:103BF0000E94A507498144B98E890E94D807853F54
:103C0000910528F58C8184B9802F0E94D807813DC9
:103C10009340E8F08E890E94DC078D3D9240B8F019
:103C2000298124B98E890E94D8078D3D924078F071
:103C3000498145B981E00E94A50715B88E890E9487
:103C4000D807853F910518F487E080931A0181E039
:103C5000F3C064B82B8125B9812F0E94D8075C017D
:103C6000802F0E94DC079F838E830E9440087C0186
:103C7000C5012A143B0410F482199309B7010E946C
:103C800045089C01A4E6B0E00E941F384BCF8A8112
:103C900087B99B8194B995B981E00E94A507EA850F
:103CA000E4B9E5B98E890E94D8076C010E944008EA
:103CB0007C01802F0E94DC079D838C830E9440083A
:103CC00099878887812F0E94DC074C0128853985D8
:103CD0002E3F394008F4C0C084E080931A018CE084
:103CE00080931901B101C7010E9445086C01209120
:103CF0001B0130911C0150E040E060E871EA83E074
:103D00009CE10E94E137D6010E943438E885F985AC
:103D10009F0150E040E00E94E13780914F018823ED
:103D200071F08091400190914101A0914201B091C8
:103D3000430182179307A407B50708F079C02093C1
:103D40004001309341014093420150934301B4013B
:103D50008C819D810E944508909345018093440188
:103D60009701A0E1B7E20E941F3820911B0130911A
:103D70001C0150E040E00E94E1373093470120935E
:103D8000460181E040914001509141016091420122
:103D900070914301441555056605770508F04AC042
:103DA0004092400150924101609242017092430161
:103DB000B5018E819F810E944508909345018093B3
:103DC00044019501A0E1B7E20E941F38209114013F
:103DD0003091150150E040E00E94E137205F384DFE
:103DE00030934701209346019101A0E1B7E20E9480
:103DF0001F38209114013091150150E040E00E94DD
:103E0000E13730934901209348012B853C85A0E19F
:103E1000B7E20E941F3820911B0130911C0150E035
:103E200040E00E94E13730934B0120934A010FCFCD
:103E300080E0A8CF8111D8CF90914F019F5F9093E0
:103E40004F01882309F430C100934C018E8980937F
:103E50004D0110934E0128C1F1E62F16310408F0F0
:103E600066C029E4E2162DE0F20608F460C085E0A1
:103E700080931A0182E080931901C40186509F4FFC
:103E80008C159D0508F03DC083E0809319013F89A2
:103E90003770D32E802F806480937C004BE04A8360
:103EA000EE24E394F12CA89560E08B8126D38A85DB
:103EB00084B985B986B18D21E9F7998194B980914A
:103EC0007A00806480937A0080917A0086FDFCCF2E
:103ED0008091780090917900E80EF91EEA81E15016
:103EE000EA83E111E0CFC701880F991F880F991F5E
:103EF00069E070E00E94BA3770934B0160934A0109
:103F000030CBA0901B01B0901C01B401C6010E94EF
:103F100045089501DC010E941F38970150E040E000
:103F20000E94E1373093450120934401B0CF17B888
:103F300018B814B815B817B8F7EC2F16F1E03F060B
:103F400008F4D8C018B82E8524B908ECEA803F8957
:103F5000E32AE7B881E00E94A5074A8147B98E8924
:103F60000E94DC07429710F0015099F78E8584B9C2
:103F700085B961E08B81C1D28E890E94D8074C013E
:103F80009D8994B915B8EF89E7B9E8B960E08B81EC
:103F9000B4D2812F0E94D8070E9440086C01FD8591
:103FA000F4B9812F0E94DC077C018E890E94D8071A
:103FB000B7010E9445085C01812F0E94DC077C014B
:103FC0008E890E94D807B7010E94450895012C5E92
:103FD0003F4F2817390708F467C018B82A8127B956
:103FE000398134B935B961E08B8187D2812F0E9444
:103FF000DC077C018E890E94D807B7010E94450822
:104000007C01A816B90608F05AC04E8544B945B9D6
:104010008E890E94D807FC01640128E4C21626E0BC
:10402000D20608F05DC0960153E0369527955A9563
:10403000E1F748EEE41643E0F40608F054C0C70187
:1040400064E670E00E94BA37C70187599109893840
:10405000914108F04FC0EE15FF0508F04BC02C0D44
:104060003D1D2E153F0508F045C06C157D0508F077
:1040700041C080911A01833018F483E080931A01C3
:1040800020911801822F90E0FC01EF56FE4F3E89EF
:1040900030831683880F991FFC01E356FE4FF1828F
:1040A000E0822F5F2093180117B818B814B815B81C
:1040B0008EE20E942E0C6796E2E10C9460388D89A6
:1040C00084B915B89F8997B998B960E08B8115D2EA
:1040D000812F0E94D8070E944008FC0175019DCFE6
:1040E00028EC30E0A6CFB70144E0769567954A9575
:1040F000E1F7AACF612F8E8901D0D6CFB0E0A0E042
:10410000E4E8F0E20C944638C82FD62FA895862F05
:1041100090E0FC01E55BFD4F5490339624914C2FC9
:1041200050E0FA01E55BFD4F1491339604916091E4
:104130006F0130914F01630F7727771F672B09F0CD
:1041400065C0A89560911E0170911F01660F771FD1
:10415000660F771F70933101609330016091740195
:1041600070917501660F771F660F771F70932F018F
:1041700060932E013EEB30932C0130911801E1E960
:10418000F1E0DF01480F591F9A2F9E1B931708F18A
:1041900018B827B914B915B9B8E1BB2ED12CC12C68
:1041A0008D2F0E94D807782E692E8C2F0E94DC0755
:1041B0007C018C199D0997FF03C091958195910908
:1041C00003970CF46BC1A895BA946701B110E8CFBE
:1041D0000AC08D9115966C911597680F7727771FF8
:1041E0006417750789F680911E0190911F019093C5
:1041F0003101809330018091740190917501909309
:104200002F0180932E0189E180932C01CDB7DEB779
:10421000E0E10C94623825E8C21621E0D20618F7D6
:10422000043AA2E01A0708F0B1C0B8E9AB16B1042D
:10423000D0F2C6010E944008AC019601A8E9B7EB94
:104240000E941F389A0150E040E00E94E1372901A6
:104250003A01C5010E9440089C01A8E9B7EB0E9401
:104260001F38950150E040E00E94E13788E7C8160A
:104270008FE0D80608F06EC0F2E0440C551C661CB6
:10428000771CFA95D1F7C301B201620F731F841F27
:10429000951F25E030E040E050E00E94E137A4E6C1
:1042A000B0E00E9434386B017C01BCEACB0EBDE06B
:1042B000DB1EE11CF11C10911A01143008F093CFA1
:1042C000C150DC0F8D2F90E0FC01E65AFE4F20819B
:1042D000880F991F880F991F82559E4FDC0122235A
:1042E00009F4C1C08D909D90AD90BC90A70196013E
:1042F000281939094A095B0957FF07C050954095AD
:10430000309521953F4F4F4F5F4FAAE0B0E00E949C
:104310003438B4E68B0E911CA11CB11CC80CD91CFE
:10432000EA1CFB1C6C157D058E059F0508F05BCF14
:10433000133019F081E080931A0182E0808380912C
:104340007601E82FF0E0E35AFE4FD0838F5F809331
:10435000760149CFA8E7AA16AFE0BA0670F4E2E00A
:10436000220F331F441F551FEA95D1F7CA01B90127
:10437000640D751D861D971D8CCF240D351D461DA2
:10438000571D569547953795279589CFC0901B01A6
:10439000D0901C01672D762DE616F70608F4B701BC
:1043A000C7010E9445089601DC010E941F382B01BD
:1043B0003C01C7010E9440089C0150E040E0C3015D
:1043C000B2010E94E13729013A01A0901401B09096
:1043D0001501892D982D8017910708F4C801B8019F
:1043E0000E9445089501DC010E941F38980150E0A9
:1043F00040E00E94E13788E7E8168FE0F806B0F465
:1044000062E0440C551C661C771C6A95D1F7C30109
:10441000B201620F731F841F951F25E030E040E05A
:1044200050E00E94E13769017A0145CF0837AFE0DB
:104430001A0770F4CA01B90152E0660F771F881F8E
:10444000991F5A95D1F7640D751D861D971DE5CFEF
:1044500073016201C20ED31EE41EF51EF694E794AA
:10446000D794C79428CFCD92DD92ED92FC9213970A
:1044700081E08083B8CE550C54B88D2F0E94D807A8
:104480005C01B0ECEB16B4E4FB0608F4C4CE80EBA0
:10449000C8168DE4D80608F0A6CEC2CE110F15B806
:1044A00014B98C2F0E94D8078135910508F09BCE56
:1044B00015B98C2F0E94D8076C0107B908B915B837
:1044C00054B8A8E14A2EB12CA12C8C2F0E94D807F9
:1044D000982E892E8D2F0E94DC078C018A199B094A
:1044E00097FF03C0919581959109039724F2A895B0
:1044F0004A9458014110E9CF76CECF93C82FC0958A
:1045000095B160FF0FC0982B95B994B1982B94B9D1
:104510000E94A40784B18C2384B985B18C2385B90A
:10452000CF9108959C23F0CFAF92BF92DF92EF928C
:10453000FF920F931F93CF93DF931AE08FE3D82E50
:1045400009E017B818B815B8D4B880E00E94D807A9
:104550007C0181E00E94DC07EC0182E00E94DC0724
:104560009C0180911A018930C1F417B814B8F092F7
:104570005501E0925401D0935701C09356013093F6
:10458000590120935801DF91CF911F910F91FF9016
:10459000EF90DF90BF90AF90089584E0E816F104AB
:1045A00050F4C430D10508F04EC024303105E8F293
:1045B00091E092600AC091E088EEE81683E0F80688
:1045C00008F090E0C83ED340A0F3283E334008F402
:1045D000946097B9D0E0C0E0A89580E00E94D10730
:1045E0005C0181E00E94DC077C0182E00E94DC0724
:1045F00024E1A21625E0B20608F4389A24E1E21676
:1046000025E0F20608F4399A843125E0920708F48F
:104610003A9A26E0A216B10430F426E0E216F1043C
:1046200010F4069738F02196C43F81E0D807A1F630
:1046300000931A01F12CE12CEC16FD0631F4115017
:1046400009F07FCFA0CF91E0BDCF0E9493072FEF5D
:10465000E21AF20AF1CFCF92DF92EF92FF92CF935C
:1046600020917B0130917C0140917D0150917E0130
:10467000C0918D018AE0C82ED12CE12CF12C8C2F19
:10468000CF5F213A96E8390791E049075105E0F4F8
:1046900080938D01A0913001B09131010E94343896
:1046A00028E833E140E050E00E94E13720937B01AD
:1046B00030937C0140937D0150937E01CF91FF9018
:1046C000EF90DF90CF900895CA01B901A70196013C
:1046D0000E94E137D4CF8F929F92BF92CF92DF9208
:1046E000EF92FF920F931F93CF93DF93C82FB62EB5
:1046F000880F8C0F9FEF960F890F80935101EC2F3D
:10470000F0E0E55BFD4FD491862F90E0FC01E55B86
:10471000FD4F1491FC01E25BFD4FD49080911A0192
:104720009091180121E931E0D9018130F9F4DF914C
:10473000CF911F910F91FF90EF90DF90CF90BF909E
:104740009F908F90089516968C9116978B110DC09F
:104750008C918C130AC0FD01EE0FFF1FE159F1404F
:10476000448555854C3D554010F311968A2F821B88
:10477000891748F3109288011092870181EF809386
:104780008D0110927B0110927C0110927D0110929C
:104790007E01CADE18B8D7B814B915B98C2F0E949B
:1047A000DC078C018B2D0E94DC0714B8109253019A
:1047B000109252014C01801A910A809152019091FD
:1047C0005301843F914028F017B818B814B815B8B1
:1047D000AECFD5B9D4B90E948D0714B815B80E94D0
:1047E0009407A8958C2F0E94DC077C01E80CF91C2B
:1047F00080915201909153018E37910520F02BE466
:10480000E216F1040CF38DE2E81681E0F8060CF0F4
:1048100030C28091520190915301019690935301BF
:1048200080935201CACF85E1E81685E0F8060CF4C2
:10483000FBC17ADE15B887E087B918B8FD2EFF0CEA
:10484000F4B880E480937B0084E580BF8C2F806483
:1048500080937C0086E180937A000E9497071092F3
:104860005301109252011092800010928500109214
:10487000840087E286BB81E280936F0081E08093B1
:104880007801F5B890911A01953009F0D2C1809362
:10489000810081E090E00C2E01C0880F0A94EAF7B5
:1048A0008095877087B9F89483B7817F83BF8091A3
:1048B0007801882389F083B7816083BF78948895D5
:1048C00083B78E7F83BFF894A89580915201909111
:1048D00053018034964059F7789410928100E0900B
:1048E0008600F090870010926F0086E980937A002E
:1048F00014B815B88C2F0E94DC0720913401309138
:104900003501821B930B0C969093900180938F013D
:1049100080915201909153018032934008F054CF1E
:10492000809152019091530190938601809385016B
:10493000F0928401E092830184EF80938D01809155
:1049400052019091530182349105C8F06091830126
:1049500070918401809185019091860124E630E078
:1049600040E050E00E94E1372093830130938401BE
:10497000409385015093860186EF80938D01A0912D
:104980007901B0917A0120918301309184014091A5
:104990008501509186010E94343820E233E040E0E6
:1049A00050E00E94E13720938301309384014093CB
:1049B00085015093860120937B0130937C014093C5
:1049C0007D0150937E0147DE80918D01843F09F087
:1049D00056C0C0907B01D0907C01E0907D01F090AA
:1049E0007E0180EAC8168FE0D806E104F104C0F425
:1049F000A70196012C543F4F4F4F5F4F60EA7FE075
:104A000080E090E00E94E137C20ED31EE41EF51E46
:104A1000C0927B01D0927C01E0927D01F0927E01F8
:104A2000C0907B01D0907C01E0907D01F0907E01F0
:104A3000C114D10421E0E206F10408F0FEC0D092D6
:104A4000BF01C092BE018091510190E08F5C9C4FEC
:104A50000E94CF3890E0B0E0A0E08C159D05AE0537
:104A6000BF0508F0F1C0C81AD90AEA0AFB0AC092C9
:104A70007B01D0927C01E0927D01F0927E01D4B95D
:104A800080917B0190917C01A0917D01B0917E018C
:104A90004997A105B10508F082C096CE0E948E0705
:104AA0008C2F0E94DC07880D991DA8950F5F1F4F62
:104AB00020915201309153012017310778F7670197
:104AC000C81AD90A1C141D040CF0B0C029ECC21677
:104AD000D1040CF079CE28EE33E0D6010E942E38B6
:104AE00097010F2C000C440B550B0E94E1378901F4
:104AF00080915201909153010196B0E0A0E0809323
:104B0000830190938401A0938501B0938601C7012E
:104B10008C0D9D1D0E94A10820918301309184017C
:104B20004091850150918601DC010E9434386093E8
:104B30008301709384018093850190938601609333
:104B40007B0170937C0180937D0190937E0187EFC0
:104B500080938D0180DDC0907B01D0907C01E0903E
:104B60007D01F0907E0184E193E00E94CF38A8EEB1
:104B7000B3E0A81BB10987FDB395A70196010E9478
:104B80003E3824E630E040E050E00E94E1372093D8
:104B90007B0130937C0140937D0150937E01809195
:104BA0001801882329F080911A01853009F00CCE74
:104BB00088E080931A0180918D0190918E01981761
:104BC000C4F0891301CEC0907B01D0907C01E090AD
:104BD0007D01F0907E0140917F01509180016091B4
:104BE0008101709182014C155D056E057F0508F00D
:104BF000EBCD40917B0150917C0160917D017091E2
:104C00007E0140937F0150938001609381017093F6
:104C1000820180938E0110938A0100938901B092E2
:104C20008B01C0938C01D0CDC70142CF10E000E0D2
:104C30005FCF80938100D7B836CE81E090E090932B
:104C4000BF018093BE01FFCE24E1C20ED11CE11C46
:104C5000F11CC816D906EA06FB0610F40E941613CA
:104C600010927B0110927C0110927D0110927E01C6
:104C700006CF00915201109153010115110509F45D
:104C8000D2CDC70110E000E013CF1F921FB61F92D4
:104C900011248F939F93B59904C08091780181115D
:104CA00009C0B59B10C080918600909187008A3F13
:104CB000910548F48091520190915301019690938F
:104CC0005301809352019F918F911F901FBE1F909F
:104CD00018951F921FB61F9211248F939F931092C5
:104CE0007801B09B10C080918600909187008A3F28
:104CF000910548F48091520190915301019690934F
:104D00005301809352019F918F911F901FBE1F905E
:104D10001895B0E0A0E0EFE8F6E20C944A3888E895
:104D200093E190931F0180931E0190933101809332
:104D300030018EEB80932C0118B880E187B90E9476
:104D40009C0717B884E00E94D807AC018B5C9840A0
:104D5000833F9140A0F481E080933B01209130019A
:104D600030913101AFEBB9E00E941F389A0150E059
:104D700040E00E94E13730931F0120931E01809193
:104D80001E0190911F0190933101809330018EE0BC
:104D90000E94DC078EE00E94D80790933501809333
:104DA00034010E944E08C0DB18B8D1E0D7B9D5B99C
:104DB000D4B980E00E94D8078C0182E0C82EC7B821
:104DC000C4E0C5B9C4B981E00E94D807080F191F13
:104DD000C7B990E1D92ED5B8D4B882E00E94D807DF
:104DE000080F191F15B8D8B9D7B9D4B980E00E94F7
:104DF000D8070E9440087C01C8B8C7B8C4B981E090
:104E00000E94D8070E944008E80EF91EC8B9C7B929
:104E1000D4B882E00E94D8070E944008E701C80F7A
:104E2000D91F17B818B814B880913001909131018A
:104E30006C01CC0CDD1CC80ED91EC8018C0F9D1F47
:104E4000C81AD90AF12CE12C9801A0E9BAE10E9414
:104E50001F38A70196010E94E13749015A0130939A
:104E60003A01209339019E01A0E9BAE10E941F385E
:104E7000A70196010E94E13730933301209332015C
:104E80002057354E30931C0120931B0180E7881A70
:104E900085EE980A909215018092140189E1809321
:104EA0002C01CDB7DEB7ECE00C946638CF92DF92E0
:104EB000EF92FF920F93CF93DF93F82EC62FD42F4C
:104EC0000E94780C88E091E00E94860CFFD16C2F44
:104ED0008F2D0E94D435C090C201D090C301E090C4
:104EE000C401F090C5018091200187FD05C0C11467
:104EF000D104E104F10421F084E091E00E94860CE9
:104F00008C2F0E94780CC114D104E104F10431F01B
:104F10000E94970680915D010E94FB06DD2309F443
:104F200059C080913C018D3008F054C08650990BD7
:104F3000855C9C4F0E94860C80E00E945F0BCD2810
:104F4000CE28CF2809F449C06091C2017091C301F5
:104F50008091C4019091C50103E028E447EF0E94CD
:104F6000CB0C87E191E00E94860C86E493E00E94DE
:104F7000D73823E046E464EF0E94AB0D8091BA017C
:104F80009091BB01A091BC01B091BD01892B8A2BEE
:104F90008B2BF1F180E00E945F0B6091BA01709160
:104FA000BB018091BC019091BD0104E028E440E088
:104FB0000E94CB0C82E191E00E94860C23E040E24B
:104FC0006FEF8091C0019091C1010E94AB0D0E94D2
:104FD0003F0B25C00E943F0BAFCF80915D010E9427
:104FE000FB06809120018E3F4CF68FE291E00E94FB
:104FF000860C6091A9017091AA018091AB019091FA
:10500000AC0103E028E4409120010E94CB0CB6CF14
:1050100080E00E94450B80913F018823C1F2DF911F
:10502000CF910F91FF90EF90DF90CF900895EF9286
:10503000FF920F931F93CF93DF93182F0E94BF0A05
:1050400080918B010E94780C8BE491E00E94860C89
:1050500079D360918B0180918C010E940409EC014D
:105060009093880180938701E0908901F0908A01F4
:10507000CA3F8FEFD80720F489E091E00E94860CA8
:1050800080918C010E94780C112309F445C0909105
:105090003C018DE0891B0E94A90A89E690E00E94EC
:1050A000860C0E94C50A60917F01709180018091F9
:1050B00081019091820104E026E440918E010E94DA
:1050C000CB0CCA3FDF4F68F48AE391E00E94860C64
:1050D00022E04DE16EEF80918701909188010E945E
:1050E000AB0D0E943F0B0E94CC0AE114F10469F061
:1050F00083E391E00E94860C22E045E26FEF80910D
:10510000890190918A010E94AB0D0E943F0BCDB79F
:10511000DEB7E6E00C946C380E943F0BC2CF8F7074
:1051200021F40E94D30A0C940E1908958F3021F4B3
:1051300090913601913011F08F5F089580E00895CD
:10514000CF9384E790E0BCD76AE080E00E94B20A87
:105150008FE393E00E94860CC0E00E94FC0E60E0AA
:1051600082E00E947E2062E080E00E947E200E9419
:10517000BF0A809176018823C9F041E062E080E0B7
:1051800095DE8C2FCCDF88EE93E00E94450E8111D6
:1051900009C080911301843028F48C2FC7DFC82FF9
:1051A0008A3FD8F20E94F30ACF91089584E790E0F5
:1051B0000E94860C8FE393E00E94860C0E94C50A31
:1051C0008FE30E942E0C80E00E94450B0E943F0B53
:1051D000D8CF0F931F93CF93DF93C0E0D8E012EFA7
:1051E0000DE00E94FC0E60E082E075DAD0931A01B7
:1051F00080918D01843FE1F480917B0190917C014D
:10520000A0917D01B0917E0184369105A105B10583
:1052100078F440E060E082E00E94843360937B0198
:1052200070937C0180937D0190937E0110938D019A
:1052300080918D01823F6CF180938E0180917B0182
:1052400090917C01A0917D01B0917E0180937F01BE
:1052500090938001A0938101B093820181E0E7DE09
:105260008C2F5DDF88EE93E00E94450E81110AC00D
:1052700080911301843030F48C2F58DFC82F8A3F7F
:1052800008F4AFCF0E94F30ADF91CF911F910F91E5
:1052900008950E94BF0A8DE690E00E94860C8091DE
:1052A0003C01902F981B892F0E94A90A89E690E063
:1052B0000E94860C0E94C50A8FE30E942E0C0E9459
:1052C0003F0B0E94CC0A0E943F0BCACFA6E1B0E080
:1052D000ECE6F9E20C94443882E08093200180915E
:1052E0001A01813009F0D8C180917601813009F02E
:1052F000D3C140905D0124E0429EF0011124E255AB
:10530000FE4F80819181A281B381893032E593077C
:10531000A105B10508F0C0C11C01712C81E0871501
:1053200008F4BEC1842D0E94F106982E892EE92F23
:10533000F0E0E25BFD4F549090E0FC01E55BFD4F37
:10534000E49115B818B8272D2170622E30EF23167E
:10535000310408F0ACC12111AAC1009114011091CF
:10536000150100591A4121E030E002C0220F331F1D
:105370008A95E2F7C901852987B934E1398B892DEE
:105380000E94D5075C01882D0E94DC0724E0A2164C
:10539000B10410F4049728F039893150398B311158
:1053A000EECF80E480937B0094E590BF892D8064EC
:1053B00080937C0026E120937A00F12CE12C10925E
:1053C0008000109285001092840037E236BB0E9464
:1053D0009707872D90E09A8B898B61106FC181E8C8
:1053E0008093810058B886B385FF71C118B81092B8
:1053F000810020E226BB2091860030918700690160
:1054000040918400509185002417350708F46DC140
:1054100086E980937A00B4E15B2E892D0E94D5073E
:105420005C01882D0E94DC0724E0A216B10410F470
:10543000049718F05A945110F0CF80903901909051
:105440003A01820C931C800E911E2091160130911E
:10545000170100398AE1180708F04FC169E191EEA0
:10546000C916D104E104F10430F4C60165E070E02E
:105470000E94BA37645128523109261B310967FD51
:10548000339566E0862F90E0B0E0A0E08C159D0596
:10549000AE05BF0508F03AC1C81AD90AEA0AFB0AE4
:1054A000662029F082E2C80ED11CE11CF11C90E5B7
:1054B000E916F10418F0C12CD12C76018BE0C81646
:1054C000D104E104F10428F091E0C91AD108E108FF
:1054D000F108B12CA12CA8EEB3E00E941F386B8B11
:1054E0007C8B8D8B9E8BA0913001B0913101980106
:1054F0000E941F38A50194010E94E13744275527D7
:105500006B897C898D899E890E94E137C9010E943F
:10551000E008FC01A5019401C701B6010E949F3774
:105520004B015C01BF0190E080E0E3E0660F771F74
:10553000881F991FEA95D1F76B5F7F4F8F4F9F4F61
:105540002AE030E040E050E00E94E137C501B401BC
:105550000E94E137E989FA89EE0FFF1FEE0FFF1F66
:1055600081E090E08C0F9D1FE80FF91F20833183AD
:1055700042835383611018C09CE0C916D104E10432
:10558000F10490F07394E989FA893196EE0FFF1FC8
:10559000EE0FFF1F81E090E08C0F9D1FE80FF91FB9
:1055A0002083318342835383A895739493E09715A6
:1055B00008F0B4CE18B884E00E94A50791E00D81F0
:1055C0001E812F81388549815A816B817C814017EA
:1055D00051076207730708F090E00D851E852F853F
:1055E000388949855A856B857C8583E0401751074A
:1055F0006207730708F082E024E0829FD001112443
:1056000021E030E02C0F3D1FA20FB31FE92FF0E087
:10561000EE0FFF1FEE0FFF1FE20FF31F0D911D9105
:105620002D913C914081518162817381041715074E
:105630002607370708F0892F34E0839FF0011124F3
:1056400021E030E02C0F3D1FE20FF31F408151811C
:10565000628173814093A9015093AA016093AB01C9
:105660007093AC0180FD56C030EF2316310408F072
:1056700051C08BEF809320018091A9019091AA01E4
:10568000A091AB01B091AC01892B8A2B8B2B11F42B
:105690001092200117B814B86696E2E10C946038B5
:1056A000842D0E94F1069827892798273ECEE4B9D9
:1056B00057B800911401109115015FCE58B80E949F
:1056C000A00790E296BB81E8809381008CCE80FF9A
:1056D0008ACE31E036BBA89597012F5F3F4F790105
:1056E0002035310509F07FCE81CE80FF91CE81E05B
:1056F00086BB9FEFE91AF90A8BCEC40160EB76E313
:105700000E94BA37695F285D3F4FBCCEC12CD12CB7
:105710007601C6CE8CEF80932001CB01BA016B5F7E
:105720007F4F8F4F9F4F2AE030E040E050E00E94D3
:10573000E1372093A9013093AA014093AB01509324
:10574000AC019ACFB0E0A0E0E8EAFBE20C94463866
:105750000091890110918A010115110509F08FC08E
:10576000E0918B01F0E0E25BFD4FD491E0918C0180
:10577000F0E0E55BFD4FC4910E94942218B815B883
:10578000D7B9C4B980918C010E94DC077C01D0910B
:105790008E018CE08D0F843008F071C080917F0104
:1057A00090918001A0918101B0918201D15F2C0183
:1057B0003D0125E0420E511C611C711CC301B20168
:1057C0002AE030E040E050E00E94E13749015A0110
:1057D000DA01C901DF5FD73051F72AE5421623EC21
:1057E00052066104710408F04AC0059708F447C0E6
:1057F000C5B9C4B9D0E0C0E0C815D90508F444C0A3
:1058000014B815B8A89585E080932C0180918C017F
:105810000E94DC07EC01CE19DF09E816F90610F04A
:10582000D0E0C0E0D12CC12CC814D90488F18091FB
:105830008C010E94DC0729E120932C01A895E81631
:10584000F90618F48C010E191F090C171D0788F4AE
:105850009E01201B310B69F0A4EFB1E00E941F38BC
:105860009E0150E040E00E94E13730938A0120938E
:1058700089010E94942217B818B814B815B8CDB78A
:10588000DEB7E0E10C9462380E949E072296B4CF06
:105890000E949E078FEFC81AD80AC6CF8B3008F037
:1058A0008B50811107C088E192E00E94860C0C9415
:1058B0003F0B0895813019F48FEE91E0F6CF8230DE
:1058C00019F484EE91E0F1CF833019F48FE790E082
:1058D000ECCF843019F484E790E0E7CF853019F4F9
:1058E0008DE690E0E2CF863019F484ED91E0DDCFD3
:1058F000873019F485EC91E0D8CF883019F48EEA1E
:1059000091E0D3CF893019F486E092E0CECF8A308F
:1059100071F68BEF91E0C9CF0F93CF938FE790E0B3
:10592000CFD3C0E010921A0160E082E041D48091B0
:105930001A01883009F04FC00E94C50A83E40E9412
:105940002E0C0E949B0660917F01709180018091D6
:1059500081019091820103E026E440918E010E9432
:10596000CB0C0E943F0B60918B0180918C010E94B7
:10597000040990938801809387010E94CC0A8BE3ED
:1059800091E00E94860C80918701909188018A3F66
:105990002FEF9207E0F422E04DE16EEF0E94AB0D95
:1059A0000E943F0B8C2FBBDB88EE93E00E94450EDC
:1059B00081110AC0809113018B3030F48C2FB6DB3B
:1059C000C82F8A3F08F4AECFCF910F9108958FE38F
:1059D0000E942E0CE5CF0E94660B0E94CC0AE0CFFD
:1059E000A5E0B0E0E6EFFCE20C9444388FEE91E0E5
:1059F00067D380E18093800010926F0081E090E097
:105A0000909389008093880010928B0010928A00F6
:105A100083E086BB1092820088E08093810015B8F5
:105A200081E184B918B881E087B9229A89E080932E
:105A30008100312C20E03AE0398341E04D83812C14
:105A4000912C5401839451E15C83832D90E00A965C
:105A50006EE170E00E94CE376B83F62E621759F02C
:105A60000E94BF0A8FEE91E00E94860C10E01F1189
:105A7000D8C00E943F0B8D8169810E94AE37A92F4B
:105A8000B0E0A50194010E9434386B017C018C8147
:105A9000823150F0652D762D872D902F0E94E137B1
:105AA000C60ED71EE81EF91E0E94C50A9D812981D7
:105AB000212C921306C081E03C81323108F480E051
:105AC000282E2A828CE3211005C04C8182E54631C4
:105AD00008F48EE30E942E0C0E9497064C81C701A9
