:10000000C2C50000D2C50000D0C50000CEC50000AA
:10001000CCC500000C94AB32C8C500000C942F0F67
:10002000C4C50000C2C500000C9413270C949A327A
:100030000C949F320C94EF26B8C50000B6C50000A2
:100040000C947932B2C50000B0C50000AEC5000006
:10005000ACC500000C94300FA8C50000A6C5000078
:10006000A4C50000A2C50000E62FF72F903009F4C8
:100070009395E5B8C4B8B6EFB0937A00A5E0A09325
:100080007B00A8E0A093810010928000AFEFA093C6
:100090008500A0938400A6E0A093360010928B0008
:1000A00010928A00B3E0AFE3A91B51E0392F33303F
:1000B0002AF0A05CBC4F53953350F9CFB093890020
:1000C000A0938800A0917A00A4FFFCCFB6EBB09378
:1000D0007A00A2E0A0936F00A9E0A093810062E003
:1000E000A0E0A0937B00A1E0A09353008895E5B821
:1000F000C4B884FF1AC0A8E10000AA95F1F7EF93F5
:10010000FF93E7B1F8B1A4E0C2FCA2E0C0FCA1E01B
:10011000BF2FBA2BAE2BB8B904B9A7B9E7B9F8B954
:10012000FF91EF910BC00C947300ACE10000000054
:10013000AA95F1F725B9E5B8000004B9A0918400AB
:10014000A0918500B0918900A395AB1760F7A091AD
:100150007A00A4FFF3CFB6EBB0937A006A9571F7FB
:100160006091780070917900308186FD630F619312
:10017000308186FD731F80FF7193652F4A9579F753
:1001800010926F0010928100B6E0B0937A0008954B
:10019000C401BD01B60118000720080808F80000D6
:1001A000002060A03FA06020020202FF02020210B5
:1001B00010101F000000050842818989760508C2D9
:1001C000A19189860508000402FF0010100508F8B7
:1001D00078385888091003081C3E7F0D080710FF67
:1001E000818181F1E1C1FF4040404743410D080159
:1001F00010FFFF11080310F1E1C14743410E000851
:10020000202121122060E0E0E0FEFE040201000156
:10021000037F7F21C2C4C4C040948400070301024D
:10022000040E080210FEFE7F7F0000000011000592
:10023000202060E0E0E00201000103C2C4C4C0402D
:100240000703010204010410090A0C4E6F742063B5
:10025000616C696272617465642120466F72FF632C
:10026000616C6962726174696F6E20636C616D703C
:10027000207468652033FF70696E7320746F676542
:100280007468657220616E64207374617274207783
:1002900069746820746865FF6B65792E2041636B13
:1002A0006E6F776C65646765207468652073656C34
:1002B000662D74657374207769746820746865208E
:1002C0006B65792077697468696EFF32732E2044FC
:1002D0006973636F6E6E6563742070696E732061FD
:1002E0006674657220746865FF6D65737361676518
:1002F000202269736F6C617465FF50726F626521B3
:10030000222069732073686F776E2E20536F667496
:100310007761726520616E6420646F63756D656ED0
:10032000746174696F6E20697320617420676974E9
:100330006875622E636F6D2FFE6B756269343800CD
:10034000B903870358032E030703E402C302A40280
:1003500088020000140029003E005300690080005C
:100360009700AE00C600DF00F80012012D01490120
:1003700065018201A001BE01DE01FF0121024402EC
:1003800068028E02B502DE0209033503640394039A
:10039000C803FE0337047304B404F904430593054A
:1003A000EA054906B3062907AE074808FF08DE0933
:1003B000FD0A930C480F991B00000000000000008C
:1003C00000000000000000001E2121211200807F9B
:1003D0000000007E4A4A4A34000000000000FC4051
:1003E00020100804020100000001010101010101C7
:1003F0000101010101017F0488D0E0F0F800000054
:10040000000000000000000000000000000000FCF0
:1004100094948400000102FC000000000000000031
:10042000000000001E21212112E0C0804020100F9A
:10043000000000C020202040000000FC00009E9E24
:1004400004030303030200000020202324252523A6
:100450002020203F00007B7B2142840480C00000DC
:10046000000000000000000000000000FC949484E4
:1004700000040607070708F0000000000000000065
:100480000000000000803F2121120C00000000FF4E
:10049000000000F0084848C80000FE0000E7818125
:1004A00081C1E1F1818181010020202021212120D1
:1004B00020203F0000F340404041434740407FC080
:1004C0000000000000000000000000000000489450
:1004D00094946400000000FF000000000000000091
:1004E00000000000000000003F2121120C0000FF6E
:1004F000000000F0084848D0000000000000FEFEA8
:10050000040404040404040700080808090909088D
:10051000087F3E1C08087F7F20202020202020E02C
:1005200000000000000000000000000000000000CB
:1005300048949494640000FF000000000000000054
:10054000000000FF003C0A090A3C0022312929264C
:10055000000082868E9EBEFEFEBEDEEFF6FAFEFE36
:10056000FAF2E2C28200000008080804027984A4BA
:10057000A46800FF00000000000000000000000070
:100580000000000000000000000000FF0000F02854
:100590002428F0001008FC0000000000000000000B
:1005A0000000003C0A090A3C00FF000000000000B7
:1005B000000000000000000000000000040C1C3CD3
:1005C0007CFF7C3C1C0C040000000000009EA1A9E4
:1005D000A99A804323130B0703FF030303030303B9
:1005E00000000000000000000000007884848448BF
:1005F00000FF000000000000000000F00804E2110D
:100600000909090909090909091121C2040810E0A9
:1006100000000001020404070000000000804020E8
:1006200010884423100804030000000000000000AC
:10063000000000FE0100FC020100000000000000BC
:100640000000000000000000000000794949790026
:10065000000000000000000000FC021212EC040385
:1006600000010100F008080808F004070000070472
:100670000000F00000F0040203020103000C12125B
:100680000C0000000000000000000000000000005E
:100690000000000000003CFE3C000000000B0000D9
:1006A00000160E00160E00000000000008FE0808EC
:1006B000FE08010701010701001028FC8810000155
:1006C000020702010E8A4E20100C030000070507E6
:1006D0008854225488C00304040201060000160E48
:1006E0000000000000000000F80402000000010209
:1006F000040000000000000204F8000000040201F1
:100700004850E0E05048020100000102004040F083
:100710004040000000010000000000000000000058
:100720000503000040404040404000000000000041
:1007300000000000000000000606000000804020CD
:100740001008010000000000F884422214F80102A1
:1007500004040201000804FE00000000000700007D
:100760001804824224180605040404040C02022220
:100770005488030404040201C0B08C82FE8000008F
:10078000000007003E22121222C2010204040201EC
:10079000F824121222C4010204040201028242223D
:1007A000120E000700000000885422225488010223
:1007B000040402013844828244F802040404020161
:1007C000000030300000000006060000000030305D
:1007D00000000000050300000040A0100804000015
:1007E000000102042020202020200101010101013C
:1007F00000040810A0400004020100000C02C22204
:10080000120C000006000000F804629294F8010245
:1008100004040402F844424244F8070000000007C0
:10082000FE22222222DC070404040403FC0202024A
:10083000020C030404040403FE02020202FC070487
:1008400004040403FE2222222202070404040404F6
:10085000FE2222220202070000000000FC020242E7
:1008600042CC030404040207FE20202020FE0700DF
:1008700000000007000002FE020000000407040060
:1008800000000000FE00020404040300FE60900863
:100890000402070000010204FE000000000007043B
:1008A00004040404FE0C30300CFE070000000007B6
:1008B000FE18204080FE070000000107FC02020233
:1008C00002FC030404040403FE424242423C0700CB
:1008D00000000000FC02020202FC03040405020501
:1008E000FE42C242423C0700000102040C122222D6
:1008F000428C030404040403000202FE020200000E
:1009000000070000FE00000000FE030404040403CE
:10091000007EC000C07E00000107010000FE80F8DC
:1009200080FE000007010700069860609806060137
:1009300000000106001E20C0201E0000000700006D
:1009400002824222120E07040404040400FE020282
:100950000200000704040400102040800000000092
:100960000000010200020202FE000004040407006D
:10097000000804020408000000000000000000005D
:100980000000040404040404000204080000000041
:10099000000000008048484848F0030404040207AF
:1009A000FE10080808F0070404040403F00808080F
:1009B0000830030404040402E010101020FE0304B5
:1009C00004040407F088888888700304040404047D
:1009D00010FC1202020400070000000070888888E2
:1009E00088F0020404040403FE40201010E0070015
:1009F00000000007000008FA0000000000070000E7
:100A000000000000FA00040808080700FE40A010DB
:100A10000800070000010204000002FE00000000C0
:100A20000003040000F808F008F0000700070007C2
:100A3000F820100808F0070000000007F008080878
:100A400008F0030404040403F890080808F0070001
:100A500001010100F008080890F8000101010007F9
:100A6000F8201008083007000000000030484888CF
:100A700088100204040404030010FE10100000009B
:100A800003040402F800000000F803040404020751
:100A90000078C000C07800000107010000F800C025
:100AA00000F8000304030403186080806018060146
:100AB000000001067880808040F8020404040403EA
:100AC0000808884828180605040404040040A01CEF
:100AD0000202000000070808000000FE00000000FD
:100AE000000F00000002021CA040000808070000E0
:100AF000040201020402000000000000E0100804EB
:100B0000081001010101010140F0101010F0400037
:100B1000010101010100FCF8F0E040FCFC070301C9
:100B200000000707FCFC40E0F0F8FC0707000001AC
:100B3000030740FCFC00FCFC40000707000707001F
:100B4000F80808080808080302020202020208085E
:100B500008080808F802020202020203404040406E
:100B60004040400000000000000040408000C020E5
:100B7000C00000010202010200C020C0008040024B
:100B800002010202010011241FBECFEFD8E0DEBF38
:100B9000CDBF21E0A0E0B1E001C01D92AE3BB207A5
:100BA000E1F70E94B7130C949B3B2ACA6F938F9373
:100BB00055983BD1529A39D188E70DD06F9180E892
:100BC00060FD80E408D08F9106D0529A2ED15598BE
:100BD0002CD152982AC10894881F559A10F4529823
:100BE00001C0529A22D1559820D1880FB1F7559A59
:100BF00052981BD155984D9BFECF4A9981E015D153
:100C0000559A13C10895529855985A985D98089529
:100C100097FF09C08F939F938DE2A1D59F918F91EC
:100C2000909581959F4F6BE171E04AE050E00E9402
:100C30003A3B07C6EDDF01C0EBDF80E290C58DE2F5
:100C40008EC58DE38CC5EF92FF920F931F93182FE3
:100C5000062FF42E82E691E0FFD5EE24E0913601D6
:100C6000F09137018685E81611F4812F09C084853B
:100C7000E81611F4802F04C08585E81611F48F2D35
:100C80006ED5E3948E2D833049F71F910F91FF901D
:100C9000EF900895EF92FF920F931F93182F062F56
:100CA000F42E80E07FD488E691E0D6D5EE248E2D18
:100CB000C5D5C7DFE0913601F09137018685E8168A
:100CC00011F4812F09C08485E81611F4802F04C027
:100CD0008585E81611F48F2D42D5AFDFE3948E2D74
:100CE000833029F71F910F91FF90EF900895682F9F
:100CF00080E092E0662309F491E0623009F481E03B
:100D00000895863058F4E5E9F1E0E80FF11DE80FA9
:100D1000F11D8081918163E0F5D68FCF08951F93F7
:100D2000182F80916F01882319F087DF80E017D595
:100D300000D489E591E090D5812F82958F70E1DF15
:100D4000812F8F70DEDF1F910895809106018295BB
:100D50008F7018D08091060183701AD0809106019F
:100D6000DECFE9E8F1E0E80FF11D0895CF93F9DF58
:100D70009081C681C91710F405D001C012D05DDF83
:100D8000CF910895EEDF8F93808158D58F9100C069
:100D90008F9387E291E060D58F91E3DF86814EC526
:100DA0000895DFDF8F93868149D58F9100C08F939F
:100DB00083E291E051D58F91D4DF80813FC50895C2
:100DC0008F932F932AE080953B9A089410F44398D0
:100DD00002C0439A000020D027D086952A95B1F70B
:100DE0002F918F91089503D002D001D000D000D070
:100DF00003D002D001D000D000D003D002D001D067
:100E000000D000D0A89503D002D001D000D000D0EF
:100E100003D002D001D000D000D003D002D001D046
:100E200000D000D003D002D001D000D0000008953F
:100E300082E090E0893C28F0885C48EC849FC00107
:100E40001124009709F4089540918100477019F02A
:100E5000D9DF0197F6CF8130910519F002975EE353
:100E600003C057E180E090E04091B200450F40930D
:100E7000B30042E04093700047E043BF889546E0EE
:100E800043BF10927000A895DCCF8F9384E0D1DF30
:100E900006C08F93CDDF03C08F9381E0CADF8F91AF
:100EA0001F93182F106410937C00E12FE07880913D
:100EB0002601E81759F0E0932601AEDF8EE9809312
:100EC0007A0083E083BF889582E083BF20E030E032
:100ED000A901E0E01FC08EE980937A0083E083BF20
:100EE000889582E083BF6091780070917900260F29
:100EF000371F411D511DE43061F48091280180307D
:100F000041F084E02030380720F417FD02C010685B
:100F1000CACFEF5F80912501E817E8F260912901BF
:100F200070912A0117FF04C0609127017091280178
:100F300080E090E00E94AA392FEF33E040E050E0DB
:100F40000E94EC39B901CA012091250130E040E04E
:100F500050E00E94EC39C9011F9108959B01281BA4
:100F6000390B50F0C9010895BC018091290190917D
:100F70002A016817790718F4861B970B089580E0FB
:100F800090E0089582E493E00E94753B20912D014A
:100F900030912E01280F391F20930F01309310013B
:100FA00083E0283E380720F0C901885E934002C0E4
:100FB00080E090E062E370E00E94C539683008F09C
:100FC00067E0E0E4F3E0E60FF11DE60FF11D459167
:100FD00055912591359162E3681B421B530B649F29
:100FE000C001659F900D1124499662E370E00E9454
:100FF000C539620F731F709372016093710184E4AD
:1010000093E00E946D3B992787FD909560912D019B
:1010100070912E01860F971F9093280180932701CE
:1010200090936E0180936D0108950F9221E08C32B0
:10103000920710F48CE291E08C52914069E170E0EB
:101040000E94C53999E16B3210F0982F6BE2981B22
:10105000EFEBF2E0E60FF11DE60FF11D9F93CF01DC
:101060000E946D3B482F3196CF010E946D3B582F57
:101070003196CF010E946D3B282F3196CF010E94FF
:101080006D3B382F6F91421B530B649FC001659FCE
:10109000900D11240C9669E170E00E94C539620F31
:1010A000731FCB010F900895CF93DF9324E130E0BD
:1010B000B9010E94C539DC01E2E5F3E0E60FF71F54
:1010C000E60FF71FC591D591459155914C1B5D0BCE
:1010D0004A9FC0014B9F900D5A9F900D1124B9015A
:1010E0000E94C5396C0F7D1FCB01DF91CF91089510
:1010F000AEE1B0E0EEE7F8E00C94DA3A662EB82EF6
:10110000860F898320911301283059F520917701AA
:10111000309178014091790150917A0157FD15C0C5
:101120001091860109C0CA01B9012AE0312D412D73
:10113000512D0E94EC391F5F173FACF391F424311D
:1011400060E036074105510518F48FEF9FEF42C16B
:10115000173F39F480E028178DE73807410541052E
:1011600010F020E03DE72C8B3D8B26EDA22EE8E42D
:10117000F2E0E60DF11D859188608E87E8E4F2E0EB
:10118000EB0DF11D859188608F87E5E4F2E0E60DB7
:10119000F11D7590E5E4F2E0EB0DF11DC59090ECCA
:1011A000692AB92A81E0E82EF12C012D112D8E83B8
:1011B0001F82188619861A861B861C861D86188E25
:1011C000198E1B8E1A8E0E94422388E088B9609285
:1011D0007C0022DE3F8537B975B874B852E05A9565
:1011E000F1F70000000014B815B8DD243E8537B9CA
:1011F00075B874B860927C00A895A0927A0080912E
:101200007A0086FDFCCF2090780030907900B09273
:101210007C004C2DE3D02091780030917900288B10
:10122000398B3F8537B9C5B8C4B8A895B0927C0052
:10123000A0927A0080917A0086FDFCCF60917800C0
:101240007091790060927C00472DC8D04091780061
:101250005091790014B8CB01820D931DE80EF91E50
:10126000011D111DEA82FB820C831D8388899989E7
:10127000840F951F2E813F8168857985280F391F3E
:10128000611D711D2E833F836887798722E32417B0
:10129000150648F075B874B8C9DD14B815B8888D4E
:1012A0008395888F07C0483E73E0570718F08A8DF2
:1012B00083958A8F888999892817190658F03E8561
:1012C00037B9C5B8C4B8B2DD14B815B8898D8395DF
:1012D000898F07C0883E73E0970718F08B8D839540
:1012E0008B8FD3945D2D5F3F49F05F3731F45C2DD8
:1012F000550FC50E572D550F750E78CF4090320102
:1013000050903301440C551C9201E4E0240D351D2E
:10131000EA95E1F72901570168016E807F80888492
:101320009984209113012830C1F46C897D89812D25
:10133000912D65507040804090409B01AC010E940F
:10134000AA399B01AC0160E779E786E190E00E9451
:10135000EC39621A730A840A950AA614B704C80401
:10136000D90428F46A187B088C089D0803C06624F9
:1013700077244301B20180E090E09301A4010E9430
:10138000AA399501A6010E94EC398AE193E079819E
:10139000870F911D0E946D3B682EC90160E170E0CE
:1013A0000E94C539260F371FC9016816190618F49F
:1013B000861991090FC08C5E9F4F8615910540F4E8
:1013C0008C899D89843981E1980710F00E945D1312
:1013D000812D912D6E96E2E10C94F63A10928100E7
:1013E0001092800010926F0010928B0010928A0071
:1013F00057E056BB5FEF509385005093840055E053
:1014000050937B0056EB50937A0051E0509381004B
:1014100058E25A95F1F7000045B944B955E05A959C
:10142000F1F7000014B815B81092810080917A008D
:1014300084FFFCCF80937A000895CF93C82F1C16A9
:1014400014F0CF910895F9DBC150F9CF60933501C5
:101450008093030186958093A50187E0689F602DA6
:101460001124609304010895809135018093010156
:101470008091A501809302010895809102016091FD
:101480000101880FE3CF0895682F80E08FCB089586
:101490008EEAFADF85EAF8CF08958DE091DC8AE0E4
:1014A0008FCC08951092A50160E080E0CFDFF5CFEA
:1014B0000895CF93DF93C0E080E1E6DF80E0E4DFD2
:1014C0008C2F806BE1DFD4E860E081E06FDBD150EE
:1014D000D9F7CF5FC83081F7E5DFDF91CF9108956D
:1014E00092DB84E1A6DC8EEACFDF82EECDDF82EAFA
:1014F000CBDF80EAC9DF80ECC7DF85EDC5DF80E8A0
:10150000C3DF8DE8C1DF84E1BFDF81E8BDDF89E1B2
:1015100093E00E946D3BB8DF80E4B6DF84EAB4DF7D
:1015200086EAB2DFC6DF8FEAAFDF60E080E08ECF11
:10153000089581E08093A50160E082E087DFADCF70
:10154000089582E08093A50160E084E07FDFA5CF6D
:10155000089583E08093A50160E086E077DF9DCF6A
:1015600008959091350182E1891B67CF0895CF934B
:10157000C82FF7DF8091A5018F5F8093A50184308C
:1015800070F083E08093A50181E080933801809121
:10159000A5016C2F880F5ADF80DFCF91089510923C
:1015A0003801F5CFE4DF13D48091A501833008F032
:1015B00074CF089577DFD5DF75CF0895BADFD1DF17
:1015C000B8CF0895582F28E030E090E841E080E05F
:1015D000652F642309F0892B440F9695215031091A
:1015E000B9F70895B0E0A0E0E8EFFAE00C94DB3A38
:1015F0006C01A02EB12CC501860F911D813891057B
:101600000CF040C0E42FEE0DFF27FF1FCF01E134A7
:10161000F105C4F5D42FD695D695D695019733E02C
:10162000959587953A95E1F7F22FF2704F2E21FFAD
:101630000DC0482F4D1B550BFA01EA9DA001EB9DF3
:10164000500DFA9D500D1124C40ED51E782E57E072
:10165000581710F497E0792EC0E8C01BC61B8C2FDA
:1016600082958F70582E689454F887E0382ECF708A
:101670002170622E7D1658F49091030187E0891B3A
:10168000806B02DFCDB7DEB7E1E10C94F73A832D32
:101690008D1B806BF9DE852DF7DE8C2FF5DE760154
:1016A000EA0CFB1C87014601C016D10641F4442018
:1016B00019F07601EA18FB08DF5F6701DBCF015004
:1016C0001109F8016110F4018491411001C07ADF21
:1016D000682F81E06BDAFFEF8F1A9F0AE5CFEF9258
:1016E0000F93482F8F7320E6829FC00111248854E6
:1016F0009C4F28E046FF28E420930501109200014A
:1017000047FD08C02091050130E2309300012D5EB5
:101710002093050120E2E22E08E120E04091000143
:10172000609105015FDF0F91EF900895EF920F93A5
:10173000262FFC01349131964491319604913196D3
:10174000E490E09100014E0F60910501630F049653
:1017500049DF0F91EF90089560E0E8CF0895EF9290
:101760000F93CF93C82F809135018F5F8093350100
:101770002C2F30E040910301440F440F440F60913F
:101780000401CC30D0F42EE0C29FC001112430E11E
:10179000E32E07E020E0885F944F24DF809104016E
:1017A000895F80930401EFEFEC0FEE3108F044C045
:1017B000F0E0E356F44C0C942A3A2C5131095CE0E9
:1017C000529FC001539F900D112420E1E22E06E0AC
:1017D00020E0885A994F06DF609104016A5F6093A8
:1017E000040140910301440F440F440F01E020E045
:1017F00088E896E0F7DE809104018F5FD2CF8EE318
:10180000DFDA8CE703C08CE7DBDA8CE3D9DAA89562
:10181000CF910F91EF9008958CE7F2CF82E5F6CF4C
:101820008DE2F4CF85E7F2CF8FE4CADA88E6C8DA32
:101830008DE6ECCF8CE4EACF8C2FE8CF8F5C8FCF96
:101840000895CF93DF93EC018991811103C0DF915B
:10185000CF91089584DFF8CFCF93DF93EC01CE01D1
:101860000E946D3B882319F07ADF2196F8CFDF9133
:10187000CF910895EF920F93FC0104913196E4907B
:101880000296B0DE0F91EF9008950F9380E891E0FB
:10189000E3DF409185014D3F6CF4609173017091DD
:1018A0007401809175019091760103E026E43FD0A8
:1018B0000F9108958FE353DFFBCF909112019F703A
:1018C000923071F46FDE84E690E0C6DFE09136017D
:1018D000F091370122E04DE16FEF8481958107C1DE
:1018E00008950F93282F84E0289FF0011124EA55D2
:1018F000FE4F60817181828193816436710581051B
:10190000910580F43091190137FD0CC0822FEFD979
:10191000682F892FEDDB23E04DE16EEFE8D08DD904
:101920000F91089504E02DE14FEF01D0F8CFAEE024
:10193000B0E0EDE9FCE00C94DA3A142F322E202EC0
:101940006B017C010F7080E389838A838B838C8396
:101950008D838E83F7FE3FC072D9F094E094D094CB
:10196000C094C11CD11CE11CF11C58EE452E53E063
:10197000552E612C712C033041F140E1442E47E299
:10198000542E612C712C043001F130EA432E36E8DC
:10199000532E66246394712C0530B9F020E4422E56
:1019A00022E4522E2FE0622E712C063071F064E694
:1019B000462E512C612C712C073039F490E8492EB9
:1019C00096E9592E98E9692E712C8AE0882E912C7F
:1019D000A12CB12C12C025FEC8CF8BE2C0DEC5CF32
:1019E000C701B6016B5F7F4F8F4F9F4FA5019401D9
:1019F0000E94EC3969017A011F5FC414D504E60422
:101A0000F70470F781E1810F9BEA899F812D1124F2
:101A1000782E769486E0811B899F112D11241695CE
:101A2000912F990F190F811B182F4E0187E0880EF7
:101A3000911C2AE0A401C701B6010E94193BF401E0
:101A400001900020E9F731977F01E818F908DE2CB2
:101A5000812F90E004968E159F0514F473941D5FFA
:101A6000872D90E0845D9F4F0E946D3B982E822DC4
:101A7000807124FE05C0802F8E19D01608F080E0FA
:101A80000E2D011B080F101624F08EE268DE812F48
:101A90008E19111101C008EFA12CC82ED12CEC0C0D
:101AA000FD1C002E000C110BEA2DF0E0EE15FF05D9
:101AB00064F0992011F0892D52DE332011F0832D2E
:101AC0004EDE2E96E2E10C94F63A3696EC19FD09BC
:101AD00081E090E08C0F9D1FE80FF91F80813FDEB1
:101AE000A394A016110601F78EE239DEDDCF0F9325
:101AF000362FBC0190E080E0022F242F432F17DF08
:101B00000F9108950F93062FBC0190E080E026E529
:101B10004DEF0DDF0F9108950F93042F28E440E05F
:101B200006DF8AE71CDE89D80F910895E82FF0E0E0
:101B3000EE0FFF1FE057FE4F859194912091000119
:101B4000420F20910501620F20E094CE0895CF93BB
:101B5000DF93C82FD62FE0913601F091370148E18D
:101B60006EE18685E3DFE0913601F09137014D2F7C
:101B70006C2F8485DBDFE0913601F091370140E086
:101B80006EE18585D3DFDF91CF9108951F93CF93C9
:101B9000DF938FDC80ECA3DD62E086E991E0C6DDB7
:101BA00080E89DDD8BEC91E0D7DD60E085E04EDCE8
:101BB00085E791E051DE69E085E048DC8DE691E063
:101BC0004BDE88E99AE3CBD074DC83E488DD83E0E4
:101BD00086DD84ED91E0C0DD61E082E037DC8EE4FB
:101BE000BEDD2DD88FE891E037DE6AE082E02EDCA2
:101BF00080E5B5DD24D88FE891E02EDE88E99AE310
:101C0000AED057DC81EC6BDD81E869DD8DE292E0DE
:101C1000A3DD60E085E01ADC8EE4A1DD10D885E468
:101C20009EDD89E891E018DE69E086E00FDC80E562
:101C300096DD05D885E493DD89E891E00DDE88E93D
:101C40009AE38DD036DC81E44ADD81E292E084DDE6
:101C500081E045DD8DEF91E07FDD60E081E0F6DB46
:101C60008EE47DDD0E941F0684E479DD89E891E041
:101C7000F3DD69E082E0EADB80E571DD0E941F06AA
:101C800084E46DDD89E891E0E7DD88E99AE367D0D7
:101C900010DC82EC24DD82E822DD83EF91E05CDD64
:101CA00060E085E0D3DB8EE45ADD0E941F0685E408
:101CB00056DD84E991E0D0DD69E086E0C7DB80E5B0
:101CC0004EDD0E941F0685E44ADD84E991E0C4DD13
:101CD00088E99AE344D0EDDB82E401DD8DEE91E00A
:101CE0003BDD82E0FCDC8BED91E036DD61E081E004
:101CF000ADDB8EE434DD0E941F0684E430DD84E930
:101D000091E0AADD6AE082E0A1DB80E528DD0E94A7
:101D10001F0684E424DD84E991E09EDDC0E012E149
:101D20008C2F612F0E94B93991110BC0D82FD3701D
:101D300021F488E99AE313D0BCDB60E08D2F880F93
:101D400085DB8CE18C0F0BDDCF5FC43649F788E96A
:101D50009AE305D0AEDBDF91CF911F910895EF920A
:101D6000FF920F931F93CF93DF93F82EE92EC5E6D2
:101D70004F9B1BC0CF2DDE2D15E500E0D7FD0FC01A
:101D800057D8110F4F9B1F5F1F731F3399F4011119
:101D900003C0CF2DDE2D04E00F5F083C78F0802FCC
:101DA000CDB7DEB7E6E00C94023B81E042D8C150EB
:101DB000F9F6E0CF111102C00111F1CFA8951C1660
:101DC0001D06E4F62A97D1F6CFEFDFEFD7CFCF93FA
:101DD0004BDBC82F809138018823D1F0813051F43A
:101DE000C33041F461E186E031DB8BE2B8DC61E1D4
:101DF00086E02CDB80E49FE1B2DFC33041F48091C8
:101E00003801813021F460E086E020DBAADB35DB9D
:101E1000CF91089540911101A0913601B091370101
:101E2000E9E8F1E030E020E0822F2417B0F451918E
:101E30001C969C911C97591719F05581951303C056
:101E40002F5F3F4FF1CF220F331FF901EB56FE4FAB
:101E500020813181293E334008F084E108951895AE
:101E600018951092130110921101109268011092AE
:101E70004801109212011092340110926F01E3E5B3
:101E8000F1E0108211821282E3E7F1E0108A82E031
:101E9000818B10921901178616861482158216827C
:101EA000178281EF838B08958FE40E94E00686E419
:101EB0000E94E00686E40E94E006EFDAE9DA5E9826
:101EC0000E94F60690E080E04ACF08951F93CF93DA
:101ED000DF93162F98E097B998B9E82FF0E0EB5B05
:101EE000FD4F949195B9262F281BE20FF11D27FD78
:101EF000FA95E491E92BE4B90E945007EC01812F97
:101F00000E945007AC012091290130912A01369599
:101F10002795C9010397BE01625E7F4F8617970719
:101F200078F4255E3F4FC217D30750F4BA01625EC2
:101F30007F4F8617970720F481E04217530708F078
:101F400080E014B8DF91CF911F910895CF9361E0A5
:101F500080E0BCDFC82F62E080E0B8DFC80F62E03D
:101F600081E0B4DF8C0FCF910895AFE0B0E0EBEBF0
:101F7000FFE00C94DA3AB82E10921301807FB9F486
:101F8000E5DF833081F495DA81E592E065DCD1DA32
:101F90008FE3E5DB80ED97E0E2DE8B30B0F489DAA9
:101FA00085EF90E059DC2F96E2E10C94F63A06E9D1
:101FB00010E07FDA81EC91E04FDCC8DF833009F07C
:101FC00065C01F5F143008F462C0B3DA0E94332783
:101FD00081EB90E041DC60E08CE193E00E947A3B91
:101FE00060E08DE193E00E947A3B60E08BE193E05A
:101FF0000E947A3B60E082E07BD86C019A838983FF
:1020000061E082E075D87C019C838B8360E081E095
:102010006FD88C019E838D8323E040E26EEFC60172
:1020200066DD23E040E26EEFC70161DD23E04DE1B4
:102030006EEFC8015CDD2AE5C216D10424F084E10C
:1020400090E09A83898369818CE193E00E947A3BD6
:102050008AE5E816F10424F084E190E09C838B8308
:102060006B818DE193E00E947A3B0A35110524F0E3
:1020700084E190E09E838D836D818BE193E00E94EB
:102080007A3B82E080933801A2DE07C010E088E24C
:102090000E941907015009F08CCFEB2DEF70EF87EC
:1020A000E13009F04FC0EE24E394F12C68EB862E6A
:1020B00062ED962E67E4A62EB12C72E0D72E08E0D2
:1020C000E0E23E2EC12C1E2D42E2242E77DA72DA97
:1020D00084E545DBC7010E9413060E941D061130EE
:1020E00009F0C1C184EE90E0B7DB64E080912D017E
:1020F00090912E0107DD1DDA8FED90E0ADDB809130
:102100007101909172010E9413068EEB809325015C
:1021100007B908B914B815B888EE93E020DE14307A
:1021200011F08B3020F4C39484E0C812CFCF88EE36
:1021300093E015DEEFEFEE1AFE0AF8E0EF16F10479
:1021400009F0C0CF18E702DF811180C2B2D98AEA54
:1021500090E082DB23E04DE16FEF80912B019091C5
:102160002C01C5DCE6D983EA90E076DB23E04DE183
:102170006FEF8091320190913301B9DC82E080935E
:10218000380125DE1092130194D98FE990E064DBC9
:1021900060E082E00E94112440907B0150907C011D
:1021A00060907D0170907E015C864B8661E082E0EC
:1021B0000E94112480907B0190907C01A0907D0171
:1021C000B0907E019E868D8660E081E00E941124A1
:1021D00000917B0110917C011E830D8362E080E001
:1021E0000E94112480917B0190917C019C838B83C0
:1021F00062E081E00E94112480917B0190917C013A
:102200009A87898761E080E00E941124E0907B0139
:10221000F0907C01FA82E982C2010E941C06C4018E
:102220000E941C06B801110F880B990B03E026E4ED
:1022300044EF7DDB2F85213009F014C282E0E80EE7
:10224000F11CF886EF828E010F5F1F4F6E01EFE0E9
:10225000CE0ED11CF801819191910A97853B910591
:10226000C8F4EC15FD05B9F73BE3E32E33E0F32E9C
:10227000F80160810E5F1F4F6E5EC7010E947A3BBE
:10228000FFEFEF1AFF0A0C151D0591F752D985EAE9
:1022900091E0E2DA82E08093380199DD0E945136C4
:1022A0002F85213029F080913101823009F0C6C09C
:1022B00000D980E0C3DA8BE491E0CEDA82E0BEDAC6
:1022C00084E290E0C9DA90E4F92E10E02AE0822E50
:1022D000912CA12CB12CC5DD1092130160E082E09D
:1022E0000E941124009185012091730130917401A5
:1022F0004091750150917601073F0CF4BDC10093E8
:1023000085012093730130937401409375015093BC
:102310007601073F09F0B8C120563109410951093A
:10232000203935454105510508F0AEC1609187015E
:1023300070918801CB018B569F4F8B32914008F0F2
:10234000A3C11F5F153008F4A0C182E493E00E948E
:10235000883BAFD88DE190E07FDA80918701909142
:1023600088010E9408060E94C20788E088B989E0B7
:1023700087B980E284B982E00E945007853D93408E
:10238000D4F714B8109228011092270182E00E941D
:1023900050077C0180916D0190916E01909328010E
:1023A0008093270182E00E9450076C01CC0CDD1C59
:1023B000109228011092270182E00E9450074C01E0
:1023C000A0906D01B0906E01B0922801A0922701FB
:1023D000B0D886E190E040DA84E493E00E946D3B5F
:1023E000182FD701A80DB91DAC19BD0995010E9480
:1023F0003F3A96010D2C000C440B550B0E940E3AEF
:102400001D5F120F612F84E493E00E947A3B812FBD
:10241000012E000C990B0E9408060E94C20782E060
:1024200080933801D4DC109231018BE393E00E9459
:102430006D3B682F8EE393E00E947A3B89E18093A5
:10244000250180E00E94643934D885EF90E004DAF9
:1024500070D888E392E000DA1092130182E0809352
:102460003801B5DCA0CD123091F5209129013091D1
:102470002A01A8E5BBE10E94303A24EC36E340E0B3
:1024800050E00E940E3A290181E085B9F5E0F4B9E7
:1024900080E00E944507841995099A83898381E128
:1024A00084B980E00E944507841995099C838B8339
:1024B00084E085B984E184B981E00E9445078419EC
:1024C00095099E838D8389EC90E0C6D937C013307F
:1024D00059F5D5B82AE024B980E00E94450720913B
:1024E000290130912A013695279538872F83821B41
:1024F000930B9A83898324B880E00E9445072F813B
:102500003885821B930B9C838B8305B988E284B941
:1025100081E00E9445072F813885821B930B9E83A3
:102520008D838BEB90E0D1CF1430D9F481E492E02D
:1025300093D90CDD882311F0F2E0CF2E0E94990A86
:1025400089819A810E9408060E941D068B819C81C8
:102550000E9408060E941D068D819E810E94080629
:10256000D7CD1530B1F415B8D4B880E00E94450736
:102570009A83898304B981E00E9445079C838B83F9
:1025800034B882E00E9445079E838D838BED90E0F6
:102590009CCF163051F5D4B8D5B880E00E944507DD
:1025A0002091290130912A01821B930B9A83898300
:1025B00004B905B981E00E944507209129013091B5
:1025C0002A01821B930B9C838B8334B835B882E03D
:1025D0000E9445072091290130912A01821B930B0B
:1025E0009E838D8387ED90E070CF173009F0A6CFE2
:1025F0002091290130912A01A8E5BBE10E94303ADF
:10260000A50194010E94EC392901D5B8E3E0E4B9B1
:1026100080E00E944507841995099A83898305B94A
:10262000FCE0F4B981E00E944507841995099C8378
:102630008B8335B820E324B982E00E9445078419D2
:1026400095099E838D8385EB90E03FCF0E94DE0A43
:1026500081E492E001D984E60E941907115009F043
:1026600072CD74CD80913101823009F4E7CDF886C6
:10267000EF8210923101E7CD0F5FCA01B901A501C8
:1026800094010E94EC3938CE10E00E94990A6091C2
:10269000730170917401809175019091760104E04D
:1026A00026E44091850143D90E94B10A88E20E9444
:1026B0001907FA94F1100FCEC1CE8091310181112A
:1026C0000DC08BE393E00E946D3B61E0680F8EE3E9
:1026D00093E00E947A3B81E0809331010895EF926C
:1026E000FF920F931F93CF93DF93D62FE82FF0E045
:1026F000E85BFD4FE491E8B9E860E7B915B8E62F6B
:10270000F0E0EB5BFD4FE491E4B9CE2FCC0F88E80D
:10271000E82E83E1F82E8D2F0E9445078C01C4B965
:102720008E159F0510F1892BD9F00E94A90A8BE222
:1027300091E092D8D80120EA36E841E050E00E94CA
:10274000453A28E937EB40E050E00E94EC39C901F6
:1027500022E041E467EFCBD988E087B988B914B8A3
:10276000CDB7DEB7E6E00C94023B7801D4CF80E42D
:102770008AB98BB9D6E8D0937A001092C1000E9432
:10278000F806C4B7C87084B7877F84BF0FB6F894C3
:10279000A89580916000886180936000109260002D
:1027A0000FBED093640088E380937E001092B00047
:1027B00087E08093B10078940E94700AC11192C59D
:1027C00080E185BF4F9908C00E941807CF5FCC33C6
:1027D000C9F780E69DE604C08FE59DE6CF31C8F7D6
:1027E00090930C0180930B01109226010E943327D5
:1027F00088E19FE00FB6F894A895809360000FBE23
:1028000090936000CC3309F465C028E1722E39E35F
:10281000832E31E0932E49E5A42E41E0B42E5DE0F5
:10282000352E60EF662E73E3572EE1E24E2E8FEACF
:102830000E94440A84EA0E94440A0E94590A28E03D
:1028400027B90FDB0E9433270E94520A59D5809185
:102850003401882379F00E94990A80E491E00E9473
:102860002C0C63E08091290190912A014BD988ECCE
:102870000E9419070E94990A0E9442238091130125
:10288000893069F50E94590A85E491E00E942C0C78
:102890000E94990A63E080914D0190914E0132D9D6
:1028A0000E941D0663E080914F01909150012AD94A
:1028B0000E941D0663E0809151019091520122D93E
:1028C0008AEC0E94190781E150DB80910B01909105
:1028D0000C0198C10E9476308111FCCF96CF8EE317
:1028E00093E00E946D3BC82F8BE393E00E946D3B09
:1028F000C81BC093310180E038DB0E94DE0A86EB02
:1029000092E00E942C0C83E00E94E0060E944D0A97
:1029100042E061E080E064D542E060E081E060D5C3
:1029200041E062E080E05CD541E060E082E058D5C3
:1029300040E062E081E054D540E061E082E050D5C3
:102940008091130181110EC00E94422360E082E059
:102950000E94112461E082E00E94112460E081E085
:102960000E9411240E94590A9092370180923601E8
:10297000809113018630F9F485EC0E946F0B60E1C1
:1029800088EFE5D867E080E00E94260A8DE892E0B3
:102990000E942C0C67E082E00E94260A89E591E003
:1029A0000E942C0C62E080913D0190913E01AAD8DA
:1029B0000E944D0A8ACF873069F484EC0E946F0B25
:1029C00060E188EFC4D867E080E00E94260A86E9CB
:1029D00092E0DECF8830C1F4809183019091840130
:1029E000890F9927991F029759F40E949429809181
:1029F0003101882309F460C4D4E010E000E049C448
:102A000080E00E94C62861CF833009F007C1809121
:102A10001101813009F06AC080E00E94B606609121
:102A2000890180918F015BDE80E70E948F0640E084
:102A30006091890180918F010E94773560937301C5
:102A400070937401809375019093760180E00E94E9
:102A5000D20A609173017091740180917501909117
:102A6000760102E026E442EF0E94970C0E941F06C6
:102A700041E06091890180918F010E9477356093D8
:102A8000730170937401809375019093760126E42D
:102A900042EF0E94970C8CE191E00E942C0C0E9466
:102AA0004D0A0E944D0A80916F01882309F40DCFD1
:102AB00077B898E097B980E00E94D20A40916F0100
:102AC000442309F4ABC380915601413009F040C35F
:102AD0000E94770620915601213009F034C32091DD
:102AE0001101211130C30E944F2981CF823071F52D
:102AF00082E30E94AF0B8DE091E00E942C0C90913C
:102B0000890130918A01931308C080E00E94D106A8
:102B100081E00E94C80681E088CF20918F018091DA
:102B20009001281307C080E00E94C20681E00E9445
:102B3000D706F1CF321306C081E0809306010E94D0
:102B4000A506AFCF98133DC080E1F7CF8330C9F51C
:102B50005092060180918F0190918A01891303C0E0
:102B600021E02093060140918901309190014313A7
:102B700003C020E12093060120918B01821303C042
:102B800082E08093060180919101481303C040E2E6
:102B90004093060132130FC052E15093060198137F
:102BA00002C04092060183E30E94AF0B8DE091E0EA
:102BB0000E942C0CC4CF9817A1F380910601823299
:102BC00090F38CE992E00E942C0C84E892E00E9441
:102BD0002C0C0E94990A80911101805D0E94AF0B1C
:102BE0008AE20E94AF0B87E291E00E942C0C8AE6F9
:102BF00092E00E942C0C0E944D0A86E00E946F0B0E
:102C000080E49FE177B84F9BFECFA9D8823308F4C8
:102C100012C30E9476308111FCCF09CE843009F0B6
:102C200058C180916801882309F465C080914801EA
:102C3000882309F460C060914501809147010E949A
:102C40001124C0907301D0907401E0907501F09050
:102C50007601C091850160916701809165010E94B4
:102C600011248091390190913A01A0913B01B091DA
:102C70003C014091590150915A0160915B01709162
:102C80005C01843FE1E09E07A105B10538F4443FB3
:102C9000F1E05F076105710508F0C0EF443F514066
:102CA0006105710538F4843F9140A105B10510F02C
:102CB00060928501809185018C1311C08091730110
:102CC00090917401A0917501B0917601C816D90652
:102CD000EA06FB0630F08CE08093120104C0C817AE
:102CE000D4F73092120180916801882321F08091FD
:102CF00048018111CEC067E080E00E94260A80EC86
:102D00000E946F0B809112018C3009F0CBC085E7D7
:102D100091E00E942C0C80916801882319F080E7D3
:102D20000E94AF0B77D8C82F853098F4A091360158
:102D3000B0913701E82FF0E0E757FE4F1D969C91C8
:102D4000808162E0981301C060E086E991E00E9412
:102D5000960B60E189EF0E94A70D87E00E94B70AF9
:102D600084E891E00E942C0CE0913601F09137014B
:102D7000608171818281938103E020E04EEF0E94A7
:102D8000970C88E00E94B70A89E40E94AF0BE0919B
:102D90003601F0913701868197818031974208F49E
:102DA00094C085E60E94AF0BE0913601F0913701A7
:102DB0008681978180519742978386830E9421065E
:102DC000E0913601F091370122E041E46AEF86811B
:102DD00097810E94770D87E00E94B70A8DE591E008
:102DE0000E942C0CE0913601F091370163E0848160
:102DF00095810E94820D81E080933801E091360137
:102E0000F091370180859185892B91F086E00E94B1
:102E1000D20A8FEE90E00E942C0CE0913601F091E6
:102E2000370122E041E46AEF808591850E94770DA9
:102E3000E0913601F091370182859385892B91F0DD
:102E400086E00E94D20A89EE90E00E942C0CE0916C
:102E50003601F091370122E041E46AEF82859385E3
:102E60000E94770DC53078F480E00E94D20A8C2F42
:102E70000E94B60689E591E00E942C0C8C2F0E94DE
:102E800081060E944D0A43E462E485E40E944A06FA
:102E90008FCD4F9930CF8091120191E08927809397
:102EA000120129CFB0923701A09236018BEC91E04C
:102EB0000E94AC0B8DE691E00E942C0C80914801A1
:102EC000882309F42FCF8EE62BCF83E60E94AF0B29
:102ED00075CF853009F0F2CD67E080E00E94260AC8
:102EE00080911201C82FC07184FF63C080E50E94E9
:102EF000AF0BB0923701A0923601C2E00E941F06CC
:102F000080911201D82FDF70D43009F056C08FE8BD
:102F100091E00E942C0C83EC0E946F0B84ED91E0F9
:102F2000C11167C00E940A0F853098F4A091360144
:102F3000B0913701E82FF0E0E757FE4F1D969C91C6
:102F4000808162E0981301C060E086E991E00E9410
:102F5000960B60E189EF0E94A70D87E00E94B70AF7
:102F60008091120185FD61C085E591E00E942C0CE5
:102F7000E0913601F091370162E0828593850E94ED
:102F8000820DE0913601F0913701668584850E94BB
:102F9000112487E00E94B70A0E94450C86E00E9437
:102FA0005D0C4FE367E48FE3D43009F46FCFC0E0EA
:102FB000BDC08EE40E94AF0BA1CF85FF1DC084E48D
:102FC0000E94AF0BCF5FD330D9F489E891E00E9423
:102FD0002C0C81EC0E946F0B81E292E0C13049F031
:102FE0008DE292E0C23029F08DEF91E0C33009F01C
:102FF00099CF0E94AC0B96CF85E40E94AF0BE3CF34
:1030000084E991E00E942C0C82EC0E946F0B8DEE03
:1030100091E0C13071F383EF91E0C23051F3C330DE
:1030200009F080CF8BED91E0E4CFE0913601F09193
:1030300037018F70843009F454C0668584850E94FE
:1030400011240E94450C60E084E00E94260A89E475
:103050000E94AF0B84E60E94AF0B0E942106E09114
:103060003601F091370122E041E46AEF86819781D1
:103070000E94770D8FE491E00E942C0CE0913601C4
:10308000F091370162E0828593850E94820DE09184
:103090003601F091370180859185803C9241F8F4AA
:1030A00080E00E94D20A89E40E94AF0B84E60E946D
:1030B000AF0B0E94210622E041E46BEF90E080E03C
:1030C0000E94770D8FE491E00E942C0CE091360174
:1030D000F091370162E0808591850E94820D80E049
:1030E0005ECF84819581892B09F4ADCF80E090E09B
:1030F0000E942C0CE0913601F091370122E041E46E
:103100006AEF848195810E94770D9DCF80E00E94B7
:10311000D20A8C2F0E94B60689E591E00E942C0C01
:103120008C2F0E9481060E944D0ACF5F8091110171
:10313000C81760F344E467E483E5D33009F0A6CE12
:1031400043E467E4A2CE40E0692F0E940528BDCB8E
:103150009091570124E0929FF0011124EA55FE4F0F
:1031600054E0859F900111242A553E4FC080D180A4
:10317000E280F380F9010081118122813381C92F1E
:103180000C151D052E053F0508F0C82F423041F5EE
:10319000890FC3E0C81B1C2F1695D2E0DC1B01E091
:1031A000C11102E0812F0E941E0C88E091E00E9474
:1031B0002C0C8D2F0E941E0C88E091E00E942C0C9C
:1031C000802F0E941E0C80E00E94B70A81E0C1118E
:1031D00080E00E94710C82E0811B0E94710C75CB13
:1031E00080915801F4E08F9FD0011124AA55BE4F61
:1031F00024E0C29FF0011124EA55FE4F0D911D916C
:103200002D913C914081518162817381401751071A
:103210006207730708F0BFCFC82FBDCF84E792E0E5
:103220000E942C0C0E94990A81EA92E00E942C0CC8
:103230008CE992E0DECC8111FACAD9CBC491C032BC
:1032400011F0CE3F09F4D82E8F5F31968331B1F75C
:10325000DD2341F15D2F5370252E11F40E94590A90
:1032600060E0822D880F0E94260A0E944D0AA895D0
:10327000DF5FD370212C2D1022C0CC23C9F0020DAA
:10328000111DF801E55BFD4FE491E03211F40F5F91
:103290001F4FC801855B9D4F7C01FC0180E092E1DE
:1032A000D92ECCCF80E29EE40E94AF0E882391F20B
:1032B00080E29EE40E94AF0E0E94540FB8CAF7014C
:1032C000C491CC23A9F3CF3F39F40E941D06239467
:1032D000FFEFEF1AFF0ACFCFCE3FC9F38C2F0E942A
:1032E000AF0BF5CF0E94520A81E692E00E942C0CAF
:1032F0008BEC0E9419070E94540F90E080E0089523
:103300000F931F93CF93DF9385E00E94500785E0D2
:103310000E944C078C01EC01CC0FDD1FCC0FDD1F90
:10332000CA56DF4F10922F01C43883E0D80770F4DB
:1033300089E991E00E942C0C0E94B10A81E08093FF
:103340002F01DF91CF911F910F91089588EA91E0AD
:103350000E942C0C62E0CE010E94820D0E941D068C
:103360000A3F86E01807B0F40333164060F48AEA97
:1033700092E00E942C0C0E94B10A8DEC0E94190769
:103380000E94540FDECF81EB92E00E942C0C0E9431
:10339000B10AD7CF85EA91E0F8CFFC019C01261B4A
:1033A000370BCA0170E060E0A901460F511D452F9F
:1033B0005527620F240F351FAC01470F511D452FB4
:1033C0005527780FDA01AA0FBB1F8A0F9B1F4B3EB0
:1033D00020F4E217F30740F7089590E080E00895A5
:1033E000A9E1B0E0E6EFF9E10C94DA3A582E462E66
:1033F000342EA895E62FF0E0EB5BFD4F24912E874D
:10340000220F2F8B339634913A8BE42FF0E0EB5B55
:10341000FD4F44914983339684918F83E52DF0E0ED
:10342000EB5BFD4F2490922D990F9F87339624914B
:103430002B8328602C8338603A8345B9EE84E42AD4
:10344000E4B827B93B8138B9862F0E944C079D8785
:103450008C874E8544B9842D0E944C073C0114B8DA
:103460000E94010715B8E4B8842D0E944C076C85B2
:103470007D850E94AE076C018A8187B988E088B992
:10348000998192299D8395B994B9852D0E944C0705
:103490000E94B4074C0115B80E94010725B8852D7C
:1034A0000E944C070E94B4078C0124B8852D0E940D
:1034B0004C070E94B407B82E9987B801C4010E9436
:1034C000AE078032E1E09E0730F4F0E2CF16F1E083
:1034D000DF0608F4CAC5C00ED11E2C853D85820FBB
:1034E000931FC816D90620F41D870C876B2C79848E
:1034F0002091480180916801820F9927991F0297B6
:103500004CF0213009F0B1C59091450180916501E1
:103510009813ABC5D980DD0CFE84FD283D2D3229E2
:103520003B878C859D858437910508F4AAC10A964E
:10353000880F991F6816790608F0A3C19C8197B976
:10354000EB81E8B9F4B8842D0E9449078C01832DE2
:103550000E9450077C01D5B8842D0E94490798012C
:10356000295A3D4F2817390708F0B9C088E088B9B3
:10357000FA81F7B92B8524B925B9832D0E94490713
:1035800088349F4008F470C085E08093130182E284
:103590008093120110933E0100933D01B701C801D1
:1035A0000E94B90790934401809343019801A0E1E0
:1035B000B7E20E94303A20910D0130910E0150E0A7
:1035C00040E00E94EC393093400120933F018F8905
:1035D0008D2984B915B84C8147B98B8188B9832D61
:1035E0000E9450078C01842D0E944907B8010E9457
:1035F000B9079C019093420180934101909112017F
:103600009F709430B1F188E088B99F81EA819E2B48
:1036100097B924B8FD81F5B9852D0E944C078C011E
:103620000E94B4079E838D83842D0E945007E090F2
:103630001401F0901501BC01C8010E94B90797015F
:10364000DC010E94303AED81FE819F0150E040E0B4
:103650000E94EC3930933E0120933D018091480156
:103660008F5F8093480189C385E08093130184E2D2
:103670008FCF40913F015091400160914301709183
:103680004401C9018ADE0097F9F0D4B8EA89FC81C7
:10369000EF2BE7B9842D0E9449078C0188E087B998
:1036A0009801A0E1B7E20E94303A209132013091B6
:1036B000330150E040E00E94EC39A901B80180914B
:1036C00041019091420169DE90933E0180933D015A
:1036D000809112018F70843009F4C0CF94CF88E0BC
:1036E00088B92A8127B93B8534B935B9852D0E941F
:1036F00049078C01832D0E9450077C0125B8852D38
:103700000E944907895A9D4F8017910708F0ADC460
:103710004B8148B98C8187B9832D0E944907813D2F
:10372000934008F06EC085E08093130182E380939C
:103730001201B801C7010E94B907909364018093F8
:103740006301C8010E94B4079C01A0E1B7E20E9496
:10375000303A209114013091150150E040E00E9470
:10376000EC393093600120935F01F8E0F8B92A81C9
:1037700027B98F858D2984B985B9852D0E94500779
:103780008C01832D0E944907B8010E94B9079C0152
:103790009093620180936101909112019F70943027
:1037A000A9F1EB813F81E32BE8B94C81342B37B988
:1037B00015B88D8184B9852D0E944C077C01842D1C
:1037C0000E9450079E838D8300910D0110910E0180
:1037D000BC01C7010E94B9079801DC010E94303A80
:1037E000ED81FE819F0150E040E00E94EC39309372
:1037F0005E0120935D01809168018F5F8093680175
:1038000054C185E08093130184E391CF40915F011F
:10381000509160016091630170916401C901BDDD47
:10382000009721F1D5B8D4B8FB81F8B9EC812A8191
:10383000E22BE7B9852D0E9449070E94B4078C014D
:1038400038E037B99C01A0E1B7E20E94303A2091FC
:103850002B0130912C0150E040E00E94EC39A9018D
:10386000B801809161019091620197DD90935E01B2
:1038700080935D01809112018F70843009F4BBCF79
:1038800090CF88E088B94A8147B925B88B8584B93B
:10389000852D0E944C07998B888B0E94B4079887CE
:1038A0008F83832D0E9450079A87898783010C5943
:1038B0001F4FEF81F885B3010E171F0708F0F7C0FF
:1038C000CF010E94B9079C8B8B8B20911401309102
:1038D000150150E040E060E871EA83E09CE10E945D
:1038E000EC39AB89BC890E94453AE985FA859F018C
:1038F00050E040E00E94EC3949015A0114B815B873
:10390000FB81F8B92C8127B981E00E941907E4B83E
:10391000842D0E944C078F359D4008F474C1F4B883
:10392000842D0E944907998F888F832D0E9450070C
:103930009C8B8B8B852D0E9450079E8B8D8B8B894A
:103940009C89813D974008F4E6C084E08093130190
:103950008DE080931201288D398D89010619170990
:103960006216730610F0088D198DC0900D01D0906D
:103970000E01F12CE12C60E871EA83E09CE1A701E3
:1039800096010E94EC39D8010E94453AEB89FC89E6
:103990009F0150E040E00E94EC398091680188234B
:1039A00071F08091590190915A01A0915B01B09101
:1039B0005C0182179307A407B50708F099C020930C
:1039C000590130935A0140935B0150935C01288D5B
:1039D000398DA0E1B7E20E94303AA70196010E941A
:1039E000EC393093600120935F016B897C898D896C
:1039F0009E890E94B90790935E0180935D0181E0EA
:103A00004091590150915A0160915B0170915C01A4
:103A1000481559056A057B0508F06CC0809259016C
:103A200090925A01A0925B01B0925C0169857A85FF
:103A3000888999890E94B90790935E0180935D01FE
:103A40002F813885A0E1B7E20E94303A209114011D
:103A50003091150150E040E00E94EC39205F384D74
:103A60003093600120935F01C0900D01D0900E0152
:103A7000F12CE12C9301A0E1B7E20E94303AA701BA
:103A800096010E94EC3930936201209361012C85EC
:103A90003D85A0E1B7E20E94303AA70196010E945D
:103AA000EC39309364012093630181E025C08F815C
:103AB00098850E94B9079C8B8B8BFD81F4B9852D6D
:103AC0000E944C07998B888B0E94B40798878F833C
:103AD000832D0E9450079A878987BC018B899C8916
:103AE0000E94B9079C01A4E6B0E00E94303AFDCEE6
:103AF00080E086CF8111B8CF909168019F5F90934D
:103B00006801882309F478C3309265014092660108
:103B10005092670171C3F1E66F16710408F073C02B
:103B2000288D398D213D47E0340708F46CC085E0CD
:103B30008093130182E180931201C90186509F4F47
:103B4000ED89FE898E179F0708F043C083E18093BB
:103B50001201FA89F770DF2E832D806480937C0038
:103B6000EBE0EE2E21E030E03E832D830FEF13E0FB
:103B7000A89561E089816FD5F4B886B18D21E9F30C
:103B80003E8534B980917A00806480937A00809178
:103B90007A0086FDFCCF8091780090917900F80141
:103BA000E81BF90B2D813E812E0F3F1F3E832D8395
:103BB000EA94E110DDCFC901880F991F880F991F82
:103BC00069E070E00E94C5397093640160936301FD
:103BD00012CE00910D0110910E01688D798D8D89A5
:103BE0009E890E94B9079801DC010E94303AE88D55
:103BF000F98D9F0150E040E00E94EC3930935E0166
:103C000020935D01A6CFF4B8D5B8842D0E944C074F
:103C10006C01832D0E94500798878F830E94B40700
:103C20009A8789870C151D0508F0A9C0B301C60144
:103C30000E94B9078C0120910D0130910E0150E0D6
:103C400040E060E871EA83E09CE10E94EC39D80131
:103C50000E94453AE985FA859F0150E040E00E94C4
:103C6000EC3949015A01FA81F7B988E088B92D8108
:103C700024B925B9852D0E944C078C01832D0E9403
:103C800050079A878987842D0E9450077C01003352
:103C900031E1130708F0E6C125B8852D0E944C07D5
:103CA000998B888B24B8852D0E944C079C8B8B8B1D
:103CB00015B881E00E94190725B8852D0E944C0790
:103CC000EB89FC89E034F64008F079C081339141FA
:103CD00008F475C0C8018A569F4FE889F989E8172A
:103CE000F90708F06CC086E08093130180914801C9
:103CF0008F5F80934801B70189859A850E94B90733
:103D000090933E0180933D01B701C8010E94B9071D
:103D1000909344018093430114B815B8FA89F8B917
:103D200081E00E94190724B8852D0E944C07853F29
:103D3000910518F52D8124B9832D0E944C07813DF2
:103D40009340D8F0852D0E9450078D3D9240A8F0F9
:103D500024B8852D0E944C078D3D924070F025B807
:103D600081E00E94190715B8852D0E944C07853FF8
:103D7000910518F487E08093130181E0F8C0E4B85E
:103D8000F981F5B9842D0E944C076C01832D0E94A6
:103D9000500798878F830E94B4079A878987C60146
:103DA0006C147D0410F48619970969857A850E9440
:103DB000B9079C01A4E6B0E00E94303A4BCFFA81EB
:103DC000F7B9298124B925B981E00E9419073B85FB
:103DD00034B935B9852D0E944C078C010E94B40777
:103DE000998B888B832D0E9450079E838D830E9420
:103DF000B4079A878987842D0E9450077C018985A2
:103E00009A858E3F994008F4C1C084E080931301E5
:103E10008CE080931201B301888999890E94B907C7
:103E20008C01209114013091150150E040E060E8D0
:103E300071EA83E09CE10E94EC39D8010E94453A86
:103E4000E985FA859F0150E040E00E94EC398091BD
:103E50004801882371F08091390190913A01A09135
:103E60003B01B0913C0182179307A407B50708F006
:103E70007AC02093390130933A0140933B0150932B
:103E80003C01B7018D819E810E94B90790933E014C
:103E900080933D0128893989A0E1B7E20E94303A38
:103EA000209114013091150150E040E00E94EC395E
:103EB0003093400120933F0181E0409139015091BE
:103EC0003A0160913B0170913C01481559056A0522
:103ED0007B0508F04AC08092390190923A01A09285
:103EE0003B01B0923C01B6018F8198850E94B907D1
:103EF00090933E0180933D019601A0E1B7E20E94BC
:103F0000303A20910D0130910E0150E040E00E94C6
:103F1000EC39205F384D3093400120933F019301ED
:103F2000A0E1B7E20E94303A20910D0130910E01DC
:103F300050E040E00E94EC3930934201209341016F
:103F40002C853D85A0E1B7E20E94303A2091140112
:103F50003091150150E040E00E94EC39309344016B
:103F6000209343010ACF80E0A8CF8111D8CF909150
:103F700048019F5F90934801882309F43DC1309226
:103F80004501509246014092470136C1F1E66F1655
:103F9000710408F067C02889398929343D4008F444
:103FA00061C085E08093130182E080931201C70114
:103FB00086509F4F8017910708F03CC083E08093A4
:103FC00012010B810770832D806480937C001BE0BD
:103FD00021E030E03E832D83A89560E089813BD3CA
:103FE0003B8534B935B986B18023E9F724B880918F
:103FF0007A00806480937A0080917A0086FDFCCFFD
:104000008091780090917900ED81FE81E80FF91F91
:10401000FE83ED83115001F7CF01880F991F880FA0
:10402000991F69E070E00E94C53970934401609364
:10403000430114CBC0901401D0901501B701C80101
:104040000E94B9079601DC010E94303AE889F9899B
:104050009F0150E040E00E94EC3930933E012093F4
:104060003D01AFCF88E087B988B914B815B888E0AA
:1040700087B9F7EC6F16F1E07F0608F4E5C088B960
:104080002F8524B938EC3D834C818A81482B4F839E
:104090009F8197B981E00E941907EA81E7B9852DD0
:1040A0000E945007429728F0FD81F150FD83F111E5
:1040B000EFCF2F8524B925B961E08981CCD2852D38
:1040C0000E944C076C013F8934B915B84C8147B93F
:1040D0008B8188B960E08981BED2842D0E944C0713
:1040E0000E94B4079E838D839E8594B9842D0E947F
:1040F00050078C01852D0E944C07B8010E94B9071A
:104100008C01842D0E9450077C01852D0E944C0754
:10411000B7010E94B90798012C5E3F4F2817390755
:1041200008F46AC088E088B9EA81E7B924B825B8FC
:1041300061E0898190D2842D0E9450077C01852DF9
:104140000E944C07B7010E94B9077C0108171907A4
:1041500008F05EC0FF85F4B9F5B9852D0E944C07C3
:10416000FC01CD82DE828D819E81883426E092071B
:1041700008F060C09C0153E0369527955A95E1F709
:1041800048EEE41643E0F40608F057C0C70164E6C1
:1041900070E00E94C539C70187599109893891415A
:1041A00008F052C0EE15FF0508F04EC08D819E81CB
:1041B000280F391F2E153F0508F046C068177907EC
:1041C00008F042C080911301833018F483E080939B
:1041D000130120911101822F90E0FC01E757FE4F5F
:1041E00050824682880F991FFC01EB56FE4FF182E8
:1041F000E0822F5F2093110188E087B988B914B855
:1042000015B88EE20E94AF0B6996E2E10C94F63A83
:104210002F8924B915B83C8137B94B8148B960E082
:10422000898119D2842D0E944C070E94B407FC0199
:10423000780199CF28EC30E0A3CFB70144E0769520
:1042400067954A95E1F7A7CF642D852D01D0D4CF8E
:10425000B0E0A0E0EEE2F1E20C94DC3AC82FD62FF9
:10426000A895862F90E0FC01EB5BFD4F54903396B0
:1042700024914C2F50E0FA01EB5BFD4F14913396E3
:1042800004916091680130914801630F7727771F8F
:10429000672B09F067C0A89560911701709118010C
:1042A000660F771F660F771F70932A0160932901AD
:1042B00060916D0170916E01660F771F660F771F19
:1042C00070932801609327013EEB309325013091D4
:1042D0001101E9E8F1E0DF01480F591F9A2F9E1BF9
:1042E000931718F188E088B9286027B914B915B96F
:1042F000B8E1BB2ED12CC12C8D2F0E944C07782EFB
:10430000692E8C2F0E9450077C018C199D0997FF04
:1043100003C091958195910903970CF46BC1A89501
:10432000BA946701B110E8CF0AC08D9115966C91CF
:104330001597680F7727771F6417750779F68091AF
:1043400017019091180190932A018093290180917F
:104350006D0190916E01909328018093270189E16E
:1043600080932501CDB7DEB7E0E10C94F83A25E85B
:10437000C21621E0D20618F7043AA2E01A0708F0A4
:10438000B1C0B8E9AB16B104D0F2C6010E94B407BF
:10439000AC019601A8E9B7EB0E94303A9A0150E0CF
:1043A00040E00E94EC3929013A01C5010E94B4079E
:1043B0009C01A8E9B7EB0E94303A950150E040E03B
:1043C0000E94EC3988E7C8168FE0D80608F06EC066
:1043D000F2E0440C551C661C771CFA95D1F7C3011A
:1043E000B201620F731F841F951F25E030E040E08B
:1043F00050E00E94EC39A4E6B0E00E94453A6B011F
:104400007C01BCEACB0EBDE0DB1EE11CF11C10916F
:104410001301143008F093CFC150DC0F8D2F90E0C2
:10442000FC01ED5AFE4F2081880F991F880F991FBC
:104430008A559E4FDC01222309F4C1C08D909D90C6
:10444000AD90BC90A7019601281939094A095B096A
:1044500057FF07C050954095309521953F4F4F4FDE
:104460005F4FAAE0B0E00E94453AB4E68B0E911C83
:10447000A11CB11CC80CD91CEA1CFB1C6C157D05C9
:104480008E059F0508F05BCF133019F081E0809313
:10449000130182E0808380916F01E82FF0E0EA5AF7
:1044A000FE4FD0838F5F80936F0149CFA8E7AA1694
:1044B000AFE0BA0670F4E2E0220F331F441F551F2D
:1044C000EA95D1F7CA01B901640D751D861D971DC6
:1044D0008CCF240D351D461D571D56954795379594
:1044E000279589CFC0901401D0901501672D762DA6
:1044F000E616F70608F4B701C7010E94B90796014E
:10450000DC010E94303A2B013C01C7010E94B40734
:104510009C0150E040E0C301B2010E94EC39290146
:104520003A01A0900D01B0900E01892D982D8017B1
:10453000910708F4C801B8010E94B9079501DC0190
:104540000E94303A980150E040E00E94EC3988E740
:10455000E8168FE0F806B0F462E0440C551C661CC7
:10456000771C6A95D1F7C301B201620F731F841FD4
:10457000951F25E030E040E050E00E94EC396901F1
:104580007A0145CF0837AFE01A0770F4CA01B901C4
:1045900052E0660F771F881F991F5A95D1F7640D57
:1045A000751D861D971DE5CF73016201C20ED31ED6
:1045B000E41EF51EF694E794D794C79428CFCD92C5
:1045C000DD92ED92FC92139781E08083B8CE550C7A
:1045D00054B88D2F0E944C075C01B0ECEB16B4E48C
:1045E000FB0608F4C4CE80EBC8168DE4D80608F0AC
:1045F000A6CEC2CE110F15B814B98C2F0E944C074D
:104600008135910508F09BCE15B98C2F0E944C077F
:104610006C01802F886087B908B915B854B8A8E133
:104620004A2EB12CA12C8C2F0E944C07982E892E3B
:104630008D2F0E9450078C018A199B0997FF03C098
:10464000919581959109039714F2A8954A94580180
:104650004110E9CF74CECF93C82FC09595B160FFBC
:104660000FC0982B95B994B1982B94B90E94180754
:1046700084B18C2384B985B18C2385B9CF910895F9
:104680009C23F0CFB0E0A0E0E8E4F3E20C94E23A3F
:104690001AE008E08FE3C82E99E0D92E07B908B9CF
:1046A00015B8C4B880E00E944C077C0181E00E94EC
:1046B0005007EC0182E00E9450079C018091130199
:1046C0008930A1F488E087B914B8F0924E01E092E5
:1046D0004D01D0935001C0934F013093520120936C
:1046E0005101CDB7DEB7EAE00C94FE3A84E0E8165B
:1046F000F10448F4C430D10560F42430310510F3DE
:1047000099E092600AC098E088EEE81683E0F80627
:1047100008F499E0C83ED340A0F3283E334008F4A3
:10472000946097B9D0E0C0E0A89580E00E9445076A
:104730005C0181E00E9450077C0182E00E945007EA
:1047400024E1A21625E0B20608F4389A24E1E21624
:1047500025E0F20608F4399A843125E0920708F43E
:104760003A9A26E0A216B10430F426E0E216F104EB
:1047700010F4069738F02196C43F81E0D807A1F6DF
:10478000D0921301F12CE12CEC16FD0621F411500E
:1047900009F084CFA6CF0E9407072FEFE21AF20A92
:1047A000F3CFCF92DF92EF92FF92CF9320917301DC
:1047B000309174014091750150917601C09185014D
:1047C0008AE0C82ED12CE12CF12C8C2FCF5F213A1E
:1047D00096E8390791E049075105E0F48093850197
:1047E000A0912901B0912A010E94453A28E833E1BD
:1047F00040E050E00E94EC39209373013093740143
:104800004093750150937601CF91FF90EF90DF9028
:10481000CF900895CA01B901A70196010E94EC3911
:10482000D4CF8F929F92AF92BF92EF92FF920F934D
:104830001F93CF93DF93C82FF62E880F8C0F9FEF17
:10484000960F890F80934A01EC2FF0E0EB5BFD4F50
:10485000D491862F90E0FC01EB5BFD4F1491FC019D
:10486000E85BFD4F6491809113012091110149E8AB
:1048700051E0DA018130F9F4DF91CF911F910F916E
:10488000FF90EF90BF90AF909F908F9008951696F5
:104890008C9116978F110EC08C918C130BC0CD018B
:1048A000880F991F89589140FC01848595858C3D1E
:1048B000954010F311968A2F841B821740F3E62E41
:1048C0006894E3F81092800110927F0181EF809349
:1048D000850110927301109274011092750110926B
:1048E0007601D0DE88E088B9E7B814B915B98C2F05
:1048F0000E9450078C018F2D0E94500714B810920F
:104900004C0110924B014C01801A910A80914B018D
:1049100090914C01843F914030F088E087B988B98C
:1049200014B815B8A9CFD5B9D4B90E94010714B8E5
:1049300015B80E940807A8958C2F0E9450075C01AB
:10494000A80CB91C80914B0190914C018E379105B8
:1049500020F02BE4A216B10404F33DE2A31631E0EB
:10496000B3060CF030C280914B0190914C0101963E
:1049700090934C0180934B01C9CFC501F5E1AF166F
:10498000F5E0BF060CF440C17DDE15B88FE087B9B5
:1049900088E088B9BD2EBB0CB4B880E480937B005E
:1049A00084E580BF8C2F806480937C0086E18093B7
:1049B0007A000E940B0710924C0110924B0110924A
:1049C0008000109285001092840087E286BB81E20D
:1049D00080936F0081E080937001B5B890911301CE
:1049E000953009F0D0C18093810081E090E00C2ED9
:1049F00001C0880F0A94EAF780958F7087B9F89400
:104A000083B7817F83BF80917001882389F083B74A
:104A1000816083BF7894889583B78E7F83BFF89435
:104A2000A89580914B0190914C018034964059F7A4
:104A3000789410928100A0908600B0908700109228
:104A40006F0086E980937A0014B815B88C2F0E9405
:104A5000500720912D0130912E01821B930B0C9653
:104A6000909388018093870180914B0190914C0134
:104A70008032934008F051CF80914B0190914C01CE
:104A800090937E0180937D01B0927C01A0927B0186
:104A900084EF8093850180914B0190914C01823489
:104AA0009105C8F060917B0170917C0180917D013E
:104AB00090917E0124E630E040E050E00E94EC3925
:104AC00020937B0130937C0140937D0150937E01C4
:104AD00086EF80938501A0917101B09172012091C0
:104AE0007B0130917C0140917D0150917E010E94BB
:104AF000453A20E233E040E050E00E94EC39209358
:104B00007B0130937C0140937D0150937E01209383
:104B1000730130937401409375015093760141DE27
:104B200080918501843F09F056C080907301909078
:104B30007401A0907501B0907601F0EA8F16FFE045
:104B40009F06A104B104C0F4A50194012C543F4F69
:104B50004F4F5F4F60EA7FE080E090E00E94EC39C9
:104B6000820E931EA41EB51E809273019092740152
:104B7000A0927501B09276018090730190907401BB
:104B8000A0907501B09076018114910421E0A206F5
:104B9000B10408F0FCC09092B7018092B6018091F8
:104BA0004A0190E0855C9C4F0E946D3B90E0B0E034
:104BB000A0E088159905AA05BB0508F0EFC0881A82
:104BC000990AAA0ABB0A8092730190927401A0927A
:104BD0007501B0927601D4B98091730190917401FE
:104BE000A0917501B09176014997A105B10508F032
:104BF00082C093CE0E9402078C2F0E945007880D1E
:104C0000991DA8950F5F1F4F20914B0130914C01CA
:104C10002017310778F74501881A990A18141904E2
:104C20000CF0AEC029EC821691040CF076CE28EE82
:104C300033E0D4010E943F3A95010B2C000C440B49
:104C4000550B0E94EC39890180914B0190914C01E8
:104C50000196B0E0A0E080937B0190937C01A0934B
:104C60007D01B0937E01C501880D991D0E94150834
:104C700020917B0130917C0140917D0150917E011A
:104C8000DC010E94453A60937B0170937C01809324
:104C90007D0190937E016093730170937401809302
:104CA00075019093760187EF809385017ADD80907E
:104CB000730190907401A0907501B09076018EE11F
:104CC00093E00E946D3BA8EEB3E0A81BB10987FDFD
:104CD000B395A50194010E944F3A24E630E040E0EC
:104CE00050E00E94EC39209373013093740140939B
:104CF00075015093760180911101882329F08091EC
:104D00001301853009F009CE88E08093130180916A
:104D10008501909186019817C4F08913FECD80908B
:104D2000730190907401A0907501B090760140914C
:104D30007701509178016091790170917A0148155D
:104D400059056A057B0508F0E8CD40917301509143
:104D500074016091750170917601409377015093D1
:104D600078016093790170937A01809386011093A2
:104D7000820100938101F0928301C0938401CDCD23
:104D800010E000E061CF80938100E7B838CE81E089
:104D900090E09093B7018093B60101CF34E1830E88
:104DA000911CA11CB11C88169906AA06BB0610F41A
:104DB0000E945D131092730110927401109275019C
:104DC0001092760108CF00914B0110914C01011512
:104DD000110509F4D2CDC50110E000E015CF1F92F6
:104DE0001FB61F9211248F939F93B59904C0809191
:104DF0007001811109C0B59B10C08091860090910F
:104E000087008A3F910548F480914B0190914C01B5
:104E1000019690934C0180934B019F918F911F902D
:104E20001FBE1F9018951F921FB61F9211248F93BB
:104E30009F9310927001B09B10C08091860090915A
:104E400087008A3F910548F480914B0190914C0175
:104E5000019690934C0180934B019F918F911F90ED
:104E60001FBE1F901895B0E0A0E0E9E3F7E20C94B4
:104E7000E03A88E893E190931801809317019093AA
:104E80002A01809329018EEB80932501C8E0C8B9DF
:104E900088E187B90E941007C7B984E00E944C07D7
:104EA000AC018B5C9840833F9140A0F481E08093FB
:104EB00034012091290130912A01AFEBB9E00E9421
:104EC000303A9A0150E040E00E94EC3930931801EA
:104ED00020931701809117019091180190932A0156
:104EE000809329018EE00E9450078EE00E944C07BB
:104EF00090932E0180932D010E94C207C3DB88E0AE
:104F0000F82EF8B8C9E0C7B985E185B9D1E0D4B9C0
:104F100080E00E944C078C019AE0D92ED7B824E09B
:104F2000B22EB4B881E00E944C07080F191F3CE074
:104F3000E32EE7B840E1C42EC4B882E00E944C07DB
:104F4000080F191F15B8C8B9C7B9D4B980E00E94B5
:104F50004C070E94B407EC01D8B8D7B8B4B881E0C8
:104F60000E944C070E94B407C80FD91FE8B8E7B8E1
:104F7000C4B882E00E944C070E94B407C80FD91F32
:104F8000F7B8F8B814B88091290190912A016C0102
:104F9000CC0CDD1CC80ED91EC8018C0F9D1FC81A71
:104FA000D90AF12CE12C9801A0E9BAE10E94303A2B
:104FB000A70196010E94EC3949015A01309333014F
:104FC000209332019E01A0E9BAE10E94303AA70184
:104FD00096010E94EC3930932C0120932B0120572D
:104FE000354E309315012093140180E7881A85EE21
:104FF000980A90920E0180920D0189E1809325011B
:10500000CDB7DEB7ECE00C94FC3ACF92DF92EF9292
:10501000FF920F93CF93DF93F82EC62FD42F0E94C9
:105020001E0C88E091E00E942C0CF7D16C2F8F2D84
:105030000E94DD37C090BA01D090BB01E090BC0166
:10504000F090BD018091190187FD05C0C114D10404
:10505000E104F10421F084E091E00E942C0C8C2FFB
:105060000E941E0CC114D104E104F10431F00E942D
:105070001D06809156010E94710CDD2309F459C070
:10508000809135018F3008F054C08650990B8B5BAE
:105090009C4F0E942C0C80E00E94D20ACD28CE2882
:1050A000CF2809F449C06091BA017091BB01809189
:1050B000BC019091BD0103E028E447EF0E94970CEA
:1050C00087E191E00E942C0C82E593E00E94753B01
:1050D00023E046E464EF0E94770D8091B201909145
:1050E000B301A091B401B091B501892B8A2B8B2B10
:1050F000F1F180E00E94D20A6091B2017091B30197
:105100008091B4019091B50104E028E440E00E9450
:10511000970C82E191E00E942C0C23E040E26FEFBB
:105120008091B8019091B9010E94770D0E94B10A57
:1051300025C00E94B10AAFCF809156010E94710C28
:10514000809119018E3F4CF68FE291E00E942C0C69
:105150006091A1017091A2018091A3019091A4019D
:1051600003E028E4409119010E94970CB6CF80E03B
:105170000E94B70A809138018823C1F2DF91CF9154
:105180000F91FF90EF90DF90CF900895EF92FF92F4
:105190000F931F93CF93DF93182F0E94520A809191
:1051A00083010E941E0C8BE491E00E942C0C78D3AA
:1051B00060918301809184010E947808EC019093B2
:1051C000800180937F01E0908101F0908201CA3FCD
:1051D0008FEFD80720F489E091E00E942C0C809199
:1051E00084010E941E0C112309F445C090913501E1
:1051F0008FE0891B0E941D0A89E690E00E942C0C1A
:105200000E94990A609177017091780180917901EB
:1052100090917A0104E026E4409186010E94970C67
:10522000CA3FDF4F68F48AE391E00E942C0C22E031
:105230004DE16EEF80917F01909180010E94770D8A
:105240000E94B10A0E94A10AE114F10469F083E30B
:1052500091E00E942C0C22E045E26FEF80918101E9
:10526000909182010E94770D0E94B10ACDB7DEB7FE
:10527000E6E00C94023B0E94B10AC2CF8F7021F489
:105280000E94A90A0C94801908958F3021F49091FE
:105290002F01913011F08F5F089580E00895CF9332
:1052A00084E790E06FD76AE080E00E94260A89E4F4
:1052B00093E00E942C0CC0E00E94310F60E082E07D
:1052C0000E94282162E080E00E9428210E94520A68
:1052D00080916F018823A9F041E062E080E095DED3
:1052E0008C2FCCDF88EE93E00E94AF0E811105C0B9
:1052F0008C2FCBDFC82F8A3FF8F20E94590ACF913A
:10530000089584E790E00E942C0C89E493E00E94C9
:105310002C0C0E94990A8FE30E94AF0B80E00E9440
:10532000B70A0E94B10ADCCF0F931F93CF93DF938C
:10533000C0E0D8E012EF0FE00E94310F60E082E0A1
:1053400070DAD093130180918501843FE1F480915C
:10535000730190917401A0917501B091760184362A
:105360009105A105B10578F440E060E082E00E947B
:1053700077356093730170937401809375019093F6
:1053800076011093850180918501823F4CF18093D5
:1053900086018091730190917401A0917501B09183
:1053A00076018093770190937801A0937901B0936F
:1053B0007A0181E0EBDE8C2F61DF88EE93E00E94C2
:1053C000AF0E811106C08C2F60DFC82F8A3F08F412
:1053D000B3CF0E94590ADF91CF911F910F91089589
:1053E0000E94520A8DE690E00E942C0C80913501BB
:1053F000902F981B892F0E941D0A89E690E00E9439
:105400002C0C0E94990A8FE30E94AF0B0E94B10AF4
:105410000E94A10A0E94B10ACECFA6E1B0E0E3E16A
:10542000FAE20C94DA3A82E0809319018091130138
:10543000813009F0DDC180916F01813009F0D8C160
:105440004090560124E0429EF0011124EA55FE4F9F
:1054500080819181A281B381893032E59307A105D2
:10546000B10508F0C5C11C01712C81E0871508F455
:10547000C3C1842D0E947706982E892EE92FF0E073
:10548000E85BFD4F549090E0FC01EB5BFD4FE49135
:1054900015B828E028B9372D3170632E20EF221679
:1054A000310408F0B0C13111AEC100910D0110916D
:1054B0000E0100591A4121E030E002C0220F331FD3
:1054C0008A95E2F7C9018529886087B934E1398B6B
:1054D000892D0E9449075C01882D0E94500724E015
:1054E000A216B10410F4049728F039893150398B91
:1054F0003111EECF80E480937B0094E590BF892D3D
:10550000806480937C0026E120937A00F12CE12CCA
:1055100010928000109285001092840087E286BB72
:105520000E940B07872D90E09A8B898B611074C1C4
:1055300081E88093810058B886B385FF76C128E062
:1055400028B91092810030E236BB2091860030915C
:105550008700690140918400509185002417350728
:1055600008F471C186E980937A00B4E15B2E892D3D
:105570000E9449075C01882D0E94500724E0A21672
:10558000B10410F4049718F05A945110F0CF8090A1
:10559000320190903301820C931C800E911E209159
:1055A0000F013091100100398AE1180708F053C14A
:1055B00069E191EEC916D104E104F10430F4C601A9
:1055C00065E070E00E94C539645128523109261BFC
:1055D000310967FD339566E0862F90E0B0E0A0E0EA
:1055E0008C159D05AE05BF0508F03EC1C81AD90A45
:1055F000EA0AFB0A662029F082E2C80ED11CE11CEF
:10560000F11C90E5E916F10418F0C12CD12C7601BB
:105610008BE0C816D104E104F10428F091E0C91A26
:10562000D108E108F108B12CA12CA8EEB3E00E944A
:10563000303A6B8B7C8B8D8B9E8BA0912901B09126
:105640002A0198010E94303AA50194010E94EC3988
:10565000442755276B897C898D899E890E94EC3966
:10566000C9010E945408FC01A5019401C701B601BB
:105670000E94AA394B015C01BF0190E080E0E3E0A9
:10568000660F771F881F991FEA95D1F76B5F7F4FD1
:105690008F4F9F4F2AE030E040E050E00E94EC390D
:1056A000C501B4010E94EC39E989FA89EE0FFF1FA8
:1056B000EE0FFF1F81E090E08C0F9D1FE80FF91F98
:1056C0002083318342835383611018C09CE0C91644
:1056D000D104E104F10490F07394E989FA893196D8
:1056E000EE0FFF1FEE0FFF1F81E090E08C0F9D1F5C
:1056F000E80FF91F2083318342835383A895739465
:1057000093E0971508F0B1CE88E088B984E00E9454
:10571000190791E00D811E812F81388549815A81B9
:105720006B817C81401751076207730708F090E096
:105730000D851E852F85388949855A856B857C8521
:1057400083E0401751076207730708F082E024E006
:10575000829FD001112421E030E02C0F3D1FA20FC9
:10576000B31FE92FF0E0EE0FFF1FEE0FFF1FE20F58
:10577000F31F0D911D912D913C91408151816281CA
:105780007381041715072607370708F0892F34E0BF
:10579000839FF001112421E030E02C0F3D1FE20F28
:1057A000F31F40815181628173814093A101509325
:1057B000A2016093A3017093A40180FD59C030EF52
:1057C0002316310408F054C08BEF809319018091A7
:1057D000A1019091A201A091A301B091A401892BF4
:1057E0008A2B8B2B11F41092190188E087B914B819
:1057F0006696E2E10C94F63A842D0E94770698278B
:105800008927982739CEE4B9852D886087B900911A
:105810000D0110910E015ACE58B80E94140790E263
:1058200096BB81E88093810087CE80FF85CE91E092
:1058300096BBA89597012F5F3F4F79012035310521
:1058400009F07ACE7CCE80FF8DCE21E026BB3FEFE3
:10585000E31AF30A87CEC40160EB76E30E94C539F0
:10586000695F285D3F4FB8CEC12CD12C7601C2CEE6
:105870008CEF80931901CB01BA016B5F7F4F8F4F83
:105880009F4F2AE030E040E050E00E94EC39209346
:10589000A1013093A2014093A3015093A40197CF9B
:1058A000B0E0A0E0E6E5FCE20C94DC3A0091810176
:1058B000109182010115110509F092C0E091830158
:1058C000F0E0E85BFD4FD491D860E0918401F0E016
:1058D000EB5BFD4FC4910E94422388E088B915B864
:1058E000D7B9C4B9809184010E9450077C01D0913E
:1058F00086018CE08D0F843008F072C080917701B2
:1059000090917801A0917901B0917A01D15F2C0139
:105910003D0125E0420E511C611C711CC301B20106
:105920002AE030E040E050E00E94EC3949015A01A1
:10593000DA01C901DF5FD73051F72AE5421623ECBF
:1059400052066104710408F04BC0059708F448C082
:10595000C5B9C4B9D0E0C0E0C815D90508F445C040
:1059600014B815B8A89585E080932501809184012D
:105970000E945007EC01CE19DF09E816F90610F075
:10598000D0E0C0E0D12CC12CC814D90490F1809192
:1059900084010E94500729E120932501A895E8166B
:1059A000F90618F48C010E191F090C171D0788F44D
:1059B0009E01201B310B69F0A4EFB1E00E94303A48
:1059C0009E0150E040E00E94EC3930938201209328
:1059D00081010E94422388E087B988B914B815B8BC
:1059E000CDB7DEB7E0E10C94F83A0E941207229698
:1059F000B3CF0E9412078FEFC81AD80AC5CF8C30D8
:105A000008F08C50811109C082E292E00E942C0CB7
:105A10000E94B10A0C944D0A0895813019F487EB65
:105A200091E0F4CF823019F489EF91E0EFCF833029
:105A300019F48EEE91E0EACF843019F48FE790E00C
:105A4000E5CF853019F484E790E0E0CF863019F493
:105A50008DE690E0DBCF873019F48EED91E0D6CF64
:105A6000883019F48FEC91E0D1CF893019F48EEAA7
:105A700091E0CCCF8A3019F480E192E0C7CF8B302F
:105A800039F685E092E0C2CF0F93CF938FE790E095
:105A900079D3C0E01092130160E082E08ED580914E
:105AA0001301883009F04BC00E94990A83E40E94D8
:105AB000AF0B0E942106609177017091780180916F
:105AC000790190917A0103E026E4409186010E94D9
:105AD000970C0E94B10A60918301809184010E9419
