:1000000034C3000044C3000042C3000040C30000EA
:100010003EC300000C94362F3AC3000038C30000E2
:1000200036C300000C94DF0A32C3000030C3000066
:100030000C94AC220C94252F0C942A2F0C9488221B
:1000400026C3000024C300000C94042F20C300002A
:100050001EC300001CC300001AC3000018C3000028
:100060000C94E00A14C3000012C3000010C3000087
:100070000EC300000CC300000AC3000008C3000048
:1000800006C3000004C3000002C30000E62FF72FE0
:10009000903009F49395EBB8CAB8B6EFB0937A00F4
:1000A000A5E0A0937B00A8E0A093810010928000BF
:1000B000AFEFA0938500A0938400A6E0A093360044
:1000C00010928B0010928A00B3E0AFE3A91B51E0BD
:1000D000392F33302AF0A05CBC4F53953350F9CF01
:1000E000B0938900A0938800A0917A00A4FFFCCF70
:1000F000B6EBB0937A00A2E0A0936F00A9E0A093C2
:10010000810062E0A0E0A0937B00A1E0A0935300F7
:100110008895EBB8CAB884FF1AC0A8E10000AA9578
:10012000F1F7EF93FF93E1B1F2B1A4E0C4FCA2E0D8
:10013000C2FCA1E0BF2FBA2BAE2BB2B90AB9A1B94C
:10014000E1B9F2B9FF91EF910BC00C948500ACE1DD
:1001500000000000AA95F1F72BB9EBB800000AB92E
:10016000A0918400A0918500B0918900A395AB1760
:1001700060F7A0917A00A4FFF3CFB6EBB0937A00BA
:100180006A9571F76091780070917900308186FDF1
:10019000630F6193308186FD731F80FF7193652F1C
:1001A0004A9579F710926F0010928100B6E0B093F3
:1001B0007A000895496473733D00206574613D00C1
:1001C000554A540050555400312D032D3320342D01
:1001D00033306E46284C29005245465F523D00524E
:1001E00045465F433D0066706EE46D006B4D041044
:1001F00040010204041F111111111F04001E02030B
:10020000021E0000000F0818080F00001113171F2E
:100210001713110011191D1F1D1911001B1B1B1B8A
:100220001B1B1B005244533D005B435D00312D03FB
:100230002D332000312D04052D77772D33200043F9
:100240002B455352405450313A3300433073616D63
:100250007020004330200052695F4C6F3D005269AE
:100260005F48693D0052303D0052482F524C002BF0
:1002700052482D203132203133203233002B524C62
:100280002D2031322031332032330052482B00529E
:10029000482D005248663D005265663D0049434581
:1002A000733D00494345303D0056657273696F6E7A
:1002B00020312E31336B002D77772D002D04052D45
:1002C000002A012020007A20513D0020696620008C
:1002D0002040302D3556002D022D002D012D004ED1
:1002E0006F742063616C6962726174656421204679
:1002F0006F72FF63616C6962726174696F6E206313
:100300006C616D70207468652033FF70696E7320B6
:10031000746F67657468657220616E6420737461C0
:100320007274207769746820746865FF6B65792E34
:100330002041636B6E6F776C6564676520746865D8
:100340002073656C662D74657374207769746820FA
:10035000746865206B65792077697468696EFF320F
:10036000732E20446973636F6E6E656374207069C9
:100370006E7320616674657220746865FF6D6573C5
:1003800073616765202269736F6C617465FF5072D9
:100390006F626521222069732073686F776E2E204B
:1003A000536F66747761726520616E6420646F6359
:1003B000756D656E746174696F6E20697320617408
:1003C000206769746875622E636F6D2FFE6B7562AE
:1003D00069343800566578743D0049723D004C3DE3
:1003E0000020566C6F73733D00204553523D0056FC
:1003F00043433D0043656C6C21002D032D004056A6
:10040000673D002056743D0055663D005562653DD0
:1004100000203132333D00504E50004E504E0043CC
:10042000673D006846453D002D49474254004A4615
:100430004554002D4D4F5300444320507772204DBA
:100440006F6465004F4B004261742E20004C4620C3
:1004500071756172747A0048462071756172747AA0
:10046000004672657175656E6379203E20324D4895
:100470007A004672657175656E63790073686F7294
:10048000742050726F626573210053656C667465E9
:100490007374007475726E21004328E44629636FFB
:1004A0007272656374696F6E00726F746172792025
:1004B000656E636F6465720031302D62697420501F
:1004C000574D00662D47656E657261746F720053FB
:1004D0007769746368206F66660053686F7720647D
:1004E00061746100566F6C74616765005472616E6F
:1004F000736973746F720053656C656374696F6EB2
:100500003A005465737420456E640069736F6C61C2
:1005100074652050726F626573210053656C667458
:10052000657374206D6F64652E2E0054696D656F60
:1005300075742100206465746563746564004E6F92
:100540002C20756E6B6E6F776E2C206F720020758D
:100550006E6B6E6F776E00546879726973742E00DB
:10056000547269616300706172740064616D6167E7
:1005700065642000656D70747921007765616B009A
:1005800054657374696E672E00B903870358032E90
:10059000030703E402C302A4028802000014002936
:1005A000003E005300690080009700AE00C600DFE7
:1005B00000F80012012D01490165018201A001BE70
:1005C00001DE01FF012102440268028E02B502DE53
:1005D000020903350364039403C803FE033704735D
:1005E00004B404F90443059305EA054906B3062952
:1005F00007AE074808FF08DE09FD0A930C480F996B
:100600001B705780508D4A6645E340E83C5E3933A5
:10061000365A33C6306D2E492C532A8428DA264E9A
:1006200025DF2389224A212020081F011E091D20C1
:100630001C431B731AAD19F1183F189517F4165A7D
:1006400016C6153A15B3143214B7134013CE1261FF
:1006500012F81193113111D310781020202020208E
:1006600020202020205B524C5D0011241FBECFEFC4
:10067000D0E4DEBFCDBF21E0A0E0B1E001C01D921B
:10068000A23CB207E1F70E94480F0C94253CB8CC7D
:1006900080FD2A9A80FF2A98229A00002B9A239A9A
:1006A0002C982D982E982F9864FD2C9A249A65FDED
:1006B0002D9A259A66FD2E9A269A67FD2F9A279ADB
:1006C00000002B9819D187FD10C02B9A2C982D98DB
:1006D0002E982F9860FD2C9A61FD2D9A62FD2E9A1E
:1006E00063FD2F9A00002B9807C1089597FF09C05A
:1006F0008F939F938DE209D49F918F9190958195CF
:100700009F4F6EE171E04AE050E00E94C43B7DC41F
:10071000EDDF01C0EBDF80E2F8C38DE2F6C38DE3CD
:10072000F4C3EF92FF920F931F93182F062FF42E0E
:1007300081E194E075D4EE24E0913901F0913A0121
:100740008685E81611F4812F09C08485E81611F416
:10075000802F04C08585E81611F48F2DD6D3E3943D
:100760008E2D833049F71F910F91FF90EF900895E0
:10077000682F80E092E0662309F491E0623009F48A
:1007800081E008950F93082FEAEAF1E0880F880FBF
:10079000E80FF11D6081718182819381643671055A
:1007A0008105910568F420911C0127FD09C0802F67
:1007B000DFDF692FF4D16EEF23E044EFCDD504C025
:1007C0004FEF04E024EFE4D4A6DF0F9108958630C4
:1007D00058F4E9E9F1E0E80FF11DE80FF11D80811F
:1007E000918163E0C4D597CF08951F93182F80910E
:1007F0007201882319F08FDF80E087D3EBD388E084
:1008000094E00ED4812F82958F70E1DF812F8F705D
:10081000DEDF1F9108958091020182958F7018D0BC
:100820008091020183701AD080910201DECFEDE841
:10083000F1E0E80FF11D0895CF93F9DF9081C681B3
:10084000C91710F405D001C012D065DFCF9108950B
:10085000EEDF8F9380818BD38F9100C08F938BEDD0
:1008600092E0DED38F91E3DF868181C30895DFDFDD
:100870008F9386817CD38F9100C08F9387ED92E018
:10088000CFD38F91D4DF808172C308958F932F933C
:100890002AE08095519A089410F4599802C0599A08
:1008A000000020D027D086952A95B1F72F918F91FF
:1008B000089503D002D001D000D000D003D002D0E0
:1008C00001D000D000D003D002D001D000D000D0A1
:1008D000A89503D002D001D000D000D003D002D020
:1008E00001D000D000D003D002D001D000D000D081
:1008F00003D002D001D000D00000089582E090E043
:10090000893C28F0885C48EC849FC0011124009742
:1009100009F4089540918100477019F0D9DF0197DB
:10092000F6CF8130910519F002975EE303C057E1DD
:1009300080E090E04091B200450F4093B30042E068
:100940004093700047E043BF889546E043BF109254
:100950007000A895DCCF8F9384E0D1DF06C08F9321
:10096000CDDF03C08F9381E0CADF8F911F93182FD3
:10097000106410937C00E12FE07880912901E81742
:1009800059F0E0932901AEDF8EE980937A0083E08D
:1009900083BF889582E083BF20E030E0A901E0E0DA
:1009A00020C08EE980937A0083E083BF889582E03F
:1009B00083BF6091780070917900260F371F411D29
:1009C000511DE43069F480912B01803049F084E0BE
:1009D0002030380728F417FD03C010681F7BC9CFEB
:1009E000EF5F80912801E817E0F260912C0170918F
:1009F0002D0117FF04C060912A0170912B0180E046
:100A000090E00E941D3A2FEF33E040E050E00E945A
:100A10005F3AB901CA012091280130E040E050E07E
:100A20000E945F3AC9011F9108959B01281B390B51
:100A300050F0C9010895BC0180912C0190912D01C5
:100A40006817790718F4861B970B089580E090E0EB
:100A5000089588E290E00E94FF3B209130013091A0
:100A60003101280F391F209312013093130183E0C5
:100A7000283E380720F0C901885E934002C080E01C
:100A800090E062E370E00E94383A683008F067E076
:100A9000E9E8F5E0E60FF11DE60FF11D45915591EE
:100AA0002591359162E3681B421B530B649FC00183
:100AB000659F900D1124499662E370E00E94383AD8
:100AC000620F731F70937601609375018AE290E064
:100AD0000E94F73B992787FD9095609130017091B6
:100AE0003101860F971F90932B0180932A019093D9
:100AF00071018093700108950F9221E08C3292076A
:100B000010F48CE291E08C52914069E170E00E9417
:100B1000383A99E16B3210F0982F6BE2981BE1E0C4
:100B2000F6E0E60FF11DE60FF11D45915591259177
:100B30003591692F421B530B649FC001659F900D37
:100B400011240C9669E170E00E94383A620F731F1D
:100B5000CB010F900895CF93DF9324E130E0B901EA
:100B60000E94383ADC01EBE9F5E0E60FF71FE60FEB
:100B7000F71FC591D591459155914C1B5D0B4A9F2F
:100B8000C0014B9F900D5A9F900D1124B9010E94F6
:100B9000383A6C0F7D1FCB01DF91CF910895AEE104
:100BA000B0E0E5EDF5E00C94473B662EB82E860FDD
:100BB000898320911601283059F520917B013091CD
:100BC0007C0140917D0150917E0157FD15C010912F
:100BD0008A0109C0CA01B9012AE0312D412D512DE8
:100BE0000E945F3A1F5F173FACF391F4243160E03D
:100BF00036074105510518F48FEF9FEF41C1173FAC
:100C000039F480E028178DE738074105410510F0D9
:100C100020E03DE72C8B3D8B26EDA22EE1EFF1E0AD
:100C2000E60DF11D859180608E87E1EFF1E0EB0D1F
:100C3000F11D859180608F87EEEEF1E0E60DF11DEC
:100C40007590EEEEF1E0EB0DF11DC59090EC692A88
:100C5000B92A81E0E82EF12C012D112D8E831F82FF
:100C6000188619861A861B861C861D86188E198E74
:100C70001B8E1A8E0E94D71E80E082B960927C0083
:100C800031DE3F8531B97BB87AB852E05A95F1F739
:100C9000000000001AB81BB8DD243E8531B97BB8CE
:100CA0007AB860927C00A895A0927A0080917A0030
:100CB00086FDFCCF2090780030907900B0927C00C7
:100CC0004C2DE2D02091780030917900288B398B1F
:100CD0003F8531B9CBB8CAB8A895B0927C00A09234
:100CE0007A0080917A0086FDFCCF60917800709147
:100CF000790060927C00472DC7D0409178005091D8
:100D000079001AB8CB01820D931DE80EF91E011D62
:100D1000111DEA82FB820C831D8388899989840FC7
:100D2000951F2E813F8168857985280F391F611DA8
:100D3000711D2E833F836887798722E32417150668
:100D400048F07BB87AB8D8DD1AB81BB8888D83957F
:100D5000888F07C0483E73E0570718F08A8D839547
:100D60008A8F888999892817190658F03E8531B9E4
:100D7000CBB8CAB8C1DD1AB81BB8898D8395898FE5
:100D800007C0883E73E0970718F08B8D83958B8F93
:100D9000D3945D2D5F3F49F05F3731F45C2D550FE3
:100DA000C50E572D550F750E78CF409035015090D8
:100DB0003601440C551C9201E4E0240D351DEA95E2
:100DC000E1F72901570168016E807F80888499844A
:100DD000209116012830C1F46C897D89812D912DD7
:100DE00065507040804090409B01AC010E941D3ACC
:100DF0009B01AC0160EF7FE080E090E00E945F3AF1
:100E0000621A730A840A950AA614B704C804D9049E
:100E100028F46A187B088C089D0803C06624772490
:100E20004301B20180E090E09301A4010E941D3AC9
:100E30009501A6010E945F3A80E090E07981870FDA
:100E4000911D0E94F73B682EC90160E170E00E948D
:100E5000383A260F371FC9016816190618F4861983
:100E600091090EC08C5E9F4F8615910538F48C89D0
:100E70009D89843981E1980708F0B3D7812D912DA0
:100E80006E96E2E10C94633B109281001092800018
:100E900010926F0010928B0010928A0057E056BBA0
:100EA0005FEF509385005093840055E050937B0092
:100EB00056EB50937A0051E05093810058E25A95D6
:100EC000F1F700004BB94AB955E05A95F1F7000027
:100ED0001AB81BB81092810080917A0084FFFCCF71
:100EE00080937A000895CF93C82F1C1614F0CF91E9
:100EF000089511DCC150F9CF809138018093000131
:100F00008091A901809301010895CF93C82F80910A
:100F100038018F5F809338016C2F81E0B9DBE3DC0F
:100F2000C63058F482E5C430A0F4C23079F0A8F499
:100F30008EE3C13099F08C2F0CC085E7C43E49F098
:100F4000C43F79F0CD32B9F78DE203C08CE79EDC67
:100F50008CE39CDCA895CF9108958CE797DC8CE717
:100F6000F8CF8FE493DC88E691DC8DE6F2CF8F5CDE
:100F7000CCCF0895682F80E08BDBB5CC0895982FF7
:100F8000862F60933801913019F48054F3CF08957F
:100F9000923011F48C56FACF933011F48C52F6CF74
:100FA0008058F4CF6091000180910101E8CF08954D
:100FB0008DE06CDC8AE06ACC08951092A90180E88B
:100FC000D9DF10923801F4CF089581E0D3DF96DCA9
:100FD000F4CF089581E08093A90180ECCBDF1092DB
:100FE0003801E6CF089582E08093A90184E9C2DF49
:100FF00010923801DDCF089583E08093A90184ED3C
:10100000B9DF10923801D4CF0895CF93DF93EC016C
:101010008991811103C0DF91CF91089576DFF8CFD8
:10102000CF93DF93EC01FE018491882319F06DDFEB
:101030002196F9CFDF91CF9108950F931F93CF930E
:10104000DF93EC018C01085F1F4FFE0184915DDF8F
:1010500021960C171D07C9F7DF91CF911F910F91B2
:10106000089584E14CDC83E385DF82E383DF46DCA3
:1010700080E280DF80E27EDF88E67CDF89E07ADF65
:101080008AE278DF88E076DF86E074DF82E072DF74
:101090009CDF81E034DC8CE06DDF88E46BDF84E191
:1010A00092E0CBDF80E566DF8CE092E0C6DF88E58A
:1010B00061DF8CE192E0C1DF80E65CDF84E092E0FA
:1010C000BCDF88E657DF8CEF91E0B7DF80E452DFCA
:1010D00084EF91E0B2CF08959091380184E1891BAB
:1010E00002CF0895CF93C82FF7DF8091A9018F5FBA
:1010F0008093A901843068F083E08093A90181E0A6
:1011000080933B016C2F8091A90139DF51DFCF9192
:10111000089510923B01F6CFE5DF03D28091A9013B
:10112000833008F045CF089548DFD6DF46CF0895D5
:1011300051DFD2DF4FCF08950F938FE194E070DF3E
:10114000409189014D3F6CF4609177017091780175
:101150008091790190917A0103E026E419D00F91F2
:1011600008958FE3D2DEFBCF909115019F709230EE
:1011700071F4D2DF84E292E053DFE0913901F09123
:101180003A0122E044EF6FEF84819581E5C0089534
:10119000AEE0B0E0EEECF8E00C94493B842E922EE9
:1011A000A02E6B017C01802F8F70B82E80E3898385
:1011B0008A838B838C838D838E83F7FE40C0ADDA68
:1011C000F094E094D094C094C11CD11CE11CF11C9B
:1011D00093E068EE462E63E0562E612C712CB91612
:1011E00009F441C084E050E1452E57E2552E612CB0
:1011F000712CB816C1F195E040EA442E46E8542E11
:1012000066246394712CB91671F186E030E4432EA4
:1012100032E4532E3FE0632E712CB81621F197E093
:1012200074E6472E512C612C712CB9121CC020E899
:10123000422E26E9522E28E9622E712C14C005FF99
:10124000C7CF8BE262DEC4CFC701B6016B5F7F4FB1
:101250008F4F9F4F2AE030E040E050E00E945F3A1D
:1012600069017A018394C414D504E604F70460F795
:10127000E1E1E80D0BEAE09FE12D11241E2F169508
:1012800086E08819809F012D11240695902F990FD3
:10129000090F801B082F3E0187E0680E711C2AE0B1
:1012A000A301C701B6010E94A33BF30101900020F6
:1012B000E9F731977F01E618F7082E2D802F90E08F
:1012C00004968E159F0514F41F5F0D5FE12FF0E06B
:1012D000EA51FE4F14918A2D8071A4FE05C08B2D1A
:1012E0008E192B1508F080E0AE2CA01AA80E1A1447
:1012F00024F08EE20ADE802F8E19011102C098EFD1
:10130000A92E00E0C82ED12CEC0CFD1C0A2C000CE0
:10131000BB08E02FF0E0EE15FF0564F0112311F09B
:10132000812FF3DD992011F0892DEFDD2E96E0E17C
:101330000C94653B3696EC19FD0981E090E08C0F2A
:101340009D1FE80FF91F8081E0DD0F5F0A151B0468
:1013500001F78EE2DADDDDCF0F93362FBC0190E08E
:1013600080E0022F242F432F13DF0F9108950F9356
:10137000062FBC0190E080E026E54DEF09DF0F91DC
:1013800008950F93042F28E440E002DF8AE7BDDDD3
:10139000C2D90F91089523B1221F2227221F1D9920
:1013A000226080910D01843050F08EE0809309011D
:1013B00020930A0110920E0181E080930D0190911B
:1013C0000D01E92FF0E0E75FFE4F3081321721F188
:1013D00080910E01E3E0E90FE37021110AC0323081
:1013E00069F5F0E0E75FFE4F3081333061F48F5FE5
:1013F0002EC0233041F43230C1F4F0E0E75FFE4FFD
:101400003081332319F1E1E0E90FE370E0930D013E
:10141000F0E0E75FFE4F208380910E0187FD03C05F
:1014200080930F0108958195FBCF313061F7F0E093
:10143000E75FFE4F30813111E6CFD9CF313019F758
:10144000F0E0E75FFE4F30813330E9F68150809362
:101450000E01D9CFB0E0A0E0E0E3FAE00C94503BFD
:10146000E82ED92E2798259838DA10920E01E091AF
:101470000D01F0E03196E370FF27E75FFE4F80EF4C
:101480008083C5E6D9E187DF379B24C0CE2DDD2DD3
:10149000F12C15E500E0BB24B394D7FD15C082E321
:1014A000C82E79DF1EDACA94C110FBCF110F379B0B
:1014B0001F5F1F731F33A1F4011103C0CE2DDD2D5B
:1014C00004E00F5F083C80F0802FCDB7DEB7E9E085
:1014D0000C946C3B06DAD150B1F6C15099F6D6CFD8
:1014E000111102C00111F0CFA8951C161D0624F49D
:1014F0002A9711F4CFEFDFEF80910F01882339F0A5
:10150000F39480917301811102C0B092730184E160
:101510008F1508F0C2CF80910E018111D5CFF12C2B
:10152000BCCFCF93E9DCC82F80913B01882301F128
:10153000813051F4C33041F463E183E020DD8BE27C
:10154000E4DC63E183E01BDD80E49FE183DF811164
:1015500004C080910F018111F7CFC33041F4809115
:101560003B01813021F460E083E009DDB5DD1ADD67
:10157000CF91089540911401A0913901B0913A01A1
:10158000EDE8F1E030E020E0822F2417B0F4519133
:101590001C969C911C97591719F05581951303C0FF
:1015A0002F5F3F4FF1CF220F331FF901E756FE4F58
:1015B00020813181293E334008F084E10895189557
:1015C0001895109216011092140110926B0110924E
:1015D0004B01109215011092370110927201E6E54D
:1015E000F1E0108211821282E7E7F1E0108A82E0D6
:1015F000818B10921C011786168614821582168222
:10160000178281EF838B08958FE440D986E43ED919
:1016100086E43CD9CDDC29984FD990E080E01ACF00
:1016200008951F93CF93DF93162F11B812B8E82FA8
:10163000F0E0E251FE4F94919BB9262F281BE20F58
:10164000F11D27FDFA95E491E92BEAB98FD9EC0158
:10165000812F8CD9AC0120912C0130912D01369530
:101660002795C9010397BE01625E7F4F86179707D2
:1016700078F4255E3F4FC217D30750F4BA01625E7B
:101680007F4F8617970720F481E04217530708F031
:1016900080E01AB8DF91CF911F910895CF9361E058
:1016A00080E0BFDFC82F62E080E0BBDFC80F62E0F0
:1016B00081E0B7DF8C0FCF910895AFE0B0E0E3E6B3
:1016C000FBE00C94473BB82E10921601807FB9F4D2
:1016D000E5DF833081F479DC8BE195E0A1DC7ADC15
:1016E0008FE313DC80ED97E0B5DE8B30B0F46DDC7A
:1016F00089EA92E095DC2F96E2E10C94633B06E9DF
:1017000010E063DC8CE794E08BDCC8DF833009F009
:1017100065C01F5F143008F462C05CDC0E94CC22FC
:1017200085E692E07DDC60E082E090E00E94043C8F
:1017300060E083E090E00E94043C60E081E090E0A3
:101740000E94043C60E082E02ADA6C019A8389837B
:1017500061E082E024DA7C019C838B8360E081E09D
:101760001EDA8C019E838D8323E040E26EEFC6017A
:10177000F3DD23E040E26EEFC701EEDD23E044EF4E
:101780006EEFC801E9DD2AE5C216D10424F084E138
:1017900090E09A838983698182E090E00E94043C12
:1017A0008AE5E816F10424F084E190E09C838B83C1
:1017B0006B8183E090E00E94043C0A35110524F01F
:1017C00084E190E09E838D836D8181E090E00E94B2
:1017D000043C82E080933B01A4DE06C010E088E276
:1017E0008ED8015009F08DCFEB2DEF70EF87E130EF
:1017F00009F04FC0EE24E394F12C68EB862E62EDE5
:10180000962E67E4A62EB12C08E070E2D72EE0E811
:101810003E2EC12C1E2D48E8242E8ADC85DC84E572
:1018200074DBC7010E9481030E948B03113009F011
:10183000B0C188E992E0F4DB64E0809130019091DE
:10184000310195DDC7DB83E992E0EADB8091750128
:10185000909176010E9481038EEB8093280111B84C
:1018600012B81AB81BB888EE93E0F4DD143011F00A
:101870008B3020F4C39484E0C812CFCF88EE93E07D
:10188000E9DDEFEFEE1AFE0AF8E0EF16F10409F0D9
:10189000C0CF18E703DF81116EC297DB8EE592E0BF
:1018A000BFDB23E044EF6FEF80912E0190912F0179
:1018B00053DD90DB87E592E0B3DB23E044EF6FEF8D
:1018C000809135019091360147DD82E080933B01A4
:1018D00028DE1092160179DB83E592E0A1DB60E05F
:1018E00082E00E94AE1F40907F0150908001609086
:1018F0008101709082015C864B8661E082E00E94EB
:10190000AE1F80907F0190908001A0908101B090E7
:1019100082019E868D8660E081E00E94AE1F00916C
:101920007F01109180011E830D8362E080E00E94A0
:10193000AE1F80917F01909180019C838B8362E038
:1019400081E00E94AE1F80917F01909180019A8773
:10195000898761E080E00E94AE1FE0907F01F090F7
:101960008001FA82E982C2010E948A03C4010E94B6
:101970008A03B801110F880B990B03E026E444EFAA
:1019800007DC2F85213009F001C282E0E80EF11C4E
:10199000F886EF828E010F5F1F4F6E01EFE0CE0ED3
:1019A000D11CF801819191910A97853B9105C8F46A
:1019B000CE16DF06B9F731E2E32E30E0F32EF80160
:1019C00060810E5F1F4F6E5EC7010E94043CFFEFF7
:1019D000EF1AFF0A0C151D0591F7FCDA84E494E078
:1019E0001FDB82E080933B019CDD0E94C8362F857F
:1019F000213029F080913401823009F0B5C090E4A3
:101A0000F92E10E02AE0822E912CA12CB12CD9DDE8
:101A10000E94EE3100918901209177013091780187
:101A20004091790150917A01073F0CF4BBC10093BA
:101A30008901209377013093780140937901509385
:101A40007A01073F09F0B6C1205631094109510911
:101A5000203935454105510508F0ACC160918B0135
:101A600070918C01CB018B569F4F8B32914008F0C7
:101A7000A1C11F5F153008F49EC188E290E00E946A
:101A8000123CA3DA8FED91E0CBDA80918B0190913B
:101A90008C010E9476030E94290546983E9A87E0B1
:101AA0000E94B604853D9340D4F73E9810922B01D6
:101AB00010922A0187E00E94B6047C018091700197
:101AC0009091710190932B0180932A0187E00E94ED
:101AD000B6046C01CC0CDD1C10922B0110922A0173
:101AE00087E00E94B6044C01A0907001B090710193
:101AF000B0922B01A0922A016DDA88ED91E090DA84
:101B00008AE290E00E94F73B182FD701A80DB91D7B
:101B1000AC19BD0995010E94AC3A96010D2C000C40
:101B2000440B550B0E94813A1D5F120F612F8AE210
:101B300090E00E94043C812F012E000C990B0E9422
:101B400076030E94290582E080933B01EADC109233
:101B500034018CE00FDA81E290E00E94F73B682FBD
:101B600084E290E00E94043C89E18093280180E0B7
:101B70000E94D7392ADA89EA92E052DA2BDA82E037
:101B800095E04EDA1092160182E080933B01C9DCA9
:101B9000B2CD123091F520912C0130912D01A8E5A4
:101BA000BBE10E949D3A24EC36E340E050E00E9405
:101BB000813A2901F4E0FBB984E18AB980E00E940E
:101BC000AB04841995099A83898384E48AB980E0F7
:101BD0000E94AB04841995099C838B8380E18BB9A7
:101BE00080E58AB981E00E94AB04841995099E833F
:101BF0008D838DE792E014DA37C0133059F50BB9B5
:101C000028E22AB980E00E94AB0420912C01309197
:101C10002D013695279538872F83821B930B9A8346
:101C200089832AB880E00E94AB042F813885821B0B
:101C3000930B9C838B83DBB880EA8AB981E00E9496
:101C4000AB042F813885821B930B9E838D838FE697
:101C500092E0D1CF1430D1F48BE095E0E1D91EDDD4
:101C6000882311F0F2E0CF2EB5D989819A810E94A4
:101C700076030E948B038B819C810E9476030E94D5
:101C80008B038D819E810E947603E9CD1530B1F4DE
:101C90001BB80AB980E00E94AB049A838983DAB842
:101CA00081E00E94AB049C838B833AB882E00E945F
:101CB000AB049E838D838FE892E09DCF163051F563
:101CC0000AB90BB980E00E94AB0420912C0130913D
:101CD0002D01821B930B9A838983DAB8DBB881E0EC
:101CE0000E94AB0420912C0130912D01821B930B9B
:101CF0009C838B833AB83BB882E00E94AB0420916E
:101D00002C0130912D01821B930B9E838D838BE8D8
:101D100092E071CF173009F0A7CF20912C013091BC
:101D20002D01A8E5BBE10E949D3AA50194010E9406
:101D30005F3A29010BB9ECE0EAB980E00E94AB04FC
:101D4000841995099A838983DBB8F0E3FAB981E0B5
:101D50000E94AB04841995099C838B833BB820ECCB
:101D60002AB982E00E94AB04841995099E838D8371
:101D700089E692E040CFDCD98BE095E051D984E64A
:101D80000E947F04115009F085CD87CD80913401E8
:101D9000823009F4FACDF886EF82109234018CE09B
:101DA000E9D8F8CD0F5FCA01B901A50194010E94DD
:101DB0005F3A3ACE10E00ED96091770170917801C8
:101DC0008091790190917A0104E026E440918901A3
:101DD000DFD982D988E20E947F04FA94F11017CEED
:101DE000C3CE8091340181110DC081E290E00E9448
:101DF000F73B61E0680F84E290E00E94043C81E0E0
:101E0000809334010895EF92FF920F931F93CF9325
:101E1000DF93D62FE82FF0E0EF50FE4FE491E2B9C8
:101E2000E1B91BB8E62FF0E0E251FE4FE491EAB9C8
:101E3000CE2FCC0F88E8E82E83E1F82E8D2F0E945C
:101E4000AB048C01CAB98E159F0500F1892BC9F02E
:101E5000D3D88AED93E0E4D8D80120EA36E841E00F
:101E600050E00E94B23A28E937EB40E050E00E948F
:101E70005F3AC90122E041E467EF6EDA11B812B8A7
:101E80001AB8CDB7DEB7E6E00C946F3B7801D6CF39
:101E900082E084B985B986E880937A001092C10007
:101EA0000E945E04599A519AC4B7C87084B7877F5C
:101EB00084BF0FB6F894A8958091600088618093E4
:101EC0006000109260000FBE84E98093640088E394
:101ED00080937E001092B00087E08093B1007894E8
:101EE000C0D8C111AFC580E185BF0E941D3584E017
:101EF00080930D01379908C00E947E04CF5FCC33D8
:101F0000C9F780E69DE604C08FE59DE6CF31C8F7AE
:101F10009093080180930701109229010E94CC221E
:101F200088E19FE00FB6F894A895809360000FBEFB
:101F300090936000CC3309F456C05AE0952ED0E15E
:101F40006CE3C62E61E0D62E7CE5E72E71E0F72E1D
:101F5000EDE08E2EF0EF7F2E38D811B832DB0E94E4
:101F6000CC222BD87DD580913701882369F032D8D7
:101F70008FEE93E055D863E080912C0190912D0174
:101F8000F6D988EC0E947F04379B32C023D80E9488
:101F9000D71E80911601893009F03EC016D884EF13
:101FA00093E03ED817D863E08091500190915101A1
:101FB000DED90E948B0363E080915201909153011E
:101FC000D6D90E948B0363E0809154019091550112
:101FD000CED98AEC0E947F0481E16FDB009107017A
:101FE0001091080108C20E94662C8111FCCFA5CF78
:101FF0009FD884ED93E014D811B883E00E94B20416
:102000008C010E94D80763E0909EC001919E900DC4
:102010001124ADD98CE3B6CF8CE00E94BA0784E2DC
:1020200090E00E94F73BC82F81E290E00E94F73BCE
:10203000C81BC0933401CC2319F08EE00E94BA076C
:1020400080E03BDB75D880E895E00E94100883E0D3
:102050000E9446040E94D80742E061E080E071D50A
:1020600042E060E081E06DD541E062E080E069D56A
:1020700041E060E082E065D540E062E081E061D56A
:1020800040E061E082E05DD58091160181110EC0D3
:102090000E94D71E60E082E00E94AE1F61E082E0F5
:1020A0000E94AE1F60E081E00E94AE1F8091160189
:1020B000833061F480911401823041F490918D015C
:1020C00080918E01981302C00E9459330E94E50747
:1020D000D0923A01C0923901809116018630D1F434
:1020E00087E595E00E94100841E467E483E40E94DC
:1020F00091030E94EA0788E094E00E941008E091B2
:102100003901F0913A0162E08481958130D90E94D1
:10211000D80764CF873041F480E695E00E9410082C
:1021200042E367E481E3E3CF8A3061F484EC91E039
:102130000E941008F0923A01E092390143E467E40A
:1021400081E4D5CF823009F040C080EC91E00E945C
:10215000100842E365E481E30E94910380E00E945D
:10216000720860914A0180914901E62FF0E0EA5A35
:10217000FE4FE80FF11D319710820E94C11CE091C3
:102180004A0180914901E80FFF27FF1FEE0FFF1F53
:10219000EE0FFF1FEA55FE4F6081718182819381AE
:1021A00002E024EF4FEF0E94C8088AEB91E00E9402
:1021B0001008609146017091470190E080E003E0D3
:1021C00025E240E00E94C80809CF8830C1F4809120
:1021D000870190918801890F9927991F029759F4D7
:1021E0000E942D258CE00E94BA0780913401811154
:1021F000D4C30ADAB1CE80E00E945B24EFCE8330F4
:1022000009F00AC180911401813009F069C080E0B1
:102210000E941C0460918D0180919301F4DD80E7A0
:102220000E94F50340E060918D01809193010E942E
:10223000EF356093770170937801809379019093E3
:102240007A0180E00E948C0860917701709178019A
:102250008091790190917A0102E026E442EF0E9498
:10226000C8080E948D0341E060918D018091930127
:102270000E94EF3560937701709378018093790124
:1022800090937A0126E442EF0E94C80880ED92E024
:102290000E9410080E94D8070E94D80780917201FE
:1022A000882309F49BCED1B911B880E00E948C0834
:1022B00020917201222309F454C3809159012130E5
:1022C00009F0E7C20E94B80320915901213009F0BA
:1022D000DBC2209114012111D7C20E94E42482CFD5
:1022E000823079F582E30E94850781EC92E00E94BA
:1022F000100890918D0130918E01931308C080E0F9
:102300000E94370481E00E942E0481E089CF209151
:10231000930180919401281307C080E00E94280453
:1023200081E00E943D04F1CF321306C081E080932A
:1023300002010E940B04B0CF98133FC0D09302015A
:10234000F8CF8330D1F583E380930201809193012C
:1023500090918E01891303C021E0209302014091E6
:102360008D0130919401431302C0D093020120915A
:102370008F01821303C082E0809302018091950156
:10238000481303C040E240930201321310C022E11F
:1023900020930201981303C081E28093020183E33A
:1023A0000E94850781EC92E00E941008C2CF981726
:1023B00099F380910201823290F386E695E00E94C3
:1023C00010088EE495E00E9410080E94EA078091B0
:1023D0001401805D0E9485078AE20E9485078BEDCB
:1023E00092E00E94100884E395E00E9410080E9489
:1023F000D80700E41FE1D1B9379BFECFC8012AD826
:10240000823328F490910F01933008F4B7C20E94F0
:10241000662C8111FCCFA0CD843009F047C180919A
:102420006B01882309F465C080914B01882309F46E
:1024300060C06091480180914A010E94AE1F2090C7
:102440007701309078014090790150907A01C091E5
:10245000890160916A01809168010E94AE1F80919C
:102460003C0190913D01A0913E01B0913F0140910E
:102470005C0150915D0160915E0170915F01843F4C
:1024800021E09207A105B10538F4443F31E053073C
:102490006105710508F0C0EF443F514061057105C9
:1024A00038F4843F9140A105B10510F07092890184
:1024B000809189018C1311C08091770190917801EE
:1024C000A0917901B0917A01281639064A065B0677
:1024D00030F08CE08093150104C0C817D4F78092C7
:1024E000150180916B01882321F080914B018111AE
:1024F00022C0809115018C3039F58BE194E00E9467
:10250000100880916B01882319F080E70E948507ED
:102510000E948B032FD8C82F853070F5809115014C
:102520008C3001F59091490180914A01891700F1A1
:1025300087ED92E01FC03799DCCF8091150191E0C3
:10254000892780931501D5CFF0923A01E0923901A5
:1025500087E194E00E94100880914B018823C1F22A
:102560008EE6D4CF9091690180916A01981700F7A7
:102570008BED92E00E94100843E462E485E40E943F
:1025800091030E94EA0783E294E00E941008E09120
:102590003901F0913A01608171818281938103E078
:1025A00020E04EEF0E94C8080E948B0389E40E943D
:1025B0008507E0913901F0913A0186819781803158
:1025C000974208F46FC085E60E948507E0913901C3
:1025D000F0913A0186819781805197429783868353
:1025E0000E948F03E0913901F0913A0122E041E429
:1025F0006AEF868197810E94AC0980E00E948C0876
:102600008CE094E00E941008E0913901F0913A01C9
:1026100063E0848195810E94B709E0913901F091CE
:102620003A0180859185892B91F080E00E948C0889
:1026300083EA92E00E941008E0913901F0913A019A
:1026400023E041E46AEF808591850E94AC09E09126
:102650003901F0913A0182859385892B91F080E0D0
:102660000E948C088DE992E00E941008E0913901E7
:10267000F0913A0123E041E46AEF828593850E945C
:10268000AC09C53008F0AACC80E00E948C088C2FE1
:102690000E941C0488E094E00E9410088C2F0E9485
:1026A000E70335CD83E60E9485079ACF853009F090
:1026B000FFCD8091150184FF3DC080E50E94850714
:1026C000F0923A01E09239010E948D038091150148
:1026D000C82FCF70C43091F58EE294E00E941008AC
:1026E0004FE367E48FE30E9491038091150185FD1C
:1026F0003EC00E94EA07E0913901F0913A016685F7
:1027000084850E94AE1F0E949C0883E094E00E9492
:102710001008E0913901F0913A0162E082859385D9
:102720000E94B70980E00E94B408C43009F456CC76
:10273000C0E0A5C08EE40E948507C6CF85FF0DC00E
:1027400084E40E948507C33051F488E294E00E943B
:10275000100843E467E485E4C6CF85E4F2CF83E361
:1027600094E00E94100844E467E483E5BCCF8F70D6
:10277000843009F458C080E00E947208E091390169
:10278000F0913A01668584850E94AE1F0E949C08E4
:1027900080E00E948C0889E40E94850784E60E94FC
:1027A00085070E948F03E0913901F0913A0122E000
:1027B00041E46AEF868197810E94AC098EEF93E035
:1027C0000E941008E0913901F0913A0162E082859F
:1027D00093850E94B709E0913901F0913A01808513
:1027E0009185803C924108F09DCF80E00E948C084A
:1027F00089E40E94850784E60E9485070E948F0372
:1028000022E041E46BEF90E080E00E94AC098EEFA3
:1028100093E00E941008E0913901F0913A0162E0E2
:10282000808591857DCFE0913901F0913A018481D5
:102830009581892B09F4ACCF80E00E94720884EB6B
:1028400091E00E941008E0913901F0913A0122E0F4
:1028500041E46AEF848195810E94AC0999CF80E0C0
:102860000E948C088C2F0E941C0488E094E00E9437
:1028700010088C2F0E94E7030E94D807CF5F809139
:102880001401C81760F3AACB40E0692F0E949A2375
:10289000A5CB90915A01E4E09E9FD0011124A6554A
:1028A000BE4F34E0839FF0011124E655FE4F2D907A
:1028B0003D904D905C904081518162817381C92F20
:1028C000421553056405750508F0C82F223059F5E7
:1028D000980FC3E0C91B0C2F069512E01C1BBB24EC
:1028E000B394CC2311F032E0B32E802F0E94B707AF
:1028F0008CEB92E00E941008812F0E94B7078CEBAE
:1029000092E00E9410088B2D0E94B70780E00E9481
:10291000720881E0C11180E00E94C20382E0801B46
:102920000E94C2035BCB80915B0194E0899FD00140
:102930001124A655BE4F24E0C29FF0011124E65594
:10294000FE4F0D911D912D913C91408151816281ED
:102950007381401751076207730708F0BCCFC82F77
:10296000BACF8EE395E00E9410080E94EA078BE63A
:1029700095E00E94100886E695E037CD8111ECCAFB
:1029800091113CCD2FCC80E29EE40E942A0A811155
:1029900050C080910E0187FF18C024E0622E10E025
:1029A00000E0980121523D4F5901F90180E094E186
:1029B000492EC491C03211F0CE3F09F4482E8F5FEA
:1029C00031968531B1F76620F1F2362D3370532EF2
:1029D00011F40E94E50760E0852D0E94BF070E9468
:1029E000D807A8956394862D8370682E512C5410B7
:1029F0000DC0CC23F1F0050D111DF801E152FD4F82
:102A0000E491E03271F60F5F1F4FCBCFF501C49117
:102A1000CC2379F0CF3F39F40E948B035394FFEF1E
:102A2000AF1ABF0AE4CFCE3FC9F38C2F0E948507AF
:102A3000F5CF80E29EE40E942A0A80910E0187FD74
:102A4000ACCFD7CB0E94DD078BE295E00E94100847
:102A50008BEC0E947F040E94040B90E080E00895BC
:102A60000F931F93CF93DF9385E00E94B60485E018
:102A70000E94B204EC018C01000F111F000F111F06
:102A800010923201C8018E5E92408138954270F0FA
:102A900088E394E00E9410080E946C0881E0809313
:102AA0003201DF91CF911F910F91089587E494E057
:102AB0000E94100862E0C8018A569F4F0E94B70921
:102AC0000E948B03CA3F86E0D80788F48BE795E025
:102AD000C333D64070F484E795E00E9410080E944A
:102AE0006C088DEC0E947F040E94040BDACF84E412
:102AF00094E00E9410080E946C08D3CFFC019C0156
:102B0000261B370BCA0170E060E0A901460F511D7A
:102B1000452F5527620F240F351FAC01470F511D5C
:102B2000452F5527780FDA01AA0FBB1F8A0F9B1F6D
:102B30004B3E20F4E217F30740F7089590E080E061
:102B40000895A7E1B0E0E7EAF5E10C94473B8E8BEE
:102B5000162F042FA895E62FF0E0E251FE4F2491A6
:102B60002D87220F2D8B339634913A83E42FF0E09A
:102B7000E251FE4F44914B83E42EEE0C3396F490D9
:102B8000E82FF0E0E251FE4F84918983880F8E8711
:102B9000339694919F8B4BB94D84442A4AB891B98E
:102BA00092B9862F0E94B2049C878B878B818E29D5
:102BB0008BB95D845E285AB8812F0E94B204ED85DE
:102BC000EAB9812F0E94B2041C011AB80E9467045E
:102BD0001BB84AB8812F0E94B2046B857C850E9485
:102BE00015054C01FA81F1B912B82B813981232BDB
:102BF0002C832BB92AB98E890E94B2040E941B052E
:102C00005C011BB80E94670449814BB98E890E9400
:102C1000B2040E941B056C0189818AB98E890E94C9
:102C2000B2040E941B053C01B601C5010E941505B6
:102C30008032E1E09E0730F4F0E28F16F1E09F066B
:102C400008F4BAC58C0C9D1C2B853C85820F931F04
:102C50008816990618F4DC86CB86130120914B0167
:102C600080916B01820F9927991F02974CF02130B8
:102C700009F0A2C5909148018091680198139CC504
:102C800039813E293A878B859C858437910508F4E4
:102C900097C10A96880F991F2816390608F090C127
:102CA0009F8991B992B95AB8812F0E94AF046C01E3
:102CB000802F0E94B6045C01EBB8812F0E94AF0404
:102CC0009601295A3D4F12B82817390708F0B1C0AC
:102CD000EA81E1B9FA85FAB9FBB9802F0E94AF0405
:102CE00088349F4008F46BC085E08093160182E22F
:102CF00080931501D0924101C0924001B501C601F7
:102D00000E94200590934701809346019601A0E11F
:102D1000B7E20E949D3A209110013091110150E0DC
:102D200040E00E945F3A30934301209342018D8935
:102D30008E298AB91BB83F8931B932B9802F0E94D8
:102D4000B6046C01812F0E94AF04B6010E942005D9
:102D50009C019093450180934401909115019F70CF
:102D6000943091F112B84A81F42AF1B889818AB974
:102D70009C819BB98E890E94B2046C010E941B0544
:102D80007C01812F0E94B604A0901701B090180119
:102D9000BC01C6010E9420059501DC010E949D3AFC
:102DA000970150E040E00E945F3A30934101209348
:102DB000400180914B018F5F80934B018BC385E075
:102DC0008093160184E294CF4091420150914301D7
:102DD0006091460170914701C90190DE0097F1F0C2
:102DE000EAB8EF89FA81EF2BE1B9812F0E94AF0495
:102DF0006C0111B89C01A0E1B7E20E949D3A2091BC
:102E000035013091360150E040E00E945F3AA9015F
:102E1000B601809144019091450170DE909341018B
:102E200080934001809115018F70843009F4C1CFE7
:102E300099CF2A8121B93A853AB93BB98E890E9446
:102E4000AF046C01802F0E94B6045C0149814BB92C
:102E50008E890E94AF04895A9D4F8C159D0508F0FC
:102E6000ABC48F8982B981B9802F0E94AF04813DA4
:102E7000934008F067C085E08093160182E3809359
:102E80001501B601C5010E9420059093670180934A
:102E90006601C6010E941B059C01A0E1B7E20E94E9
:102EA0009D3A209117013091180150E040E00E94B6
:102EB0005F3A309363012093620112B8FA81F1B94D
:102EC0008E858E298AB98BB98E890E94B6046C01D1
:102ED000802F0E94AF04B6010E9420059C019093B0
:102EE000650180936401909115019F70943079F190
:102EF0002F892F2922B921B91BB83C813AB98E8973
:102F00000E94B2045C01812F0E94B6047C01C09033
:102F10001001D0901101BC01C5010E94200596014D
:102F2000DC010E949D3A970150E040E00E945F3A28
:102F3000309361012093600180916B018F5F8093DA
:102F40006B01B8C085E08093160184E398CF40916F
:102F50006201509163016091660170916701C9013E
:102F6000CDDD009711F1EBB8EAB84F8942B9EA819B
:102F7000E42BE1B98E890E94AF040E941B056C010D
:102F800011B89C01A0E1B7E20E949D3A20912E0168
:102F900030912F0150E040E00E945F3AA901B60154
:102FA0008091640190916501A9DD90936101809306
:102FB0006001809115018F70843009F4BDCF98CFE6
:102FC00012B88A8181B999819BB9EA85EAB98E895B
:102FD0000E94B204988B8F870E941B059F838E836B
:102FE000802F0E94B604998788873101F4E66F0E1E
:102FF000711C2E813F81B1016216730608F06BC00F
:10300000C9010E9420056C0120911701309118011F
:1030100050E040E060E871EA83E09CE10E945F3AA2
:10302000D6010E94B23AE885F9859F0150E040E060
:103030000E945F3A49015A011AB81BB8FF89F2B9D8
:10304000F1B981E00E947F044AB8812F0E94B20446
:103050008F359D4008F483C15AB8812F0E94AF0478
:103060006C01802F0E94B6049A8B898B8E890E94F6
:10307000B6049C8B8B8B89899A89813D974008F493
:10308000FBC0EBB8812F0E94AF048115944008F477
:1030900041C0809116018430E8F58AE080931601E2
:1030A00069897A898B899C890E94200590936101A6
:1030B0008093600181E090916B019F5F90936B0121
:1030C000882309F434C400936801109369014E8980
:1030D00040936A012CC48E819F810E9420056C015F
:1030E000FC81FAB98E890E94B204988B8F870E9466
:1030F0001B059F838E83802F0E94B6049987888743
:10310000BC01C6010E9420059C01A4E6B0E00E941B
:103110009D3A89CF84E0809316018DE0809315015C
:1031200076012C143D0410F4E218F30840901001CD
:1031300050901101712C612C60E871EA83E09CE1F0
:10314000A30192010E945F3AD7010E94B23AE98935
:10315000FA899F0150E040E00E945F3A80916B0144
:10316000882371F080915C0190915D01A0915E01D6
:10317000B0915F0182179307A407B50708F076C0E6
:1031800020935C0130935D0140935E0150935F0199
:103190009601A0E1B7E20E949D3AA30192010E942C
:1031A0005F3A309363012093620169897A898B8940
:1031B0009C890E942005909361018093600181E0C9
:1031C00040915C0150915D0160915E0170915F01E1
:1031D000481559056A057B0508F04AC080925C01D4
:1031E00090925D01A0925E01B0925F016885798541
:1031F0008F8598890E9420059093610180936001DA
:103200002E813F81A0E1B7E20E949D3A20911701F3
:103210003091180150E040E00E945F3A205F384D45
:103220003093630120936201C0901001D09011018E
:10323000F12CE12C9101A0E1B7E20E949D3AA70197
:1032400096010E945F3A30936501209364012B85BB
:103250003C85A0E1B7E20E949D3AA70196010E9439
:103260005F3A309367012093660124CF80E0A8CFB6
:10327000882309F420CFD8CFF1E62F16310408F0C7
:103280006EC021EDC21627E0D20608F468C085E0C2
:103290008093160182E180931501C60186509F4FED
:1032A000EB89FC898E179F0708F042C083E1809369
:1032B0001501FA81F770BF2E802F806480937C0007
:1032C0002BE02983CC24C394D12CEE24EA94A3E0F0
:1032D000FA2EA89561E08B8153D55AB880B18B2125
:1032E000E9F33D853AB980917A00806480937A0051
:1032F00080917A0086FDFCCF8091780090917900D2
:10330000F701E81BF90BCE0EDF1EF981F150F983AE
:10331000F111DFCFC601880F991F880F991F69E04F
:1033200070E00E94383A709367016093660104CEA2
:10333000E0901001F0901101B6018B899C890E94E8
:1033400020059701DC010E949D3A960150E040E083
:103350000E945F3A3093610120936001AACF5AB86E
:10336000EBB8812F0E94B2045C01802F0E94B6044A
:103370009F838E830E941B057C016A147B0408F0E6
:10338000ABC0B101C5010E9420056C012091100164
:103390003091110150E040E060E871EA83E09CE187
:1033A0000E945F3AD6010E94B23A970150E040E095
:1033B0000E945F3A29013A013A8131B912B84C8131
:1033C0004AB94BB98E890E94B2046C01802F0E94C9
:1033D000B6044C01812F0E94B6047C0180E3C8161C
:1033E00081E1D80608F0E6C199819BB98E890E94D7
:1033F000B20499878887E981EAB98E890E94B2046C
:10340000988B8F871BB881E00E947F04F981FBB9FC
:103410008E890E94B2042F8538892034364008F006
:1034200079C08133914108F475C0C6018A569F4F17
:10343000288539852817390708F06CC086E0809305
:10344000160180914B018F5F80934B01B701C4013E
:103450000E9420059093410180934001B701C6016D
:103460000E94200590934701809346011AB81BB82B
:103470003A8132B981E00E947F0449814AB98E893C
:103480000E94B204853F910528F58C818AB9802F6E
:103490000E94B204813D9340E8F08E890E94B604F8
:1034A0008D3D9240B8F029812AB98E890E94B204DC
:1034B0008D3D924078F049814BB981E00E947F04B4
:1034C0001BB88E890E94B204853F910518F487E0ED
:1034D0008093160181E0F3C04AB82B812BB9812F6C
:1034E0000E94B2045C01802F0E94B6049F838E83E9
:1034F0000E941B057C01C5012A143B0410F48219AB
:103500009309B7010E9420059C01A4E6B0E00E9447
:103510009D3A4BCF8A8181B99B819AB99BB981E051
:103520000E947F04EA85EAB9EBB98E890E94B20451
:103530006C010E941B057C01802F0E94B6049D83B4
:103540008C830E941B0599878887812F0E94B6046F
:103550004C01288539852E3F394008F4C0C084E0ED
:10356000809316018CE080931501B101C7010E9480
:1035700020056C01209117013091180150E040E0C6
:1035800060E871EA83E09CE10E945F3AD6010E9404
:10359000B23AE885F9859F0150E040E00E945F3A29
:1035A00080914B01882371F080913C0190913D0105
:1035B000A0913E01B0913F0182179307A407B50780
:1035C00008F079C020933C0130933D0140933E01C7
:1035D00050933F01B4018C819D810E9420059093FE
:1035E0004101809340019701A0E1B7E20E949D3A1A
:1035F000209117013091180150E040E00E945F3A9D
:10360000309343012093420181E040913C0150916D
:103610003D0160913E0170913F01441555056605DD
:10362000770508F04AC040923C0150923D016092FB
:103630003E0170923F01B5018E819F810E9420055D
:1036400090934101809340019501A0E1B7E20E946F
:103650009D3A209110013091110150E040E00E940C
:103660005F3A205F384D309343012093420191012E
:10367000A0E1B7E20E949D3A209110013091110122
:1036800050E040E00E945F3A3093450120934401AE
:103690002B853C85A0E1B7E20E949D3A209117015D
:1036A0003091180150E040E00E945F3A30934701AA
:1036B000209346010FCF80E0A8CF8111D8CF909101
:1036C0004B019F5F90934B01882309F430C1009315
:1036D00048018E898093490110934A0128C1F1E67F
:1036E0002F16310408F066C029E4E2162DE0F20638
:1036F00008F460C085E08093160182E08093150194
:10370000C40186509F4F8C159D0508F03DC083E095
:10371000809315013F893770D32E802F806480936A
:103720007C004BE04A83EE24E394F12CA89560E002
:103730008B8126D38A858AB98BB980B18D21E9F72F
:1037400099819AB980917A00806480937A008091FF
:103750007A0086FDFCCF8091780090917900E80E88
:10376000F91EEA81E150EA83E111E0CFC701880F39
:10377000991F880F991F69E070E00E94383A709392
:1037800047016093460115CBA0901701B090180136
:10379000B401C6010E9420059501DC010E949D3AFA
:1037A000970150E040E00E945F3A3093410120933E
:1037B0004001B0CF11B812B81AB81BB811B8F7EC65
:1037C0002F16F1E03F0608F4D8C012B82E852AB9AA
:1037D00008ECEA803F89E32AE1B881E00E947F0497
:1037E0004A8141B98E890E94B604429710F0015077
:1037F00099F78E858AB98BB961E08B81C1D28E89A8
:103800000E94B2044C019D899AB91BB8EF89E1B9B5
:10381000E2B960E08B81B4D2812F0E94B2040E9491
:103820001B056C01FD85FAB9812F0E94B6047C014D
:103830008E890E94B204B7010E9420055C01812F8D
:103840000E94B6047C018E890E94B204B7010E94D6
:10385000200595012C5E3F4F2817390708F467C0F3
:1038600012B82A8121B939813AB93BB961E08B811B
:1038700087D2812F0E94B6047C018E890E94B204F7
:10388000B7010E9420057C01A816B90608F05AC0AD
:103890004E854AB94BB98E890E94B204FC0164017D
:1038A00028E4C21626E0D20608F05DC0960153E077
:1038B000369527955A95E1F748EEE41643E0F4066D
:1038C00008F054C0C70164E670E00E94383AC701AE
:1038D000875991098938914108F04FC0EE15FF05CD
:1038E00008F04BC02C0D3D1D2E153F0508F045C0BE
:1038F0006C157D0508F041C080911601833018F4E5
:1039000083E08093160120911401822F90E0FC0146
:10391000E357FE4F3E8930831683880F991FFC01C1
:10392000E756FE4FF182E0822F5F2093140111B819
:1039300012B81AB81BB88EE20E9485076796E2E1BA
:103940000C94633B8D898AB91BB89F8991B992B950
:1039500060E08B8115D2812F0E94B2040E941B056A
:10396000FC0175019DCF28EC30E0A6CFB70144E003
:10397000769567954A95E1F7AACF612F8E8901D098
:10398000D6CFB0E0A0E0E7ECFCE10C94493BC82FB7
:10399000D62FA895862F90E0FC01E251FE4F54905F
:1039A000339624914C2F50E0FA01E251FE4F1491CE
:1039B0003396049160916B0130914B01630F77272F
:1039C000771F672B09F065C0A89560911A01709167
:1039D0001B01660F771F660F771F70932D01609391
:1039E0002C016091700170917101660F771F660F55
:1039F000771F70932B0160932A013EEB30932801CF
:103A000030911401EDE8F1E0DF01480F591F9A2FC2
:103A10009E1B931708F112B821B91AB91BB9B8E166
:103A2000BB2ED12CC12C8D2F0E94B204782E692E72
:103A30008C2F0E94B6047C018C199D0997FF03C04E
:103A400091958195910903970CF46BC1A895BA944F
:103A50006701B110E8CF0AC08D9115966C9115974A
:103A6000680F7727771F6417750789F680911A0109
:103A700090911B0190932D0180932C0180917001F6
:103A80009091710190932B0180932A0189E1809399
:103A90002801CDB7DEB7E0E10C94653B25E8C216FE
:103AA00021E0D20618F7043AA2E01A0708F0B1C0E4
:103AB000B8E9AB16B104D0F2C6010E941B05AC01F7
:103AC0009601A8E9B7EB0E949D3A9A0150E040E0C8
:103AD0000E945F3A29013A01C5010E941B059C0121
:103AE000A8E9B7EB0E949D3A950150E040E00E94A2
:103AF0005F3A88E7C8168FE0D80608F06EC0F2E09B
:103B0000440C551C661C771CFA95D1F7C301B20111
:103B1000620F731F841F951F25E030E040E050E0E6
:103B20000E945F3AA4E6B0E00E94B23A6B017C01C9
:103B3000BCEACB0EBDE0DB1EE11CF11C10911601AE
:103B4000143008F093CFC150DC0F8D2F90E0FC01B2
:103B5000EA5AFE4F2081880F991F880F991F8655BA
:103B60009E4FDC01222309F4C1C08D909D90AD9041
:103B7000BC90A7019601281939094A095B0957FF2A
:103B800007C050954095309521953F4F4F4F5F4F5F
:103B9000AAE0B0E00E94B23AB4E68B0E911CA11CE0
:103BA000B11CC80CD91CEA1CFB1C6C157D058E05CC
:103BB0009F0508F05BCF133019F081E08093160168
:103BC00082E0808380917201E82FF0E0E75AFE4F97
:103BD000D0838F5F8093720149CFA8E7AA16AFE028
:103BE000BA0670F4E2E0220F331F441F551FEA9516
:103BF000D1F7CA01B901640D751D861D971D8CCFC3
:103C0000240D351D461D571D56954795379527950B
:103C100089CFC0901701D0901801672D762DE61638
:103C2000F70608F4B701C7010E9420059601DC01E0
:103C30000E949D3A2B013C01C7010E941B059C017B
:103C400050E040E0C301B2010E945F3A29013A010D
:103C5000A0901001B0901101892D982D8017910727
:103C600008F4C801B8010E9420059501DC010E94FA
:103C70009D3A980150E040E00E945F3A88E7E816DC
:103C80008FE0F806B0F462E0440C551C661C771C0B
:103C90006A95D1F7C301B201620F731F841F951F8C
:103CA00025E030E040E050E00E945F3A69017A018F
:103CB00045CF0837AFE01A0770F4CA01B90152E0E6
:103CC000660F771F881F991F5A95D1F7640D751DD0
:103CD000861D971DE5CF73016201C20ED31EE41E3F
:103CE000F51EF694E794D794C79428CFCD92DD9231
:103CF000ED92FC92139781E08083B8CE550C5AB8B0
:103D00008D2F0E94B2045C01B0ECEB16B4E4FB060C
:103D100008F4C4CE80EBC8168DE4D80608F0A6CE11
:103D2000C2CE110F1BB81AB98C2F0E94B204813574
:103D3000910508F09BCE1BB98C2F0E94B2046C0138
:103D400001B902B91BB85AB8A8E14A2EB12CA12C6E
:103D50008C2F0E94B204982E892E8D2F0E94B604BB
:103D60008C018A199B0997FF03C091958195910950
:103D7000039724F2A8954A9458014110E9CF76CED2
:103D8000CF93C82FC0959BB160FF0FC0982B9BB9F4
:103D90009AB1982B9AB90E947E048AB18C238AB971
:103DA0008BB18C238BB9CF9108959C23F0CFAF9228
:103DB000BF92DF92EF92FF920F931F93CF93DF9307
:103DC0001AE08CEFD82E09E011B812B81BB8DAB897
:103DD00080E00E94B2047C0181E00E94B604EC0104
:103DE00082E00E94B6049C01809116018930C1F4E2
:103DF00011B81AB8F0925101E0925001D0935301DA
:103E0000C09352013093550120935401DF91CF911B
:103E10001F910F91FF90EF90DF90BF90AF900895AA
:103E200084E0E816F10450F4C430D10508F04EC027
:103E300024303105E8F291E092600AC091E088EE0A
:103E4000E81683E0F80608F090E0C83ED340A0F3FF
:103E5000283E334008F4946091B9D0E0C0E0A895C2
:103E600080E00E94AB045C0181E00E94B6047C010A
:103E700082E00E94B60424E1A21625E0B20608F40E
:103E8000089A24E1E21625E0F20608F4099A843142
:103E900025E0920708F40A9A26E0A216B10430F44D
:103EA00026E0E216F10410F4069738F02196C43F9C
:103EB00081E0D807A1F600931601F12CE12CEC1655
:103EC000FD0631F4115009F07FCFA0CF91E0BDCFB6
:103ED0000E946D042FEFE21AF20AF1CFCF92DF9227
:103EE000EF92FF92CF93209177013091780140912A
:103EF000790150917A01C09189018AE0C82ED12CB4
:103F0000E12CF12C8C2FCF5F213A96E8390791E014
:103F100049075105E0F480938901A0912C01B091EB
:103F20002D010E94B23A28E833E140E050E00E94BF
:103F30005F3A209377013093780140937901509351
:103F40007A01CF91FF90EF90DF90CF900895CA0152
:103F5000B901A70196010E945F3AD4CF8F929F9238
:103F6000BF92CF92DF92EF92FF920F931F93CF9366
:103F7000DF93C82FB62E880F8C0F9FEF960F890FF7
:103F800080934D01EC2FF0E0E251FE4FD491862F4B
:103F900090E0FC01E251FE4F1491FC01EF50FE4F06
:103FA000D49080911601909114012DE831E0D9014F
:103FB0008130F9F4DF91CF911F910F91FF90EF9035
:103FC000DF90CF90BF909F908F90089516968C9120
:103FD00016978B110DC08C918C130AC0FD01EE0F4A
:103FE000FF1FED58F140448555854C3D554010F379
:103FF00011968A2F821B891748F310928401109220
:10400000830181EF809389011092770110927801EA
:104010001092790110927A01CADE12B8D1B81AB999
:104020001BB98C2F0E94B6048C018B2D0E94B60404
:104030001AB810924F0110924E014C01801A910A49
:1040400080914E0190914F01843F914028F011B82A
:1040500012B81AB81BB8AECFDBB9DAB90E94670440
:104060001AB81BB80E946E04A8958C2F0E94B60443
:104070007C01E80CF91C80914E0190914F018E3724
:10408000910520F02BE4E216F1040CF38DE2E81622
:1040900081E0F8060CF030C280914E0190914F0102
:1040A000019690934F0180934E01CACF85E1E816A7
:1040B00085E0F8060CF4FBC17ADE1BB887E081B915
:1040C00012B8FD2EFF0CFAB880E480937B0084E5E3
:1040D00080BF8C2F806480937C0086E180937A007F
:1040E0000E94710410924F0110924E0110928000B4
:1040F000109285001092840087E286BB81E2809353
:104100006F0081E080937401FBB8909116019530A7
:1041100009F0D2C18093810081E090E00C2E01C0B3
:10412000880F0A94EAF78095877081B9F89483B76D
:10413000817F83BF80917401882389F083B7816078
:1041400083BF7894889583B78E7F83BFF894A895B2
:1041500080914E0190914F018034964059F77894A8
:1041600010928100E0908600F090870010926F001E
:1041700086E980937A001AB81BB88C2F0E94B60487
:104180002091300130913101821B930B0C9690935A
:104190008C0180938B0180914E0190914F01803270
:1041A000934008F054CF80914E0190914F0190932D
:1041B000820180938101F0928001E0927F0184EF7F
:1041C0008093890180914E0190914F018234910535
:1041D000C8F060917F017091800180918101909180
:1041E000820124E630E040E050E00E945F3A2093F4
:1041F0007F0130938001409381015093820186EFCB
:1042000080938901A0917501B091760120917F0181
:104210003091800140918101509182010E94B23A17
:1042200020E233E040E050E00E945F3A20937F01BB
:104230003093800140938101509382012093770154
:10424000309378014093790150937A0147DE809151
:104250008901843F09F056C0C0907701D090780161
:10426000E0907901F0907A0180EAC8168FE0D806D4
:10427000E104F104C0F4A70196012C543F4F4F4FC5
:104280005F4F60EA7FE080E090E00E945F3AC20EFC
:10429000D31EE41EF51EC0927701D0927801E09201
:1042A0007901F0927A01C0907701D0907801E09086
:1042B0007901F0907A01C114D10421E0E206F10401
:1042C00008F0FEC0D092BB01C092BA0180914D01AE
:1042D00090E08F5D9F4F0E94F73B90E0B0E0A0E040
:1042E0008C159D05AE05BF0508F0F1C0C81AD90AA6
:1042F000EA0AFB0AC0927701D0927801E092790134
:10430000F0927A01DAB98091770190917801A091C9
:104310007901B0917A014997A105B10508F082C0F1
:1043200096CE0E9468048C2F0E94B604880D991DB9
:10433000A8950F5F1F4F20914E0130914F0120171C
:10434000310778F76701C81AD90A1C141D040CF04C
:10435000B0C029ECC216D1040CF079CE28EE33E0BF
:10436000D6010E94AC3A97010F2C000C440B550B60
:104370000E945F3A890180914E0190914F01019610
:10438000B0E0A0E080937F0190938001A093810131
:10439000B0938201C7018C0D9D1D0E947C05209168
:1043A0007F01309180014091810150918201DC01B7
:1043B0000E94B23A60937F017093800180938101E3
:1043C00090938201609377017093780180937901D3
:1043D00090937A0187EF8093890180DDC090770107
:1043E000D0907801E0907901F0907A0184E090E03B
:1043F0000E94F73BA8EEB3E0A81BB10987FDB39577
:10440000A70196010E94BC3A24E630E040E050E06B
:104410000E945F3A209377013093780140937901AD
:1044200050937A0180911401882329F0809116011C
:10443000853009F00CCE88E08093160180918901C7
:1044400090918A019817C4F0891301CEC09077012A
:10445000D0907801E0907901F0907A0140917B0151
:1044600050917C0160917D0170917E014C155D053C
:104470006E057F0508F0EBCD4091770150917801F2
:104480006091790170917A0140937B0150937C0196
:1044900060937D0170937E0180938A011093860161
:1044A00000938501B0928701C0938801D0CDC701E8
:1044B00042CF10E000E05FCF80938100D1B836CECC
:1044C00081E090E09093BB018093BA01FFCE24E19C
:1044D000C20ED11CE11CF11CC816D906EA06FB0667
:1044E00010F40E94F10E1092770110927801109250
:1044F000790110927A0106CF00914E0110914F017F
:104500000115110509F4D2CDC70110E000E013CF69
:104510001F921FB61F9211248F939F93B59904C0C9
:1045200080917401811109C0B59B10C080918600F3
:10453000909187008A3F910548F480914E019091B7
:104540004F01019690934F0180934E019F918F915F
:104550001F901FBE1F9018951F921FB61F92112407
:104560008F939F9310927401B09B10C0809186002E
:10457000909187008A3F910548F480914E01909177
:104580004F01019690934F0180934E019F918F911F
:104590001F901FBE1F901895B0E0A0E0E2EDF2E280
:1045A0000C944D3B88E893E190931B0180931A0192
:1045B00090932D0180932C018EEB8093280112B8EB
:1045C00080E181B90E94760411B884E00E94B204AF
:1045D000AC018B5C9840833F9140A0F481E08093D4
:1045E000370120912C0130912D01AFEBB9E00E94F1
:1045F0009D3A9A0150E040E00E945F3A30931B01DF
:1046000020931A0180911A0190911B0190932D0122
:1046100080932C018EE10E94B6048EE10E94B204C8
:1046200090933101809330010E942905C0DB12B8BC
:10463000FF24F394F1B884E58BB9D4E0DAB980E0D3
:104640000E94B2048C01C2E0C1B980E1C82ECAB890
:1046500081E00E94B204080F191FD1B990E4D92E4D
:10466000DAB882E00E94B204080F191F1BB8F2B832
:10467000F1B8DAB980E00E94B2040E941B057C0107
:10468000C2B9C1B9CAB881E00E94B2040E941B0538
:10469000E80EF91ED2B9D1B9DAB882E00E94B204AC
:1046A0000E941B05E701C80FD91F11B812B81AB82C
:1046B00080912C0190912D016C01CC0CDD1CC80E59
:1046C000D91EC8018C0F9D1FC81AD90AF12CE12CE4
:1046D0009801A0E9BAE10E949D3AA70196010E94C3
:1046E0005F3A49015A0130933601209335019E010A
:1046F000A0E9BAE10E949D3AA70196010E945F3AA3
:1047000030932F0120932E012057354E30931801FE
:104710002093170180E7881A85EE980A909211017C
:104720008092100189E180932801CDB7DEB7ECE0DB
:104730000C94693BCF92DF92EF92FF920F93CF934D
:10474000DF93F82EC62FD42F0E94B7078CEB92E090
:104750000E941008FFD16C2F8F2D0E945438C090FA
:10476000BE01D090BF01E090C001F090C1018091E6
:104770001C0187FD05C0C114D104E104F10421F03E
:1047800088EB92E00E9410088C2F0E94B707C1149A
:10479000D104E104F10431F00E948B0380915901AE
:1047A0000E94C203DD2309F459C080913801813190
:1047B00008F054C08650990B855A994F0E941008F2
:1047C00080E00E948C08CD28CE28CF2809F449C06B
:1047D0006091BE017091BF018091C0019091C101B3
:1047E00003E028E447EF0E94C8088BEC92E00E94A7
:1047F00010088BE290E00E94FF3B23E046E464EF68
:104800000E94AC098091B6019091B701A091B801C6
:10481000B091B901892B8A2B8B2BF1F180E00E949A
:104820008C086091B6017091B7018091B8019091A8
:10483000B90104E028E440E00E94C80886EC92E058
:104840000E94100823E040E26FEF8091BC0190913C
:10485000BD010E94AC090E946C0825C00E946C0832
:10486000AFCF809159010E94C20380911C018E3FFD
:104870004CF68EED93E00E9410086091A5017091B6
:10488000A6018091A7019091A80103E028E440913E
:104890001C010E94C808B6CF80E00E947208809177
:1048A0003B018823C1F2DF91CF910F91FF90EF90F0
:1048B000DF90CF900895EF92FF920F931F93CF93C5
:1048C000DF93182F0E94DD07809187010E94B707B0
:1048D0008AEF93E00E94100879D36091870180915C
:1048E00088010E94CF05EC0190938401809383019D
:1048F000E0908501F0908601CA3F8FEFD80720F441
:104900008DEB92E00E941008809188010E94B70709
:10491000112309F445C09091380181E1891B0E945F
:10492000730789E292E00E9410080E94EA076091F2
:104930007B0170917C0180917D0190917E0104E06A
:1049400026E440918A010E94C808CA3FDF4F68F4FC
:1049500089EE93E00E94100822E044EF6EEF809110
:104960008301909184010E94AC090E946C080E940E
:10497000F307E114F10469F082EE93E00E9410085D
:1049800022E045E26FEF80918501909186010E94BF
:10499000AC090E946C08CDB7DEB7E6E00C946F3B23
:1049A0000E946C08C2CF8F7021F40E94FC070C9407
:1049B000301508958F3021F490913201913011F02B
:1049C0008F5F089580E00895CF9384E392E0E4D769
:1049D0006AE080E00E94BF078FE596E00E94100821
:1049E000C0E00E94E10A60E082E00E94C11C62E037
:1049F00080E00E94C11C0E94DD0780917201882323
:104A0000C9F041E062E080E095DE8C2FCCDF88EEDB
:104A100093E00E942A0A811109C080910F0184301D
:104A200028F48C2FC7DFC82F8A3FD8F20E94E507F1
:104A3000CF91089584E392E00E9410088FE596E0FC
:104A40000E9410080E94EA078FE30E94850780E019
:104A50000E9472080E946C08D8CF0F931F93CF93C7
:104A6000DF93C0E0D8E012EF01E10E94E10A60E0CC
:104A700082E074DAD093160180918901843FE1F4D9
:104A80008091770190917801A0917901B0917A019C
:104A900084369105A105B10578F440E060E082E03C
:104AA0000E94EF35609377017093780180937901CC
:104AB00090937A011093890180918901823F6CF172
:104AC00080938A018091770190917801A09179017A
:104AD000B0917A0180937B0190937C01A0937D013A
:104AE000B0937E0181E0E7DE8C2F5DDF88EE93E0FE
:104AF0000E942A0A81110AC080910F01843030F48B
:104B00008C2F58DFC82F8A3F08F4AFCF0E94E507EB
:104B1000DF91CF911F910F9108950E94DD078DE2E3
:104B200092E00E94100880913801902F981B892FE5
:104B30000E94730789E292E00E9410080E94EA072F
:104B40008FE30E9485070E946C080E94F3070E9471
:104B50006C08CACFA6E1B0E0E0EBF5E20C94473B6D
:104B600082E080931C0180911601813009F0D8C148
:104B700080917201813009F0D3C14090590124E045
:104B8000429EF0011124E655FE4F80819181A28161
:104B9000B381893032E59307A105B10508F0C0C1A2
:104BA0001C01712C81E0871508F4BEC1842D0E9480
:104BB000B803982E892EE92FF0E0EF50FE4F549065
:104BC00090E0FC01E251FE4FE4911BB812B8272D92
:104BD0002170622E30EF2316310408F0ACC1211190
:104BE000AAC1009110011091110100591A4121E050
:104BF00030E002C0220F331F8A95E2F7C9018529F0
:104C000081B934E1398B892D0E94AF045C01882D74
:104C10000E94B60424E0A216B10410F4049728F010
:104C200039893150398B3111EECF80E480937B008C
:104C300094E590BF892D806480937C0026E12093C9
:104C40007A00F12CE12C10928000109285001092D5
:104C5000840037E236BB0E947104872D90E09A8B66
:104C6000898B61106FC181E88093810052B886B34F
:104C700085FF71C112B81092810020E226BB2091FD
:104C80008600309187006901409184005091850031
:104C90002417350708F46DC186E980937A00B4E1E2
:104CA0005B2E892D0E94AF045C01882D0E94B60402
:104CB00024E0A216B10410F4049718F05A9451108D
:104CC000F0CF8090350190903601820C931C800EBD
:104CD000911E209112013091130100398AE11807C9
:104CE00008F04FC169E191EEC916D104E104F10465
:104CF00030F4C60165E070E00E94383A64512852F1
:104D00003109261B310967FD339566E0862F90E057
:104D1000B0E0A0E08C159D05AE05BF0508F03AC1D6
:104D2000C81AD90AEA0AFB0A662029F082E2C80EEC
:104D3000D11CE11CF11C90E5E916F10418F0C12C1E
:104D4000D12C76018BE0C816D104E104F10428F0DF
:104D500091E0C91AD108E108F108B12CA12CA8EE04
:104D6000B3E00E949D3A6B8B7C8B8D8B9E8BA091C8
:104D70002C01B0912D0198010E949D3AA50194014A
:104D80000E945F3A442755276B897C898D899E89CB
:104D90000E945F3AC9010E94AB05FC01A501940184
:104DA000C701B6010E941D3A4B015C01BF0190E0B2
:104DB00080E0E3E0660F771F881F991FEA95D1F71F
:104DC0006B5F7F4F8F4F9F4F2AE030E040E050E015
:104DD0000E945F3AC501B4010E945F3AE989FA89ED
:104DE000EE0FFF1FEE0FFF1F81E090E08C0F9D1F65
:104DF000E80FF91F2083318342835383611018C069
:104E00009CE0C916D104E104F10490F07394E9899F
:104E1000FA893196EE0FFF1FEE0FFF1F81E090E041
:104E20008C0F9D1FE80FF91F20833183428353832A
:104E3000A895739493E0971508F0B4CE12B884E067
:104E40000E947F0491E00D811E812F813885498168
:104E50005A816B817C81401751076207730708F004
:104E600090E00D851E852F85388949855A856B858B
:104E70007C8583E0401751076207730708F082E0E2
:104E800024E0829FD001112421E030E02C0F3D1F4F
:104E9000A20FB31FE92FF0E0EE0FFF1FEE0FFF1F71
:104EA000E20FF31F0D911D912D913C914081518195
:104EB00062817381041715072607370708F0892FC9
:104EC00034E0839FF001112421E030E02C0F3D1FDE
:104ED000E20FF31F40815181628173814093A501EC
:104EE0005093A6016093A7017093A80180FD56C05E
:104EF00030EF2316310408F051C08BEF80931C0172
:104F00008091A5019091A601A091A701B091A8015F
:104F1000892B8A2B8B2B11F410921C0111B81AB813
:104F20006696E2E10C94633B842D0E94B8039827B7
:104F3000892798273ECEEAB951B800911001109107
:104F400011015FCE52B80E947A0490E296BB81E8CC
:104F5000809381008CCE80FF8ACE31E036BBA8954D
:104F600097012F5F3F4F79012035310509F07FCE42
:104F700081CE80FF91CE81E086BB9FEFE91AF90ACE
:104F80008BCEC40160EB76E30E94383A695F285DFE
:104F90003F4FBCCEC12CD12C7601C6CE8CEF809376
:104FA0001C01CB01BA016B5F7F4F8F4F9F4F2AE0EF
:104FB00030E040E050E00E945F3A2093A50130933A
:104FC000A6014093A7015093A8019ACFB0E0A0E0BA
:104FD000ECEEF7E20C94493B0091850110918601BB
:104FE0000115110509F08FC0E0918701F0E0EF5045
:104FF000FE4FD491E0918801F0E0E251FE4FC49160
:105000000E94D71E12B81BB8D1B9CAB980918801C5
:105010000E94B6047C01D0918A018CE08D0F84300F
:1050200008F071C080917B0190917C01A0917D017D
:10503000B0917E01D15F2C013D0125E0420E511C53
:10504000611C711CC301B2012AE030E040E050E075
:105050000E945F3A49015A01DA01C901DF5FD73086
:1050600051F72AE5421623EC52066104710408F058
:105070004AC0059708F447C0CBB9CAB9D0E0C0E030
:10508000C815D90508F444C01AB81BB8A89585E01E
:1050900080932801809188010E94B604EC01CE190A
:1050A000DF09E816F90610F0D0E0C0E0D12CC12CE1
:1050B000C814D90488F1809188010E94B60429E1BE
:1050C00020932801A895E816F90618F48C010E190A
:1050D0001F090C171D0788F49E01201B310B69F076
:1050E000A4EFB1E00E949D3A9E0150E040E00E9492
:1050F0005F3A30938601209385010E94D71E11B834
:1051000012B81AB81BB8CDB7DEB7E0E10C94653B16
:105110000E9478042296B4CF0E9478048FEFC81AB8
:10512000D80AC6CF803108F08051811109C08CEEB9
:1051300094E00E9410080E946C080C94D80708950F
:10514000813019F482E794E0F4CF823019F481E6DB
:1051500094E0EFCF8A3019F487E594E0EACF8B3002
:1051600019F48DE494E0E5CF833019F483EC94E0F6
:10517000E0CF843019F488EB94E0DBCF853019F46C
:105180008FE392E0D6CF863019F484E392E0D1CF5A
:10519000873019F48DE292E0CCCF893019F489EA96
:1051A00094E0C7CF883019F489E994E0C2CF8D30FC
:1051B00019F48AE894E0BDCF8C3019F484EE94E0C1
:1051C000B8CF8E3019F48AED94E0B3CF8F3009F068
:1051D000B2CF8FEC94E0ADCF0F93CF938FE392E0FB
:1051E000DBD3C0E01092160160E082E071D68091BE
:1051F0001601883009F04FC00E94EA0783E40E943C
:1052000085070E948F0360917B0170917C018091E2
:105210007D0190917E0103E026E440918A010E9485
:10522000C8080E946C0860918701809188010E94E3
:10523000CF0590938401809383010E94F3078AEE47
:1052400093E00E94100880918301909184018A3F2D
:105250002FEF9207E0F422E044EF6EEF0E94AC09DA
:105260000E946C088C2F9FDB88EE93E00E942A0A34
:1052700081110AC080910F018B3030F48C2F9ADBA2
:10528000C82F8A3F08F4AECFCF910F9108958FE3D6
:105290000E948507E5CF0E9498080E94F307E0CF9F
:1052A0001F93CF93DF9384EE94E076D3D0E0C0E0F9
:1052B0001AE00E94EA070E94D8070E94D80784EDEE
:1052C00093E00E94100883E00E94B20463E09C0116
:1052D000129FC001139F900D11240E94B7090E94D4
:1052E0006C088D2F60DB88EE93E00E942A0A909173
:1052F0000F01292F282BA1F09B3050F48F3560F03F
:10530000CF5FC53028F480E055DBD82F803F88F28E
:10531000DF91CF911F9108958111F3CFC0E0F4CFB9
:105320008D2FFCCFA5E0B0E0E8E9F9E20C94473B13
:1053300083EC94E031D380E18093800010926F0081
:1053400081E090E0909389008093880010928B0018
:1053500010928A0083E086BB1092820088E08093DE
:1053600081001BB884E58AB912B881E081B9229A1C
:1053700089E080938100312C20E03AE0398341E0DC
:105380004D83812C912C5401839451E15C83832DB6
:1053900090E00A966EE170E00E944C3A6B83F62E24
:1053A000621759F00E94DD0783EC94E00E94100818
:1053B00010E01F11D8C00E946C088D8169810E9485
:1053C0002C3AA92FB0E0A50194010E94B23A6B01DA
:1053D0007C018C81823150F0652D762D872D902FA8
:1053E0000E945F3AC60ED71EE81EF91E0E94EA0709
:1053F0009D812981212C921306C081E03C813231AC
:1054000008F480E0282E2A828CE3211005C04C810C
:1054100082E5463108F48EE30E9485070E948B03E3
:105420004C81C701B6010E94C109C701B6017E5E69
:1054300085489F4FA7019601220F331F441F551F18
:105440000E945F3ACA014F3F510509F008F490C02D
:105450008DE08093810080E094E02C01712C612C20
:10546000CA01B901A30192010E945F3A215031099A
:105470003093890020938800809188009091890062
:10548000892B31F481E090E090938900809388002B
:105490000E946C080E94F30786E60E9485070E941E
:1054A0008B03009188001091890060E079E08DE322
:1054B00090E0A30192010E945F3AA4E6B0E00E944E
:1054C000B23A0F5F1F4F980150E040E00E945F3AF0
:1054D00029013A01A4E6B0E0A70196010E94B23A80
:1054E000A3019201261B370B480B590BCA01B901C6
:1054F00005E228E44EEF0E94C8088AE70E9485076B
:105500000E946C0880ED97E00E942A0A282F8111E2
:105510004FC080910F01811101C0232D80910F0197
:105520008B30B0F480910E0187FD86C03D81830FE2
:1055300090E03981632F70E06F5F7F4F0E944C3A9B
:105540008D83822F37DA382E4FEE481708F055C07A
:10555000109281001092800011B81AB822982596F6
:10556000E2E10C94633B8EE20E9485071F5F21CF2E
:105570004034510530F08CE08093810080E091E070
:105580006CCF4830510530F08BE08093810080E48F
:1055900090E063CF892B31F08AE08093810088E02E
:1055A00090E05BCF89E08093810081E090E055CF6F
:1055B000883C70F68135C8F1222029F13C813150B8
:1055C0003C83C501B4012AE030E040E050E00E9495
:1055D0005F3A49015A01C701B6010E945F3ACA0108
:1055E000B9012AE030E040E050E00E945F3A6A836F
:1055F0004AE049832A812D83312C2B815C2C6D2C30
:105600007E2C0F2DC4CE5C815631E0F45F5F5C834D
:10561000563111F485E18983AAE0B0E0A501940137
:105620000E94B23A4B015C01E5CF8B3018F09D81AE
:105630009F5F9D8320E072CF8F5F4981840F5D81E2
:10564000850F76CF5AE0598381E08A83812C912C93
:105650005401839491E19C83CDCFB0E0A0E0E3E3DB
:10566000FBE20C94493B88EB94E096D183E2809373
:10567000800010926F008FEF90E090938B008093EA
:105680008A0083E086BB109282001BB884E58AB949
:1056900012B881E081B9229A81E090E0909389006C
:1056A0008093880089E08093810010E080E0D2E35D
:1056B00000E094E6C92ED12CE12CF12C88248A94A8
:1056C00023E0922EA12CB12CD817A1F1D43608F0EA
:1056D000D4562D2F30E0AFEFB3E00E949D3A6E5CC0
:1056E0007F4F8F4F9F4FA70196010E945F3A29017C
:1056F0003A0130938B0020938A000E94EA07A8EEBB
:10570000B3E0A30192010E94B23A61507E4F8F4FE5
:105710009F4FA50194010E945F3AC90125E045E22F
:105720006FEF0E94AC090E946C08093218F08CE3FC
:105730000E947F0480E496E00E942A0A082F8338A2
:1057400098F480910F018B3078F4C0910E01C7FD61
:1057500019C0CD0F0333C0F0C65F10E0812F2AD9E6
:10576000182F8D2F103F60F011B810928100109209
:1057700080001AB82298CDB7DEB7E0E10C94653B03
:10578000DC2FA2CFCC59E5CF002311F0CF5FE5CFBE
:105790008111E3CFE3CF0F931F93CF93DF9389E979
:1057A00094E0FAD084E090E00E94F73BC82FD0E06C
:1057B0000E94EA070C2F0C2E000C110BC7FF31C002
:1057C0000E948D0323E045E26FEF88279927801B15
:1057D000910B0E94AC090E946C0880E496E00E9444
:1057E0002A0A811123C090910F01911121C090913B
:1057F0000E01C90F882319F0893200F1CF5FC1353E
:10580000FCF0C5568D2FD6D8D82F803F88F26C2F4C
:1058100084E090E00E94043CDF91CF911F910F91B2
:10582000089523E045E26FEFC801D3CF823878F7BF
:1058300090910F019B3058F7D0E0D9CFC150DFCF06
:10584000CC3E04F7CB59DECF813019F480E0B8C0EC
:105850000895823011F481E0FACF8A3011F485E0A6
:10586000F6CF8B3011F486E0F2CF833011F45ACDAD
:105870000895843011F4F1CE0895853011F4ACCC44
:105880000895863011F4A0C80895873021F40E944D
:10589000E507E3C80895893011F455C408958830A8
:1058A00011F479CF08958D3021F481E10C945D0BD2
:1058B00008958C3011F4F4CC08958E3011F4A7C7FC
:1058C00008958F3011F40C94040B0895FF920F93F8
:1058D0001F93CF93DF9387EF94E05ED0D0E0C0E0DA
:1058E0001FE01C0F00E0FF24F394F00E60E08F2D0A
:1058F0000E94BF07013009F048C08EE30E9485076F
:1059000080EF810F103108F4812F0CDC1F5F0F2D09
:10591000033049F780E49FE10E942A0A8111D0E018
:1059200090913201913009F4D0E0823330F49091BB
:105930007301992371F0882361F0CC23D9F08C2F67
:1059400083DF10920F0110920E0187EF94E024D0B4
:1059500080E090910F019A3068F490910E019923A4
:1059600019F097FD15C0D0E0C90F8111CF5FDF5F3F
:10597000D03A31F480E0CDB7DEB7E5E00C94703B6F
:10598000C03108F4ADCFC051ABCF0E948B03B8CF6C
:10599000905FC90FD0E0E9CFCF93DF93EC010E9475
:1059A000E507CE010E941008C4E60E947E043799E4
:1059B00002C0C150D1F70E94EA07DF91CF9108954C
:1059C000ACE0B0E0E6EEFCE20C94473B389A282FBE
:1059D00021702A8780FD0CC0409897B1966097B9D6
:1059E00041984298811106C082E794E0D5DF0CC04F
:1059F000409AF3CF813019F481E694E0F7CF8430F8
:105A000008F064C1419A429860EF6F8320980E9429
:105A10006D0414BC16BC1092030110920401109284
:105A200005011092060181E085BB80936E00109203
:105A30008000A3E1BAE7B0938B00A0938A00E1E075
:105A4000F0E0F0938900E0938800109285001092B6
:105A5000840083B5816083BDF6E0F6BBF0936F00F0
:105A6000789424E02093810062E369831A820E9483
:105A70006604A895379902C081E08A8385B588239A
:105A800029F09981915099839111F1CF15BC86B578
:105A9000809303018091030190910401A09105017D
:105AA000B09106018B839C83AD83BE830E94F30774
:105AB0000E946C080E94FC070E946C080E949808D3
:105AC00086E60E9485070E948F0360910301709112
:105AD00004018091050190910601409903C147E0BE
