:100000002FC600003FC600003DC600003BC60000F2
:1000100039C600000C94783035C600000C94BF0E31
:1000200031C600002FC600000C948C260C9467305B
:100030000C946C300C94682625C6000023C6000082
:100040000C9446301FC600001DC600001BC60000F1
:1000500019C600000C94C00E15C6000013C600009F
:1000600011C600000FC60000E62FF72F903009F4EC
:100070009395E5B8C4B8B6EFB0937A00A5E0A09325
:100080007B00A8E0A093810010928000AFEFA093C6
:100090008500A0938400A6E0A093360010928B0008
:1000A00010928A00B3E0AFE3A91B51E0392F33303F
:1000B0002AF0A05CBC4F53953350F9CFB093890020
:1000C000A0938800A0917A00A4FFFCCFB6EBB09378
:1000D0007A00A2E0A0936F00A9E0A093810062E003
:1000E000A0E0A0937B00A1E0A09353008895E5B821
:1000F000C4B884FF1AC0A8E10000AA95F1F7EF93F5
:10010000FF93E7B1F8B1A4E0C2FCA2E0C0FCA1E01B
:10011000BF2FBA2BAE2BB8B904B9A7B9E7B9F8B954
:10012000FF91EF910BC00C947300ACE10000000054
:10013000AA95F1F725B9E5B8000004B9A0918400AB
:10014000A0918500B0918900A395AB1760F7A091AD
:100150007A00A4FFF3CFB6EBB0937A006A9571F7FB
:100160006091780070917900308186FD630F619312
:10017000308186FD731F80FF7193652F4A9579F753
:1001800010926F0010928100B6E0B0937A0008954B
:10019000C401BD01B60118000720080808F80000D6
:1001A000002060A03FA06020020202FF02020210B5
:1001B00010101F000000050842818989760508C2D9
:1001C000A19189860508000402FF0010100508F8B7
:1001D00078385888091003081C3E7F0D080710FF67
:1001E000818181F1E1C1FF4040404743410D080159
:1001F00010FFFF11080310F1E1C14743410E000851
:10020000202121122060E0E0E0FEFE040201000156
:10021000037F7F21C2C4C4C040948400070301024D
:10022000040E080210FEFE7F7F0000000011000592
:10023000202060E0E0E00201000103C2C4C4C0402D
:100240000703010204010410090A0C4E6F742063B5
:10025000616C696272617465642120466F72FF632C
:10026000616C6962726174696F6E20636C616D703C
:10027000207468652033FF70696E7320746F676542
:100280007468657220616E64207374617274207783
:1002900069746820746865FF6B65792E2041636B13
:1002A0006E6F776C65646765207468652073656C34
:1002B000662D74657374207769746820746865208E
:1002C0006B65792077697468696EFF32732E2044FC
:1002D0006973636F6E6E6563742070696E732061FD
:1002E0006674657220746865FF6D65737361676518
:1002F000202269736F6C617465FF50726F626521B3
:10030000222069732073686F776E2E20536F667496
:100310007761726520616E6420646F63756D656ED0
:10032000746174696F6E20697320617420676974E9
:100330006875622E636F6D2FFE6B756269343800CD
:10034000B903870358032E030703E402C302A40280
:1003500088020000140029003E005300690080005C
:100360009700AE00C600DF00F80012012D01490120
:1003700065018201A001BE01DE01FF0121024402EC
:1003800068028E02B502DE0209033503640394039A
:10039000C803FE0337047304B404F904430593054A
:1003A000EA054906B3062907AE074808FF08DE0933
:1003B000FD0A930C480F991B00000000000000008C
:1003C00000000000000000001E2121211200807F9B
:1003D0000000007E4A4A4A34000000000000FC4051
:1003E00020100804020100000001010101010101C7
:1003F0000101010101017F0488D0E0F0F800000054
:10040000000000000000000000000000000000FCF0
:1004100094948400000102FC000000000000000031
:10042000000000001E21212112E0C0804020100F9A
:10043000000000C020202040000000FC00009E9E24
:1004400004030303030200000020202324252523A6
:100450002020203F00007B7B2142840480C00000DC
:10046000000000000000000000000000FC949484E4
:1004700000040607070708F0000000000000000065
:100480000000000000803F2121120C00000000FF4E
:10049000000000F0084848C80000FE0000E7818125
:1004A00081C1E1F1818181010020202021212120D1
:1004B00020203F0000F340404041434740407FC080
:1004C0000000000000000000000000000000489450
:1004D00094946400000000FF000000000000000091
:1004E00000000000000000003F2121120C0000FF6E
:1004F000000000F0084848D0000000000000FEFEA8
:10050000040404040404040700080808090909088D
:10051000087F3E1C08087F7F20202020202020E02C
:1005200000000000000000000000000000000000CB
:1005300048949494640000FF000000000000000054
:10054000000000FF003C0A090A3C0022312929264C
:10055000000082868E9EBEFEFEBEDEEFF6FAFEFE36
:10056000FAF2E2C28200000008080804027984A4BA
:10057000A46800FF00000000000000000000000070
:100580000000000000000000000000FF0000F02854
:100590002428F0001008FC0000000000000000000B
:1005A0000000003C0A090A3C00FF000000000000B7
:1005B000000000000000000000000000040C1C3CD3
:1005C0007CFF7C3C1C0C040000000000009EA1A9E4
:1005D000A99A804323130B0703FF030303030303B9
:1005E00000000000000000000000007884848448BF
:1005F00000FF000000000000000000F00804E2110D
:100600000909090909090909091121C2040810E0A9
:1006100000000001020404070000000000804020E8
:1006200010884423100804030000000000000000AC
:10063000000000FE0100FC020100000000000000BC
:100640000000000000000000000000794949790026
:10065000000000000000000000F80402225488049A
:100660000300020201007884020202847806040773
:100670000007040600FC00000080FC0007010101E7
:10068000000100000C12120C00000000000000002D
:100690000000000000000000000000000000003C1E
:1006A000FE3C0000000000060000000000160E00E6
:1006B000160E00000000000000000010FC1010FCEE
:1006C0001000010701010701001824FE4488000002
:1006D00003040F0403000C12924C201008020100C6
:1006E0000609090688542254880080010204040285
:1006F000010200160E0000000000000000000000D3
:100700000000F008040200000001020408000000DC
:10071000020408F000000008040201004850E0FC58
:10072000E0504802010007000102404040F840400C
:1007300000000000030000000000000000000000B6
:100740000B050000000040404040404040000000D9
:10075000000000000000000000000000060600008D
:100760000000000000C0300C03000C03000000007B
:10077000F8844222120CF801020404040201000869
:100780000402FE000000000000070000188442423E
:10079000422418070404040404040C020222225414
:1007A00088030404040402016050484442FE4000EF
:1007B0000000000007003E2212121222C2010204B1
:1007C00004040201F82412121222C40102040404D7
:1007D00002010202824222120E0007000000000005
:1007E000885422222254880102040404020138445D
:1007F00082828244F80204040404020100181800F2
:1008000000000000060600000000001818000000AC
:1008100000000B07000000000040A01008040200C8
:1008200000000102040800202020202020000101F7
:10083000010101010002040810A0400008040201A7
:100840000000180402824224180000000D0000007D
:10085000FC0262929292FC03040404040400F088F7
:1008600084828488F007000000000007FE22222214
:100870002222DC07040404040403FC020202020234
:100880000C03040404040403FE0202020202FC0737
:10089000040404040403FE22222222220207040488
:1008A00004040404FE2222222202020700000000A7
:1008B0000000FC0202024242CC03040404040207CA
:1008C000FE2020202020FE0700000000000700007E
:1008D00002FE020000000004070400000000000007
:1008E00000FE0000020404040300FE2050880402FD
:1008F0000007000000010204FE00000000000007E5
:10090000040404040404FE0408100804FE070000A4
:1009100000000007FE0618608000FE0700000001CE
:100920000607FC0202020202FC030404040404039E
:10093000FE42424242423C07000000000000FC022E
:1009400002020202FC03040404050205FE4242C244
:1009500042423C070000000102040C122222224203
:100960008C03040404040403020202FE02020200D7
:10097000000007000000FE0000000000FE03040469
:10098000040404030E70800080700E000003040352
:1009900000007E8000E000807E000007000700006D
:1009A000020C9060900C02040300000003041E205F
:1009B000408040201E00000007000000028242220A
:1009C000120A060704040404040400FE02020000E4
:1009D0000000070404000000081020408000000010
:1009E0000000000001020000000202FE0000000002
:1009F00004040700100804020408100000000000AE
:100A000000000000000000000004040404040404CA
:100A10000000000E160000000000000000008048EA
:100A200048484848F003040404040207FE2010105C
:100A30001010E007040404040403F0080808080880
:100A40001003040404040402E01010101020FE033C
:100A5000040404040407F088888888887003040468
:100A6000040404040020FC22220204000007000009
:100A70000000708888888888F00004040404040357
:100A8000FE4020101010E0070000000000070000EA
:100A900008FA00000000000007000000000000004D
:100AA000FA000002040404030000FE4040A0100805
:100AB0000007000000010204000002FE0000000028
:100AC000000003040000F81008F00808F007000018
:100AD00007000007F82010080808F00700000000D1
:100AE0000007F00808080808F003040404040403DD
:100AF000F89008080808F007000101010100F0085B
:100B000008080890F800010101010007F82010080A
:100B10000808300700000000000030484888888836
:100B200010020404040404030010FE10100000006E
:100B3000000304040402F80000000000F8030404A9
:100B4000040402071860800080601800000106019C
:100B50000000F80000C00000F801020403040201D4
:100B6000081020C02010080402010001020478804F
:100B700080808040F80204040404040308088848C4
:100B80002818080205040404040440A01C02020002
:100B90000000000708080000000000FF000000003F
:100BA00000000F000000000002021CA0400000082E
:100BB000080700000402010204080400000000000D
:100BC0000000E01008040408100101010101010106
:100BD00040F010101010F04000010101010101006F
:100BE00040FCF8F0E040FC40000703010000070073
:100BF00040FC40E0F0F8FC40000700000103070063
:100C000040FCFC0000FCFC40000707000007070058
:100C1000F808080808080808030202020202020293
:100C200008080808080808F8020202020202020383
:100C300040404040404040400000000000000000B4
:100C400040C000C020C000C0000102020102020238
:100C500020C000C020C000C0010202020102020147
:100C600011241FBECFEFD8E0DEBFCDBF21E0A0E052
:100C7000B1E001C01D92AE3BB207E1F70E943C1308
:100C80000C94D838BDC95D98559A80FD599A80FF5B
:100C90005998519A539A5A9867FD5B9A67FF5B98E7
:100CA0005A9A5A9866FD5B9A66FF5B985A9A5A98C8
:100CB00065FD5B9A65FF5B985A9A5A9864FD5B9A4A
:100CC00064FF5B985A9A5A9863FD5B9A63FF5B983E
:100CD0005A9A5A9862FD5B9A62FF5B985A9A5A98A0
:100CE00061FD5B9A61FF5B985A9A5A9860FD5B9A26
:100CF00060FF5B985A9A5D9A5A985B98089597FF9F
:100D000009C08F939F938DE2C8D59F918F91909545
:100D100081959F4F6BE171E04AE050E00E94773887
:100D20002FC6EDDF01C0EBDF80E2B7C58DE2B5C5B0
:100D30008DE3B3C5EF92FF920F931F93182F062FE9
:100D4000F42E82E691E027D6EE24E0913601F09170
:100D500037018685E81611F4812F09C08485E816CD
:100D600011F4802F04C08585E81611F48F2D95D5D8
:100D7000E3948E2D833049F71F910F91FF90EF90F0
:100D80000895EF92FF920F931F93182F062FF42EC2
:100D900080E0AFD488E691E0FED5EE248E2DEDD52F
:100DA000C7DFE0913601F09137018685E81611F42E
:100DB000812F09C08485E81611F4802F04C0858531
:100DC000E81611F48F2D69D5AFDFE3948E2D8330B3
:100DD00029F71F910F91FF90EF900895682F80E001
:100DE00092E0662309F491E0623009F481E008950D
:100DF0000F93082FE6EAF1E0880F880FE80FF11D46
:100E000060817181828193816436710581059105CC
:100E100068F42091190127FD09C0802FDFDF692FB9
:100E200003D26EEF23E04DE1DBD604C04FEF04E0C8
:100E30002DE1F6D579DF0F910895863058F4E5E974
:100E4000F1E0E80FF11DE80FF11D8081918163E071
:100E5000D2D66ACF08951F93182F80916F018823EF
:100E600019F062DF80E019D50BD489E591E093D5C4
:100E7000812F82958F70E1DF812F8F70DEDF1F91D0
:100E800008958091060182958F7018D08091060197
:100E900083701AD080910601DECFE9E8F1E0E80F17
:100EA000F11D0895CF93F9DF9081C681C91710F421
:100EB00005D001C012D038DFCF910895EEDF8F93B7
:100EC00080815BD58F9100C08F9387E291E063D5DD
:100ED0008F91E3DF868151C50895DFDF8F9386818F
:100EE0004CD58F9100C08F9383E291E054D58F91C0
:100EF000D4DF808142C508958F932F932AE0809597
:100F00003B9A089410F4439802C0439A000020D002
:100F100027D086952A95B1F72F918F91089503D008
:100F200002D001D000D000D003D002D001D000D038
:100F300000D003D002D001D000D000D0A89503D0BB
:100F400002D001D000D000D003D002D001D000D018
:100F500000D003D002D001D000D000D003D002D006
:100F600001D000D00000089582E090E0893C28F094
:100F7000885C48EC849FC0011124009709F408950F
:100F800040918100477019F0D9DF0197F6CF813089
:100F9000910519F002975EE303C057E180E090E00D
:100FA0004091B200450F4093B30042E0409370007F
:100FB00047E043BF889546E043BF10927000A89574
:100FC000DCCF8F9384E0D1DF06C08F93CDDF03C0E9
:100FD0008F9381E0CADF8F911F93182F10641093B5
:100FE0007C00E12FE07880912601E81759F0E0932A
:100FF0002601AEDF8EE980937A0083E083BF889577
:1010000082E083BF20E030E0A901E0E01FC08EE96C
:1010100080937A0083E083BF889582E083BF6091EC
:10102000780070917900260F371F411D511DE43063
:1010300061F480912801803041F084E0203038074D
:1010400020F417FD02C01068CACFEF5F8091250120
:10105000E817E8F26091290170912A0117FF04C096
:10106000609127017091280180E090E00E94743720
:101070002FEF33E040E050E00E94B637B901CA01DB
:101080002091250130E040E050E00E94B637C901D0
:101090001F9108959B01281B390B50F0C901089539
:1010A000BC018091290190912A016817790718F4F1
:1010B000861B970B089580E090E0089588E393E005
:1010C0000E94B23820912D0130912E01280F391F36
:1010D00020930F013093100183E0283E380720F061
:1010E000C901885E934002C080E090E062E370E056
:1010F0000E948F37683008F067E0E0E4F3E0E60F25
:10110000F11DE60FF11D459155912591359162E351
:10111000681B421B530B649FC001659F900D1124F7
:10112000499662E370E00E948F37620F731F7093DD
:101130007201609371018AE393E00E94AA389927B3
:1011400087FD909560912D0170912E01860F971F5C
:10115000909328018093270190936E0180936D01F5
:1011600008950F9221E08C32920710F48CE291E006
:101170008C52914069E170E00E948F3799E16B32A7
:1011800010F0982F6BE2981BE5EBF2E0E60FF11DF3
:10119000E60FF11D9F93CF010E94AA38482F319688
:1011A000CF010E94AA38582F3196CF010E94AA3849
:1011B000282F3196CF010E94AA38382F6F91421BF9
:1011C000530B649FC001659F900D11240C9669E13B
:1011D00070E00E948F37620F731FCB010F9008954C
:1011E000CF93DF9324E130E0B9010E948F37DC0117
:1011F000E2E5F3E0E60FF71FE60FF71FC591D59183
:10120000459155914C1B5D0B4A9FC0014B9F900D22
:101210005A9F900D1124B9010E948F376C0F7D1FCA
:10122000CB01DF91CF910895AEE1B0E0EAE1F9E0C2
:101230000C941F38662EB82E860F898320911301D7
:10124000283059F52091770130917801409179014A
:1012500050917A0157FD15C01091860109C0CA014D
:10126000B9012AE0312D412D512D0E94B6371F5F63
:10127000173FACF391F4243160E036074105510586
:1012800018F48FEF9FEF42C1173F39F480E0281721
:101290008DE738074105410510F020E03DE72C8B34
:1012A0003D8B26EDA22EE8E4F2E0E60DF11D8591DE
:1012B00088608E87E8E4F2E0EB0DF11D859188608F
:1012C0008F87E5E4F2E0E60DF11D7590E5E4F2E0CC
:1012D000EB0DF11DC59090EC692AB92A81E0E82E4A
:1012E000F12C012D112D8E831F82188619861A86E6
:1012F0001B861C861D86188E198E1B8E1A8E0E94C8
:10130000BB2288E088B960927C0022DE3F8537B935
:1013100075B874B852E05A95F1F70000000014B89F
:1013200015B8DD243E8537B975B874B860927C0075
:10133000A895A0927A0080917A0086FDFCCF20903B
:10134000780030907900B0927C004C2DE3D0209151
:10135000780030917900288B398B3F8537B9C5B833
:10136000C4B8A895B0927C00A0927A0080917A00CF
:1013700086FDFCCF609178007091790060927C00CE
:10138000472DC8D0409178005091790014B8CB0116
:10139000820D931DE80EF91E011D111DEA82FB82CC
:1013A0000C831D8388899989840F951F2E813F8125
:1013B00068857985280F391F611D711D2E833F8334
:1013C0006887798722E32417150648F075B874B842
:1013D000C9DD14B815B8888D8395888F07C0483E3D
:1013E00073E0570718F08A8D83958A8F88899989C9
:1013F0002817190658F03E8537B9C5B8C4B8B2DD0C
:1014000014B815B8898D8395898F07C0883E73E01D
:10141000970718F08B8D83958B8FD3945D2D5F3F4D
:1014200049F05F3731F45C2D550FC50E572D550F20
:10143000750E78CF4090320150903301440C551C0A
:101440009201E4E0240D351DEA95E1F729015701E9
:1014500068016E807F8088849984209113012830F0
:10146000C1F46C897D89812D912D6550704080403B
:1014700090409B01AC010E9474379B01AC0160E776
:1014800079E786E190E00E94B637621A730A840A0F
:10149000950AA614B704C804D90428F46A187B086E
:1014A0008C089D0803C0662477244301B20180E0C4
:1014B00090E09301A4010E9474379501A6010E9457
:1014C000B63780E193E07981870F911D0E94AA3899
:1014D000682EC90160E170E00E948F37260F371F28
:1014E000C9016816190618F4861991090FC08C5E97
:1014F0009F4F8615910540F48C899D89843981E13F
:10150000980710F00E94E312812D912D6E96E2E172
:101510000C943B38109281001092800010926F0062
:1015200010928B0010928A0057E056BB5FEF5093E9
:1015300085005093840055E050937B0056EB509308
:101540007A0051E05093810058E25A95F1F700007B
:1015500045B944B955E05A95F1F7000014B815B8EB
:101560001092810080917A0084FFFCCF80937A00F2
:101570000895CF93C82F1C1614F0CF910895D4DB93
:10158000C150F9CF60933501809303018695809314
:10159000A501660F660F660F6093040108958091A0
:1015A0003501809301018091A50180930201089586
:1015B0008091020160910101880FE4CF0895682FA6
:1015C00080E061CB08958EEAFADF85EAF8CF0895CE
:1015D0008DE092DC8AE090CC08951092A50160E045
:1015E00080E0D0DFF5CF0895CF93DF93C0E080E1B6
:1015F000E6DF80E0E4DF8C2F806BE1DFD4E860E0A1
:1016000081E041DBD150D9F7CF5FC83081F7E5DF0A
:10161000DF91CF91089558985A985B985D98509AA9
:10162000529A539A559A99DC5D9A559A5998519ABB
:1016300084E19BDC589A84E198DC8EEAC0DF82EE7C
:10164000BEDF82EABCDF80EABADF80ECB8DF8FE27F
:10165000B6DF84E2B4DF81E8B2DF8FE093E00E947E
:10166000AA388F73ACDF80E4AADF84EAA8DF86EAB9
:10167000A6DFBADF8FEAA3DF60E080E083CF0895C2
:1016800081E08093A50160E082E07CDFA1CF089536
:1016900082E08093A50160E084E074DF99CF089533
:1016A00083E08093A50160E086E06CDF91CF089530
:1016B0009091350180E1891B5CCF0895CF93C82FAD
:1016C000F7DF8091A5018F5F8093A501843070F0D2
:1016D00083E08093A50181E0809338018091A5018A
:1016E0006C2F880F4FDF74DFCF910895109238016F
:1016F000F5CFE4DFFCD28091A501833008F068CFFC
:1017000008956BDFD5DF69CF0895BADFD1DFB8CF99
:101710000895582F28E030E090E841E080E0652F00
:10172000642309F0892B440F969521503109B9F7AC
:101730000895B0E0A0E0EFE9FBE00C9421386C01E3
:1017400010E0C801860F911D81389105CCF5842FDA
:101750008E0D9927991FFC01813491058CF5D42FAA
:10176000D695D695D695319783E0F595E7958A95E8
:10177000E1F7922F9270692E21FF0DC08E2F8D1BE5
:10178000990BAC01409FC001419F900D509F900D5F
:101790001124C80ED91ECE2FE83008F0C7E0862FDE
:1017A00082958F70482E689444F86F70762E217061
:1017B000522ECD1750F4809103018F70806BFFDEA5
:1017C000CDB7DEB7E0E10C943D388D2F806BF7DEAE
:1017D000842DF5DE872DF3DE5601A00EB11E7501B6
:1017E0004601CE14DF0441F4662019F05601A01A18
:1017F000B10ADF5F6501DDCFF70131977F01552029
:1018000051F08491611085DF682F81E03CDAFFEFB1
:101810008F1A9F0AE6CFF401F4CFEF920F93482F6F
:101820008F7320E6829FC001112488549C4F28E0CA
:1018300046FF28E4209305011092000147FD08C0EF
:101840002091050130E2309300012D5E20930501C7
:1018500020E2E22E08E120E04091000160910501C4
:1018600068DF0F91EF900895EF920F93262FFC0100
:10187000349131964491319604913196E490E091FF
:1018800000014E0F60910501630F049652DF0F9126
:10189000EF90089560E0E8CF0895EF920F93CF9313
:1018A000C82F809135018F5F809335018C2F90E098
:1018B00040910301440F440F440F60910401CC3068
:1018C000D8F424E0880F991F2A95E1F730E1E32E40
:1018D00008E020E08053944F2CDF80910401885F62
:1018E00080930401EFEFEC0FEE3108F044C0F0E01C
:1018F000E652F74C0C94F4374C972EE0289FF001F9
:10190000299FF00D112480E1E82E07E020E0CF01AF
:10191000885A994F0EDF60910401695F609304015A
:1019200040910301440F440F440F01E020E080E99F
:1019300096E0FFDE809104018F5FD2CF8EE3DCDA88
:101940008CE703C08CE7D8DA8CE3D6DAA895CF9180
:101950000F91EF9008958CE7F2CF82E5F6CF8DE2FC
:10196000F4CF85E7F2CF8FE4C7DA88E6C5DA8DE6F3
:10197000ECCF8CE4EACF8C2FE8CF8F5C8ECF08952C
:10198000CF93DF93EC018991811103C0DF91CF9157
:10199000089583DFF8CFCF93DF93EC01CE010E944F
:1019A000AA38882319F079DF2196F8CFDF91CF91FB
:1019B0000895EF920F93FC0104913196E490029602
:1019C000B8DE0F91EF9008950F9380E891E0E3DF88
:1019D000409185014D3F6CF46091730170917401E9
:1019E000809175019091760103E026E419D00F9162
:1019F00008958FE352DFFBCF909112019F709230D8
:101A000071F477DE84E690E0C6DFE0913601F09174
:101A1000370122E04DE16FEF84819581E1C00895A7
:101A2000AEE0B0E0E6E1FDE00C941F38142F322E5A
:101A3000202E6B017C010F7080E389838A838B8366
:101A40008C838D838E83F7FE3FC070D9F094E09431
:101A5000D094C094C11CD11CE11CF11C58EE452E41
:101A600053E0552E612C712C033041F140E1442E9E
:101A700047E2542E612C712C043001F130EA432EE0
:101A800036E8532E66246394712C0530B9F020E4B7
:101A9000422E22E4522E2FE0622E712C063071F07D
:101AA00064E6462E512C612C712C073039F490E8F5
:101AB000492E96E9592E98E9692E712C8AE0882ED4
:101AC000912CA12CB12C12C025FEC8CF8BE2E5DEF3
:101AD000C5CFC701B6016B5F7F4F8F4F9F4FA501E9
:101AE00094010E94B63769017A011F5FC414D504BE
:101AF000E604F70470F781E1810F9BEA899F812D4D
:101B00001124782E769486E0811B899F112D112453
:101B10001695912F990F190F811B182F4E0187E0F1
:101B2000880E911C2AE0A401C701B6010E94563814
:101B3000F40101900020E9F731977F01E818F908D6
:101B4000DE2C812F90E004968E159F0514F473947B
:101B50001D5F872D90E0845D9F4F0E94AA38982ECC
:101B6000822D807124FE05C0802F8E19D01608F0BA
:101B700080E00E2D011B080F101624F08EE28DDE82
:101B8000812F8E19111101C008EFA12CC82ED12C64
:101B9000EC0CFD1C002E000C110BEA2DF0E0EE15F4
:101BA000FF0564F0992011F0892D77DE332011F0C4
:101BB000832D73DE2E96E2E10C943B383696EC19B9
:101BC000FD0981E090E08C0F9D1FE80FF91F8081D7
:101BD00064DEA394A016110601F78EE25EDEDDCF6F
:101BE0000F93362FBC0190E080E0022F242F432F6B
:101BF00017DF0F9108950F93062FBC0190E080E04E
:101C000026E54DEF0DDF0F9108950F93042F28E483
:101C100040E006DF8AE741DE87D80F910895E82F7C
:101C2000F0E0EE0FFF1FE057FE4F85919491209159
:101C30000001420F20910501620F20E0BACE089505
:101C4000CF93DF93C82FD62FE0913601F091370163
:101C500048E16EE18685E3DFE0913601F0913701DE
:101C60004D2F6C2F8485DBDFE0913601F091370139
:101C700040E06EE18585D3DFDF91CF910895EF924B
:101C8000FF920F931F93CF93DF93F82EE92EC5E6B3
:101C90004F9B1BC0CF2DDE2D15E500E0D7FD0FC0FB
:101CA00063D9110F4F9B1F5F1F731F3399F40111ED
:101CB00003C0CF2DDE2D04E00F5F083C78F0802FAD
:101CC000CDB7DEB7E6E00C94473881E04ED9C1507D
:101CD000F9F6E0CF111102C00111F1CFA8951C1641
:101CE0001D06E4F62A97D1F6CFEFDFEFD7CFCF93DB
:101CF00056DCC82F809138018823D1F0813051F40F
:101D0000C33041F46FE086E03DDC8BE2C6DD6FE07E
:101D100086E038DC80E49FE1B2DFC33041F480919B
:101D20003801813021F460E086E02CDCC1DC40DC4D
:101D3000CF91089540911101A0913601B0913701E2
:101D4000E9E8F1E030E020E0822F2417B0F451916F
:101D50001C969C911C97591719F05581951303C037
:101D60002F5F3F4FF1CF220F331FF901EB56FE4F8C
:101D700020813181293E334008F084E1089518958F
:101D8000189510921301109211011092680110928F
:101D90004801109212011092340110926F01E3E594
:101DA000F1E0108211821282E3E7F1E0108A82E012
:101DB000818B10921901178616861482158216825D
:101DC000178281EF838B08958FE496D886E494D8A8
:101DD00086E492D8FDDBF7DB5E98A4D890E080E043
:101DE0004ECF08951F93CF93DF93162F98E097B9A6
:101DF00098B9E82FF0E0EB5BFD4F949195B9262F51
:101E0000281BE20FF11D27FDFA95E491E92BE4B9B7
:101E1000E3D8EC01812FE0D8AC0120912901309169
:101E20002A0136952795C9010397BE01625E7F4F4F
:101E30008617970778F4255E3F4FC217D30750F4F3
:101E4000BA01625E7F4F8617970720F481E0421740
:101E5000530708F080E014B8DF91CF911F910895E7
:101E6000CF9361E080E0BEDFC82F62E080E0BADFA0
:101E7000C80F62E081E0B6DF8C0FCF910895AFE02C
:101E8000B0E0E5E4FFE00C941F38B82E1092130187
:101E9000807FB9F4E5DF833081F4A6DB87E492E04C
:101EA0007ADDEEDB8FE3F9DC80ED97E0E8DE8B3066
:101EB000B0F49ADB85EF90E06EDD2F96E2E10C94B2
:101EC0003B3806E910E090DB87EB91E064DDC8DF8A
:101ED000833009F065C01F5F143008F462C0D0DBA6
:101EE0000E94AC2681EB90E056DD60E082E193E059
:101EF0000E94B73860E083E193E00E94B73860E069
:101F000081E193E00E94B73860E082E08DD96C01F6
:101F10009A83898361E082E087D97C019C838B83EB
:101F200060E081E081D98C019E838D8323E040E2D3
:101F30006EEFC60155DE23E040E26EEFC70150DED2
:101F400023E04DE16EEFC8014BDE2AE5C216D10455
:101F500024F084E190E09A838983698182E193E0AF
:101F60000E94B7388AE5E816F10424F084E190E095
:101F70009C838B836B8183E193E00E94B7380A35A1
:101F8000110524F084E190E09E838D836D8181E1D1
:101F900093E00E94B73882E080933801A8DE07C042
:101FA00010E088E20E94B507015009F08CCFEB2DBC
:101FB000EF70EF87E13009F04FC0EE24E394F12C8D
:101FC00068EB862E62ED962E67E4A62EB12C72E0A9
:101FD000D72E08E0E0E23E2EC12C1E2D42E2242E38
:101FE00094DB8FDB84E559DCC7010E948A060E94DE
:101FF0009406113009F0C1C184EE90E0CCDC64E0BD
:1020000080912D0190912E01F6DD3ADB8FED90E06D
:10201000C2DC80917101909172010E948A068EEB60
:102020008093250107B908B914B815B888EE93E074
:1020300026DE143011F08B3020F4C39484E0C812F3
:10204000CFCF88EE93E01BDEEFEFEE1AFE0AF8E04A
:10205000EF16F10409F0C0CF18E702DF81117FC24B
:10206000C3DA8AEA90E097DC23E04DE16FEF8091DC
:102070002B0190912C01B4DD03DB83EA90E08BDC33
:1020800023E04DE16FEF8091320190913301A8DDA3
:1020900082E0809338012BDE10921301A5DA8FE9DC
:1020A00090E079DC60E082E00E948A2340907B012E
:1020B00050907C0160907D0170907E015C864B8623
:1020C00061E082E00E948A2380907B0190907C01F5
:1020D000A0907D01B0907E019E868D8660E081E0BB
:1020E0000E948A2300917B0110917C011E830D8345
:1020F00062E080E00E948A2380917B0190917C01C4
:102100009C838B8362E081E00E948A2380917B0123
:1021100090917C019A87898761E080E00E948A2300
:10212000E0907B01F0907C01FA82E982C2010E947A
:102130009306C4010E949306B801110F880B990BF6
:1021400003E026E444EF6CDC2F85213009F012C255
:1021500082E0E80EF11CF886EF828E010F5F1F4FC0
:102160006E01EFE0CE0ED11CF801819191910A979A
:10217000853B9105C8F4EC15FD05B9F731E3E32E75
:1021800033E0F32EF80160810E5F1F4F6E5EC701D2
:102190000E94B738FFEFEF1AFF0A0C151D0591F7E3
:1021A0006FDA85EA91E0F7DB82E0809338019FDD0A
:1021B0000E941B342F85213029F08091310182301B
:1021C00009F0C6C011DA80E0D8DB8BE491E0E3DBF4
:1021D00082E0D3DB84E290E0DEDB90E4F92E10E0D5
:1021E0002AE0822E912CA12CB12CCBDD1092130170
:1021F00060E082E00E948A230091850120917301B2
:10220000309174014091750150917601073F0CF4B3
:10221000BBC10093850120937301309374014093F7
:10222000750150937601073F09F0B6C12056310978
:1022300041095109203935454105510508F0ACC126
:102240006091870170918801CB018B569F4F8B3233
:10225000914008F0A1C11F5F153008F49EC188E3CA
:1022600093E00E94C538C0D98DE190E094DB809165
:102270008701909188010E947F060E945E0888E095
:1022800088B989E087B980E284B982E00E94EC07CE
:10229000853D9340D4F714B810922801109227017D
:1022A00082E00E94EC077C0180916D0190916E01AB
:1022B000909328018093270182E00E94EC076C0133
:1022C000CC0CDD1C109228011092270182E00E94A4
:1022D000EC074C01A0906D01B0906E01B092280106
:1022E000A0922701CDD986E190E055DB8AE393E007
:1022F0000E94AA38182FD701A80DB91DAC19BD0925
:1023000095010E94093896010D2C000C440B550BC9
:102310000E94D8371D5F120F612F8AE393E00E945D
:10232000B738812F012E000C990B0E947F060E9466
:102330005E0882E080933801DADC1092310181E39B
:1023400093E00E94AA38682F84E393E00E94B73894
:1023500089E18093250180E00E942E3745D985EFE1
:1023600090E019DB8DD98EE292E015DB109213011B
:1023700082E080933801BBDCA0CD123091F5209132
:10238000290130912A01A8E5BBE10E94FA3724EC2B
:1023900036E340E050E00E94D837290181E085B95A
:1023A000F5E0F4B980E00E94E107841995099A8369
:1023B000898381E184B980E00E94E107841995094D
:1023C0009C838B8384E085B984E184B981E00E9499
:1023D000E107841995099E838D8389EC90E0DBDA0F
:1023E00037C0133059F5D5B82AE024B980E00E94EF
:1023F000E1072091290130912A01369527953887E8
:102400002F83821B930B9A83898324B880E00E94D8
:10241000E1072F813885821B930B9C838B8305B941
:1024200088E284B981E00E94E1072F813885821B10
:10243000930B9E838D838BEB90E0D1CF1430D1F43E
:1024400087E392E0A8DA0CDD882311F0F2E0CF2ECA
:1024500017D989819A810E947F060E9494068B81F8
:102460009C810E947F060E9494068D819E810E941D
:102470007F06D8CD1530B1F415B8D4B880E00E94ED
:10248000E1079A83898304B981E00E94E1079C8374
:102490008B8334B882E00E94E1079E838D838BEDAD
:1024A00090E09DCF163051F5D4B8D5B880E00E94A9
:1024B000E1072091290130912A01821B930B9A8315
:1024C000898304B905B981E00E94E10720912901BF
:1024D00030912A01821B930B9C838B8334B835B8CF
:1024E00082E00E94E1072091290130912A01821B9C
:1024F000930B9E838D8387ED90E071CF173009F0A9
:10250000A7CF2091290130912A01A8E5BBE10E94C3
:10251000FA37A50194010E94B6372901D5B8E3E046
:10252000E4B980E00E94E107841995099A838983C0
:1025300005B9FCE0F4B981E00E94E107841995092E
:102540009C838B8335B820E324B982E00E94E107A5
:10255000841995099E838D8385EB90E040CFD5D873
:1025600087E392E018DA84E60E94B507115009F07B
:1025700074CD76CD80913101823009F4E9CDF886B1
:10258000EF8210923101E9CD0F5FCA01B901A501B7
:1025900094010E94B6373ACE10E072D86091730170
:1025A00070917401809175019091760104E026E4A8
:1025B0004091850135DA7CD888E20E94B507FA940B
:1025C000F11013CEC5CE8091310181110DC081E390
:1025D00093E00E94AA3861E0680F84E393E00E94D0
:1025E000B73881E0809331010895EF92FF920F9305
:1025F0001F93CF93DF93D62FE82FF0E0E85BFD4FDA
:10260000E491E8B9E860E7B915B8E62FF0E0EB5BD4
:10261000FD4FE491E4B9CE2FCC0F88E8E82E83E19A
:10262000F82E8D2F0E94E1078C01C4B98E159F05ED
:1026300008F1892BD1F034D88BE291E0ACD9D801E4
:1026400020EA36E841E050E00E940F3828E937EBF5
:1026500040E050E00E94B637C90122E041E467EF54
:10266000BFDA88E087B988B914B8CDB7DEB7E6E03D
:102670000C9447387801D5CF80E48AB98BB9D6E875
:10268000D0937A001092C1000E949407C4B7C8701A
:1026900084B7877F84BF0FB6F894A89580916000B7
:1026A000886180936000109260000FBED093640038
:1026B00088E380937E001092B00087E08093B100A1
:1026C00078940E940B0BC11186C580E185BF4F999C
:1026D00008C00E94B407CF5FCC33C9F780E69DE6FF
:1026E00004C08FE59DE6CF31C8F790930C0180932D
:1026F0000B01109226010E94AC2688E19FE00FB6E4
:10270000F894A895809360000FBE90936000CC333E
:1027100009F463C020E1722E38E1632E49E3842E70
:1027200041E0942E59E5A52E51E0B52E60EF362EEE
:1027300073E3572EE1E24E2E8FEA0E94DF0A84EA0D
:102740000E94DF0A0E94F40A28E027B91ADB0E94DF
:10275000AC260E94ED0A4DD580913401882371F09A
:102760000E94400B80E491E016D963E0809129013A
:1027700090912A0140DA88EC0E94B5070E94400B34
:102780000E94BB2280911301893061F50E94F40AF6
:1027900085E491E000D90E94400B63E080914D01F7
:1027A00090914E0128DA0E94940663E080914F01D7
:1027B0009091500120DA0E94940663E080915101CB
:1027C0009091520118DA8AEC0E94B50781E157DB3B
:1027D00080910B0190910C0193C10E94E62F811111
:1027E000FCCF98CF84E393E00E94AA38C82F81E3FE
:1027F00093E00E94AA38C81BC093310180E03FDB00
:102800000E94850B8CEA92E0C6D883E00E947C0788
:102810000E94E80A42E061E080E05BD542E060E0CF
:1028200081E057D541E062E080E053D541E060E0CF
:1028300082E04FD540E062E081E04BD540E061E0CE
:1028400082E047D58091130181110EC00E94BB2206
:1028500060E082E00E948A2361E082E00E948A2395
:1028600060E081E00E948A230E94F40A909237017E
:1028700080923601809113018630E9F485EC0E9444
:102880000D0C60E188EFDCD966E080E00E94C20AAE
:1028900083E892E080D866E082E00E94C20A89E57F
:1028A00091E079D862E080913D0190913E01A3D9F9
:1028B0000E94E80A8DCF873069F484EC0E940D0CE9
:1028C00060E188EFBDD966E080E00E94C20A8CE832
:1028D00092E0E0CF8830C1F480918301909184012F
:1028E000890F9927991F029759F40E940D29809109
:1028F0003101882309F459C4D4E010E000E042C457
:1029000080E00E943F2864CF833009F005C18091A8
:102910001101813009F068C080E00E945207609187
:10292000890180918F0161DE80E70E942B0740E0E2
:102930006091890180918F010E94413360937301FE
:1029400070937401809375019093760180E00E94EA
:10295000790B609173017091740180917501909170
:10296000760102E026E442EF5BD80E94960641E041
:102970006091890180918F010E94413360937301BE
:1029800070937401809375019093760126E442EF71
:1029900047D88DE191E00E94CB0C0E94E80A0E948A
:1029A000E80A80916F01882309F412CF67B898E094
:1029B00097B980E00E94790B40916F01442309F49C
:1029C000A6C380915601413009F03BC30E94EE0638
:1029D00020915601213009F02FC3209111012111BE
:1029E0002BC30E94C82883CF823079F582E30E94EE
:1029F0004D0C8DE091E00E94CB0C909189013091BB
:102A00008A01931308C080E00E946D0781E00E9454
:102A1000640781E08ACF20918F0180919001281373
:102A200007C080E00E945E0781E00E947307F1CF3B
:102A3000321306C081E0809306010E944107AFCFA8
:102A400098133DC070920601F8CF8330C1F55092C3
:102A5000060180918F0190918A01891303C021E0C2
:102A6000209306014091890130919001431302C0E7
:102A70007092060120918B01821303C082E0809343
:102A8000060180919101481303C040E24093060182
:102A900032130FC022E120930601981302C0409226
:102AA000060183E30E944D0C8DE091E00E94CB0C67
:102AB000C4CF9817A1F380910601823290F382E986
:102AC00092E00E94CB0C8AE792E00E94CB0C0E941D
:102AD000400B80911101805D0E944D0C8AE20E94A2
:102AE0004D0C87E291E00E94CB0C80E692E00E94C0
:102AF000CB0C0E94E80A86E00E940D0C80E49FE166
:102B000067B84F9BFECFBBD8823308F40DC30E9439
:102B1000E62F8111FCCF10CE843009F059C180918D
:102B20006801882309F466C080914801882309F46C
:102B300061C060914501809147010E948A23C09045
:102B40007301D0907401E0907501F0907601C0910E
:102B5000850160916701809165010E948A238091BF
:102B6000390190913A01A0913B01B0913C01409113
:102B7000590150915A0160915B0170915C01843F51
:102B8000E1E09E07A105B10538F4443FF1E05F079D
:102B90006105710508F0C0EF443F514061057105C2
:102BA00038F4843F9140A105B10510F030928501C1
:102BB000809185018C1311C08091730190917401F3
:102BC000A0917501B0917601C816D906EA06FB06F8
:102BD00030F09CE09093120105C0C817D4F78DE047
:102BE0008093120180916801882321F0809148012F
:102BF0008111CEC066E080E00E94C20A80EC0E9493
:102C00000D0C809112018C3009F0CBC085E791E06A
:102C10000E94CB0C80916801882319F080E70E9404
:102C20004D0C88D8C82F853098F4A0913601B0910A
:102C30003701E82FF0E0E757FE4F1D969C91808109
:102C400062E0981301C060E086E991E00E94340CD4
:102C500060E189EF0E94200E86E00E945E0B84E80E
:102C600091E00E94CB0CE0913601F0913701608138
:102C700071818281938103E020E04EEF0E94100D6C
:102C800087E00E945E0B89E40E944D0CE0913601C2
:102C9000F0913701868197818031974208F494C082
:102CA00085E60E944D0CE0913601F0913701868156
:102CB000978180519742978386830E949806E0917E
:102CC0003601F091370122E041E46AEF8681978175
:102CD0000E94F00D86E00E945E0B8DE591E00E945F
:102CE000CB0CE0913601F091370163E0848195814E
:102CF0000E94FB0D81E080933801E0913601F09154
:102D0000370180859185892B91F085E00E94790BB0
:102D10008FEE90E00E94CB0CE0913601F0913701EC
:102D200022E041E46AEF808591850E94F00DE091F8
:102D30003601F091370182859385892B91F085E0EA
:102D40000E94790B89EE90E00E94CB0CE091360155
:102D5000F091370122E041E46AEF828593850E9479
:102D6000F00DC53078F480E00E94790B8C2F0E9422
:102D7000520789E591E00E94CB0C8C2F0E941D0721
:102D80000E94E80A43E462E485E40E94C10690CD13
:102D90004F9930CF8091120191E0892780931201E1
:102DA00029CFB0923701A09236018BEC91E00E94BE
:102DB0004A0C8DE691E00E94CB0C8091480188235B
:102DC00009F42FCF8EE62BCF83E60E944D0C75CFF2
:102DD000853009F0F1CD66E080E00E94C20A809162
:102DE0001201C82FC07184FF63C080E50E944D0CA2
:102DF000B0923701A0923601C2E00E9496068091FF
:102E00001201D82FDF70D43009F056C08FE891E05E
:102E10000E94CB0C83EC0E940D0C84ED91E0C1115B
:102E200067C00E949A0E853098F4A0913601B09147
:102E30003701E82FF0E0E757FE4F1D969C91808107
:102E400062E0981301C060E086E991E00E94340CD2
:102E500060E189EF0E94200E86E00E945E0B809167
:102E6000120185FD61C085E591E00E94CB0CE091E7
:102E70003601F091370162E0828593850E94FB0D57
:102E8000E0913601F0913701668584850E948A239E
:102E900086E00E945E0B0E94E40C85E00E94FC0C20
:102EA0004FE367E48FE3D43009F46FCFC0E0B7C0DD
:102EB0008EE40E944D0CA1CF85FF1DC084E40E94CA
:102EC0004D0CCF5FD330D9F489E891E00E94CB0C50
:102ED00081EC0E940D0C81E292E0C13049F08DE25C
:102EE00092E0C23029F08DEF91E0C33009F099CF24
:102EF0000E944A0C96CF85E40E944D0CE3CF84E9F2
:102F000091E00E94CB0C82EC0E940D0C8DEE91E0C2
:102F1000C13071F383EF91E0C23051F3C33009F057
:102F200080CF8BED91E0E4CFE0913601F091370155
:102F30008F70843009F44EC0668584850E948A2390
:102F40000E94E40C60E084E00E94C20A89E40E94CE
:102F50004D0C0E949806E0913601F091370122E075
:102F600041E46AEF868197810E94F00D8FE491E041
:102F70000E94CB0CE0913601F091370162E082852E
:102F800093850E94FB0DE0913601F0913701808519
:102F90009185803C9241E0F480E00E94790B89E4C5
:102FA0000E944D0C0E94980622E041E46BEF90E0F5
:102FB00080E00E94F00D8FE491E00E94CB0CE09144
:102FC0003601F091370162E0808591850E94FB0D0A
:102FD00080E064CF84819581892B09F4B3CF80E0B0
:102FE00090E00E94CB0CE0913601F091370122E095
:102FF00041E46AEF848195810E94F00DA3CF80E0C7
:103000000E94790B8C2F0E94520789E591E00E9463
:10301000CB0C8C2F0E941D070E94E80ACF5F809185
:103020001101C81760F344E467E483E5D33009F085
:10303000ACCE43E467E4A8CE40E0692F0E947E272F
:10304000C7CB9091570124E0929FF0011124EA55DB
:10305000FE4F54E0859F900111242A553E4FC080B9
:10306000D180E280F380F9010081118122813381D6
:10307000C92F0C151D052E053F0508F0C82F42303D
:1030800041F5890FC3E0C81B1C2F1695D2E0DC1B4D
:1030900001E0C11102E0812F0E94BD0C88E091E0A7
:1030A0000E94CB0C8D2F0E94BD0C88E091E00E9405
:1030B000CB0C802F0E94BD0C80E00E945E0B81E053
:1030C000C11180E00E94F80682E0811B0E94F80690
:1030D0007FCB80915801F4E08F9FD0011124AA5535
:1030E000BE4F24E0C29FF0011124EA55FE4F0D911E
:1030F0001D912D913C9140815181628173814017D6
:1031000051076207730708F0BFCFC82FBDCF8AE60B
:1031100092E00E94CB0C0E94400B87E992E00E9453
:10312000CB0C82E992E0E3CC811106CBE0CBC491D9
:10313000C03211F0CE3F09F4D82E8F5F3196813125
:10314000B1F7DD2341F15D2F5370252E11F40E945C
:10315000F40A60E0822D880F0E94C20A0E94E80AE9
:10316000A895DF5FD370212C2D1022C0CC23C9F08D
:10317000020D111DF801E55BFD4FE491E03211F401
:103180000F5F1F4FC801855B9D4F7C01FC0180E0F4
:1031900090E1D92ECCCF80E29EE40E943F0E88239E
:1031A00091F280E29EE40E943F0E0E94E40EC4CAA7
:1031B000F701C491CC23A9F3CF3F39F40E949406C0
:1031C0002394FFEFEF1AFF0ACFCFCE3FC9F38C2F26
:1031D0000E944D0CF5CF0E94ED0A87E592E00E9417
:1031E000CB0C8BEC0E94B5070E94E40E90E080E0CF
:1031F00008950F931F93CF93DF9385E00E94EC0710
:1032000085E00E94E8078C01EC01CC0FDD1FCC0F9C
:10321000DD1FCA56DF4F10922F01C43883E0D80754
:1032200070F489E991E00E94CB0C0E94580B81E078
:1032300080932F01DF91CF911F910F91089588EA1C
:1032400091E00E94CB0C62E0CE010E94FB0D0E9437
:1032500094060A3F86E01807B0F40333164060F482
:1032600080EA92E00E94CB0C0E94580B8DEC0E94E9
:10327000B5070E94E40EDECF87EA92E00E94CB0CF5
:103280000E94580BD7CF85EA91E0F8CFFC019C0152
:10329000261B370BCA0170E060E0A901460F511DE3
:1032A000452F5527620F240F351FAC01470F511DC5
:1032B000452F5527780FDA01AA0FBB1F8A0F9B1FD6
:1032C0004B3E20F4E217F30740F7089590E080E0CA
:1032D0000895A9E1B0E0EFE6F9E10C941F38582E0B
:1032E000462E342EA895E62FF0E0EB5BFD4F24919F
:1032F0002E87220F2F8B339634913A8BE42FF0E0F8
:10330000EB5BFD4F44914983339684918F83E52D88
:10331000F0E0EB5BFD4F2490922D990F9F87339641
:1033200024912B8328602C8338603A8345B9EE843E
:10333000E42AE4B827B93B8138B9862F0E94E80710
:103340009D878C874E8544B9842D0E94E8073C01F7
:1033500014B80E949D0715B8E4B8842D0E94E807B0
:103360006C857D850E944A086C018A8187B988E056
:1033700088B9998192299D8395B994B9852D0E9428
:10338000E8070E9450084C0115B80E949D0725B817
:10339000852D0E94E8070E9450088C0124B8852DD5
:1033A0000E94E8070E945008B82E9987B801C4010E
:1033B0000E944A088032E1E09E0730F4F0E2CF1626
:1033C000F1E0DF0608F4CAC5C00ED11E2C853D858C
:1033D000820F931FC816D90620F41D870C876B2C0B
:1033E00079842091480180916801820F9927991F63
:1033F00002974CF0213009F0B1C5909145018091C0
:1034000065019813ABC5D980DD0CFE84FD283D2DE8
:1034100032293B878C859D858437910508F4AAC1A4
:103420000A96880F991F6816790608F0A3C19C8137
:1034300097B9EB81E8B9F4B8842D0E94E5078C01B7
:10344000832D0E94EC077C01D5B8842D0E94E507EE
:103450009801295A3D4F2817390708F0B9C088E06C
:1034600088B9FA81F7B92B8524B925B9832D0E9433
:10347000E50788349F4008F470C085E0809313010D
:1034800082E28093120110933E0100933D01B70147
:10349000C8010E945508909344018093430198010C
:1034A000A0E1B7E20E94FA3720910D0130910E01A0
:1034B00050E040E00E94B6373093400120933F0136
:1034C0008F898D2984B915B84C8147B98B8188B90A
:1034D000832D0E94EC078C01842D0E94E507B80122
:1034E0000E9455089C019093420180934101909164
:1034F00012019F709430B1F188E088B99F81EA8110
:103500009E2B97B924B8FD81F5B9852D0E94E80757
:103510008C010E9450089E838D83842D0E94EC07AD
:10352000E0901401F0901501BC01C8010E945508FB
:103530009701DC010E94FA37ED81FE819F0150E086
:1035400040E00E94B63730933E0120933D018091C8
:1035500048018F5F8093480189C385E08093130100
:1035600084E28FCF40913F0150914001609143012F
:1035700070914401C9018ADE0097F9F0D4B8EA8954
:10358000FC81EF2BE7B9842D0E94E5078C0188E0D0
:1035900087B99801A0E1B7E20E94FA372091320181
:1035A0003091330150E040E00E94B637A901B801E4
:1035B000809141019091420169DE90933E01809398
:1035C0003D01809112018F70843009F4C0CF94CFF7
:1035D00088E088B92A8127B93B8534B935B9852D6A
:1035E0000E94E5078C01832D0E94EC077C0125B821
:1035F000852D0E94E507895A9D4F8017910708F095
:10360000ADC44B8148B98C8187B9832D0E94E507F1
:10361000813D934008F06EC085E08093130182E302
:1036200080931201B801C7010E945508909364016C
:1036300080936301C8010E9450089C01A0E1B7E299
:103640000E94FA37209114013091150150E040E0BA
:103650000E94B6373093600120935F01F8E0F8B91B
:103660002A8127B98F858D2984B985B9852D0E9436
:10367000EC078C01832D0E94E507B8010E945508D4
:103680009C019093620180936101909112019F705F
:103690009430A9F1EB813F81E32BE8B94C81342BC5
:1036A00037B915B88D8184B9852D0E94E8077C0152
:1036B000842D0E94EC079E838D8300910D01109153
:1036C0000E01BC01C7010E9455089801DC010E944F
:1036D000FA37ED81FE819F0150E040E00E94B6374D
:1036E00030935E0120935D01809168018F5F80932C
:1036F000680154C185E08093130184E391CF409128
:103700005F01509160016091630170916401C90192
:10371000BDDD009721F1D5B8D4B8FB81F8B9EC81B3
:103720002A81E22BE7B9852D0E94E5070E94500807
:103730008C0138E037B99C01A0E1B7E20E94FA376A
:1037400020912B0130912C0150E040E00E94B637CF
:10375000A901B801809161019091620197DD909378
:103760005E0180935D01809112018F70843009F4B5
:10377000BBCF90CF88E088B94A8147B925B88B85FF
:1037800084B9852D0E94E807998B888B0E94500888
:1037900098878F83832D0E94EC079A8789878301FE
:1037A0000C591F4FEF81F885B3010E171F0708F062
:1037B000F7C0CF010E9455089C8B8B8B2091140180
:1037C0003091150150E040E060E871EA83E09CE14F
:1037D0000E94B637AB89BC890E940F38E985FA850B
:1037E0009F0150E040E00E94B63749015A0114B8E9
:1037F00015B8FB81F8B92C8127B981E00E94B50783
:10380000E4B8842D0E94E8078F359D4008F474C108
:10381000F4B8842D0E94E507998F888F832D0E942C
:10382000EC079C8B8B8B852D0E94EC079E8B8D8BE0
:103830008B899C89813D974008F4E6C084E08093A1
:1038400013018DE080931201288D398D89010619AD
:1038500017096216730610F0088D198DC0900D01BE
:10386000D0900E01F12CE12C60E871EA83E09CE13C
:10387000A70196010E94B637D8010E940F38EB8944
:10388000FC899F0150E040E00E94B63780916801BA
:10389000882371F08091590190915A01A0915B01A8
:1038A000B0915C0182179307A407B50708F099C08F
:1038B0002093590130935A0140935B0150935C016E
:1038C000288D398DA0E1B7E20E94FA37A701960151
:1038D0000E94B6373093600120935F016B897C8929
:1038E0008D899E890E94550890935E0180935D01A9
:1038F00081E04091590150915A0160915B017091B2
:103900005C01481559056A057B0508F06CC080927A
:10391000590190925A01A0925B01B0925C016985B5
:103920007A85888999890E94550890935E018093D1
:103930005D012F813885A0E1B7E20E94FA3720911E
:1039400014013091150150E040E00E94B637205F2D
:10395000384D3093600120935F01C0900D01D090ED
:103960000E01F12CE12C9301A0E1B7E20E94FA379D
:10397000A70196010E94B63730936201209361013E
:103980002C853D85A0E1B7E20E94FA37A701960198
:103990000E94B637309364012093630181E025C013
:1039A0008F8198850E9455089C8B8B8BFD81F4B983
:1039B000852D0E94E807998B888B0E945008988774
:1039C0008F83832D0E94EC079A878987BC018B899E
:1039D0009C890E9455089C01A4E6B0E00E94FA3739
:1039E000FDCE80E086CF8111B8CF909168019F5FB6
:1039F00090936801882309F478C33092650140925E
:103A000066015092670171C3F1E66F16710408F008
:103A100073C0288D398D213D47E0340708F46CC010
:103A200085E08093130182E180931201C9018650E1
:103A30009F4FED89FE898E179F0708F043C083E1F1
:103A400080931201FA89F770DF2E832D80648093B2
:103A50007C00EBE0EE2E21E030E03E832D830FEF83
:103A600013E0A89561E089816FD5F4B886B18D2106
:103A7000E9F33E8534B980917A00806480937A00BE
:103A800080917A0086FDFCCF80917800909179003A
:103A9000F801E81BF90B2D813E812E0F3F1F3E835D
:103AA0002D83EA94E110DDCFC901880F991F880F9B
:103AB000991F69E070E00E948F37709364016093F2
:103AC000630112CE00910D0110910E01688D798D68
:103AD0008D899E890E9455089801DC010E94FA3761
:103AE000E88DF98D9F0150E040E00E94B637309399
:103AF0005E0120935D01A6CFF4B8D5B8842D0E9455
:103B0000E8076C01832D0E94EC0798878F830E9441
:103B100050089A8789870C151D0508F0A9C0B301C4
:103B2000C6010E9455088C0120910D0130910E01B3
:103B300050E040E060E871EA83E09CE10E94B63723
:103B4000D8010E940F38E985FA859F0150E040E0D6
:103B50000E94B63749015A01FA81F7B988E088B95D
:103B60002D8124B925B9852D0E94E8078C01832D6C
:103B70000E94EC079A878987842D0E94EC077C01BC
:103B8000003331E1130708F0E6C125B8852D0E9406
:103B9000E807998B888B24B8852D0E94E8079C8BB9
:103BA0008B8B15B881E00E94B50725B8852D0E9442
:103BB000E807EB89FC89E034F64008F079C08133EE
:103BC000914108F475C0C8018A569F4FE889F98968
:103BD000E817F90708F06CC086E080931301809124
:103BE00048018F5F80934801B70189859A850E94BB
:103BF000550890933E0180933D01B701C8010E9492
:103C00005508909344018093430114B815B8FA897C
:103C1000F8B981E00E94B50724B8852D0E94E80715
:103C2000853F910518F52D8124B9832D0E94E80761
:103C3000813D9340D8F0852D0E94EC078D3D924048
:103C4000A8F024B8852D0E94E8078D3D924070F0C1
:103C500025B881E00E94B50715B8852D0E94E807B8
:103C6000853F910518F487E08093130181E0F8C047
:103C7000E4B8F981F5B9842D0E94E8076C01832D21
:103C80000E94EC0798878F830E9450089A87898743
:103C9000C6016C147D0410F48619970969857A852C
:103CA0000E9455089C01A4E6B0E00E94FA374BCF71
:103CB000FA81F7B9298124B925B981E00E94B507B5
:103CC0003B8534B935B9852D0E94E8078C010E94E7
:103CD0005008998B888B832D0E94EC079E838D83DF
:103CE0000E9450089A878987842D0E94EC077C01E6
:103CF00089859A858E3F994008F4C1C084E08093FD
:103D000013018CE080931201B301888999890E9484
:103D100055088C01209114013091150150E040E0CC
:103D200060E871EA83E09CE10E94B637D8010E9406
:103D30000F38E985FA859F0150E040E00E94B637D0
:103D400080914801882371F08091390190913A0166
:103D5000A0913B01B0913C0182179307A407B507DE
:103D600008F07AC02093390130933A0140933B0127
:103D700050933C01B7018D819E810E94550890931C
:103D80003E0180933D0128893989A0E1B7E20E9474
:103D9000FA37209114013091150150E040E00E9463
:103DA000B6373093400120933F0181E040913901C3
:103DB00050913A0160913B0170913C0148155905C1
:103DC0006A057B0508F04AC08092390190923A0159
:103DD000A0923B01B0923C01B6018F8198850E9470
:103DE000550890933E0180933D019601A0E1B7E212
:103DF0000E94FA3720910D0130910E0150E040E011
:103E00000E94B637205F384D3093400120933F0128
:103E10009301A0E1B7E20E94FA3720910D013091A1
:103E20000E0150E040E00E94B637309342012093EB
:103E300041012C853D85A0E1B7E20E94FA3720912F
:103E400014013091150150E040E00E94B6373093E4
:103E50004401209343010ACF80E0A8CF8111D8CF3D
:103E6000909148019F5F90934801882309F43DC1D8
:103E700030924501509246014092470136C1F1E629
:103E80006F16710408F067C02889398929343D40CC
:103E900008F461C085E08093130182E080931201F1
:103EA000C70186509F4F8017910708F03CC083E000
:103EB000809312010B810770832D806480937C00B6
:103EC0001BE021E030E03E832D83A89560E08981EE
:103ED0003BD33B8534B935B986B18023E9F724B8A3
:103EE00080917A00806480937A0080917A0086FDC8
:103EF000FCCF8091780090917900ED81FE81E80FF0
:103F0000F91FFE83ED83115001F7CF01880F991F30
:103F1000880F991F69E070E00E948F377093440109
:103F20006093430114CBC0901401D0901501B701E8
:103F3000C8010E9455089601DC010E94FA37E88901
:103F4000F9899F0150E040E00E94B63730933E016E
:103F500020933D01AFCF88E087B988B914B815B870
:103F600088E087B9F7EC6F16F1E07F0608F4E5C04A
:103F700088B92F8524B938EC3D834C818A81482B40
:103F80004F839F8197B981E00E94B507EA81E7B925
:103F9000852D0E94EC07429728F0FD81F150FD83AA
:103FA000F111EFCF2F8524B925B961E08981CCD2F9
:103FB000852D0E94E8076C013F8934B915B84C8102
:103FC00047B98B8188B960E08981BED2842D0E9477
:103FD000E8070E9450089E838D839E8594B9842DA6
:103FE0000E94EC078C01852D0E94E807B8010E9411
:103FF00055088C01842D0E94EC077C01852D0E94C0
:10400000E807B7010E94550898012C5E3F4F28171A
:10401000390708F46AC088E088B9EA81E7B924B8AA
:1040200025B861E0898190D2842D0E94EC077C0143
:10403000852D0E94E807B7010E9455087C010817EA
:10404000190708F05EC0FF85F4B9F5B9852D0E9407
:10405000E807FC01CD82DE828D819E81883426E0D6
:10406000920708F060C09C0153E0369527955A9559
:10407000E1F748EEE41643E0F40608F057C0C70144
:1040800064E670E00E948F37C7018759910989382B
:10409000914108F052C0EE15FF0508F04EC08D8129
:1040A0009E81280F391F2E153F0508F046C068175E
:1040B000790708F042C080911301833018F483E03F
:1040C0008093130120911101822F90E0FC01E757AA
:1040D000FE4F50824682880F991FFC01EB56FE4F1F
:1040E000F182E0822F5F2093110188E087B988B9BF
:1040F00014B815B88EE20E944D0C6996E2E10C945A
:104100003B382F8924B915B83C8137B94B8148B960
:1041100060E0898119D2842D0E94E8070E9450082E
:10412000FC01780199CF28EC30E0A3CFB70144E03F
:10413000769567954A95E1F7A7CF642D852D01D037
:10414000D4CFB0E0A0E0E7EAF0E20C942138C82F29
:10415000D62FA895862F90E0FC01EB5BFD4F549085
:10416000339624914C2F50E0FA01EB5BFD4F1491F4
:10417000339604916091680130914801630F77276D
:10418000771F672B09F067C0A895609117017091A0
:104190001801660F771F660F771F70932A016093CF
:1041A000290160916D0170916E01660F771F660F96
:1041B000771F70932801609327013EEB3093250110
:1041C00030911101E9E8F1E0DF01480F591F9A2F02
:1041D0009E1B931718F188E088B9286027B914B995
:1041E00015B9B8E1BB2ED12CC12C8D2F0E94E80748
:1041F000782E692E8C2F0E94EC077C018C199D096A
:1042000097FF03C091958195910903970CF46BC1B9
:10421000A895BA946701B110E8CF0AC08D911596A0
:104220006C911597680F7727771F6417750779F6D4
:10423000809117019091180190932A018093290190
:1042400080916D0190916E019093280180932701D8
:1042500089E180932501CDB7DEB7E0E10C943D38CC
:1042600025E8C21621E0D20618F7043AA2E01A07A0
:1042700008F0B1C0B8E9AB16B104D0F2C6010E9493
:104280005008AC019601A8E9B7EB0E94FA379A01F1
:1042900050E040E00E94B63729013A01C5010E9472
:1042A00050089C01A8E9B7EB0E94FA37950150E04D
:1042B00040E00E94B63788E7C8168FE0D80608F0BD
:1042C0006EC0F2E0440C551C661C771CFA95D1F7C1
:1042D000C301B201620F731F841F951F25E030E0F8
:1042E00040E050E00E94B637A4E6B0E00E940F38EC
:1042F0006B017C01BCEACB0EBDE0DB1EE11CF11CB6
:1043000010911301143008F093CFC150DC0F8D2FA2
:1043100090E0FC01ED5AFE4F2081880F991F880F15
:10432000991F8A559E4FDC01222309F4C1C08D904C
:104330009D90AD90BC90A7019601281939094A09B2
:104340005B0957FF07C050954095309521953F4F29
:104350004F4F5F4FAAE0B0E00E940F38B4E68B0EDB
:10436000911CA11CB11CC80CD91CEA1CFB1C6C15AF
:104370007D058E059F0508F05BCF133019F081E0B5
:104380008093130182E0808380916F01E82FF0E039
:10439000EA5AFE4FD0838F5F80936F0149CFA8E721
:1043A000AA16AFE0BA0670F4E2E0220F331F441FF2
:1043B000551FEA95D1F7CA01B901640D751D861D17
:1043C000971D8CCF240D351D461D571D56954795BD
:1043D0003795279589CFC0901401D0901501672D8E
:1043E000762DE616F70608F4B701C7010E945508B6
:1043F0009601DC010E94FA372B013C01C7010E94A3
:1044000050089C0150E040E0C301B2010E94B63761
:1044100029013A01A0900D01B0900E01892D982D2F
:104420008017910708F4C801B8010E94550895014A
:10443000DC010E94FA37980150E040E00E94B63754
:1044400088E7E8168FE0F806B0F462E0440C551CEB
:10445000661C771C6A95D1F7C301B201620F731F06
:10446000841F951F25E030E040E050E00E94B63701
:1044700069017A0145CF0837AFE01A0770F4CA0125
:10448000B90152E0660F771F881F991F5A95D1F71F
:10449000640D751D861D971DE5CF73016201C20E67
:1044A000D31EE41EF51EF694E794D794C79428CF44
:1044B000CD92DD92ED92FC92139781E08083B8CE8D
:1044C000550C54B88D2F0E94E8075C01B0ECEB1638
:1044D000B4E4FB0608F4C4CE80EBC8168DE4D8061D
:1044E00008F0A6CEC2CE110F15B814B98C2F0E94B9
:1044F000E8078135910508F09BCE15B98C2F0E94F5
:10450000E8076C01802F886087B908B915B854B8DE
:10451000A8E14A2EB12CA12C8C2F0E94E807982EDE
:10452000892E8D2F0E94EC078C018A199B0997FF19
:1045300003C0919581959109039714F2A8954A9427
:1045400058014110E9CF74CECF93C82FC09595B1D3
:1045500060FF0FC0982B95B994B1982B94B90E9425
:10456000B40784B18C2384B985B18C2385B9CF91EC
:1045700008959C23F0CFB0E0A0E0E1ECF2E20C94CF
:1045800027381AE008E08FE3C82E99E0D92E07B942
:1045900008B915B8C4B880E00E94E8077C0181E042
:1045A0000E94EC07EC0182E00E94EC079C018091E4
:1045B00013018930A1F488E087B914B8F0924E0154
:1045C000E0924D01D0935001C0934F0130935201BE
:1045D00020935101CDB7DEB7EAE00C94433884E074
:1045E000E816F10448F4C430D10560F424303105F4
:1045F00010F399E092600AC098E088EEE81683E034
:10460000F80608F499E0C83ED340A0F3283E3340B2
:1046100008F4946097B9D0E0C0E0A89580E00E94CB
:10462000E1075C0181E00E94EC077C0182E00E94CE
:10463000EC0724E1A21625E0B20608F4389A24E13A
:10464000E21625E0F20608F4399A843125E0920753
:1046500008F43A9A26E0A216B10430F426E0E216F5
:10466000F10410F4069738F02196C43F81E0D80792
:10467000A1F6D0921301F12CE12CEC16FD0621F4E9
:10468000115009F084CFA6CF0E94A3072FEFE21AA2
:10469000F20AF3CFCF92DF92EF92FF92CF93209165
:1046A0007301309174014091750150917601C09170
:1046B00085018AE0C82ED12CE12CF12C8C2FCF5F04
:1046C000213A96E8390791E049075105E0F48093D3
:1046D0008501A0912901B0912A010E940F3828E894
:1046E00033E140E050E00E94B637209373013093ED
:1046F00074014093750150937601CF91FF90EF9034
:10470000DF90CF900895CA01B901A70196010E94D8
:10471000B637D4CF8F929F92AF92BF92EF92FF9213
:104720000F931F93CF93DF93C82FF62E880F8C0F14
:104730009FEF960F890F80934A01EC2FF0E0EB5B1F
:10474000FD4FD491862F90E0FC01EB5BFD4F14915F
:10475000FC01E85BFD4F64918091130120911101F0
:1047600049E851E0DA018130F9F4DF91CF911F91EE
:104770000F91FF90EF90BF90AF909F908F90089512
:1047800016968C9116978F110EC08C918C130BC0BE
:10479000CD01880F991F89589140FC01848595852A
:1047A0008C3D954010F311968A2F841B821740F39D
:1047B000E62E6894E3F81092800110927F0181EF59
:1047C000809385011092730110927401109275010B
:1047D00010927601D0DE88E088B9E7B814B915B92F
:1047E0008C2F0E94EC078C018F2D0E94EC0714B8CF
:1047F00010924C0110924B014C01801A910A809149
:104800004B0190914C01843F914030F088E087B992
:1048100088B914B815B8A9CFD5B9D4B90E949D07E5
:1048200014B815B80E94A407A8958C2F0E94EC0715
:104830005C01A80CB91C80914B0190914C018E3702
:10484000910520F02BE4A216B10404F33DE2A31677
:1048500031E0B3060CF030C280914B0190914C01D5
:10486000019690934C0180934B01C9CFC501F5E1AE
:10487000AF16F5E0BF060CF440C17DDE15B88FE041
:1048800087B988E088B9BD2EBB0CB4B880E48093AA
:104890007B0084E580BF8C2F806480937C0086E160
:1048A00080937A000E94A70710924C0110924B014E
:1048B00010928000109285001092840087E286BBDF
:1048C00081E280936F0081E080937001B5B8909190
:1048D0001301953009F0D0C18093810081E090E010
:1048E0000C2E01C0880F0A94EAF780958F7087B963
:1048F000F89483B7817F83BF80917001882389F00A
:1049000083B7816083BF7894889583B78E7F83BF98
:10491000F894A89580914B0190914C018034964079
:1049200059F7789410928100A0908600B09087008B
:1049300010926F0086E980937A0014B815B88C2F16
:104940000E94EC0720912D0130912E01821B930BC8
:104950000C96909388018093870180914B019091F0
:104960004C018032934008F051CF80914B019091DF
:104970004C0190937E0180937D01B0927C01A092C6
:104980007B0184EF8093850180914B0190914C01D4
:1049900082349105C8F060917B0170917C01809117
:1049A0007D0190917E0124E630E040E050E00E94DD
:1049B000B63720937B0130937C0140937D01509367
:1049C0007E0186EF80938501A0917101B091720103
:1049D00020917B0130917C0140917D0150917E01BD
:1049E0000E940F3820E233E040E050E00E94B637EA
:1049F00020937B0130937C0140937D0150937E0195
:104A000020937301309374014093750150937601A4
:104A100041DE80918501843F09F056C0809073018A
:104A200090907401A0907501B0907601F0EA8F1615
:104A3000FFE09F06A104B104C0F4A50194012C5429
:104A40003F4F4F4F5F4F60EA7FE080E090E00E9471
:104A5000B637820E931EA41EB51E809273019092EB
:104A60007401A0927501B0927601809073019090CC
:104A70007401A0907501B09076018114910421E039
:104A8000A206B10408F0FCC09092B7018092B60172
:104A900080914A0190E08F5C9C4F0E94AA3890E080
:104AA000B0E0A0E088159905AA05BB0508F0EFC0A5
:104AB000881A990AAA0ABB0A80927301909274011B
:104AC000A0927501B0927601D4B980917301909152
:104AD0007401A0917501B09176014997A105B105C6
:104AE00008F082C093CE0E949E078C2F0E94EC0794
:104AF000880D991DA8950F5F1F4F20914B01309194
:104B00004C012017310778F74501881A990A1814C3
:104B100019040CF0AEC029EC821691040CF076CE8C
:104B200028EE33E0D4010E94093895010B2C000CCB
:104B3000440B550B0E94B637890180914B0190912F
:104B40004C010196B0E0A0E080937B0190937C0142
:104B5000A0937D01B0937E01C501880D991D0E942F
:104B6000B10820917B0130917C0140917D015091F1
:104B70007E01DC010E940F3860937B0170937C0101
:104B800080937D0190937E01609373017093740113
:104B9000809375019093760187EF809385017ADD8C
:104BA0008090730190907401A0907501B09076018F
:104BB00084E193E00E94AA38A8EEB3E0A81BB109F3
:104BC00087FDB395A50194010E94193824E630E0D1
:104BD00040E050E00E94B637209373013093740197
:104BE000409375015093760180911101882329F03B
:104BF00080911301853009F009CE88E0809313017C
:104C000080918501909186019817C4F08913FECD9B
:104C10008090730190907401A0907501B09076011E
:104C200040917701509178016091790170917A01FA
:104C3000481559056A057B0508F0E8CD40917301D8
:104C400050917401609175017091760140937701E4
:104C5000509378016093790170937A018093860173
:104C60001093820100938101F0928301C09384012B
:104C7000CDCD10E000E061CF80938100E7B838CE61
:104C800081E090E09093B7018093B60101CF34E1C9
:104C9000830E911CA11CB11C88169906AA06BB069E
:104CA00010F40E94E312109273011092740110929A
:104CB00075011092760108CF00914B0110914C01C3
:104CC0000115110509F4D2CDC50110E000E015CFA2
:104CD0001F921FB61F9211248F939F93B59904C002
:104CE00080917001811109C0B59B10C08091860030
:104CF000909187008A3F910548F480914B019091F3
:104D00004C01019690934C0180934B019F918F91A0
:104D10001F901FBE1F9018951F921FB61F9211243F
:104D20008F939F9310927001B09B10C0809186006A
:104D3000909187008A3F910548F480914B019091B2
:104D40004C01019690934C0180934B019F918F9160
:104D50001F901FBE1F901895B0E0A0E0E2EBF6E2B6
:104D60000C94253888E893E19093180180931701FB
:104D700090932A01809329018EEB80932501C8E04E
:104D8000C8B988E187B90E94AC07C7B984E00E941E
:104D9000E807AC018B5C9840833F9140A0F481E030
:104DA000809334012091290130912A01AFEBB9E0C1
:104DB0000E94FA379A0150E040E00E94B6373093E3
:104DC0001801209317018091170190911801909379
:104DD0002A01809329018EE00E94EC078EE00E9458
:104DE000E80790932E0180932D010E945E08C3DB9B
:104DF00088E0F82EF8B8C9E0C7B985E185B9D1E0F7
:104E0000D4B980E00E94E8078C019AE0D92ED7B887
:104E100024E0B22EB4B881E00E94E807080F191F01
:104E20003CE0E32EE7B840E1C42EC4B882E00E9423
:104E3000E807080F191F15B8C8B9C7B9D4B980E079
:104E40000E94E8070E945008EC01D8B8D7B8B4B85F
:104E500081E00E94E8070E945008C80FD91FE8B8F7
:104E6000E7B8C4B882E00E94E8070E945008C80F63
:104E7000D91FF7B8F8B814B88091290190912A0188
:104E80006C01CC0CDD1CC80ED91EC8018C0F9D1FF7
:104E9000C81AD90AF12CE12C9801A0E9BAE10E94C4
:104EA000FA37A70196010E94B63749015A0130939B
:104EB0003301209332019E01A0E9BAE10E94FA3742
:104EC000A70196010E94B63730932C0120932B0145
:104ED0002057354E309315012093140180E7881A2E
:104EE00085EE980A90920E0180920D0189E18093DF
:104EF0002501CDB7DEB7ECE00C944138CF92DF92BC
:104F0000EF92FF920F93CF93DF93F82EC62FD42FFB
:104F10000E94BD0C88E091E00E94CB0CF7D16C2F71
:104F20008F2D0E94A735C090BA01D090BB01E090B0
:104F3000BC01F090BD018091190187FD05C0C1142D
:104F4000D104E104F10421F084E091E00E94CB0C53
:104F50008C2F0E94BD0CC114D104E104F10431F086
:104F60000E949406809156010E94F806DD2309F400
:104F700059C0809135018D3008F054C08650990B8E
:104F8000855C9C4F0E94CB0C80E00E94790BCD2861
:104F9000CE28CF2809F449C06091BA017091BB01B5
:104FA0008091BC019091BD0103E028E447EF0E948D
:104FB000100D87E191E00E94CB0C86E493E00E9403
:104FC000B23823E046E464EF0E94F00D8091B20114
:104FD0009091B301A091B401B091B501892B8A2BB6
:104FE0008B2BF1F180E00E94790B6091B2017091FE
:104FF000B3018091B4019091B50104E028E440E050
:105000000E94100D82E191E00E94CB0C23E040E26F
:105010006FEF8091B8019091B9010E94F00D0E944C
:10502000580B25C00E94580BAFCF809156010E94AB
:10503000F806809119018E3F4CF68FE291E00E94B4
:10504000CB0C6091A1017091A2018091A30190917C
:10505000A40103E028E4409119010E94100DB6CF8D
:1050600080E00E945E0B809138018823C1F2DF91BD
:10507000CF910F91FF90EF90DF90CF900895EF9236
:10508000FF920F931F93CF93DF93182F0E94ED0A87
:10509000809183010E94BD0C8BE491E00E94CB0CB7
:1050A00078D360918301809184010E941409EC01FE
:1050B0009093800180937F01E0908101F0908201C4
:1050C000CA3F8FEFD80720F489E091E00E94CB0C13
:1050D000809184010E94BD0C112309F445C0909178
:1050E00035018DE0891B0E94B90A89E690E00E9493
:1050F000CB0C0E94400B60917701709178018091F8
:10510000790190917A0104E026E4409186010E94A1
:10511000100DCA3FDF4F68F48AE391E00E94CB0C88
:1051200022E04DE16EEF80917F01909180010E941D
:10513000F00D0E94580B0E94480BE114F10469F035
:1051400083E391E00E94CB0C22E045E26FEF809177
:105150008101909182010E94F00D0E94580BCDB701
:10516000DEB7E6E00C9447380E94580BC2CF8F7030
:1051700021F40E94500B0C94F91808958F3021F4FB
:1051800090912F01913011F08F5F089580E0089584
:10519000CF9384E790E066D76AE080E00E94C20A7D
:1051A0008FE393E00E94CB0CC0E00E94C10E60E050
:1051B00082E00E94A12062E080E00E94A1200E9483
:1051C000ED0A80916F018823A9F041E062E080E060
:1051D00095DE8C2FCCDF88EE93E00E943F0E81118C
:1051E00005C08C2FCBDFC82F8A3FF8F20E94F40A4B
:1051F000CF91089584E790E00E94CB0C8FE393E079
:105200000E94CB0C0E94400B8FE30E944D0C80E06B
:105210000E945E0B0E94580BDCCF0F931F93CF931D
:10522000DF93C0E0D8E012EF0DE00E94C10E60E015
:1052300082E070DAD093130180918501843FE1F41C
:105240008091730190917401A0917501B0917601E4
:1052500084369105A105B10578F440E060E082E074
:105260000E944133609373017093740180937501C0
:10527000909376011093850180918501823F4CF1D6
:10528000809386018091730190917401A0917501C2
:10529000B09176018093770190937801A093790182
:1052A000B0937A0181E0EBDE8C2F61DF88EE93E032
:1052B0000E943F0E811106C08C2F60DFC82F8A3FED
:1052C00008F4B3CF0E94F40ADF91CF911F910F91A0
:1052D00008950E94ED0A8DE690E00E94CB0C80912B
:1052E0003501902F981B892F0E94B90A89E690E01A
:1052F0000E94CB0C0E94400B8FE30E944D0C0E9439
:10530000580B0E94480B0E94580BCECFA6E1B0E08C
:10531000ECE8F9E20C941F3882E080931901809147
:105320001301813009F0DDC180916F01813009F0F6
:10533000D8C14090560124E0429EF0011124EA5564
:10534000FE4F80819181A281B381893032E593073C
:10535000A105B10508F0C5C11C01712C81E08715BC
:1053600008F4C3C1842D0E94EE06982E892EE92FE1
:10537000F0E0E85BFD4F549090E0FC01EB5BFD4FEB
:10538000E49115B828E028B9372D3170632E20EF4D
:105390002216310408F0B0C13111AEC100910D01E7
:1053A00010910E0100591A4121E030E002C0220F95
:1053B000331F8A95E2F7C9018529886087B934E1EE
:1053C000398B892D0E94E5075C01882D0E94EC072E
:1053D00024E0A216B10410F4049728F03989315062
:1053E000398B3111EECF80E480937B0094E590BF40
:1053F000892D806480937C0026E120937A00F12C33
:10540000E12C10928000109285001092840087E2B7
:1054100086BB0E94A707872D90E09A8B898B61102D
:1054200074C181E88093810058B886B385FF76C146
:1054300028E028B91092810030E236BB2091860026
:1054400030918700690140918400509185002417B4
:10545000350708F471C186E980937A00B4E15B2EC8
:10546000892D0E94E5075C01882D0E94EC0724E04D
:10547000A216B10410F4049718F05A945110F0CF0A
:105480008090320190903301820C931C800E911E0B
:1054900020910F013091100100398AE1180708F0BE
:1054A00053C169E191EEC916D104E104F10430F46D
:1054B000C60165E070E00E948F37645128523109BF
:1054C000261B310967FD339566E0862F90E0B0E03A
:1054D000A0E08C159D05AE05BF0508F03EC1C81AB9
:1054E000D90AEA0AFB0A662029F082E2C80ED11C1A
:1054F000E11CF11C90E5E916F10418F0C12CD12C47
:1055000076018BE0C816D104E104F10428F091E0A3
:10551000C91AD108E108F108B12CA12CA8EEB3E01A
:105520000E94FA376B8B7C8B8D8B9E8BA09129010F
:10553000B0912A0198010E94FA37A50194010E94B6
:10554000B637442755276B897C898D899E890E94AF
:10555000B637C9010E94F008FC01A5019401C701FA
:10556000B6010E9474374B015C01BF0190E080E0FE
:10557000E3E0660F771F881F991FEA95D1F76B5FED
:105580007F4F8F4F9F4F2AE030E040E050E00E9475
:10559000B637C501B4010E94B637E989FA89EE0F22
:1055A000FF1FEE0FFF1F81E090E08C0F9D1FE80FA3
:1055B000F91F2083318342835383611018C09CE01C
:1055C000C916D104E104F10490F07394E989FA89D1
:1055D0003196EE0FFF1FEE0FFF1F81E090E08C0F62
:1055E0009D1FE80FF91F2083318342835383A895C1
:1055F000739493E0971508F0B1CE88E088B984E001
:105600000E94B50791E00D811E812F813885498167
:105610005A816B817C81401751076207730708F03C
:1056200090E00D851E852F85388949855A856B85C3
:105630007C8583E0401751076207730708F082E01A
:1056400024E0829FD001112421E030E02C0F3D1F87
:10565000A20FB31FE92FF0E0EE0FFF1FEE0FFF1FA9
:10566000E20FF31F0D911D912D913C9140815181CD
:1056700062817381041715072607370708F0892F01
:1056800034E0839FF001112421E030E02C0F3D1F16
:10569000E20FF31F40815181628173814093A10128
:1056A0005093A2016093A3017093A40180FD59C09F
:1056B00030EF2316310408F054C08BEF80931901AA
:1056C0008091A1019091A201A091A301B091A401A8
:1056D000892B8A2B8B2B11F41092190188E087B942
:1056E00014B86696E2E10C943B38842D0E94EE06D5
:1056F00098278927982739CEE4B9852D886087B9FE
:1057000000910D0110910E015ACE58B80E94B007B9
:1057100090E296BB81E88093810087CE80FF85CEA2
:1057200091E096BBA89597012F5F3F4F79012035F7
:10573000310509F07ACE7CCE80FF8DCE21E026BBEC
:105740003FEFE31AF30A87CEC40160EB76E30E94D1
:105750008F37695F285D3F4FB8CEC12CD12C7601C1
:10576000C2CE8CEF80931901CB01BA016B5F7F4FE2
:105770008F4F9F4F2AE030E040E050E00E94B63764
:105780002093A1013093A2014093A3015093A4015F
:1057900097CFB0E0A0E0EFECFBE20C942138009151
:1057A0008101109182010115110509F092C0E0916B
:1057B0008301F0E0E85BFD4FD491D860E091840173
:1057C000F0E0EB5BFD4FC4910E94BB2288E088B9FA
:1057D00015B8D7B9C4B9809184010E94EC077C0147
:1057E000D09186018CE08D0F843008F072C08091DA
:1057F000770190917801A0917901B0917A01D15F00
:105800002C013D0125E0420E511C611C711CC3019D
:10581000B2012AE030E040E050E00E94B637490192
:105820005A01DA01C901DF5FD73051F72AE5421684
:1058300023EC52066104710408F04BC0059708F48C
:1058400048C0C5B9C4B9D0E0C0E0C815D90508F44E
:1058500045C014B815B8A89585E0809325018091BE
:1058600084010E94EC07EC01CE19DF09E816F90665
:1058700010F0D0E0C0E0D12CC12CC814D90490F1B4
:10588000809184010E94EC0729E120932501A895CD
:10589000E816F90618F48C010E191F090C171D07DC
:1058A00088F49E01201B310B69F0A4EFB1E00E9447
:1058B000FA379E0150E040E00E94B63730938201F3
:1058C000209381010E94BB2288E087B988B914B86F
:1058D00015B8CDB7DEB7E0E10C943D380E94AE07B5
:1058E0002296B3CF0E94AE078FEFC81AD80AC5CF51
:1058F0008B3008F08B50811109C088E192E00E9442
:10590000CB0C0E94580B0C94E80A0895813019F4CE
:105910008FEE91E0F4CF823019F484EE91E0EFCF76
:10592000833019F48FE790E0EACF843019F484E7EC
:1059300090E0E5CF853019F48DE690E0E0CF863039
:1059400019F484ED91E0DBCF873019F485EC91E018
:10595000D6CF883019F48EEA91E0D1CF893019F48E
:1059600086E092E0CCCF8A3061F68BEF91E0C7CF32
:105970000F93CF938FE790E075D3C0E0109213019F
:1059800060E082E0E7D380911301883009F04BC0DA
:105990000E94400B83E40E944D0C0E949806609187
:1059A0007701709178018091790190917A0103E0FB
:1059B00026E4409186010E94100D0E94580B6091D0
:1059C0008301809184010E94140990938001809347
:1059D0007F010E94480B8BE391E00E94CB0C8091E9
:1059E0007F01909180018A3F2FEF9207C0F422E05F
:1059F0004DE16EEF0E94F00D0E94580B8C2FB7DB2B
:105A000088EE93E00E943F0E811106C08C2FB6DB1A
:105A1000C82F8A3F08F4B2CFCF910F9108958FE33A
:105A20000E944D0CE9CF0E94850B0E94480BE4CFE9
:105A3000A5E0B0E0EEE1FDE20C941F388FEE91E0BE
:105A400011D380E18093800010926F0081E090E09C
:105A5000909389008093880010928B0010928A00A6
:105A600083E086BB1092820088E08093810015B8A5
:105A700091E194B988B989E087B9229A809381002D
:105A8000312C20E03AE0398341E04C83812C912C89
:105A90005401839451E15D83832D90E00A966EE179
:105AA00070E00E94A3376B83F62E621759F00E94B4
:105AB000ED0A8FEE91E00E94CB0C10E01F11DCC0CC
:105AC0000E94580B8C8169810E948337A92FB0E016
:105AD000A50194010E940F386B017C018D818231F8
